{"abi":[{"inputs":[{"internalType":"address[]","name":"_validators","type":"address[]"},{"internalType":"contract ERC20","name":"_token","type":"address"}],"stateMutability":"nonpayable","type":"constructor"},{"anonymous":false,"inputs":[{"indexed":false,"internalType":"uint256","name":"_startBlockNumber","type":"uint256"},{"indexed":false,"internalType":"uint256","name":"_bunchDepth","type":"uint256"},{"indexed":false,"internalType":"uint256","name":"_bunchIndex","type":"uint256"}],"name":"NewBunchHeader","type":"event"},{"inputs":[{"internalType":"uint256","name":"","type":"uint256"}],"name":"bunches","outputs":[{"internalType":"uint256","name":"startBlockNumber","type":"uint256"},{"internalType":"uint256","name":"bunchDepth","type":"uint256"},{"internalType":"bytes32","name":"transactionsMegaRoot","type":"bytes32"},{"internalType":"bytes32","name":"receiptsMegaRoot","type":"bytes32"}],"stateMutability":"view","type":"function"},{"inputs":[{"internalType":"bytes","name":"_rawTransactionProof","type":"bytes"}],"name":"claimWithdrawal","outputs":[],"stateMutability":"nonpayable","type":"function"},{"inputs":[],"name":"esnDepositAddress","outputs":[{"internalType":"address","name":"","type":"address"}],"stateMutability":"view","type":"function"},{"inputs":[],"name":"getAllSigners","outputs":[{"internalType":"address[]","name":"","type":"address[]"}],"stateMutability":"view","type":"function"},{"inputs":[],"name":"getAllValidators","outputs":[{"internalType":"address[]","name":"","type":"address[]"}],"stateMutability":"view","type":"function"},{"inputs":[{"internalType":"address","name":"","type":"address"}],"name":"isValidator","outputs":[{"internalType":"bool","name":"","type":"bool"}],"stateMutability":"view","type":"function"},{"inputs":[],"name":"lastBunchIndex","outputs":[{"internalType":"uint256","name":"","type":"uint256"}],"stateMutability":"view","type":"function"},{"inputs":[],"name":"numberOfValidators","outputs":[{"internalType":"uint256","name":"","type":"uint256"}],"stateMutability":"view","type":"function"},{"inputs":[{"internalType":"bytes32","name":"","type":"bytes32"}],"name":"processedWithdrawals","outputs":[{"internalType":"bool","name":"","type":"bool"}],"stateMutability":"view","type":"function"},{"inputs":[{"internalType":"address","name":"_esnDepositAddress","type":"address"}],"name":"setESNDepositAddress","outputs":[],"stateMutability":"nonpayable","type":"function"},{"inputs":[{"internalType":"uint256","name":"","type":"uint256"}],"name":"signers","outputs":[{"internalType":"address","name":"","type":"address"}],"stateMutability":"view","type":"function"},{"inputs":[{"internalType":"bytes","name":"_signedHeader","type":"bytes"}],"name":"submitBunchHeader","outputs":[],"stateMutability":"nonpayable","type":"function"},{"inputs":[],"name":"token","outputs":[{"internalType":"contract ERC20","name":"","type":"address"}],"stateMutability":"view","type":"function"},{"inputs":[{"internalType":"uint256","name":"","type":"uint256"}],"name":"validators","outputs":[{"internalType":"address","name":"","type":"address"}],"stateMutability":"view","type":"function"}],"devdoc":{"methods":{}},"evm":{"assembly":"    /* \"ETH/PlasmaManager.sol\":338:5271  contract PlasmaManager {... */\n  mstore(0x40, 0x80)\n    /* \"ETH/PlasmaManager.sol\":1387:1391  this */\n  address\n    /* \"ETH/PlasmaManager.sol\":1344:1392  address public esnDepositAddress = address(this) */\n  0x07\n  exp(0x0100, 0x00)\n  dup2\n  sload\n  dup2\n  0xffffffffffffffffffffffffffffffffffffffff\n  mul\n  not\n  and\n  swap1\n  dup4\n  0xffffffffffffffffffffffffffffffffffffffff\n  and\n  mul\n  or\n  swap1\n  sstore\n  pop\n    /* \"ETH/PlasmaManager.sol\":1498:1755  constructor(address[] memory _validators, ERC20 _token) public {... */\n  callvalue\n    /* \"--CODEGEN--\":5:14   */\n  dup1\n    /* \"--CODEGEN--\":2:4   */\n  iszero\n  tag_1\n  jumpi\n    /* \"--CODEGEN--\":27:28   */\n  0x00\n    /* \"--CODEGEN--\":24:25   */\n  dup1\n    /* \"--CODEGEN--\":17:29   */\n  revert\n    /* \"--CODEGEN--\":2:4   */\ntag_1:\n    /* \"ETH/PlasmaManager.sol\":1498:1755  constructor(address[] memory _validators, ERC20 _token) public {... */\n  pop\n  mload(0x40)\n  sub(codesize, bytecodeSize)\n  dup1\n  bytecodeSize\n  dup4\n  codecopy\n  dup2\n  dup2\n  add\n  0x40\n  mstore\n    /* \"--CODEGEN--\":15:17   */\n  0x40\n    /* \"--CODEGEN--\":10:13   */\n  dup2\n    /* \"--CODEGEN--\":7:18   */\n  lt\n    /* \"--CODEGEN--\":4:6   */\n  iszero\n  tag_2\n  jumpi\n    /* \"--CODEGEN--\":31:32   */\n  0x00\n    /* \"--CODEGEN--\":28:29   */\n  dup1\n    /* \"--CODEGEN--\":21:33   */\n  revert\n    /* \"--CODEGEN--\":4:6   */\ntag_2:\n    /* \"ETH/PlasmaManager.sol\":1498:1755  constructor(address[] memory _validators, ERC20 _token) public {... */\n  dup2\n  add\n  swap1\n  dup1\n  dup1\n  mload\n  mload(0x40)\n  swap4\n  swap3\n  swap2\n  swap1\n  dup5\n    /* \"--CODEGEN--\":19:30   */\n  0x0100000000\n    /* \"--CODEGEN--\":14:17   */\n  dup3\n    /* \"--CODEGEN--\":11:31   */\n  gt\n    /* \"--CODEGEN--\":8:10   */\n  iszero\n  tag_3\n  jumpi\n    /* \"--CODEGEN--\":44:45   */\n  0x00\n    /* \"--CODEGEN--\":41:42   */\n  dup1\n    /* \"--CODEGEN--\":34:46   */\n  revert\n    /* \"--CODEGEN--\":8:10   */\ntag_3:\n    /* \"--CODEGEN--\":71:82   */\n  dup4\n    /* \"--CODEGEN--\":66:69   */\n  dup3\n    /* \"--CODEGEN--\":62:83   */\n  add\n    /* \"--CODEGEN--\":55:83   */\n  swap2\n  pop\n    /* \"--CODEGEN--\":123:127   */\n  0x20\n    /* \"--CODEGEN--\":118:121   */\n  dup3\n    /* \"--CODEGEN--\":114:128   */\n  add\n    /* \"--CODEGEN--\":159:168   */\n  dup6\n    /* \"--CODEGEN--\":141:157   */\n  dup2\n    /* \"--CODEGEN--\":138:169   */\n  gt\n    /* \"--CODEGEN--\":135:137   */\n  iszero\n  tag_4\n  jumpi\n    /* \"--CODEGEN--\":182:183   */\n  0x00\n    /* \"--CODEGEN--\":179:180   */\n  dup1\n    /* \"--CODEGEN--\":172:184   */\n  revert\n    /* \"--CODEGEN--\":135:137   */\ntag_4:\n    /* \"--CODEGEN--\":219:222   */\n  dup3\n    /* \"--CODEGEN--\":213:223   */\n  mload\n    /* \"--CODEGEN--\":331:340   */\n  dup7\n    /* \"--CODEGEN--\":325:327   */\n  0x20\n    /* \"--CODEGEN--\":311:323   */\n  dup3\n    /* \"--CODEGEN--\":307:328   */\n  mul\n    /* \"--CODEGEN--\":289:305   */\n  dup4\n    /* \"--CODEGEN--\":285:329   */\n  add\n    /* \"--CODEGEN--\":282:341   */\n  gt\n    /* \"--CODEGEN--\":261:272   */\n  0x0100000000\n    /* \"--CODEGEN--\":247:259   */\n  dup3\n    /* \"--CODEGEN--\":244:273   */\n  gt\n    /* \"--CODEGEN--\":233:349   */\n  or\n    /* \"--CODEGEN--\":230:232   */\n  iszero\n  tag_5\n  jumpi\n    /* \"--CODEGEN--\":362:363   */\n  0x00\n    /* \"--CODEGEN--\":359:360   */\n  dup1\n    /* \"--CODEGEN--\":352:364   */\n  revert\n    /* \"--CODEGEN--\":230:232   */\ntag_5:\n    /* \"--CODEGEN--\":385:397   */\n  dup1\n    /* \"--CODEGEN--\":380:383   */\n  dup4\n    /* \"--CODEGEN--\":373:398   */\n  mstore\n    /* \"--CODEGEN--\":421:425   */\n  0x20\n    /* \"--CODEGEN--\":416:419   */\n  dup4\n    /* \"--CODEGEN--\":412:426   */\n  add\n    /* \"--CODEGEN--\":405:426   */\n  swap3\n  pop\n    /* \"--CODEGEN--\":0:433   */\n  pop\n  pop\n    /* \"ETH/PlasmaManager.sol\":1498:1755  constructor(address[] memory _validators, ERC20 _token) public {... */\n  swap1\n  dup1\n  mload\n  swap1\n  0x20\n  add\n  swap1\n  0x20\n  mul\n  dup1\n  dup4\n  dup4\n    /* \"--CODEGEN--\":23:24   */\n  0x00\n    /* \"--CODEGEN--\":8:108   */\ntag_6:\n    /* \"--CODEGEN--\":33:36   */\n  dup4\n    /* \"--CODEGEN--\":30:31   */\n  dup2\n    /* \"--CODEGEN--\":27:37   */\n  lt\n    /* \"--CODEGEN--\":8:108   */\n  iszero\n  tag_8\n  jumpi\n    /* \"--CODEGEN--\":99:100   */\n  dup1\n    /* \"--CODEGEN--\":94:97   */\n  dup3\n    /* \"--CODEGEN--\":90:101   */\n  add\n    /* \"--CODEGEN--\":84:102   */\n  mload\n    /* \"--CODEGEN--\":80:81   */\n  dup2\n    /* \"--CODEGEN--\":75:78   */\n  dup5\n    /* \"--CODEGEN--\":71:82   */\n  add\n    /* \"--CODEGEN--\":64:103   */\n  mstore\n    /* \"--CODEGEN--\":52:54   */\n  0x20\n    /* \"--CODEGEN--\":49:50   */\n  dup2\n    /* \"--CODEGEN--\":45:55   */\n  add\n    /* \"--CODEGEN--\":40:55   */\n  swap1\n  pop\n    /* \"--CODEGEN--\":8:108   */\n  jump(tag_6)\ntag_8:\n    /* \"--CODEGEN--\":12:26   */\n  pop\n    /* \"ETH/PlasmaManager.sol\":1498:1755  constructor(address[] memory _validators, ERC20 _token) public {... */\n  pop\n  pop\n  pop\n  swap1\n  pop\n  add\n  0x40\n  mstore\n  0x20\n  add\n  dup1\n  mload\n  swap1\n  0x20\n  add\n  swap1\n  swap3\n  swap2\n  swap1\n  pop\n  pop\n  pop\n    /* \"ETH/PlasmaManager.sol\":1570:1580  uint256 _i */\n  0x00\n    /* \"ETH/PlasmaManager.sol\":1583:1584  0 */\n  dup1\n    /* \"ETH/PlasmaManager.sol\":1570:1584  uint256 _i = 0 */\n  swap1\n  pop\n    /* \"ETH/PlasmaManager.sol\":1565:1662  for (uint256 _i = 0; _i < _validators.length; _i++) {... */\ntag_11:\n    /* \"ETH/PlasmaManager.sol\":1591:1602  _validators */\n  dup3\n    /* \"ETH/PlasmaManager.sol\":1591:1609  _validators.length */\n  mload\n    /* \"ETH/PlasmaManager.sol\":1586:1588  _i */\n  dup2\n    /* \"ETH/PlasmaManager.sol\":1586:1609  _i < _validators.length */\n  lt\n    /* \"ETH/PlasmaManager.sol\":1565:1662  for (uint256 _i = 0; _i < _validators.length; _i++) {... */\n  iszero\n  tag_12\n  jumpi\n    /* \"ETH/PlasmaManager.sol\":1653:1657  true */\n  0x01\n    /* \"ETH/PlasmaManager.sol\":1622:1633  isValidator */\n  dup1\n    /* \"ETH/PlasmaManager.sol\":1622:1650  isValidator[_validators[_i]] */\n  0x00\n    /* \"ETH/PlasmaManager.sol\":1634:1645  _validators */\n  dup6\n    /* \"ETH/PlasmaManager.sol\":1646:1648  _i */\n  dup5\n    /* \"ETH/PlasmaManager.sol\":1634:1649  _validators[_i] */\n  dup2\n  mload\n  dup2\n  lt\n  tag_14\n  jumpi\n  invalid\ntag_14:\n  0x20\n  mul\n  0x20\n  add\n  add\n  mload\n    /* \"ETH/PlasmaManager.sol\":1622:1650  isValidator[_validators[_i]] */\n  0xffffffffffffffffffffffffffffffffffffffff\n  and\n  0xffffffffffffffffffffffffffffffffffffffff\n  and\n  dup2\n  mstore\n  0x20\n  add\n  swap1\n  dup2\n  mstore\n  0x20\n  add\n  0x00\n  keccak256\n  0x00\n    /* \"ETH/PlasmaManager.sol\":1622:1657  isValidator[_validators[_i]] = true */\n  0x0100\n  exp\n  dup2\n  sload\n  dup2\n  0xff\n  mul\n  not\n  and\n  swap1\n  dup4\n  iszero\n  iszero\n  mul\n  or\n  swap1\n  sstore\n  pop\n    /* \"ETH/PlasmaManager.sol\":1611:1615  _i++ */\n  dup1\n  dup1\n  0x01\n  add\n  swap2\n  pop\n  pop\n    /* \"ETH/PlasmaManager.sol\":1565:1662  for (uint256 _i = 0; _i < _validators.length; _i++) {... */\n  jump(tag_11)\ntag_12:\n  pop\n    /* \"ETH/PlasmaManager.sol\":1686:1697  _validators */\n  dup2\n    /* \"ETH/PlasmaManager.sol\":1686:1704  _validators.length */\n  mload\n    /* \"ETH/PlasmaManager.sol\":1665:1683  numberOfValidators */\n  0x00\n    /* \"ETH/PlasmaManager.sol\":1665:1704  numberOfValidators = _validators.length */\n  dup2\n  swap1\n  sstore\n  pop\n    /* \"ETH/PlasmaManager.sol\":1721:1732  _validators */\n  dup2\n    /* \"ETH/PlasmaManager.sol\":1708:1718  validators */\n  0x03\n    /* \"ETH/PlasmaManager.sol\":1708:1732  validators = _validators */\n  swap1\n  dup1\n  mload\n  swap1\n  0x20\n  add\n  swap1\n  tag_15\n  swap3\n  swap2\n  swap1\n  tag_16\n  jump\t// in\ntag_15:\n  pop\n    /* \"ETH/PlasmaManager.sol\":1745:1751  _token */\n  dup1\n    /* \"ETH/PlasmaManager.sol\":1737:1742  token */\n  0x06\n  0x00\n    /* \"ETH/PlasmaManager.sol\":1737:1751  token = _token */\n  0x0100\n  exp\n  dup2\n  sload\n  dup2\n  0xffffffffffffffffffffffffffffffffffffffff\n  mul\n  not\n  and\n  swap1\n  dup4\n  0xffffffffffffffffffffffffffffffffffffffff\n  and\n  mul\n  or\n  swap1\n  sstore\n  pop\n    /* \"ETH/PlasmaManager.sol\":1498:1755  constructor(address[] memory _validators, ERC20 _token) public {... */\n  pop\n  pop\n    /* \"ETH/PlasmaManager.sol\":338:5271  contract PlasmaManager {... */\n  jump(tag_17)\ntag_16:\n  dup3\n  dup1\n  sload\n  dup3\n  dup3\n  sstore\n  swap1\n  0x00\n  mstore\n  keccak256(0x00, 0x20)\n  swap1\n  dup2\n  add\n  swap3\n  dup3\n  iszero\n  tag_18\n  jumpi\n  swap2\n  0x20\n  mul\n  dup3\n  add\ntag_19:\n  dup3\n  dup2\n  gt\n  iszero\n  tag_20\n  jumpi\n  dup3\n  mload\n  dup3\n  exp(0x0100, 0x00)\n  dup2\n  sload\n  dup2\n  0xffffffffffffffffffffffffffffffffffffffff\n  mul\n  not\n  and\n  swap1\n  dup4\n  0xffffffffffffffffffffffffffffffffffffffff\n  and\n  mul\n  or\n  swap1\n  sstore\n  pop\n  swap2\n  0x20\n  add\n  swap2\n  swap1\n  0x01\n  add\n  swap1\n  jump(tag_19)\ntag_20:\ntag_18:\n  pop\n  swap1\n  pop\n  tag_21\n  swap2\n  swap1\n  tag_22\n  jump\t// in\ntag_21:\n  pop\n  swap1\n  jump\t// out\ntag_22:\n  tag_23\n  swap2\n  swap1\ntag_24:\n  dup1\n  dup3\n  gt\n  iszero\n  tag_25\n  jumpi\n  0x00\n  dup2\n  dup2\n  0x0100\n  exp\n  dup2\n  sload\n  swap1\n  0xffffffffffffffffffffffffffffffffffffffff\n  mul\n  not\n  and\n  swap1\n  sstore\n  pop\n  0x01\n  add\n  jump(tag_24)\ntag_25:\n  pop\n  swap1\n  jump\ntag_23:\n  swap1\n  jump\t// out\ntag_17:\n  dataSize(sub_0)\n  dup1\n  dataOffset(sub_0)\n  0x00\n  codecopy\n  0x00\n  return\nstop\n\nsub_0: assembly {\n        /* \"ETH/PlasmaManager.sol\":338:5271  contract PlasmaManager {... */\n      mstore(0x40, 0x80)\n      callvalue\n        /* \"--CODEGEN--\":5:14   */\n      dup1\n        /* \"--CODEGEN--\":2:4   */\n      iszero\n      tag_1\n      jumpi\n        /* \"--CODEGEN--\":27:28   */\n      0x00\n        /* \"--CODEGEN--\":24:25   */\n      dup1\n        /* \"--CODEGEN--\":17:29   */\n      revert\n        /* \"--CODEGEN--\":2:4   */\n    tag_1:\n        /* \"ETH/PlasmaManager.sol\":338:5271  contract PlasmaManager {... */\n      pop\n      jumpi(tag_2, lt(calldatasize, 0x04))\n      shr(0xe0, calldataload(0x00))\n      dup1\n      0xbf49d631\n      gt\n      tag_17\n      jumpi\n      dup1\n      0xd6832ea9\n      gt\n      tag_18\n      jumpi\n      dup1\n      0xd6832ea9\n      eq\n      tag_13\n      jumpi\n      dup1\n      0xf3513a37\n      eq\n      tag_14\n      jumpi\n      dup1\n      0xfacd743b\n      eq\n      tag_15\n      jumpi\n      dup1\n      0xfc0c546a\n      eq\n      tag_16\n      jumpi\n      jump(tag_2)\n    tag_18:\n      dup1\n      0xbf49d631\n      eq\n      tag_10\n      jumpi\n      dup1\n      0xca5d0926\n      eq\n      tag_11\n      jumpi\n      dup1\n      0xd42f2f35\n      eq\n      tag_12\n      jumpi\n      jump(tag_2)\n    tag_17:\n      dup1\n      0x35aa2e44\n      gt\n      tag_19\n      jumpi\n      dup1\n      0x35aa2e44\n      eq\n      tag_6\n      jumpi\n      dup1\n      0x75080de8\n      eq\n      tag_7\n      jumpi\n      dup1\n      0x76f5e6da\n      eq\n      tag_8\n      jumpi\n      dup1\n      0x974275cf\n      eq\n      tag_9\n      jumpi\n      jump(tag_2)\n    tag_19:\n      dup1\n      0x15c09850\n      eq\n      tag_3\n      jumpi\n      dup1\n      0x2079fb9a\n      eq\n      tag_4\n      jumpi\n      dup1\n      0x2ceea82a\n      eq\n      tag_5\n      jumpi\n    tag_2:\n        /* \"--CODEGEN--\":12:13   */\n      0x00\n        /* \"--CODEGEN--\":9:10   */\n      dup1\n        /* \"--CODEGEN--\":2:14   */\n      revert\n        /* \"ETH/PlasmaManager.sol\":1344:1392  address public esnDepositAddress = address(this) */\n    tag_3:\n      tag_20\n      tag_21\n      jump\t// in\n    tag_20:\n      mload(0x40)\n      dup1\n      dup3\n      0xffffffffffffffffffffffffffffffffffffffff\n      and\n      0xffffffffffffffffffffffffffffffffffffffff\n      and\n      dup2\n      mstore\n      0x20\n      add\n      swap2\n      pop\n      pop\n      mload(0x40)\n      dup1\n      swap2\n      sub\n      swap1\n      return\n        /* \"ETH/PlasmaManager.sol\":763:787  address[] public signers */\n    tag_4:\n      tag_22\n      0x04\n      dup1\n      calldatasize\n      sub\n        /* \"--CODEGEN--\":15:17   */\n      0x20\n        /* \"--CODEGEN--\":10:13   */\n      dup2\n        /* \"--CODEGEN--\":7:18   */\n      lt\n        /* \"--CODEGEN--\":4:6   */\n      iszero\n      tag_23\n      jumpi\n        /* \"--CODEGEN--\":31:32   */\n      0x00\n        /* \"--CODEGEN--\":28:29   */\n      dup1\n        /* \"--CODEGEN--\":21:33   */\n      revert\n        /* \"--CODEGEN--\":4:6   */\n    tag_23:\n        /* \"ETH/PlasmaManager.sol\":763:787  address[] public signers */\n      dup2\n      add\n      swap1\n      dup1\n      dup1\n      calldataload\n      swap1\n      0x20\n      add\n      swap1\n      swap3\n      swap2\n      swap1\n      pop\n      pop\n      pop\n      tag_24\n      jump\t// in\n    tag_22:\n      mload(0x40)\n      dup1\n      dup3\n      0xffffffffffffffffffffffffffffffffffffffff\n      and\n      0xffffffffffffffffffffffffffffffffffffffff\n      and\n      dup2\n      mstore\n      0x20\n      add\n      swap2\n      pop\n      pop\n      mload(0x40)\n      dup1\n      swap2\n      sub\n      swap1\n      return\n        /* \"ETH/PlasmaManager.sol\":1942:2027  function lastBunchIndex() public view returns (uint256) {... */\n    tag_5:\n      tag_25\n      tag_26\n      jump\t// in\n    tag_25:\n      mload(0x40)\n      dup1\n      dup3\n      dup2\n      mstore\n      0x20\n      add\n      swap2\n      pop\n      pop\n      mload(0x40)\n      dup1\n      swap2\n      sub\n      swap1\n      return\n        /* \"ETH/PlasmaManager.sol\":733:760  address[] public validators */\n    tag_6:\n      tag_27\n      0x04\n      dup1\n      calldatasize\n      sub\n        /* \"--CODEGEN--\":15:17   */\n      0x20\n        /* \"--CODEGEN--\":10:13   */\n      dup2\n        /* \"--CODEGEN--\":7:18   */\n      lt\n        /* \"--CODEGEN--\":4:6   */\n      iszero\n      tag_28\n      jumpi\n        /* \"--CODEGEN--\":31:32   */\n      0x00\n        /* \"--CODEGEN--\":28:29   */\n      dup1\n        /* \"--CODEGEN--\":21:33   */\n      revert\n        /* \"--CODEGEN--\":4:6   */\n    tag_28:\n        /* \"ETH/PlasmaManager.sol\":733:760  address[] public validators */\n      dup2\n      add\n      swap1\n      dup1\n      dup1\n      calldataload\n      swap1\n      0x20\n      add\n      swap1\n      swap3\n      swap2\n      swap1\n      pop\n      pop\n      pop\n      tag_29\n      jump\t// in\n    tag_27:\n      mload(0x40)\n      dup1\n      dup3\n      0xffffffffffffffffffffffffffffffffffffffff\n      and\n      0xffffffffffffffffffffffffffffffffffffffff\n      and\n      dup2\n      mstore\n      0x20\n      add\n      swap2\n      pop\n      pop\n      mload(0x40)\n      dup1\n      swap2\n      sub\n      swap1\n      return\n        /* \"ETH/PlasmaManager.sol\":790:818  BunchHeader[] public bunches */\n    tag_7:\n      tag_30\n      0x04\n      dup1\n      calldatasize\n      sub\n        /* \"--CODEGEN--\":15:17   */\n      0x20\n        /* \"--CODEGEN--\":10:13   */\n      dup2\n        /* \"--CODEGEN--\":7:18   */\n      lt\n        /* \"--CODEGEN--\":4:6   */\n      iszero\n      tag_31\n      jumpi\n        /* \"--CODEGEN--\":31:32   */\n      0x00\n        /* \"--CODEGEN--\":28:29   */\n      dup1\n        /* \"--CODEGEN--\":21:33   */\n      revert\n        /* \"--CODEGEN--\":4:6   */\n    tag_31:\n        /* \"ETH/PlasmaManager.sol\":790:818  BunchHeader[] public bunches */\n      dup2\n      add\n      swap1\n      dup1\n      dup1\n      calldataload\n      swap1\n      0x20\n      add\n      swap1\n      swap3\n      swap2\n      swap1\n      pop\n      pop\n      pop\n      tag_32\n      jump\t// in\n    tag_30:\n      mload(0x40)\n      dup1\n      dup6\n      dup2\n      mstore\n      0x20\n      add\n      dup5\n      dup2\n      mstore\n      0x20\n      add\n      dup4\n      dup2\n      mstore\n      0x20\n      add\n      dup3\n      dup2\n      mstore\n      0x20\n      add\n      swap5\n      pop\n      pop\n      pop\n      pop\n      pop\n      mload(0x40)\n      dup1\n      swap2\n      sub\n      swap1\n      return\n        /* \"ETH/PlasmaManager.sol\":2207:3628  function submitBunchHeader(bytes memory _signedHeader) public {... */\n    tag_8:\n      tag_33\n      0x04\n      dup1\n      calldatasize\n      sub\n        /* \"--CODEGEN--\":15:17   */\n      0x20\n        /* \"--CODEGEN--\":10:13   */\n      dup2\n        /* \"--CODEGEN--\":7:18   */\n      lt\n        /* \"--CODEGEN--\":4:6   */\n      iszero\n      tag_34\n      jumpi\n        /* \"--CODEGEN--\":31:32   */\n      0x00\n        /* \"--CODEGEN--\":28:29   */\n      dup1\n        /* \"--CODEGEN--\":21:33   */\n      revert\n        /* \"--CODEGEN--\":4:6   */\n    tag_34:\n        /* \"ETH/PlasmaManager.sol\":2207:3628  function submitBunchHeader(bytes memory _signedHeader) public {... */\n      dup2\n      add\n      swap1\n      dup1\n      dup1\n      calldataload\n      swap1\n      0x20\n      add\n      swap1\n        /* \"--CODEGEN--\":27:38   */\n      0x0100000000\n        /* \"--CODEGEN--\":14:25   */\n      dup2\n        /* \"--CODEGEN--\":11:39   */\n      gt\n        /* \"--CODEGEN--\":8:10   */\n      iszero\n      tag_35\n      jumpi\n        /* \"--CODEGEN--\":52:53   */\n      0x00\n        /* \"--CODEGEN--\":49:50   */\n      dup1\n        /* \"--CODEGEN--\":42:54   */\n      revert\n        /* \"--CODEGEN--\":8:10   */\n    tag_35:\n        /* \"ETH/PlasmaManager.sol\":2207:3628  function submitBunchHeader(bytes memory _signedHeader) public {... */\n      dup3\n      add\n        /* \"--CODEGEN--\":41:50   */\n      dup4\n        /* \"--CODEGEN--\":34:38   */\n      0x20\n        /* \"--CODEGEN--\":18:32   */\n      dup3\n        /* \"--CODEGEN--\":14:39   */\n      add\n        /* \"--CODEGEN--\":11:51   */\n      gt\n        /* \"--CODEGEN--\":8:10   */\n      iszero\n      tag_36\n      jumpi\n        /* \"--CODEGEN--\":64:65   */\n      0x00\n        /* \"--CODEGEN--\":61:62   */\n      dup1\n        /* \"--CODEGEN--\":54:66   */\n      revert\n        /* \"--CODEGEN--\":8:10   */\n    tag_36:\n        /* \"ETH/PlasmaManager.sol\":2207:3628  function submitBunchHeader(bytes memory _signedHeader) public {... */\n      dup1\n      calldataload\n      swap1\n      0x20\n      add\n      swap2\n        /* \"--CODEGEN--\":100:109   */\n      dup5\n        /* \"--CODEGEN--\":95:96   */\n      0x01\n        /* \"--CODEGEN--\":81:93   */\n      dup4\n        /* \"--CODEGEN--\":77:97   */\n      mul\n        /* \"--CODEGEN--\":67:75   */\n      dup5\n        /* \"--CODEGEN--\":63:98   */\n      add\n        /* \"--CODEGEN--\":60:110   */\n      gt\n        /* \"--CODEGEN--\":39:50   */\n      0x0100000000\n        /* \"--CODEGEN--\":25:37   */\n      dup4\n        /* \"--CODEGEN--\":22:51   */\n      gt\n        /* \"--CODEGEN--\":11:118   */\n      or\n        /* \"--CODEGEN--\":8:10   */\n      iszero\n      tag_37\n      jumpi\n        /* \"--CODEGEN--\":131:132   */\n      0x00\n        /* \"--CODEGEN--\":128:129   */\n      dup1\n        /* \"--CODEGEN--\":121:133   */\n      revert\n        /* \"--CODEGEN--\":8:10   */\n    tag_37:\n        /* \"ETH/PlasmaManager.sol\":2207:3628  function submitBunchHeader(bytes memory _signedHeader) public {... */\n      swap2\n      swap1\n      dup1\n      dup1\n      0x1f\n      add\n      0x20\n      dup1\n      swap2\n      div\n      mul\n      0x20\n      add\n      mload(0x40)\n      swap1\n      dup2\n      add\n      0x40\n      mstore\n      dup1\n      swap4\n      swap3\n      swap2\n      swap1\n      dup2\n      dup2\n      mstore\n      0x20\n      add\n      dup4\n      dup4\n        /* \"--CODEGEN--\":30:33   */\n      dup1\n        /* \"--CODEGEN--\":22:28   */\n      dup3\n        /* \"--CODEGEN--\":14:20   */\n      dup5\n        /* \"--CODEGEN--\":1:34   */\n      calldatacopy\n        /* \"--CODEGEN--\":99:100   */\n      0x00\n        /* \"--CODEGEN--\":93:96   */\n      dup2\n        /* \"--CODEGEN--\":85:91   */\n      dup5\n        /* \"--CODEGEN--\":81:97   */\n      add\n        /* \"--CODEGEN--\":74:101   */\n      mstore\n        /* \"--CODEGEN--\":137:141   */\n      0x1f\n        /* \"--CODEGEN--\":133:142   */\n      not\n        /* \"--CODEGEN--\":126:130   */\n      0x1f\n        /* \"--CODEGEN--\":121:124   */\n      dup3\n        /* \"--CODEGEN--\":117:131   */\n      add\n        /* \"--CODEGEN--\":113:143   */\n      and\n        /* \"--CODEGEN--\":106:143   */\n      swap1\n      pop\n        /* \"--CODEGEN--\":169:172   */\n      dup1\n        /* \"--CODEGEN--\":161:167   */\n      dup4\n        /* \"--CODEGEN--\":157:173   */\n      add\n        /* \"--CODEGEN--\":147:173   */\n      swap3\n      pop\n        /* \"ETH/PlasmaManager.sol\":2207:3628  function submitBunchHeader(bytes memory _signedHeader) public {... */\n      pop\n      pop\n      pop\n      pop\n      pop\n      pop\n      swap2\n      swap3\n      swap2\n      swap3\n      swap1\n      pop\n      pop\n      pop\n      tag_38\n      jump\t// in\n    tag_33:\n      stop\n        /* \"ETH/PlasmaManager.sol\":2093:2204  function setESNDepositAddress(address _esnDepositAddress) public {... */\n    tag_9:\n      tag_39\n      0x04\n      dup1\n      calldatasize\n      sub\n        /* \"--CODEGEN--\":15:17   */\n      0x20\n        /* \"--CODEGEN--\":10:13   */\n      dup2\n        /* \"--CODEGEN--\":7:18   */\n      lt\n        /* \"--CODEGEN--\":4:6   */\n      iszero\n      tag_40\n      jumpi\n        /* \"--CODEGEN--\":31:32   */\n      0x00\n        /* \"--CODEGEN--\":28:29   */\n      dup1\n        /* \"--CODEGEN--\":21:33   */\n      revert\n        /* \"--CODEGEN--\":4:6   */\n    tag_40:\n        /* \"ETH/PlasmaManager.sol\":2093:2204  function setESNDepositAddress(address _esnDepositAddress) public {... */\n      dup2\n      add\n      swap1\n      dup1\n      dup1\n      calldataload\n      0xffffffffffffffffffffffffffffffffffffffff\n      and\n      swap1\n      0x20\n      add\n      swap1\n      swap3\n      swap2\n      swap1\n      pop\n      pop\n      pop\n      tag_41\n      jump\t// in\n    tag_39:\n      stop\n        /* \"ETH/PlasmaManager.sol\":678:730  mapping(bytes32 => bool) public processedWithdrawals */\n    tag_10:\n      tag_42\n      0x04\n      dup1\n      calldatasize\n      sub\n        /* \"--CODEGEN--\":15:17   */\n      0x20\n        /* \"--CODEGEN--\":10:13   */\n      dup2\n        /* \"--CODEGEN--\":7:18   */\n      lt\n        /* \"--CODEGEN--\":4:6   */\n      iszero\n      tag_43\n      jumpi\n        /* \"--CODEGEN--\":31:32   */\n      0x00\n        /* \"--CODEGEN--\":28:29   */\n      dup1\n        /* \"--CODEGEN--\":21:33   */\n      revert\n        /* \"--CODEGEN--\":4:6   */\n    tag_43:\n        /* \"ETH/PlasmaManager.sol\":678:730  mapping(bytes32 => bool) public processedWithdrawals */\n      dup2\n      add\n      swap1\n      dup1\n      dup1\n      calldataload\n      swap1\n      0x20\n      add\n      swap1\n      swap3\n      swap2\n      swap1\n      pop\n      pop\n      pop\n      tag_44\n      jump\t// in\n    tag_42:\n      mload(0x40)\n      dup1\n      dup3\n      iszero\n      iszero\n      iszero\n      iszero\n      dup2\n      mstore\n      0x20\n      add\n      swap2\n      pop\n      pop\n      mload(0x40)\n      dup1\n      swap2\n      sub\n      swap1\n      return\n        /* \"ETH/PlasmaManager.sol\":3631:5054  function claimWithdrawal(bytes memory _rawTransactionProof) public {... */\n    tag_11:\n      tag_45\n      0x04\n      dup1\n      calldatasize\n      sub\n        /* \"--CODEGEN--\":15:17   */\n      0x20\n        /* \"--CODEGEN--\":10:13   */\n      dup2\n        /* \"--CODEGEN--\":7:18   */\n      lt\n        /* \"--CODEGEN--\":4:6   */\n      iszero\n      tag_46\n      jumpi\n        /* \"--CODEGEN--\":31:32   */\n      0x00\n        /* \"--CODEGEN--\":28:29   */\n      dup1\n        /* \"--CODEGEN--\":21:33   */\n      revert\n        /* \"--CODEGEN--\":4:6   */\n    tag_46:\n        /* \"ETH/PlasmaManager.sol\":3631:5054  function claimWithdrawal(bytes memory _rawTransactionProof) public {... */\n      dup2\n      add\n      swap1\n      dup1\n      dup1\n      calldataload\n      swap1\n      0x20\n      add\n      swap1\n        /* \"--CODEGEN--\":27:38   */\n      0x0100000000\n        /* \"--CODEGEN--\":14:25   */\n      dup2\n        /* \"--CODEGEN--\":11:39   */\n      gt\n        /* \"--CODEGEN--\":8:10   */\n      iszero\n      tag_47\n      jumpi\n        /* \"--CODEGEN--\":52:53   */\n      0x00\n        /* \"--CODEGEN--\":49:50   */\n      dup1\n        /* \"--CODEGEN--\":42:54   */\n      revert\n        /* \"--CODEGEN--\":8:10   */\n    tag_47:\n        /* \"ETH/PlasmaManager.sol\":3631:5054  function claimWithdrawal(bytes memory _rawTransactionProof) public {... */\n      dup3\n      add\n        /* \"--CODEGEN--\":41:50   */\n      dup4\n        /* \"--CODEGEN--\":34:38   */\n      0x20\n        /* \"--CODEGEN--\":18:32   */\n      dup3\n        /* \"--CODEGEN--\":14:39   */\n      add\n        /* \"--CODEGEN--\":11:51   */\n      gt\n        /* \"--CODEGEN--\":8:10   */\n      iszero\n      tag_48\n      jumpi\n        /* \"--CODEGEN--\":64:65   */\n      0x00\n        /* \"--CODEGEN--\":61:62   */\n      dup1\n        /* \"--CODEGEN--\":54:66   */\n      revert\n        /* \"--CODEGEN--\":8:10   */\n    tag_48:\n        /* \"ETH/PlasmaManager.sol\":3631:5054  function claimWithdrawal(bytes memory _rawTransactionProof) public {... */\n      dup1\n      calldataload\n      swap1\n      0x20\n      add\n      swap2\n        /* \"--CODEGEN--\":100:109   */\n      dup5\n        /* \"--CODEGEN--\":95:96   */\n      0x01\n        /* \"--CODEGEN--\":81:93   */\n      dup4\n        /* \"--CODEGEN--\":77:97   */\n      mul\n        /* \"--CODEGEN--\":67:75   */\n      dup5\n        /* \"--CODEGEN--\":63:98   */\n      add\n        /* \"--CODEGEN--\":60:110   */\n      gt\n        /* \"--CODEGEN--\":39:50   */\n      0x0100000000\n        /* \"--CODEGEN--\":25:37   */\n      dup4\n        /* \"--CODEGEN--\":22:51   */\n      gt\n        /* \"--CODEGEN--\":11:118   */\n      or\n        /* \"--CODEGEN--\":8:10   */\n      iszero\n      tag_49\n      jumpi\n        /* \"--CODEGEN--\":131:132   */\n      0x00\n        /* \"--CODEGEN--\":128:129   */\n      dup1\n        /* \"--CODEGEN--\":121:133   */\n      revert\n        /* \"--CODEGEN--\":8:10   */\n    tag_49:\n        /* \"ETH/PlasmaManager.sol\":3631:5054  function claimWithdrawal(bytes memory _rawTransactionProof) public {... */\n      swap2\n      swap1\n      dup1\n      dup1\n      0x1f\n      add\n      0x20\n      dup1\n      swap2\n      div\n      mul\n      0x20\n      add\n      mload(0x40)\n      swap1\n      dup2\n      add\n      0x40\n      mstore\n      dup1\n      swap4\n      swap3\n      swap2\n      swap1\n      dup2\n      dup2\n      mstore\n      0x20\n      add\n      dup4\n      dup4\n        /* \"--CODEGEN--\":30:33   */\n      dup1\n        /* \"--CODEGEN--\":22:28   */\n      dup3\n        /* \"--CODEGEN--\":14:20   */\n      dup5\n        /* \"--CODEGEN--\":1:34   */\n      calldatacopy\n        /* \"--CODEGEN--\":99:100   */\n      0x00\n        /* \"--CODEGEN--\":93:96   */\n      dup2\n        /* \"--CODEGEN--\":85:91   */\n      dup5\n        /* \"--CODEGEN--\":81:97   */\n      add\n        /* \"--CODEGEN--\":74:101   */\n      mstore\n        /* \"--CODEGEN--\":137:141   */\n      0x1f\n        /* \"--CODEGEN--\":133:142   */\n      not\n        /* \"--CODEGEN--\":126:130   */\n      0x1f\n        /* \"--CODEGEN--\":121:124   */\n      dup3\n        /* \"--CODEGEN--\":117:131   */\n      add\n        /* \"--CODEGEN--\":113:143   */\n      and\n        /* \"--CODEGEN--\":106:143   */\n      swap1\n      pop\n        /* \"--CODEGEN--\":169:172   */\n      dup1\n        /* \"--CODEGEN--\":161:167   */\n      dup4\n        /* \"--CODEGEN--\":157:173   */\n      add\n        /* \"--CODEGEN--\":147:173   */\n      swap3\n      pop\n        /* \"ETH/PlasmaManager.sol\":3631:5054  function claimWithdrawal(bytes memory _rawTransactionProof) public {... */\n      pop\n      pop\n      pop\n      pop\n      pop\n      pop\n      swap2\n      swap3\n      swap2\n      swap3\n      swap1\n      pop\n      pop\n      pop\n      tag_50\n      jump\t// in\n    tag_45:\n      stop\n        /* \"ETH/PlasmaManager.sol\":1853:1939  function getAllSigners() public view returns (address[] memory) {... */\n    tag_12:\n      tag_51\n      tag_52\n      jump\t// in\n    tag_51:\n      mload(0x40)\n      dup1\n      dup1\n      0x20\n      add\n      dup3\n      dup2\n      sub\n      dup3\n      mstore\n      dup4\n      dup2\n      dup2\n      mload\n      dup2\n      mstore\n      0x20\n      add\n      swap2\n      pop\n      dup1\n      mload\n      swap1\n      0x20\n      add\n      swap1\n      0x20\n      mul\n      dup1\n      dup4\n      dup4\n        /* \"--CODEGEN--\":23:24   */\n      0x00\n        /* \"--CODEGEN--\":8:108   */\n    tag_53:\n        /* \"--CODEGEN--\":33:36   */\n      dup4\n        /* \"--CODEGEN--\":30:31   */\n      dup2\n        /* \"--CODEGEN--\":27:37   */\n      lt\n        /* \"--CODEGEN--\":8:108   */\n      iszero\n      tag_55\n      jumpi\n        /* \"--CODEGEN--\":99:100   */\n      dup1\n        /* \"--CODEGEN--\":94:97   */\n      dup3\n        /* \"--CODEGEN--\":90:101   */\n      add\n        /* \"--CODEGEN--\":84:102   */\n      mload\n        /* \"--CODEGEN--\":80:81   */\n      dup2\n        /* \"--CODEGEN--\":75:78   */\n      dup5\n        /* \"--CODEGEN--\":71:82   */\n      add\n        /* \"--CODEGEN--\":64:103   */\n      mstore\n        /* \"--CODEGEN--\":52:54   */\n      0x20\n        /* \"--CODEGEN--\":49:50   */\n      dup2\n        /* \"--CODEGEN--\":45:55   */\n      add\n        /* \"--CODEGEN--\":40:55   */\n      swap1\n      pop\n        /* \"--CODEGEN--\":8:108   */\n      jump(tag_53)\n    tag_55:\n        /* \"--CODEGEN--\":12:26   */\n      pop\n        /* \"ETH/PlasmaManager.sol\":1853:1939  function getAllSigners() public view returns (address[] memory) {... */\n      pop\n      pop\n      pop\n      swap1\n      pop\n      add\n      swap3\n      pop\n      pop\n      pop\n      mload(0x40)\n      dup1\n      swap2\n      sub\n      swap1\n      return\n        /* \"ETH/PlasmaManager.sol\":596:629  uint256 public numberOfValidators */\n    tag_13:\n      tag_56\n      tag_57\n      jump\t// in\n    tag_56:\n      mload(0x40)\n      dup1\n      dup3\n      dup2\n      mstore\n      0x20\n      add\n      swap2\n      pop\n      pop\n      mload(0x40)\n      dup1\n      swap2\n      sub\n      swap1\n      return\n        /* \"ETH/PlasmaManager.sol\":1758:1850  function getAllValidators() public view returns (address[] memory) {... */\n    tag_14:\n      tag_58\n      tag_59\n      jump\t// in\n    tag_58:\n      mload(0x40)\n      dup1\n      dup1\n      0x20\n      add\n      dup3\n      dup2\n      sub\n      dup3\n      mstore\n      dup4\n      dup2\n      dup2\n      mload\n      dup2\n      mstore\n      0x20\n      add\n      swap2\n      pop\n      dup1\n      mload\n      swap1\n      0x20\n      add\n      swap1\n      0x20\n      mul\n      dup1\n      dup4\n      dup4\n        /* \"--CODEGEN--\":23:24   */\n      0x00\n        /* \"--CODEGEN--\":8:108   */\n    tag_60:\n        /* \"--CODEGEN--\":33:36   */\n      dup4\n        /* \"--CODEGEN--\":30:31   */\n      dup2\n        /* \"--CODEGEN--\":27:37   */\n      lt\n        /* \"--CODEGEN--\":8:108   */\n      iszero\n      tag_62\n      jumpi\n        /* \"--CODEGEN--\":99:100   */\n      dup1\n        /* \"--CODEGEN--\":94:97   */\n      dup3\n        /* \"--CODEGEN--\":90:101   */\n      add\n        /* \"--CODEGEN--\":84:102   */\n      mload\n        /* \"--CODEGEN--\":80:81   */\n      dup2\n        /* \"--CODEGEN--\":75:78   */\n      dup5\n        /* \"--CODEGEN--\":71:82   */\n      add\n        /* \"--CODEGEN--\":64:103   */\n      mstore\n        /* \"--CODEGEN--\":52:54   */\n      0x20\n        /* \"--CODEGEN--\":49:50   */\n      dup2\n        /* \"--CODEGEN--\":45:55   */\n      add\n        /* \"--CODEGEN--\":40:55   */\n      swap1\n      pop\n        /* \"--CODEGEN--\":8:108   */\n      jump(tag_60)\n    tag_62:\n        /* \"--CODEGEN--\":12:26   */\n      pop\n        /* \"ETH/PlasmaManager.sol\":1758:1850  function getAllValidators() public view returns (address[] memory) {... */\n      pop\n      pop\n      pop\n      swap1\n      pop\n      add\n      swap3\n      pop\n      pop\n      pop\n      mload(0x40)\n      dup1\n      swap2\n      sub\n      swap1\n      return\n        /* \"ETH/PlasmaManager.sol\":632:675  mapping(address => bool) public isValidator */\n    tag_15:\n      tag_63\n      0x04\n      dup1\n      calldatasize\n      sub\n        /* \"--CODEGEN--\":15:17   */\n      0x20\n        /* \"--CODEGEN--\":10:13   */\n      dup2\n        /* \"--CODEGEN--\":7:18   */\n      lt\n        /* \"--CODEGEN--\":4:6   */\n      iszero\n      tag_64\n      jumpi\n        /* \"--CODEGEN--\":31:32   */\n      0x00\n        /* \"--CODEGEN--\":28:29   */\n      dup1\n        /* \"--CODEGEN--\":21:33   */\n      revert\n        /* \"--CODEGEN--\":4:6   */\n    tag_64:\n        /* \"ETH/PlasmaManager.sol\":632:675  mapping(address => bool) public isValidator */\n      dup2\n      add\n      swap1\n      dup1\n      dup1\n      calldataload\n      0xffffffffffffffffffffffffffffffffffffffff\n      and\n      swap1\n      0x20\n      add\n      swap1\n      swap3\n      swap2\n      swap1\n      pop\n      pop\n      pop\n      tag_65\n      jump\t// in\n    tag_63:\n      mload(0x40)\n      dup1\n      dup3\n      iszero\n      iszero\n      iszero\n      iszero\n      dup2\n      mstore\n      0x20\n      add\n      swap2\n      pop\n      pop\n      mload(0x40)\n      dup1\n      swap2\n      sub\n      swap1\n      return\n        /* \"ETH/PlasmaManager.sol\":1235:1253  ERC20 public token */\n    tag_16:\n      tag_66\n      tag_67\n      jump\t// in\n    tag_66:\n      mload(0x40)\n      dup1\n      dup3\n      0xffffffffffffffffffffffffffffffffffffffff\n      and\n      0xffffffffffffffffffffffffffffffffffffffff\n      and\n      dup2\n      mstore\n      0x20\n      add\n      swap2\n      pop\n      pop\n      mload(0x40)\n      dup1\n      swap2\n      sub\n      swap1\n      return\n        /* \"ETH/PlasmaManager.sol\":1344:1392  address public esnDepositAddress = address(this) */\n    tag_21:\n      0x07\n      0x00\n      swap1\n      sload\n      swap1\n      0x0100\n      exp\n      swap1\n      div\n      0xffffffffffffffffffffffffffffffffffffffff\n      and\n      dup2\n      jump\t// out\n        /* \"ETH/PlasmaManager.sol\":763:787  address[] public signers */\n    tag_24:\n      0x04\n      dup2\n      dup2\n      sload\n      dup2\n      lt\n      tag_68\n      jumpi\n      invalid\n    tag_68:\n      swap1\n      0x00\n      mstore\n      keccak256(0x00, 0x20)\n      add\n      0x00\n      swap2\n      pop\n      sload\n      swap1\n      0x0100\n      exp\n      swap1\n      div\n      0xffffffffffffffffffffffffffffffffffffffff\n      and\n      dup2\n      jump\t// out\n        /* \"ETH/PlasmaManager.sol\":1942:2027  function lastBunchIndex() public view returns (uint256) {... */\n    tag_26:\n        /* \"ETH/PlasmaManager.sol\":1989:1996  uint256 */\n      0x00\n        /* \"ETH/PlasmaManager.sol\":2009:2016  bunches */\n      0x05\n        /* \"ETH/PlasmaManager.sol\":2009:2023  bunches.length */\n      dup1\n      sload\n      swap1\n      pop\n        /* \"ETH/PlasmaManager.sol\":2002:2023  return bunches.length */\n      swap1\n      pop\n        /* \"ETH/PlasmaManager.sol\":1942:2027  function lastBunchIndex() public view returns (uint256) {... */\n      swap1\n      jump\t// out\n        /* \"ETH/PlasmaManager.sol\":733:760  address[] public validators */\n    tag_29:\n      0x03\n      dup2\n      dup2\n      sload\n      dup2\n      lt\n      tag_71\n      jumpi\n      invalid\n    tag_71:\n      swap1\n      0x00\n      mstore\n      keccak256(0x00, 0x20)\n      add\n      0x00\n      swap2\n      pop\n      sload\n      swap1\n      0x0100\n      exp\n      swap1\n      div\n      0xffffffffffffffffffffffffffffffffffffffff\n      and\n      dup2\n      jump\t// out\n        /* \"ETH/PlasmaManager.sol\":790:818  BunchHeader[] public bunches */\n    tag_32:\n      0x05\n      dup2\n      dup2\n      sload\n      dup2\n      lt\n      tag_73\n      jumpi\n      invalid\n    tag_73:\n      swap1\n      0x00\n      mstore\n      keccak256(0x00, 0x20)\n      swap1\n      0x04\n      mul\n      add\n      0x00\n      swap2\n      pop\n      swap1\n      pop\n      dup1\n      0x00\n      add\n      sload\n      swap1\n      dup1\n      0x01\n      add\n      sload\n      swap1\n      dup1\n      0x02\n      add\n      sload\n      swap1\n      dup1\n      0x03\n      add\n      sload\n      swap1\n      pop\n      dup5\n      jump\t// out\n        /* \"ETH/PlasmaManager.sol\":2207:3628  function submitBunchHeader(bytes memory _signedHeader) public {... */\n    tag_38:\n        /* \"ETH/PlasmaManager.sol\":2273:2303  RLP.RLPItem[] memory _fullList */\n      0x60\n        /* \"ETH/PlasmaManager.sol\":2306:2340  _signedHeader.toRLPItem().toList() */\n      tag_76\n        /* \"ETH/PlasmaManager.sol\":2306:2331  _signedHeader.toRLPItem() */\n      tag_77\n        /* \"ETH/PlasmaManager.sol\":2306:2319  _signedHeader */\n      dup4\n        /* \"ETH/PlasmaManager.sol\":2306:2329  _signedHeader.toRLPItem */\n      tag_78\n        /* \"ETH/PlasmaManager.sol\":2306:2331  _signedHeader.toRLPItem() */\n      jump\t// in\n    tag_77:\n        /* \"ETH/PlasmaManager.sol\":2306:2338  _signedHeader.toRLPItem().toList */\n      tag_79\n        /* \"ETH/PlasmaManager.sol\":2306:2340  _signedHeader.toRLPItem().toList() */\n      jump\t// in\n    tag_76:\n        /* \"ETH/PlasmaManager.sol\":2273:2340  RLP.RLPItem[] memory _fullList = _signedHeader.toRLPItem().toList() */\n      swap1\n      pop\n        /* \"ETH/PlasmaManager.sol\":2344:2377  RLP.RLPItem[] memory _headerArray */\n      0x60\n        /* \"ETH/PlasmaManager.sol\":2380:2401  _fullList[0].toList() */\n      tag_80\n        /* \"ETH/PlasmaManager.sol\":2380:2389  _fullList */\n      dup3\n        /* \"ETH/PlasmaManager.sol\":2390:2391  0 */\n      0x00\n        /* \"ETH/PlasmaManager.sol\":2380:2392  _fullList[0] */\n      dup2\n      mload\n      dup2\n      lt\n      tag_81\n      jumpi\n      invalid\n    tag_81:\n      0x20\n      mul\n      0x20\n      add\n      add\n      mload\n        /* \"ETH/PlasmaManager.sol\":2380:2399  _fullList[0].toList */\n      tag_79\n        /* \"ETH/PlasmaManager.sol\":2380:2401  _fullList[0].toList() */\n      jump\t// in\n    tag_80:\n        /* \"ETH/PlasmaManager.sol\":2344:2401  RLP.RLPItem[] memory _headerArray = _fullList[0].toList() */\n      swap1\n      pop\n        /* \"ETH/PlasmaManager.sol\":2436:2437  4 */\n      0x04\n        /* \"ETH/PlasmaManager.sol\":2413:2425  _headerArray */\n      dup2\n        /* \"ETH/PlasmaManager.sol\":2413:2432  _headerArray.length */\n      mload\n        /* \"ETH/PlasmaManager.sol\":2413:2437  _headerArray.length == 4 */\n      eq\n        /* \"ETH/PlasmaManager.sol\":2405:2474  require(_headerArray.length == 4, \"bunch header must have 4 members\") */\n      tag_82\n      jumpi\n      mload(0x40)\n      0x08c379a000000000000000000000000000000000000000000000000000000000\n      dup2\n      mstore\n      0x04\n      add\n      dup1\n      dup1\n      0x20\n      add\n      dup3\n      dup2\n      sub\n      dup3\n      mstore\n      0x20\n      dup2\n      mstore\n      0x20\n      add\n      dup1\n      0x62756e636820686561646572206d75737420686176652034206d656d62657273\n      dup2\n      mstore\n      pop\n      0x20\n      add\n      swap2\n      pop\n      pop\n      mload(0x40)\n      dup1\n      swap2\n      sub\n      swap1\n      revert\n    tag_82:\n        /* \"ETH/PlasmaManager.sol\":2479:2510  BunchHeader memory _bunchHeader */\n      tag_83\n      tag_84\n      jump\t// in\n    tag_83:\n        /* \"ETH/PlasmaManager.sol\":2513:2722  BunchHeader({... */\n      mload(0x40)\n      dup1\n      0x80\n      add\n      0x40\n      mstore\n      dup1\n        /* \"ETH/PlasmaManager.sol\":2548:2572  _headerArray[0].toUint() */\n      tag_85\n        /* \"ETH/PlasmaManager.sol\":2548:2560  _headerArray */\n      dup5\n        /* \"ETH/PlasmaManager.sol\":2561:2562  0 */\n      0x00\n        /* \"ETH/PlasmaManager.sol\":2548:2563  _headerArray[0] */\n      dup2\n      mload\n      dup2\n      lt\n      tag_86\n      jumpi\n      invalid\n    tag_86:\n      0x20\n      mul\n      0x20\n      add\n      add\n      mload\n        /* \"ETH/PlasmaManager.sol\":2548:2570  _headerArray[0].toUint */\n      tag_87\n        /* \"ETH/PlasmaManager.sol\":2548:2572  _headerArray[0].toUint() */\n      jump\t// in\n    tag_85:\n        /* \"ETH/PlasmaManager.sol\":2513:2722  BunchHeader({... */\n      dup2\n      mstore\n      0x20\n      add\n        /* \"ETH/PlasmaManager.sol\":2589:2613  _headerArray[1].toUint() */\n      tag_88\n        /* \"ETH/PlasmaManager.sol\":2589:2601  _headerArray */\n      dup5\n        /* \"ETH/PlasmaManager.sol\":2602:2603  1 */\n      0x01\n        /* \"ETH/PlasmaManager.sol\":2589:2604  _headerArray[1] */\n      dup2\n      mload\n      dup2\n      lt\n      tag_89\n      jumpi\n      invalid\n    tag_89:\n      0x20\n      mul\n      0x20\n      add\n      add\n      mload\n        /* \"ETH/PlasmaManager.sol\":2589:2611  _headerArray[1].toUint */\n      tag_87\n        /* \"ETH/PlasmaManager.sol\":2589:2613  _headerArray[1].toUint() */\n      jump\t// in\n    tag_88:\n        /* \"ETH/PlasmaManager.sol\":2513:2722  BunchHeader({... */\n      dup2\n      mstore\n      0x20\n      add\n        /* \"ETH/PlasmaManager.sol\":2640:2667  _headerArray[2].toBytes32() */\n      tag_90\n        /* \"ETH/PlasmaManager.sol\":2640:2652  _headerArray */\n      dup5\n        /* \"ETH/PlasmaManager.sol\":2653:2654  2 */\n      0x02\n        /* \"ETH/PlasmaManager.sol\":2640:2655  _headerArray[2] */\n      dup2\n      mload\n      dup2\n      lt\n      tag_91\n      jumpi\n      invalid\n    tag_91:\n      0x20\n      mul\n      0x20\n      add\n      add\n      mload\n        /* \"ETH/PlasmaManager.sol\":2640:2665  _headerArray[2].toBytes32 */\n      tag_92\n        /* \"ETH/PlasmaManager.sol\":2640:2667  _headerArray[2].toBytes32() */\n      jump\t// in\n    tag_90:\n        /* \"ETH/PlasmaManager.sol\":2513:2722  BunchHeader({... */\n      dup2\n      mstore\n      0x20\n      add\n        /* \"ETH/PlasmaManager.sol\":2690:2717  _headerArray[3].toBytes32() */\n      tag_93\n        /* \"ETH/PlasmaManager.sol\":2690:2702  _headerArray */\n      dup5\n        /* \"ETH/PlasmaManager.sol\":2703:2704  3 */\n      0x03\n        /* \"ETH/PlasmaManager.sol\":2690:2705  _headerArray[3] */\n      dup2\n      mload\n      dup2\n      lt\n      tag_94\n      jumpi\n      invalid\n    tag_94:\n      0x20\n      mul\n      0x20\n      add\n      add\n      mload\n        /* \"ETH/PlasmaManager.sol\":2690:2715  _headerArray[3].toBytes32 */\n      tag_92\n        /* \"ETH/PlasmaManager.sol\":2690:2717  _headerArray[3].toBytes32() */\n      jump\t// in\n    tag_93:\n        /* \"ETH/PlasmaManager.sol\":2513:2722  BunchHeader({... */\n      dup2\n      mstore\n      pop\n        /* \"ETH/PlasmaManager.sol\":2479:2722  BunchHeader memory _bunchHeader = BunchHeader({... */\n      swap1\n      pop\n        /* \"ETH/PlasmaManager.sol\":2772:2797  getNextStartBlockNumber() */\n      tag_95\n        /* \"ETH/PlasmaManager.sol\":2772:2795  getNextStartBlockNumber */\n      tag_96\n        /* \"ETH/PlasmaManager.sol\":2772:2797  getNextStartBlockNumber() */\n      jump\t// in\n    tag_95:\n        /* \"ETH/PlasmaManager.sol\":2739:2751  _bunchHeader */\n      dup2\n        /* \"ETH/PlasmaManager.sol\":2739:2768  _bunchHeader.startBlockNumber */\n      0x00\n      add\n      mload\n        /* \"ETH/PlasmaManager.sol\":2739:2797  _bunchHeader.startBlockNumber == getNextStartBlockNumber() */\n      eq\n        /* \"ETH/PlasmaManager.sol\":2727:2834  require(... */\n      tag_97\n      jumpi\n      mload(0x40)\n      0x08c379a000000000000000000000000000000000000000000000000000000000\n      dup2\n      mstore\n      0x04\n      add\n      dup1\n      dup1\n      0x20\n      add\n      dup3\n      dup2\n      sub\n      dup3\n      mstore\n      0x1a\n      dup2\n      mstore\n      0x20\n      add\n      dup1\n      0x696e76616c696420737461727420626c6f636b206e756d626572000000000000\n      dup2\n      mstore\n      pop\n      0x20\n      add\n      swap2\n      pop\n      pop\n      mload(0x40)\n      dup1\n      swap2\n      sub\n      swap1\n      revert\n    tag_97:\n        /* \"ETH/PlasmaManager.sol\":2839:2862  bytes memory _headerRLP */\n      0x60\n        /* \"ETH/PlasmaManager.sol\":2865:2890  _fullList[0].toRLPBytes() */\n      tag_98\n        /* \"ETH/PlasmaManager.sol\":2865:2874  _fullList */\n      dup5\n        /* \"ETH/PlasmaManager.sol\":2875:2876  0 */\n      0x00\n        /* \"ETH/PlasmaManager.sol\":2865:2877  _fullList[0] */\n      dup2\n      mload\n      dup2\n      lt\n      tag_99\n      jumpi\n      invalid\n    tag_99:\n      0x20\n      mul\n      0x20\n      add\n      add\n      mload\n        /* \"ETH/PlasmaManager.sol\":2865:2888  _fullList[0].toRLPBytes */\n      tag_100\n        /* \"ETH/PlasmaManager.sol\":2865:2890  _fullList[0].toRLPBytes() */\n      jump\t// in\n    tag_98:\n        /* \"ETH/PlasmaManager.sol\":2839:2890  bytes memory _headerRLP = _fullList[0].toRLPBytes() */\n      swap1\n      pop\n        /* \"ETH/PlasmaManager.sol\":2895:2910  bytes32 _digest */\n      0x00\n        /* \"ETH/PlasmaManager.sol\":2944:2950  PREFIX */\n      mload(0x40)\n      dup1\n      0x40\n      add\n      0x40\n      mstore\n      dup1\n      0x02\n      dup2\n      mstore\n      0x20\n      add\n      0x1997000000000000000000000000000000000000000000000000000000000000\n      dup2\n      mstore\n      pop\n        /* \"ETH/PlasmaManager.sol\":2952:2968  DOMAIN_SEPERATOR */\n      0x6f3a1e66e989a1cf337b9dd2ce4c98a5e78763cf9f9bdaac5707038c66a4d74e\n        /* \"ETH/PlasmaManager.sol\":2970:2980  _headerRLP */\n      dup4\n        /* \"ETH/PlasmaManager.sol\":2927:2981  abi.encodePacked(PREFIX, DOMAIN_SEPERATOR, _headerRLP) */\n      add(0x20, mload(0x40))\n      dup1\n      dup5\n      dup1\n      mload\n      swap1\n      0x20\n      add\n      swap1\n      dup1\n      dup4\n      dup4\n        /* \"--CODEGEN--\":36:189   */\n    tag_101:\n        /* \"--CODEGEN--\":66:68   */\n      0x20\n        /* \"--CODEGEN--\":61:64   */\n      dup4\n        /* \"--CODEGEN--\":58:69   */\n      lt\n        /* \"--CODEGEN--\":36:189   */\n      tag_103\n      jumpi\n        /* \"--CODEGEN--\":182:185   */\n      dup1\n        /* \"--CODEGEN--\":176:186   */\n      mload\n        /* \"--CODEGEN--\":171:174   */\n      dup3\n        /* \"--CODEGEN--\":164:187   */\n      mstore\n        /* \"--CODEGEN--\":98:100   */\n      0x20\n        /* \"--CODEGEN--\":93:96   */\n      dup3\n        /* \"--CODEGEN--\":89:101   */\n      add\n        /* \"--CODEGEN--\":82:101   */\n      swap2\n      pop\n        /* \"--CODEGEN--\":123:125   */\n      0x20\n        /* \"--CODEGEN--\":118:121   */\n      dup2\n        /* \"--CODEGEN--\":114:126   */\n      add\n        /* \"--CODEGEN--\":107:126   */\n      swap1\n      pop\n        /* \"--CODEGEN--\":148:150   */\n      0x20\n        /* \"--CODEGEN--\":143:146   */\n      dup4\n        /* \"--CODEGEN--\":139:151   */\n      sub\n        /* \"--CODEGEN--\":132:151   */\n      swap3\n      pop\n        /* \"--CODEGEN--\":36:189   */\n      jump(tag_101)\n    tag_103:\n        /* \"--CODEGEN--\":274:275   */\n      0x01\n        /* \"--CODEGEN--\":267:270   */\n      dup4\n        /* \"--CODEGEN--\":263:265   */\n      0x20\n        /* \"--CODEGEN--\":259:271   */\n      sub\n        /* \"--CODEGEN--\":254:257   */\n      0x0100\n        /* \"--CODEGEN--\":250:272   */\n      exp\n        /* \"--CODEGEN--\":246:276   */\n      sub\n        /* \"--CODEGEN--\":315:319   */\n      dup1\n        /* \"--CODEGEN--\":311:320   */\n      not\n        /* \"--CODEGEN--\":305:308   */\n      dup3\n        /* \"--CODEGEN--\":299:309   */\n      mload\n        /* \"--CODEGEN--\":295:321   */\n      and\n        /* \"--CODEGEN--\":356:360   */\n      dup2\n        /* \"--CODEGEN--\":350:353   */\n      dup5\n        /* \"--CODEGEN--\":344:354   */\n      mload\n        /* \"--CODEGEN--\":340:361   */\n      and\n        /* \"--CODEGEN--\":389:396   */\n      dup1\n        /* \"--CODEGEN--\":380:387   */\n      dup3\n        /* \"--CODEGEN--\":377:397   */\n      or\n        /* \"--CODEGEN--\":372:375   */\n      dup6\n        /* \"--CODEGEN--\":365:398   */\n      mstore\n        /* \"--CODEGEN--\":3:402   */\n      pop\n      pop\n      pop\n        /* \"ETH/PlasmaManager.sol\":2927:2981  abi.encodePacked(PREFIX, DOMAIN_SEPERATOR, _headerRLP) */\n      pop\n      pop\n      pop\n      swap1\n      pop\n      add\n      dup4\n      dup2\n      mstore\n      0x20\n      add\n      dup3\n      dup1\n      mload\n      swap1\n      0x20\n      add\n      swap1\n      dup1\n      dup4\n      dup4\n        /* \"--CODEGEN--\":36:189   */\n    tag_104:\n        /* \"--CODEGEN--\":66:68   */\n      0x20\n        /* \"--CODEGEN--\":61:64   */\n      dup4\n        /* \"--CODEGEN--\":58:69   */\n      lt\n        /* \"--CODEGEN--\":36:189   */\n      tag_106\n      jumpi\n        /* \"--CODEGEN--\":182:185   */\n      dup1\n        /* \"--CODEGEN--\":176:186   */\n      mload\n        /* \"--CODEGEN--\":171:174   */\n      dup3\n        /* \"--CODEGEN--\":164:187   */\n      mstore\n        /* \"--CODEGEN--\":98:100   */\n      0x20\n        /* \"--CODEGEN--\":93:96   */\n      dup3\n        /* \"--CODEGEN--\":89:101   */\n      add\n        /* \"--CODEGEN--\":82:101   */\n      swap2\n      pop\n        /* \"--CODEGEN--\":123:125   */\n      0x20\n        /* \"--CODEGEN--\":118:121   */\n      dup2\n        /* \"--CODEGEN--\":114:126   */\n      add\n        /* \"--CODEGEN--\":107:126   */\n      swap1\n      pop\n        /* \"--CODEGEN--\":148:150   */\n      0x20\n        /* \"--CODEGEN--\":143:146   */\n      dup4\n        /* \"--CODEGEN--\":139:151   */\n      sub\n        /* \"--CODEGEN--\":132:151   */\n      swap3\n      pop\n        /* \"--CODEGEN--\":36:189   */\n      jump(tag_104)\n    tag_106:\n        /* \"--CODEGEN--\":274:275   */\n      0x01\n        /* \"--CODEGEN--\":267:270   */\n      dup4\n        /* \"--CODEGEN--\":263:265   */\n      0x20\n        /* \"--CODEGEN--\":259:271   */\n      sub\n        /* \"--CODEGEN--\":254:257   */\n      0x0100\n        /* \"--CODEGEN--\":250:272   */\n      exp\n        /* \"--CODEGEN--\":246:276   */\n      sub\n        /* \"--CODEGEN--\":315:319   */\n      dup1\n        /* \"--CODEGEN--\":311:320   */\n      not\n        /* \"--CODEGEN--\":305:308   */\n      dup3\n        /* \"--CODEGEN--\":299:309   */\n      mload\n        /* \"--CODEGEN--\":295:321   */\n      and\n        /* \"--CODEGEN--\":356:360   */\n      dup2\n        /* \"--CODEGEN--\":350:353   */\n      dup5\n        /* \"--CODEGEN--\":344:354   */\n      mload\n        /* \"--CODEGEN--\":340:361   */\n      and\n        /* \"--CODEGEN--\":389:396   */\n      dup1\n        /* \"--CODEGEN--\":380:387   */\n      dup3\n        /* \"--CODEGEN--\":377:397   */\n      or\n        /* \"--CODEGEN--\":372:375   */\n      dup6\n        /* \"--CODEGEN--\":365:398   */\n      mstore\n        /* \"--CODEGEN--\":3:402   */\n      pop\n      pop\n      pop\n        /* \"ETH/PlasmaManager.sol\":2927:2981  abi.encodePacked(PREFIX, DOMAIN_SEPERATOR, _headerRLP) */\n      pop\n      pop\n      pop\n      swap1\n      pop\n      add\n      swap4\n      pop\n      pop\n      pop\n      pop\n      mload(0x40)\n        /* \"--CODEGEN--\":49:53   */\n      0x20\n        /* \"--CODEGEN--\":39:46   */\n      dup2\n        /* \"--CODEGEN--\":30:37   */\n      dup4\n        /* \"--CODEGEN--\":26:47   */\n      sub\n        /* \"--CODEGEN--\":22:54   */\n      sub\n        /* \"--CODEGEN--\":13:20   */\n      dup2\n        /* \"--CODEGEN--\":6:55   */\n      mstore\n        /* \"ETH/PlasmaManager.sol\":2927:2981  abi.encodePacked(PREFIX, DOMAIN_SEPERATOR, _headerRLP) */\n      swap1\n      0x40\n      mstore\n        /* \"ETH/PlasmaManager.sol\":2913:2985  keccak256(... */\n      dup1\n      mload\n      swap1\n      0x20\n      add\n      keccak256\n        /* \"ETH/PlasmaManager.sol\":2895:2985  bytes32 _digest = keccak256(... */\n      swap1\n      pop\n        /* \"ETH/PlasmaManager.sol\":2990:3022  uint256 _numberOfValidSignatures */\n      0x00\n        /* \"ETH/PlasmaManager.sol\":3032:3041  uint256 i */\n      dup1\n        /* \"ETH/PlasmaManager.sol\":3044:3045  1 */\n      0x01\n        /* \"ETH/PlasmaManager.sol\":3032:3045  uint256 i = 1 */\n      swap1\n      pop\n        /* \"ETH/PlasmaManager.sol\":3027:3335  for (uint256 i = 1; i < _fullList.length; i++) {... */\n    tag_107:\n        /* \"ETH/PlasmaManager.sol\":3051:3060  _fullList */\n      dup7\n        /* \"ETH/PlasmaManager.sol\":3051:3067  _fullList.length */\n      mload\n        /* \"ETH/PlasmaManager.sol\":3047:3048  i */\n      dup2\n        /* \"ETH/PlasmaManager.sol\":3047:3067  i < _fullList.length */\n      lt\n        /* \"ETH/PlasmaManager.sol\":3027:3335  for (uint256 i = 1; i < _fullList.length; i++) {... */\n      iszero\n      tag_108\n      jumpi\n        /* \"ETH/PlasmaManager.sol\":3079:3102  bytes memory _signature */\n      0x60\n        /* \"ETH/PlasmaManager.sol\":3105:3127  _fullList[i].toBytes() */\n      tag_110\n        /* \"ETH/PlasmaManager.sol\":3105:3114  _fullList */\n      dup9\n        /* \"ETH/PlasmaManager.sol\":3115:3116  i */\n      dup4\n        /* \"ETH/PlasmaManager.sol\":3105:3117  _fullList[i] */\n      dup2\n      mload\n      dup2\n      lt\n      tag_111\n      jumpi\n      invalid\n    tag_111:\n      0x20\n      mul\n      0x20\n      add\n      add\n      mload\n        /* \"ETH/PlasmaManager.sol\":3105:3125  _fullList[i].toBytes */\n      tag_112\n        /* \"ETH/PlasmaManager.sol\":3105:3127  _fullList[i].toBytes() */\n      jump\t// in\n    tag_110:\n        /* \"ETH/PlasmaManager.sol\":3079:3127  bytes memory _signature = _fullList[i].toBytes() */\n      swap1\n      pop\n        /* \"ETH/PlasmaManager.sol\":3134:3147  bool _success */\n      0x00\n        /* \"ETH/PlasmaManager.sol\":3149:3164  address _signer */\n      dup1\n        /* \"ETH/PlasmaManager.sol\":3168:3221  ECVerify.ecrecovery(... */\n      tag_113\n        /* \"ETH/PlasmaManager.sol\":3193:3200  _digest */\n      dup7\n        /* \"ETH/PlasmaManager.sol\":3206:3216  _signature */\n      dup5\n        /* \"ETH/PlasmaManager.sol\":3168:3187  ECVerify.ecrecovery */\n      tag_114\n        /* \"ETH/PlasmaManager.sol\":3168:3221  ECVerify.ecrecovery(... */\n      jump\t// in\n    tag_113:\n        /* \"ETH/PlasmaManager.sol\":3133:3221  (bool _success, address _signer) = ECVerify.ecrecovery(... */\n      swap2\n      pop\n      swap2\n      pop\n        /* \"ETH/PlasmaManager.sol\":3235:3243  _success */\n      dup2\n        /* \"ETH/PlasmaManager.sol\":3227:3272  require(_success, \"ecrecover should success\") */\n      tag_115\n      jumpi\n      mload(0x40)\n      0x08c379a000000000000000000000000000000000000000000000000000000000\n      dup2\n      mstore\n      0x04\n      add\n      dup1\n      dup1\n      0x20\n      add\n      dup3\n      dup2\n      sub\n      dup3\n      mstore\n      0x18\n      dup2\n      mstore\n      0x20\n      add\n      dup1\n      0x65637265636f7665722073686f756c6420737563636573730000000000000000\n      dup2\n      mstore\n      pop\n      0x20\n      add\n      swap2\n      pop\n      pop\n      mload(0x40)\n      dup1\n      swap2\n      sub\n      swap1\n      revert\n    tag_115:\n        /* \"ETH/PlasmaManager.sol\":3282:3293  isValidator */\n      0x01\n        /* \"ETH/PlasmaManager.sol\":3282:3302  isValidator[_signer] */\n      0x00\n        /* \"ETH/PlasmaManager.sol\":3294:3301  _signer */\n      dup3\n        /* \"ETH/PlasmaManager.sol\":3282:3302  isValidator[_signer] */\n      0xffffffffffffffffffffffffffffffffffffffff\n      and\n      0xffffffffffffffffffffffffffffffffffffffff\n      and\n      dup2\n      mstore\n      0x20\n      add\n      swap1\n      dup2\n      mstore\n      0x20\n      add\n      0x00\n      keccak256\n      0x00\n      swap1\n      sload\n      swap1\n      0x0100\n      exp\n      swap1\n      div\n      0xff\n      and\n        /* \"ETH/PlasmaManager.sol\":3278:3330  if (isValidator[_signer]) _numberOfValidSignatures++ */\n      iszero\n      tag_116\n      jumpi\n        /* \"ETH/PlasmaManager.sol\":3304:3330  _numberOfValidSignatures++ */\n      dup5\n      dup1\n      0x01\n      add\n      swap6\n      pop\n      pop\n        /* \"ETH/PlasmaManager.sol\":3278:3330  if (isValidator[_signer]) _numberOfValidSignatures++ */\n    tag_116:\n        /* \"ETH/PlasmaManager.sol\":3027:3335  for (uint256 i = 1; i < _fullList.length; i++) {... */\n      pop\n      pop\n      pop\n        /* \"ETH/PlasmaManager.sol\":3069:3072  i++ */\n      dup1\n      dup1\n      0x01\n      add\n      swap2\n      pop\n      pop\n        /* \"ETH/PlasmaManager.sol\":3027:3335  for (uint256 i = 1; i < _fullList.length; i++) {... */\n      jump(tag_107)\n    tag_108:\n      pop\n        /* \"ETH/PlasmaManager.sol\":3406:3409  100 */\n      0x64\n        /* \"ETH/PlasmaManager.sol\":3400:3402  66 */\n      0x42\n        /* \"ETH/PlasmaManager.sol\":3379:3397  numberOfValidators */\n      sload(0x00)\n        /* \"ETH/PlasmaManager.sol\":3379:3402  numberOfValidators * 66 */\n      mul\n        /* \"ETH/PlasmaManager.sol\":3378:3409  (numberOfValidators * 66) / 100 */\n      dup2\n      tag_117\n      jumpi\n      invalid\n    tag_117:\n      div\n        /* \"ETH/PlasmaManager.sol\":3351:3375  _numberOfValidSignatures */\n      dup2\n        /* \"ETH/PlasmaManager.sol\":3351:3409  _numberOfValidSignatures > (numberOfValidators * 66) / 100 */\n      gt\n        /* \"ETH/PlasmaManager.sol\":3339:3446  require(... */\n      tag_118\n      jumpi\n      mload(0x40)\n      0x08c379a000000000000000000000000000000000000000000000000000000000\n      dup2\n      mstore\n      0x04\n      add\n      dup1\n      dup1\n      0x20\n      add\n      dup3\n      dup2\n      sub\n      dup3\n      mstore\n      0x1a\n      dup2\n      mstore\n      0x20\n      add\n      dup1\n      0x3636252076616c696461746f72732073686f756c64207369676e000000000000\n      dup2\n      mstore\n      pop\n      0x20\n      add\n      swap2\n      pop\n      pop\n      mload(0x40)\n      dup1\n      swap2\n      sub\n      swap1\n      revert\n    tag_118:\n        /* \"ETH/PlasmaManager.sol\":3451:3470  uint256 _bunchIndex */\n      0x00\n        /* \"ETH/PlasmaManager.sol\":3473:3480  bunches */\n      0x05\n        /* \"ETH/PlasmaManager.sol\":3473:3487  bunches.length */\n      dup1\n      sload\n      swap1\n      pop\n        /* \"ETH/PlasmaManager.sol\":3451:3487  uint256 _bunchIndex = bunches.length */\n      swap1\n      pop\n        /* \"ETH/PlasmaManager.sol\":3492:3499  bunches */\n      0x05\n        /* \"ETH/PlasmaManager.sol\":3505:3517  _bunchHeader */\n      dup6\n        /* \"ETH/PlasmaManager.sol\":3492:3518  bunches.push(_bunchHeader) */\n      swap1\n      dup1\n        /* \"--CODEGEN--\":39:40   */\n      0x01\n        /* \"--CODEGEN--\":33:36   */\n      dup2\n        /* \"--CODEGEN--\":27:37   */\n      sload\n        /* \"--CODEGEN--\":23:41   */\n      add\n        /* \"--CODEGEN--\":57:67   */\n      dup1\n        /* \"--CODEGEN--\":52:55   */\n      dup3\n        /* \"--CODEGEN--\":45:68   */\n      sstore\n        /* \"--CODEGEN--\":79:89   */\n      dup1\n        /* \"--CODEGEN--\":72:89   */\n      swap2\n      pop\n        /* \"--CODEGEN--\":0:93   */\n      pop\n        /* \"ETH/PlasmaManager.sol\":3492:3518  bunches.push(_bunchHeader) */\n      0x01\n      swap1\n      sub\n      swap1\n      0x00\n      mstore\n      keccak256(0x00, 0x20)\n      swap1\n      0x04\n      mul\n      add\n      0x00\n      swap1\n      swap2\n      swap1\n      swap2\n      swap1\n      swap2\n      pop\n      0x00\n      dup3\n      add\n      mload\n      dup2\n      0x00\n      add\n      sstore\n      0x20\n      dup3\n      add\n      mload\n      dup2\n      0x01\n      add\n      sstore\n      0x40\n      dup3\n      add\n      mload\n      dup2\n      0x02\n      add\n      sstore\n      0x60\n      dup3\n      add\n      mload\n      dup2\n      0x03\n      add\n      sstore\n      pop\n      pop\n        /* \"ETH/PlasmaManager.sol\":3528:3624  NewBunchHeader(... */\n      0x435520ea9b14c682112acef5bc8466234d75b18dce73c44a78d905139def419d\n        /* \"ETH/PlasmaManager.sol\":3547:3559  _bunchHeader */\n      dup6\n        /* \"ETH/PlasmaManager.sol\":3547:3576  _bunchHeader.startBlockNumber */\n      0x00\n      add\n      mload\n        /* \"ETH/PlasmaManager.sol\":3581:3593  _bunchHeader */\n      dup7\n        /* \"ETH/PlasmaManager.sol\":3581:3604  _bunchHeader.bunchDepth */\n      0x20\n      add\n      mload\n        /* \"ETH/PlasmaManager.sol\":3609:3620  _bunchIndex */\n      dup4\n        /* \"ETH/PlasmaManager.sol\":3528:3624  NewBunchHeader(... */\n      mload(0x40)\n      dup1\n      dup5\n      dup2\n      mstore\n      0x20\n      add\n      dup4\n      dup2\n      mstore\n      0x20\n      add\n      dup3\n      dup2\n      mstore\n      0x20\n      add\n      swap4\n      pop\n      pop\n      pop\n      pop\n      mload(0x40)\n      dup1\n      swap2\n      sub\n      swap1\n      log1\n        /* \"ETH/PlasmaManager.sol\":2207:3628  function submitBunchHeader(bytes memory _signedHeader) public {... */\n      pop\n      pop\n      pop\n      pop\n      pop\n      pop\n      pop\n      pop\n      jump\t// out\n        /* \"ETH/PlasmaManager.sol\":2093:2204  function setESNDepositAddress(address _esnDepositAddress) public {... */\n    tag_41:\n        /* \"ETH/PlasmaManager.sol\":2182:2200  _esnDepositAddress */\n      dup1\n        /* \"ETH/PlasmaManager.sol\":2162:2179  esnDepositAddress */\n      0x07\n      0x00\n        /* \"ETH/PlasmaManager.sol\":2162:2200  esnDepositAddress = _esnDepositAddress */\n      0x0100\n      exp\n      dup2\n      sload\n      dup2\n      0xffffffffffffffffffffffffffffffffffffffff\n      mul\n      not\n      and\n      swap1\n      dup4\n      0xffffffffffffffffffffffffffffffffffffffff\n      and\n      mul\n      or\n      swap1\n      sstore\n      pop\n        /* \"ETH/PlasmaManager.sol\":2093:2204  function setESNDepositAddress(address _esnDepositAddress) public {... */\n      pop\n      jump\t// out\n        /* \"ETH/PlasmaManager.sol\":678:730  mapping(bytes32 => bool) public processedWithdrawals */\n    tag_44:\n      mstore(0x20, 0x02)\n      dup1\n      0x00\n      mstore\n      keccak256(0x00, 0x40)\n      0x00\n      swap2\n      pop\n      sload\n      swap1\n      0x0100\n      exp\n      swap1\n      div\n      0xff\n      and\n      dup2\n      jump\t// out\n        /* \"ETH/PlasmaManager.sol\":3631:5054  function claimWithdrawal(bytes memory _rawTransactionProof) public {... */\n    tag_50:\n        /* \"ETH/PlasmaManager.sol\":3702:3736  RLP.RLPItem[] memory _decodedProof */\n      0x60\n        /* \"ETH/PlasmaManager.sol\":3739:3788  _rawTransactionProof... */\n      tag_122\n        /* \"ETH/PlasmaManager.sol\":3739:3775  _rawTransactionProof... */\n      tag_123\n        /* \"ETH/PlasmaManager.sol\":3739:3759  _rawTransactionProof */\n      dup4\n        /* \"ETH/PlasmaManager.sol\":3739:3773  _rawTransactionProof... */\n      tag_78\n        /* \"ETH/PlasmaManager.sol\":3739:3775  _rawTransactionProof... */\n      jump\t// in\n    tag_123:\n        /* \"ETH/PlasmaManager.sol\":3739:3786  _rawTransactionProof... */\n      tag_79\n        /* \"ETH/PlasmaManager.sol\":3739:3788  _rawTransactionProof... */\n      jump\t// in\n    tag_122:\n        /* \"ETH/PlasmaManager.sol\":3702:3788  RLP.RLPItem[] memory _decodedProof = _rawTransactionProof... */\n      swap1\n      pop\n        /* \"ETH/PlasmaManager.sol\":3793:3812  uint256 _bunchIndex */\n      0x00\n        /* \"ETH/PlasmaManager.sol\":3815:3840  _decodedProof[0].toUint() */\n      tag_124\n        /* \"ETH/PlasmaManager.sol\":3815:3828  _decodedProof */\n      dup3\n        /* \"ETH/PlasmaManager.sol\":3829:3830  0 */\n      0x00\n        /* \"ETH/PlasmaManager.sol\":3815:3831  _decodedProof[0] */\n      dup2\n      mload\n      dup2\n      lt\n      tag_125\n      jumpi\n      invalid\n    tag_125:\n      0x20\n      mul\n      0x20\n      add\n      add\n      mload\n        /* \"ETH/PlasmaManager.sol\":3815:3838  _decodedProof[0].toUint */\n      tag_87\n        /* \"ETH/PlasmaManager.sol\":3815:3840  _decodedProof[0].toUint() */\n      jump\t// in\n    tag_124:\n        /* \"ETH/PlasmaManager.sol\":3793:3840  uint256 _bunchIndex = _decodedProof[0].toUint() */\n      swap1\n      pop\n        /* \"ETH/PlasmaManager.sol\":3844:3864  uint256 _blockNumber */\n      0x00\n        /* \"ETH/PlasmaManager.sol\":3867:3892  _decodedProof[1].toUint() */\n      tag_126\n        /* \"ETH/PlasmaManager.sol\":3867:3880  _decodedProof */\n      dup4\n        /* \"ETH/PlasmaManager.sol\":3881:3882  1 */\n      0x01\n        /* \"ETH/PlasmaManager.sol\":3867:3883  _decodedProof[1] */\n      dup2\n      mload\n      dup2\n      lt\n      tag_127\n      jumpi\n      invalid\n    tag_127:\n      0x20\n      mul\n      0x20\n      add\n      add\n      mload\n        /* \"ETH/PlasmaManager.sol\":3867:3890  _decodedProof[1].toUint */\n      tag_87\n        /* \"ETH/PlasmaManager.sol\":3867:3892  _decodedProof[1].toUint() */\n      jump\t// in\n    tag_126:\n        /* \"ETH/PlasmaManager.sol\":3844:3892  uint256 _blockNumber = _decodedProof[1].toUint() */\n      swap1\n      pop\n        /* \"ETH/PlasmaManager.sol\":3896:3927  bytes memory _blockInBunchProof */\n      0x60\n        /* \"ETH/PlasmaManager.sol\":3930:3956  _decodedProof[2].toBytes() */\n      tag_128\n        /* \"ETH/PlasmaManager.sol\":3930:3943  _decodedProof */\n      dup5\n        /* \"ETH/PlasmaManager.sol\":3944:3945  2 */\n      0x02\n        /* \"ETH/PlasmaManager.sol\":3930:3946  _decodedProof[2] */\n      dup2\n      mload\n      dup2\n      lt\n      tag_129\n      jumpi\n      invalid\n    tag_129:\n      0x20\n      mul\n      0x20\n      add\n      add\n      mload\n        /* \"ETH/PlasmaManager.sol\":3930:3954  _decodedProof[2].toBytes */\n      tag_112\n        /* \"ETH/PlasmaManager.sol\":3930:3956  _decodedProof[2].toBytes() */\n      jump\t// in\n    tag_128:\n        /* \"ETH/PlasmaManager.sol\":3896:3956  bytes memory _blockInBunchProof = _decodedProof[2].toBytes() */\n      swap1\n      pop\n        /* \"ETH/PlasmaManager.sol\":3960:3975  bytes32 _txRoot */\n      0x00\n        /* \"ETH/PlasmaManager.sol\":3978:4006  _decodedProof[3].toBytes32() */\n      tag_130\n        /* \"ETH/PlasmaManager.sol\":3978:3991  _decodedProof */\n      dup6\n        /* \"ETH/PlasmaManager.sol\":3992:3993  3 */\n      0x03\n        /* \"ETH/PlasmaManager.sol\":3978:3994  _decodedProof[3] */\n      dup2\n      mload\n      dup2\n      lt\n      tag_131\n      jumpi\n      invalid\n    tag_131:\n      0x20\n      mul\n      0x20\n      add\n      add\n      mload\n        /* \"ETH/PlasmaManager.sol\":3978:4004  _decodedProof[3].toBytes32 */\n      tag_92\n        /* \"ETH/PlasmaManager.sol\":3978:4006  _decodedProof[3].toBytes32() */\n      jump\t// in\n    tag_130:\n        /* \"ETH/PlasmaManager.sol\":3960:4006  bytes32 _txRoot = _decodedProof[3].toBytes32() */\n      swap1\n      pop\n        /* \"ETH/PlasmaManager.sol\":4010:4029  bytes memory _rawTx */\n      0x60\n        /* \"ETH/PlasmaManager.sol\":4032:4058  _decodedProof[4].toBytes() */\n      tag_132\n        /* \"ETH/PlasmaManager.sol\":4032:4045  _decodedProof */\n      dup7\n        /* \"ETH/PlasmaManager.sol\":4046:4047  4 */\n      0x04\n        /* \"ETH/PlasmaManager.sol\":4032:4048  _decodedProof[4] */\n      dup2\n      mload\n      dup2\n      lt\n      tag_133\n      jumpi\n      invalid\n    tag_133:\n      0x20\n      mul\n      0x20\n      add\n      add\n      mload\n        /* \"ETH/PlasmaManager.sol\":4032:4056  _decodedProof[4].toBytes */\n      tag_112\n        /* \"ETH/PlasmaManager.sol\":4032:4058  _decodedProof[4].toBytes() */\n      jump\t// in\n    tag_132:\n        /* \"ETH/PlasmaManager.sol\":4010:4058  bytes memory _rawTx = _decodedProof[4].toBytes() */\n      swap1\n      pop\n        /* \"ETH/PlasmaManager.sol\":4062:4083  bytes memory _txIndex */\n      0x60\n        /* \"ETH/PlasmaManager.sol\":4086:4112  _decodedProof[5].toBytes() */\n      tag_134\n        /* \"ETH/PlasmaManager.sol\":4086:4099  _decodedProof */\n      dup8\n        /* \"ETH/PlasmaManager.sol\":4100:4101  5 */\n      0x05\n        /* \"ETH/PlasmaManager.sol\":4086:4102  _decodedProof[5] */\n      dup2\n      mload\n      dup2\n      lt\n      tag_135\n      jumpi\n      invalid\n    tag_135:\n      0x20\n      mul\n      0x20\n      add\n      add\n      mload\n        /* \"ETH/PlasmaManager.sol\":4086:4110  _decodedProof[5].toBytes */\n      tag_112\n        /* \"ETH/PlasmaManager.sol\":4086:4112  _decodedProof[5].toBytes() */\n      jump\t// in\n    tag_134:\n        /* \"ETH/PlasmaManager.sol\":4062:4112  bytes memory _txIndex = _decodedProof[5].toBytes() */\n      swap1\n      pop\n        /* \"ETH/PlasmaManager.sol\":4116:4144  bytes memory _txInBlockProof */\n      0x60\n        /* \"ETH/PlasmaManager.sol\":4147:4173  _decodedProof[6].toBytes() */\n      tag_136\n        /* \"ETH/PlasmaManager.sol\":4147:4160  _decodedProof */\n      dup9\n        /* \"ETH/PlasmaManager.sol\":4161:4162  6 */\n      0x06\n        /* \"ETH/PlasmaManager.sol\":4147:4163  _decodedProof[6] */\n      dup2\n      mload\n      dup2\n      lt\n      tag_137\n      jumpi\n      invalid\n    tag_137:\n      0x20\n      mul\n      0x20\n      add\n      add\n      mload\n        /* \"ETH/PlasmaManager.sol\":4147:4171  _decodedProof[6].toBytes */\n      tag_112\n        /* \"ETH/PlasmaManager.sol\":4147:4173  _decodedProof[6].toBytes() */\n      jump\t// in\n    tag_136:\n        /* \"ETH/PlasmaManager.sol\":4116:4173  bytes memory _txInBlockProof = _decodedProof[6].toBytes() */\n      swap1\n      pop\n        /* \"ETH/PlasmaManager.sol\":4178:4193  bytes32 _txHash */\n      0x00\n        /* \"ETH/PlasmaManager.sol\":4206:4212  _rawTx */\n      dup4\n        /* \"ETH/PlasmaManager.sol\":4196:4213  keccak256(_rawTx) */\n      dup1\n      mload\n      swap1\n      0x20\n      add\n      keccak256\n        /* \"ETH/PlasmaManager.sol\":4178:4213  bytes32 _txHash = keccak256(_rawTx) */\n      swap1\n      pop\n        /* \"ETH/PlasmaManager.sol\":4231:4251  processedWithdrawals */\n      0x02\n        /* \"ETH/PlasmaManager.sol\":4231:4260  processedWithdrawals[_txHash] */\n      0x00\n        /* \"ETH/PlasmaManager.sol\":4252:4259  _txHash */\n      dup3\n        /* \"ETH/PlasmaManager.sol\":4231:4260  processedWithdrawals[_txHash] */\n      dup2\n      mstore\n      0x20\n      add\n      swap1\n      dup2\n      mstore\n      0x20\n      add\n      0x00\n      keccak256\n      0x00\n      swap1\n      sload\n      swap1\n      0x0100\n      exp\n      swap1\n      div\n      0xff\n      and\n        /* \"ETH/PlasmaManager.sol\":4230:4260  !processedWithdrawals[_txHash] */\n      iszero\n        /* \"ETH/PlasmaManager.sol\":4218:4320  require(... */\n      tag_138\n      jumpi\n      mload(0x40)\n      0x08c379a000000000000000000000000000000000000000000000000000000000\n      dup2\n      mstore\n      0x04\n      add\n      dup1\n      dup1\n      0x20\n      add\n      dup3\n      dup2\n      sub\n      dup3\n      mstore\n      0x31\n      dup2\n      mstore\n      0x20\n      add\n      dup1\n      data_fc13d223b0e89774a393f7fd3fe2b806585769765211db5908a5476ec6dfd9e8\n      0x31\n      swap2\n      codecopy\n      0x40\n      add\n      swap2\n      pop\n      pop\n      mload(0x40)\n      dup1\n      swap2\n      sub\n      swap1\n      revert\n    tag_138:\n        /* \"ETH/PlasmaManager.sol\":4337:4428  MerklePatriciaProof.verify(... */\n      tag_139\n        /* \"ETH/PlasmaManager.sol\":4369:4375  _rawTx */\n      dup5\n        /* \"ETH/PlasmaManager.sol\":4381:4389  _txIndex */\n      dup5\n        /* \"ETH/PlasmaManager.sol\":4395:4410  _txInBlockProof */\n      dup5\n        /* \"ETH/PlasmaManager.sol\":4416:4423  _txRoot */\n      dup9\n        /* \"ETH/PlasmaManager.sol\":4337:4363  MerklePatriciaProof.verify */\n      tag_140\n        /* \"ETH/PlasmaManager.sol\":4337:4428  MerklePatriciaProof.verify(... */\n      jump\t// in\n    tag_139:\n        /* \"ETH/PlasmaManager.sol\":4325:4461  require(... */\n      tag_141\n      jumpi\n      mload(0x40)\n      0x08c379a000000000000000000000000000000000000000000000000000000000\n      dup2\n      mstore\n      0x04\n      add\n      dup1\n      dup1\n      0x20\n      add\n      dup3\n      dup2\n      sub\n      dup3\n      mstore\n      0x16\n      dup2\n      mstore\n      0x20\n      add\n      dup1\n      0x496e76616c69642050617472696369612050726f6f6600000000000000000000\n      dup2\n      mstore\n      pop\n      0x20\n      add\n      swap2\n      pop\n      pop\n      mload(0x40)\n      dup1\n      swap2\n      sub\n      swap1\n      revert\n    tag_141:\n        /* \"ETH/PlasmaManager.sol\":4520:4698  Merkle.verify(... */\n      tag_142\n        /* \"ETH/PlasmaManager.sol\":4539:4546  _txRoot */\n      dup6\n        /* \"ETH/PlasmaManager.sol\":4585:4592  bunches */\n      0x05\n        /* \"ETH/PlasmaManager.sol\":4593:4604  _bunchIndex */\n      dup11\n        /* \"ETH/PlasmaManager.sol\":4585:4605  bunches[_bunchIndex] */\n      dup2\n      sload\n      dup2\n      lt\n      tag_143\n      jumpi\n      invalid\n    tag_143:\n      swap1\n      0x00\n      mstore\n      keccak256(0x00, 0x20)\n      swap1\n      0x04\n      mul\n      add\n        /* \"ETH/PlasmaManager.sol\":4585:4622  bunches[_bunchIndex].startBlockNumber */\n      0x00\n      add\n      sload\n        /* \"ETH/PlasmaManager.sol\":4570:4582  _blockNumber */\n      dup10\n        /* \"ETH/PlasmaManager.sol\":4570:4622  _blockNumber - bunches[_bunchIndex].startBlockNumber */\n      sub\n        /* \"ETH/PlasmaManager.sol\":4628:4635  bunches */\n      0x05\n        /* \"ETH/PlasmaManager.sol\":4636:4647  _bunchIndex */\n      dup12\n        /* \"ETH/PlasmaManager.sol\":4628:4648  bunches[_bunchIndex] */\n      dup2\n      sload\n      dup2\n      lt\n      tag_145\n      jumpi\n      invalid\n    tag_145:\n      swap1\n      0x00\n      mstore\n      keccak256(0x00, 0x20)\n      swap1\n      0x04\n      mul\n      add\n        /* \"ETH/PlasmaManager.sol\":4628:4669  bunches[_bunchIndex].transactionsMegaRoot */\n      0x02\n      add\n      sload\n        /* \"ETH/PlasmaManager.sol\":4675:4693  _blockInBunchProof */\n      dup10\n        /* \"ETH/PlasmaManager.sol\":4520:4533  Merkle.verify */\n      tag_147\n        /* \"ETH/PlasmaManager.sol\":4520:4698  Merkle.verify(... */\n      jump\t// in\n    tag_142:\n        /* \"ETH/PlasmaManager.sol\":4508:4729  require(... */\n      tag_148\n      jumpi\n      mload(0x40)\n      0x08c379a000000000000000000000000000000000000000000000000000000000\n      dup2\n      mstore\n      0x04\n      add\n      dup1\n      dup1\n      0x20\n      add\n      dup3\n      dup2\n      sub\n      dup3\n      mstore\n      0x14\n      dup2\n      mstore\n      0x20\n      add\n      dup1\n      0x496e76616c6964204d65726b6c652050726f6f66000000000000000000000000\n      dup2\n      mstore\n      pop\n      0x20\n      add\n      swap2\n      pop\n      pop\n      mload(0x40)\n      dup1\n      swap2\n      sub\n      swap1\n      revert\n    tag_148:\n        /* \"ETH/PlasmaManager.sol\":4735:4750  address _signer */\n      0x00\n        /* \"ETH/PlasmaManager.sol\":4752:4763  address _to */\n      dup1\n        /* \"ETH/PlasmaManager.sol\":4765:4779  uint256 _value */\n      0x00\n        /* \"ETH/PlasmaManager.sol\":4785:4823  EthParser... */\n      tag_149\n        /* \"ETH/PlasmaManager.sol\":4816:4822  _rawTx */\n      dup8\n        /* \"ETH/PlasmaManager.sol\":4785:4815  EthParser... */\n      tag_150\n        /* \"ETH/PlasmaManager.sol\":4785:4823  EthParser... */\n      jump\t// in\n    tag_149:\n        /* \"ETH/PlasmaManager.sol\":4734:4823  (address _signer, address _to, uint256 _value, ) = EthParser... */\n      pop\n      swap3\n      pop\n      swap3\n      pop\n      swap3\n      pop\n        /* \"ETH/PlasmaManager.sol\":4847:4864  esnDepositAddress */\n      0x07\n      0x00\n      swap1\n      sload\n      swap1\n      0x0100\n      exp\n      swap1\n      div\n      0xffffffffffffffffffffffffffffffffffffffff\n      and\n        /* \"ETH/PlasmaManager.sol\":4840:4864  _to == esnDepositAddress */\n      0xffffffffffffffffffffffffffffffffffffffff\n      and\n        /* \"ETH/PlasmaManager.sol\":4840:4843  _to */\n      dup3\n        /* \"ETH/PlasmaManager.sol\":4840:4864  _to == esnDepositAddress */\n      0xffffffffffffffffffffffffffffffffffffffff\n      and\n      eq\n        /* \"ETH/PlasmaManager.sol\":4828:4973  require(... */\n      tag_151\n      jumpi\n      mload(0x40)\n      0x08c379a000000000000000000000000000000000000000000000000000000000\n      dup2\n      mstore\n      0x04\n      add\n      dup1\n      dup1\n      0x20\n      add\n      dup3\n      dup2\n      sub\n      dup3\n      mstore\n      0x2e\n      dup2\n      mstore\n      0x20\n      add\n      dup1\n      data_077781bc781d69c18b16708e32a7859fb69c8510a105056868d84c2c5ba1f85f\n      0x2e\n      swap2\n      codecopy\n      0x40\n      add\n      swap2\n      pop\n      pop\n      mload(0x40)\n      dup1\n      swap2\n      sub\n      swap1\n      revert\n    tag_151:\n        /* \"ETH/PlasmaManager.sol\":5010:5014  true */\n      0x01\n        /* \"ETH/PlasmaManager.sol\":4978:4998  processedWithdrawals */\n      0x02\n        /* \"ETH/PlasmaManager.sol\":4978:5007  processedWithdrawals[_txHash] */\n      0x00\n        /* \"ETH/PlasmaManager.sol\":4999:5006  _txHash */\n      dup7\n        /* \"ETH/PlasmaManager.sol\":4978:5007  processedWithdrawals[_txHash] */\n      dup2\n      mstore\n      0x20\n      add\n      swap1\n      dup2\n      mstore\n      0x20\n      add\n      0x00\n      keccak256\n      0x00\n        /* \"ETH/PlasmaManager.sol\":4978:5014  processedWithdrawals[_txHash] = true */\n      0x0100\n      exp\n      dup2\n      sload\n      dup2\n      0xff\n      mul\n      not\n      and\n      swap1\n      dup4\n      iszero\n      iszero\n      mul\n      or\n      swap1\n      sstore\n      pop\n        /* \"ETH/PlasmaManager.sol\":5019:5024  token */\n      0x06\n      0x00\n      swap1\n      sload\n      swap1\n      0x0100\n      exp\n      swap1\n      div\n      0xffffffffffffffffffffffffffffffffffffffff\n      and\n        /* \"ETH/PlasmaManager.sol\":5019:5033  token.transfer */\n      0xffffffffffffffffffffffffffffffffffffffff\n      and\n      0xa9059cbb\n        /* \"ETH/PlasmaManager.sol\":5034:5041  _signer */\n      dup5\n        /* \"ETH/PlasmaManager.sol\":5043:5049  _value */\n      dup4\n        /* \"ETH/PlasmaManager.sol\":5019:5050  token.transfer(_signer, _value) */\n      mload(0x40)\n      dup4\n      0xffffffff\n      and\n      0xe0\n      shl\n      dup2\n      mstore\n      0x04\n      add\n      dup1\n      dup4\n      0xffffffffffffffffffffffffffffffffffffffff\n      and\n      0xffffffffffffffffffffffffffffffffffffffff\n      and\n      dup2\n      mstore\n      0x20\n      add\n      dup3\n      dup2\n      mstore\n      0x20\n      add\n      swap3\n      pop\n      pop\n      pop\n      0x20\n      mload(0x40)\n      dup1\n      dup4\n      sub\n      dup2\n      0x00\n      dup8\n      dup1\n      extcodesize\n      iszero\n        /* \"--CODEGEN--\":5:14   */\n      dup1\n        /* \"--CODEGEN--\":2:4   */\n      iszero\n      tag_152\n      jumpi\n        /* \"--CODEGEN--\":27:28   */\n      0x00\n        /* \"--CODEGEN--\":24:25   */\n      dup1\n        /* \"--CODEGEN--\":17:29   */\n      revert\n        /* \"--CODEGEN--\":2:4   */\n    tag_152:\n        /* \"ETH/PlasmaManager.sol\":5019:5050  token.transfer(_signer, _value) */\n      pop\n      gas\n      call\n      iszero\n        /* \"--CODEGEN--\":8:17   */\n      dup1\n        /* \"--CODEGEN--\":5:7   */\n      iszero\n      tag_154\n      jumpi\n        /* \"--CODEGEN--\":45:61   */\n      returndatasize\n        /* \"--CODEGEN--\":42:43   */\n      0x00\n        /* \"--CODEGEN--\":39:40   */\n      dup1\n        /* \"--CODEGEN--\":24:62   */\n      returndatacopy\n        /* \"--CODEGEN--\":77:93   */\n      returndatasize\n        /* \"--CODEGEN--\":74:75   */\n      0x00\n        /* \"--CODEGEN--\":67:94   */\n      revert\n        /* \"--CODEGEN--\":5:7   */\n    tag_154:\n        /* \"ETH/PlasmaManager.sol\":5019:5050  token.transfer(_signer, _value) */\n      pop\n      pop\n      pop\n      pop\n      mload(0x40)\n      returndatasize\n        /* \"--CODEGEN--\":15:17   */\n      0x20\n        /* \"--CODEGEN--\":10:13   */\n      dup2\n        /* \"--CODEGEN--\":7:18   */\n      lt\n        /* \"--CODEGEN--\":4:6   */\n      iszero\n      tag_155\n      jumpi\n        /* \"--CODEGEN--\":31:32   */\n      0x00\n        /* \"--CODEGEN--\":28:29   */\n      dup1\n        /* \"--CODEGEN--\":21:33   */\n      revert\n        /* \"--CODEGEN--\":4:6   */\n    tag_155:\n        /* \"ETH/PlasmaManager.sol\":5019:5050  token.transfer(_signer, _value) */\n      dup2\n      add\n      swap1\n      dup1\n      dup1\n      mload\n      swap1\n      0x20\n      add\n      swap1\n      swap3\n      swap2\n      swap1\n      pop\n      pop\n      pop\n      pop\n        /* \"ETH/PlasmaManager.sol\":3631:5054  function claimWithdrawal(bytes memory _rawTransactionProof) public {... */\n      pop\n      pop\n      pop\n      pop\n      pop\n      pop\n      pop\n      pop\n      pop\n      pop\n      pop\n      pop\n      pop\n      jump\t// out\n        /* \"ETH/PlasmaManager.sol\":1853:1939  function getAllSigners() public view returns (address[] memory) {... */\n    tag_52:\n        /* \"ETH/PlasmaManager.sol\":1899:1915  address[] memory */\n      0x60\n        /* \"ETH/PlasmaManager.sol\":1928:1935  signers */\n      0x04\n        /* \"ETH/PlasmaManager.sol\":1921:1935  return signers */\n      dup1\n      sload\n      dup1\n      0x20\n      mul\n      0x20\n      add\n      mload(0x40)\n      swap1\n      dup2\n      add\n      0x40\n      mstore\n      dup1\n      swap3\n      swap2\n      swap1\n      dup2\n      dup2\n      mstore\n      0x20\n      add\n      dup3\n      dup1\n      sload\n      dup1\n      iszero\n      tag_157\n      jumpi\n      0x20\n      mul\n      dup3\n      add\n      swap2\n      swap1\n      0x00\n      mstore\n      keccak256(0x00, 0x20)\n      swap1\n    tag_158:\n      dup2\n      0x00\n      swap1\n      sload\n      swap1\n      0x0100\n      exp\n      swap1\n      div\n      0xffffffffffffffffffffffffffffffffffffffff\n      and\n      0xffffffffffffffffffffffffffffffffffffffff\n      and\n      dup2\n      mstore\n      0x20\n      add\n      swap1\n      0x01\n      add\n      swap1\n      dup1\n      dup4\n      gt\n      tag_158\n      jumpi\n    tag_157:\n      pop\n      pop\n      pop\n      pop\n      pop\n      swap1\n      pop\n        /* \"ETH/PlasmaManager.sol\":1853:1939  function getAllSigners() public view returns (address[] memory) {... */\n      swap1\n      jump\t// out\n        /* \"ETH/PlasmaManager.sol\":596:629  uint256 public numberOfValidators */\n    tag_57:\n      sload(0x00)\n      dup2\n      jump\t// out\n        /* \"ETH/PlasmaManager.sol\":1758:1850  function getAllValidators() public view returns (address[] memory) {... */\n    tag_59:\n        /* \"ETH/PlasmaManager.sol\":1807:1823  address[] memory */\n      0x60\n        /* \"ETH/PlasmaManager.sol\":1836:1846  validators */\n      0x03\n        /* \"ETH/PlasmaManager.sol\":1829:1846  return validators */\n      dup1\n      sload\n      dup1\n      0x20\n      mul\n      0x20\n      add\n      mload(0x40)\n      swap1\n      dup2\n      add\n      0x40\n      mstore\n      dup1\n      swap3\n      swap2\n      swap1\n      dup2\n      dup2\n      mstore\n      0x20\n      add\n      dup3\n      dup1\n      sload\n      dup1\n      iszero\n      tag_160\n      jumpi\n      0x20\n      mul\n      dup3\n      add\n      swap2\n      swap1\n      0x00\n      mstore\n      keccak256(0x00, 0x20)\n      swap1\n    tag_161:\n      dup2\n      0x00\n      swap1\n      sload\n      swap1\n      0x0100\n      exp\n      swap1\n      div\n      0xffffffffffffffffffffffffffffffffffffffff\n      and\n      0xffffffffffffffffffffffffffffffffffffffff\n      and\n      dup2\n      mstore\n      0x20\n      add\n      swap1\n      0x01\n      add\n      swap1\n      dup1\n      dup4\n      gt\n      tag_161\n      jumpi\n    tag_160:\n      pop\n      pop\n      pop\n      pop\n      pop\n      swap1\n      pop\n        /* \"ETH/PlasmaManager.sol\":1758:1850  function getAllValidators() public view returns (address[] memory) {... */\n      swap1\n      jump\t// out\n        /* \"ETH/PlasmaManager.sol\":632:675  mapping(address => bool) public isValidator */\n    tag_65:\n      mstore(0x20, 0x01)\n      dup1\n      0x00\n      mstore\n      keccak256(0x00, 0x40)\n      0x00\n      swap2\n      pop\n      sload\n      swap1\n      0x0100\n      exp\n      swap1\n      div\n      0xff\n      and\n      dup2\n      jump\t// out\n        /* \"ETH/PlasmaManager.sol\":1235:1253  ERC20 public token */\n    tag_67:\n      0x06\n      0x00\n      swap1\n      sload\n      swap1\n      0x0100\n      exp\n      swap1\n      div\n      0xffffffffffffffffffffffffffffffffffffffff\n      and\n      dup2\n      jump\t// out\n        /* \"lib/RLP.sol\":1336:1528  function toRLPItem(bytes memory item)... */\n    tag_78:\n        /* \"lib/RLP.sol\":1403:1417  RLPItem memory */\n      tag_162\n      tag_163\n      jump\t// in\n    tag_162:\n        /* \"lib/RLP.sol\":1424:1438  uint256 memPtr */\n      0x00\n        /* \"lib/RLP.sol\":1476:1480  0x20 */\n      0x20\n        /* \"lib/RLP.sol\":1470:1474  item */\n      dup4\n        /* \"lib/RLP.sol\":1466:1481  add(item, 0x20) */\n      add\n        /* \"lib/RLP.sol\":1456:1481  memPtr := add(item, 0x20) */\n      swap1\n      pop\n        /* \"lib/RLP.sol\":1496:1524  RLPItem(item.length, memPtr) */\n      mload(0x40)\n      dup1\n      0x40\n      add\n      0x40\n      mstore\n      dup1\n        /* \"lib/RLP.sol\":1504:1508  item */\n      dup5\n        /* \"lib/RLP.sol\":1504:1515  item.length */\n      mload\n        /* \"lib/RLP.sol\":1496:1524  RLPItem(item.length, memPtr) */\n      dup2\n      mstore\n      0x20\n      add\n        /* \"lib/RLP.sol\":1517:1523  memPtr */\n      dup3\n        /* \"lib/RLP.sol\":1496:1524  RLPItem(item.length, memPtr) */\n      dup2\n      mstore\n      pop\n        /* \"lib/RLP.sol\":1489:1524  return RLPItem(item.length, memPtr) */\n      swap2\n      pop\n      pop\n        /* \"lib/RLP.sol\":1336:1528  function toRLPItem(bytes memory item)... */\n      swap2\n      swap1\n      pop\n      jump\t// out\n        /* \"lib/RLP.sol\":2240:2688  function toList(RLPItem memory item)... */\n    tag_79:\n        /* \"lib/RLP.sol\":2306:2322  RLPItem[] memory */\n      0x60\n        /* \"lib/RLP.sol\":2337:2349  isList(item) */\n      tag_166\n        /* \"lib/RLP.sol\":2344:2348  item */\n      dup3\n        /* \"lib/RLP.sol\":2337:2343  isList */\n      tag_167\n        /* \"lib/RLP.sol\":2337:2349  isList(item) */\n      jump\t// in\n    tag_166:\n        /* \"lib/RLP.sol\":2329:2350  require(isList(item)) */\n      tag_168\n      jumpi\n        /* \"--CODEGEN--\":12:13   */\n      0x00\n        /* \"--CODEGEN--\":9:10   */\n      dup1\n        /* \"--CODEGEN--\":2:14   */\n      revert\n        /* \"lib/RLP.sol\":2329:2350  require(isList(item)) */\n    tag_168:\n        /* \"lib/RLP.sol\":2355:2368  uint256 items */\n      0x00\n        /* \"lib/RLP.sol\":2371:2385  numItems(item) */\n      tag_169\n        /* \"lib/RLP.sol\":2380:2384  item */\n      dup4\n        /* \"lib/RLP.sol\":2371:2379  numItems */\n      tag_170\n        /* \"lib/RLP.sol\":2371:2385  numItems(item) */\n      jump\t// in\n    tag_169:\n        /* \"lib/RLP.sol\":2355:2385  uint256 items = numItems(item) */\n      swap1\n      pop\n        /* \"lib/RLP.sol\":2389:2412  RLPItem[] memory result */\n      0x60\n        /* \"lib/RLP.sol\":2429:2434  items */\n      dup2\n        /* \"lib/RLP.sol\":2415:2435  new RLPItem[](items) */\n      0xffffffffffffffff\n      dup2\n      gt\n        /* \"--CODEGEN--\":5:14   */\n      dup1\n        /* \"--CODEGEN--\":2:4   */\n      iszero\n      tag_171\n      jumpi\n        /* \"--CODEGEN--\":27:28   */\n      0x00\n        /* \"--CODEGEN--\":24:25   */\n      dup1\n        /* \"--CODEGEN--\":17:29   */\n      revert\n        /* \"--CODEGEN--\":2:4   */\n    tag_171:\n        /* \"lib/RLP.sol\":2415:2435  new RLPItem[](items) */\n      pop\n      mload(0x40)\n      swap1\n      dup1\n      dup3\n      mstore\n      dup1\n      0x20\n      mul\n      0x20\n      add\n      dup3\n      add\n      0x40\n      mstore\n      dup1\n      iszero\n      tag_172\n      jumpi\n      dup2\n      0x20\n      add\n    tag_173:\n      tag_174\n      tag_163\n      jump\t// in\n    tag_174:\n      dup2\n      mstore\n      0x20\n      add\n      swap1\n      0x01\n      swap1\n      sub\n      swap1\n      dup2\n      tag_173\n      jumpi\n      swap1\n      pop\n    tag_172:\n      pop\n        /* \"lib/RLP.sol\":2389:2435  RLPItem[] memory result = new RLPItem[](items) */\n      swap1\n      pop\n        /* \"lib/RLP.sol\":2440:2454  uint256 memPtr */\n      0x00\n        /* \"lib/RLP.sol\":2471:2498  _payloadOffset(item.memPtr) */\n      tag_175\n        /* \"lib/RLP.sol\":2486:2490  item */\n      dup6\n        /* \"lib/RLP.sol\":2486:2497  item.memPtr */\n      0x20\n      add\n      mload\n        /* \"lib/RLP.sol\":2471:2485  _payloadOffset */\n      tag_176\n        /* \"lib/RLP.sol\":2471:2498  _payloadOffset(item.memPtr) */\n      jump\t// in\n    tag_175:\n        /* \"lib/RLP.sol\":2457:2461  item */\n      dup6\n        /* \"lib/RLP.sol\":2457:2468  item.memPtr */\n      0x20\n      add\n      mload\n        /* \"lib/RLP.sol\":2457:2498  item.memPtr + _payloadOffset(item.memPtr) */\n      add\n        /* \"lib/RLP.sol\":2440:2498  uint256 memPtr = item.memPtr + _payloadOffset(item.memPtr) */\n      swap1\n      pop\n        /* \"lib/RLP.sol\":2502:2517  uint256 dataLen */\n      0x00\n        /* \"lib/RLP.sol\":2526:2535  uint256 i */\n      dup1\n        /* \"lib/RLP.sol\":2538:2539  0 */\n      0x00\n        /* \"lib/RLP.sol\":2526:2539  uint256 i = 0 */\n      swap1\n      pop\n        /* \"lib/RLP.sol\":2521:2667  for (uint256 i = 0; i < items; i++) {... */\n    tag_177:\n        /* \"lib/RLP.sol\":2545:2550  items */\n      dup5\n        /* \"lib/RLP.sol\":2541:2542  i */\n      dup2\n        /* \"lib/RLP.sol\":2541:2550  i < items */\n      lt\n        /* \"lib/RLP.sol\":2521:2667  for (uint256 i = 0; i < items; i++) {... */\n      iszero\n      tag_178\n      jumpi\n        /* \"lib/RLP.sol\":2572:2591  _itemLength(memPtr) */\n      tag_180\n        /* \"lib/RLP.sol\":2584:2590  memPtr */\n      dup4\n        /* \"lib/RLP.sol\":2572:2583  _itemLength */\n      tag_181\n        /* \"lib/RLP.sol\":2572:2591  _itemLength(memPtr) */\n      jump\t// in\n    tag_180:\n        /* \"lib/RLP.sol\":2562:2591  dataLen = _itemLength(memPtr) */\n      swap2\n      pop\n        /* \"lib/RLP.sol\":2608:2632  RLPItem(dataLen, memPtr) */\n      mload(0x40)\n      dup1\n      0x40\n      add\n      0x40\n      mstore\n      dup1\n        /* \"lib/RLP.sol\":2616:2623  dataLen */\n      dup4\n        /* \"lib/RLP.sol\":2608:2632  RLPItem(dataLen, memPtr) */\n      dup2\n      mstore\n      0x20\n      add\n        /* \"lib/RLP.sol\":2625:2631  memPtr */\n      dup5\n        /* \"lib/RLP.sol\":2608:2632  RLPItem(dataLen, memPtr) */\n      dup2\n      mstore\n      pop\n        /* \"lib/RLP.sol\":2596:2602  result */\n      dup5\n        /* \"lib/RLP.sol\":2603:2604  i */\n      dup3\n        /* \"lib/RLP.sol\":2596:2605  result[i] */\n      dup2\n      mload\n      dup2\n      lt\n      tag_182\n      jumpi\n      invalid\n    tag_182:\n      0x20\n      mul\n      0x20\n      add\n      add\n        /* \"lib/RLP.sol\":2596:2632  result[i] = RLPItem(dataLen, memPtr) */\n      dup2\n      swap1\n      mstore\n      pop\n        /* \"lib/RLP.sol\":2655:2662  dataLen */\n      dup2\n        /* \"lib/RLP.sol\":2646:2652  memPtr */\n      dup4\n        /* \"lib/RLP.sol\":2646:2662  memPtr + dataLen */\n      add\n        /* \"lib/RLP.sol\":2637:2662  memPtr = memPtr + dataLen */\n      swap3\n      pop\n        /* \"lib/RLP.sol\":2552:2555  i++ */\n      dup1\n      dup1\n      0x01\n      add\n      swap2\n      pop\n      pop\n        /* \"lib/RLP.sol\":2521:2667  for (uint256 i = 0; i < items; i++) {... */\n      jump(tag_177)\n    tag_178:\n      pop\n        /* \"lib/RLP.sol\":2678:2684  result */\n      dup3\n        /* \"lib/RLP.sol\":2671:2684  return result */\n      swap5\n      pop\n      pop\n      pop\n      pop\n      pop\n        /* \"lib/RLP.sol\":2240:2688  function toList(RLPItem memory item)... */\n      swap2\n      swap1\n      pop\n      jump\t// out\n        /* \"lib/RLP.sol\":3892:4339  function toUint(RLPItem memory item) internal pure returns (uint256) {... */\n    tag_87:\n        /* \"lib/RLP.sol\":3952:3959  uint256 */\n      0x00\n        /* \"lib/RLP.sol\":3984:3985  0 */\n      dup1\n        /* \"lib/RLP.sol\":3973:3977  item */\n      dup3\n        /* \"lib/RLP.sol\":3973:3981  item.len */\n      0x00\n      add\n      mload\n        /* \"lib/RLP.sol\":3973:3985  item.len > 0 */\n      gt\n        /* \"lib/RLP.sol\":3973:4003  item.len > 0 && item.len <= 33 */\n      dup1\n      iszero\n      tag_184\n      jumpi\n      pop\n        /* \"lib/RLP.sol\":4001:4003  33 */\n      0x21\n        /* \"lib/RLP.sol\":3989:3993  item */\n      dup3\n        /* \"lib/RLP.sol\":3989:3997  item.len */\n      0x00\n      add\n      mload\n        /* \"lib/RLP.sol\":3989:4003  item.len <= 33 */\n      gt\n      iszero\n        /* \"lib/RLP.sol\":3973:4003  item.len > 0 && item.len <= 33 */\n    tag_184:\n        /* \"lib/RLP.sol\":3965:4004  require(item.len > 0 && item.len <= 33) */\n      tag_185\n      jumpi\n        /* \"--CODEGEN--\":12:13   */\n      0x00\n        /* \"--CODEGEN--\":9:10   */\n      dup1\n        /* \"--CODEGEN--\":2:14   */\n      revert\n        /* \"lib/RLP.sol\":3965:4004  require(item.len > 0 && item.len <= 33) */\n    tag_185:\n        /* \"lib/RLP.sol\":4009:4023  uint256 offset */\n      0x00\n        /* \"lib/RLP.sol\":4026:4053  _payloadOffset(item.memPtr) */\n      tag_186\n        /* \"lib/RLP.sol\":4041:4045  item */\n      dup4\n        /* \"lib/RLP.sol\":4041:4052  item.memPtr */\n      0x20\n      add\n      mload\n        /* \"lib/RLP.sol\":4026:4040  _payloadOffset */\n      tag_176\n        /* \"lib/RLP.sol\":4026:4053  _payloadOffset(item.memPtr) */\n      jump\t// in\n    tag_186:\n        /* \"lib/RLP.sol\":4009:4053  uint256 offset = _payloadOffset(item.memPtr) */\n      swap1\n      pop\n        /* \"lib/RLP.sol\":4057:4068  uint256 len */\n      0x00\n        /* \"lib/RLP.sol\":4082:4088  offset */\n      dup2\n        /* \"lib/RLP.sol\":4071:4075  item */\n      dup5\n        /* \"lib/RLP.sol\":4071:4079  item.len */\n      0x00\n      add\n      mload\n        /* \"lib/RLP.sol\":4071:4088  item.len - offset */\n      sub\n        /* \"lib/RLP.sol\":4057:4088  uint256 len = item.len - offset */\n      swap1\n      pop\n        /* \"lib/RLP.sol\":4093:4107  uint256 result */\n      0x00\n        /* \"lib/RLP.sol\":4111:4125  uint256 memPtr */\n      dup1\n        /* \"lib/RLP.sol\":4142:4148  offset */\n      dup4\n        /* \"lib/RLP.sol\":4128:4132  item */\n      dup7\n        /* \"lib/RLP.sol\":4128:4139  item.memPtr */\n      0x20\n      add\n      mload\n        /* \"lib/RLP.sol\":4128:4148  item.memPtr + offset */\n      add\n        /* \"lib/RLP.sol\":4111:4148  uint256 memPtr = item.memPtr + offset */\n      swap1\n      pop\n        /* \"lib/RLP.sol\":4182:4188  memPtr */\n      dup1\n        /* \"lib/RLP.sol\":4176:4189  mload(memPtr) */\n      mload\n        /* \"lib/RLP.sol\":4166:4189  result := mload(memPtr) */\n      swap2\n      pop\n        /* \"lib/RLP.sol\":4254:4256  32 */\n      0x20\n        /* \"lib/RLP.sol\":4249:4252  len */\n      dup4\n        /* \"lib/RLP.sol\":4246:4257  lt(len, 32) */\n      lt\n        /* \"lib/RLP.sol\":4243:4245  if */\n      iszero\n      tag_187\n      jumpi\n        /* \"lib/RLP.sol\":4303:4306  len */\n      dup3\n        /* \"lib/RLP.sol\":4299:4301  32 */\n      0x20\n        /* \"lib/RLP.sol\":4295:4307  sub(32, len) */\n      sub\n        /* \"lib/RLP.sol\":4290:4293  256 */\n      0x0100\n        /* \"lib/RLP.sol\":4286:4308  exp(256, sub(32, len)) */\n      exp\n        /* \"lib/RLP.sol\":4278:4284  result */\n      dup3\n        /* \"lib/RLP.sol\":4274:4309  div(result, exp(256, sub(32, len))) */\n      div\n        /* \"lib/RLP.sol\":4264:4309  result := div(result, exp(256, sub(32, len))) */\n      swap2\n      pop\n        /* \"lib/RLP.sol\":4243:4245  if */\n    tag_187:\n        /* \"lib/RLP.sol\":4329:4335  result */\n      dup2\n        /* \"lib/RLP.sol\":4322:4335  return result */\n      swap5\n      pop\n      pop\n      pop\n      pop\n      pop\n        /* \"lib/RLP.sol\":3892:4339  function toUint(RLPItem memory item) internal pure returns (uint256) {... */\n      swap2\n      swap1\n      pop\n      jump\t// out\n        /* \"lib/RLP.sol\":5856:5964  function toBytes32(RLPItem memory item) internal pure returns (bytes32) {... */\n    tag_92:\n        /* \"lib/RLP.sol\":5919:5926  bytes32 */\n      0x00\n        /* \"lib/RLP.sol\":5947:5959  toUint(item) */\n      tag_189\n        /* \"lib/RLP.sol\":5954:5958  item */\n      dup3\n        /* \"lib/RLP.sol\":5947:5953  toUint */\n      tag_87\n        /* \"lib/RLP.sol\":5947:5959  toUint(item) */\n      jump\t// in\n    tag_189:\n        /* \"lib/RLP.sol\":5939:5960  bytes32(toUint(item)) */\n      0x00\n      shl\n        /* \"lib/RLP.sol\":5932:5960  return bytes32(toUint(item)) */\n      swap1\n      pop\n        /* \"lib/RLP.sol\":5856:5964  function toBytes32(RLPItem memory item) internal pure returns (bytes32) {... */\n      swap2\n      swap1\n      pop\n      jump\t// out\n        /* \"ETH/PlasmaManager.sol\":5057:5269  function getNextStartBlockNumber() private view returns (uint256) {... */\n    tag_96:\n        /* \"ETH/PlasmaManager.sol\":5114:5121  uint256 */\n      0x00\n        /* \"ETH/PlasmaManager.sol\":5149:5150  0 */\n      dup1\n        /* \"ETH/PlasmaManager.sol\":5131:5138  bunches */\n      0x05\n        /* \"ETH/PlasmaManager.sol\":5131:5145  bunches.length */\n      dup1\n      sload\n      swap1\n      pop\n        /* \"ETH/PlasmaManager.sol\":5131:5150  bunches.length == 0 */\n      eq\n        /* \"ETH/PlasmaManager.sol\":5127:5160  if (bunches.length == 0) return 0 */\n      iszero\n      tag_191\n      jumpi\n        /* \"ETH/PlasmaManager.sol\":5159:5160  0 */\n      0x00\n        /* \"ETH/PlasmaManager.sol\":5152:5160  return 0 */\n      swap1\n      pop\n      jump(tag_190)\n        /* \"ETH/PlasmaManager.sol\":5127:5160  if (bunches.length == 0) return 0 */\n    tag_191:\n        /* \"ETH/PlasmaManager.sol\":5227:5234  bunches */\n      0x05\n        /* \"ETH/PlasmaManager.sol\":5252:5253  1 */\n      0x01\n        /* \"ETH/PlasmaManager.sol\":5235:5242  bunches */\n      0x05\n        /* \"ETH/PlasmaManager.sol\":5235:5249  bunches.length */\n      dup1\n      sload\n      swap1\n      pop\n        /* \"ETH/PlasmaManager.sol\":5235:5253  bunches.length - 1 */\n      sub\n        /* \"ETH/PlasmaManager.sol\":5227:5254  bunches[bunches.length - 1] */\n      dup2\n      sload\n      dup2\n      lt\n      tag_192\n      jumpi\n      invalid\n    tag_192:\n      swap1\n      0x00\n      mstore\n      keccak256(0x00, 0x20)\n      swap1\n      0x04\n      mul\n      add\n        /* \"ETH/PlasmaManager.sol\":5227:5265  bunches[bunches.length - 1].bunchDepth */\n      0x01\n      add\n      sload\n        /* \"ETH/PlasmaManager.sol\":5224:5225  2 */\n      0x02\n        /* \"ETH/PlasmaManager.sol\":5224:5265  2**bunches[bunches.length - 1].bunchDepth */\n      exp\n        /* \"ETH/PlasmaManager.sol\":5174:5181  bunches */\n      0x05\n        /* \"ETH/PlasmaManager.sol\":5199:5200  1 */\n      0x01\n        /* \"ETH/PlasmaManager.sol\":5182:5189  bunches */\n      0x05\n        /* \"ETH/PlasmaManager.sol\":5182:5196  bunches.length */\n      dup1\n      sload\n      swap1\n      pop\n        /* \"ETH/PlasmaManager.sol\":5182:5200  bunches.length - 1 */\n      sub\n        /* \"ETH/PlasmaManager.sol\":5174:5201  bunches[bunches.length - 1] */\n      dup2\n      sload\n      dup2\n      lt\n      tag_194\n      jumpi\n      invalid\n    tag_194:\n      swap1\n      0x00\n      mstore\n      keccak256(0x00, 0x20)\n      swap1\n      0x04\n      mul\n      add\n        /* \"ETH/PlasmaManager.sol\":5174:5218  bunches[bunches.length - 1].startBlockNumber */\n      0x00\n      add\n      sload\n        /* \"ETH/PlasmaManager.sol\":5174:5265  bunches[bunches.length - 1].startBlockNumber +... */\n      add\n        /* \"ETH/PlasmaManager.sol\":5164:5265  return... */\n      swap1\n      pop\n        /* \"ETH/PlasmaManager.sol\":5057:5269  function getNextStartBlockNumber() private view returns (uint256) {... */\n    tag_190:\n      swap1\n      jump\t// out\n        /* \"lib/RLP.sol\":3142:3432  function toRLPBytes(RLPItem memory item)... */\n    tag_100:\n        /* \"lib/RLP.sol\":3212:3224  bytes memory */\n      0x60\n        /* \"lib/RLP.sol\":3231:3250  bytes memory result */\n      dup1\n        /* \"lib/RLP.sol\":3263:3267  item */\n      dup3\n        /* \"lib/RLP.sol\":3263:3271  item.len */\n      0x00\n      add\n      mload\n        /* \"lib/RLP.sol\":3253:3272  new bytes(item.len) */\n      0xffffffffffffffff\n      dup2\n      gt\n        /* \"--CODEGEN--\":5:14   */\n      dup1\n        /* \"--CODEGEN--\":2:4   */\n      iszero\n      tag_197\n      jumpi\n        /* \"--CODEGEN--\":27:28   */\n      0x00\n        /* \"--CODEGEN--\":24:25   */\n      dup1\n        /* \"--CODEGEN--\":17:29   */\n      revert\n        /* \"--CODEGEN--\":2:4   */\n    tag_197:\n        /* \"lib/RLP.sol\":3253:3272  new bytes(item.len) */\n      pop\n      mload(0x40)\n      swap1\n      dup1\n      dup3\n      mstore\n      dup1\n      0x1f\n      add\n      not(0x1f)\n      and\n      0x20\n      add\n      dup3\n      add\n      0x40\n      mstore\n      dup1\n      iszero\n      tag_198\n      jumpi\n      dup2\n      0x20\n      add\n        /* \"--CODEGEN--\":29:30   */\n      0x01\n        /* \"--CODEGEN--\":21:27   */\n      dup3\n        /* \"--CODEGEN--\":17:31   */\n      mul\n        /* \"--CODEGEN--\":124:128   */\n      dup1\n        /* \"--CODEGEN--\":108:122   */\n      calldatasize\n        /* \"--CODEGEN--\":100:106   */\n      dup4\n        /* \"--CODEGEN--\":87:129   */\n      calldatacopy\n        /* \"--CODEGEN--\":155:159   */\n      dup1\n        /* \"--CODEGEN--\":147:153   */\n      dup3\n        /* \"--CODEGEN--\":143:160   */\n      add\n        /* \"--CODEGEN--\":133:160   */\n      swap2\n      pop\n        /* \"--CODEGEN--\":0:164   */\n      pop\n        /* \"lib/RLP.sol\":3253:3272  new bytes(item.len) */\n      swap1\n      pop\n    tag_198:\n      pop\n        /* \"lib/RLP.sol\":3231:3272  bytes memory result = new bytes(item.len) */\n      swap1\n      pop\n        /* \"lib/RLP.sol\":3297:3298  0 */\n      0x00\n        /* \"lib/RLP.sol\":3280:3286  result */\n      dup2\n        /* \"lib/RLP.sol\":3280:3293  result.length */\n      mload\n        /* \"lib/RLP.sol\":3280:3298  result.length == 0 */\n      eq\n        /* \"lib/RLP.sol\":3276:3313  if (result.length == 0) return result */\n      iszero\n      tag_199\n      jumpi\n        /* \"lib/RLP.sol\":3307:3313  result */\n      dup1\n        /* \"lib/RLP.sol\":3300:3313  return result */\n      swap2\n      pop\n      pop\n      jump(tag_196)\n        /* \"lib/RLP.sol\":3276:3313  if (result.length == 0) return result */\n    tag_199:\n        /* \"lib/RLP.sol\":3318:3329  uint256 ptr */\n      0x00\n        /* \"lib/RLP.sol\":3364:3370  result */\n      dup2\n        /* \"lib/RLP.sol\":3358:3362  0x20 */\n      0x20\n        /* \"lib/RLP.sol\":3354:3371  add(0x20, result) */\n      add\n        /* \"lib/RLP.sol\":3347:3371  ptr := add(0x20, result) */\n      swap1\n      pop\n        /* \"lib/RLP.sol\":3379:3411  copy(item.memPtr, ptr, item.len) */\n      tag_200\n        /* \"lib/RLP.sol\":3384:3388  item */\n      dup5\n        /* \"lib/RLP.sol\":3384:3395  item.memPtr */\n      0x20\n      add\n      mload\n        /* \"lib/RLP.sol\":3397:3400  ptr */\n      dup3\n        /* \"lib/RLP.sol\":3402:3406  item */\n      dup7\n        /* \"lib/RLP.sol\":3402:3410  item.len */\n      0x00\n      add\n      mload\n        /* \"lib/RLP.sol\":3379:3383  copy */\n      tag_201\n        /* \"lib/RLP.sol\":3379:3411  copy(item.memPtr, ptr, item.len) */\n      jump\t// in\n    tag_200:\n        /* \"lib/RLP.sol\":3422:3428  result */\n      dup2\n        /* \"lib/RLP.sol\":3415:3428  return result */\n      swap3\n      pop\n      pop\n      pop\n        /* \"lib/RLP.sol\":3142:3432  function toRLPBytes(RLPItem memory item)... */\n    tag_196:\n      swap2\n      swap1\n      pop\n      jump\t// out\n        /* \"lib/RLP.sol\":5064:5438  function toBytes(RLPItem memory item) internal pure returns (bytes memory) {... */\n    tag_112:\n        /* \"lib/RLP.sol\":5125:5137  bytes memory */\n      0x60\n        /* \"lib/RLP.sol\":5162:5163  0 */\n      0x00\n        /* \"lib/RLP.sol\":5151:5155  item */\n      dup3\n        /* \"lib/RLP.sol\":5151:5159  item.len */\n      0x00\n      add\n      mload\n        /* \"lib/RLP.sol\":5151:5163  item.len > 0 */\n      gt\n        /* \"lib/RLP.sol\":5143:5164  require(item.len > 0) */\n      tag_203\n      jumpi\n        /* \"--CODEGEN--\":12:13   */\n      0x00\n        /* \"--CODEGEN--\":9:10   */\n      dup1\n        /* \"--CODEGEN--\":2:14   */\n      revert\n        /* \"lib/RLP.sol\":5143:5164  require(item.len > 0) */\n    tag_203:\n        /* \"lib/RLP.sol\":5169:5183  uint256 offset */\n      0x00\n        /* \"lib/RLP.sol\":5186:5213  _payloadOffset(item.memPtr) */\n      tag_204\n        /* \"lib/RLP.sol\":5201:5205  item */\n      dup4\n        /* \"lib/RLP.sol\":5201:5212  item.memPtr */\n      0x20\n      add\n      mload\n        /* \"lib/RLP.sol\":5186:5200  _payloadOffset */\n      tag_176\n        /* \"lib/RLP.sol\":5186:5213  _payloadOffset(item.memPtr) */\n      jump\t// in\n    tag_204:\n        /* \"lib/RLP.sol\":5169:5213  uint256 offset = _payloadOffset(item.memPtr) */\n      swap1\n      pop\n        /* \"lib/RLP.sol\":5217:5228  uint256 len */\n      0x00\n        /* \"lib/RLP.sol\":5242:5248  offset */\n      dup2\n        /* \"lib/RLP.sol\":5231:5235  item */\n      dup5\n        /* \"lib/RLP.sol\":5231:5239  item.len */\n      0x00\n      add\n      mload\n        /* \"lib/RLP.sol\":5231:5248  item.len - offset */\n      sub\n        /* \"lib/RLP.sol\":5217:5248  uint256 len = item.len - offset */\n      swap1\n      pop\n        /* \"lib/RLP.sol\":5267:5286  bytes memory result */\n      0x60\n        /* \"lib/RLP.sol\":5299:5302  len */\n      dup2\n        /* \"lib/RLP.sol\":5289:5303  new bytes(len) */\n      0xffffffffffffffff\n      dup2\n      gt\n        /* \"--CODEGEN--\":5:14   */\n      dup1\n        /* \"--CODEGEN--\":2:4   */\n      iszero\n      tag_205\n      jumpi\n        /* \"--CODEGEN--\":27:28   */\n      0x00\n        /* \"--CODEGEN--\":24:25   */\n      dup1\n        /* \"--CODEGEN--\":17:29   */\n      revert\n        /* \"--CODEGEN--\":2:4   */\n    tag_205:\n        /* \"lib/RLP.sol\":5289:5303  new bytes(len) */\n      pop\n      mload(0x40)\n      swap1\n      dup1\n      dup3\n      mstore\n      dup1\n      0x1f\n      add\n      not(0x1f)\n      and\n      0x20\n      add\n      dup3\n      add\n      0x40\n      mstore\n      dup1\n      iszero\n      tag_206\n      jumpi\n      dup2\n      0x20\n      add\n        /* \"--CODEGEN--\":29:30   */\n      0x01\n        /* \"--CODEGEN--\":21:27   */\n      dup3\n        /* \"--CODEGEN--\":17:31   */\n      mul\n        /* \"--CODEGEN--\":124:128   */\n      dup1\n        /* \"--CODEGEN--\":108:122   */\n      calldatasize\n        /* \"--CODEGEN--\":100:106   */\n      dup4\n        /* \"--CODEGEN--\":87:129   */\n      calldatacopy\n        /* \"--CODEGEN--\":155:159   */\n      dup1\n        /* \"--CODEGEN--\":147:153   */\n      dup3\n        /* \"--CODEGEN--\":143:160   */\n      add\n        /* \"--CODEGEN--\":133:160   */\n      swap2\n      pop\n        /* \"--CODEGEN--\":0:164   */\n      pop\n        /* \"lib/RLP.sol\":5289:5303  new bytes(len) */\n      swap1\n      pop\n    tag_206:\n      pop\n        /* \"lib/RLP.sol\":5267:5303  bytes memory result = new bytes(len) */\n      swap1\n      pop\n        /* \"lib/RLP.sol\":5308:5323  uint256 destPtr */\n      0x00\n        /* \"lib/RLP.sol\":5362:5368  result */\n      dup2\n        /* \"lib/RLP.sol\":5356:5360  0x20 */\n      0x20\n        /* \"lib/RLP.sol\":5352:5369  add(0x20, result) */\n      add\n        /* \"lib/RLP.sol\":5341:5369  destPtr := add(0x20, result) */\n      swap1\n      pop\n        /* \"lib/RLP.sol\":5377:5417  copy(item.memPtr + offset, destPtr, len) */\n      tag_207\n        /* \"lib/RLP.sol\":5396:5402  offset */\n      dup5\n        /* \"lib/RLP.sol\":5382:5386  item */\n      dup8\n        /* \"lib/RLP.sol\":5382:5393  item.memPtr */\n      0x20\n      add\n      mload\n        /* \"lib/RLP.sol\":5382:5402  item.memPtr + offset */\n      add\n        /* \"lib/RLP.sol\":5404:5411  destPtr */\n      dup3\n        /* \"lib/RLP.sol\":5413:5416  len */\n      dup6\n        /* \"lib/RLP.sol\":5377:5381  copy */\n      tag_201\n        /* \"lib/RLP.sol\":5377:5417  copy(item.memPtr + offset, destPtr, len) */\n      jump\t// in\n    tag_207:\n        /* \"lib/RLP.sol\":5428:5434  result */\n      dup2\n        /* \"lib/RLP.sol\":5421:5434  return result */\n      swap5\n      pop\n      pop\n      pop\n      pop\n      pop\n        /* \"lib/RLP.sol\":5064:5438  function toBytes(RLPItem memory item) internal pure returns (bytes memory) {... */\n      swap2\n      swap1\n      pop\n      jump\t// out\n        /* \"lib/ECVerify.sol\":1144:2330  function ecrecovery(bytes32 hash, bytes memory sig)... */\n    tag_114:\n        /* \"lib/ECVerify.sol\":1218:1222  bool */\n      0x00\n        /* \"lib/ECVerify.sol\":1224:1231  address */\n      dup1\n        /* \"lib/ECVerify.sol\":1238:1247  bytes32 r */\n      0x00\n        /* \"lib/ECVerify.sol\":1251:1260  bytes32 s */\n      dup1\n        /* \"lib/ECVerify.sol\":1264:1271  uint8 v */\n      0x00\n        /* \"lib/ECVerify.sol\":1294:1296  65 */\n      0x41\n        /* \"lib/ECVerify.sol\":1280:1283  sig */\n      dup7\n        /* \"lib/ECVerify.sol\":1280:1290  sig.length */\n      mload\n        /* \"lib/ECVerify.sol\":1280:1296  sig.length != 65 */\n      eq\n        /* \"lib/ECVerify.sol\":1276:1324  if (sig.length != 65) return (false, address(0)) */\n      tag_209\n      jumpi\n        /* \"lib/ECVerify.sol\":1306:1311  false */\n      0x00\n        /* \"lib/ECVerify.sol\":1321:1322  0 */\n      dup1\n        /* \"lib/ECVerify.sol\":1298:1324  return (false, address(0)) */\n      dup1\n      swap1\n      pop\n      swap5\n      pop\n      swap5\n      pop\n      pop\n      pop\n      pop\n      jump(tag_208)\n        /* \"lib/ECVerify.sol\":1276:1324  if (sig.length != 65) return (false, address(0)) */\n    tag_209:\n        /* \"lib/ECVerify.sol\":1503:1505  32 */\n      0x20\n        /* \"lib/ECVerify.sol\":1498:1501  sig */\n      dup7\n        /* \"lib/ECVerify.sol\":1494:1506  add(sig, 32) */\n      add\n        /* \"lib/ECVerify.sol\":1488:1507  mload(add(sig, 32)) */\n      mload\n        /* \"lib/ECVerify.sol\":1483:1507  r := mload(add(sig, 32)) */\n      swap3\n      pop\n        /* \"lib/ECVerify.sol\":1531:1533  64 */\n      0x40\n        /* \"lib/ECVerify.sol\":1526:1529  sig */\n      dup7\n        /* \"lib/ECVerify.sol\":1522:1534  add(sig, 64) */\n      add\n        /* \"lib/ECVerify.sol\":1516:1535  mload(add(sig, 64)) */\n      mload\n        /* \"lib/ECVerify.sol\":1511:1535  s := mload(add(sig, 64)) */\n      swap2\n      pop\n        /* \"lib/ECVerify.sol\":1753:1755  96 */\n      0x60\n        /* \"lib/ECVerify.sol\":1748:1751  sig */\n      dup7\n        /* \"lib/ECVerify.sol\":1744:1756  add(sig, 96) */\n      add\n        /* \"lib/ECVerify.sol\":1738:1757  mload(add(sig, 96)) */\n      mload\n        /* \"lib/ECVerify.sol\":1735:1736  0 */\n      0x00\n        /* \"lib/ECVerify.sol\":1730:1758  byte(0, mload(add(sig, 96))) */\n      byte\n        /* \"lib/ECVerify.sol\":1725:1758  v := byte(0, mload(add(sig, 96))) */\n      swap1\n      pop\n        /* \"lib/ECVerify.sol\":2218:2220  27 */\n      0x1b\n        /* \"lib/ECVerify.sol\":2214:2215  v */\n      dup2\n        /* \"lib/ECVerify.sol\":2214:2220  v < 27 */\n      0xff\n      and\n      lt\n        /* \"lib/ECVerify.sol\":2210:2229  if (v < 27) v += 27 */\n      iszero\n      tag_210\n      jumpi\n        /* \"lib/ECVerify.sol\":2227:2229  27 */\n      0x1b\n        /* \"lib/ECVerify.sol\":2222:2229  v += 27 */\n      dup2\n      add\n      swap1\n      pop\n        /* \"lib/ECVerify.sol\":2210:2229  if (v < 27) v += 27 */\n    tag_210:\n        /* \"lib/ECVerify.sol\":2243:2245  27 */\n      0x1b\n        /* \"lib/ECVerify.sol\":2238:2239  v */\n      dup2\n        /* \"lib/ECVerify.sol\":2238:2245  v != 27 */\n      0xff\n      and\n      eq\n      iszero\n        /* \"lib/ECVerify.sol\":2238:2256  v != 27 && v != 28 */\n      dup1\n      iszero\n      tag_211\n      jumpi\n      pop\n        /* \"lib/ECVerify.sol\":2254:2256  28 */\n      0x1c\n        /* \"lib/ECVerify.sol\":2249:2250  v */\n      dup2\n        /* \"lib/ECVerify.sol\":2249:2256  v != 28 */\n      0xff\n      and\n      eq\n      iszero\n        /* \"lib/ECVerify.sol\":2238:2256  v != 27 && v != 28 */\n    tag_211:\n        /* \"lib/ECVerify.sol\":2234:2284  if (v != 27 && v != 28) return (false, address(0)) */\n      iszero\n      tag_212\n      jumpi\n        /* \"lib/ECVerify.sol\":2266:2271  false */\n      0x00\n        /* \"lib/ECVerify.sol\":2281:2282  0 */\n      dup1\n        /* \"lib/ECVerify.sol\":2258:2284  return (false, address(0)) */\n      dup1\n      swap1\n      pop\n      swap5\n      pop\n      swap5\n      pop\n      pop\n      pop\n      pop\n      jump(tag_208)\n        /* \"lib/ECVerify.sol\":2234:2284  if (v != 27 && v != 28) return (false, address(0)) */\n    tag_212:\n        /* \"lib/ECVerify.sol\":2296:2326  safer_ecrecover(hash, v, r, s) */\n      tag_213\n        /* \"lib/ECVerify.sol\":2312:2316  hash */\n      dup8\n        /* \"lib/ECVerify.sol\":2318:2319  v */\n      dup3\n        /* \"lib/ECVerify.sol\":2321:2322  r */\n      dup6\n        /* \"lib/ECVerify.sol\":2324:2325  s */\n      dup6\n        /* \"lib/ECVerify.sol\":2296:2311  safer_ecrecover */\n      tag_214\n        /* \"lib/ECVerify.sol\":2296:2326  safer_ecrecover(hash, v, r, s) */\n      jump\t// in\n    tag_213:\n        /* \"lib/ECVerify.sol\":2289:2326  return safer_ecrecover(hash, v, r, s) */\n      swap5\n      pop\n      swap5\n      pop\n      pop\n      pop\n      pop\n        /* \"lib/ECVerify.sol\":1144:2330  function ecrecovery(bytes32 hash, bytes memory sig)... */\n    tag_208:\n      swap3\n      pop\n      swap3\n      swap1\n      pop\n      jump\t// out\n        /* \"lib/MerklePatriciaProof.sol\":564:2392  function verify(... */\n    tag_140:\n        /* \"lib/MerklePatriciaProof.sol\":703:707  bool */\n      0x00\n        /* \"lib/MerklePatriciaProof.sol\":713:736  RLP.RLPItem memory item */\n      tag_216\n      tag_163\n      jump\t// in\n    tag_216:\n        /* \"lib/MerklePatriciaProof.sol\":739:768  RLP.toRLPItem(rlpParentNodes) */\n      tag_217\n        /* \"lib/MerklePatriciaProof.sol\":753:767  rlpParentNodes */\n      dup5\n        /* \"lib/MerklePatriciaProof.sol\":739:752  RLP.toRLPItem */\n      tag_78\n        /* \"lib/MerklePatriciaProof.sol\":739:768  RLP.toRLPItem(rlpParentNodes) */\n      jump\t// in\n    tag_217:\n        /* \"lib/MerklePatriciaProof.sol\":713:768  RLP.RLPItem memory item = RLP.toRLPItem(rlpParentNodes) */\n      swap1\n      pop\n        /* \"lib/MerklePatriciaProof.sol\":772:804  RLP.RLPItem[] memory parentNodes */\n      0x60\n        /* \"lib/MerklePatriciaProof.sol\":807:823  RLP.toList(item) */\n      tag_218\n        /* \"lib/MerklePatriciaProof.sol\":818:822  item */\n      dup3\n        /* \"lib/MerklePatriciaProof.sol\":807:817  RLP.toList */\n      tag_79\n        /* \"lib/MerklePatriciaProof.sol\":807:823  RLP.toList(item) */\n      jump\t// in\n    tag_218:\n        /* \"lib/MerklePatriciaProof.sol\":772:823  RLP.RLPItem[] memory parentNodes = RLP.toList(item) */\n      swap1\n      pop\n        /* \"lib/MerklePatriciaProof.sol\":828:852  bytes memory currentNode */\n      0x60\n        /* \"lib/MerklePatriciaProof.sol\":856:892  RLP.RLPItem[] memory currentNodeList */\n      dup1\n        /* \"lib/MerklePatriciaProof.sol\":897:912  bytes32 nodeKey */\n      0x00\n        /* \"lib/MerklePatriciaProof.sol\":915:919  root */\n      dup7\n        /* \"lib/MerklePatriciaProof.sol\":897:919  bytes32 nodeKey = root */\n      swap1\n      pop\n        /* \"lib/MerklePatriciaProof.sol\":923:938  uint256 pathPtr */\n      0x00\n        /* \"lib/MerklePatriciaProof.sol\":941:942  0 */\n      dup1\n        /* \"lib/MerklePatriciaProof.sol\":923:942  uint256 pathPtr = 0 */\n      swap1\n      pop\n        /* \"lib/MerklePatriciaProof.sol\":947:964  bytes memory path */\n      0x60\n        /* \"lib/MerklePatriciaProof.sol\":967:995  _getNibbleArray(encodedPath) */\n      tag_219\n        /* \"lib/MerklePatriciaProof.sol\":983:994  encodedPath */\n      dup12\n        /* \"lib/MerklePatriciaProof.sol\":967:982  _getNibbleArray */\n      tag_220\n        /* \"lib/MerklePatriciaProof.sol\":967:995  _getNibbleArray(encodedPath) */\n      jump\t// in\n    tag_219:\n        /* \"lib/MerklePatriciaProof.sol\":947:995  bytes memory path = _getNibbleArray(encodedPath) */\n      swap1\n      pop\n        /* \"lib/MerklePatriciaProof.sol\":1018:1019  0 */\n      0x00\n        /* \"lib/MerklePatriciaProof.sol\":1003:1007  path */\n      dup2\n        /* \"lib/MerklePatriciaProof.sol\":1003:1014  path.length */\n      mload\n        /* \"lib/MerklePatriciaProof.sol\":1003:1019  path.length == 0 */\n      eq\n        /* \"lib/MerklePatriciaProof.sol\":999:1043  if (path.length == 0) {... */\n      iszero\n      tag_221\n      jumpi\n        /* \"lib/MerklePatriciaProof.sol\":1033:1038  false */\n      0x00\n        /* \"lib/MerklePatriciaProof.sol\":1026:1038  return false */\n      swap8\n      pop\n      pop\n      pop\n      pop\n      pop\n      pop\n      pop\n      pop\n      jump(tag_215)\n        /* \"lib/MerklePatriciaProof.sol\":999:1043  if (path.length == 0) {... */\n    tag_221:\n        /* \"lib/MerklePatriciaProof.sol\":1052:1061  uint256 i */\n      0x00\n        /* \"lib/MerklePatriciaProof.sol\":1064:1065  0 */\n      dup1\n        /* \"lib/MerklePatriciaProof.sol\":1052:1065  uint256 i = 0 */\n      swap1\n      pop\n        /* \"lib/MerklePatriciaProof.sol\":1047:2389  for (uint256 i = 0; i < parentNodes.length; i++) {... */\n    tag_222:\n        /* \"lib/MerklePatriciaProof.sol\":1071:1082  parentNodes */\n      dup7\n        /* \"lib/MerklePatriciaProof.sol\":1071:1089  parentNodes.length */\n      mload\n        /* \"lib/MerklePatriciaProof.sol\":1067:1068  i */\n      dup2\n        /* \"lib/MerklePatriciaProof.sol\":1067:1089  i < parentNodes.length */\n      lt\n        /* \"lib/MerklePatriciaProof.sol\":1047:2389  for (uint256 i = 0; i < parentNodes.length; i++) {... */\n      iszero\n      tag_223\n      jumpi\n        /* \"lib/MerklePatriciaProof.sol\":1115:1119  path */\n      dup2\n        /* \"lib/MerklePatriciaProof.sol\":1115:1126  path.length */\n      mload\n        /* \"lib/MerklePatriciaProof.sol\":1105:1112  pathPtr */\n      dup4\n        /* \"lib/MerklePatriciaProof.sol\":1105:1126  pathPtr > path.length */\n      gt\n        /* \"lib/MerklePatriciaProof.sol\":1101:1152  if (pathPtr > path.length) {... */\n      iszero\n      tag_225\n      jumpi\n        /* \"lib/MerklePatriciaProof.sol\":1141:1146  false */\n      0x00\n        /* \"lib/MerklePatriciaProof.sol\":1134:1146  return false */\n      swap9\n      pop\n      pop\n      pop\n      pop\n      pop\n      pop\n      pop\n      pop\n      pop\n      jump(tag_215)\n        /* \"lib/MerklePatriciaProof.sol\":1101:1152  if (pathPtr > path.length) {... */\n    tag_225:\n        /* \"lib/MerklePatriciaProof.sol\":1171:1201  RLP.toRLPBytes(parentNodes[i]) */\n      tag_226\n        /* \"lib/MerklePatriciaProof.sol\":1186:1197  parentNodes */\n      dup8\n        /* \"lib/MerklePatriciaProof.sol\":1198:1199  i */\n      dup3\n        /* \"lib/MerklePatriciaProof.sol\":1186:1200  parentNodes[i] */\n      dup2\n      mload\n      dup2\n      lt\n      tag_227\n      jumpi\n      invalid\n    tag_227:\n      0x20\n      mul\n      0x20\n      add\n      add\n      mload\n        /* \"lib/MerklePatriciaProof.sol\":1171:1185  RLP.toRLPBytes */\n      tag_100\n        /* \"lib/MerklePatriciaProof.sol\":1171:1201  RLP.toRLPBytes(parentNodes[i]) */\n      jump\t// in\n    tag_226:\n        /* \"lib/MerklePatriciaProof.sol\":1157:1201  currentNode = RLP.toRLPBytes(parentNodes[i]) */\n      swap6\n      pop\n        /* \"lib/MerklePatriciaProof.sol\":1231:1242  currentNode */\n      dup6\n        /* \"lib/MerklePatriciaProof.sol\":1221:1243  keccak256(currentNode) */\n      dup1\n      mload\n      swap1\n      0x20\n      add\n      keccak256\n        /* \"lib/MerklePatriciaProof.sol\":1210:1217  nodeKey */\n      dup5\n        /* \"lib/MerklePatriciaProof.sol\":1210:1243  nodeKey != keccak256(currentNode) */\n      eq\n        /* \"lib/MerklePatriciaProof.sol\":1206:1269  if (nodeKey != keccak256(currentNode)) {... */\n      tag_228\n      jumpi\n        /* \"lib/MerklePatriciaProof.sol\":1258:1263  false */\n      0x00\n        /* \"lib/MerklePatriciaProof.sol\":1251:1263  return false */\n      swap9\n      pop\n      pop\n      pop\n      pop\n      pop\n      pop\n      pop\n      pop\n      pop\n      jump(tag_215)\n        /* \"lib/MerklePatriciaProof.sol\":1206:1269  if (nodeKey != keccak256(currentNode)) {... */\n    tag_228:\n        /* \"lib/MerklePatriciaProof.sol\":1291:1317  RLP.toList(parentNodes[i]) */\n      tag_229\n        /* \"lib/MerklePatriciaProof.sol\":1302:1313  parentNodes */\n      dup8\n        /* \"lib/MerklePatriciaProof.sol\":1314:1315  i */\n      dup3\n        /* \"lib/MerklePatriciaProof.sol\":1302:1316  parentNodes[i] */\n      dup2\n      mload\n      dup2\n      lt\n      tag_230\n      jumpi\n      invalid\n    tag_230:\n      0x20\n      mul\n      0x20\n      add\n      add\n      mload\n        /* \"lib/MerklePatriciaProof.sol\":1291:1301  RLP.toList */\n      tag_79\n        /* \"lib/MerklePatriciaProof.sol\":1291:1317  RLP.toList(parentNodes[i]) */\n      jump\t// in\n    tag_229:\n        /* \"lib/MerklePatriciaProof.sol\":1273:1317  currentNodeList = RLP.toList(parentNodes[i]) */\n      swap5\n      pop\n        /* \"lib/MerklePatriciaProof.sol\":1353:1355  17 */\n      0x11\n        /* \"lib/MerklePatriciaProof.sol\":1327:1342  currentNodeList */\n      dup6\n        /* \"lib/MerklePatriciaProof.sol\":1327:1349  currentNodeList.length */\n      mload\n        /* \"lib/MerklePatriciaProof.sol\":1327:1355  currentNodeList.length == 17 */\n      eq\n        /* \"lib/MerklePatriciaProof.sol\":1323:2385  if (currentNodeList.length == 17) {... */\n      iszero\n      tag_231\n      jumpi\n        /* \"lib/MerklePatriciaProof.sol\":1378:1382  path */\n      dup2\n        /* \"lib/MerklePatriciaProof.sol\":1378:1389  path.length */\n      mload\n        /* \"lib/MerklePatriciaProof.sol\":1367:1374  pathPtr */\n      dup4\n        /* \"lib/MerklePatriciaProof.sol\":1367:1389  pathPtr == path.length */\n      eq\n        /* \"lib/MerklePatriciaProof.sol\":1363:1553  if (pathPtr == path.length) {... */\n      iszero\n      tag_232\n      jumpi\n        /* \"lib/MerklePatriciaProof.sol\":1472:1477  value */\n      dup13\n        /* \"lib/MerklePatriciaProof.sol\":1462:1478  keccak256(value) */\n      dup1\n      mload\n      swap1\n      0x20\n      add\n      keccak256\n        /* \"lib/MerklePatriciaProof.sol\":1419:1451  RLP.toBytes(currentNodeList[16]) */\n      tag_233\n        /* \"lib/MerklePatriciaProof.sol\":1431:1446  currentNodeList */\n      dup7\n        /* \"lib/MerklePatriciaProof.sol\":1447:1449  16 */\n      0x10\n        /* \"lib/MerklePatriciaProof.sol\":1431:1450  currentNodeList[16] */\n      dup2\n      mload\n      dup2\n      lt\n      tag_234\n      jumpi\n      invalid\n    tag_234:\n      0x20\n      mul\n      0x20\n      add\n      add\n      mload\n        /* \"lib/MerklePatriciaProof.sol\":1419:1430  RLP.toBytes */\n      tag_112\n        /* \"lib/MerklePatriciaProof.sol\":1419:1451  RLP.toBytes(currentNodeList[16]) */\n      jump\t// in\n    tag_233:\n        /* \"lib/MerklePatriciaProof.sol\":1409:1452  keccak256(RLP.toBytes(currentNodeList[16])) */\n      dup1\n      mload\n      swap1\n      0x20\n      add\n      keccak256\n        /* \"lib/MerklePatriciaProof.sol\":1409:1478  keccak256(RLP.toBytes(currentNodeList[16])) ==... */\n      eq\n        /* \"lib/MerklePatriciaProof.sol\":1398:1547  if (... */\n      iszero\n      tag_235\n      jumpi\n        /* \"lib/MerklePatriciaProof.sol\":1501:1505  true */\n      0x01\n        /* \"lib/MerklePatriciaProof.sol\":1494:1505  return true */\n      swap9\n      pop\n      pop\n      pop\n      pop\n      pop\n      pop\n      pop\n      pop\n      pop\n      jump(tag_215)\n        /* \"lib/MerklePatriciaProof.sol\":1398:1547  if (... */\n    tag_235:\n        /* \"lib/MerklePatriciaProof.sol\":1534:1539  false */\n      0x00\n        /* \"lib/MerklePatriciaProof.sol\":1527:1539  return false */\n      swap9\n      pop\n      pop\n      pop\n      pop\n      pop\n      pop\n      pop\n      pop\n      pop\n      jump(tag_215)\n        /* \"lib/MerklePatriciaProof.sol\":1363:1553  if (pathPtr == path.length) {... */\n    tag_232:\n        /* \"lib/MerklePatriciaProof.sol\":1559:1579  uint8 nextPathNibble */\n      0x00\n        /* \"lib/MerklePatriciaProof.sol\":1588:1592  path */\n      dup3\n        /* \"lib/MerklePatriciaProof.sol\":1593:1600  pathPtr */\n      dup5\n        /* \"lib/MerklePatriciaProof.sol\":1588:1601  path[pathPtr] */\n      dup2\n      mload\n      dup2\n      lt\n      tag_237\n      jumpi\n      invalid\n    tag_237:\n      0x20\n      add\n      add\n      mload\n      0xf8\n      shr\n      0xf8\n      shl\n        /* \"lib/MerklePatriciaProof.sol\":1582:1602  uint8(path[pathPtr]) */\n      0xf8\n      shr\n        /* \"lib/MerklePatriciaProof.sol\":1559:1602  uint8 nextPathNibble = uint8(path[pathPtr]) */\n      swap1\n      pop\n        /* \"lib/MerklePatriciaProof.sol\":1629:1631  16 */\n      0x10\n        /* \"lib/MerklePatriciaProof.sol\":1612:1626  nextPathNibble */\n      dup2\n        /* \"lib/MerklePatriciaProof.sol\":1612:1631  nextPathNibble > 16 */\n      0xff\n      and\n      gt\n        /* \"lib/MerklePatriciaProof.sol\":1608:1659  if (nextPathNibble > 16) {... */\n      iszero\n      tag_238\n      jumpi\n        /* \"lib/MerklePatriciaProof.sol\":1647:1652  false */\n      0x00\n        /* \"lib/MerklePatriciaProof.sol\":1640:1652  return false */\n      swap10\n      pop\n      pop\n      pop\n      pop\n      pop\n      pop\n      pop\n      pop\n      pop\n      pop\n      jump(tag_215)\n        /* \"lib/MerklePatriciaProof.sol\":1608:1659  if (nextPathNibble > 16) {... */\n    tag_238:\n        /* \"lib/MerklePatriciaProof.sol\":1688:1737  RLP.toUintStrict(currentNodeList[nextPathNibble]) */\n      tag_239\n        /* \"lib/MerklePatriciaProof.sol\":1705:1720  currentNodeList */\n      dup7\n        /* \"lib/MerklePatriciaProof.sol\":1721:1735  nextPathNibble */\n      dup3\n        /* \"lib/MerklePatriciaProof.sol\":1705:1736  currentNodeList[nextPathNibble] */\n      0xff\n      and\n      dup2\n      mload\n      dup2\n      lt\n      tag_240\n      jumpi\n      invalid\n    tag_240:\n      0x20\n      mul\n      0x20\n      add\n      add\n      mload\n        /* \"lib/MerklePatriciaProof.sol\":1688:1704  RLP.toUintStrict */\n      tag_241\n        /* \"lib/MerklePatriciaProof.sol\":1688:1737  RLP.toUintStrict(currentNodeList[nextPathNibble]) */\n      jump\t// in\n    tag_239:\n        /* \"lib/MerklePatriciaProof.sol\":1674:1743  bytes32(... */\n      0x00\n      shl\n        /* \"lib/MerklePatriciaProof.sol\":1664:1743  nodeKey = bytes32(... */\n      swap5\n      pop\n        /* \"lib/MerklePatriciaProof.sol\":1760:1761  1 */\n      0x01\n        /* \"lib/MerklePatriciaProof.sol\":1749:1761  pathPtr += 1 */\n      dup5\n      add\n      swap4\n      pop\n        /* \"lib/MerklePatriciaProof.sol\":1323:2385  if (currentNodeList.length == 17) {... */\n      pop\n      jump(tag_242)\n    tag_231:\n        /* \"lib/MerklePatriciaProof.sol\":1803:1804  2 */\n      0x02\n        /* \"lib/MerklePatriciaProof.sol\":1777:1792  currentNodeList */\n      dup6\n        /* \"lib/MerklePatriciaProof.sol\":1777:1799  currentNodeList.length */\n      mload\n        /* \"lib/MerklePatriciaProof.sol\":1777:1804  currentNodeList.length == 2 */\n      eq\n        /* \"lib/MerklePatriciaProof.sol\":1773:2385  if (currentNodeList.length == 2) {... */\n      iszero\n      tag_243\n      jumpi\n        /* \"lib/MerklePatriciaProof.sol\":1823:1910  _nibblesToTraverse(... */\n      tag_244\n        /* \"lib/MerklePatriciaProof.sol\":1848:1879  RLP.toBytes(currentNodeList[0]) */\n      tag_245\n        /* \"lib/MerklePatriciaProof.sol\":1860:1875  currentNodeList */\n      dup7\n        /* \"lib/MerklePatriciaProof.sol\":1876:1877  0 */\n      0x00\n        /* \"lib/MerklePatriciaProof.sol\":1860:1878  currentNodeList[0] */\n      dup2\n      mload\n      dup2\n      lt\n      tag_246\n      jumpi\n      invalid\n    tag_246:\n      0x20\n      mul\n      0x20\n      add\n      add\n      mload\n        /* \"lib/MerklePatriciaProof.sol\":1848:1859  RLP.toBytes */\n      tag_112\n        /* \"lib/MerklePatriciaProof.sol\":1848:1879  RLP.toBytes(currentNodeList[0]) */\n      jump\t// in\n    tag_245:\n        /* \"lib/MerklePatriciaProof.sol\":1886:1890  path */\n      dup4\n        /* \"lib/MerklePatriciaProof.sol\":1897:1904  pathPtr */\n      dup6\n        /* \"lib/MerklePatriciaProof.sol\":1823:1841  _nibblesToTraverse */\n      tag_247\n        /* \"lib/MerklePatriciaProof.sol\":1823:1910  _nibblesToTraverse(... */\n      jump\t// in\n    tag_244:\n        /* \"lib/MerklePatriciaProof.sol\":1812:1910  pathPtr += _nibblesToTraverse(... */\n      dup4\n      add\n      swap3\n      pop\n        /* \"lib/MerklePatriciaProof.sol\":1931:1935  path */\n      dup2\n        /* \"lib/MerklePatriciaProof.sol\":1931:1942  path.length */\n      mload\n        /* \"lib/MerklePatriciaProof.sol\":1920:1927  pathPtr */\n      dup4\n        /* \"lib/MerklePatriciaProof.sol\":1920:1942  pathPtr == path.length */\n      eq\n        /* \"lib/MerklePatriciaProof.sol\":1916:2122  if (pathPtr == path.length) {... */\n      iszero\n      tag_248\n      jumpi\n        /* \"lib/MerklePatriciaProof.sol\":2041:2046  value */\n      dup13\n        /* \"lib/MerklePatriciaProof.sol\":2031:2047  keccak256(value) */\n      dup1\n      mload\n      swap1\n      0x20\n      add\n      keccak256\n        /* \"lib/MerklePatriciaProof.sol\":1989:2020  RLP.toBytes(currentNodeList[1]) */\n      tag_249\n        /* \"lib/MerklePatriciaProof.sol\":2001:2016  currentNodeList */\n      dup7\n        /* \"lib/MerklePatriciaProof.sol\":2017:2018  1 */\n      0x01\n        /* \"lib/MerklePatriciaProof.sol\":2001:2019  currentNodeList[1] */\n      dup2\n      mload\n      dup2\n      lt\n      tag_250\n      jumpi\n      invalid\n    tag_250:\n      0x20\n      mul\n      0x20\n      add\n      add\n      mload\n        /* \"lib/MerklePatriciaProof.sol\":1989:2000  RLP.toBytes */\n      tag_112\n        /* \"lib/MerklePatriciaProof.sol\":1989:2020  RLP.toBytes(currentNodeList[1]) */\n      jump\t// in\n    tag_249:\n        /* \"lib/MerklePatriciaProof.sol\":1979:2021  keccak256(RLP.toBytes(currentNodeList[1])) */\n      dup1\n      mload\n      swap1\n      0x20\n      add\n      keccak256\n        /* \"lib/MerklePatriciaProof.sol\":1979:2047  keccak256(RLP.toBytes(currentNodeList[1])) ==... */\n      eq\n        /* \"lib/MerklePatriciaProof.sol\":1968:2116  if (... */\n      iszero\n      tag_251\n      jumpi\n        /* \"lib/MerklePatriciaProof.sol\":2070:2074  true */\n      0x01\n        /* \"lib/MerklePatriciaProof.sol\":2063:2074  return true */\n      swap9\n      pop\n      pop\n      pop\n      pop\n      pop\n      pop\n      pop\n      pop\n      pop\n      jump(tag_215)\n        /* \"lib/MerklePatriciaProof.sol\":1968:2116  if (... */\n    tag_251:\n        /* \"lib/MerklePatriciaProof.sol\":2103:2108  false */\n      0x00\n        /* \"lib/MerklePatriciaProof.sol\":2096:2108  return false */\n      swap9\n      pop\n      pop\n      pop\n      pop\n      pop\n      pop\n      pop\n      pop\n      pop\n      jump(tag_215)\n        /* \"lib/MerklePatriciaProof.sol\":1916:2122  if (pathPtr == path.length) {... */\n    tag_248:\n        /* \"lib/MerklePatriciaProof.sol\":2254:2255  0 */\n      0x00\n        /* \"lib/MerklePatriciaProof.sol\":2159:2250  _nibblesToTraverse(... */\n      tag_253\n        /* \"lib/MerklePatriciaProof.sol\":2185:2216  RLP.toBytes(currentNodeList[0]) */\n      tag_254\n        /* \"lib/MerklePatriciaProof.sol\":2197:2212  currentNodeList */\n      dup8\n        /* \"lib/MerklePatriciaProof.sol\":2213:2214  0 */\n      0x00\n        /* \"lib/MerklePatriciaProof.sol\":2197:2215  currentNodeList[0] */\n      dup2\n      mload\n      dup2\n      lt\n      tag_255\n      jumpi\n      invalid\n    tag_255:\n      0x20\n      mul\n      0x20\n      add\n      add\n      mload\n        /* \"lib/MerklePatriciaProof.sol\":2185:2196  RLP.toBytes */\n      tag_112\n        /* \"lib/MerklePatriciaProof.sol\":2185:2216  RLP.toBytes(currentNodeList[0]) */\n      jump\t// in\n    tag_254:\n        /* \"lib/MerklePatriciaProof.sol\":2224:2228  path */\n      dup5\n        /* \"lib/MerklePatriciaProof.sol\":2236:2243  pathPtr */\n      dup7\n        /* \"lib/MerklePatriciaProof.sol\":2159:2177  _nibblesToTraverse */\n      tag_247\n        /* \"lib/MerklePatriciaProof.sol\":2159:2250  _nibblesToTraverse(... */\n      jump\t// in\n    tag_253:\n        /* \"lib/MerklePatriciaProof.sol\":2159:2255  _nibblesToTraverse(... */\n      eq\n        /* \"lib/MerklePatriciaProof.sol\":2149:2288  if (... */\n      iszero\n      tag_256\n      jumpi\n        /* \"lib/MerklePatriciaProof.sol\":2276:2281  false */\n      0x00\n        /* \"lib/MerklePatriciaProof.sol\":2269:2281  return false */\n      swap9\n      pop\n      pop\n      pop\n      pop\n      pop\n      pop\n      pop\n      pop\n      pop\n      jump(tag_215)\n        /* \"lib/MerklePatriciaProof.sol\":2149:2288  if (... */\n    tag_256:\n        /* \"lib/MerklePatriciaProof.sol\":2312:2348  RLP.toUintStrict(currentNodeList[1]) */\n      tag_257\n        /* \"lib/MerklePatriciaProof.sol\":2329:2344  currentNodeList */\n      dup6\n        /* \"lib/MerklePatriciaProof.sol\":2345:2346  1 */\n      0x01\n        /* \"lib/MerklePatriciaProof.sol\":2329:2347  currentNodeList[1] */\n      dup2\n      mload\n      dup2\n      lt\n      tag_258\n      jumpi\n      invalid\n    tag_258:\n      0x20\n      mul\n      0x20\n      add\n      add\n      mload\n        /* \"lib/MerklePatriciaProof.sol\":2312:2328  RLP.toUintStrict */\n      tag_241\n        /* \"lib/MerklePatriciaProof.sol\":2312:2348  RLP.toUintStrict(currentNodeList[1]) */\n      jump\t// in\n    tag_257:\n        /* \"lib/MerklePatriciaProof.sol\":2304:2349  bytes32(RLP.toUintStrict(currentNodeList[1])) */\n      0x00\n      shl\n        /* \"lib/MerklePatriciaProof.sol\":2294:2349  nodeKey = bytes32(RLP.toUintStrict(currentNodeList[1])) */\n      swap4\n      pop\n        /* \"lib/MerklePatriciaProof.sol\":1773:2385  if (currentNodeList.length == 2) {... */\n      jump(tag_259)\n    tag_243:\n        /* \"lib/MerklePatriciaProof.sol\":2374:2379  false */\n      0x00\n        /* \"lib/MerklePatriciaProof.sol\":2367:2379  return false */\n      swap9\n      pop\n      pop\n      pop\n      pop\n      pop\n      pop\n      pop\n      pop\n      pop\n      jump(tag_215)\n        /* \"lib/MerklePatriciaProof.sol\":1773:2385  if (currentNodeList.length == 2) {... */\n    tag_259:\n        /* \"lib/MerklePatriciaProof.sol\":1323:2385  if (currentNodeList.length == 17) {... */\n    tag_242:\n        /* \"lib/MerklePatriciaProof.sol\":1091:1094  i++ */\n      dup1\n      dup1\n      0x01\n      add\n      swap2\n      pop\n      pop\n        /* \"lib/MerklePatriciaProof.sol\":1047:2389  for (uint256 i = 0; i < parentNodes.length; i++) {... */\n      jump(tag_222)\n    tag_223:\n      pop\n        /* \"lib/MerklePatriciaProof.sol\":564:2392  function verify(... */\n      pop\n      pop\n      pop\n      pop\n      pop\n      pop\n      pop\n    tag_215:\n      swap5\n      swap4\n      pop\n      pop\n      pop\n      pop\n      jump\t// out\n        /* \"lib/Merkle.sol\":101:768  function verify(... */\n    tag_147:\n        /* \"lib/Merkle.sol\":222:226  bool */\n      0x00\n        /* \"lib/Merkle.sol\":232:252  bytes32 proofElement */\n      dup1\n        /* \"lib/Merkle.sol\":256:276  bytes32 computedHash */\n      0x00\n        /* \"lib/Merkle.sol\":279:283  leaf */\n      dup7\n        /* \"lib/Merkle.sol\":256:283  bytes32 computedHash = leaf */\n      swap1\n      pop\n        /* \"lib/Merkle.sol\":316:317  0 */\n      0x00\n        /* \"lib/Merkle.sol\":310:312  32 */\n      0x20\n        /* \"lib/Merkle.sol\":295:300  proof */\n      dup6\n        /* \"lib/Merkle.sol\":295:307  proof.length */\n      mload\n        /* \"lib/Merkle.sol\":295:312  proof.length % 32 */\n      dup2\n      tag_261\n      jumpi\n      invalid\n    tag_261:\n      mod\n        /* \"lib/Merkle.sol\":295:317  proof.length % 32 == 0 */\n      eq\n        /* \"lib/Merkle.sol\":287:342  require(proof.length % 32 == 0, \"Invalid proof length\") */\n      tag_262\n      jumpi\n      mload(0x40)\n      0x08c379a000000000000000000000000000000000000000000000000000000000\n      dup2\n      mstore\n      0x04\n      add\n      dup1\n      dup1\n      0x20\n      add\n      dup3\n      dup2\n      sub\n      dup3\n      mstore\n      0x14\n      dup2\n      mstore\n      0x20\n      add\n      dup1\n      0x496e76616c69642070726f6f66206c656e677468000000000000000000000000\n      dup2\n      mstore\n      pop\n      0x20\n      add\n      swap2\n      pop\n      pop\n      mload(0x40)\n      dup1\n      swap2\n      sub\n      swap1\n      revert\n    tag_262:\n        /* \"lib/Merkle.sol\":347:360  uint256 index */\n      0x00\n        /* \"lib/Merkle.sol\":363:372  mainIndex */\n      dup7\n        /* \"lib/Merkle.sol\":347:372  uint256 index = mainIndex */\n      swap1\n      pop\n        /* \"lib/Merkle.sol\":381:390  uint256 i */\n      0x00\n        /* \"lib/Merkle.sol\":393:395  32 */\n      0x20\n        /* \"lib/Merkle.sol\":381:395  uint256 i = 32 */\n      swap1\n      pop\n        /* \"lib/Merkle.sol\":376:730  for (uint256 i = 32; i <= proof.length; i += 32) {... */\n    tag_263:\n        /* \"lib/Merkle.sol\":402:407  proof */\n      dup6\n        /* \"lib/Merkle.sol\":402:414  proof.length */\n      mload\n        /* \"lib/Merkle.sol\":397:398  i */\n      dup2\n        /* \"lib/Merkle.sol\":397:414  i <= proof.length */\n      gt\n        /* \"lib/Merkle.sol\":376:730  for (uint256 i = 32; i <= proof.length; i += 32) {... */\n      tag_264\n      jumpi\n        /* \"lib/Merkle.sol\":478:479  i */\n      dup1\n        /* \"lib/Merkle.sol\":471:476  proof */\n      dup7\n        /* \"lib/Merkle.sol\":467:480  add(proof, i) */\n      add\n        /* \"lib/Merkle.sol\":461:481  mload(add(proof, i)) */\n      mload\n        /* \"lib/Merkle.sol\":445:481  proofElement := mload(add(proof, i)) */\n      swap4\n      pop\n        /* \"lib/Merkle.sol\":508:509  0 */\n      0x00\n        /* \"lib/Merkle.sol\":503:504  2 */\n      0x02\n        /* \"lib/Merkle.sol\":495:500  index */\n      dup4\n        /* \"lib/Merkle.sol\":495:504  index % 2 */\n      dup2\n      tag_266\n      jumpi\n      invalid\n    tag_266:\n      mod\n        /* \"lib/Merkle.sol\":495:509  index % 2 == 0 */\n      eq\n        /* \"lib/Merkle.sol\":491:703  if (index % 2 == 0) {... */\n      iszero\n      tag_267\n      jumpi\n        /* \"lib/Merkle.sol\":565:577  computedHash */\n      dup3\n        /* \"lib/Merkle.sol\":579:591  proofElement */\n      dup5\n        /* \"lib/Merkle.sol\":548:592  abi.encodePacked(computedHash, proofElement) */\n      add(0x20, mload(0x40))\n      dup1\n      dup4\n      dup2\n      mstore\n      0x20\n      add\n      dup3\n      dup2\n      mstore\n      0x20\n      add\n      swap3\n      pop\n      pop\n      pop\n      mload(0x40)\n        /* \"--CODEGEN--\":49:53   */\n      0x20\n        /* \"--CODEGEN--\":39:46   */\n      dup2\n        /* \"--CODEGEN--\":30:37   */\n      dup4\n        /* \"--CODEGEN--\":26:47   */\n      sub\n        /* \"--CODEGEN--\":22:54   */\n      sub\n        /* \"--CODEGEN--\":13:20   */\n      dup2\n        /* \"--CODEGEN--\":6:55   */\n      mstore\n        /* \"lib/Merkle.sol\":548:592  abi.encodePacked(computedHash, proofElement) */\n      swap1\n      0x40\n      mstore\n        /* \"lib/Merkle.sol\":532:598  keccak256(... */\n      dup1\n      mload\n      swap1\n      0x20\n      add\n      keccak256\n        /* \"lib/Merkle.sol\":517:598  computedHash = keccak256(... */\n      swap3\n      pop\n        /* \"lib/Merkle.sol\":491:703  if (index % 2 == 0) {... */\n      jump(tag_268)\n    tag_267:\n        /* \"lib/Merkle.sol\":664:676  proofElement */\n      dup4\n        /* \"lib/Merkle.sol\":678:690  computedHash */\n      dup4\n        /* \"lib/Merkle.sol\":647:691  abi.encodePacked(proofElement, computedHash) */\n      add(0x20, mload(0x40))\n      dup1\n      dup4\n      dup2\n      mstore\n      0x20\n      add\n      dup3\n      dup2\n      mstore\n      0x20\n      add\n      swap3\n      pop\n      pop\n      pop\n      mload(0x40)\n        /* \"--CODEGEN--\":49:53   */\n      0x20\n        /* \"--CODEGEN--\":39:46   */\n      dup2\n        /* \"--CODEGEN--\":30:37   */\n      dup4\n        /* \"--CODEGEN--\":26:47   */\n      sub\n        /* \"--CODEGEN--\":22:54   */\n      sub\n        /* \"--CODEGEN--\":13:20   */\n      dup2\n        /* \"--CODEGEN--\":6:55   */\n      mstore\n        /* \"lib/Merkle.sol\":647:691  abi.encodePacked(proofElement, computedHash) */\n      swap1\n      0x40\n      mstore\n        /* \"lib/Merkle.sol\":631:697  keccak256(... */\n      dup1\n      mload\n      swap1\n      0x20\n      add\n      keccak256\n        /* \"lib/Merkle.sol\":616:697  computedHash = keccak256(... */\n      swap3\n      pop\n        /* \"lib/Merkle.sol\":491:703  if (index % 2 == 0) {... */\n    tag_268:\n        /* \"lib/Merkle.sol\":724:725  2 */\n      0x02\n        /* \"lib/Merkle.sol\":716:721  index */\n      dup3\n        /* \"lib/Merkle.sol\":716:725  index / 2 */\n      dup2\n      tag_269\n      jumpi\n      invalid\n    tag_269:\n      div\n        /* \"lib/Merkle.sol\":708:725  index = index / 2 */\n      swap2\n      pop\n        /* \"lib/Merkle.sol\":421:423  32 */\n      0x20\n        /* \"lib/Merkle.sol\":416:423  i += 32 */\n      dup2\n      add\n      swap1\n      pop\n        /* \"lib/Merkle.sol\":376:730  for (uint256 i = 32; i <= proof.length; i += 32) {... */\n      jump(tag_263)\n    tag_264:\n      pop\n        /* \"lib/Merkle.sol\":756:764  rootHash */\n      dup6\n        /* \"lib/Merkle.sol\":740:752  computedHash */\n      dup3\n        /* \"lib/Merkle.sol\":740:764  computedHash == rootHash */\n      eq\n        /* \"lib/Merkle.sol\":733:764  return computedHash == rootHash */\n      swap4\n      pop\n      pop\n      pop\n      pop\n        /* \"lib/Merkle.sol\":101:768  function verify(... */\n      swap5\n      swap4\n      pop\n      pop\n      pop\n      pop\n      jump\t// out\n        /* \"lib/EthParser.sol\":125:1380  function parseTransaction(bytes memory _rawTx)... */\n    tag_150:\n        /* \"lib/EthParser.sol\":205:212  address */\n      0x00\n        /* \"lib/EthParser.sol\":217:224  address */\n      dup1\n        /* \"lib/EthParser.sol\":229:236  uint256 */\n      0x00\n        /* \"lib/EthParser.sol\":241:253  bytes memory */\n      0x60\n        /* \"lib/EthParser.sol\":263:294  RLP.RLPItem[] memory _txDecoded */\n      dup1\n        /* \"lib/EthParser.sol\":297:330  RLP.toList(RLP.toRLPItem(_rawTx)) */\n      tag_271\n        /* \"lib/EthParser.sol\":308:329  RLP.toRLPItem(_rawTx) */\n      tag_272\n        /* \"lib/EthParser.sol\":322:328  _rawTx */\n      dup8\n        /* \"lib/EthParser.sol\":308:321  RLP.toRLPItem */\n      tag_78\n        /* \"lib/EthParser.sol\":308:329  RLP.toRLPItem(_rawTx) */\n      jump\t// in\n    tag_272:\n        /* \"lib/EthParser.sol\":297:307  RLP.toList */\n      tag_79\n        /* \"lib/EthParser.sol\":297:330  RLP.toList(RLP.toRLPItem(_rawTx)) */\n      jump\t// in\n    tag_271:\n        /* \"lib/EthParser.sol\":263:330  RLP.RLPItem[] memory _txDecoded = RLP.toList(RLP.toRLPItem(_rawTx)) */\n      swap1\n      pop\n        /* \"lib/EthParser.sol\":335:346  address _to */\n      0x00\n        /* \"lib/EthParser.sol\":349:377  RLP.toAddress(_txDecoded[3]) */\n      tag_273\n        /* \"lib/EthParser.sol\":363:373  _txDecoded */\n      dup3\n        /* \"lib/EthParser.sol\":374:375  3 */\n      0x03\n        /* \"lib/EthParser.sol\":363:376  _txDecoded[3] */\n      dup2\n      mload\n      dup2\n      lt\n      tag_274\n      jumpi\n      invalid\n    tag_274:\n      0x20\n      mul\n      0x20\n      add\n      add\n      mload\n        /* \"lib/EthParser.sol\":349:362  RLP.toAddress */\n      tag_275\n        /* \"lib/EthParser.sol\":349:377  RLP.toAddress(_txDecoded[3]) */\n      jump\t// in\n    tag_273:\n        /* \"lib/EthParser.sol\":335:377  address _to = RLP.toAddress(_txDecoded[3]) */\n      swap1\n      pop\n        /* \"lib/EthParser.sol\":381:395  uint256 _value */\n      0x00\n        /* \"lib/EthParser.sol\":398:423  RLP.toUint(_txDecoded[4]) */\n      tag_276\n        /* \"lib/EthParser.sol\":409:419  _txDecoded */\n      dup4\n        /* \"lib/EthParser.sol\":420:421  4 */\n      0x04\n        /* \"lib/EthParser.sol\":409:422  _txDecoded[4] */\n      dup2\n      mload\n      dup2\n      lt\n      tag_277\n      jumpi\n      invalid\n    tag_277:\n      0x20\n      mul\n      0x20\n      add\n      add\n      mload\n        /* \"lib/EthParser.sol\":398:408  RLP.toUint */\n      tag_87\n        /* \"lib/EthParser.sol\":398:423  RLP.toUint(_txDecoded[4]) */\n      jump\t// in\n    tag_276:\n        /* \"lib/EthParser.sol\":381:423  uint256 _value = RLP.toUint(_txDecoded[4]) */\n      swap1\n      pop\n        /* \"lib/EthParser.sol\":427:445  bytes memory _data */\n      0x60\n        /* \"lib/EthParser.sol\":448:474  RLP.toBytes(_txDecoded[5]) */\n      tag_278\n        /* \"lib/EthParser.sol\":460:470  _txDecoded */\n      dup5\n        /* \"lib/EthParser.sol\":471:472  5 */\n      0x05\n        /* \"lib/EthParser.sol\":460:473  _txDecoded[5] */\n      dup2\n      mload\n      dup2\n      lt\n      tag_279\n      jumpi\n      invalid\n    tag_279:\n      0x20\n      mul\n      0x20\n      add\n      add\n      mload\n        /* \"lib/EthParser.sol\":448:459  RLP.toBytes */\n      tag_112\n        /* \"lib/EthParser.sol\":448:474  RLP.toBytes(_txDecoded[5]) */\n      jump\t// in\n    tag_278:\n        /* \"lib/EthParser.sol\":427:474  bytes memory _data = RLP.toBytes(_txDecoded[5]) */\n      swap1\n      pop\n        /* \"lib/EthParser.sol\":479:489  uint256 _v */\n      0x00\n        /* \"lib/EthParser.sol\":492:517  RLP.toUint(_txDecoded[6]) */\n      tag_280\n        /* \"lib/EthParser.sol\":503:513  _txDecoded */\n      dup6\n        /* \"lib/EthParser.sol\":514:515  6 */\n      0x06\n        /* \"lib/EthParser.sol\":503:516  _txDecoded[6] */\n      dup2\n      mload\n      dup2\n      lt\n      tag_281\n      jumpi\n      invalid\n    tag_281:\n      0x20\n      mul\n      0x20\n      add\n      add\n      mload\n        /* \"lib/EthParser.sol\":492:502  RLP.toUint */\n      tag_87\n        /* \"lib/EthParser.sol\":492:517  RLP.toUint(_txDecoded[6]) */\n      jump\t// in\n    tag_280:\n        /* \"lib/EthParser.sol\":479:517  uint256 _v = RLP.toUint(_txDecoded[6]) */\n      swap1\n      pop\n        /* \"lib/EthParser.sol\":521:531  bytes32 _r */\n      0x00\n        /* \"lib/EthParser.sol\":534:562  RLP.toBytes32(_txDecoded[7]) */\n      tag_282\n        /* \"lib/EthParser.sol\":548:558  _txDecoded */\n      dup7\n        /* \"lib/EthParser.sol\":559:560  7 */\n      0x07\n        /* \"lib/EthParser.sol\":548:561  _txDecoded[7] */\n      dup2\n      mload\n      dup2\n      lt\n      tag_283\n      jumpi\n      invalid\n    tag_283:\n      0x20\n      mul\n      0x20\n      add\n      add\n      mload\n        /* \"lib/EthParser.sol\":534:547  RLP.toBytes32 */\n      tag_92\n        /* \"lib/EthParser.sol\":534:562  RLP.toBytes32(_txDecoded[7]) */\n      jump\t// in\n    tag_282:\n        /* \"lib/EthParser.sol\":521:562  bytes32 _r = RLP.toBytes32(_txDecoded[7]) */\n      swap1\n      pop\n        /* \"lib/EthParser.sol\":566:576  bytes32 _s */\n      0x00\n        /* \"lib/EthParser.sol\":579:607  RLP.toBytes32(_txDecoded[8]) */\n      tag_284\n        /* \"lib/EthParser.sol\":593:603  _txDecoded */\n      dup8\n        /* \"lib/EthParser.sol\":604:605  8 */\n      0x08\n        /* \"lib/EthParser.sol\":593:606  _txDecoded[8] */\n      dup2\n      mload\n      dup2\n      lt\n      tag_285\n      jumpi\n      invalid\n    tag_285:\n      0x20\n      mul\n      0x20\n      add\n      add\n      mload\n        /* \"lib/EthParser.sol\":579:592  RLP.toBytes32 */\n      tag_92\n        /* \"lib/EthParser.sol\":579:607  RLP.toBytes32(_txDecoded[8]) */\n      jump\t// in\n    tag_284:\n        /* \"lib/EthParser.sol\":566:607  bytes32 _s = RLP.toBytes32(_txDecoded[8]) */\n      swap1\n      pop\n        /* \"lib/EthParser.sol\":612:651  bytes[] memory _unsignedTransactionList */\n      0x60\n        /* \"lib/EthParser.sol\":656:670  uint8 _actualV */\n      0x00\n        /* \"lib/EthParser.sol\":674:690  uint256 _chainId */\n      dup1\n        /* \"lib/EthParser.sol\":704:706  28 */\n      0x1c\n        /* \"lib/EthParser.sol\":699:701  _v */\n      dup7\n        /* \"lib/EthParser.sol\":699:706  _v > 28 */\n      gt\n        /* \"lib/EthParser.sol\":695:1041  if (_v > 28) {... */\n      iszero\n      tag_286\n      jumpi\n        /* \"lib/EthParser.sol\":752:753  9 */\n      0x09\n        /* \"lib/EthParser.sol\":740:754  new bytes[](9) */\n      0xffffffffffffffff\n      dup2\n      gt\n        /* \"--CODEGEN--\":5:14   */\n      dup1\n        /* \"--CODEGEN--\":2:4   */\n      iszero\n      tag_287\n      jumpi\n        /* \"--CODEGEN--\":27:28   */\n      0x00\n        /* \"--CODEGEN--\":24:25   */\n      dup1\n        /* \"--CODEGEN--\":17:29   */\n      revert\n        /* \"--CODEGEN--\":2:4   */\n    tag_287:\n        /* \"lib/EthParser.sol\":740:754  new bytes[](9) */\n      pop\n      mload(0x40)\n      swap1\n      dup1\n      dup3\n      mstore\n      dup1\n      0x20\n      mul\n      0x20\n      add\n      dup3\n      add\n      0x40\n      mstore\n      dup1\n      iszero\n      tag_288\n      jumpi\n      dup2\n      0x20\n      add\n    tag_289:\n      0x60\n      dup2\n      mstore\n      0x20\n      add\n      swap1\n      0x01\n      swap1\n      sub\n      swap1\n      dup2\n      tag_289\n      jumpi\n      swap1\n      pop\n    tag_288:\n      pop\n        /* \"lib/EthParser.sol\":713:754  _unsignedTransactionList = new bytes[](9) */\n      swap3\n      pop\n        /* \"lib/EthParser.sol\":773:774  0 */\n      0x00\n        /* \"lib/EthParser.sol\":768:769  2 */\n      0x02\n        /* \"lib/EthParser.sol\":763:765  _v */\n      dup8\n        /* \"lib/EthParser.sol\":763:769  _v % 2 */\n      dup2\n      tag_290\n      jumpi\n      invalid\n    tag_290:\n      mod\n        /* \"lib/EthParser.sol\":763:774  _v % 2 == 0 */\n      eq\n        /* \"lib/EthParser.sol\":759:832  if (_v % 2 == 0) {... */\n      iszero\n      tag_291\n      jumpi\n        /* \"lib/EthParser.sol\":793:795  28 */\n      0x1c\n        /* \"lib/EthParser.sol\":782:795  _actualV = 28 */\n      swap2\n      pop\n        /* \"lib/EthParser.sol\":759:832  if (_v % 2 == 0) {... */\n      jump(tag_292)\n    tag_291:\n        /* \"lib/EthParser.sol\":824:826  27 */\n      0x1b\n        /* \"lib/EthParser.sol\":813:826  _actualV = 27 */\n      swap2\n      pop\n        /* \"lib/EthParser.sol\":759:832  if (_v % 2 == 0) {... */\n    tag_292:\n        /* \"lib/EthParser.sol\":870:871  2 */\n      0x02\n        /* \"lib/EthParser.sol\":865:866  8 */\n      0x08\n        /* \"lib/EthParser.sol\":854:862  _actualV */\n      dup4\n        /* \"lib/EthParser.sol\":849:862  _v - _actualV */\n      0xff\n      and\n        /* \"lib/EthParser.sol\":849:851  _v */\n      dup9\n        /* \"lib/EthParser.sol\":849:862  _v - _actualV */\n      sub\n        /* \"lib/EthParser.sol\":849:866  _v - _actualV - 8 */\n      sub\n        /* \"lib/EthParser.sol\":848:871  (_v - _actualV - 8) / 2 */\n      dup2\n      tag_293\n      jumpi\n      invalid\n    tag_293:\n      div\n        /* \"lib/EthParser.sol\":837:871  _chainId = (_v - _actualV - 8) / 2 */\n      swap1\n      pop\n        /* \"lib/EthParser.sol\":907:954  BytesLib.packedBytesFromUint(... */\n      tag_294\n        /* \"lib/EthParser.sol\":941:949  _chainId */\n      dup2\n        /* \"lib/EthParser.sol\":907:935  BytesLib.packedBytesFromUint */\n      tag_295\n        /* \"lib/EthParser.sol\":907:954  BytesLib.packedBytesFromUint(... */\n      jump\t// in\n    tag_294:\n        /* \"lib/EthParser.sol\":877:901  _unsignedTransactionList */\n      dup4\n        /* \"lib/EthParser.sol\":902:903  6 */\n      0x06\n        /* \"lib/EthParser.sol\":877:904  _unsignedTransactionList[6] */\n      dup2\n      mload\n      dup2\n      lt\n      tag_296\n      jumpi\n      invalid\n    tag_296:\n      0x20\n      mul\n      0x20\n      add\n      add\n        /* \"lib/EthParser.sol\":877:954  _unsignedTransactionList[6] = BytesLib.packedBytesFromUint(... */\n      dup2\n      swap1\n      mstore\n      pop\n        /* \"lib/EthParser.sol\":695:1041  if (_v > 28) {... */\n      jump(tag_297)\n    tag_286:\n        /* \"lib/EthParser.sol\":1009:1010  6 */\n      0x06\n        /* \"lib/EthParser.sol\":997:1011  new bytes[](6) */\n      0xffffffffffffffff\n      dup2\n      gt\n        /* \"--CODEGEN--\":5:14   */\n      dup1\n        /* \"--CODEGEN--\":2:4   */\n      iszero\n      tag_298\n      jumpi\n        /* \"--CODEGEN--\":27:28   */\n      0x00\n        /* \"--CODEGEN--\":24:25   */\n      dup1\n        /* \"--CODEGEN--\":17:29   */\n      revert\n        /* \"--CODEGEN--\":2:4   */\n    tag_298:\n        /* \"lib/EthParser.sol\":997:1011  new bytes[](6) */\n      pop\n      mload(0x40)\n      swap1\n      dup1\n      dup3\n      mstore\n      dup1\n      0x20\n      mul\n      0x20\n      add\n      dup3\n      add\n      0x40\n      mstore\n      dup1\n      iszero\n      tag_299\n      jumpi\n      dup2\n      0x20\n      add\n    tag_300:\n      0x60\n      dup2\n      mstore\n      0x20\n      add\n      swap1\n      0x01\n      swap1\n      sub\n      swap1\n      dup2\n      tag_300\n      jumpi\n      swap1\n      pop\n    tag_299:\n      pop\n        /* \"lib/EthParser.sol\":970:1011  _unsignedTransactionList = new bytes[](6) */\n      swap3\n      pop\n        /* \"lib/EthParser.sol\":1033:1035  _v */\n      dup6\n        /* \"lib/EthParser.sol\":1016:1036  _actualV = uint8(_v) */\n      swap2\n      pop\n        /* \"lib/EthParser.sol\":695:1041  if (_v > 28) {... */\n    tag_297:\n        /* \"lib/EthParser.sol\":1050:1059  uint256 i */\n      0x00\n        /* \"lib/EthParser.sol\":1062:1063  0 */\n      dup1\n        /* \"lib/EthParser.sol\":1050:1063  uint256 i = 0 */\n      swap1\n      pop\n        /* \"lib/EthParser.sol\":1045:1143  for (uint256 i = 0; i < 6; i++) {... */\n    tag_301:\n        /* \"lib/EthParser.sol\":1069:1070  6 */\n      0x06\n        /* \"lib/EthParser.sol\":1065:1066  i */\n      dup2\n        /* \"lib/EthParser.sol\":1065:1070  i < 6 */\n      lt\n        /* \"lib/EthParser.sol\":1045:1143  for (uint256 i = 0; i < 6; i++) {... */\n      iszero\n      tag_302\n      jumpi\n        /* \"lib/EthParser.sol\":1112:1138  RLP.toBytes(_txDecoded[i]) */\n      tag_304\n        /* \"lib/EthParser.sol\":1124:1134  _txDecoded */\n      dup12\n        /* \"lib/EthParser.sol\":1135:1136  i */\n      dup3\n        /* \"lib/EthParser.sol\":1124:1137  _txDecoded[i] */\n      dup2\n      mload\n      dup2\n      lt\n      tag_305\n      jumpi\n      invalid\n    tag_305:\n      0x20\n      mul\n      0x20\n      add\n      add\n      mload\n        /* \"lib/EthParser.sol\":1112:1123  RLP.toBytes */\n      tag_112\n        /* \"lib/EthParser.sol\":1112:1138  RLP.toBytes(_txDecoded[i]) */\n      jump\t// in\n    tag_304:\n        /* \"lib/EthParser.sol\":1082:1106  _unsignedTransactionList */\n      dup5\n        /* \"lib/EthParser.sol\":1107:1108  i */\n      dup3\n        /* \"lib/EthParser.sol\":1082:1109  _unsignedTransactionList[i] */\n      dup2\n      mload\n      dup2\n      lt\n      tag_306\n      jumpi\n      invalid\n    tag_306:\n      0x20\n      mul\n      0x20\n      add\n      add\n        /* \"lib/EthParser.sol\":1082:1138  _unsignedTransactionList[i] = RLP.toBytes(_txDecoded[i]) */\n      dup2\n      swap1\n      mstore\n      pop\n        /* \"lib/EthParser.sol\":1072:1075  i++ */\n      dup1\n      dup1\n      0x01\n      add\n      swap2\n      pop\n      pop\n        /* \"lib/EthParser.sol\":1045:1143  for (uint256 i = 0; i < 6; i++) {... */\n      jump(tag_301)\n    tag_302:\n      pop\n        /* \"lib/EthParser.sol\":1147:1180  bytes memory _unsignedTransaction */\n      0x60\n        /* \"lib/EthParser.sol\":1183:1236  RLPEncode.encodeList(... */\n      tag_307\n        /* \"lib/EthParser.sol\":1208:1232  _unsignedTransactionList */\n      dup5\n        /* \"lib/EthParser.sol\":1183:1203  RLPEncode.encodeList */\n      tag_308\n        /* \"lib/EthParser.sol\":1183:1236  RLPEncode.encodeList(... */\n      jump\t// in\n    tag_307:\n        /* \"lib/EthParser.sol\":1147:1236  bytes memory _unsignedTransaction = RLPEncode.encodeList(... */\n      swap1\n      pop\n        /* \"lib/EthParser.sol\":1241:1256  address _signer */\n      0x00\n        /* \"lib/EthParser.sol\":1259:1335  ecrecover(... */\n      0x01\n        /* \"lib/EthParser.sol\":1283:1303  _unsignedTransaction */\n      dup3\n        /* \"lib/EthParser.sol\":1273:1304  keccak256(_unsignedTransaction) */\n      dup1\n      mload\n      swap1\n      0x20\n      add\n      keccak256\n        /* \"lib/EthParser.sol\":1309:1317  _actualV */\n      dup6\n        /* \"lib/EthParser.sol\":1322:1324  _r */\n      dup10\n        /* \"lib/EthParser.sol\":1329:1331  _s */\n      dup10\n        /* \"lib/EthParser.sol\":1259:1335  ecrecover(... */\n      mload(0x40)\n      0x00\n      dup2\n      mstore\n      0x20\n      add\n      0x40\n      mstore\n      mload(0x40)\n      dup1\n      dup6\n      dup2\n      mstore\n      0x20\n      add\n      dup5\n      0xff\n      and\n      0xff\n      and\n      dup2\n      mstore\n      0x20\n      add\n      dup4\n      dup2\n      mstore\n      0x20\n      add\n      dup3\n      dup2\n      mstore\n      0x20\n      add\n      swap5\n      pop\n      pop\n      pop\n      pop\n      pop\n      0x20\n      mload(0x40)\n      0x20\n      dup2\n      sub\n      swap1\n      dup1\n      dup5\n      sub\n      swap1\n      dup6\n      gas\n      staticcall\n      iszero\n        /* \"--CODEGEN--\":8:17   */\n      dup1\n        /* \"--CODEGEN--\":5:7   */\n      iszero\n      tag_310\n      jumpi\n        /* \"--CODEGEN--\":45:61   */\n      returndatasize\n        /* \"--CODEGEN--\":42:43   */\n      0x00\n        /* \"--CODEGEN--\":39:40   */\n      dup1\n        /* \"--CODEGEN--\":24:62   */\n      returndatacopy\n        /* \"--CODEGEN--\":77:93   */\n      returndatasize\n        /* \"--CODEGEN--\":74:75   */\n      0x00\n        /* \"--CODEGEN--\":67:94   */\n      revert\n        /* \"--CODEGEN--\":5:7   */\n    tag_310:\n        /* \"lib/EthParser.sol\":1259:1335  ecrecover(... */\n      pop\n      pop\n      pop\n      mload(sub(mload(0x40), 0x20))\n        /* \"lib/EthParser.sol\":1241:1335  address _signer = ecrecover(... */\n      swap1\n      pop\n        /* \"lib/EthParser.sol\":1348:1355  _signer */\n      dup1\n        /* \"lib/EthParser.sol\":1357:1360  _to */\n      dup12\n        /* \"lib/EthParser.sol\":1362:1368  _value */\n      dup12\n        /* \"lib/EthParser.sol\":1370:1375  _data */\n      dup12\n        /* \"lib/EthParser.sol\":1340:1376  return (_signer, _to, _value, _data) */\n      swap16\n      pop\n      swap16\n      pop\n      swap16\n      pop\n      swap16\n      pop\n      pop\n      pop\n      pop\n      pop\n      pop\n      pop\n      pop\n      pop\n      pop\n      pop\n      pop\n      pop\n        /* \"lib/EthParser.sol\":125:1380  function parseTransaction(bytes memory _rawTx)... */\n      swap2\n      swap4\n      pop\n      swap2\n      swap4\n      jump\t// out\n        /* \"lib/RLP.sol\":2786:3054  function isList(RLPItem memory item) internal pure returns (bool) {... */\n    tag_167:\n        /* \"lib/RLP.sol\":2846:2850  bool */\n      0x00\n        /* \"lib/RLP.sol\":2872:2873  0 */\n      dup1\n        /* \"lib/RLP.sol\":2860:2864  item */\n      dup3\n        /* \"lib/RLP.sol\":2860:2868  item.len */\n      0x00\n      add\n      mload\n        /* \"lib/RLP.sol\":2860:2873  item.len == 0 */\n      eq\n        /* \"lib/RLP.sol\":2856:2887  if (item.len == 0) return false */\n      iszero\n      tag_312\n      jumpi\n        /* \"lib/RLP.sol\":2882:2887  false */\n      0x00\n        /* \"lib/RLP.sol\":2875:2887  return false */\n      swap1\n      pop\n      jump(tag_311)\n        /* \"lib/RLP.sol\":2856:2887  if (item.len == 0) return false */\n    tag_312:\n        /* \"lib/RLP.sol\":2892:2903  uint8 byte0 */\n      0x00\n        /* \"lib/RLP.sol\":2907:2921  uint256 memPtr */\n      dup1\n        /* \"lib/RLP.sol\":2924:2928  item */\n      dup4\n        /* \"lib/RLP.sol\":2924:2935  item.memPtr */\n      0x20\n      add\n      mload\n        /* \"lib/RLP.sol\":2907:2935  uint256 memPtr = item.memPtr */\n      swap1\n      pop\n        /* \"lib/RLP.sol\":2976:2982  memPtr */\n      dup1\n        /* \"lib/RLP.sol\":2970:2983  mload(memPtr) */\n      mload\n        /* \"lib/RLP.sol\":2967:2968  0 */\n      0x00\n        /* \"lib/RLP.sol\":2962:2984  byte(0, mload(memPtr)) */\n      byte\n        /* \"lib/RLP.sol\":2953:2984  byte0 := byte(0, mload(memPtr)) */\n      swap2\n      pop\n        /* \"lib/RLP.sol\":289:293  0xc0 */\n      0xc0\n        /* \"lib/RLP.sol\":2996:3020  byte0 < LIST_SHORT_START */\n      0xff\n      and\n        /* \"lib/RLP.sol\":2996:3001  byte0 */\n      dup3\n        /* \"lib/RLP.sol\":2996:3020  byte0 < LIST_SHORT_START */\n      0xff\n      and\n      lt\n        /* \"lib/RLP.sol\":2992:3034  if (byte0 < LIST_SHORT_START) return false */\n      iszero\n      tag_313\n      jumpi\n        /* \"lib/RLP.sol\":3029:3034  false */\n      0x00\n        /* \"lib/RLP.sol\":3022:3034  return false */\n      swap3\n      pop\n      pop\n      pop\n      jump(tag_311)\n        /* \"lib/RLP.sol\":2992:3034  if (byte0 < LIST_SHORT_START) return false */\n    tag_313:\n        /* \"lib/RLP.sol\":3046:3050  true */\n      0x01\n        /* \"lib/RLP.sol\":3039:3050  return true */\n      swap3\n      pop\n      pop\n      pop\n        /* \"lib/RLP.sol\":2786:3054  function isList(RLPItem memory item) internal pure returns (bool) {... */\n    tag_311:\n      swap2\n      swap1\n      pop\n      jump\t// out\n        /* \"lib/RLP.sol\":6057:6418  function numItems(RLPItem memory item) private pure returns (uint256) {... */\n    tag_170:\n        /* \"lib/RLP.sol\":6118:6125  uint256 */\n      0x00\n        /* \"lib/RLP.sol\":6147:6148  0 */\n      dup1\n        /* \"lib/RLP.sol\":6135:6139  item */\n      dup3\n        /* \"lib/RLP.sol\":6135:6143  item.len */\n      0x00\n      add\n      mload\n        /* \"lib/RLP.sol\":6135:6148  item.len == 0 */\n      eq\n        /* \"lib/RLP.sol\":6131:6158  if (item.len == 0) return 0 */\n      iszero\n      tag_315\n      jumpi\n        /* \"lib/RLP.sol\":6157:6158  0 */\n      0x00\n        /* \"lib/RLP.sol\":6150:6158  return 0 */\n      swap1\n      pop\n      jump(tag_314)\n        /* \"lib/RLP.sol\":6131:6158  if (item.len == 0) return 0 */\n    tag_315:\n        /* \"lib/RLP.sol\":6163:6176  uint256 count */\n      0x00\n        /* \"lib/RLP.sol\":6179:6180  0 */\n      dup1\n        /* \"lib/RLP.sol\":6163:6180  uint256 count = 0 */\n      swap1\n      pop\n        /* \"lib/RLP.sol\":6184:6199  uint256 currPtr */\n      0x00\n        /* \"lib/RLP.sol\":6216:6243  _payloadOffset(item.memPtr) */\n      tag_316\n        /* \"lib/RLP.sol\":6231:6235  item */\n      dup5\n        /* \"lib/RLP.sol\":6231:6242  item.memPtr */\n      0x20\n      add\n      mload\n        /* \"lib/RLP.sol\":6216:6230  _payloadOffset */\n      tag_176\n        /* \"lib/RLP.sol\":6216:6243  _payloadOffset(item.memPtr) */\n      jump\t// in\n    tag_316:\n        /* \"lib/RLP.sol\":6202:6206  item */\n      dup5\n        /* \"lib/RLP.sol\":6202:6213  item.memPtr */\n      0x20\n      add\n      mload\n        /* \"lib/RLP.sol\":6202:6243  item.memPtr + _payloadOffset(item.memPtr) */\n      add\n        /* \"lib/RLP.sol\":6184:6243  uint256 currPtr = item.memPtr + _payloadOffset(item.memPtr) */\n      swap1\n      pop\n        /* \"lib/RLP.sol\":6247:6261  uint256 endPtr */\n      0x00\n        /* \"lib/RLP.sol\":6278:6282  item */\n      dup5\n        /* \"lib/RLP.sol\":6278:6286  item.len */\n      0x00\n      add\n      mload\n        /* \"lib/RLP.sol\":6264:6268  item */\n      dup6\n        /* \"lib/RLP.sol\":6264:6275  item.memPtr */\n      0x20\n      add\n      mload\n        /* \"lib/RLP.sol\":6264:6286  item.memPtr + item.len */\n      add\n        /* \"lib/RLP.sol\":6247:6286  uint256 endPtr = item.memPtr + item.len */\n      swap1\n      pop\n        /* \"lib/RLP.sol\":6290:6398  while (currPtr < endPtr) {... */\n    tag_317:\n        /* \"lib/RLP.sol\":6307:6313  endPtr */\n      dup1\n        /* \"lib/RLP.sol\":6297:6304  currPtr */\n      dup3\n        /* \"lib/RLP.sol\":6297:6313  currPtr < endPtr */\n      lt\n        /* \"lib/RLP.sol\":6290:6398  while (currPtr < endPtr) {... */\n      iszero\n      tag_318\n      jumpi\n        /* \"lib/RLP.sol\":6340:6360  _itemLength(currPtr) */\n      tag_319\n        /* \"lib/RLP.sol\":6352:6359  currPtr */\n      dup3\n        /* \"lib/RLP.sol\":6340:6351  _itemLength */\n      tag_181\n        /* \"lib/RLP.sol\":6340:6360  _itemLength(currPtr) */\n      jump\t// in\n    tag_319:\n        /* \"lib/RLP.sol\":6330:6337  currPtr */\n      dup3\n        /* \"lib/RLP.sol\":6330:6360  currPtr + _itemLength(currPtr) */\n      add\n        /* \"lib/RLP.sol\":6320:6360  currPtr = currPtr + _itemLength(currPtr) */\n      swap2\n      pop\n        /* \"lib/RLP.sol\":6386:6393  count++ */\n      dup3\n      dup1\n      0x01\n      add\n      swap4\n      pop\n      pop\n        /* \"lib/RLP.sol\":6290:6398  while (currPtr < endPtr) {... */\n      jump(tag_317)\n    tag_318:\n        /* \"lib/RLP.sol\":6409:6414  count */\n      dup3\n        /* \"lib/RLP.sol\":6402:6414  return count */\n      swap4\n      pop\n      pop\n      pop\n      pop\n        /* \"lib/RLP.sol\":6057:6418  function numItems(RLPItem memory item) private pure returns (uint256) {... */\n    tag_314:\n      swap2\n      swap1\n      pop\n      jump\t// out\n        /* \"lib/RLP.sol\":7510:7969  function _payloadOffset(uint256 memPtr) private pure returns (uint256) {... */\n    tag_176:\n        /* \"lib/RLP.sol\":7572:7579  uint256 */\n      0x00\n        /* \"lib/RLP.sol\":7585:7598  uint256 byte0 */\n      dup1\n        /* \"lib/RLP.sol\":7639:7645  memPtr */\n      dup3\n        /* \"lib/RLP.sol\":7633:7646  mload(memPtr) */\n      mload\n        /* \"lib/RLP.sol\":7630:7631  0 */\n      0x00\n        /* \"lib/RLP.sol\":7625:7647  byte(0, mload(memPtr)) */\n      byte\n        /* \"lib/RLP.sol\":7616:7647  byte0 := byte(0, mload(memPtr)) */\n      swap1\n      pop\n        /* \"lib/RLP.sol\":206:210  0x80 */\n      0x80\n        /* \"lib/RLP.sol\":7659:7685  byte0 < STRING_SHORT_START */\n      0xff\n      and\n        /* \"lib/RLP.sol\":7659:7664  byte0 */\n      dup2\n        /* \"lib/RLP.sol\":7659:7685  byte0 < STRING_SHORT_START */\n      lt\n        /* \"lib/RLP.sol\":7655:7965  if (byte0 < STRING_SHORT_START) return 0;... */\n      iszero\n      tag_321\n      jumpi\n        /* \"lib/RLP.sol\":7694:7695  0 */\n      0x00\n        /* \"lib/RLP.sol\":7687:7695  return 0 */\n      swap2\n      pop\n      pop\n      jump(tag_320)\n        /* \"lib/RLP.sol\":7655:7965  if (byte0 < STRING_SHORT_START) return 0;... */\n    tag_321:\n        /* \"lib/RLP.sol\":248:252  0xb8 */\n      0xb8\n        /* \"lib/RLP.sol\":7712:7737  byte0 < STRING_LONG_START */\n      0xff\n      and\n        /* \"lib/RLP.sol\":7712:7717  byte0 */\n      dup2\n        /* \"lib/RLP.sol\":7712:7737  byte0 < STRING_LONG_START */\n      lt\n        /* \"lib/RLP.sol\":7712:7798  byte0 < STRING_LONG_START ||... */\n      dup1\n      tag_323\n      jumpi\n      pop\n        /* \"lib/RLP.sol\":289:293  0xc0 */\n      0xc0\n        /* \"lib/RLP.sol\":7745:7770  byte0 >= LIST_SHORT_START */\n      0xff\n      and\n        /* \"lib/RLP.sol\":7745:7750  byte0 */\n      dup2\n        /* \"lib/RLP.sol\":7745:7770  byte0 >= LIST_SHORT_START */\n      lt\n      iszero\n        /* \"lib/RLP.sol\":7745:7797  byte0 >= LIST_SHORT_START && byte0 < LIST_LONG_START */\n      dup1\n      iszero\n      tag_324\n      jumpi\n      pop\n        /* \"lib/RLP.sol\":329:333  0xf8 */\n      0xf8\n        /* \"lib/RLP.sol\":7774:7797  byte0 < LIST_LONG_START */\n      0xff\n      and\n        /* \"lib/RLP.sol\":7774:7779  byte0 */\n      dup2\n        /* \"lib/RLP.sol\":7774:7797  byte0 < LIST_LONG_START */\n      lt\n        /* \"lib/RLP.sol\":7745:7797  byte0 >= LIST_SHORT_START && byte0 < LIST_LONG_START */\n    tag_324:\n        /* \"lib/RLP.sol\":7712:7798  byte0 < STRING_LONG_START ||... */\n    tag_323:\n        /* \"lib/RLP.sol\":7704:7965  if (... */\n      iszero\n      tag_325\n      jumpi\n        /* \"lib/RLP.sol\":7810:7811  1 */\n      0x01\n        /* \"lib/RLP.sol\":7803:7811  return 1 */\n      swap2\n      pop\n      pop\n      jump(tag_320)\n        /* \"lib/RLP.sol\":7704:7965  if (... */\n    tag_325:\n        /* \"lib/RLP.sol\":289:293  0xc0 */\n      0xc0\n        /* \"lib/RLP.sol\":7824:7848  byte0 < LIST_SHORT_START */\n      0xff\n      and\n        /* \"lib/RLP.sol\":7824:7829  byte0 */\n      dup2\n        /* \"lib/RLP.sol\":7824:7848  byte0 < LIST_SHORT_START */\n      lt\n        /* \"lib/RLP.sol\":7820:7965  if (byte0 < LIST_SHORT_START)... */\n      iszero\n      tag_327\n      jumpi\n        /* \"lib/RLP.sol\":7915:7916  1 */\n      0x01\n        /* \"lib/RLP.sol\":7910:7911  1 */\n      dup1\n        /* \"lib/RLP.sol\":248:252  0xb8 */\n      0xb8\n        /* \"lib/RLP.sol\":7890:7911  STRING_LONG_START - 1 */\n      sub\n        /* \"lib/RLP.sol\":7881:7912  byte0 - (STRING_LONG_START - 1) */\n      0xff\n      and\n        /* \"lib/RLP.sol\":7881:7886  byte0 */\n      dup3\n        /* \"lib/RLP.sol\":7881:7912  byte0 - (STRING_LONG_START - 1) */\n      sub\n        /* \"lib/RLP.sol\":7881:7916  byte0 - (STRING_LONG_START - 1) + 1 */\n      add\n        /* \"lib/RLP.sol\":7874:7916  return byte0 - (STRING_LONG_START - 1) + 1 */\n      swap2\n      pop\n      pop\n      jump(tag_320)\n        /* \"lib/RLP.sol\":7820:7965  if (byte0 < LIST_SHORT_START)... */\n    tag_327:\n        /* \"lib/RLP.sol\":7964:7965  1 */\n      0x01\n        /* \"lib/RLP.sol\":7959:7960  1 */\n      dup1\n        /* \"lib/RLP.sol\":329:333  0xf8 */\n      0xf8\n        /* \"lib/RLP.sol\":7941:7960  LIST_LONG_START - 1 */\n      sub\n        /* \"lib/RLP.sol\":7932:7961  byte0 - (LIST_LONG_START - 1) */\n      0xff\n      and\n        /* \"lib/RLP.sol\":7932:7937  byte0 */\n      dup3\n        /* \"lib/RLP.sol\":7932:7961  byte0 - (LIST_LONG_START - 1) */\n      sub\n        /* \"lib/RLP.sol\":7932:7965  byte0 - (LIST_LONG_START - 1) + 1 */\n      add\n        /* \"lib/RLP.sol\":7925:7965  return byte0 - (LIST_LONG_START - 1) + 1 */\n      swap2\n      pop\n      pop\n        /* \"lib/RLP.sol\":7510:7969  function _payloadOffset(uint256 memPtr) private pure returns (uint256) {... */\n    tag_320:\n      swap2\n      swap1\n      pop\n      jump\t// out\n        /* \"lib/RLP.sol\":6461:7464  function _itemLength(uint256 memPtr) private pure returns (uint256) {... */\n    tag_181:\n        /* \"lib/RLP.sol\":6520:6527  uint256 */\n      0x00\n        /* \"lib/RLP.sol\":6533:6548  uint256 itemLen */\n      dup1\n        /* \"lib/RLP.sol\":6552:6565  uint256 byte0 */\n      0x00\n        /* \"lib/RLP.sol\":6606:6612  memPtr */\n      dup4\n        /* \"lib/RLP.sol\":6600:6613  mload(memPtr) */\n      mload\n        /* \"lib/RLP.sol\":6597:6598  0 */\n      0x00\n        /* \"lib/RLP.sol\":6592:6614  byte(0, mload(memPtr)) */\n      byte\n        /* \"lib/RLP.sol\":6583:6614  byte0 := byte(0, mload(memPtr)) */\n      swap1\n      pop\n        /* \"lib/RLP.sol\":206:210  0x80 */\n      0x80\n        /* \"lib/RLP.sol\":6626:6652  byte0 < STRING_SHORT_START */\n      0xff\n      and\n        /* \"lib/RLP.sol\":6626:6631  byte0 */\n      dup2\n        /* \"lib/RLP.sol\":6626:6652  byte0 < STRING_SHORT_START */\n      lt\n        /* \"lib/RLP.sol\":6622:7442  if (byte0 < STRING_SHORT_START) itemLen = 1;... */\n      iszero\n      tag_330\n      jumpi\n        /* \"lib/RLP.sol\":6664:6665  1 */\n      0x01\n        /* \"lib/RLP.sol\":6654:6665  itemLen = 1 */\n      swap2\n      pop\n        /* \"lib/RLP.sol\":6622:7442  if (byte0 < STRING_SHORT_START) itemLen = 1;... */\n      jump(tag_331)\n    tag_330:\n        /* \"lib/RLP.sol\":248:252  0xb8 */\n      0xb8\n        /* \"lib/RLP.sol\":6678:6703  byte0 < STRING_LONG_START */\n      0xff\n      and\n        /* \"lib/RLP.sol\":6678:6683  byte0 */\n      dup2\n        /* \"lib/RLP.sol\":6678:6703  byte0 < STRING_LONG_START */\n      lt\n        /* \"lib/RLP.sol\":6674:7442  if (byte0 < STRING_LONG_START)... */\n      iszero\n      tag_332\n      jumpi\n        /* \"lib/RLP.sol\":6747:6748  1 */\n      0x01\n        /* \"lib/RLP.sol\":206:210  0x80 */\n      0x80\n        /* \"lib/RLP.sol\":6718:6744  byte0 - STRING_SHORT_START */\n      0xff\n      and\n        /* \"lib/RLP.sol\":6718:6723  byte0 */\n      dup3\n        /* \"lib/RLP.sol\":6718:6744  byte0 - STRING_SHORT_START */\n      sub\n        /* \"lib/RLP.sol\":6718:6748  byte0 - STRING_SHORT_START + 1 */\n      add\n        /* \"lib/RLP.sol\":6708:6748  itemLen = byte0 - STRING_SHORT_START + 1 */\n      swap2\n      pop\n        /* \"lib/RLP.sol\":6674:7442  if (byte0 < STRING_LONG_START)... */\n      jump(tag_333)\n    tag_332:\n        /* \"lib/RLP.sol\":289:293  0xc0 */\n      0xc0\n        /* \"lib/RLP.sol\":6761:6785  byte0 < LIST_SHORT_START */\n      0xff\n      and\n        /* \"lib/RLP.sol\":6761:6766  byte0 */\n      dup2\n        /* \"lib/RLP.sol\":6761:6785  byte0 < LIST_SHORT_START */\n      lt\n        /* \"lib/RLP.sol\":6757:7442  if (byte0 < LIST_SHORT_START) {... */\n      iszero\n      tag_334\n      jumpi\n        /* \"lib/RLP.sol\":6833:6837  0xb7 */\n      0xb7\n        /* \"lib/RLP.sol\":6826:6831  byte0 */\n      dup2\n        /* \"lib/RLP.sol\":6822:6838  sub(byte0, 0xb7) */\n      sub\n        /* \"lib/RLP.sol\":6900:6901  1 */\n      0x01\n        /* \"lib/RLP.sol\":6892:6898  memPtr */\n      dup6\n        /* \"lib/RLP.sol\":6888:6902  add(memPtr, 1) */\n      add\n        /* \"lib/RLP.sol\":6878:6902  memPtr := add(memPtr, 1) */\n      swap5\n      pop\n        /* \"lib/RLP.sol\":7015:7022  byteLen */\n      dup1\n        /* \"lib/RLP.sol\":7011:7013  32 */\n      0x20\n        /* \"lib/RLP.sol\":7007:7023  sub(32, byteLen) */\n      sub\n        /* \"lib/RLP.sol\":7002:7005  256 */\n      0x0100\n        /* \"lib/RLP.sol\":6998:7024  exp(256, sub(32, byteLen)) */\n      exp\n        /* \"lib/RLP.sol\":6989:6995  memPtr */\n      dup6\n        /* \"lib/RLP.sol\":6983:6996  mload(memPtr) */\n      mload\n        /* \"lib/RLP.sol\":6979:7025  div(mload(memPtr), exp(256, sub(32, byteLen))) */\n      div\n        /* \"lib/RLP.sol\":7100:7101  1 */\n      0x01\n        /* \"lib/RLP.sol\":7091:7098  byteLen */\n      dup3\n        /* \"lib/RLP.sol\":7087:7102  add(byteLen, 1) */\n      add\n        /* \"lib/RLP.sol\":7078:7085  dataLen */\n      dup2\n        /* \"lib/RLP.sol\":7074:7103  add(dataLen, add(byteLen, 1)) */\n      add\n        /* \"lib/RLP.sol\":7063:7103  itemLen := add(dataLen, add(byteLen, 1)) */\n      swap4\n      pop\n        /* \"lib/RLP.sol\":6801:7108  {... */\n      pop\n      pop\n      jump(tag_335)\n    tag_334:\n        /* \"lib/RLP.sol\":329:333  0xf8 */\n      0xf8\n        /* \"lib/RLP.sol\":7122:7145  byte0 < LIST_LONG_START */\n      0xff\n      and\n        /* \"lib/RLP.sol\":7122:7127  byte0 */\n      dup2\n        /* \"lib/RLP.sol\":7122:7145  byte0 < LIST_LONG_START */\n      lt\n        /* \"lib/RLP.sol\":7118:7442  if (byte0 < LIST_LONG_START) {... */\n      iszero\n      tag_336\n      jumpi\n        /* \"lib/RLP.sol\":7189:7190  1 */\n      0x01\n        /* \"lib/RLP.sol\":289:293  0xc0 */\n      0xc0\n        /* \"lib/RLP.sol\":7162:7186  byte0 - LIST_SHORT_START */\n      0xff\n      and\n        /* \"lib/RLP.sol\":7162:7167  byte0 */\n      dup3\n        /* \"lib/RLP.sol\":7162:7186  byte0 - LIST_SHORT_START */\n      sub\n        /* \"lib/RLP.sol\":7162:7190  byte0 - LIST_SHORT_START + 1 */\n      add\n        /* \"lib/RLP.sol\":7152:7190  itemLen = byte0 - LIST_SHORT_START + 1 */\n      swap2\n      pop\n        /* \"lib/RLP.sol\":7118:7442  if (byte0 < LIST_LONG_START) {... */\n      jump(tag_337)\n    tag_336:\n        /* \"lib/RLP.sol\":7247:7251  0xf7 */\n      0xf7\n        /* \"lib/RLP.sol\":7240:7245  byte0 */\n      dup2\n        /* \"lib/RLP.sol\":7236:7252  sub(byte0, 0xf7) */\n      sub\n        /* \"lib/RLP.sol\":7279:7280  1 */\n      0x01\n        /* \"lib/RLP.sol\":7271:7277  memPtr */\n      dup6\n        /* \"lib/RLP.sol\":7267:7281  add(memPtr, 1) */\n      add\n        /* \"lib/RLP.sol\":7257:7281  memPtr := add(memPtr, 1) */\n      swap5\n      pop\n        /* \"lib/RLP.sol\":7338:7345  byteLen */\n      dup1\n        /* \"lib/RLP.sol\":7334:7336  32 */\n      0x20\n        /* \"lib/RLP.sol\":7330:7346  sub(32, byteLen) */\n      sub\n        /* \"lib/RLP.sol\":7325:7328  256 */\n      0x0100\n        /* \"lib/RLP.sol\":7321:7347  exp(256, sub(32, byteLen)) */\n      exp\n        /* \"lib/RLP.sol\":7312:7318  memPtr */\n      dup6\n        /* \"lib/RLP.sol\":7306:7319  mload(memPtr) */\n      mload\n        /* \"lib/RLP.sol\":7302:7348  div(mload(memPtr), exp(256, sub(32, byteLen))) */\n      div\n        /* \"lib/RLP.sol\":7430:7431  1 */\n      0x01\n        /* \"lib/RLP.sol\":7421:7428  byteLen */\n      dup3\n        /* \"lib/RLP.sol\":7417:7432  add(byteLen, 1) */\n      add\n        /* \"lib/RLP.sol\":7408:7415  dataLen */\n      dup2\n        /* \"lib/RLP.sol\":7404:7433  add(dataLen, add(byteLen, 1)) */\n      add\n        /* \"lib/RLP.sol\":7393:7433  itemLen := add(dataLen, add(byteLen, 1)) */\n      swap4\n      pop\n        /* \"lib/RLP.sol\":7215:7438  {... */\n      pop\n      pop\n    tag_337:\n        /* \"lib/RLP.sol\":6757:7442  if (byte0 < LIST_SHORT_START) {... */\n    tag_335:\n        /* \"lib/RLP.sol\":6674:7442  if (byte0 < STRING_LONG_START)... */\n    tag_333:\n        /* \"lib/RLP.sol\":6622:7442  if (byte0 < STRING_SHORT_START) itemLen = 1;... */\n    tag_331:\n        /* \"lib/RLP.sol\":7453:7460  itemLen */\n      dup2\n        /* \"lib/RLP.sol\":7446:7460  return itemLen */\n      swap3\n      pop\n      pop\n      pop\n        /* \"lib/RLP.sol\":6461:7464  function _itemLength(uint256 memPtr) private pure returns (uint256) {... */\n      swap2\n      swap1\n      pop\n      jump\t// out\n        /* \"lib/RLP.sol\":8109:8699  function copy(... */\n    tag_201:\n        /* \"lib/RLP.sol\":8200:8201  0 */\n      0x00\n        /* \"lib/RLP.sol\":8193:8196  len */\n      dup2\n        /* \"lib/RLP.sol\":8193:8201  len == 0 */\n      eq\n        /* \"lib/RLP.sol\":8189:8210  if (len == 0) return; */\n      iszero\n      tag_339\n      jumpi\n        /* \"lib/RLP.sol\":8203:8210  return; */\n      jump(tag_338)\n        /* \"lib/RLP.sol\":8189:8210  if (len == 0) return; */\n    tag_339:\n        /* \"lib/RLP.sol\":8255:8395  for (; len >= WORD_SIZE; len -= WORD_SIZE) {... */\n    tag_340:\n        /* \"lib/RLP.sol\":363:365  32 */\n      0x20\n        /* \"lib/RLP.sol\":8262:8278  len >= WORD_SIZE */\n      0xff\n      and\n        /* \"lib/RLP.sol\":8262:8265  len */\n      dup2\n        /* \"lib/RLP.sol\":8262:8278  len >= WORD_SIZE */\n      lt\n        /* \"lib/RLP.sol\":8255:8395  for (; len >= WORD_SIZE; len -= WORD_SIZE) {... */\n      tag_341\n      jumpi\n        /* \"lib/RLP.sol\":8337:8340  src */\n      dup3\n        /* \"lib/RLP.sol\":8331:8341  mload(src) */\n      mload\n        /* \"lib/RLP.sol\":8325:8329  dest */\n      dup3\n        /* \"lib/RLP.sol\":8318:8342  mstore(dest, mload(src)) */\n      mstore\n        /* \"lib/RLP.sol\":363:365  32 */\n      0x20\n        /* \"lib/RLP.sol\":8352:8368  src += WORD_SIZE */\n      0xff\n      and\n      dup4\n      add\n      swap3\n      pop\n        /* \"lib/RLP.sol\":363:365  32 */\n      0x20\n        /* \"lib/RLP.sol\":8373:8390  dest += WORD_SIZE */\n      0xff\n      and\n      dup3\n      add\n      swap2\n      pop\n        /* \"lib/RLP.sol\":363:365  32 */\n      0x20\n        /* \"lib/RLP.sol\":8280:8296  len -= WORD_SIZE */\n      0xff\n      and\n      dup2\n      sub\n      swap1\n      pop\n        /* \"lib/RLP.sol\":8255:8395  for (; len >= WORD_SIZE; len -= WORD_SIZE) {... */\n      jump(tag_340)\n    tag_341:\n        /* \"lib/RLP.sol\":8473:8485  uint256 mask */\n      0x00\n        /* \"lib/RLP.sol\":8513:8514  1 */\n      0x01\n        /* \"lib/RLP.sol\":8506:8509  len */\n      dup3\n        /* \"lib/RLP.sol\":363:365  32 */\n      0x20\n        /* \"lib/RLP.sol\":8494:8509  WORD_SIZE - len */\n      0xff\n      and\n      sub\n        /* \"lib/RLP.sol\":8488:8491  256 */\n      0x0100\n        /* \"lib/RLP.sol\":8488:8510  256**(WORD_SIZE - len) */\n      exp\n        /* \"lib/RLP.sol\":8488:8514  256**(WORD_SIZE - len) - 1 */\n      sub\n        /* \"lib/RLP.sol\":8473:8514  uint256 mask = 256**(WORD_SIZE - len) - 1 */\n      swap1\n      pop\n        /* \"lib/RLP.sol\":8567:8571  mask */\n      dup1\n        /* \"lib/RLP.sol\":8563:8572  not(mask) */\n      not\n        /* \"lib/RLP.sol\":8557:8560  src */\n      dup5\n        /* \"lib/RLP.sol\":8551:8561  mload(src) */\n      mload\n        /* \"lib/RLP.sol\":8547:8573  and(mload(src), not(mask)) */\n      and\n        /* \"lib/RLP.sol\":8626:8630  mask */\n      dup2\n        /* \"lib/RLP.sol\":8619:8623  dest */\n      dup5\n        /* \"lib/RLP.sol\":8613:8624  mload(dest) */\n      mload\n        /* \"lib/RLP.sol\":8609:8631  and(mload(dest), mask) */\n      and\n        /* \"lib/RLP.sol\":8683:8690  srcpart */\n      dup2\n        /* \"lib/RLP.sol\":8673:8681  destpart */\n      dup2\n        /* \"lib/RLP.sol\":8670:8691  or(destpart, srcpart) */\n      or\n        /* \"lib/RLP.sol\":8664:8668  dest */\n      dup6\n        /* \"lib/RLP.sol\":8657:8692  mstore(dest, or(destpart, srcpart)) */\n      mstore\n        /* \"lib/RLP.sol\":8527:8696  {... */\n      pop\n      pop\n      pop\n    tag_338:\n      pop\n      pop\n      pop\n      jump\t// out\n        /* \"lib/ECVerify.sol\":307:1141  function safer_ecrecover(... */\n    tag_214:\n        /* \"lib/ECVerify.sol\":406:410  bool */\n      0x00\n        /* \"lib/ECVerify.sol\":412:419  address */\n      dup1\n        /* \"lib/ECVerify.sol\":774:782  bool ret */\n      0x00\n        /* \"lib/ECVerify.sol\":786:798  address addr */\n      dup1\n        /* \"lib/ECVerify.sol\":835:839  0x40 */\n      0x40\n        /* \"lib/ECVerify.sol\":829:840  mload(0x40) */\n      mload\n        /* \"lib/ECVerify.sol\":857:861  hash */\n      dup9\n        /* \"lib/ECVerify.sol\":851:855  size */\n      dup2\n        /* \"lib/ECVerify.sol\":844:862  mstore(size, hash) */\n      mstore\n        /* \"lib/ECVerify.sol\":888:889  v */\n      dup8\n        /* \"lib/ECVerify.sol\":883:885  32 */\n      0x20\n        /* \"lib/ECVerify.sol\":877:881  size */\n      dup3\n        /* \"lib/ECVerify.sol\":873:886  add(size, 32) */\n      add\n        /* \"lib/ECVerify.sol\":866:890  mstore(add(size, 32), v) */\n      mstore\n        /* \"lib/ECVerify.sol\":916:917  r */\n      dup7\n        /* \"lib/ECVerify.sol\":911:913  64 */\n      0x40\n        /* \"lib/ECVerify.sol\":905:909  size */\n      dup3\n        /* \"lib/ECVerify.sol\":901:914  add(size, 64) */\n      add\n        /* \"lib/ECVerify.sol\":894:918  mstore(add(size, 64), r) */\n      mstore\n        /* \"lib/ECVerify.sol\":944:945  s */\n      dup6\n        /* \"lib/ECVerify.sol\":939:941  96 */\n      0x60\n        /* \"lib/ECVerify.sol\":933:937  size */\n      dup3\n        /* \"lib/ECVerify.sol\":929:942  add(size, 96) */\n      add\n        /* \"lib/ECVerify.sol\":922:946  mstore(add(size, 96), s) */\n      mstore\n        /* \"lib/ECVerify.sol\":1085:1087  32 */\n      0x20\n        /* \"lib/ECVerify.sol\":1079:1083  size */\n      dup2\n        /* \"lib/ECVerify.sol\":1074:1077  128 */\n      0x80\n        /* \"lib/ECVerify.sol\":1068:1072  size */\n      dup4\n        /* \"lib/ECVerify.sol\":1065:1066  0 */\n      0x00\n        /* \"lib/ECVerify.sol\":1062:1063  1 */\n      0x01\n        /* \"lib/ECVerify.sol\":1056:1060  3000 */\n      0x0bb8\n        /* \"lib/ECVerify.sol\":1051:1088  call(3000, 1, 0, size, 128, size, 32) */\n      call\n        /* \"lib/ECVerify.sol\":1044:1088  ret := call(3000, 1, 0, size, 128, size, 32) */\n      swap3\n      pop\n        /* \"lib/ECVerify.sol\":1106:1110  size */\n      dup1\n        /* \"lib/ECVerify.sol\":1100:1111  mload(size) */\n      mload\n        /* \"lib/ECVerify.sol\":1092:1111  addr := mload(size) */\n      swap2\n      pop\n        /* \"lib/ECVerify.sol\":812:1115  {... */\n      pop\n        /* \"lib/ECVerify.sol\":1127:1130  ret */\n      dup2\n        /* \"lib/ECVerify.sol\":1132:1136  addr */\n      dup2\n        /* \"lib/ECVerify.sol\":1119:1137  return (ret, addr) */\n      swap4\n      pop\n      swap4\n      pop\n      pop\n      pop\n        /* \"lib/ECVerify.sol\":307:1141  function safer_ecrecover(... */\n      swap5\n      pop\n      swap5\n      swap3\n      pop\n      pop\n      pop\n      jump\t// out\n        /* \"lib/MerklePatriciaProof.sol\":3241:3843  function _getNibbleArray(bytes memory b)... */\n    tag_220:\n        /* \"lib/MerklePatriciaProof.sol\":3310:3322  bytes memory */\n      0x60\n        /* \"lib/MerklePatriciaProof.sol\":3329:3349  bytes memory nibbles */\n      dup1\n        /* \"lib/MerklePatriciaProof.sol\":3368:3369  0 */\n      0x00\n        /* \"lib/MerklePatriciaProof.sol\":3357:3358  b */\n      dup4\n        /* \"lib/MerklePatriciaProof.sol\":3357:3365  b.length */\n      mload\n        /* \"lib/MerklePatriciaProof.sol\":3357:3369  b.length > 0 */\n      gt\n        /* \"lib/MerklePatriciaProof.sol\":3353:3822  if (b.length > 0) {... */\n      iszero\n      tag_345\n      jumpi\n        /* \"lib/MerklePatriciaProof.sol\":3376:3388  uint8 offset */\n      0x00\n        /* \"lib/MerklePatriciaProof.sol\":3393:3407  uint8 hpNibble */\n      dup1\n        /* \"lib/MerklePatriciaProof.sol\":3416:3442  _getNthNibbleOfBytes(0, b) */\n      tag_346\n        /* \"lib/MerklePatriciaProof.sol\":3437:3438  0 */\n      0x00\n        /* \"lib/MerklePatriciaProof.sol\":3440:3441  b */\n      dup7\n        /* \"lib/MerklePatriciaProof.sol\":3416:3436  _getNthNibbleOfBytes */\n      tag_347\n        /* \"lib/MerklePatriciaProof.sol\":3416:3442  _getNthNibbleOfBytes(0, b) */\n      jump\t// in\n    tag_346:\n        /* \"lib/MerklePatriciaProof.sol\":3410:3443  uint8(_getNthNibbleOfBytes(0, b)) */\n      0xf8\n      shr\n        /* \"lib/MerklePatriciaProof.sol\":3393:3443  uint8 hpNibble = uint8(_getNthNibbleOfBytes(0, b)) */\n      swap1\n      pop\n        /* \"lib/MerklePatriciaProof.sol\":3464:3465  1 */\n      0x01\n        /* \"lib/MerklePatriciaProof.sol\":3452:3460  hpNibble */\n      dup2\n        /* \"lib/MerklePatriciaProof.sol\":3452:3465  hpNibble == 1 */\n      0xff\n      and\n      eq\n        /* \"lib/MerklePatriciaProof.sol\":3452:3482  hpNibble == 1 || hpNibble == 3 */\n      dup1\n      tag_348\n      jumpi\n      pop\n        /* \"lib/MerklePatriciaProof.sol\":3481:3482  3 */\n      0x03\n        /* \"lib/MerklePatriciaProof.sol\":3469:3477  hpNibble */\n      dup2\n        /* \"lib/MerklePatriciaProof.sol\":3469:3482  hpNibble == 3 */\n      0xff\n      and\n      eq\n        /* \"lib/MerklePatriciaProof.sol\":3452:3482  hpNibble == 1 || hpNibble == 3 */\n    tag_348:\n        /* \"lib/MerklePatriciaProof.sol\":3448:3699  if (hpNibble == 1 || hpNibble == 3) {... */\n      iszero\n      tag_349\n      jumpi\n        /* \"lib/MerklePatriciaProof.sol\":3525:3526  1 */\n      0x01\n        /* \"lib/MerklePatriciaProof.sol\":3521:3522  2 */\n      0x02\n        /* \"lib/MerklePatriciaProof.sol\":3510:3511  b */\n      dup7\n        /* \"lib/MerklePatriciaProof.sol\":3510:3518  b.length */\n      mload\n        /* \"lib/MerklePatriciaProof.sol\":3510:3522  b.length * 2 */\n      mul\n        /* \"lib/MerklePatriciaProof.sol\":3510:3526  b.length * 2 - 1 */\n      sub\n        /* \"lib/MerklePatriciaProof.sol\":3500:3527  new bytes(b.length * 2 - 1) */\n      0xffffffffffffffff\n      dup2\n      gt\n        /* \"--CODEGEN--\":5:14   */\n      dup1\n        /* \"--CODEGEN--\":2:4   */\n      iszero\n      tag_350\n      jumpi\n        /* \"--CODEGEN--\":27:28   */\n      0x00\n        /* \"--CODEGEN--\":24:25   */\n      dup1\n        /* \"--CODEGEN--\":17:29   */\n      revert\n        /* \"--CODEGEN--\":2:4   */\n    tag_350:\n        /* \"lib/MerklePatriciaProof.sol\":3500:3527  new bytes(b.length * 2 - 1) */\n      pop\n      mload(0x40)\n      swap1\n      dup1\n      dup3\n      mstore\n      dup1\n      0x1f\n      add\n      not(0x1f)\n      and\n      0x20\n      add\n      dup3\n      add\n      0x40\n      mstore\n      dup1\n      iszero\n      tag_351\n      jumpi\n      dup2\n      0x20\n      add\n        /* \"--CODEGEN--\":29:30   */\n      0x01\n        /* \"--CODEGEN--\":21:27   */\n      dup3\n        /* \"--CODEGEN--\":17:31   */\n      mul\n        /* \"--CODEGEN--\":124:128   */\n      dup1\n        /* \"--CODEGEN--\":108:122   */\n      calldatasize\n        /* \"--CODEGEN--\":100:106   */\n      dup4\n        /* \"--CODEGEN--\":87:129   */\n      calldatacopy\n        /* \"--CODEGEN--\":155:159   */\n      dup1\n        /* \"--CODEGEN--\":147:153   */\n      dup3\n        /* \"--CODEGEN--\":143:160   */\n      add\n        /* \"--CODEGEN--\":133:160   */\n      swap2\n      pop\n        /* \"--CODEGEN--\":0:164   */\n      pop\n        /* \"lib/MerklePatriciaProof.sol\":3500:3527  new bytes(b.length * 2 - 1) */\n      swap1\n      pop\n    tag_351:\n      pop\n        /* \"lib/MerklePatriciaProof.sol\":3490:3527  nibbles = new bytes(b.length * 2 - 1) */\n      swap3\n      pop\n        /* \"lib/MerklePatriciaProof.sol\":3533:3549  bytes1 oddNibble */\n      0x00\n        /* \"lib/MerklePatriciaProof.sol\":3552:3578  _getNthNibbleOfBytes(1, b) */\n      tag_352\n        /* \"lib/MerklePatriciaProof.sol\":3573:3574  1 */\n      0x01\n        /* \"lib/MerklePatriciaProof.sol\":3576:3577  b */\n      dup8\n        /* \"lib/MerklePatriciaProof.sol\":3552:3572  _getNthNibbleOfBytes */\n      tag_347\n        /* \"lib/MerklePatriciaProof.sol\":3552:3578  _getNthNibbleOfBytes(1, b) */\n      jump\t// in\n    tag_352:\n        /* \"lib/MerklePatriciaProof.sol\":3533:3578  bytes1 oddNibble = _getNthNibbleOfBytes(1, b) */\n      swap1\n      pop\n        /* \"lib/MerklePatriciaProof.sol\":3597:3606  oddNibble */\n      dup1\n        /* \"lib/MerklePatriciaProof.sol\":3584:3591  nibbles */\n      dup5\n        /* \"lib/MerklePatriciaProof.sol\":3592:3593  0 */\n      0x00\n        /* \"lib/MerklePatriciaProof.sol\":3584:3594  nibbles[0] */\n      dup2\n      mload\n      dup2\n      lt\n      tag_353\n      jumpi\n      invalid\n    tag_353:\n      0x20\n      add\n      add\n        /* \"lib/MerklePatriciaProof.sol\":3584:3606  nibbles[0] = oddNibble */\n      swap1\n      not(0xffffffffffffffffffffffffffffffffffffffffffffffffffffffffffffff)\n      and\n      swap1\n      dup2\n      0x00\n      byte\n      swap1\n      mstore8\n      pop\n        /* \"lib/MerklePatriciaProof.sol\":3621:3622  1 */\n      0x01\n        /* \"lib/MerklePatriciaProof.sol\":3612:3622  offset = 1 */\n      swap3\n      pop\n        /* \"lib/MerklePatriciaProof.sol\":3448:3699  if (hpNibble == 1 || hpNibble == 3) {... */\n      pop\n      jump(tag_354)\n    tag_349:\n        /* \"lib/MerklePatriciaProof.sol\":3675:3676  2 */\n      0x02\n        /* \"lib/MerklePatriciaProof.sol\":3671:3672  2 */\n      dup1\n        /* \"lib/MerklePatriciaProof.sol\":3660:3661  b */\n      dup7\n        /* \"lib/MerklePatriciaProof.sol\":3660:3668  b.length */\n      mload\n        /* \"lib/MerklePatriciaProof.sol\":3660:3672  b.length * 2 */\n      mul\n        /* \"lib/MerklePatriciaProof.sol\":3660:3676  b.length * 2 - 2 */\n      sub\n        /* \"lib/MerklePatriciaProof.sol\":3650:3677  new bytes(b.length * 2 - 2) */\n      0xffffffffffffffff\n      dup2\n      gt\n        /* \"--CODEGEN--\":5:14   */\n      dup1\n        /* \"--CODEGEN--\":2:4   */\n      iszero\n      tag_355\n      jumpi\n        /* \"--CODEGEN--\":27:28   */\n      0x00\n        /* \"--CODEGEN--\":24:25   */\n      dup1\n        /* \"--CODEGEN--\":17:29   */\n      revert\n        /* \"--CODEGEN--\":2:4   */\n    tag_355:\n        /* \"lib/MerklePatriciaProof.sol\":3650:3677  new bytes(b.length * 2 - 2) */\n      pop\n      mload(0x40)\n      swap1\n      dup1\n      dup3\n      mstore\n      dup1\n      0x1f\n      add\n      not(0x1f)\n      and\n      0x20\n      add\n      dup3\n      add\n      0x40\n      mstore\n      dup1\n      iszero\n      tag_356\n      jumpi\n      dup2\n      0x20\n      add\n        /* \"--CODEGEN--\":29:30   */\n      0x01\n        /* \"--CODEGEN--\":21:27   */\n      dup3\n        /* \"--CODEGEN--\":17:31   */\n      mul\n        /* \"--CODEGEN--\":124:128   */\n      dup1\n        /* \"--CODEGEN--\":108:122   */\n      calldatasize\n        /* \"--CODEGEN--\":100:106   */\n      dup4\n        /* \"--CODEGEN--\":87:129   */\n      calldatacopy\n        /* \"--CODEGEN--\":155:159   */\n      dup1\n        /* \"--CODEGEN--\":147:153   */\n      dup3\n        /* \"--CODEGEN--\":143:160   */\n      add\n        /* \"--CODEGEN--\":133:160   */\n      swap2\n      pop\n        /* \"--CODEGEN--\":0:164   */\n      pop\n        /* \"lib/MerklePatriciaProof.sol\":3650:3677  new bytes(b.length * 2 - 2) */\n      swap1\n      pop\n    tag_356:\n      pop\n        /* \"lib/MerklePatriciaProof.sol\":3640:3677  nibbles = new bytes(b.length * 2 - 2) */\n      swap3\n      pop\n        /* \"lib/MerklePatriciaProof.sol\":3692:3693  0 */\n      0x00\n        /* \"lib/MerklePatriciaProof.sol\":3683:3693  offset = 0 */\n      swap2\n      pop\n        /* \"lib/MerklePatriciaProof.sol\":3448:3699  if (hpNibble == 1 || hpNibble == 3) {... */\n    tag_354:\n        /* \"lib/MerklePatriciaProof.sol\":3709:3718  uint256 i */\n      0x00\n        /* \"lib/MerklePatriciaProof.sol\":3721:3727  offset */\n      dup3\n        /* \"lib/MerklePatriciaProof.sol\":3709:3727  uint256 i = offset */\n      0xff\n      and\n      swap1\n      pop\n        /* \"lib/MerklePatriciaProof.sol\":3704:3818  for (uint256 i = offset; i < nibbles.length; i++) {... */\n    tag_357:\n        /* \"lib/MerklePatriciaProof.sol\":3733:3740  nibbles */\n      dup4\n        /* \"lib/MerklePatriciaProof.sol\":3733:3747  nibbles.length */\n      mload\n        /* \"lib/MerklePatriciaProof.sol\":3729:3730  i */\n      dup2\n        /* \"lib/MerklePatriciaProof.sol\":3729:3747  i < nibbles.length */\n      lt\n        /* \"lib/MerklePatriciaProof.sol\":3704:3818  for (uint256 i = offset; i < nibbles.length; i++) {... */\n      iszero\n      tag_358\n      jumpi\n        /* \"lib/MerklePatriciaProof.sol\":3773:3812  _getNthNibbleOfBytes(i - offset + 2, b) */\n      tag_360\n        /* \"lib/MerklePatriciaProof.sol\":3807:3808  2 */\n      0x02\n        /* \"lib/MerklePatriciaProof.sol\":3798:3804  offset */\n      dup5\n        /* \"lib/MerklePatriciaProof.sol\":3794:3804  i - offset */\n      0xff\n      and\n        /* \"lib/MerklePatriciaProof.sol\":3794:3795  i */\n      dup4\n        /* \"lib/MerklePatriciaProof.sol\":3794:3804  i - offset */\n      sub\n        /* \"lib/MerklePatriciaProof.sol\":3794:3808  i - offset + 2 */\n      add\n        /* \"lib/MerklePatriciaProof.sol\":3810:3811  b */\n      dup8\n        /* \"lib/MerklePatriciaProof.sol\":3773:3793  _getNthNibbleOfBytes */\n      tag_347\n        /* \"lib/MerklePatriciaProof.sol\":3773:3812  _getNthNibbleOfBytes(i - offset + 2, b) */\n      jump\t// in\n    tag_360:\n        /* \"lib/MerklePatriciaProof.sol\":3760:3767  nibbles */\n      dup5\n        /* \"lib/MerklePatriciaProof.sol\":3768:3769  i */\n      dup3\n        /* \"lib/MerklePatriciaProof.sol\":3760:3770  nibbles[i] */\n      dup2\n      mload\n      dup2\n      lt\n      tag_361\n      jumpi\n      invalid\n    tag_361:\n      0x20\n      add\n      add\n        /* \"lib/MerklePatriciaProof.sol\":3760:3812  nibbles[i] = _getNthNibbleOfBytes(i - offset + 2, b) */\n      swap1\n      not(0xffffffffffffffffffffffffffffffffffffffffffffffffffffffffffffff)\n      and\n      swap1\n      dup2\n      0x00\n      byte\n      swap1\n      mstore8\n      pop\n        /* \"lib/MerklePatriciaProof.sol\":3749:3752  i++ */\n      dup1\n      dup1\n      0x01\n      add\n      swap2\n      pop\n      pop\n        /* \"lib/MerklePatriciaProof.sol\":3704:3818  for (uint256 i = offset; i < nibbles.length; i++) {... */\n      jump(tag_357)\n    tag_358:\n      pop\n        /* \"lib/MerklePatriciaProof.sol\":3353:3822  if (b.length > 0) {... */\n      pop\n      pop\n    tag_345:\n        /* \"lib/MerklePatriciaProof.sol\":3832:3839  nibbles */\n      dup1\n        /* \"lib/MerklePatriciaProof.sol\":3825:3839  return nibbles */\n      swap2\n      pop\n      pop\n        /* \"lib/MerklePatriciaProof.sol\":3241:3843  function _getNibbleArray(bytes memory b)... */\n      swap2\n      swap1\n      pop\n      jump\t// out\n        /* \"lib/RLP.sol\":4817:5061  function toUintStrict(RLPItem memory item) internal pure returns (uint256) {... */\n    tag_241:\n        /* \"lib/RLP.sol\":4883:4890  uint256 */\n      0x00\n        /* \"lib/RLP.sol\":4937:4939  33 */\n      0x21\n        /* \"lib/RLP.sol\":4925:4929  item */\n      dup3\n        /* \"lib/RLP.sol\":4925:4933  item.len */\n      0x00\n      add\n      mload\n        /* \"lib/RLP.sol\":4925:4939  item.len == 33 */\n      eq\n        /* \"lib/RLP.sol\":4917:4940  require(item.len == 33) */\n      tag_363\n      jumpi\n        /* \"--CODEGEN--\":12:13   */\n      0x00\n        /* \"--CODEGEN--\":9:10   */\n      dup1\n        /* \"--CODEGEN--\":2:14   */\n      revert\n        /* \"lib/RLP.sol\":4917:4940  require(item.len == 33) */\n    tag_363:\n        /* \"lib/RLP.sol\":4945:4959  uint256 result */\n      0x00\n        /* \"lib/RLP.sol\":4963:4977  uint256 memPtr */\n      dup1\n        /* \"lib/RLP.sol\":4994:4995  1 */\n      0x01\n        /* \"lib/RLP.sol\":4980:4984  item */\n      dup5\n        /* \"lib/RLP.sol\":4980:4991  item.memPtr */\n      0x20\n      add\n      mload\n        /* \"lib/RLP.sol\":4980:4995  item.memPtr + 1 */\n      add\n        /* \"lib/RLP.sol\":4963:4995  uint256 memPtr = item.memPtr + 1 */\n      swap1\n      pop\n        /* \"lib/RLP.sol\":5029:5035  memPtr */\n      dup1\n        /* \"lib/RLP.sol\":5023:5036  mload(memPtr) */\n      mload\n        /* \"lib/RLP.sol\":5013:5036  result := mload(memPtr) */\n      swap2\n      pop\n        /* \"lib/RLP.sol\":5051:5057  result */\n      dup2\n        /* \"lib/RLP.sol\":5044:5057  return result */\n      swap3\n      pop\n      pop\n      pop\n        /* \"lib/RLP.sol\":4817:5061  function toUintStrict(RLPItem memory item) internal pure returns (uint256) {... */\n      swap2\n      swap1\n      pop\n      jump\t// out\n        /* \"lib/MerklePatriciaProof.sol\":2395:3207  function _nibblesToTraverse(... */\n    tag_247:\n        /* \"lib/MerklePatriciaProof.sol\":2523:2530  uint256 */\n      0x00\n        /* \"lib/MerklePatriciaProof.sol\":2536:2547  uint256 len */\n      dup1\n        /* \"lib/MerklePatriciaProof.sol\":2724:2748  bytes memory partialPath */\n      0x60\n        /* \"lib/MerklePatriciaProof.sol\":2751:2786  _getNibbleArray(encodedPartialPath) */\n      tag_365\n        /* \"lib/MerklePatriciaProof.sol\":2767:2785  encodedPartialPath */\n      dup7\n        /* \"lib/MerklePatriciaProof.sol\":2751:2766  _getNibbleArray */\n      tag_220\n        /* \"lib/MerklePatriciaProof.sol\":2751:2786  _getNibbleArray(encodedPartialPath) */\n      jump\t// in\n    tag_365:\n        /* \"lib/MerklePatriciaProof.sol\":2724:2786  bytes memory partialPath = _getNibbleArray(encodedPartialPath) */\n      swap1\n      pop\n        /* \"lib/MerklePatriciaProof.sol\":2790:2813  bytes memory slicedPath */\n      0x60\n        /* \"lib/MerklePatriciaProof.sol\":2826:2837  partialPath */\n      dup2\n        /* \"lib/MerklePatriciaProof.sol\":2826:2844  partialPath.length */\n      mload\n        /* \"lib/MerklePatriciaProof.sol\":2816:2845  new bytes(partialPath.length) */\n      0xffffffffffffffff\n      dup2\n      gt\n        /* \"--CODEGEN--\":5:14   */\n      dup1\n        /* \"--CODEGEN--\":2:4   */\n      iszero\n      tag_366\n      jumpi\n        /* \"--CODEGEN--\":27:28   */\n      0x00\n        /* \"--CODEGEN--\":24:25   */\n      dup1\n        /* \"--CODEGEN--\":17:29   */\n      revert\n        /* \"--CODEGEN--\":2:4   */\n    tag_366:\n        /* \"lib/MerklePatriciaProof.sol\":2816:2845  new bytes(partialPath.length) */\n      pop\n      mload(0x40)\n      swap1\n      dup1\n      dup3\n      mstore\n      dup1\n      0x1f\n      add\n      not(0x1f)\n      and\n      0x20\n      add\n      dup3\n      add\n      0x40\n      mstore\n      dup1\n      iszero\n      tag_367\n      jumpi\n      dup2\n      0x20\n      add\n        /* \"--CODEGEN--\":29:30   */\n      0x01\n        /* \"--CODEGEN--\":21:27   */\n      dup3\n        /* \"--CODEGEN--\":17:31   */\n      mul\n        /* \"--CODEGEN--\":124:128   */\n      dup1\n        /* \"--CODEGEN--\":108:122   */\n      calldatasize\n        /* \"--CODEGEN--\":100:106   */\n      dup4\n        /* \"--CODEGEN--\":87:129   */\n      calldatacopy\n        /* \"--CODEGEN--\":155:159   */\n      dup1\n        /* \"--CODEGEN--\":147:153   */\n      dup3\n        /* \"--CODEGEN--\":143:160   */\n      add\n        /* \"--CODEGEN--\":133:160   */\n      swap2\n      pop\n        /* \"--CODEGEN--\":0:164   */\n      pop\n        /* \"lib/MerklePatriciaProof.sol\":2816:2845  new bytes(partialPath.length) */\n      swap1\n      pop\n    tag_367:\n      pop\n        /* \"lib/MerklePatriciaProof.sol\":2790:2845  bytes memory slicedPath = new bytes(partialPath.length) */\n      swap1\n      pop\n        /* \"lib/MerklePatriciaProof.sol\":2938:2947  uint256 i */\n      0x00\n        /* \"lib/MerklePatriciaProof.sol\":2950:2957  pathPtr */\n      dup6\n        /* \"lib/MerklePatriciaProof.sol\":2938:2957  uint256 i = pathPtr */\n      swap1\n      pop\n        /* \"lib/MerklePatriciaProof.sol\":2933:3076  for (uint256 i = pathPtr; i < pathPtr + partialPath.length; i++) {... */\n    tag_368:\n        /* \"lib/MerklePatriciaProof.sol\":2973:2984  partialPath */\n      dup3\n        /* \"lib/MerklePatriciaProof.sol\":2973:2991  partialPath.length */\n      mload\n        /* \"lib/MerklePatriciaProof.sol\":2963:2970  pathPtr */\n      dup7\n        /* \"lib/MerklePatriciaProof.sol\":2963:2991  pathPtr + partialPath.length */\n      add\n        /* \"lib/MerklePatriciaProof.sol\":2959:2960  i */\n      dup2\n        /* \"lib/MerklePatriciaProof.sol\":2959:2991  i < pathPtr + partialPath.length */\n      lt\n        /* \"lib/MerklePatriciaProof.sol\":2933:3076  for (uint256 i = pathPtr; i < pathPtr + partialPath.length; i++) {... */\n      iszero\n      tag_369\n      jumpi\n        /* \"lib/MerklePatriciaProof.sol\":3003:3020  bytes1 pathNibble */\n      0x00\n        /* \"lib/MerklePatriciaProof.sol\":3023:3027  path */\n      dup8\n        /* \"lib/MerklePatriciaProof.sol\":3028:3029  i */\n      dup3\n        /* \"lib/MerklePatriciaProof.sol\":3023:3030  path[i] */\n      dup2\n      mload\n      dup2\n      lt\n      tag_371\n      jumpi\n      invalid\n    tag_371:\n      0x20\n      add\n      add\n      mload\n      0xf8\n      shr\n      0xf8\n      shl\n        /* \"lib/MerklePatriciaProof.sol\":3003:3030  bytes1 pathNibble = path[i] */\n      swap1\n      pop\n        /* \"lib/MerklePatriciaProof.sol\":3061:3071  pathNibble */\n      dup1\n        /* \"lib/MerklePatriciaProof.sol\":3035:3045  slicedPath */\n      dup4\n        /* \"lib/MerklePatriciaProof.sol\":3050:3057  pathPtr */\n      dup9\n        /* \"lib/MerklePatriciaProof.sol\":3046:3047  i */\n      dup5\n        /* \"lib/MerklePatriciaProof.sol\":3046:3057  i - pathPtr */\n      sub\n        /* \"lib/MerklePatriciaProof.sol\":3035:3058  slicedPath[i - pathPtr] */\n      dup2\n      mload\n      dup2\n      lt\n      tag_372\n      jumpi\n      invalid\n    tag_372:\n      0x20\n      add\n      add\n        /* \"lib/MerklePatriciaProof.sol\":3035:3071  slicedPath[i - pathPtr] = pathNibble */\n      swap1\n      not(0xffffffffffffffffffffffffffffffffffffffffffffffffffffffffffffff)\n      and\n      swap1\n      dup2\n      0x00\n      byte\n      swap1\n      mstore8\n      pop\n        /* \"lib/MerklePatriciaProof.sol\":2933:3076  for (uint256 i = pathPtr; i < pathPtr + partialPath.length; i++) {... */\n      pop\n        /* \"lib/MerklePatriciaProof.sol\":2993:2996  i++ */\n      dup1\n      dup1\n      0x01\n      add\n      swap2\n      pop\n      pop\n        /* \"lib/MerklePatriciaProof.sol\":2933:3076  for (uint256 i = pathPtr; i < pathPtr + partialPath.length; i++) {... */\n      jump(tag_368)\n    tag_369:\n      pop\n        /* \"lib/MerklePatriciaProof.sol\":3120:3130  slicedPath */\n      dup1\n        /* \"lib/MerklePatriciaProof.sol\":3110:3131  keccak256(slicedPath) */\n      dup1\n      mload\n      swap1\n      0x20\n      add\n      keccak256\n        /* \"lib/MerklePatriciaProof.sol\":3094:3105  partialPath */\n      dup3\n        /* \"lib/MerklePatriciaProof.sol\":3084:3106  keccak256(partialPath) */\n      dup1\n      mload\n      swap1\n      0x20\n      add\n      keccak256\n        /* \"lib/MerklePatriciaProof.sol\":3084:3131  keccak256(partialPath) == keccak256(slicedPath) */\n      eq\n        /* \"lib/MerklePatriciaProof.sol\":3080:3190  if (keccak256(partialPath) == keccak256(slicedPath)) {... */\n      iszero\n      tag_373\n      jumpi\n        /* \"lib/MerklePatriciaProof.sol\":3144:3155  partialPath */\n      dup2\n        /* \"lib/MerklePatriciaProof.sol\":3144:3162  partialPath.length */\n      mload\n        /* \"lib/MerklePatriciaProof.sol\":3138:3162  len = partialPath.length */\n      swap3\n      pop\n        /* \"lib/MerklePatriciaProof.sol\":3080:3190  if (keccak256(partialPath) == keccak256(slicedPath)) {... */\n      jump(tag_374)\n    tag_373:\n        /* \"lib/MerklePatriciaProof.sol\":3184:3185  0 */\n      0x00\n        /* \"lib/MerklePatriciaProof.sol\":3178:3185  len = 0 */\n      swap3\n      pop\n        /* \"lib/MerklePatriciaProof.sol\":3080:3190  if (keccak256(partialPath) == keccak256(slicedPath)) {... */\n    tag_374:\n        /* \"lib/MerklePatriciaProof.sol\":3200:3203  len */\n      dup3\n        /* \"lib/MerklePatriciaProof.sol\":3193:3203  return len */\n      swap4\n      pop\n      pop\n      pop\n      pop\n        /* \"lib/MerklePatriciaProof.sol\":2395:3207  function _nibblesToTraverse(... */\n      swap4\n      swap3\n      pop\n      pop\n      pop\n      jump\t// out\n        /* \"lib/RLP.sol\":3719:3889  function toAddress(RLPItem memory item) internal pure returns (address) {... */\n    tag_275:\n        /* \"lib/RLP.sol\":3782:3789  address */\n      0x00\n        /* \"lib/RLP.sol\":3849:3851  21 */\n      0x15\n        /* \"lib/RLP.sol\":3837:3841  item */\n      dup3\n        /* \"lib/RLP.sol\":3837:3845  item.len */\n      0x00\n      add\n      mload\n        /* \"lib/RLP.sol\":3837:3851  item.len == 21 */\n      eq\n        /* \"lib/RLP.sol\":3829:3852  require(item.len == 21) */\n      tag_376\n      jumpi\n        /* \"--CODEGEN--\":12:13   */\n      0x00\n        /* \"--CODEGEN--\":9:10   */\n      dup1\n        /* \"--CODEGEN--\":2:14   */\n      revert\n        /* \"lib/RLP.sol\":3829:3852  require(item.len == 21) */\n    tag_376:\n        /* \"lib/RLP.sol\":3872:3884  toUint(item) */\n      tag_377\n        /* \"lib/RLP.sol\":3879:3883  item */\n      dup3\n        /* \"lib/RLP.sol\":3872:3878  toUint */\n      tag_87\n        /* \"lib/RLP.sol\":3872:3884  toUint(item) */\n      jump\t// in\n    tag_377:\n        /* \"lib/RLP.sol\":3857:3885  return address(toUint(item)) */\n      swap1\n      pop\n        /* \"lib/RLP.sol\":3719:3889  function toAddress(RLPItem memory item) internal pure returns (address) {... */\n      swap2\n      swap1\n      pop\n      jump\t// out\n        /* \"lib/BytesLib.sol\":5599:6028  function packedBytesFromUint(uint256 _num)... */\n    tag_295:\n        /* \"lib/BytesLib.sol\":5671:5688  bytes memory _ret */\n      0x60\n        /* \"lib/BytesLib.sol\":5695:5716  bytes memory _bytes32 */\n      dup1\n        /* \"lib/BytesLib.sol\":5719:5733  fromUint(_num) */\n      tag_379\n        /* \"lib/BytesLib.sol\":5728:5732  _num */\n      dup4\n        /* \"lib/BytesLib.sol\":5719:5727  fromUint */\n      tag_380\n        /* \"lib/BytesLib.sol\":5719:5733  fromUint(_num) */\n      jump\t// in\n    tag_379:\n        /* \"lib/BytesLib.sol\":5695:5733  bytes memory _bytes32 = fromUint(_num) */\n      swap1\n      pop\n        /* \"lib/BytesLib.sol\":5737:5756  uint256 _startIndex */\n      0x00\n        /* \"lib/BytesLib.sol\":5765:5774  uint256 i */\n      dup1\n        /* \"lib/BytesLib.sol\":5777:5778  0 */\n      0x00\n        /* \"lib/BytesLib.sol\":5765:5778  uint256 i = 0 */\n      swap1\n      pop\n        /* \"lib/BytesLib.sol\":5760:5883  for (uint256 i = 0; i < _bytes32.length; i++) {... */\n    tag_381:\n        /* \"lib/BytesLib.sol\":5784:5792  _bytes32 */\n      dup3\n        /* \"lib/BytesLib.sol\":5784:5799  _bytes32.length */\n      mload\n        /* \"lib/BytesLib.sol\":5780:5781  i */\n      dup2\n        /* \"lib/BytesLib.sol\":5780:5799  i < _bytes32.length */\n      lt\n        /* \"lib/BytesLib.sol\":5760:5883  for (uint256 i = 0; i < _bytes32.length; i++) {... */\n      iszero\n      tag_382\n      jumpi\n        /* \"lib/BytesLib.sol\":5837:5838  0 */\n      0x00\n        /* \"lib/BytesLib.sol\":5830:5839  bytes1(0) */\n      0xf8\n      shl\n        /* \"lib/BytesLib.sol\":5815:5839  _bytes32[i] != bytes1(0) */\n      not(0xffffffffffffffffffffffffffffffffffffffffffffffffffffffffffffff)\n      and\n        /* \"lib/BytesLib.sol\":5815:5823  _bytes32 */\n      dup4\n        /* \"lib/BytesLib.sol\":5824:5825  i */\n      dup3\n        /* \"lib/BytesLib.sol\":5815:5826  _bytes32[i] */\n      dup2\n      mload\n      dup2\n      lt\n      tag_384\n      jumpi\n      invalid\n    tag_384:\n      0x20\n      add\n      add\n      mload\n      0xf8\n      shr\n      0xf8\n      shl\n        /* \"lib/BytesLib.sol\":5815:5839  _bytes32[i] != bytes1(0) */\n      not(0xffffffffffffffffffffffffffffffffffffffffffffffffffffffffffffff)\n      and\n      eq\n        /* \"lib/BytesLib.sol\":5811:5879  if (_bytes32[i] != bytes1(0)) {... */\n      tag_385\n      jumpi\n        /* \"lib/BytesLib.sol\":5861:5862  i */\n      dup1\n        /* \"lib/BytesLib.sol\":5847:5862  _startIndex = i */\n      swap2\n      pop\n        /* \"lib/BytesLib.sol\":5868:5873  break */\n      jump(tag_382)\n        /* \"lib/BytesLib.sol\":5811:5879  if (_bytes32[i] != bytes1(0)) {... */\n    tag_385:\n        /* \"lib/BytesLib.sol\":5801:5804  i++ */\n      dup1\n      dup1\n      0x01\n      add\n      swap2\n      pop\n      pop\n        /* \"lib/BytesLib.sol\":5760:5883  for (uint256 i = 0; i < _bytes32.length; i++) {... */\n      jump(tag_381)\n    tag_382:\n      pop\n        /* \"lib/BytesLib.sol\":5908:5919  _startIndex */\n      dup1\n        /* \"lib/BytesLib.sol\":5903:5905  32 */\n      0x20\n        /* \"lib/BytesLib.sol\":5903:5919  32 - _startIndex */\n      sub\n        /* \"lib/BytesLib.sol\":5893:5920  new bytes(32 - _startIndex) */\n      0xffffffffffffffff\n      dup2\n      gt\n        /* \"--CODEGEN--\":5:14   */\n      dup1\n        /* \"--CODEGEN--\":2:4   */\n      iszero\n      tag_386\n      jumpi\n        /* \"--CODEGEN--\":27:28   */\n      0x00\n        /* \"--CODEGEN--\":24:25   */\n      dup1\n        /* \"--CODEGEN--\":17:29   */\n      revert\n        /* \"--CODEGEN--\":2:4   */\n    tag_386:\n        /* \"lib/BytesLib.sol\":5893:5920  new bytes(32 - _startIndex) */\n      pop\n      mload(0x40)\n      swap1\n      dup1\n      dup3\n      mstore\n      dup1\n      0x1f\n      add\n      not(0x1f)\n      and\n      0x20\n      add\n      dup3\n      add\n      0x40\n      mstore\n      dup1\n      iszero\n      tag_387\n      jumpi\n      dup2\n      0x20\n      add\n        /* \"--CODEGEN--\":29:30   */\n      0x01\n        /* \"--CODEGEN--\":21:27   */\n      dup3\n        /* \"--CODEGEN--\":17:31   */\n      mul\n        /* \"--CODEGEN--\":124:128   */\n      dup1\n        /* \"--CODEGEN--\":108:122   */\n      calldatasize\n        /* \"--CODEGEN--\":100:106   */\n      dup4\n        /* \"--CODEGEN--\":87:129   */\n      calldatacopy\n        /* \"--CODEGEN--\":155:159   */\n      dup1\n        /* \"--CODEGEN--\":147:153   */\n      dup3\n        /* \"--CODEGEN--\":143:160   */\n      add\n        /* \"--CODEGEN--\":133:160   */\n      swap2\n      pop\n        /* \"--CODEGEN--\":0:164   */\n      pop\n        /* \"lib/BytesLib.sol\":5893:5920  new bytes(32 - _startIndex) */\n      swap1\n      pop\n    tag_387:\n      pop\n        /* \"lib/BytesLib.sol\":5886:5920  _ret = new bytes(32 - _startIndex) */\n      swap3\n      pop\n        /* \"lib/BytesLib.sol\":5929:5938  uint256 i */\n      0x00\n        /* \"lib/BytesLib.sol\":5941:5952  _startIndex */\n      dup2\n        /* \"lib/BytesLib.sol\":5929:5952  uint256 i = _startIndex */\n      swap1\n      pop\n        /* \"lib/BytesLib.sol\":5924:6025  for (uint256 i = _startIndex; i < _bytes32.length; i++) {... */\n    tag_388:\n        /* \"lib/BytesLib.sol\":5958:5966  _bytes32 */\n      dup3\n        /* \"lib/BytesLib.sol\":5958:5973  _bytes32.length */\n      mload\n        /* \"lib/BytesLib.sol\":5954:5955  i */\n      dup2\n        /* \"lib/BytesLib.sol\":5954:5973  i < _bytes32.length */\n      lt\n        /* \"lib/BytesLib.sol\":5924:6025  for (uint256 i = _startIndex; i < _bytes32.length; i++) {... */\n      iszero\n      tag_389\n      jumpi\n        /* \"lib/BytesLib.sol\":6009:6017  _bytes32 */\n      dup3\n        /* \"lib/BytesLib.sol\":6018:6019  i */\n      dup2\n        /* \"lib/BytesLib.sol\":6009:6020  _bytes32[i] */\n      dup2\n      mload\n      dup2\n      lt\n      tag_391\n      jumpi\n      invalid\n    tag_391:\n      0x20\n      add\n      add\n      mload\n      0xf8\n      shr\n      0xf8\n      shl\n        /* \"lib/BytesLib.sol\":5985:5989  _ret */\n      dup5\n        /* \"lib/BytesLib.sol\":5994:6005  _startIndex */\n      dup4\n        /* \"lib/BytesLib.sol\":5990:5991  i */\n      dup4\n        /* \"lib/BytesLib.sol\":5990:6005  i - _startIndex */\n      sub\n        /* \"lib/BytesLib.sol\":5985:6006  _ret[i - _startIndex] */\n      dup2\n      mload\n      dup2\n      lt\n      tag_392\n      jumpi\n      invalid\n    tag_392:\n      0x20\n      add\n      add\n        /* \"lib/BytesLib.sol\":5985:6020  _ret[i - _startIndex] = _bytes32[i] */\n      swap1\n      not(0xffffffffffffffffffffffffffffffffffffffffffffffffffffffffffffff)\n      and\n      swap1\n      dup2\n      0x00\n      byte\n      swap1\n      mstore8\n      pop\n        /* \"lib/BytesLib.sol\":5975:5978  i++ */\n      dup1\n      dup1\n      0x01\n      add\n      swap2\n      pop\n      pop\n        /* \"lib/BytesLib.sol\":5924:6025  for (uint256 i = _startIndex; i < _bytes32.length; i++) {... */\n      jump(tag_388)\n    tag_389:\n      pop\n        /* \"lib/BytesLib.sol\":5599:6028  function packedBytesFromUint(uint256 _num)... */\n      pop\n      pop\n      swap2\n      swap1\n      pop\n      jump\t// out\n        /* \"lib/RLPEncode.sol\":655:948  function encodeList(bytes[] memory self)... */\n    tag_308:\n        /* \"lib/RLPEncode.sol\":725:737  bytes memory */\n      0x60\n        /* \"lib/RLPEncode.sol\":744:764  bytes memory encoded */\n      dup1\n        /* \"lib/RLPEncode.sol\":773:782  uint256 i */\n      0x00\n        /* \"lib/RLPEncode.sol\":785:786  0 */\n      dup1\n        /* \"lib/RLPEncode.sol\":773:786  uint256 i = 0 */\n      swap1\n      pop\n        /* \"lib/RLPEncode.sol\":768:875  for (uint256 i = 0; i < self.length; i++) {... */\n    tag_394:\n        /* \"lib/RLPEncode.sol\":792:796  self */\n      dup4\n        /* \"lib/RLPEncode.sol\":792:803  self.length */\n      mload\n        /* \"lib/RLPEncode.sol\":788:789  i */\n      dup2\n        /* \"lib/RLPEncode.sol\":788:803  i < self.length */\n      lt\n        /* \"lib/RLPEncode.sol\":768:875  for (uint256 i = 0; i < self.length; i++) {... */\n      iszero\n      tag_395\n      jumpi\n        /* \"lib/RLPEncode.sol\":825:870  BytesLib.concat(encoded, encodeItem(self[i])) */\n      tag_397\n        /* \"lib/RLPEncode.sol\":841:848  encoded */\n      dup3\n        /* \"lib/RLPEncode.sol\":850:869  encodeItem(self[i]) */\n      tag_398\n        /* \"lib/RLPEncode.sol\":861:865  self */\n      dup7\n        /* \"lib/RLPEncode.sol\":866:867  i */\n      dup5\n        /* \"lib/RLPEncode.sol\":861:868  self[i] */\n      dup2\n      mload\n      dup2\n      lt\n      tag_399\n      jumpi\n      invalid\n    tag_399:\n      0x20\n      mul\n      0x20\n      add\n      add\n      mload\n        /* \"lib/RLPEncode.sol\":850:860  encodeItem */\n      tag_400\n        /* \"lib/RLPEncode.sol\":850:869  encodeItem(self[i]) */\n      jump\t// in\n    tag_398:\n        /* \"lib/RLPEncode.sol\":825:840  BytesLib.concat */\n      tag_401\n        /* \"lib/RLPEncode.sol\":825:870  BytesLib.concat(encoded, encodeItem(self[i])) */\n      jump\t// in\n    tag_397:\n        /* \"lib/RLPEncode.sol\":815:870  encoded = BytesLib.concat(encoded, encodeItem(self[i])) */\n      swap2\n      pop\n        /* \"lib/RLPEncode.sol\":805:808  i++ */\n      dup1\n      dup1\n      0x01\n      add\n      swap2\n      pop\n      pop\n        /* \"lib/RLPEncode.sol\":768:875  for (uint256 i = 0; i < self.length; i++) {... */\n      jump(tag_394)\n    tag_395:\n      pop\n        /* \"lib/RLPEncode.sol\":885:944  BytesLib.concat(encodeLength(encoded.length, 192), encoded) */\n      tag_402\n        /* \"lib/RLPEncode.sol\":901:934  encodeLength(encoded.length, 192) */\n      tag_403\n        /* \"lib/RLPEncode.sol\":914:921  encoded */\n      dup3\n        /* \"lib/RLPEncode.sol\":914:928  encoded.length */\n      mload\n        /* \"lib/RLPEncode.sol\":930:933  192 */\n      0xc0\n        /* \"lib/RLPEncode.sol\":901:913  encodeLength */\n      tag_404\n        /* \"lib/RLPEncode.sol\":901:934  encodeLength(encoded.length, 192) */\n      jump\t// in\n    tag_403:\n        /* \"lib/RLPEncode.sol\":936:943  encoded */\n      dup3\n        /* \"lib/RLPEncode.sol\":885:900  BytesLib.concat */\n      tag_401\n        /* \"lib/RLPEncode.sol\":885:944  BytesLib.concat(encodeLength(encoded.length, 192), encoded) */\n      jump\t// in\n    tag_402:\n        /* \"lib/RLPEncode.sol\":878:944  return BytesLib.concat(encodeLength(encoded.length, 192), encoded) */\n      swap2\n      pop\n      pop\n        /* \"lib/RLPEncode.sol\":655:948  function encodeList(bytes[] memory self)... */\n      swap2\n      swap1\n      pop\n      jump\t// out\n        /* \"lib/MerklePatriciaProof.sol\":3846:4041  function _getNthNibbleOfBytes(uint256 n, bytes memory str)... */\n    tag_347:\n        /* \"lib/MerklePatriciaProof.sol\":3933:3939  bytes1 */\n      0x00\n        /* \"lib/MerklePatriciaProof.sol\":3977:3978  0 */\n      dup1\n        /* \"lib/MerklePatriciaProof.sol\":3972:3973  2 */\n      0x02\n        /* \"lib/MerklePatriciaProof.sol\":3968:3969  n */\n      dup5\n        /* \"lib/MerklePatriciaProof.sol\":3968:3973  n % 2 */\n      dup2\n      tag_406\n      jumpi\n      invalid\n    tag_406:\n      mod\n        /* \"lib/MerklePatriciaProof.sol\":3968:3978  n % 2 == 0 */\n      eq\n        /* \"lib/MerklePatriciaProof.sol\":3968:4032  n % 2 == 0 ? uint8(str[n / 2]) / 0x10 : uint8(str[n / 2]) % 0x10 */\n      tag_407\n      jumpi\n        /* \"lib/MerklePatriciaProof.sol\":4028:4032  0x10 */\n      0x10\n        /* \"lib/MerklePatriciaProof.sol\":4014:4017  str */\n      dup3\n        /* \"lib/MerklePatriciaProof.sol\":4022:4023  2 */\n      0x02\n        /* \"lib/MerklePatriciaProof.sol\":4018:4019  n */\n      dup6\n        /* \"lib/MerklePatriciaProof.sol\":4018:4023  n / 2 */\n      dup2\n      tag_408\n      jumpi\n      invalid\n    tag_408:\n      div\n        /* \"lib/MerklePatriciaProof.sol\":4014:4024  str[n / 2] */\n      dup2\n      mload\n      dup2\n      lt\n      tag_409\n      jumpi\n      invalid\n    tag_409:\n      0x20\n      add\n      add\n      mload\n      0xf8\n      shr\n      0xf8\n      shl\n        /* \"lib/MerklePatriciaProof.sol\":4008:4025  uint8(str[n / 2]) */\n      0xf8\n      shr\n        /* \"lib/MerklePatriciaProof.sol\":4008:4032  uint8(str[n / 2]) % 0x10 */\n      0xff\n      and\n      dup2\n      tag_410\n      jumpi\n      invalid\n    tag_410:\n      mod\n        /* \"lib/MerklePatriciaProof.sol\":3968:4032  n % 2 == 0 ? uint8(str[n / 2]) / 0x10 : uint8(str[n / 2]) % 0x10 */\n      jump(tag_411)\n    tag_407:\n        /* \"lib/MerklePatriciaProof.sol\":4001:4005  0x10 */\n      0x10\n        /* \"lib/MerklePatriciaProof.sol\":3987:3990  str */\n      dup3\n        /* \"lib/MerklePatriciaProof.sol\":3995:3996  2 */\n      0x02\n        /* \"lib/MerklePatriciaProof.sol\":3991:3992  n */\n      dup6\n        /* \"lib/MerklePatriciaProof.sol\":3991:3996  n / 2 */\n      dup2\n      tag_412\n      jumpi\n      invalid\n    tag_412:\n      div\n        /* \"lib/MerklePatriciaProof.sol\":3987:3997  str[n / 2] */\n      dup2\n      mload\n      dup2\n      lt\n      tag_413\n      jumpi\n      invalid\n    tag_413:\n      0x20\n      add\n      add\n      mload\n      0xf8\n      shr\n      0xf8\n      shl\n        /* \"lib/MerklePatriciaProof.sol\":3981:3998  uint8(str[n / 2]) */\n      0xf8\n      shr\n        /* \"lib/MerklePatriciaProof.sol\":3981:4005  uint8(str[n / 2]) / 0x10 */\n      0xff\n      and\n      dup2\n      tag_414\n      jumpi\n      invalid\n    tag_414:\n      div\n        /* \"lib/MerklePatriciaProof.sol\":3968:4032  n % 2 == 0 ? uint8(str[n / 2]) / 0x10 : uint8(str[n / 2]) % 0x10 */\n    tag_411:\n        /* \"lib/MerklePatriciaProof.sol\":3956:4037  bytes1(... */\n      0xf8\n      shl\n        /* \"lib/MerklePatriciaProof.sol\":3946:4037  return... */\n      swap1\n      pop\n        /* \"lib/MerklePatriciaProof.sol\":3846:4041  function _getNthNibbleOfBytes(uint256 n, bytes memory str)... */\n      swap3\n      swap2\n      pop\n      pop\n      jump\t// out\n        /* \"lib/BytesLib.sol\":5446:5596  function fromUint(uint256 _num) internal pure returns (bytes memory _ret) {... */\n    tag_380:\n        /* \"lib/BytesLib.sol\":5501:5518  bytes memory _ret */\n      0x60\n        /* \"lib/BytesLib.sol\":5541:5543  32 */\n      0x20\n        /* \"lib/BytesLib.sol\":5531:5544  new bytes(32) */\n      0xffffffffffffffff\n      dup2\n      gt\n        /* \"--CODEGEN--\":5:14   */\n      dup1\n        /* \"--CODEGEN--\":2:4   */\n      iszero\n      tag_416\n      jumpi\n        /* \"--CODEGEN--\":27:28   */\n      0x00\n        /* \"--CODEGEN--\":24:25   */\n      dup1\n        /* \"--CODEGEN--\":17:29   */\n      revert\n        /* \"--CODEGEN--\":2:4   */\n    tag_416:\n        /* \"lib/BytesLib.sol\":5531:5544  new bytes(32) */\n      pop\n      mload(0x40)\n      swap1\n      dup1\n      dup3\n      mstore\n      dup1\n      0x1f\n      add\n      not(0x1f)\n      and\n      0x20\n      add\n      dup3\n      add\n      0x40\n      mstore\n      dup1\n      iszero\n      tag_417\n      jumpi\n      dup2\n      0x20\n      add\n        /* \"--CODEGEN--\":29:30   */\n      0x01\n        /* \"--CODEGEN--\":21:27   */\n      dup3\n        /* \"--CODEGEN--\":17:31   */\n      mul\n        /* \"--CODEGEN--\":124:128   */\n      dup1\n        /* \"--CODEGEN--\":108:122   */\n      calldatasize\n        /* \"--CODEGEN--\":100:106   */\n      dup4\n        /* \"--CODEGEN--\":87:129   */\n      calldatacopy\n        /* \"--CODEGEN--\":155:159   */\n      dup1\n        /* \"--CODEGEN--\":147:153   */\n      dup3\n        /* \"--CODEGEN--\":143:160   */\n      add\n        /* \"--CODEGEN--\":133:160   */\n      swap2\n      pop\n        /* \"--CODEGEN--\":0:164   */\n      pop\n        /* \"lib/BytesLib.sol\":5531:5544  new bytes(32) */\n      swap1\n      pop\n    tag_417:\n      pop\n        /* \"lib/BytesLib.sol\":5524:5544  _ret = new bytes(32) */\n      swap1\n      pop\n        /* \"lib/BytesLib.sol\":5584:5588  _num */\n      dup2\n        /* \"lib/BytesLib.sol\":5579:5581  32 */\n      0x20\n        /* \"lib/BytesLib.sol\":5573:5577  _ret */\n      dup3\n        /* \"lib/BytesLib.sol\":5569:5582  add(_ret, 32) */\n      add\n        /* \"lib/BytesLib.sol\":5562:5589  mstore(add(_ret, 32), _num) */\n      mstore\n        /* \"lib/BytesLib.sol\":5557:5593  {... */\n      swap2\n      swap1\n      pop\n      jump\t// out\n        /* \"lib/RLPEncode.sol\":309:625  function encodeItem(bytes memory self)... */\n    tag_400:\n        /* \"lib/RLPEncode.sol\":377:389  bytes memory */\n      0x60\n        /* \"lib/RLPEncode.sol\":396:416  bytes memory encoded */\n      dup1\n        /* \"lib/RLPEncode.sol\":439:440  1 */\n      0x01\n        /* \"lib/RLPEncode.sol\":424:428  self */\n      dup4\n        /* \"lib/RLPEncode.sol\":424:435  self.length */\n      mload\n        /* \"lib/RLPEncode.sol\":424:440  self.length == 1 */\n      eq\n        /* \"lib/RLPEncode.sol\":424:472  self.length == 1 && uint8(self[0] & 0xFF) < 0x80 */\n      dup1\n      iszero\n      tag_419\n      jumpi\n      pop\n        /* \"lib/RLPEncode.sol\":468:472  0x80 */\n      0x80\n        /* \"lib/RLPEncode.sol\":460:464  0xFF */\n      0xff\n        /* \"lib/RLPEncode.sol\":450:464  self[0] & 0xFF */\n      0xf8\n      shl\n        /* \"lib/RLPEncode.sol\":450:454  self */\n      dup5\n        /* \"lib/RLPEncode.sol\":455:456  0 */\n      0x00\n        /* \"lib/RLPEncode.sol\":450:457  self[0] */\n      dup2\n      mload\n      dup2\n      lt\n      tag_420\n      jumpi\n      invalid\n    tag_420:\n      0x20\n      add\n      add\n      mload\n      0xf8\n      shr\n      0xf8\n      shl\n        /* \"lib/RLPEncode.sol\":450:464  self[0] & 0xFF */\n      and\n        /* \"lib/RLPEncode.sol\":444:465  uint8(self[0] & 0xFF) */\n      0xf8\n      shr\n        /* \"lib/RLPEncode.sol\":444:472  uint8(self[0] & 0xFF) < 0x80 */\n      0xff\n      and\n      lt\n        /* \"lib/RLPEncode.sol\":424:472  self.length == 1 && uint8(self[0] & 0xFF) < 0x80 */\n    tag_419:\n        /* \"lib/RLPEncode.sol\":420:604  if (self.length == 1 && uint8(self[0] & 0xFF) < 0x80) {... */\n      iszero\n      tag_421\n      jumpi\n        /* \"lib/RLPEncode.sol\":499:500  1 */\n      0x01\n        /* \"lib/RLPEncode.sol\":489:501  new bytes(1) */\n      0xffffffffffffffff\n      dup2\n      gt\n        /* \"--CODEGEN--\":5:14   */\n      dup1\n        /* \"--CODEGEN--\":2:4   */\n      iszero\n      tag_422\n      jumpi\n        /* \"--CODEGEN--\":27:28   */\n      0x00\n        /* \"--CODEGEN--\":24:25   */\n      dup1\n        /* \"--CODEGEN--\":17:29   */\n      revert\n        /* \"--CODEGEN--\":2:4   */\n    tag_422:\n        /* \"lib/RLPEncode.sol\":489:501  new bytes(1) */\n      pop\n      mload(0x40)\n      swap1\n      dup1\n      dup3\n      mstore\n      dup1\n      0x1f\n      add\n      not(0x1f)\n      and\n      0x20\n      add\n      dup3\n      add\n      0x40\n      mstore\n      dup1\n      iszero\n      tag_423\n      jumpi\n      dup2\n      0x20\n      add\n        /* \"--CODEGEN--\":29:30   */\n      0x01\n        /* \"--CODEGEN--\":21:27   */\n      dup3\n        /* \"--CODEGEN--\":17:31   */\n      mul\n        /* \"--CODEGEN--\":124:128   */\n      dup1\n        /* \"--CODEGEN--\":108:122   */\n      calldatasize\n        /* \"--CODEGEN--\":100:106   */\n      dup4\n        /* \"--CODEGEN--\":87:129   */\n      calldatacopy\n        /* \"--CODEGEN--\":155:159   */\n      dup1\n        /* \"--CODEGEN--\":147:153   */\n      dup3\n        /* \"--CODEGEN--\":143:160   */\n      add\n        /* \"--CODEGEN--\":133:160   */\n      swap2\n      pop\n        /* \"--CODEGEN--\":0:164   */\n      pop\n        /* \"lib/RLPEncode.sol\":489:501  new bytes(1) */\n      swap1\n      pop\n    tag_423:\n      pop\n        /* \"lib/RLPEncode.sol\":479:501  encoded = new bytes(1) */\n      swap1\n      pop\n        /* \"lib/RLPEncode.sol\":516:520  self */\n      dup3\n        /* \"lib/RLPEncode.sol\":506:520  encoded = self */\n      swap1\n      pop\n        /* \"lib/RLPEncode.sol\":420:604  if (self.length == 1 && uint8(self[0] & 0xFF) < 0x80) {... */\n      jump(tag_424)\n    tag_421:\n        /* \"lib/RLPEncode.sol\":546:599  BytesLib.concat(encodeLength(self.length, 128), self) */\n      tag_425\n        /* \"lib/RLPEncode.sol\":562:592  encodeLength(self.length, 128) */\n      tag_426\n        /* \"lib/RLPEncode.sol\":575:579  self */\n      dup5\n        /* \"lib/RLPEncode.sol\":575:586  self.length */\n      mload\n        /* \"lib/RLPEncode.sol\":588:591  128 */\n      0x80\n        /* \"lib/RLPEncode.sol\":562:574  encodeLength */\n      tag_404\n        /* \"lib/RLPEncode.sol\":562:592  encodeLength(self.length, 128) */\n      jump\t// in\n    tag_426:\n        /* \"lib/RLPEncode.sol\":594:598  self */\n      dup5\n        /* \"lib/RLPEncode.sol\":546:561  BytesLib.concat */\n      tag_401\n        /* \"lib/RLPEncode.sol\":546:599  BytesLib.concat(encodeLength(self.length, 128), self) */\n      jump\t// in\n    tag_425:\n        /* \"lib/RLPEncode.sol\":536:599  encoded = BytesLib.concat(encodeLength(self.length, 128), self) */\n      swap1\n      pop\n        /* \"lib/RLPEncode.sol\":420:604  if (self.length == 1 && uint8(self[0] & 0xFF) < 0x80) {... */\n    tag_424:\n        /* \"lib/RLPEncode.sol\":614:621  encoded */\n      dup1\n        /* \"lib/RLPEncode.sol\":607:621  return encoded */\n      swap2\n      pop\n      pop\n        /* \"lib/RLPEncode.sol\":309:625  function encodeItem(bytes memory self)... */\n      swap2\n      swap1\n      pop\n      jump\t// out\n        /* \"lib/BytesLib.sol\":103:2466  function concat(bytes memory _preBytes, bytes memory _postBytes)... */\n    tag_401:\n        /* \"lib/BytesLib.sol\":197:209  bytes memory */\n      0x60\n        /* \"lib/BytesLib.sol\":216:238  bytes memory tempBytes */\n      dup1\n        /* \"lib/BytesLib.sol\":387:391  0x40 */\n      0x40\n        /* \"lib/BytesLib.sol\":381:392  mload(0x40) */\n      mload\n        /* \"lib/BytesLib.sol\":368:392  tempBytes := mload(0x40) */\n      swap1\n      pop\n        /* \"lib/BytesLib.sol\":517:526  _preBytes */\n      dup4\n        /* \"lib/BytesLib.sol\":511:527  mload(_preBytes) */\n      mload\n        /* \"lib/BytesLib.sol\":549:555  length */\n      dup1\n        /* \"lib/BytesLib.sol\":538:547  tempBytes */\n      dup3\n        /* \"lib/BytesLib.sol\":531:556  mstore(tempBytes, length) */\n      mstore\n        /* \"lib/BytesLib.sol\":755:759  0x20 */\n      0x20\n        /* \"lib/BytesLib.sol\":744:753  tempBytes */\n      dup3\n        /* \"lib/BytesLib.sol\":740:760  add(tempBytes, 0x20) */\n      add\n        /* \"lib/BytesLib.sol\":877:883  length */\n      dup2\n        /* \"lib/BytesLib.sol\":873:875  mc */\n      dup2\n        /* \"lib/BytesLib.sol\":869:884  add(mc, length) */\n      add\n        /* \"lib/BytesLib.sol\":1026:1030  0x20 */\n      0x20\n        /* \"lib/BytesLib.sol\":1015:1024  _preBytes */\n      dup8\n        /* \"lib/BytesLib.sol\":1011:1031  add(_preBytes, 0x20) */\n      add\n        /* \"lib/BytesLib.sol\":889:1279  for {... */\n    tag_428:\n        /* \"lib/BytesLib.sol\":1044:1047  end */\n      dup2\n        /* \"lib/BytesLib.sol\":1040:1042  mc */\n      dup4\n        /* \"lib/BytesLib.sol\":1037:1048  lt(mc, end) */\n      lt\n        /* \"lib/BytesLib.sol\":889:1279  for {... */\n      iszero\n      tag_430\n      jumpi\n        /* \"lib/BytesLib.sol\":1270:1272  cc */\n      dup1\n        /* \"lib/BytesLib.sol\":1264:1273  mload(cc) */\n      mload\n        /* \"lib/BytesLib.sol\":1260:1262  mc */\n      dup4\n        /* \"lib/BytesLib.sol\":1253:1274  mstore(mc, mload(cc)) */\n      mstore\n        /* \"lib/BytesLib.sol\":1127:1131  0x20 */\n      0x20\n        /* \"lib/BytesLib.sol\":1123:1125  mc */\n      dup4\n        /* \"lib/BytesLib.sol\":1119:1132  add(mc, 0x20) */\n      add\n        /* \"lib/BytesLib.sol\":1113:1132  mc := add(mc, 0x20) */\n      swap3\n      pop\n        /* \"lib/BytesLib.sol\":1151:1155  0x20 */\n      0x20\n        /* \"lib/BytesLib.sol\":1147:1149  cc */\n      dup2\n        /* \"lib/BytesLib.sol\":1143:1156  add(cc, 0x20) */\n      add\n        /* \"lib/BytesLib.sol\":1137:1156  cc := add(cc, 0x20) */\n      swap1\n      pop\n        /* \"lib/BytesLib.sol\":889:1279  for {... */\n      jump(tag_428)\n    tag_430:\n        /* \"lib/BytesLib.sol\":893:1036  {... */\n      pop\n        /* \"lib/BytesLib.sol\":1460:1470  _postBytes */\n      dup6\n        /* \"lib/BytesLib.sol\":1454:1471  mload(_postBytes) */\n      mload\n        /* \"lib/BytesLib.sol\":1444:1471  length := mload(_postBytes) */\n      swap3\n      pop\n        /* \"lib/BytesLib.sol\":1511:1520  tempBytes */\n      dup4\n        /* \"lib/BytesLib.sol\":1505:1521  mload(tempBytes) */\n      mload\n        /* \"lib/BytesLib.sol\":1497:1503  length */\n      dup4\n        /* \"lib/BytesLib.sol\":1493:1522  add(length, mload(tempBytes)) */\n      add\n        /* \"lib/BytesLib.sol\":1482:1491  tempBytes */\n      dup5\n        /* \"lib/BytesLib.sol\":1475:1523  mstore(tempBytes, add(length, mload(tempBytes))) */\n      mstore\n        /* \"lib/BytesLib.sol\":1640:1643  end */\n      dup1\n        /* \"lib/BytesLib.sol\":1634:1643  mc := end */\n      swap2\n      pop\n        /* \"lib/BytesLib.sol\":1758:1764  length */\n      dup3\n        /* \"lib/BytesLib.sol\":1754:1756  mc */\n      dup3\n        /* \"lib/BytesLib.sol\":1750:1765  add(mc, length) */\n      add\n        /* \"lib/BytesLib.sol\":1743:1765  end := add(mc, length) */\n      swap1\n      pop\n        /* \"lib/BytesLib.sol\":1806:1810  0x20 */\n      0x20\n        /* \"lib/BytesLib.sol\":1794:1804  _postBytes */\n      dup7\n        /* \"lib/BytesLib.sol\":1790:1811  add(_postBytes, 0x20) */\n      add\n        /* \"lib/BytesLib.sol\":1770:1916  for {... */\n    tag_431:\n        /* \"lib/BytesLib.sol\":1824:1827  end */\n      dup2\n        /* \"lib/BytesLib.sol\":1820:1822  mc */\n      dup4\n        /* \"lib/BytesLib.sol\":1817:1828  lt(mc, end) */\n      lt\n        /* \"lib/BytesLib.sol\":1770:1916  for {... */\n      iszero\n      tag_433\n      jumpi\n        /* \"lib/BytesLib.sol\":1907:1909  cc */\n      dup1\n        /* \"lib/BytesLib.sol\":1901:1910  mload(cc) */\n      mload\n        /* \"lib/BytesLib.sol\":1897:1899  mc */\n      dup4\n        /* \"lib/BytesLib.sol\":1890:1911  mstore(mc, mload(cc)) */\n      mstore\n        /* \"lib/BytesLib.sol\":1849:1853  0x20 */\n      0x20\n        /* \"lib/BytesLib.sol\":1845:1847  mc */\n      dup4\n        /* \"lib/BytesLib.sol\":1841:1854  add(mc, 0x20) */\n      add\n        /* \"lib/BytesLib.sol\":1835:1854  mc := add(mc, 0x20) */\n      swap3\n      pop\n        /* \"lib/BytesLib.sol\":1873:1877  0x20 */\n      0x20\n        /* \"lib/BytesLib.sol\":1869:1871  cc */\n      dup2\n        /* \"lib/BytesLib.sol\":1865:1878  add(cc, 0x20) */\n      add\n        /* \"lib/BytesLib.sol\":1859:1878  cc := add(cc, 0x20) */\n      swap1\n      pop\n        /* \"lib/BytesLib.sol\":1770:1916  for {... */\n      jump(tag_431)\n    tag_433:\n        /* \"lib/BytesLib.sol\":1774:1816  {... */\n      pop\n        /* \"lib/BytesLib.sol\":2386:2388  31 */\n      0x1f\n        /* \"lib/BytesLib.sol\":2382:2389  not(31) */\n      not\n        /* \"lib/BytesLib.sol\":2372:2374  31 */\n      0x1f\n        /* \"lib/BytesLib.sol\":2357:2366  _preBytes */\n      dup9\n        /* \"lib/BytesLib.sol\":2351:2367  mload(_preBytes) */\n      mload\n        /* \"lib/BytesLib.sol\":2343:2349  length */\n      dup6\n        /* \"lib/BytesLib.sol\":2339:2368  add(length, mload(_preBytes)) */\n      add\n        /* \"lib/BytesLib.sol\":2332:2369  iszero(add(length, mload(_preBytes))) */\n      iszero\n        /* \"lib/BytesLib.sol\":2327:2330  end */\n      dup4\n        /* \"lib/BytesLib.sol\":2323:2370  add(end, iszero(add(length, mload(_preBytes)))) */\n      add\n        /* \"lib/BytesLib.sol\":2319:2375  add(add(end, iszero(add(length, mload(_preBytes)))), 31) */\n      add\n        /* \"lib/BytesLib.sol\":2309:2434  and(... */\n      and\n        /* \"lib/BytesLib.sol\":2299:2303  0x40 */\n      0x40\n        /* \"lib/BytesLib.sol\":2287:2439  mstore(... */\n      mstore\n        /* \"lib/BytesLib.sol\":251:2443  {... */\n      pop\n      pop\n      pop\n        /* \"lib/BytesLib.sol\":2453:2462  tempBytes */\n      dup1\n        /* \"lib/BytesLib.sol\":2446:2462  return tempBytes */\n      swap2\n      pop\n      pop\n        /* \"lib/BytesLib.sol\":103:2466  function concat(bytes memory _preBytes, bytes memory _postBytes)... */\n      swap3\n      swap2\n      pop\n      pop\n      jump\t// out\n        /* \"lib/RLPEncode.sol\":1637:2190  function encodeLength(uint256 L, uint256 offset)... */\n    tag_404:\n        /* \"lib/RLPEncode.sol\":1715:1727  bytes memory */\n      0x60\n        /* \"lib/RLPEncode.sol\":1742:1744  56 */\n      0x38\n        /* \"lib/RLPEncode.sol\":1738:1739  L */\n      dup4\n        /* \"lib/RLPEncode.sol\":1738:1744  L < 56 */\n      lt\n        /* \"lib/RLPEncode.sol\":1734:2187  if (L < 56) {... */\n      iszero\n      tag_435\n      jumpi\n        /* \"lib/RLPEncode.sol\":1751:1770  bytes memory prefix */\n      0x60\n        /* \"lib/RLPEncode.sol\":1783:1784  1 */\n      0x01\n        /* \"lib/RLPEncode.sol\":1773:1785  new bytes(1) */\n      0xffffffffffffffff\n      dup2\n      gt\n        /* \"--CODEGEN--\":5:14   */\n      dup1\n        /* \"--CODEGEN--\":2:4   */\n      iszero\n      tag_436\n      jumpi\n        /* \"--CODEGEN--\":27:28   */\n      0x00\n        /* \"--CODEGEN--\":24:25   */\n      dup1\n        /* \"--CODEGEN--\":17:29   */\n      revert\n        /* \"--CODEGEN--\":2:4   */\n    tag_436:\n        /* \"lib/RLPEncode.sol\":1773:1785  new bytes(1) */\n      pop\n      mload(0x40)\n      swap1\n      dup1\n      dup3\n      mstore\n      dup1\n      0x1f\n      add\n      not(0x1f)\n      and\n      0x20\n      add\n      dup3\n      add\n      0x40\n      mstore\n      dup1\n      iszero\n      tag_437\n      jumpi\n      dup2\n      0x20\n      add\n        /* \"--CODEGEN--\":29:30   */\n      0x01\n        /* \"--CODEGEN--\":21:27   */\n      dup3\n        /* \"--CODEGEN--\":17:31   */\n      mul\n        /* \"--CODEGEN--\":124:128   */\n      dup1\n        /* \"--CODEGEN--\":108:122   */\n      calldatasize\n        /* \"--CODEGEN--\":100:106   */\n      dup4\n        /* \"--CODEGEN--\":87:129   */\n      calldatacopy\n        /* \"--CODEGEN--\":155:159   */\n      dup1\n        /* \"--CODEGEN--\":147:153   */\n      dup3\n        /* \"--CODEGEN--\":143:160   */\n      add\n        /* \"--CODEGEN--\":133:160   */\n      swap2\n      pop\n        /* \"--CODEGEN--\":0:164   */\n      pop\n        /* \"lib/RLPEncode.sol\":1773:1785  new bytes(1) */\n      swap1\n      pop\n    tag_437:\n      pop\n        /* \"lib/RLPEncode.sol\":1751:1785  bytes memory prefix = new bytes(1) */\n      swap1\n      pop\n        /* \"lib/RLPEncode.sol\":1819:1825  offset */\n      dup3\n        /* \"lib/RLPEncode.sol\":1815:1816  L */\n      dup5\n        /* \"lib/RLPEncode.sol\":1815:1825  L + offset */\n      add\n        /* \"lib/RLPEncode.sol\":1802:1827  bytes1(uint8(L + offset)) */\n      0xf8\n      shl\n        /* \"lib/RLPEncode.sol\":1790:1796  prefix */\n      dup2\n        /* \"lib/RLPEncode.sol\":1797:1798  0 */\n      0x00\n        /* \"lib/RLPEncode.sol\":1790:1799  prefix[0] */\n      dup2\n      mload\n      dup2\n      lt\n      tag_438\n      jumpi\n      invalid\n    tag_438:\n      0x20\n      add\n      add\n        /* \"lib/RLPEncode.sol\":1790:1827  prefix[0] = bytes1(uint8(L + offset)) */\n      swap1\n      not(0xffffffffffffffffffffffffffffffffffffffffffffffffffffffffffffff)\n      and\n      swap1\n      dup2\n      0x00\n      byte\n      swap1\n      mstore8\n      pop\n        /* \"lib/RLPEncode.sol\":1839:1845  prefix */\n      dup1\n        /* \"lib/RLPEncode.sol\":1832:1845  return prefix */\n      swap2\n      pop\n      pop\n      jump(tag_434)\n        /* \"lib/RLPEncode.sol\":1734:2187  if (L < 56) {... */\n    tag_435:\n        /* \"lib/RLPEncode.sol\":1933:1947  uint256 lenLen */\n      0x00\n        /* \"lib/RLPEncode.sol\":1952:1961  uint256 i */\n      dup1\n        /* \"lib/RLPEncode.sol\":1964:1967  0x1 */\n      0x01\n        /* \"lib/RLPEncode.sol\":1952:1967  uint256 i = 0x1 */\n      swap1\n      pop\n        /* \"lib/RLPEncode.sol\":1973:2028  while (L / i != 0) {... */\n    tag_440:\n        /* \"lib/RLPEncode.sol\":1989:1990  0 */\n      0x00\n        /* \"lib/RLPEncode.sol\":1984:1985  i */\n      dup2\n        /* \"lib/RLPEncode.sol\":1980:1981  L */\n      dup7\n        /* \"lib/RLPEncode.sol\":1980:1985  L / i */\n      dup2\n      tag_442\n      jumpi\n      invalid\n    tag_442:\n      div\n        /* \"lib/RLPEncode.sol\":1980:1990  L / i != 0 */\n      eq\n        /* \"lib/RLPEncode.sol\":1973:2028  while (L / i != 0) {... */\n      tag_441\n      jumpi\n        /* \"lib/RLPEncode.sol\":1998:2006  lenLen++ */\n      dup2\n      dup1\n      0x01\n      add\n      swap3\n      pop\n      pop\n        /* \"lib/RLPEncode.sol\":2017:2022  0x100 */\n      0x0100\n        /* \"lib/RLPEncode.sol\":2012:2022  i *= 0x100 */\n      dup2\n      mul\n      swap1\n      pop\n        /* \"lib/RLPEncode.sol\":1973:2028  while (L / i != 0) {... */\n      jump(tag_440)\n    tag_441:\n        /* \"lib/RLPEncode.sol\":2033:2053  bytes memory prefix0 */\n      0x60\n        /* \"lib/RLPEncode.sol\":2056:2092  getLengthBytes(offset + 55 + lenLen) */\n      tag_443\n        /* \"lib/RLPEncode.sol\":2085:2091  lenLen */\n      dup4\n        /* \"lib/RLPEncode.sol\":2080:2082  55 */\n      0x37\n        /* \"lib/RLPEncode.sol\":2071:2077  offset */\n      dup8\n        /* \"lib/RLPEncode.sol\":2071:2082  offset + 55 */\n      add\n        /* \"lib/RLPEncode.sol\":2071:2091  offset + 55 + lenLen */\n      add\n        /* \"lib/RLPEncode.sol\":2056:2070  getLengthBytes */\n      tag_444\n        /* \"lib/RLPEncode.sol\":2056:2092  getLengthBytes(offset + 55 + lenLen) */\n      jump\t// in\n    tag_443:\n        /* \"lib/RLPEncode.sol\":2033:2092  bytes memory prefix0 = getLengthBytes(offset + 55 + lenLen) */\n      swap1\n      pop\n        /* \"lib/RLPEncode.sol\":2097:2117  bytes memory prefix1 */\n      0x60\n        /* \"lib/RLPEncode.sol\":2120:2137  getLengthBytes(L) */\n      tag_445\n        /* \"lib/RLPEncode.sol\":2135:2136  L */\n      dup8\n        /* \"lib/RLPEncode.sol\":2120:2134  getLengthBytes */\n      tag_444\n        /* \"lib/RLPEncode.sol\":2120:2137  getLengthBytes(L) */\n      jump\t// in\n    tag_445:\n        /* \"lib/RLPEncode.sol\":2097:2137  bytes memory prefix1 = getLengthBytes(L) */\n      swap1\n      pop\n        /* \"lib/RLPEncode.sol\":2149:2182  BytesLib.concat(prefix0, prefix1) */\n      tag_446\n        /* \"lib/RLPEncode.sol\":2165:2172  prefix0 */\n      dup3\n        /* \"lib/RLPEncode.sol\":2174:2181  prefix1 */\n      dup3\n        /* \"lib/RLPEncode.sol\":2149:2164  BytesLib.concat */\n      tag_401\n        /* \"lib/RLPEncode.sol\":2149:2182  BytesLib.concat(prefix0, prefix1) */\n      jump\t// in\n    tag_446:\n        /* \"lib/RLPEncode.sol\":2142:2182  return BytesLib.concat(prefix0, prefix1) */\n      swap5\n      pop\n      pop\n      pop\n      pop\n      pop\n        /* \"lib/RLPEncode.sol\":1637:2190  function encodeLength(uint256 L, uint256 offset)... */\n    tag_434:\n      swap3\n      swap2\n      pop\n      pop\n      jump\t// out\n        /* \"lib/RLPEncode.sol\":2193:2664  function getLengthBytes(uint256 x) internal pure returns (bytes memory b) {... */\n    tag_444:\n        /* \"lib/RLPEncode.sol\":2251:2265  bytes memory b */\n      0x60\n        /* \"lib/RLPEncode.sol\":2440:2454  uint256 nBytes */\n      0x00\n        /* \"lib/RLPEncode.sol\":2457:2458  1 */\n      0x01\n        /* \"lib/RLPEncode.sol\":2440:2458  uint256 nBytes = 1 */\n      swap1\n      pop\n        /* \"lib/RLPEncode.sol\":2470:2473  255 */\n      0xff\n        /* \"lib/RLPEncode.sol\":2466:2467  x */\n      dup4\n        /* \"lib/RLPEncode.sol\":2466:2473  x > 255 */\n      gt\n        /* \"lib/RLPEncode.sol\":2462:2495  if (x > 255) {... */\n      iszero\n      tag_448\n      jumpi\n        /* \"lib/RLPEncode.sol\":2489:2490  2 */\n      0x02\n        /* \"lib/RLPEncode.sol\":2480:2490  nBytes = 2 */\n      swap1\n      pop\n        /* \"lib/RLPEncode.sol\":2462:2495  if (x > 255) {... */\n    tag_448:\n        /* \"lib/RLPEncode.sol\":2513:2519  nBytes */\n      dup1\n        /* \"lib/RLPEncode.sol\":2503:2520  new bytes(nBytes) */\n      0xffffffffffffffff\n      dup2\n      gt\n        /* \"--CODEGEN--\":5:14   */\n      dup1\n        /* \"--CODEGEN--\":2:4   */\n      iszero\n      tag_449\n      jumpi\n        /* \"--CODEGEN--\":27:28   */\n      0x00\n        /* \"--CODEGEN--\":24:25   */\n      dup1\n        /* \"--CODEGEN--\":17:29   */\n      revert\n        /* \"--CODEGEN--\":2:4   */\n    tag_449:\n        /* \"lib/RLPEncode.sol\":2503:2520  new bytes(nBytes) */\n      pop\n      mload(0x40)\n      swap1\n      dup1\n      dup3\n      mstore\n      dup1\n      0x1f\n      add\n      not(0x1f)\n      and\n      0x20\n      add\n      dup3\n      add\n      0x40\n      mstore\n      dup1\n      iszero\n      tag_450\n      jumpi\n      dup2\n      0x20\n      add\n        /* \"--CODEGEN--\":29:30   */\n      0x01\n        /* \"--CODEGEN--\":21:27   */\n      dup3\n        /* \"--CODEGEN--\":17:31   */\n      mul\n        /* \"--CODEGEN--\":124:128   */\n      dup1\n        /* \"--CODEGEN--\":108:122   */\n      calldatasize\n        /* \"--CODEGEN--\":100:106   */\n      dup4\n        /* \"--CODEGEN--\":87:129   */\n      calldatacopy\n        /* \"--CODEGEN--\":155:159   */\n      dup1\n        /* \"--CODEGEN--\":147:153   */\n      dup3\n        /* \"--CODEGEN--\":143:160   */\n      add\n        /* \"--CODEGEN--\":133:160   */\n      swap2\n      pop\n        /* \"--CODEGEN--\":0:164   */\n      pop\n        /* \"lib/RLPEncode.sol\":2503:2520  new bytes(nBytes) */\n      swap1\n      pop\n    tag_450:\n      pop\n        /* \"lib/RLPEncode.sol\":2499:2520  b = new bytes(nBytes) */\n      swap2\n      pop\n        /* \"lib/RLPEncode.sol\":2566:2575  uint256 i */\n      0x00\n        /* \"lib/RLPEncode.sol\":2578:2579  0 */\n      dup1\n        /* \"lib/RLPEncode.sol\":2566:2579  uint256 i = 0 */\n      swap1\n      pop\n        /* \"lib/RLPEncode.sol\":2561:2661  for (uint256 i = 0; i < nBytes; i++) {... */\n    tag_451:\n        /* \"lib/RLPEncode.sol\":2585:2591  nBytes */\n      dup2\n        /* \"lib/RLPEncode.sol\":2581:2582  i */\n      dup2\n        /* \"lib/RLPEncode.sol\":2581:2591  i < nBytes */\n      lt\n        /* \"lib/RLPEncode.sol\":2561:2661  for (uint256 i = 0; i < nBytes; i++) {... */\n      iszero\n      tag_452\n      jumpi\n        /* \"lib/RLPEncode.sol\":2650:2651  i */\n      dup1\n        /* \"lib/RLPEncode.sol\":2646:2647  1 */\n      0x01\n        /* \"lib/RLPEncode.sol\":2637:2643  nBytes */\n      dup4\n        /* \"lib/RLPEncode.sol\":2637:2647  nBytes - 1 */\n      sub\n        /* \"lib/RLPEncode.sol\":2637:2651  nBytes - 1 - i */\n      sub\n        /* \"lib/RLPEncode.sol\":2632:2633  8 */\n      0x08\n        /* \"lib/RLPEncode.sol\":2632:2652  8 * (nBytes - 1 - i) */\n      mul\n        /* \"lib/RLPEncode.sol\":2628:2629  2 */\n      0x02\n        /* \"lib/RLPEncode.sol\":2628:2653  2**(8 * (nBytes - 1 - i)) */\n      exp\n        /* \"lib/RLPEncode.sol\":2623:2624  x */\n      dup5\n        /* \"lib/RLPEncode.sol\":2623:2654  x / (2**(8 * (nBytes - 1 - i))) */\n      dup2\n      tag_454\n      jumpi\n      invalid\n    tag_454:\n      div\n        /* \"lib/RLPEncode.sol\":2610:2656  bytes1(uint8(x / (2**(8 * (nBytes - 1 - i))))) */\n      0xf8\n      shl\n        /* \"lib/RLPEncode.sol\":2603:2604  b */\n      dup4\n        /* \"lib/RLPEncode.sol\":2605:2606  i */\n      dup3\n        /* \"lib/RLPEncode.sol\":2603:2607  b[i] */\n      dup2\n      mload\n      dup2\n      lt\n      tag_455\n      jumpi\n      invalid\n    tag_455:\n      0x20\n      add\n      add\n        /* \"lib/RLPEncode.sol\":2603:2656  b[i] = bytes1(uint8(x / (2**(8 * (nBytes - 1 - i))))) */\n      swap1\n      not(0xffffffffffffffffffffffffffffffffffffffffffffffffffffffffffffff)\n      and\n      swap1\n      dup2\n      0x00\n      byte\n      swap1\n      mstore8\n      pop\n        /* \"lib/RLPEncode.sol\":2593:2596  i++ */\n      dup1\n      dup1\n      0x01\n      add\n      swap2\n      pop\n      pop\n        /* \"lib/RLPEncode.sol\":2561:2661  for (uint256 i = 0; i < nBytes; i++) {... */\n      jump(tag_451)\n    tag_452:\n      pop\n        /* \"lib/RLPEncode.sol\":2193:2664  function getLengthBytes(uint256 x) internal pure returns (bytes memory b) {... */\n      pop\n      swap2\n      swap1\n      pop\n      jump\t// out\n    tag_84:\n      mload(0x40)\n      dup1\n      0x80\n      add\n      0x40\n      mstore\n      dup1\n      0x00\n      dup2\n      mstore\n      0x20\n      add\n      0x00\n      dup2\n      mstore\n      0x20\n      add\n      0x00\n      dup1\n      not\n      and\n      dup2\n      mstore\n      0x20\n      add\n      0x00\n      dup1\n      not\n      and\n      dup2\n      mstore\n      pop\n      swap1\n      jump\t// out\n    tag_163:\n      mload(0x40)\n      dup1\n      0x40\n      add\n      0x40\n      mstore\n      dup1\n      0x00\n      dup2\n      mstore\n      0x20\n      add\n      0x00\n      dup2\n      mstore\n      pop\n      swap1\n      jump\t// out\n    stop\n    data_077781bc781d69c18b16708e32a7859fb69c8510a105056868d84c2c5ba1f85f 7472616e736665722073686f756c64206265206d61646520746f2045534e204465706f7369742041646472657373\n    data_fc13d223b0e89774a393f7fd3fe2b806585769765211db5908a5476ec6dfd9e8 416c72656164792070726f636573736564207769746864726177616c20666f722074686973207472616e73616374696f6e\n\n    auxdata: 0xa264697066735822122086f46ee556ca429ae3d2d96130702e40d7b58484fc94c4f42421c58b9ac6e42e64736f6c63430006080033\n}\n","bytecode":{"linkReferences":{},"object":"608060405230600760006101000a81548173ffffffffffffffffffffffffffffffffffffffff021916908373ffffffffffffffffffffffffffffffffffffffff1602179055503480156200005257600080fd5b5060405162002cf038038062002cf0833981810160405260408110156200007857600080fd5b81019080805160405193929190846401000000008211156200009957600080fd5b83820191506020820185811115620000b057600080fd5b8251866020820283011164010000000082111715620000ce57600080fd5b8083526020830192505050908051906020019060200280838360005b8381101562000107578082015181840152602081019050620000ea565b505050509050016040526020018051906020019092919050505060008090505b8251811015620001aa5760018060008584815181106200014357fe5b602002602001015173ffffffffffffffffffffffffffffffffffffffff1673ffffffffffffffffffffffffffffffffffffffff16815260200190815260200160002060006101000a81548160ff021916908315150217905550808060010191505062000127565b5081516000819055508160039080519060200190620001cb92919062000215565b5080600660006101000a81548173ffffffffffffffffffffffffffffffffffffffff021916908373ffffffffffffffffffffffffffffffffffffffff1602179055505050620002ea565b82805482825590600052602060002090810192821562000291579160200282015b82811115620002905782518260006101000a81548173ffffffffffffffffffffffffffffffffffffffff021916908373ffffffffffffffffffffffffffffffffffffffff1602179055509160200191906001019062000236565b5b509050620002a09190620002a4565b5090565b620002e791905b80821115620002e357600081816101000a81549073ffffffffffffffffffffffffffffffffffffffff021916905550600101620002ab565b5090565b90565b6129f680620002fa6000396000f3fe608060405234801561001057600080fd5b50600436106100ea5760003560e01c8063bf49d6311161008c578063d6832ea911610066578063d6832ea9146104e9578063f3513a3714610507578063facd743b14610566578063fc0c546a146105c2576100ea565b8063bf49d63114610389578063ca5d0926146103cf578063d42f2f351461048a576100ea565b806335aa2e44116100c857806335aa2e44146101c557806375080de81461023357806376f5e6da1461028a578063974275cf14610345576100ea565b806315c09850146100ef5780632079fb9a146101395780632ceea82a146101a7575b600080fd5b6100f761060c565b604051808273ffffffffffffffffffffffffffffffffffffffff1673ffffffffffffffffffffffffffffffffffffffff16815260200191505060405180910390f35b6101656004803603602081101561014f57600080fd5b8101908080359060200190929190505050610632565b604051808273ffffffffffffffffffffffffffffffffffffffff1673ffffffffffffffffffffffffffffffffffffffff16815260200191505060405180910390f35b6101af61066e565b6040518082815260200191505060405180910390f35b6101f1600480360360208110156101db57600080fd5b810190808035906020019092919050505061067b565b604051808273ffffffffffffffffffffffffffffffffffffffff1673ffffffffffffffffffffffffffffffffffffffff16815260200191505060405180910390f35b61025f6004803603602081101561024957600080fd5b81019080803590602001909291905050506106b7565b6040518085815260200184815260200183815260200182815260200194505050505060405180910390f35b610343600480360360208110156102a057600080fd5b81019080803590602001906401000000008111156102bd57600080fd5b8201836020820111156102cf57600080fd5b803590602001918460018302840111640100000000831117156102f157600080fd5b91908080601f016020809104026020016040519081016040528093929190818152602001838380828437600081840152601f19601f8201169050808301925050505050505091929192905050506106f4565b005b6103876004803603602081101561035b57600080fd5b81019080803573ffffffffffffffffffffffffffffffffffffffff169060200190929190505050610c61565b005b6103b56004803603602081101561039f57600080fd5b8101908080359060200190929190505050610ca5565b604051808215151515815260200191505060405180910390f35b610488600480360360208110156103e557600080fd5b810190808035906020019064010000000081111561040257600080fd5b82018360208201111561041457600080fd5b8035906020019184600183028401116401000000008311171561043657600080fd5b91908080601f016020809104026020016040519081016040528093929190818152602001838380828437600081840152601f19601f820116905080830192505050505050509192919290505050610cc5565b005b610492611159565b6040518080602001828103825283818151815260200191508051906020019060200280838360005b838110156104d55780820151818401526020810190506104ba565b505050509050019250505060405180910390f35b6104f16111e7565b6040518082815260200191505060405180910390f35b61050f6111ed565b6040518080602001828103825283818151815260200191508051906020019060200280838360005b83811015610552578082015181840152602081019050610537565b505050509050019250505060405180910390f35b6105a86004803603602081101561057c57600080fd5b81019080803573ffffffffffffffffffffffffffffffffffffffff16906020019092919050505061127b565b604051808215151515815260200191505060405180910390f35b6105ca61129b565b604051808273ffffffffffffffffffffffffffffffffffffffff1673ffffffffffffffffffffffffffffffffffffffff16815260200191505060405180910390f35b600760009054906101000a900473ffffffffffffffffffffffffffffffffffffffff1681565b6004818154811061063f57fe5b906000526020600020016000915054906101000a900473ffffffffffffffffffffffffffffffffffffffff1681565b6000600580549050905090565b6003818154811061068857fe5b906000526020600020016000915054906101000a900473ffffffffffffffffffffffffffffffffffffffff1681565b600581815481106106c457fe5b90600052602060002090600402016000915090508060000154908060010154908060020154908060030154905084565b6060610707610702836112c1565b6112ef565b905060606107288260008151811061071b57fe5b60200260200101516112ef565b905060048151146107a1576040517f08c379a00000000000000000000000000000000000000000000000000000000081526004018080602001828103825260208152602001807f62756e636820686561646572206d75737420686176652034206d656d6265727381525060200191505060405180910390fd5b6107a9612919565b60405180608001604052806107d1846000815181106107c457fe5b60200260200101516113e3565b81526020016107f3846001815181106107e657fe5b60200260200101516113e3565b81526020016108158460028151811061080857fe5b6020026020010151611454565b81526020016108378460038151811061082a57fe5b6020026020010151611454565b8152509050610844611469565b8160000151146108bc576040517f08c379a000000000000000000000000000000000000000000000000000000000815260040180806020018281038252601a8152602001807f696e76616c696420737461727420626c6f636b206e756d62657200000000000081525060200191505060405180910390fd5b60606108db846000815181106108ce57fe5b60200260200101516114d9565b905060006040518060400160405280600281526020017f19970000000000000000000000000000000000000000000000000000000000008152507f6f3a1e66e989a1cf337b9dd2ce4c98a5e78763cf9f9bdaac5707038c66a4d74e836040516020018084805190602001908083835b6020831061096d578051825260208201915060208101905060208303925061094a565b6001836020036101000a03801982511681845116808217855250505050505090500183815260200182805190602001908083835b602083106109c457805182526020820191506020810190506020830392506109a1565b6001836020036101000a0380198251168184511680821785525050505050509050019350505050604051602081830303815290604052805190602001209050600080600190505b8651811015610b23576060610a32888381518110610a2557fe5b6020026020010151611566565b9050600080610a418684611609565b9150915081610ab8576040517f08c379a00000000000000000000000000000000000000000000000000000000081526004018080602001828103825260188152602001807f65637265636f7665722073686f756c642073756363657373000000000000000081525060200191505060405180910390fd5b600160008273ffffffffffffffffffffffffffffffffffffffff1673ffffffffffffffffffffffffffffffffffffffff16815260200190815260200160002060009054906101000a900460ff1615610b135784806001019550505b5050508080600101915050610a0b565b50606460426000540281610b3357fe5b048111610ba8576040517f08c379a000000000000000000000000000000000000000000000000000000000815260040180806020018281038252601a8152602001807f3636252076616c696461746f72732073686f756c64207369676e00000000000081525060200191505060405180910390fd5b6000600580549050905060058590806001815401808255809150506001900390600052602060002090600402016000909190919091506000820151816000015560208201518160010155604082015181600201556060820151816003015550507f435520ea9b14c682112acef5bc8466234d75b18dce73c44a78d905139def419d856000015186602001518360405180848152602001838152602001828152602001935050505060405180910390a15050505050505050565b80600760006101000a81548173ffffffffffffffffffffffffffffffffffffffff021916908373ffffffffffffffffffffffffffffffffffffffff16021790555050565b60026020528060005260406000206000915054906101000a900460ff1681565b6060610cd8610cd3836112c1565b6112ef565b90506000610cf982600081518110610cec57fe5b60200260200101516113e3565b90506000610d1a83600181518110610d0d57fe5b60200260200101516113e3565b90506060610d3b84600281518110610d2e57fe5b6020026020010151611566565b90506000610d5c85600381518110610d4f57fe5b6020026020010151611454565b90506060610d7d86600481518110610d7057fe5b6020026020010151611566565b90506060610d9e87600581518110610d9157fe5b6020026020010151611566565b90506060610dbf88600681518110610db257fe5b6020026020010151611566565b90506000838051906020012090506002600082815260200190815260200160002060009054906101000a900460ff1615610e44576040517f08c379a00000000000000000000000000000000000000000000000000000000081526004018080602001828103825260318152602001806129906031913960400191505060405180910390fd5b610e50848484886116a1565b610ec2576040517f08c379a00000000000000000000000000000000000000000000000000000000081526004018080602001828103825260168152602001807f496e76616c69642050617472696369612050726f6f660000000000000000000081525060200191505060405180910390fd5b610f0c8560058a81548110610ed357fe5b906000526020600020906004020160000154890360058b81548110610ef457fe5b90600052602060002090600402016002015489611977565b610f7e576040517f08c379a00000000000000000000000000000000000000000000000000000000081526004018080602001828103825260148152602001807f496e76616c6964204d65726b6c652050726f6f6600000000000000000000000081525060200191505060405180910390fd5b6000806000610f8c87611abe565b50925092509250600760009054906101000a900473ffffffffffffffffffffffffffffffffffffffff1673ffffffffffffffffffffffffffffffffffffffff168273ffffffffffffffffffffffffffffffffffffffff1614611039576040517f08c379a000000000000000000000000000000000000000000000000000000000815260040180806020018281038252602e815260200180612962602e913960400191505060405180910390fd5b60016002600086815260200190815260200160002060006101000a81548160ff021916908315150217905550600660009054906101000a900473ffffffffffffffffffffffffffffffffffffffff1673ffffffffffffffffffffffffffffffffffffffff1663a9059cbb84836040518363ffffffff1660e01b8152600401808373ffffffffffffffffffffffffffffffffffffffff1673ffffffffffffffffffffffffffffffffffffffff16815260200182815260200192505050602060405180830381600087803b15801561110e57600080fd5b505af1158015611122573d6000803e3d6000fd5b505050506040513d602081101561113857600080fd5b81019080805190602001909291905050505050505050505050505050505050565b606060048054806020026020016040519081016040528092919081815260200182805480156111dd57602002820191906000526020600020905b8160009054906101000a900473ffffffffffffffffffffffffffffffffffffffff1673ffffffffffffffffffffffffffffffffffffffff1681526020019060010190808311611193575b5050505050905090565b60005481565b6060600380548060200260200160405190810160405280929190818152602001828054801561127157602002820191906000526020600020905b8160009054906101000a900473ffffffffffffffffffffffffffffffffffffffff1673ffffffffffffffffffffffffffffffffffffffff1681526020019060010190808311611227575b5050505050905090565b60016020528060005260406000206000915054906101000a900460ff1681565b600660009054906101000a900473ffffffffffffffffffffffffffffffffffffffff1681565b6112c9612947565b600060208301905060405180604001604052808451815260200182815250915050919050565b60606112fa82611d99565b61130357600080fd5b600061130e83611de7565b905060608167ffffffffffffffff8111801561132957600080fd5b5060405190808252806020026020018201604052801561136357816020015b611350612947565b8152602001906001900390816113485790505b50905060006113758560200151611e58565b8560200151019050600080600090505b848110156113d65761139683611ee1565b91506040518060400160405280838152602001848152508482815181106113b957fe5b602002602001018190525081830192508080600101915050611385565b5082945050505050919050565b60008082600001511180156113fd57506021826000015111155b61140657600080fd5b60006114158360200151611e58565b9050600081846000015103905060008083866020015101905080519150602083101561144857826020036101000a820491505b81945050505050919050565b600061145f826113e3565b60001b9050919050565b600080600580549050141561148157600090506114d6565b60056001600580549050038154811061149657fe5b90600052602060002090600402016001015460020a6005600160058054905003815481106114c057fe5b9060005260206000209060040201600001540190505b90565b606080826000015167ffffffffffffffff811180156114f757600080fd5b506040519080825280601f01601f19166020018201604052801561152a5781602001600182028036833780820191505090505b5090506000815114156115405780915050611561565b600081602001905061155b8460200151828660000151611f99565b81925050505b919050565b6060600082600001511161157957600080fd5b60006115888360200151611e58565b9050600081846000015103905060608167ffffffffffffffff811180156115ae57600080fd5b506040519080825280601f01601f1916602001820160405280156115e15781602001600182028036833780820191505090505b50905060008160200190506115fd848760200151018285611f99565b81945050505050919050565b6000806000806000604186511461162c576000808090509450945050505061169a565b6020860151925060408601519150606086015160001a9050601b8160ff16101561165757601b810190505b601b8160ff161415801561166f5750601c8160ff1614155b15611686576000808090509450945050505061169a565b61169287828585612000565b945094505050505b9250929050565b60006116ab612947565b6116b4846112c1565b905060606116c1826112ef565b90506060806000869050600080905060606116db8b612044565b90506000815114156116f757600097505050505050505061196f565b60008090505b86518110156119665781518311156117205760009850505050505050505061196f565b61173c87828151811061172f57fe5b60200260200101516114d9565b95508580519060200120841461175d5760009850505050505050505061196f565b61177987828151811061176c57fe5b60200260200101516112ef565b945060118551141561184e5781518314156117e2578c805190602001206117b3866010815181106117a657fe5b6020026020010151611566565b8051906020012014156117d15760019850505050505050505061196f565b60009850505050505050505061196f565b60008284815181106117f057fe5b602001015160f81c60f81b60f81c905060108160ff16111561181e576000995050505050505050505061196f565b61183d868260ff168151811061183057fe5b60200260200101516121f9565b60001b945060018401935050611959565b6002855114156119475761187f6118788660008151811061186b57fe5b6020026020010151611566565b8385612227565b8301925081518314156118e0578c805190602001206118b1866001815181106118a457fe5b6020026020010151611566565b8051906020012014156118cf5760019850505050505050505061196f565b60009850505050505050505061196f565b6000611909611902876000815181106118f557fe5b6020026020010151611566565b8486612227565b14156119205760009850505050505050505061196f565b61193d8560018151811061193057fe5b60200260200101516121f9565b60001b9350611958565b60009850505050505050505061196f565b5b80806001019150506116fd565b50505050505050505b949350505050565b60008060008690506000602085518161198c57fe5b0614611a00576040517f08c379a00000000000000000000000000000000000000000000000000000000081526004018080602001828103825260148152602001807f496e76616c69642070726f6f66206c656e67746800000000000000000000000081525060200191505060405180910390fd5b60008690506000602090505b85518111611aad57808601519350600060028381611a2657fe5b061415611a635782846040516020018083815260200182815260200192505050604051602081830303815290604052805190602001209250611a95565b838360405160200180838152602001828152602001925050506040516020818303038152906040528051906020012092505b60028281611a9f57fe5b049150602081019050611a0c565b508582149350505050949350505050565b6000806000606080611ad7611ad2876112c1565b6112ef565b90506000611af882600381518110611aeb57fe5b6020026020010151612331565b90506000611b1983600481518110611b0c57fe5b60200260200101516113e3565b90506060611b3a84600581518110611b2d57fe5b6020026020010151611566565b90506000611b5b85600681518110611b4e57fe5b60200260200101516113e3565b90506000611b7c86600781518110611b6f57fe5b6020026020010151611454565b90506000611b9d87600881518110611b9057fe5b6020026020010151611454565b90506060600080601c861115611c5857600967ffffffffffffffff81118015611bc557600080fd5b50604051908082528060200260200182016040528015611bf957816020015b6060815260200190600190039081611be45790505b509250600060028781611c0857fe5b061415611c1857601c9150611c1d565b601b91505b600260088360ff1688030381611c2f57fe5b049050611c3b81612354565b83600681518110611c4857fe5b6020026020010181905250611cab565b600667ffffffffffffffff81118015611c7057600080fd5b50604051908082528060200260200182016040528015611ca457816020015b6060815260200190600190039081611c8f5790505b5092508591505b60008090505b6006811015611cfa57611cd68b8281518110611cc957fe5b6020026020010151611566565b848281518110611ce257fe5b60200260200101819052508080600101915050611cb1565b506060611d06846124b6565b905060006001828051906020012085898960405160008152602001604052604051808581526020018460ff1660ff1681526020018381526020018281526020019450505050506020604051602081039080840390855afa158015611d6e573d6000803e3d6000fd5b505050602060405103519050808b8b8b9f509f509f509f505050505050505050505050509193509193565b60008082600001511415611db05760009050611de2565b60008083602001519050805160001a915060c060ff168260ff161015611ddb57600092505050611de2565b6001925050505b919050565b60008082600001511415611dfe5760009050611e53565b60008090506000611e128460200151611e58565b84602001510190506000846000015185602001510190505b80821015611e4c57611e3b82611ee1565b820191508280600101935050611e2a565b8293505050505b919050565b600080825160001a9050608060ff16811015611e78576000915050611edc565b60b860ff16811080611e9d575060c060ff168110158015611e9c575060f860ff1681105b5b15611eac576001915050611edc565b60c060ff16811015611ecc5760018060b80360ff16820301915050611edc565b60018060f80360ff168203019150505b919050565b6000806000835160001a9050608060ff16811015611f025760019150611f8f565b60b860ff16811015611f1f576001608060ff168203019150611f8e565b60c060ff16811015611f4f5760b78103600185019450806020036101000a85510460018201810193505050611f8d565b60f860ff16811015611f6c57600160c060ff168203019150611f8c565b60f78103600185019450806020036101000a855104600182018101935050505b5b5b5b8192505050919050565b6000811415611fa757611ffb565b5b602060ff168110611fd75782518252602060ff1683019250602060ff1682019150602060ff1681039050611fa8565b6000600182602060ff16036101000a03905080198451168184511681811785525050505b505050565b60008060008060405188815287602082015286604082015285606082015260208160808360006001610bb8f192508051915050818193509350505094509492505050565b6060806000835111156121f05760008061205f60008661251a565b60f81c905060018160ff161480612079575060038160ff16145b1561212857600160028651020367ffffffffffffffff8111801561209c57600080fd5b506040519080825280601f01601f1916602001820160405280156120cf5781602001600182028036833780820191505090505b50925060006120df60018761251a565b905080846000815181106120ef57fe5b60200101907effffffffffffffffffffffffffffffffffffffffffffffffffffffffffffff1916908160001a9053506001925050612180565b6002808651020367ffffffffffffffff8111801561214557600080fd5b506040519080825280601f01601f1916602001820160405280156121785781602001600182028036833780820191505090505b509250600091505b60008260ff1690505b83518110156121ec576121a460028460ff168303018761251a565b8482815181106121b057fe5b60200101907effffffffffffffffffffffffffffffffffffffffffffffffffffffffffffff1916908160001a9053508080600101915050612189565b5050505b80915050919050565b6000602182600001511461220c57600080fd5b60008060018460200151019050805191508192505050919050565b600080606061223586612044565b90506060815167ffffffffffffffff8111801561225157600080fd5b506040519080825280601f01601f1916602001820160405280156122845781602001600182028036833780820191505090505b50905060008590505b825186018110156122ff5760008782815181106122a657fe5b602001015160f81c60f81b90508083888403815181106122c257fe5b60200101907effffffffffffffffffffffffffffffffffffffffffffffffffffffffffffff1916908160001a90535050808060010191505061228d565b5080805190602001208280519060200120141561231f5781519250612324565b600092505b8293505050509392505050565b6000601582600001511461234457600080fd5b61234d826113e3565b9050919050565b606080612360836125a0565b9050600080600090505b82518110156123ed57600060f81b7effffffffffffffffffffffffffffffffffffffffffffffffffffffffffffff19168382815181106123a657fe5b602001015160f81c60f81b7effffffffffffffffffffffffffffffffffffffffffffffffffffffffffffff1916146123e0578091506123ed565b808060010191505061236a565b508060200367ffffffffffffffff8111801561240857600080fd5b506040519080825280601f01601f19166020018201604052801561243b5781602001600182028036833780820191505090505b50925060008190505b82518110156124ae5782818151811061245957fe5b602001015160f81c60f81b848383038151811061247257fe5b60200101907effffffffffffffffffffffffffffffffffffffffffffffffffffffffffffff1916908160001a9053508080600101915050612444565b505050919050565b60608060008090505b83518110156124fc576124ed826124e88684815181106124db57fe5b60200260200101516125fb565b6126ae565b915080806001019150506124bf565b5061251261250c825160c0612738565b826126ae565b915050919050565b6000806002848161252757fe5b0614612563576010826002858161253a57fe5b048151811061254557fe5b602001015160f81c60f81b60f81c60ff168161255d57fe5b06612595565b6010826002858161257057fe5b048151811061257b57fe5b602001015160f81c60f81b60f81c60ff168161259357fe5b045b60f81b905092915050565b6060602067ffffffffffffffff811180156125ba57600080fd5b506040519080825280601f01601f1916602001820160405280156125ed5781602001600182028036833780820191505090505b509050816020820152919050565b606080600183511480156126325750608060ff60f81b8460008151811061261e57fe5b602001015160f81c60f81b1660f81c60ff16105b1561268d57600167ffffffffffffffff8111801561264f57600080fd5b506040519080825280601f01601f1916602001820160405280156126825781602001600182028036833780820191505090505b5090508290506126a5565b6126a261269c84516080612738565b846126ae565b90505b80915050919050565b6060806040519050835180825260208201818101602087015b818310156126e457805183526020830192506020810190506126c7565b50855192508351830184528091508282019050602086015b8183101561271957805183526020830192506020810190506126fc565b50601f19601f8851850115830101166040525050508091505092915050565b606060388310156127de576060600167ffffffffffffffff8111801561275d57600080fd5b506040519080825280601f01601f1916602001820160405280156127905781602001600182028036833780820191505090505b50905082840160f81b816000815181106127a657fe5b60200101907effffffffffffffffffffffffffffffffffffffffffffffffffffffffffffff1916908160001a9053508091505061283b565b600080600190505b60008186816127f157fe5b041461280b578180600101925050610100810290506127e6565b606061281b836037870101612841565b9050606061282887612841565b905061283482826126ae565b9450505050505b92915050565b606060006001905060ff83111561285757600290505b8067ffffffffffffffff8111801561286e57600080fd5b506040519080825280601f01601f1916602001820160405280156128a15781602001600182028036833780820191505090505b50915060008090505b818110156129125780600183030360080260020a84816128c657fe5b0460f81b8382815181106128d657fe5b60200101907effffffffffffffffffffffffffffffffffffffffffffffffffffffffffffff1916908160001a90535080806001019150506128aa565b5050919050565b6040518060800160405280600081526020016000815260200160008019168152602001600080191681525090565b60405180604001604052806000815260200160008152509056fe7472616e736665722073686f756c64206265206d61646520746f2045534e204465706f7369742041646472657373416c72656164792070726f636573736564207769746864726177616c20666f722074686973207472616e73616374696f6ea264697066735822122086f46ee556ca429ae3d2d96130702e40d7b58484fc94c4f42421c58b9ac6e42e64736f6c63430006080033","opcodes":"PUSH1 0x80 PUSH1 0x40 MSTORE ADDRESS PUSH1 0x7 PUSH1 0x0 PUSH2 0x100 EXP DUP2 SLOAD DUP2 PUSH20 0xFFFFFFFFFFFFFFFFFFFFFFFFFFFFFFFFFFFFFFFF MUL NOT AND SWAP1 DUP4 PUSH20 0xFFFFFFFFFFFFFFFFFFFFFFFFFFFFFFFFFFFFFFFF AND MUL OR SWAP1 SSTORE POP CALLVALUE DUP1 ISZERO PUSH3 0x52 JUMPI PUSH1 0x0 DUP1 REVERT JUMPDEST POP PUSH1 0x40 MLOAD PUSH3 0x2CF0 CODESIZE SUB DUP1 PUSH3 0x2CF0 DUP4 CODECOPY DUP2 DUP2 ADD PUSH1 0x40 MSTORE PUSH1 0x40 DUP2 LT ISZERO PUSH3 0x78 JUMPI PUSH1 0x0 DUP1 REVERT JUMPDEST DUP2 ADD SWAP1 DUP1 DUP1 MLOAD PUSH1 0x40 MLOAD SWAP4 SWAP3 SWAP2 SWAP1 DUP5 PUSH5 0x100000000 DUP3 GT ISZERO PUSH3 0x99 JUMPI PUSH1 0x0 DUP1 REVERT JUMPDEST DUP4 DUP3 ADD SWAP2 POP PUSH1 0x20 DUP3 ADD DUP6 DUP2 GT ISZERO PUSH3 0xB0 JUMPI PUSH1 0x0 DUP1 REVERT JUMPDEST DUP3 MLOAD DUP7 PUSH1 0x20 DUP3 MUL DUP4 ADD GT PUSH5 0x100000000 DUP3 GT OR ISZERO PUSH3 0xCE JUMPI PUSH1 0x0 DUP1 REVERT JUMPDEST DUP1 DUP4 MSTORE PUSH1 0x20 DUP4 ADD SWAP3 POP POP POP SWAP1 DUP1 MLOAD SWAP1 PUSH1 0x20 ADD SWAP1 PUSH1 0x20 MUL DUP1 DUP4 DUP4 PUSH1 0x0 JUMPDEST DUP4 DUP2 LT ISZERO PUSH3 0x107 JUMPI DUP1 DUP3 ADD MLOAD DUP2 DUP5 ADD MSTORE PUSH1 0x20 DUP2 ADD SWAP1 POP PUSH3 0xEA JUMP JUMPDEST POP POP POP POP SWAP1 POP ADD PUSH1 0x40 MSTORE PUSH1 0x20 ADD DUP1 MLOAD SWAP1 PUSH1 0x20 ADD SWAP1 SWAP3 SWAP2 SWAP1 POP POP POP PUSH1 0x0 DUP1 SWAP1 POP JUMPDEST DUP3 MLOAD DUP2 LT ISZERO PUSH3 0x1AA JUMPI PUSH1 0x1 DUP1 PUSH1 0x0 DUP6 DUP5 DUP2 MLOAD DUP2 LT PUSH3 0x143 JUMPI INVALID JUMPDEST PUSH1 0x20 MUL PUSH1 0x20 ADD ADD MLOAD PUSH20 0xFFFFFFFFFFFFFFFFFFFFFFFFFFFFFFFFFFFFFFFF AND PUSH20 0xFFFFFFFFFFFFFFFFFFFFFFFFFFFFFFFFFFFFFFFF AND DUP2 MSTORE PUSH1 0x20 ADD SWAP1 DUP2 MSTORE PUSH1 0x20 ADD PUSH1 0x0 KECCAK256 PUSH1 0x0 PUSH2 0x100 EXP DUP2 SLOAD DUP2 PUSH1 0xFF MUL NOT AND SWAP1 DUP4 ISZERO ISZERO MUL OR SWAP1 SSTORE POP DUP1 DUP1 PUSH1 0x1 ADD SWAP2 POP POP PUSH3 0x127 JUMP JUMPDEST POP DUP2 MLOAD PUSH1 0x0 DUP2 SWAP1 SSTORE POP DUP2 PUSH1 0x3 SWAP1 DUP1 MLOAD SWAP1 PUSH1 0x20 ADD SWAP1 PUSH3 0x1CB SWAP3 SWAP2 SWAP1 PUSH3 0x215 JUMP JUMPDEST POP DUP1 PUSH1 0x6 PUSH1 0x0 PUSH2 0x100 EXP DUP2 SLOAD DUP2 PUSH20 0xFFFFFFFFFFFFFFFFFFFFFFFFFFFFFFFFFFFFFFFF MUL NOT AND SWAP1 DUP4 PUSH20 0xFFFFFFFFFFFFFFFFFFFFFFFFFFFFFFFFFFFFFFFF AND MUL OR SWAP1 SSTORE POP POP POP PUSH3 0x2EA JUMP JUMPDEST DUP3 DUP1 SLOAD DUP3 DUP3 SSTORE SWAP1 PUSH1 0x0 MSTORE PUSH1 0x20 PUSH1 0x0 KECCAK256 SWAP1 DUP2 ADD SWAP3 DUP3 ISZERO PUSH3 0x291 JUMPI SWAP2 PUSH1 0x20 MUL DUP3 ADD JUMPDEST DUP3 DUP2 GT ISZERO PUSH3 0x290 JUMPI DUP3 MLOAD DUP3 PUSH1 0x0 PUSH2 0x100 EXP DUP2 SLOAD DUP2 PUSH20 0xFFFFFFFFFFFFFFFFFFFFFFFFFFFFFFFFFFFFFFFF MUL NOT AND SWAP1 DUP4 PUSH20 0xFFFFFFFFFFFFFFFFFFFFFFFFFFFFFFFFFFFFFFFF AND MUL OR SWAP1 SSTORE POP SWAP2 PUSH1 0x20 ADD SWAP2 SWAP1 PUSH1 0x1 ADD SWAP1 PUSH3 0x236 JUMP JUMPDEST JUMPDEST POP SWAP1 POP PUSH3 0x2A0 SWAP2 SWAP1 PUSH3 0x2A4 JUMP JUMPDEST POP SWAP1 JUMP JUMPDEST PUSH3 0x2E7 SWAP2 SWAP1 JUMPDEST DUP1 DUP3 GT ISZERO PUSH3 0x2E3 JUMPI PUSH1 0x0 DUP2 DUP2 PUSH2 0x100 EXP DUP2 SLOAD SWAP1 PUSH20 0xFFFFFFFFFFFFFFFFFFFFFFFFFFFFFFFFFFFFFFFF MUL NOT AND SWAP1 SSTORE POP PUSH1 0x1 ADD PUSH3 0x2AB JUMP JUMPDEST POP SWAP1 JUMP JUMPDEST SWAP1 JUMP JUMPDEST PUSH2 0x29F6 DUP1 PUSH3 0x2FA PUSH1 0x0 CODECOPY PUSH1 0x0 RETURN INVALID PUSH1 0x80 PUSH1 0x40 MSTORE CALLVALUE DUP1 ISZERO PUSH2 0x10 JUMPI PUSH1 0x0 DUP1 REVERT JUMPDEST POP PUSH1 0x4 CALLDATASIZE LT PUSH2 0xEA JUMPI PUSH1 0x0 CALLDATALOAD PUSH1 0xE0 SHR DUP1 PUSH4 0xBF49D631 GT PUSH2 0x8C JUMPI DUP1 PUSH4 0xD6832EA9 GT PUSH2 0x66 JUMPI DUP1 PUSH4 0xD6832EA9 EQ PUSH2 0x4E9 JUMPI DUP1 PUSH4 0xF3513A37 EQ PUSH2 0x507 JUMPI DUP1 PUSH4 0xFACD743B EQ PUSH2 0x566 JUMPI DUP1 PUSH4 0xFC0C546A EQ PUSH2 0x5C2 JUMPI PUSH2 0xEA JUMP JUMPDEST DUP1 PUSH4 0xBF49D631 EQ PUSH2 0x389 JUMPI DUP1 PUSH4 0xCA5D0926 EQ PUSH2 0x3CF JUMPI DUP1 PUSH4 0xD42F2F35 EQ PUSH2 0x48A JUMPI PUSH2 0xEA JUMP JUMPDEST DUP1 PUSH4 0x35AA2E44 GT PUSH2 0xC8 JUMPI DUP1 PUSH4 0x35AA2E44 EQ PUSH2 0x1C5 JUMPI DUP1 PUSH4 0x75080DE8 EQ PUSH2 0x233 JUMPI DUP1 PUSH4 0x76F5E6DA EQ PUSH2 0x28A JUMPI DUP1 PUSH4 0x974275CF EQ PUSH2 0x345 JUMPI PUSH2 0xEA JUMP JUMPDEST DUP1 PUSH4 0x15C09850 EQ PUSH2 0xEF JUMPI DUP1 PUSH4 0x2079FB9A EQ PUSH2 0x139 JUMPI DUP1 PUSH4 0x2CEEA82A EQ PUSH2 0x1A7 JUMPI JUMPDEST PUSH1 0x0 DUP1 REVERT JUMPDEST PUSH2 0xF7 PUSH2 0x60C JUMP JUMPDEST PUSH1 0x40 MLOAD DUP1 DUP3 PUSH20 0xFFFFFFFFFFFFFFFFFFFFFFFFFFFFFFFFFFFFFFFF AND PUSH20 0xFFFFFFFFFFFFFFFFFFFFFFFFFFFFFFFFFFFFFFFF AND DUP2 MSTORE PUSH1 0x20 ADD SWAP2 POP POP PUSH1 0x40 MLOAD DUP1 SWAP2 SUB SWAP1 RETURN JUMPDEST PUSH2 0x165 PUSH1 0x4 DUP1 CALLDATASIZE SUB PUSH1 0x20 DUP2 LT ISZERO PUSH2 0x14F JUMPI PUSH1 0x0 DUP1 REVERT JUMPDEST DUP2 ADD SWAP1 DUP1 DUP1 CALLDATALOAD SWAP1 PUSH1 0x20 ADD SWAP1 SWAP3 SWAP2 SWAP1 POP POP POP PUSH2 0x632 JUMP JUMPDEST PUSH1 0x40 MLOAD DUP1 DUP3 PUSH20 0xFFFFFFFFFFFFFFFFFFFFFFFFFFFFFFFFFFFFFFFF AND PUSH20 0xFFFFFFFFFFFFFFFFFFFFFFFFFFFFFFFFFFFFFFFF AND DUP2 MSTORE PUSH1 0x20 ADD SWAP2 POP POP PUSH1 0x40 MLOAD DUP1 SWAP2 SUB SWAP1 RETURN JUMPDEST PUSH2 0x1AF PUSH2 0x66E JUMP JUMPDEST PUSH1 0x40 MLOAD DUP1 DUP3 DUP2 MSTORE PUSH1 0x20 ADD SWAP2 POP POP PUSH1 0x40 MLOAD DUP1 SWAP2 SUB SWAP1 RETURN JUMPDEST PUSH2 0x1F1 PUSH1 0x4 DUP1 CALLDATASIZE SUB PUSH1 0x20 DUP2 LT ISZERO PUSH2 0x1DB JUMPI PUSH1 0x0 DUP1 REVERT JUMPDEST DUP2 ADD SWAP1 DUP1 DUP1 CALLDATALOAD SWAP1 PUSH1 0x20 ADD SWAP1 SWAP3 SWAP2 SWAP1 POP POP POP PUSH2 0x67B JUMP JUMPDEST PUSH1 0x40 MLOAD DUP1 DUP3 PUSH20 0xFFFFFFFFFFFFFFFFFFFFFFFFFFFFFFFFFFFFFFFF AND PUSH20 0xFFFFFFFFFFFFFFFFFFFFFFFFFFFFFFFFFFFFFFFF AND DUP2 MSTORE PUSH1 0x20 ADD SWAP2 POP POP PUSH1 0x40 MLOAD DUP1 SWAP2 SUB SWAP1 RETURN JUMPDEST PUSH2 0x25F PUSH1 0x4 DUP1 CALLDATASIZE SUB PUSH1 0x20 DUP2 LT ISZERO PUSH2 0x249 JUMPI PUSH1 0x0 DUP1 REVERT JUMPDEST DUP2 ADD SWAP1 DUP1 DUP1 CALLDATALOAD SWAP1 PUSH1 0x20 ADD SWAP1 SWAP3 SWAP2 SWAP1 POP POP POP PUSH2 0x6B7 JUMP JUMPDEST PUSH1 0x40 MLOAD DUP1 DUP6 DUP2 MSTORE PUSH1 0x20 ADD DUP5 DUP2 MSTORE PUSH1 0x20 ADD DUP4 DUP2 MSTORE PUSH1 0x20 ADD DUP3 DUP2 MSTORE PUSH1 0x20 ADD SWAP5 POP POP POP POP POP PUSH1 0x40 MLOAD DUP1 SWAP2 SUB SWAP1 RETURN JUMPDEST PUSH2 0x343 PUSH1 0x4 DUP1 CALLDATASIZE SUB PUSH1 0x20 DUP2 LT ISZERO PUSH2 0x2A0 JUMPI PUSH1 0x0 DUP1 REVERT JUMPDEST DUP2 ADD SWAP1 DUP1 DUP1 CALLDATALOAD SWAP1 PUSH1 0x20 ADD SWAP1 PUSH5 0x100000000 DUP2 GT ISZERO PUSH2 0x2BD JUMPI PUSH1 0x0 DUP1 REVERT JUMPDEST DUP3 ADD DUP4 PUSH1 0x20 DUP3 ADD GT ISZERO PUSH2 0x2CF JUMPI PUSH1 0x0 DUP1 REVERT JUMPDEST DUP1 CALLDATALOAD SWAP1 PUSH1 0x20 ADD SWAP2 DUP5 PUSH1 0x1 DUP4 MUL DUP5 ADD GT PUSH5 0x100000000 DUP4 GT OR ISZERO PUSH2 0x2F1 JUMPI PUSH1 0x0 DUP1 REVERT JUMPDEST SWAP2 SWAP1 DUP1 DUP1 PUSH1 0x1F ADD PUSH1 0x20 DUP1 SWAP2 DIV MUL PUSH1 0x20 ADD PUSH1 0x40 MLOAD SWAP1 DUP2 ADD PUSH1 0x40 MSTORE DUP1 SWAP4 SWAP3 SWAP2 SWAP1 DUP2 DUP2 MSTORE PUSH1 0x20 ADD DUP4 DUP4 DUP1 DUP3 DUP5 CALLDATACOPY PUSH1 0x0 DUP2 DUP5 ADD MSTORE PUSH1 0x1F NOT PUSH1 0x1F DUP3 ADD AND SWAP1 POP DUP1 DUP4 ADD SWAP3 POP POP POP POP POP POP POP SWAP2 SWAP3 SWAP2 SWAP3 SWAP1 POP POP POP PUSH2 0x6F4 JUMP JUMPDEST STOP JUMPDEST PUSH2 0x387 PUSH1 0x4 DUP1 CALLDATASIZE SUB PUSH1 0x20 DUP2 LT ISZERO PUSH2 0x35B JUMPI PUSH1 0x0 DUP1 REVERT JUMPDEST DUP2 ADD SWAP1 DUP1 DUP1 CALLDATALOAD PUSH20 0xFFFFFFFFFFFFFFFFFFFFFFFFFFFFFFFFFFFFFFFF AND SWAP1 PUSH1 0x20 ADD SWAP1 SWAP3 SWAP2 SWAP1 POP POP POP PUSH2 0xC61 JUMP JUMPDEST STOP JUMPDEST PUSH2 0x3B5 PUSH1 0x4 DUP1 CALLDATASIZE SUB PUSH1 0x20 DUP2 LT ISZERO PUSH2 0x39F JUMPI PUSH1 0x0 DUP1 REVERT JUMPDEST DUP2 ADD SWAP1 DUP1 DUP1 CALLDATALOAD SWAP1 PUSH1 0x20 ADD SWAP1 SWAP3 SWAP2 SWAP1 POP POP POP PUSH2 0xCA5 JUMP JUMPDEST PUSH1 0x40 MLOAD DUP1 DUP3 ISZERO ISZERO ISZERO ISZERO DUP2 MSTORE PUSH1 0x20 ADD SWAP2 POP POP PUSH1 0x40 MLOAD DUP1 SWAP2 SUB SWAP1 RETURN JUMPDEST PUSH2 0x488 PUSH1 0x4 DUP1 CALLDATASIZE SUB PUSH1 0x20 DUP2 LT ISZERO PUSH2 0x3E5 JUMPI PUSH1 0x0 DUP1 REVERT JUMPDEST DUP2 ADD SWAP1 DUP1 DUP1 CALLDATALOAD SWAP1 PUSH1 0x20 ADD SWAP1 PUSH5 0x100000000 DUP2 GT ISZERO PUSH2 0x402 JUMPI PUSH1 0x0 DUP1 REVERT JUMPDEST DUP3 ADD DUP4 PUSH1 0x20 DUP3 ADD GT ISZERO PUSH2 0x414 JUMPI PUSH1 0x0 DUP1 REVERT JUMPDEST DUP1 CALLDATALOAD SWAP1 PUSH1 0x20 ADD SWAP2 DUP5 PUSH1 0x1 DUP4 MUL DUP5 ADD GT PUSH5 0x100000000 DUP4 GT OR ISZERO PUSH2 0x436 JUMPI PUSH1 0x0 DUP1 REVERT JUMPDEST SWAP2 SWAP1 DUP1 DUP1 PUSH1 0x1F ADD PUSH1 0x20 DUP1 SWAP2 DIV MUL PUSH1 0x20 ADD PUSH1 0x40 MLOAD SWAP1 DUP2 ADD PUSH1 0x40 MSTORE DUP1 SWAP4 SWAP3 SWAP2 SWAP1 DUP2 DUP2 MSTORE PUSH1 0x20 ADD DUP4 DUP4 DUP1 DUP3 DUP5 CALLDATACOPY PUSH1 0x0 DUP2 DUP5 ADD MSTORE PUSH1 0x1F NOT PUSH1 0x1F DUP3 ADD AND SWAP1 POP DUP1 DUP4 ADD SWAP3 POP POP POP POP POP POP POP SWAP2 SWAP3 SWAP2 SWAP3 SWAP1 POP POP POP PUSH2 0xCC5 JUMP JUMPDEST STOP JUMPDEST PUSH2 0x492 PUSH2 0x1159 JUMP JUMPDEST PUSH1 0x40 MLOAD DUP1 DUP1 PUSH1 0x20 ADD DUP3 DUP2 SUB DUP3 MSTORE DUP4 DUP2 DUP2 MLOAD DUP2 MSTORE PUSH1 0x20 ADD SWAP2 POP DUP1 MLOAD SWAP1 PUSH1 0x20 ADD SWAP1 PUSH1 0x20 MUL DUP1 DUP4 DUP4 PUSH1 0x0 JUMPDEST DUP4 DUP2 LT ISZERO PUSH2 0x4D5 JUMPI DUP1 DUP3 ADD MLOAD DUP2 DUP5 ADD MSTORE PUSH1 0x20 DUP2 ADD SWAP1 POP PUSH2 0x4BA JUMP JUMPDEST POP POP POP POP SWAP1 POP ADD SWAP3 POP POP POP PUSH1 0x40 MLOAD DUP1 SWAP2 SUB SWAP1 RETURN JUMPDEST PUSH2 0x4F1 PUSH2 0x11E7 JUMP JUMPDEST PUSH1 0x40 MLOAD DUP1 DUP3 DUP2 MSTORE PUSH1 0x20 ADD SWAP2 POP POP PUSH1 0x40 MLOAD DUP1 SWAP2 SUB SWAP1 RETURN JUMPDEST PUSH2 0x50F PUSH2 0x11ED JUMP JUMPDEST PUSH1 0x40 MLOAD DUP1 DUP1 PUSH1 0x20 ADD DUP3 DUP2 SUB DUP3 MSTORE DUP4 DUP2 DUP2 MLOAD DUP2 MSTORE PUSH1 0x20 ADD SWAP2 POP DUP1 MLOAD SWAP1 PUSH1 0x20 ADD SWAP1 PUSH1 0x20 MUL DUP1 DUP4 DUP4 PUSH1 0x0 JUMPDEST DUP4 DUP2 LT ISZERO PUSH2 0x552 JUMPI DUP1 DUP3 ADD MLOAD DUP2 DUP5 ADD MSTORE PUSH1 0x20 DUP2 ADD SWAP1 POP PUSH2 0x537 JUMP JUMPDEST POP POP POP POP SWAP1 POP ADD SWAP3 POP POP POP PUSH1 0x40 MLOAD DUP1 SWAP2 SUB SWAP1 RETURN JUMPDEST PUSH2 0x5A8 PUSH1 0x4 DUP1 CALLDATASIZE SUB PUSH1 0x20 DUP2 LT ISZERO PUSH2 0x57C JUMPI PUSH1 0x0 DUP1 REVERT JUMPDEST DUP2 ADD SWAP1 DUP1 DUP1 CALLDATALOAD PUSH20 0xFFFFFFFFFFFFFFFFFFFFFFFFFFFFFFFFFFFFFFFF AND SWAP1 PUSH1 0x20 ADD SWAP1 SWAP3 SWAP2 SWAP1 POP POP POP PUSH2 0x127B JUMP JUMPDEST PUSH1 0x40 MLOAD DUP1 DUP3 ISZERO ISZERO ISZERO ISZERO DUP2 MSTORE PUSH1 0x20 ADD SWAP2 POP POP PUSH1 0x40 MLOAD DUP1 SWAP2 SUB SWAP1 RETURN JUMPDEST PUSH2 0x5CA PUSH2 0x129B JUMP JUMPDEST PUSH1 0x40 MLOAD DUP1 DUP3 PUSH20 0xFFFFFFFFFFFFFFFFFFFFFFFFFFFFFFFFFFFFFFFF AND PUSH20 0xFFFFFFFFFFFFFFFFFFFFFFFFFFFFFFFFFFFFFFFF AND DUP2 MSTORE PUSH1 0x20 ADD SWAP2 POP POP PUSH1 0x40 MLOAD DUP1 SWAP2 SUB SWAP1 RETURN JUMPDEST PUSH1 0x7 PUSH1 0x0 SWAP1 SLOAD SWAP1 PUSH2 0x100 EXP SWAP1 DIV PUSH20 0xFFFFFFFFFFFFFFFFFFFFFFFFFFFFFFFFFFFFFFFF AND DUP2 JUMP JUMPDEST PUSH1 0x4 DUP2 DUP2 SLOAD DUP2 LT PUSH2 0x63F JUMPI INVALID JUMPDEST SWAP1 PUSH1 0x0 MSTORE PUSH1 0x20 PUSH1 0x0 KECCAK256 ADD PUSH1 0x0 SWAP2 POP SLOAD SWAP1 PUSH2 0x100 EXP SWAP1 DIV PUSH20 0xFFFFFFFFFFFFFFFFFFFFFFFFFFFFFFFFFFFFFFFF AND DUP2 JUMP JUMPDEST PUSH1 0x0 PUSH1 0x5 DUP1 SLOAD SWAP1 POP SWAP1 POP SWAP1 JUMP JUMPDEST PUSH1 0x3 DUP2 DUP2 SLOAD DUP2 LT PUSH2 0x688 JUMPI INVALID JUMPDEST SWAP1 PUSH1 0x0 MSTORE PUSH1 0x20 PUSH1 0x0 KECCAK256 ADD PUSH1 0x0 SWAP2 POP SLOAD SWAP1 PUSH2 0x100 EXP SWAP1 DIV PUSH20 0xFFFFFFFFFFFFFFFFFFFFFFFFFFFFFFFFFFFFFFFF AND DUP2 JUMP JUMPDEST PUSH1 0x5 DUP2 DUP2 SLOAD DUP2 LT PUSH2 0x6C4 JUMPI INVALID JUMPDEST SWAP1 PUSH1 0x0 MSTORE PUSH1 0x20 PUSH1 0x0 KECCAK256 SWAP1 PUSH1 0x4 MUL ADD PUSH1 0x0 SWAP2 POP SWAP1 POP DUP1 PUSH1 0x0 ADD SLOAD SWAP1 DUP1 PUSH1 0x1 ADD SLOAD SWAP1 DUP1 PUSH1 0x2 ADD SLOAD SWAP1 DUP1 PUSH1 0x3 ADD SLOAD SWAP1 POP DUP5 JUMP JUMPDEST PUSH1 0x60 PUSH2 0x707 PUSH2 0x702 DUP4 PUSH2 0x12C1 JUMP JUMPDEST PUSH2 0x12EF JUMP JUMPDEST SWAP1 POP PUSH1 0x60 PUSH2 0x728 DUP3 PUSH1 0x0 DUP2 MLOAD DUP2 LT PUSH2 0x71B JUMPI INVALID JUMPDEST PUSH1 0x20 MUL PUSH1 0x20 ADD ADD MLOAD PUSH2 0x12EF JUMP JUMPDEST SWAP1 POP PUSH1 0x4 DUP2 MLOAD EQ PUSH2 0x7A1 JUMPI PUSH1 0x40 MLOAD PUSH32 0x8C379A000000000000000000000000000000000000000000000000000000000 DUP2 MSTORE PUSH1 0x4 ADD DUP1 DUP1 PUSH1 0x20 ADD DUP3 DUP2 SUB DUP3 MSTORE PUSH1 0x20 DUP2 MSTORE PUSH1 0x20 ADD DUP1 PUSH32 0x62756E636820686561646572206D75737420686176652034206D656D62657273 DUP2 MSTORE POP PUSH1 0x20 ADD SWAP2 POP POP PUSH1 0x40 MLOAD DUP1 SWAP2 SUB SWAP1 REVERT JUMPDEST PUSH2 0x7A9 PUSH2 0x2919 JUMP JUMPDEST PUSH1 0x40 MLOAD DUP1 PUSH1 0x80 ADD PUSH1 0x40 MSTORE DUP1 PUSH2 0x7D1 DUP5 PUSH1 0x0 DUP2 MLOAD DUP2 LT PUSH2 0x7C4 JUMPI INVALID JUMPDEST PUSH1 0x20 MUL PUSH1 0x20 ADD ADD MLOAD PUSH2 0x13E3 JUMP JUMPDEST DUP2 MSTORE PUSH1 0x20 ADD PUSH2 0x7F3 DUP5 PUSH1 0x1 DUP2 MLOAD DUP2 LT PUSH2 0x7E6 JUMPI INVALID JUMPDEST PUSH1 0x20 MUL PUSH1 0x20 ADD ADD MLOAD PUSH2 0x13E3 JUMP JUMPDEST DUP2 MSTORE PUSH1 0x20 ADD PUSH2 0x815 DUP5 PUSH1 0x2 DUP2 MLOAD DUP2 LT PUSH2 0x808 JUMPI INVALID JUMPDEST PUSH1 0x20 MUL PUSH1 0x20 ADD ADD MLOAD PUSH2 0x1454 JUMP JUMPDEST DUP2 MSTORE PUSH1 0x20 ADD PUSH2 0x837 DUP5 PUSH1 0x3 DUP2 MLOAD DUP2 LT PUSH2 0x82A JUMPI INVALID JUMPDEST PUSH1 0x20 MUL PUSH1 0x20 ADD ADD MLOAD PUSH2 0x1454 JUMP JUMPDEST DUP2 MSTORE POP SWAP1 POP PUSH2 0x844 PUSH2 0x1469 JUMP JUMPDEST DUP2 PUSH1 0x0 ADD MLOAD EQ PUSH2 0x8BC JUMPI PUSH1 0x40 MLOAD PUSH32 0x8C379A000000000000000000000000000000000000000000000000000000000 DUP2 MSTORE PUSH1 0x4 ADD DUP1 DUP1 PUSH1 0x20 ADD DUP3 DUP2 SUB DUP3 MSTORE PUSH1 0x1A DUP2 MSTORE PUSH1 0x20 ADD DUP1 PUSH32 0x696E76616C696420737461727420626C6F636B206E756D626572000000000000 DUP2 MSTORE POP PUSH1 0x20 ADD SWAP2 POP POP PUSH1 0x40 MLOAD DUP1 SWAP2 SUB SWAP1 REVERT JUMPDEST PUSH1 0x60 PUSH2 0x8DB DUP5 PUSH1 0x0 DUP2 MLOAD DUP2 LT PUSH2 0x8CE JUMPI INVALID JUMPDEST PUSH1 0x20 MUL PUSH1 0x20 ADD ADD MLOAD PUSH2 0x14D9 JUMP JUMPDEST SWAP1 POP PUSH1 0x0 PUSH1 0x40 MLOAD DUP1 PUSH1 0x40 ADD PUSH1 0x40 MSTORE DUP1 PUSH1 0x2 DUP2 MSTORE PUSH1 0x20 ADD PUSH32 0x1997000000000000000000000000000000000000000000000000000000000000 DUP2 MSTORE POP PUSH32 0x6F3A1E66E989A1CF337B9DD2CE4C98A5E78763CF9F9BDAAC5707038C66A4D74E DUP4 PUSH1 0x40 MLOAD PUSH1 0x20 ADD DUP1 DUP5 DUP1 MLOAD SWAP1 PUSH1 0x20 ADD SWAP1 DUP1 DUP4 DUP4 JUMPDEST PUSH1 0x20 DUP4 LT PUSH2 0x96D JUMPI DUP1 MLOAD DUP3 MSTORE PUSH1 0x20 DUP3 ADD SWAP2 POP PUSH1 0x20 DUP2 ADD SWAP1 POP PUSH1 0x20 DUP4 SUB SWAP3 POP PUSH2 0x94A JUMP JUMPDEST PUSH1 0x1 DUP4 PUSH1 0x20 SUB PUSH2 0x100 EXP SUB DUP1 NOT DUP3 MLOAD AND DUP2 DUP5 MLOAD AND DUP1 DUP3 OR DUP6 MSTORE POP POP POP POP POP POP SWAP1 POP ADD DUP4 DUP2 MSTORE PUSH1 0x20 ADD DUP3 DUP1 MLOAD SWAP1 PUSH1 0x20 ADD SWAP1 DUP1 DUP4 DUP4 JUMPDEST PUSH1 0x20 DUP4 LT PUSH2 0x9C4 JUMPI DUP1 MLOAD DUP3 MSTORE PUSH1 0x20 DUP3 ADD SWAP2 POP PUSH1 0x20 DUP2 ADD SWAP1 POP PUSH1 0x20 DUP4 SUB SWAP3 POP PUSH2 0x9A1 JUMP JUMPDEST PUSH1 0x1 DUP4 PUSH1 0x20 SUB PUSH2 0x100 EXP SUB DUP1 NOT DUP3 MLOAD AND DUP2 DUP5 MLOAD AND DUP1 DUP3 OR DUP6 MSTORE POP POP POP POP POP POP SWAP1 POP ADD SWAP4 POP POP POP POP PUSH1 0x40 MLOAD PUSH1 0x20 DUP2 DUP4 SUB SUB DUP2 MSTORE SWAP1 PUSH1 0x40 MSTORE DUP1 MLOAD SWAP1 PUSH1 0x20 ADD KECCAK256 SWAP1 POP PUSH1 0x0 DUP1 PUSH1 0x1 SWAP1 POP JUMPDEST DUP7 MLOAD DUP2 LT ISZERO PUSH2 0xB23 JUMPI PUSH1 0x60 PUSH2 0xA32 DUP9 DUP4 DUP2 MLOAD DUP2 LT PUSH2 0xA25 JUMPI INVALID JUMPDEST PUSH1 0x20 MUL PUSH1 0x20 ADD ADD MLOAD PUSH2 0x1566 JUMP JUMPDEST SWAP1 POP PUSH1 0x0 DUP1 PUSH2 0xA41 DUP7 DUP5 PUSH2 0x1609 JUMP JUMPDEST SWAP2 POP SWAP2 POP DUP2 PUSH2 0xAB8 JUMPI PUSH1 0x40 MLOAD PUSH32 0x8C379A000000000000000000000000000000000000000000000000000000000 DUP2 MSTORE PUSH1 0x4 ADD DUP1 DUP1 PUSH1 0x20 ADD DUP3 DUP2 SUB DUP3 MSTORE PUSH1 0x18 DUP2 MSTORE PUSH1 0x20 ADD DUP1 PUSH32 0x65637265636F7665722073686F756C6420737563636573730000000000000000 DUP2 MSTORE POP PUSH1 0x20 ADD SWAP2 POP POP PUSH1 0x40 MLOAD DUP1 SWAP2 SUB SWAP1 REVERT JUMPDEST PUSH1 0x1 PUSH1 0x0 DUP3 PUSH20 0xFFFFFFFFFFFFFFFFFFFFFFFFFFFFFFFFFFFFFFFF AND PUSH20 0xFFFFFFFFFFFFFFFFFFFFFFFFFFFFFFFFFFFFFFFF AND DUP2 MSTORE PUSH1 0x20 ADD SWAP1 DUP2 MSTORE PUSH1 0x20 ADD PUSH1 0x0 KECCAK256 PUSH1 0x0 SWAP1 SLOAD SWAP1 PUSH2 0x100 EXP SWAP1 DIV PUSH1 0xFF AND ISZERO PUSH2 0xB13 JUMPI DUP5 DUP1 PUSH1 0x1 ADD SWAP6 POP POP JUMPDEST POP POP POP DUP1 DUP1 PUSH1 0x1 ADD SWAP2 POP POP PUSH2 0xA0B JUMP JUMPDEST POP PUSH1 0x64 PUSH1 0x42 PUSH1 0x0 SLOAD MUL DUP2 PUSH2 0xB33 JUMPI INVALID JUMPDEST DIV DUP2 GT PUSH2 0xBA8 JUMPI PUSH1 0x40 MLOAD PUSH32 0x8C379A000000000000000000000000000000000000000000000000000000000 DUP2 MSTORE PUSH1 0x4 ADD DUP1 DUP1 PUSH1 0x20 ADD DUP3 DUP2 SUB DUP3 MSTORE PUSH1 0x1A DUP2 MSTORE PUSH1 0x20 ADD DUP1 PUSH32 0x3636252076616C696461746F72732073686F756C64207369676E000000000000 DUP2 MSTORE POP PUSH1 0x20 ADD SWAP2 POP POP PUSH1 0x40 MLOAD DUP1 SWAP2 SUB SWAP1 REVERT JUMPDEST PUSH1 0x0 PUSH1 0x5 DUP1 SLOAD SWAP1 POP SWAP1 POP PUSH1 0x5 DUP6 SWAP1 DUP1 PUSH1 0x1 DUP2 SLOAD ADD DUP1 DUP3 SSTORE DUP1 SWAP2 POP POP PUSH1 0x1 SWAP1 SUB SWAP1 PUSH1 0x0 MSTORE PUSH1 0x20 PUSH1 0x0 KECCAK256 SWAP1 PUSH1 0x4 MUL ADD PUSH1 0x0 SWAP1 SWAP2 SWAP1 SWAP2 SWAP1 SWAP2 POP PUSH1 0x0 DUP3 ADD MLOAD DUP2 PUSH1 0x0 ADD SSTORE PUSH1 0x20 DUP3 ADD MLOAD DUP2 PUSH1 0x1 ADD SSTORE PUSH1 0x40 DUP3 ADD MLOAD DUP2 PUSH1 0x2 ADD SSTORE PUSH1 0x60 DUP3 ADD MLOAD DUP2 PUSH1 0x3 ADD SSTORE POP POP PUSH32 0x435520EA9B14C682112ACEF5BC8466234D75B18DCE73C44A78D905139DEF419D DUP6 PUSH1 0x0 ADD MLOAD DUP7 PUSH1 0x20 ADD MLOAD DUP4 PUSH1 0x40 MLOAD DUP1 DUP5 DUP2 MSTORE PUSH1 0x20 ADD DUP4 DUP2 MSTORE PUSH1 0x20 ADD DUP3 DUP2 MSTORE PUSH1 0x20 ADD SWAP4 POP POP POP POP PUSH1 0x40 MLOAD DUP1 SWAP2 SUB SWAP1 LOG1 POP POP POP POP POP POP POP POP JUMP JUMPDEST DUP1 PUSH1 0x7 PUSH1 0x0 PUSH2 0x100 EXP DUP2 SLOAD DUP2 PUSH20 0xFFFFFFFFFFFFFFFFFFFFFFFFFFFFFFFFFFFFFFFF MUL NOT AND SWAP1 DUP4 PUSH20 0xFFFFFFFFFFFFFFFFFFFFFFFFFFFFFFFFFFFFFFFF AND MUL OR SWAP1 SSTORE POP POP JUMP JUMPDEST PUSH1 0x2 PUSH1 0x20 MSTORE DUP1 PUSH1 0x0 MSTORE PUSH1 0x40 PUSH1 0x0 KECCAK256 PUSH1 0x0 SWAP2 POP SLOAD SWAP1 PUSH2 0x100 EXP SWAP1 DIV PUSH1 0xFF AND DUP2 JUMP JUMPDEST PUSH1 0x60 PUSH2 0xCD8 PUSH2 0xCD3 DUP4 PUSH2 0x12C1 JUMP JUMPDEST PUSH2 0x12EF JUMP JUMPDEST SWAP1 POP PUSH1 0x0 PUSH2 0xCF9 DUP3 PUSH1 0x0 DUP2 MLOAD DUP2 LT PUSH2 0xCEC JUMPI INVALID JUMPDEST PUSH1 0x20 MUL PUSH1 0x20 ADD ADD MLOAD PUSH2 0x13E3 JUMP JUMPDEST SWAP1 POP PUSH1 0x0 PUSH2 0xD1A DUP4 PUSH1 0x1 DUP2 MLOAD DUP2 LT PUSH2 0xD0D JUMPI INVALID JUMPDEST PUSH1 0x20 MUL PUSH1 0x20 ADD ADD MLOAD PUSH2 0x13E3 JUMP JUMPDEST SWAP1 POP PUSH1 0x60 PUSH2 0xD3B DUP5 PUSH1 0x2 DUP2 MLOAD DUP2 LT PUSH2 0xD2E JUMPI INVALID JUMPDEST PUSH1 0x20 MUL PUSH1 0x20 ADD ADD MLOAD PUSH2 0x1566 JUMP JUMPDEST SWAP1 POP PUSH1 0x0 PUSH2 0xD5C DUP6 PUSH1 0x3 DUP2 MLOAD DUP2 LT PUSH2 0xD4F JUMPI INVALID JUMPDEST PUSH1 0x20 MUL PUSH1 0x20 ADD ADD MLOAD PUSH2 0x1454 JUMP JUMPDEST SWAP1 POP PUSH1 0x60 PUSH2 0xD7D DUP7 PUSH1 0x4 DUP2 MLOAD DUP2 LT PUSH2 0xD70 JUMPI INVALID JUMPDEST PUSH1 0x20 MUL PUSH1 0x20 ADD ADD MLOAD PUSH2 0x1566 JUMP JUMPDEST SWAP1 POP PUSH1 0x60 PUSH2 0xD9E DUP8 PUSH1 0x5 DUP2 MLOAD DUP2 LT PUSH2 0xD91 JUMPI INVALID JUMPDEST PUSH1 0x20 MUL PUSH1 0x20 ADD ADD MLOAD PUSH2 0x1566 JUMP JUMPDEST SWAP1 POP PUSH1 0x60 PUSH2 0xDBF DUP9 PUSH1 0x6 DUP2 MLOAD DUP2 LT PUSH2 0xDB2 JUMPI INVALID JUMPDEST PUSH1 0x20 MUL PUSH1 0x20 ADD ADD MLOAD PUSH2 0x1566 JUMP JUMPDEST SWAP1 POP PUSH1 0x0 DUP4 DUP1 MLOAD SWAP1 PUSH1 0x20 ADD KECCAK256 SWAP1 POP PUSH1 0x2 PUSH1 0x0 DUP3 DUP2 MSTORE PUSH1 0x20 ADD SWAP1 DUP2 MSTORE PUSH1 0x20 ADD PUSH1 0x0 KECCAK256 PUSH1 0x0 SWAP1 SLOAD SWAP1 PUSH2 0x100 EXP SWAP1 DIV PUSH1 0xFF AND ISZERO PUSH2 0xE44 JUMPI PUSH1 0x40 MLOAD PUSH32 0x8C379A000000000000000000000000000000000000000000000000000000000 DUP2 MSTORE PUSH1 0x4 ADD DUP1 DUP1 PUSH1 0x20 ADD DUP3 DUP2 SUB DUP3 MSTORE PUSH1 0x31 DUP2 MSTORE PUSH1 0x20 ADD DUP1 PUSH2 0x2990 PUSH1 0x31 SWAP2 CODECOPY PUSH1 0x40 ADD SWAP2 POP POP PUSH1 0x40 MLOAD DUP1 SWAP2 SUB SWAP1 REVERT JUMPDEST PUSH2 0xE50 DUP5 DUP5 DUP5 DUP9 PUSH2 0x16A1 JUMP JUMPDEST PUSH2 0xEC2 JUMPI PUSH1 0x40 MLOAD PUSH32 0x8C379A000000000000000000000000000000000000000000000000000000000 DUP2 MSTORE PUSH1 0x4 ADD DUP1 DUP1 PUSH1 0x20 ADD DUP3 DUP2 SUB DUP3 MSTORE PUSH1 0x16 DUP2 MSTORE PUSH1 0x20 ADD DUP1 PUSH32 0x496E76616C69642050617472696369612050726F6F6600000000000000000000 DUP2 MSTORE POP PUSH1 0x20 ADD SWAP2 POP POP PUSH1 0x40 MLOAD DUP1 SWAP2 SUB SWAP1 REVERT JUMPDEST PUSH2 0xF0C DUP6 PUSH1 0x5 DUP11 DUP2 SLOAD DUP2 LT PUSH2 0xED3 JUMPI INVALID JUMPDEST SWAP1 PUSH1 0x0 MSTORE PUSH1 0x20 PUSH1 0x0 KECCAK256 SWAP1 PUSH1 0x4 MUL ADD PUSH1 0x0 ADD SLOAD DUP10 SUB PUSH1 0x5 DUP12 DUP2 SLOAD DUP2 LT PUSH2 0xEF4 JUMPI INVALID JUMPDEST SWAP1 PUSH1 0x0 MSTORE PUSH1 0x20 PUSH1 0x0 KECCAK256 SWAP1 PUSH1 0x4 MUL ADD PUSH1 0x2 ADD SLOAD DUP10 PUSH2 0x1977 JUMP JUMPDEST PUSH2 0xF7E JUMPI PUSH1 0x40 MLOAD PUSH32 0x8C379A000000000000000000000000000000000000000000000000000000000 DUP2 MSTORE PUSH1 0x4 ADD DUP1 DUP1 PUSH1 0x20 ADD DUP3 DUP2 SUB DUP3 MSTORE PUSH1 0x14 DUP2 MSTORE PUSH1 0x20 ADD DUP1 PUSH32 0x496E76616C6964204D65726B6C652050726F6F66000000000000000000000000 DUP2 MSTORE POP PUSH1 0x20 ADD SWAP2 POP POP PUSH1 0x40 MLOAD DUP1 SWAP2 SUB SWAP1 REVERT JUMPDEST PUSH1 0x0 DUP1 PUSH1 0x0 PUSH2 0xF8C DUP8 PUSH2 0x1ABE JUMP JUMPDEST POP SWAP3 POP SWAP3 POP SWAP3 POP PUSH1 0x7 PUSH1 0x0 SWAP1 SLOAD SWAP1 PUSH2 0x100 EXP SWAP1 DIV PUSH20 0xFFFFFFFFFFFFFFFFFFFFFFFFFFFFFFFFFFFFFFFF AND PUSH20 0xFFFFFFFFFFFFFFFFFFFFFFFFFFFFFFFFFFFFFFFF AND DUP3 PUSH20 0xFFFFFFFFFFFFFFFFFFFFFFFFFFFFFFFFFFFFFFFF AND EQ PUSH2 0x1039 JUMPI PUSH1 0x40 MLOAD PUSH32 0x8C379A000000000000000000000000000000000000000000000000000000000 DUP2 MSTORE PUSH1 0x4 ADD DUP1 DUP1 PUSH1 0x20 ADD DUP3 DUP2 SUB DUP3 MSTORE PUSH1 0x2E DUP2 MSTORE PUSH1 0x20 ADD DUP1 PUSH2 0x2962 PUSH1 0x2E SWAP2 CODECOPY PUSH1 0x40 ADD SWAP2 POP POP PUSH1 0x40 MLOAD DUP1 SWAP2 SUB SWAP1 REVERT JUMPDEST PUSH1 0x1 PUSH1 0x2 PUSH1 0x0 DUP7 DUP2 MSTORE PUSH1 0x20 ADD SWAP1 DUP2 MSTORE PUSH1 0x20 ADD PUSH1 0x0 KECCAK256 PUSH1 0x0 PUSH2 0x100 EXP DUP2 SLOAD DUP2 PUSH1 0xFF MUL NOT AND SWAP1 DUP4 ISZERO ISZERO MUL OR SWAP1 SSTORE POP PUSH1 0x6 PUSH1 0x0 SWAP1 SLOAD SWAP1 PUSH2 0x100 EXP SWAP1 DIV PUSH20 0xFFFFFFFFFFFFFFFFFFFFFFFFFFFFFFFFFFFFFFFF AND PUSH20 0xFFFFFFFFFFFFFFFFFFFFFFFFFFFFFFFFFFFFFFFF AND PUSH4 0xA9059CBB DUP5 DUP4 PUSH1 0x40 MLOAD DUP4 PUSH4 0xFFFFFFFF AND PUSH1 0xE0 SHL DUP2 MSTORE PUSH1 0x4 ADD DUP1 DUP4 PUSH20 0xFFFFFFFFFFFFFFFFFFFFFFFFFFFFFFFFFFFFFFFF AND PUSH20 0xFFFFFFFFFFFFFFFFFFFFFFFFFFFFFFFFFFFFFFFF AND DUP2 MSTORE PUSH1 0x20 ADD DUP3 DUP2 MSTORE PUSH1 0x20 ADD SWAP3 POP POP POP PUSH1 0x20 PUSH1 0x40 MLOAD DUP1 DUP4 SUB DUP2 PUSH1 0x0 DUP8 DUP1 EXTCODESIZE ISZERO DUP1 ISZERO PUSH2 0x110E JUMPI PUSH1 0x0 DUP1 REVERT JUMPDEST POP GAS CALL ISZERO DUP1 ISZERO PUSH2 0x1122 JUMPI RETURNDATASIZE PUSH1 0x0 DUP1 RETURNDATACOPY RETURNDATASIZE PUSH1 0x0 REVERT JUMPDEST POP POP POP POP PUSH1 0x40 MLOAD RETURNDATASIZE PUSH1 0x20 DUP2 LT ISZERO PUSH2 0x1138 JUMPI PUSH1 0x0 DUP1 REVERT JUMPDEST DUP2 ADD SWAP1 DUP1 DUP1 MLOAD SWAP1 PUSH1 0x20 ADD SWAP1 SWAP3 SWAP2 SWAP1 POP POP POP POP POP POP POP POP POP POP POP POP POP POP POP POP POP JUMP JUMPDEST PUSH1 0x60 PUSH1 0x4 DUP1 SLOAD DUP1 PUSH1 0x20 MUL PUSH1 0x20 ADD PUSH1 0x40 MLOAD SWAP1 DUP2 ADD PUSH1 0x40 MSTORE DUP1 SWAP3 SWAP2 SWAP1 DUP2 DUP2 MSTORE PUSH1 0x20 ADD DUP3 DUP1 SLOAD DUP1 ISZERO PUSH2 0x11DD JUMPI PUSH1 0x20 MUL DUP3 ADD SWAP2 SWAP1 PUSH1 0x0 MSTORE PUSH1 0x20 PUSH1 0x0 KECCAK256 SWAP1 JUMPDEST DUP2 PUSH1 0x0 SWAP1 SLOAD SWAP1 PUSH2 0x100 EXP SWAP1 DIV PUSH20 0xFFFFFFFFFFFFFFFFFFFFFFFFFFFFFFFFFFFFFFFF AND PUSH20 0xFFFFFFFFFFFFFFFFFFFFFFFFFFFFFFFFFFFFFFFF AND DUP2 MSTORE PUSH1 0x20 ADD SWAP1 PUSH1 0x1 ADD SWAP1 DUP1 DUP4 GT PUSH2 0x1193 JUMPI JUMPDEST POP POP POP POP POP SWAP1 POP SWAP1 JUMP JUMPDEST PUSH1 0x0 SLOAD DUP2 JUMP JUMPDEST PUSH1 0x60 PUSH1 0x3 DUP1 SLOAD DUP1 PUSH1 0x20 MUL PUSH1 0x20 ADD PUSH1 0x40 MLOAD SWAP1 DUP2 ADD PUSH1 0x40 MSTORE DUP1 SWAP3 SWAP2 SWAP1 DUP2 DUP2 MSTORE PUSH1 0x20 ADD DUP3 DUP1 SLOAD DUP1 ISZERO PUSH2 0x1271 JUMPI PUSH1 0x20 MUL DUP3 ADD SWAP2 SWAP1 PUSH1 0x0 MSTORE PUSH1 0x20 PUSH1 0x0 KECCAK256 SWAP1 JUMPDEST DUP2 PUSH1 0x0 SWAP1 SLOAD SWAP1 PUSH2 0x100 EXP SWAP1 DIV PUSH20 0xFFFFFFFFFFFFFFFFFFFFFFFFFFFFFFFFFFFFFFFF AND PUSH20 0xFFFFFFFFFFFFFFFFFFFFFFFFFFFFFFFFFFFFFFFF AND DUP2 MSTORE PUSH1 0x20 ADD SWAP1 PUSH1 0x1 ADD SWAP1 DUP1 DUP4 GT PUSH2 0x1227 JUMPI JUMPDEST POP POP POP POP POP SWAP1 POP SWAP1 JUMP JUMPDEST PUSH1 0x1 PUSH1 0x20 MSTORE DUP1 PUSH1 0x0 MSTORE PUSH1 0x40 PUSH1 0x0 KECCAK256 PUSH1 0x0 SWAP2 POP SLOAD SWAP1 PUSH2 0x100 EXP SWAP1 DIV PUSH1 0xFF AND DUP2 JUMP JUMPDEST PUSH1 0x6 PUSH1 0x0 SWAP1 SLOAD SWAP1 PUSH2 0x100 EXP SWAP1 DIV PUSH20 0xFFFFFFFFFFFFFFFFFFFFFFFFFFFFFFFFFFFFFFFF AND DUP2 JUMP JUMPDEST PUSH2 0x12C9 PUSH2 0x2947 JUMP JUMPDEST PUSH1 0x0 PUSH1 0x20 DUP4 ADD SWAP1 POP PUSH1 0x40 MLOAD DUP1 PUSH1 0x40 ADD PUSH1 0x40 MSTORE DUP1 DUP5 MLOAD DUP2 MSTORE PUSH1 0x20 ADD DUP3 DUP2 MSTORE POP SWAP2 POP POP SWAP2 SWAP1 POP JUMP JUMPDEST PUSH1 0x60 PUSH2 0x12FA DUP3 PUSH2 0x1D99 JUMP JUMPDEST PUSH2 0x1303 JUMPI PUSH1 0x0 DUP1 REVERT JUMPDEST PUSH1 0x0 PUSH2 0x130E DUP4 PUSH2 0x1DE7 JUMP JUMPDEST SWAP1 POP PUSH1 0x60 DUP2 PUSH8 0xFFFFFFFFFFFFFFFF DUP2 GT DUP1 ISZERO PUSH2 0x1329 JUMPI PUSH1 0x0 DUP1 REVERT JUMPDEST POP PUSH1 0x40 MLOAD SWAP1 DUP1 DUP3 MSTORE DUP1 PUSH1 0x20 MUL PUSH1 0x20 ADD DUP3 ADD PUSH1 0x40 MSTORE DUP1 ISZERO PUSH2 0x1363 JUMPI DUP2 PUSH1 0x20 ADD JUMPDEST PUSH2 0x1350 PUSH2 0x2947 JUMP JUMPDEST DUP2 MSTORE PUSH1 0x20 ADD SWAP1 PUSH1 0x1 SWAP1 SUB SWAP1 DUP2 PUSH2 0x1348 JUMPI SWAP1 POP JUMPDEST POP SWAP1 POP PUSH1 0x0 PUSH2 0x1375 DUP6 PUSH1 0x20 ADD MLOAD PUSH2 0x1E58 JUMP JUMPDEST DUP6 PUSH1 0x20 ADD MLOAD ADD SWAP1 POP PUSH1 0x0 DUP1 PUSH1 0x0 SWAP1 POP JUMPDEST DUP5 DUP2 LT ISZERO PUSH2 0x13D6 JUMPI PUSH2 0x1396 DUP4 PUSH2 0x1EE1 JUMP JUMPDEST SWAP2 POP PUSH1 0x40 MLOAD DUP1 PUSH1 0x40 ADD PUSH1 0x40 MSTORE DUP1 DUP4 DUP2 MSTORE PUSH1 0x20 ADD DUP5 DUP2 MSTORE POP DUP5 DUP3 DUP2 MLOAD DUP2 LT PUSH2 0x13B9 JUMPI INVALID JUMPDEST PUSH1 0x20 MUL PUSH1 0x20 ADD ADD DUP2 SWAP1 MSTORE POP DUP2 DUP4 ADD SWAP3 POP DUP1 DUP1 PUSH1 0x1 ADD SWAP2 POP POP PUSH2 0x1385 JUMP JUMPDEST POP DUP3 SWAP5 POP POP POP POP POP SWAP2 SWAP1 POP JUMP JUMPDEST PUSH1 0x0 DUP1 DUP3 PUSH1 0x0 ADD MLOAD GT DUP1 ISZERO PUSH2 0x13FD JUMPI POP PUSH1 0x21 DUP3 PUSH1 0x0 ADD MLOAD GT ISZERO JUMPDEST PUSH2 0x1406 JUMPI PUSH1 0x0 DUP1 REVERT JUMPDEST PUSH1 0x0 PUSH2 0x1415 DUP4 PUSH1 0x20 ADD MLOAD PUSH2 0x1E58 JUMP JUMPDEST SWAP1 POP PUSH1 0x0 DUP2 DUP5 PUSH1 0x0 ADD MLOAD SUB SWAP1 POP PUSH1 0x0 DUP1 DUP4 DUP7 PUSH1 0x20 ADD MLOAD ADD SWAP1 POP DUP1 MLOAD SWAP2 POP PUSH1 0x20 DUP4 LT ISZERO PUSH2 0x1448 JUMPI DUP3 PUSH1 0x20 SUB PUSH2 0x100 EXP DUP3 DIV SWAP2 POP JUMPDEST DUP2 SWAP5 POP POP POP POP POP SWAP2 SWAP1 POP JUMP JUMPDEST PUSH1 0x0 PUSH2 0x145F DUP3 PUSH2 0x13E3 JUMP JUMPDEST PUSH1 0x0 SHL SWAP1 POP SWAP2 SWAP1 POP JUMP JUMPDEST PUSH1 0x0 DUP1 PUSH1 0x5 DUP1 SLOAD SWAP1 POP EQ ISZERO PUSH2 0x1481 JUMPI PUSH1 0x0 SWAP1 POP PUSH2 0x14D6 JUMP JUMPDEST PUSH1 0x5 PUSH1 0x1 PUSH1 0x5 DUP1 SLOAD SWAP1 POP SUB DUP2 SLOAD DUP2 LT PUSH2 0x1496 JUMPI INVALID JUMPDEST SWAP1 PUSH1 0x0 MSTORE PUSH1 0x20 PUSH1 0x0 KECCAK256 SWAP1 PUSH1 0x4 MUL ADD PUSH1 0x1 ADD SLOAD PUSH1 0x2 EXP PUSH1 0x5 PUSH1 0x1 PUSH1 0x5 DUP1 SLOAD SWAP1 POP SUB DUP2 SLOAD DUP2 LT PUSH2 0x14C0 JUMPI INVALID JUMPDEST SWAP1 PUSH1 0x0 MSTORE PUSH1 0x20 PUSH1 0x0 KECCAK256 SWAP1 PUSH1 0x4 MUL ADD PUSH1 0x0 ADD SLOAD ADD SWAP1 POP JUMPDEST SWAP1 JUMP JUMPDEST PUSH1 0x60 DUP1 DUP3 PUSH1 0x0 ADD MLOAD PUSH8 0xFFFFFFFFFFFFFFFF DUP2 GT DUP1 ISZERO PUSH2 0x14F7 JUMPI PUSH1 0x0 DUP1 REVERT JUMPDEST POP PUSH1 0x40 MLOAD SWAP1 DUP1 DUP3 MSTORE DUP1 PUSH1 0x1F ADD PUSH1 0x1F NOT AND PUSH1 0x20 ADD DUP3 ADD PUSH1 0x40 MSTORE DUP1 ISZERO PUSH2 0x152A JUMPI DUP2 PUSH1 0x20 ADD PUSH1 0x1 DUP3 MUL DUP1 CALLDATASIZE DUP4 CALLDATACOPY DUP1 DUP3 ADD SWAP2 POP POP SWAP1 POP JUMPDEST POP SWAP1 POP PUSH1 0x0 DUP2 MLOAD EQ ISZERO PUSH2 0x1540 JUMPI DUP1 SWAP2 POP POP PUSH2 0x1561 JUMP JUMPDEST PUSH1 0x0 DUP2 PUSH1 0x20 ADD SWAP1 POP PUSH2 0x155B DUP5 PUSH1 0x20 ADD MLOAD DUP3 DUP7 PUSH1 0x0 ADD MLOAD PUSH2 0x1F99 JUMP JUMPDEST DUP2 SWAP3 POP POP POP JUMPDEST SWAP2 SWAP1 POP JUMP JUMPDEST PUSH1 0x60 PUSH1 0x0 DUP3 PUSH1 0x0 ADD MLOAD GT PUSH2 0x1579 JUMPI PUSH1 0x0 DUP1 REVERT JUMPDEST PUSH1 0x0 PUSH2 0x1588 DUP4 PUSH1 0x20 ADD MLOAD PUSH2 0x1E58 JUMP JUMPDEST SWAP1 POP PUSH1 0x0 DUP2 DUP5 PUSH1 0x0 ADD MLOAD SUB SWAP1 POP PUSH1 0x60 DUP2 PUSH8 0xFFFFFFFFFFFFFFFF DUP2 GT DUP1 ISZERO PUSH2 0x15AE JUMPI PUSH1 0x0 DUP1 REVERT JUMPDEST POP PUSH1 0x40 MLOAD SWAP1 DUP1 DUP3 MSTORE DUP1 PUSH1 0x1F ADD PUSH1 0x1F NOT AND PUSH1 0x20 ADD DUP3 ADD PUSH1 0x40 MSTORE DUP1 ISZERO PUSH2 0x15E1 JUMPI DUP2 PUSH1 0x20 ADD PUSH1 0x1 DUP3 MUL DUP1 CALLDATASIZE DUP4 CALLDATACOPY DUP1 DUP3 ADD SWAP2 POP POP SWAP1 POP JUMPDEST POP SWAP1 POP PUSH1 0x0 DUP2 PUSH1 0x20 ADD SWAP1 POP PUSH2 0x15FD DUP5 DUP8 PUSH1 0x20 ADD MLOAD ADD DUP3 DUP6 PUSH2 0x1F99 JUMP JUMPDEST DUP2 SWAP5 POP POP POP POP POP SWAP2 SWAP1 POP JUMP JUMPDEST PUSH1 0x0 DUP1 PUSH1 0x0 DUP1 PUSH1 0x0 PUSH1 0x41 DUP7 MLOAD EQ PUSH2 0x162C JUMPI PUSH1 0x0 DUP1 DUP1 SWAP1 POP SWAP5 POP SWAP5 POP POP POP POP PUSH2 0x169A JUMP JUMPDEST PUSH1 0x20 DUP7 ADD MLOAD SWAP3 POP PUSH1 0x40 DUP7 ADD MLOAD SWAP2 POP PUSH1 0x60 DUP7 ADD MLOAD PUSH1 0x0 BYTE SWAP1 POP PUSH1 0x1B DUP2 PUSH1 0xFF AND LT ISZERO PUSH2 0x1657 JUMPI PUSH1 0x1B DUP2 ADD SWAP1 POP JUMPDEST PUSH1 0x1B DUP2 PUSH1 0xFF AND EQ ISZERO DUP1 ISZERO PUSH2 0x166F JUMPI POP PUSH1 0x1C DUP2 PUSH1 0xFF AND EQ ISZERO JUMPDEST ISZERO PUSH2 0x1686 JUMPI PUSH1 0x0 DUP1 DUP1 SWAP1 POP SWAP5 POP SWAP5 POP POP POP POP PUSH2 0x169A JUMP JUMPDEST PUSH2 0x1692 DUP8 DUP3 DUP6 DUP6 PUSH2 0x2000 JUMP JUMPDEST SWAP5 POP SWAP5 POP POP POP POP JUMPDEST SWAP3 POP SWAP3 SWAP1 POP JUMP JUMPDEST PUSH1 0x0 PUSH2 0x16AB PUSH2 0x2947 JUMP JUMPDEST PUSH2 0x16B4 DUP5 PUSH2 0x12C1 JUMP JUMPDEST SWAP1 POP PUSH1 0x60 PUSH2 0x16C1 DUP3 PUSH2 0x12EF JUMP JUMPDEST SWAP1 POP PUSH1 0x60 DUP1 PUSH1 0x0 DUP7 SWAP1 POP PUSH1 0x0 DUP1 SWAP1 POP PUSH1 0x60 PUSH2 0x16DB DUP12 PUSH2 0x2044 JUMP JUMPDEST SWAP1 POP PUSH1 0x0 DUP2 MLOAD EQ ISZERO PUSH2 0x16F7 JUMPI PUSH1 0x0 SWAP8 POP POP POP POP POP POP POP POP PUSH2 0x196F JUMP JUMPDEST PUSH1 0x0 DUP1 SWAP1 POP JUMPDEST DUP7 MLOAD DUP2 LT ISZERO PUSH2 0x1966 JUMPI DUP2 MLOAD DUP4 GT ISZERO PUSH2 0x1720 JUMPI PUSH1 0x0 SWAP9 POP POP POP POP POP POP POP POP POP PUSH2 0x196F JUMP JUMPDEST PUSH2 0x173C DUP8 DUP3 DUP2 MLOAD DUP2 LT PUSH2 0x172F JUMPI INVALID JUMPDEST PUSH1 0x20 MUL PUSH1 0x20 ADD ADD MLOAD PUSH2 0x14D9 JUMP JUMPDEST SWAP6 POP DUP6 DUP1 MLOAD SWAP1 PUSH1 0x20 ADD KECCAK256 DUP5 EQ PUSH2 0x175D JUMPI PUSH1 0x0 SWAP9 POP POP POP POP POP POP POP POP POP PUSH2 0x196F JUMP JUMPDEST PUSH2 0x1779 DUP8 DUP3 DUP2 MLOAD DUP2 LT PUSH2 0x176C JUMPI INVALID JUMPDEST PUSH1 0x20 MUL PUSH1 0x20 ADD ADD MLOAD PUSH2 0x12EF JUMP JUMPDEST SWAP5 POP PUSH1 0x11 DUP6 MLOAD EQ ISZERO PUSH2 0x184E JUMPI DUP2 MLOAD DUP4 EQ ISZERO PUSH2 0x17E2 JUMPI DUP13 DUP1 MLOAD SWAP1 PUSH1 0x20 ADD KECCAK256 PUSH2 0x17B3 DUP7 PUSH1 0x10 DUP2 MLOAD DUP2 LT PUSH2 0x17A6 JUMPI INVALID JUMPDEST PUSH1 0x20 MUL PUSH1 0x20 ADD ADD MLOAD PUSH2 0x1566 JUMP JUMPDEST DUP1 MLOAD SWAP1 PUSH1 0x20 ADD KECCAK256 EQ ISZERO PUSH2 0x17D1 JUMPI PUSH1 0x1 SWAP9 POP POP POP POP POP POP POP POP POP PUSH2 0x196F JUMP JUMPDEST PUSH1 0x0 SWAP9 POP POP POP POP POP POP POP POP POP PUSH2 0x196F JUMP JUMPDEST PUSH1 0x0 DUP3 DUP5 DUP2 MLOAD DUP2 LT PUSH2 0x17F0 JUMPI INVALID JUMPDEST PUSH1 0x20 ADD ADD MLOAD PUSH1 0xF8 SHR PUSH1 0xF8 SHL PUSH1 0xF8 SHR SWAP1 POP PUSH1 0x10 DUP2 PUSH1 0xFF AND GT ISZERO PUSH2 0x181E JUMPI PUSH1 0x0 SWAP10 POP POP POP POP POP POP POP POP POP POP PUSH2 0x196F JUMP JUMPDEST PUSH2 0x183D DUP7 DUP3 PUSH1 0xFF AND DUP2 MLOAD DUP2 LT PUSH2 0x1830 JUMPI INVALID JUMPDEST PUSH1 0x20 MUL PUSH1 0x20 ADD ADD MLOAD PUSH2 0x21F9 JUMP JUMPDEST PUSH1 0x0 SHL SWAP5 POP PUSH1 0x1 DUP5 ADD SWAP4 POP POP PUSH2 0x1959 JUMP JUMPDEST PUSH1 0x2 DUP6 MLOAD EQ ISZERO PUSH2 0x1947 JUMPI PUSH2 0x187F PUSH2 0x1878 DUP7 PUSH1 0x0 DUP2 MLOAD DUP2 LT PUSH2 0x186B JUMPI INVALID JUMPDEST PUSH1 0x20 MUL PUSH1 0x20 ADD ADD MLOAD PUSH2 0x1566 JUMP JUMPDEST DUP4 DUP6 PUSH2 0x2227 JUMP JUMPDEST DUP4 ADD SWAP3 POP DUP2 MLOAD DUP4 EQ ISZERO PUSH2 0x18E0 JUMPI DUP13 DUP1 MLOAD SWAP1 PUSH1 0x20 ADD KECCAK256 PUSH2 0x18B1 DUP7 PUSH1 0x1 DUP2 MLOAD DUP2 LT PUSH2 0x18A4 JUMPI INVALID JUMPDEST PUSH1 0x20 MUL PUSH1 0x20 ADD ADD MLOAD PUSH2 0x1566 JUMP JUMPDEST DUP1 MLOAD SWAP1 PUSH1 0x20 ADD KECCAK256 EQ ISZERO PUSH2 0x18CF JUMPI PUSH1 0x1 SWAP9 POP POP POP POP POP POP POP POP POP PUSH2 0x196F JUMP JUMPDEST PUSH1 0x0 SWAP9 POP POP POP POP POP POP POP POP POP PUSH2 0x196F JUMP JUMPDEST PUSH1 0x0 PUSH2 0x1909 PUSH2 0x1902 DUP8 PUSH1 0x0 DUP2 MLOAD DUP2 LT PUSH2 0x18F5 JUMPI INVALID JUMPDEST PUSH1 0x20 MUL PUSH1 0x20 ADD ADD MLOAD PUSH2 0x1566 JUMP JUMPDEST DUP5 DUP7 PUSH2 0x2227 JUMP JUMPDEST EQ ISZERO PUSH2 0x1920 JUMPI PUSH1 0x0 SWAP9 POP POP POP POP POP POP POP POP POP PUSH2 0x196F JUMP JUMPDEST PUSH2 0x193D DUP6 PUSH1 0x1 DUP2 MLOAD DUP2 LT PUSH2 0x1930 JUMPI INVALID JUMPDEST PUSH1 0x20 MUL PUSH1 0x20 ADD ADD MLOAD PUSH2 0x21F9 JUMP JUMPDEST PUSH1 0x0 SHL SWAP4 POP PUSH2 0x1958 JUMP JUMPDEST PUSH1 0x0 SWAP9 POP POP POP POP POP POP POP POP POP PUSH2 0x196F JUMP JUMPDEST JUMPDEST DUP1 DUP1 PUSH1 0x1 ADD SWAP2 POP POP PUSH2 0x16FD JUMP JUMPDEST POP POP POP POP POP POP POP POP JUMPDEST SWAP5 SWAP4 POP POP POP POP JUMP JUMPDEST PUSH1 0x0 DUP1 PUSH1 0x0 DUP7 SWAP1 POP PUSH1 0x0 PUSH1 0x20 DUP6 MLOAD DUP2 PUSH2 0x198C JUMPI INVALID JUMPDEST MOD EQ PUSH2 0x1A00 JUMPI PUSH1 0x40 MLOAD PUSH32 0x8C379A000000000000000000000000000000000000000000000000000000000 DUP2 MSTORE PUSH1 0x4 ADD DUP1 DUP1 PUSH1 0x20 ADD DUP3 DUP2 SUB DUP3 MSTORE PUSH1 0x14 DUP2 MSTORE PUSH1 0x20 ADD DUP1 PUSH32 0x496E76616C69642070726F6F66206C656E677468000000000000000000000000 DUP2 MSTORE POP PUSH1 0x20 ADD SWAP2 POP POP PUSH1 0x40 MLOAD DUP1 SWAP2 SUB SWAP1 REVERT JUMPDEST PUSH1 0x0 DUP7 SWAP1 POP PUSH1 0x0 PUSH1 0x20 SWAP1 POP JUMPDEST DUP6 MLOAD DUP2 GT PUSH2 0x1AAD JUMPI DUP1 DUP7 ADD MLOAD SWAP4 POP PUSH1 0x0 PUSH1 0x2 DUP4 DUP2 PUSH2 0x1A26 JUMPI INVALID JUMPDEST MOD EQ ISZERO PUSH2 0x1A63 JUMPI DUP3 DUP5 PUSH1 0x40 MLOAD PUSH1 0x20 ADD DUP1 DUP4 DUP2 MSTORE PUSH1 0x20 ADD DUP3 DUP2 MSTORE PUSH1 0x20 ADD SWAP3 POP POP POP PUSH1 0x40 MLOAD PUSH1 0x20 DUP2 DUP4 SUB SUB DUP2 MSTORE SWAP1 PUSH1 0x40 MSTORE DUP1 MLOAD SWAP1 PUSH1 0x20 ADD KECCAK256 SWAP3 POP PUSH2 0x1A95 JUMP JUMPDEST DUP4 DUP4 PUSH1 0x40 MLOAD PUSH1 0x20 ADD DUP1 DUP4 DUP2 MSTORE PUSH1 0x20 ADD DUP3 DUP2 MSTORE PUSH1 0x20 ADD SWAP3 POP POP POP PUSH1 0x40 MLOAD PUSH1 0x20 DUP2 DUP4 SUB SUB DUP2 MSTORE SWAP1 PUSH1 0x40 MSTORE DUP1 MLOAD SWAP1 PUSH1 0x20 ADD KECCAK256 SWAP3 POP JUMPDEST PUSH1 0x2 DUP3 DUP2 PUSH2 0x1A9F JUMPI INVALID JUMPDEST DIV SWAP2 POP PUSH1 0x20 DUP2 ADD SWAP1 POP PUSH2 0x1A0C JUMP JUMPDEST POP DUP6 DUP3 EQ SWAP4 POP POP POP POP SWAP5 SWAP4 POP POP POP POP JUMP JUMPDEST PUSH1 0x0 DUP1 PUSH1 0x0 PUSH1 0x60 DUP1 PUSH2 0x1AD7 PUSH2 0x1AD2 DUP8 PUSH2 0x12C1 JUMP JUMPDEST PUSH2 0x12EF JUMP JUMPDEST SWAP1 POP PUSH1 0x0 PUSH2 0x1AF8 DUP3 PUSH1 0x3 DUP2 MLOAD DUP2 LT PUSH2 0x1AEB JUMPI INVALID JUMPDEST PUSH1 0x20 MUL PUSH1 0x20 ADD ADD MLOAD PUSH2 0x2331 JUMP JUMPDEST SWAP1 POP PUSH1 0x0 PUSH2 0x1B19 DUP4 PUSH1 0x4 DUP2 MLOAD DUP2 LT PUSH2 0x1B0C JUMPI INVALID JUMPDEST PUSH1 0x20 MUL PUSH1 0x20 ADD ADD MLOAD PUSH2 0x13E3 JUMP JUMPDEST SWAP1 POP PUSH1 0x60 PUSH2 0x1B3A DUP5 PUSH1 0x5 DUP2 MLOAD DUP2 LT PUSH2 0x1B2D JUMPI INVALID JUMPDEST PUSH1 0x20 MUL PUSH1 0x20 ADD ADD MLOAD PUSH2 0x1566 JUMP JUMPDEST SWAP1 POP PUSH1 0x0 PUSH2 0x1B5B DUP6 PUSH1 0x6 DUP2 MLOAD DUP2 LT PUSH2 0x1B4E JUMPI INVALID JUMPDEST PUSH1 0x20 MUL PUSH1 0x20 ADD ADD MLOAD PUSH2 0x13E3 JUMP JUMPDEST SWAP1 POP PUSH1 0x0 PUSH2 0x1B7C DUP7 PUSH1 0x7 DUP2 MLOAD DUP2 LT PUSH2 0x1B6F JUMPI INVALID JUMPDEST PUSH1 0x20 MUL PUSH1 0x20 ADD ADD MLOAD PUSH2 0x1454 JUMP JUMPDEST SWAP1 POP PUSH1 0x0 PUSH2 0x1B9D DUP8 PUSH1 0x8 DUP2 MLOAD DUP2 LT PUSH2 0x1B90 JUMPI INVALID JUMPDEST PUSH1 0x20 MUL PUSH1 0x20 ADD ADD MLOAD PUSH2 0x1454 JUMP JUMPDEST SWAP1 POP PUSH1 0x60 PUSH1 0x0 DUP1 PUSH1 0x1C DUP7 GT ISZERO PUSH2 0x1C58 JUMPI PUSH1 0x9 PUSH8 0xFFFFFFFFFFFFFFFF DUP2 GT DUP1 ISZERO PUSH2 0x1BC5 JUMPI PUSH1 0x0 DUP1 REVERT JUMPDEST POP PUSH1 0x40 MLOAD SWAP1 DUP1 DUP3 MSTORE DUP1 PUSH1 0x20 MUL PUSH1 0x20 ADD DUP3 ADD PUSH1 0x40 MSTORE DUP1 ISZERO PUSH2 0x1BF9 JUMPI DUP2 PUSH1 0x20 ADD JUMPDEST PUSH1 0x60 DUP2 MSTORE PUSH1 0x20 ADD SWAP1 PUSH1 0x1 SWAP1 SUB SWAP1 DUP2 PUSH2 0x1BE4 JUMPI SWAP1 POP JUMPDEST POP SWAP3 POP PUSH1 0x0 PUSH1 0x2 DUP8 DUP2 PUSH2 0x1C08 JUMPI INVALID JUMPDEST MOD EQ ISZERO PUSH2 0x1C18 JUMPI PUSH1 0x1C SWAP2 POP PUSH2 0x1C1D JUMP JUMPDEST PUSH1 0x1B SWAP2 POP JUMPDEST PUSH1 0x2 PUSH1 0x8 DUP4 PUSH1 0xFF AND DUP9 SUB SUB DUP2 PUSH2 0x1C2F JUMPI INVALID JUMPDEST DIV SWAP1 POP PUSH2 0x1C3B DUP2 PUSH2 0x2354 JUMP JUMPDEST DUP4 PUSH1 0x6 DUP2 MLOAD DUP2 LT PUSH2 0x1C48 JUMPI INVALID JUMPDEST PUSH1 0x20 MUL PUSH1 0x20 ADD ADD DUP2 SWAP1 MSTORE POP PUSH2 0x1CAB JUMP JUMPDEST PUSH1 0x6 PUSH8 0xFFFFFFFFFFFFFFFF DUP2 GT DUP1 ISZERO PUSH2 0x1C70 JUMPI PUSH1 0x0 DUP1 REVERT JUMPDEST POP PUSH1 0x40 MLOAD SWAP1 DUP1 DUP3 MSTORE DUP1 PUSH1 0x20 MUL PUSH1 0x20 ADD DUP3 ADD PUSH1 0x40 MSTORE DUP1 ISZERO PUSH2 0x1CA4 JUMPI DUP2 PUSH1 0x20 ADD JUMPDEST PUSH1 0x60 DUP2 MSTORE PUSH1 0x20 ADD SWAP1 PUSH1 0x1 SWAP1 SUB SWAP1 DUP2 PUSH2 0x1C8F JUMPI SWAP1 POP JUMPDEST POP SWAP3 POP DUP6 SWAP2 POP JUMPDEST PUSH1 0x0 DUP1 SWAP1 POP JUMPDEST PUSH1 0x6 DUP2 LT ISZERO PUSH2 0x1CFA JUMPI PUSH2 0x1CD6 DUP12 DUP3 DUP2 MLOAD DUP2 LT PUSH2 0x1CC9 JUMPI INVALID JUMPDEST PUSH1 0x20 MUL PUSH1 0x20 ADD ADD MLOAD PUSH2 0x1566 JUMP JUMPDEST DUP5 DUP3 DUP2 MLOAD DUP2 LT PUSH2 0x1CE2 JUMPI INVALID JUMPDEST PUSH1 0x20 MUL PUSH1 0x20 ADD ADD DUP2 SWAP1 MSTORE POP DUP1 DUP1 PUSH1 0x1 ADD SWAP2 POP POP PUSH2 0x1CB1 JUMP JUMPDEST POP PUSH1 0x60 PUSH2 0x1D06 DUP5 PUSH2 0x24B6 JUMP JUMPDEST SWAP1 POP PUSH1 0x0 PUSH1 0x1 DUP3 DUP1 MLOAD SWAP1 PUSH1 0x20 ADD KECCAK256 DUP6 DUP10 DUP10 PUSH1 0x40 MLOAD PUSH1 0x0 DUP2 MSTORE PUSH1 0x20 ADD PUSH1 0x40 MSTORE PUSH1 0x40 MLOAD DUP1 DUP6 DUP2 MSTORE PUSH1 0x20 ADD DUP5 PUSH1 0xFF AND PUSH1 0xFF AND DUP2 MSTORE PUSH1 0x20 ADD DUP4 DUP2 MSTORE PUSH1 0x20 ADD DUP3 DUP2 MSTORE PUSH1 0x20 ADD SWAP5 POP POP POP POP POP PUSH1 0x20 PUSH1 0x40 MLOAD PUSH1 0x20 DUP2 SUB SWAP1 DUP1 DUP5 SUB SWAP1 DUP6 GAS STATICCALL ISZERO DUP1 ISZERO PUSH2 0x1D6E JUMPI RETURNDATASIZE PUSH1 0x0 DUP1 RETURNDATACOPY RETURNDATASIZE PUSH1 0x0 REVERT JUMPDEST POP POP POP PUSH1 0x20 PUSH1 0x40 MLOAD SUB MLOAD SWAP1 POP DUP1 DUP12 DUP12 DUP12 SWAP16 POP SWAP16 POP SWAP16 POP SWAP16 POP POP POP POP POP POP POP POP POP POP POP POP POP SWAP2 SWAP4 POP SWAP2 SWAP4 JUMP JUMPDEST PUSH1 0x0 DUP1 DUP3 PUSH1 0x0 ADD MLOAD EQ ISZERO PUSH2 0x1DB0 JUMPI PUSH1 0x0 SWAP1 POP PUSH2 0x1DE2 JUMP JUMPDEST PUSH1 0x0 DUP1 DUP4 PUSH1 0x20 ADD MLOAD SWAP1 POP DUP1 MLOAD PUSH1 0x0 BYTE SWAP2 POP PUSH1 0xC0 PUSH1 0xFF AND DUP3 PUSH1 0xFF AND LT ISZERO PUSH2 0x1DDB JUMPI PUSH1 0x0 SWAP3 POP POP POP PUSH2 0x1DE2 JUMP JUMPDEST PUSH1 0x1 SWAP3 POP POP POP JUMPDEST SWAP2 SWAP1 POP JUMP JUMPDEST PUSH1 0x0 DUP1 DUP3 PUSH1 0x0 ADD MLOAD EQ ISZERO PUSH2 0x1DFE JUMPI PUSH1 0x0 SWAP1 POP PUSH2 0x1E53 JUMP JUMPDEST PUSH1 0x0 DUP1 SWAP1 POP PUSH1 0x0 PUSH2 0x1E12 DUP5 PUSH1 0x20 ADD MLOAD PUSH2 0x1E58 JUMP JUMPDEST DUP5 PUSH1 0x20 ADD MLOAD ADD SWAP1 POP PUSH1 0x0 DUP5 PUSH1 0x0 ADD MLOAD DUP6 PUSH1 0x20 ADD MLOAD ADD SWAP1 POP JUMPDEST DUP1 DUP3 LT ISZERO PUSH2 0x1E4C JUMPI PUSH2 0x1E3B DUP3 PUSH2 0x1EE1 JUMP JUMPDEST DUP3 ADD SWAP2 POP DUP3 DUP1 PUSH1 0x1 ADD SWAP4 POP POP PUSH2 0x1E2A JUMP JUMPDEST DUP3 SWAP4 POP POP POP POP JUMPDEST SWAP2 SWAP1 POP JUMP JUMPDEST PUSH1 0x0 DUP1 DUP3 MLOAD PUSH1 0x0 BYTE SWAP1 POP PUSH1 0x80 PUSH1 0xFF AND DUP2 LT ISZERO PUSH2 0x1E78 JUMPI PUSH1 0x0 SWAP2 POP POP PUSH2 0x1EDC JUMP JUMPDEST PUSH1 0xB8 PUSH1 0xFF AND DUP2 LT DUP1 PUSH2 0x1E9D JUMPI POP PUSH1 0xC0 PUSH1 0xFF AND DUP2 LT ISZERO DUP1 ISZERO PUSH2 0x1E9C JUMPI POP PUSH1 0xF8 PUSH1 0xFF AND DUP2 LT JUMPDEST JUMPDEST ISZERO PUSH2 0x1EAC JUMPI PUSH1 0x1 SWAP2 POP POP PUSH2 0x1EDC JUMP JUMPDEST PUSH1 0xC0 PUSH1 0xFF AND DUP2 LT ISZERO PUSH2 0x1ECC JUMPI PUSH1 0x1 DUP1 PUSH1 0xB8 SUB PUSH1 0xFF AND DUP3 SUB ADD SWAP2 POP POP PUSH2 0x1EDC JUMP JUMPDEST PUSH1 0x1 DUP1 PUSH1 0xF8 SUB PUSH1 0xFF AND DUP3 SUB ADD SWAP2 POP POP JUMPDEST SWAP2 SWAP1 POP JUMP JUMPDEST PUSH1 0x0 DUP1 PUSH1 0x0 DUP4 MLOAD PUSH1 0x0 BYTE SWAP1 POP PUSH1 0x80 PUSH1 0xFF AND DUP2 LT ISZERO PUSH2 0x1F02 JUMPI PUSH1 0x1 SWAP2 POP PUSH2 0x1F8F JUMP JUMPDEST PUSH1 0xB8 PUSH1 0xFF AND DUP2 LT ISZERO PUSH2 0x1F1F JUMPI PUSH1 0x1 PUSH1 0x80 PUSH1 0xFF AND DUP3 SUB ADD SWAP2 POP PUSH2 0x1F8E JUMP JUMPDEST PUSH1 0xC0 PUSH1 0xFF AND DUP2 LT ISZERO PUSH2 0x1F4F JUMPI PUSH1 0xB7 DUP2 SUB PUSH1 0x1 DUP6 ADD SWAP5 POP DUP1 PUSH1 0x20 SUB PUSH2 0x100 EXP DUP6 MLOAD DIV PUSH1 0x1 DUP3 ADD DUP2 ADD SWAP4 POP POP POP PUSH2 0x1F8D JUMP JUMPDEST PUSH1 0xF8 PUSH1 0xFF AND DUP2 LT ISZERO PUSH2 0x1F6C JUMPI PUSH1 0x1 PUSH1 0xC0 PUSH1 0xFF AND DUP3 SUB ADD SWAP2 POP PUSH2 0x1F8C JUMP JUMPDEST PUSH1 0xF7 DUP2 SUB PUSH1 0x1 DUP6 ADD SWAP5 POP DUP1 PUSH1 0x20 SUB PUSH2 0x100 EXP DUP6 MLOAD DIV PUSH1 0x1 DUP3 ADD DUP2 ADD SWAP4 POP POP POP JUMPDEST JUMPDEST JUMPDEST JUMPDEST DUP2 SWAP3 POP POP POP SWAP2 SWAP1 POP JUMP JUMPDEST PUSH1 0x0 DUP2 EQ ISZERO PUSH2 0x1FA7 JUMPI PUSH2 0x1FFB JUMP JUMPDEST JUMPDEST PUSH1 0x20 PUSH1 0xFF AND DUP2 LT PUSH2 0x1FD7 JUMPI DUP3 MLOAD DUP3 MSTORE PUSH1 0x20 PUSH1 0xFF AND DUP4 ADD SWAP3 POP PUSH1 0x20 PUSH1 0xFF AND DUP3 ADD SWAP2 POP PUSH1 0x20 PUSH1 0xFF AND DUP2 SUB SWAP1 POP PUSH2 0x1FA8 JUMP JUMPDEST PUSH1 0x0 PUSH1 0x1 DUP3 PUSH1 0x20 PUSH1 0xFF AND SUB PUSH2 0x100 EXP SUB SWAP1 POP DUP1 NOT DUP5 MLOAD AND DUP2 DUP5 MLOAD AND DUP2 DUP2 OR DUP6 MSTORE POP POP POP JUMPDEST POP POP POP JUMP JUMPDEST PUSH1 0x0 DUP1 PUSH1 0x0 DUP1 PUSH1 0x40 MLOAD DUP9 DUP2 MSTORE DUP8 PUSH1 0x20 DUP3 ADD MSTORE DUP7 PUSH1 0x40 DUP3 ADD MSTORE DUP6 PUSH1 0x60 DUP3 ADD MSTORE PUSH1 0x20 DUP2 PUSH1 0x80 DUP4 PUSH1 0x0 PUSH1 0x1 PUSH2 0xBB8 CALL SWAP3 POP DUP1 MLOAD SWAP2 POP POP DUP2 DUP2 SWAP4 POP SWAP4 POP POP POP SWAP5 POP SWAP5 SWAP3 POP POP POP JUMP JUMPDEST PUSH1 0x60 DUP1 PUSH1 0x0 DUP4 MLOAD GT ISZERO PUSH2 0x21F0 JUMPI PUSH1 0x0 DUP1 PUSH2 0x205F PUSH1 0x0 DUP7 PUSH2 0x251A JUMP JUMPDEST PUSH1 0xF8 SHR SWAP1 POP PUSH1 0x1 DUP2 PUSH1 0xFF AND EQ DUP1 PUSH2 0x2079 JUMPI POP PUSH1 0x3 DUP2 PUSH1 0xFF AND EQ JUMPDEST ISZERO PUSH2 0x2128 JUMPI PUSH1 0x1 PUSH1 0x2 DUP7 MLOAD MUL SUB PUSH8 0xFFFFFFFFFFFFFFFF DUP2 GT DUP1 ISZERO PUSH2 0x209C JUMPI PUSH1 0x0 DUP1 REVERT JUMPDEST POP PUSH1 0x40 MLOAD SWAP1 DUP1 DUP3 MSTORE DUP1 PUSH1 0x1F ADD PUSH1 0x1F NOT AND PUSH1 0x20 ADD DUP3 ADD PUSH1 0x40 MSTORE DUP1 ISZERO PUSH2 0x20CF JUMPI DUP2 PUSH1 0x20 ADD PUSH1 0x1 DUP3 MUL DUP1 CALLDATASIZE DUP4 CALLDATACOPY DUP1 DUP3 ADD SWAP2 POP POP SWAP1 POP JUMPDEST POP SWAP3 POP PUSH1 0x0 PUSH2 0x20DF PUSH1 0x1 DUP8 PUSH2 0x251A JUMP JUMPDEST SWAP1 POP DUP1 DUP5 PUSH1 0x0 DUP2 MLOAD DUP2 LT PUSH2 0x20EF JUMPI INVALID JUMPDEST PUSH1 0x20 ADD ADD SWAP1 PUSH31 0xFFFFFFFFFFFFFFFFFFFFFFFFFFFFFFFFFFFFFFFFFFFFFFFFFFFFFFFFFFFFFF NOT AND SWAP1 DUP2 PUSH1 0x0 BYTE SWAP1 MSTORE8 POP PUSH1 0x1 SWAP3 POP POP PUSH2 0x2180 JUMP JUMPDEST PUSH1 0x2 DUP1 DUP7 MLOAD MUL SUB PUSH8 0xFFFFFFFFFFFFFFFF DUP2 GT DUP1 ISZERO PUSH2 0x2145 JUMPI PUSH1 0x0 DUP1 REVERT JUMPDEST POP PUSH1 0x40 MLOAD SWAP1 DUP1 DUP3 MSTORE DUP1 PUSH1 0x1F ADD PUSH1 0x1F NOT AND PUSH1 0x20 ADD DUP3 ADD PUSH1 0x40 MSTORE DUP1 ISZERO PUSH2 0x2178 JUMPI DUP2 PUSH1 0x20 ADD PUSH1 0x1 DUP3 MUL DUP1 CALLDATASIZE DUP4 CALLDATACOPY DUP1 DUP3 ADD SWAP2 POP POP SWAP1 POP JUMPDEST POP SWAP3 POP PUSH1 0x0 SWAP2 POP JUMPDEST PUSH1 0x0 DUP3 PUSH1 0xFF AND SWAP1 POP JUMPDEST DUP4 MLOAD DUP2 LT ISZERO PUSH2 0x21EC JUMPI PUSH2 0x21A4 PUSH1 0x2 DUP5 PUSH1 0xFF AND DUP4 SUB ADD DUP8 PUSH2 0x251A JUMP JUMPDEST DUP5 DUP3 DUP2 MLOAD DUP2 LT PUSH2 0x21B0 JUMPI INVALID JUMPDEST PUSH1 0x20 ADD ADD SWAP1 PUSH31 0xFFFFFFFFFFFFFFFFFFFFFFFFFFFFFFFFFFFFFFFFFFFFFFFFFFFFFFFFFFFFFF NOT AND SWAP1 DUP2 PUSH1 0x0 BYTE SWAP1 MSTORE8 POP DUP1 DUP1 PUSH1 0x1 ADD SWAP2 POP POP PUSH2 0x2189 JUMP JUMPDEST POP POP POP JUMPDEST DUP1 SWAP2 POP POP SWAP2 SWAP1 POP JUMP JUMPDEST PUSH1 0x0 PUSH1 0x21 DUP3 PUSH1 0x0 ADD MLOAD EQ PUSH2 0x220C JUMPI PUSH1 0x0 DUP1 REVERT JUMPDEST PUSH1 0x0 DUP1 PUSH1 0x1 DUP5 PUSH1 0x20 ADD MLOAD ADD SWAP1 POP DUP1 MLOAD SWAP2 POP DUP2 SWAP3 POP POP POP SWAP2 SWAP1 POP JUMP JUMPDEST PUSH1 0x0 DUP1 PUSH1 0x60 PUSH2 0x2235 DUP7 PUSH2 0x2044 JUMP JUMPDEST SWAP1 POP PUSH1 0x60 DUP2 MLOAD PUSH8 0xFFFFFFFFFFFFFFFF DUP2 GT DUP1 ISZERO PUSH2 0x2251 JUMPI PUSH1 0x0 DUP1 REVERT JUMPDEST POP PUSH1 0x40 MLOAD SWAP1 DUP1 DUP3 MSTORE DUP1 PUSH1 0x1F ADD PUSH1 0x1F NOT AND PUSH1 0x20 ADD DUP3 ADD PUSH1 0x40 MSTORE DUP1 ISZERO PUSH2 0x2284 JUMPI DUP2 PUSH1 0x20 ADD PUSH1 0x1 DUP3 MUL DUP1 CALLDATASIZE DUP4 CALLDATACOPY DUP1 DUP3 ADD SWAP2 POP POP SWAP1 POP JUMPDEST POP SWAP1 POP PUSH1 0x0 DUP6 SWAP1 POP JUMPDEST DUP3 MLOAD DUP7 ADD DUP2 LT ISZERO PUSH2 0x22FF JUMPI PUSH1 0x0 DUP8 DUP3 DUP2 MLOAD DUP2 LT PUSH2 0x22A6 JUMPI INVALID JUMPDEST PUSH1 0x20 ADD ADD MLOAD PUSH1 0xF8 SHR PUSH1 0xF8 SHL SWAP1 POP DUP1 DUP4 DUP9 DUP5 SUB DUP2 MLOAD DUP2 LT PUSH2 0x22C2 JUMPI INVALID JUMPDEST PUSH1 0x20 ADD ADD SWAP1 PUSH31 0xFFFFFFFFFFFFFFFFFFFFFFFFFFFFFFFFFFFFFFFFFFFFFFFFFFFFFFFFFFFFFF NOT AND SWAP1 DUP2 PUSH1 0x0 BYTE SWAP1 MSTORE8 POP POP DUP1 DUP1 PUSH1 0x1 ADD SWAP2 POP POP PUSH2 0x228D JUMP JUMPDEST POP DUP1 DUP1 MLOAD SWAP1 PUSH1 0x20 ADD KECCAK256 DUP3 DUP1 MLOAD SWAP1 PUSH1 0x20 ADD KECCAK256 EQ ISZERO PUSH2 0x231F JUMPI DUP2 MLOAD SWAP3 POP PUSH2 0x2324 JUMP JUMPDEST PUSH1 0x0 SWAP3 POP JUMPDEST DUP3 SWAP4 POP POP POP POP SWAP4 SWAP3 POP POP POP JUMP JUMPDEST PUSH1 0x0 PUSH1 0x15 DUP3 PUSH1 0x0 ADD MLOAD EQ PUSH2 0x2344 JUMPI PUSH1 0x0 DUP1 REVERT JUMPDEST PUSH2 0x234D DUP3 PUSH2 0x13E3 JUMP JUMPDEST SWAP1 POP SWAP2 SWAP1 POP JUMP JUMPDEST PUSH1 0x60 DUP1 PUSH2 0x2360 DUP4 PUSH2 0x25A0 JUMP JUMPDEST SWAP1 POP PUSH1 0x0 DUP1 PUSH1 0x0 SWAP1 POP JUMPDEST DUP3 MLOAD DUP2 LT ISZERO PUSH2 0x23ED JUMPI PUSH1 0x0 PUSH1 0xF8 SHL PUSH31 0xFFFFFFFFFFFFFFFFFFFFFFFFFFFFFFFFFFFFFFFFFFFFFFFFFFFFFFFFFFFFFF NOT AND DUP4 DUP3 DUP2 MLOAD DUP2 LT PUSH2 0x23A6 JUMPI INVALID JUMPDEST PUSH1 0x20 ADD ADD MLOAD PUSH1 0xF8 SHR PUSH1 0xF8 SHL PUSH31 0xFFFFFFFFFFFFFFFFFFFFFFFFFFFFFFFFFFFFFFFFFFFFFFFFFFFFFFFFFFFFFF NOT AND EQ PUSH2 0x23E0 JUMPI DUP1 SWAP2 POP PUSH2 0x23ED JUMP JUMPDEST DUP1 DUP1 PUSH1 0x1 ADD SWAP2 POP POP PUSH2 0x236A JUMP JUMPDEST POP DUP1 PUSH1 0x20 SUB PUSH8 0xFFFFFFFFFFFFFFFF DUP2 GT DUP1 ISZERO PUSH2 0x2408 JUMPI PUSH1 0x0 DUP1 REVERT JUMPDEST POP PUSH1 0x40 MLOAD SWAP1 DUP1 DUP3 MSTORE DUP1 PUSH1 0x1F ADD PUSH1 0x1F NOT AND PUSH1 0x20 ADD DUP3 ADD PUSH1 0x40 MSTORE DUP1 ISZERO PUSH2 0x243B JUMPI DUP2 PUSH1 0x20 ADD PUSH1 0x1 DUP3 MUL DUP1 CALLDATASIZE DUP4 CALLDATACOPY DUP1 DUP3 ADD SWAP2 POP POP SWAP1 POP JUMPDEST POP SWAP3 POP PUSH1 0x0 DUP2 SWAP1 POP JUMPDEST DUP3 MLOAD DUP2 LT ISZERO PUSH2 0x24AE JUMPI DUP3 DUP2 DUP2 MLOAD DUP2 LT PUSH2 0x2459 JUMPI INVALID JUMPDEST PUSH1 0x20 ADD ADD MLOAD PUSH1 0xF8 SHR PUSH1 0xF8 SHL DUP5 DUP4 DUP4 SUB DUP2 MLOAD DUP2 LT PUSH2 0x2472 JUMPI INVALID JUMPDEST PUSH1 0x20 ADD ADD SWAP1 PUSH31 0xFFFFFFFFFFFFFFFFFFFFFFFFFFFFFFFFFFFFFFFFFFFFFFFFFFFFFFFFFFFFFF NOT AND SWAP1 DUP2 PUSH1 0x0 BYTE SWAP1 MSTORE8 POP DUP1 DUP1 PUSH1 0x1 ADD SWAP2 POP POP PUSH2 0x2444 JUMP JUMPDEST POP POP POP SWAP2 SWAP1 POP JUMP JUMPDEST PUSH1 0x60 DUP1 PUSH1 0x0 DUP1 SWAP1 POP JUMPDEST DUP4 MLOAD DUP2 LT ISZERO PUSH2 0x24FC JUMPI PUSH2 0x24ED DUP3 PUSH2 0x24E8 DUP7 DUP5 DUP2 MLOAD DUP2 LT PUSH2 0x24DB JUMPI INVALID JUMPDEST PUSH1 0x20 MUL PUSH1 0x20 ADD ADD MLOAD PUSH2 0x25FB JUMP JUMPDEST PUSH2 0x26AE JUMP JUMPDEST SWAP2 POP DUP1 DUP1 PUSH1 0x1 ADD SWAP2 POP POP PUSH2 0x24BF JUMP JUMPDEST POP PUSH2 0x2512 PUSH2 0x250C DUP3 MLOAD PUSH1 0xC0 PUSH2 0x2738 JUMP JUMPDEST DUP3 PUSH2 0x26AE JUMP JUMPDEST SWAP2 POP POP SWAP2 SWAP1 POP JUMP JUMPDEST PUSH1 0x0 DUP1 PUSH1 0x2 DUP5 DUP2 PUSH2 0x2527 JUMPI INVALID JUMPDEST MOD EQ PUSH2 0x2563 JUMPI PUSH1 0x10 DUP3 PUSH1 0x2 DUP6 DUP2 PUSH2 0x253A JUMPI INVALID JUMPDEST DIV DUP2 MLOAD DUP2 LT PUSH2 0x2545 JUMPI INVALID JUMPDEST PUSH1 0x20 ADD ADD MLOAD PUSH1 0xF8 SHR PUSH1 0xF8 SHL PUSH1 0xF8 SHR PUSH1 0xFF AND DUP2 PUSH2 0x255D JUMPI INVALID JUMPDEST MOD PUSH2 0x2595 JUMP JUMPDEST PUSH1 0x10 DUP3 PUSH1 0x2 DUP6 DUP2 PUSH2 0x2570 JUMPI INVALID JUMPDEST DIV DUP2 MLOAD DUP2 LT PUSH2 0x257B JUMPI INVALID JUMPDEST PUSH1 0x20 ADD ADD MLOAD PUSH1 0xF8 SHR PUSH1 0xF8 SHL PUSH1 0xF8 SHR PUSH1 0xFF AND DUP2 PUSH2 0x2593 JUMPI INVALID JUMPDEST DIV JUMPDEST PUSH1 0xF8 SHL SWAP1 POP SWAP3 SWAP2 POP POP JUMP JUMPDEST PUSH1 0x60 PUSH1 0x20 PUSH8 0xFFFFFFFFFFFFFFFF DUP2 GT DUP1 ISZERO PUSH2 0x25BA JUMPI PUSH1 0x0 DUP1 REVERT JUMPDEST POP PUSH1 0x40 MLOAD SWAP1 DUP1 DUP3 MSTORE DUP1 PUSH1 0x1F ADD PUSH1 0x1F NOT AND PUSH1 0x20 ADD DUP3 ADD PUSH1 0x40 MSTORE DUP1 ISZERO PUSH2 0x25ED JUMPI DUP2 PUSH1 0x20 ADD PUSH1 0x1 DUP3 MUL DUP1 CALLDATASIZE DUP4 CALLDATACOPY DUP1 DUP3 ADD SWAP2 POP POP SWAP1 POP JUMPDEST POP SWAP1 POP DUP2 PUSH1 0x20 DUP3 ADD MSTORE SWAP2 SWAP1 POP JUMP JUMPDEST PUSH1 0x60 DUP1 PUSH1 0x1 DUP4 MLOAD EQ DUP1 ISZERO PUSH2 0x2632 JUMPI POP PUSH1 0x80 PUSH1 0xFF PUSH1 0xF8 SHL DUP5 PUSH1 0x0 DUP2 MLOAD DUP2 LT PUSH2 0x261E JUMPI INVALID JUMPDEST PUSH1 0x20 ADD ADD MLOAD PUSH1 0xF8 SHR PUSH1 0xF8 SHL AND PUSH1 0xF8 SHR PUSH1 0xFF AND LT JUMPDEST ISZERO PUSH2 0x268D JUMPI PUSH1 0x1 PUSH8 0xFFFFFFFFFFFFFFFF DUP2 GT DUP1 ISZERO PUSH2 0x264F JUMPI PUSH1 0x0 DUP1 REVERT JUMPDEST POP PUSH1 0x40 MLOAD SWAP1 DUP1 DUP3 MSTORE DUP1 PUSH1 0x1F ADD PUSH1 0x1F NOT AND PUSH1 0x20 ADD DUP3 ADD PUSH1 0x40 MSTORE DUP1 ISZERO PUSH2 0x2682 JUMPI DUP2 PUSH1 0x20 ADD PUSH1 0x1 DUP3 MUL DUP1 CALLDATASIZE DUP4 CALLDATACOPY DUP1 DUP3 ADD SWAP2 POP POP SWAP1 POP JUMPDEST POP SWAP1 POP DUP3 SWAP1 POP PUSH2 0x26A5 JUMP JUMPDEST PUSH2 0x26A2 PUSH2 0x269C DUP5 MLOAD PUSH1 0x80 PUSH2 0x2738 JUMP JUMPDEST DUP5 PUSH2 0x26AE JUMP JUMPDEST SWAP1 POP JUMPDEST DUP1 SWAP2 POP POP SWAP2 SWAP1 POP JUMP JUMPDEST PUSH1 0x60 DUP1 PUSH1 0x40 MLOAD SWAP1 POP DUP4 MLOAD DUP1 DUP3 MSTORE PUSH1 0x20 DUP3 ADD DUP2 DUP2 ADD PUSH1 0x20 DUP8 ADD JUMPDEST DUP2 DUP4 LT ISZERO PUSH2 0x26E4 JUMPI DUP1 MLOAD DUP4 MSTORE PUSH1 0x20 DUP4 ADD SWAP3 POP PUSH1 0x20 DUP2 ADD SWAP1 POP PUSH2 0x26C7 JUMP JUMPDEST POP DUP6 MLOAD SWAP3 POP DUP4 MLOAD DUP4 ADD DUP5 MSTORE DUP1 SWAP2 POP DUP3 DUP3 ADD SWAP1 POP PUSH1 0x20 DUP7 ADD JUMPDEST DUP2 DUP4 LT ISZERO PUSH2 0x2719 JUMPI DUP1 MLOAD DUP4 MSTORE PUSH1 0x20 DUP4 ADD SWAP3 POP PUSH1 0x20 DUP2 ADD SWAP1 POP PUSH2 0x26FC JUMP JUMPDEST POP PUSH1 0x1F NOT PUSH1 0x1F DUP9 MLOAD DUP6 ADD ISZERO DUP4 ADD ADD AND PUSH1 0x40 MSTORE POP POP POP DUP1 SWAP2 POP POP SWAP3 SWAP2 POP POP JUMP JUMPDEST PUSH1 0x60 PUSH1 0x38 DUP4 LT ISZERO PUSH2 0x27DE JUMPI PUSH1 0x60 PUSH1 0x1 PUSH8 0xFFFFFFFFFFFFFFFF DUP2 GT DUP1 ISZERO PUSH2 0x275D JUMPI PUSH1 0x0 DUP1 REVERT JUMPDEST POP PUSH1 0x40 MLOAD SWAP1 DUP1 DUP3 MSTORE DUP1 PUSH1 0x1F ADD PUSH1 0x1F NOT AND PUSH1 0x20 ADD DUP3 ADD PUSH1 0x40 MSTORE DUP1 ISZERO PUSH2 0x2790 JUMPI DUP2 PUSH1 0x20 ADD PUSH1 0x1 DUP3 MUL DUP1 CALLDATASIZE DUP4 CALLDATACOPY DUP1 DUP3 ADD SWAP2 POP POP SWAP1 POP JUMPDEST POP SWAP1 POP DUP3 DUP5 ADD PUSH1 0xF8 SHL DUP2 PUSH1 0x0 DUP2 MLOAD DUP2 LT PUSH2 0x27A6 JUMPI INVALID JUMPDEST PUSH1 0x20 ADD ADD SWAP1 PUSH31 0xFFFFFFFFFFFFFFFFFFFFFFFFFFFFFFFFFFFFFFFFFFFFFFFFFFFFFFFFFFFFFF NOT AND SWAP1 DUP2 PUSH1 0x0 BYTE SWAP1 MSTORE8 POP DUP1 SWAP2 POP POP PUSH2 0x283B JUMP JUMPDEST PUSH1 0x0 DUP1 PUSH1 0x1 SWAP1 POP JUMPDEST PUSH1 0x0 DUP2 DUP7 DUP2 PUSH2 0x27F1 JUMPI INVALID JUMPDEST DIV EQ PUSH2 0x280B JUMPI DUP2 DUP1 PUSH1 0x1 ADD SWAP3 POP POP PUSH2 0x100 DUP2 MUL SWAP1 POP PUSH2 0x27E6 JUMP JUMPDEST PUSH1 0x60 PUSH2 0x281B DUP4 PUSH1 0x37 DUP8 ADD ADD PUSH2 0x2841 JUMP JUMPDEST SWAP1 POP PUSH1 0x60 PUSH2 0x2828 DUP8 PUSH2 0x2841 JUMP JUMPDEST SWAP1 POP PUSH2 0x2834 DUP3 DUP3 PUSH2 0x26AE JUMP JUMPDEST SWAP5 POP POP POP POP POP JUMPDEST SWAP3 SWAP2 POP POP JUMP JUMPDEST PUSH1 0x60 PUSH1 0x0 PUSH1 0x1 SWAP1 POP PUSH1 0xFF DUP4 GT ISZERO PUSH2 0x2857 JUMPI PUSH1 0x2 SWAP1 POP JUMPDEST DUP1 PUSH8 0xFFFFFFFFFFFFFFFF DUP2 GT DUP1 ISZERO PUSH2 0x286E JUMPI PUSH1 0x0 DUP1 REVERT JUMPDEST POP PUSH1 0x40 MLOAD SWAP1 DUP1 DUP3 MSTORE DUP1 PUSH1 0x1F ADD PUSH1 0x1F NOT AND PUSH1 0x20 ADD DUP3 ADD PUSH1 0x40 MSTORE DUP1 ISZERO PUSH2 0x28A1 JUMPI DUP2 PUSH1 0x20 ADD PUSH1 0x1 DUP3 MUL DUP1 CALLDATASIZE DUP4 CALLDATACOPY DUP1 DUP3 ADD SWAP2 POP POP SWAP1 POP JUMPDEST POP SWAP2 POP PUSH1 0x0 DUP1 SWAP1 POP JUMPDEST DUP2 DUP2 LT ISZERO PUSH2 0x2912 JUMPI DUP1 PUSH1 0x1 DUP4 SUB SUB PUSH1 0x8 MUL PUSH1 0x2 EXP DUP5 DUP2 PUSH2 0x28C6 JUMPI INVALID JUMPDEST DIV PUSH1 0xF8 SHL DUP4 DUP3 DUP2 MLOAD DUP2 LT PUSH2 0x28D6 JUMPI INVALID JUMPDEST PUSH1 0x20 ADD ADD SWAP1 PUSH31 0xFFFFFFFFFFFFFFFFFFFFFFFFFFFFFFFFFFFFFFFFFFFFFFFFFFFFFFFFFFFFFF NOT AND SWAP1 DUP2 PUSH1 0x0 BYTE SWAP1 MSTORE8 POP DUP1 DUP1 PUSH1 0x1 ADD SWAP2 POP POP PUSH2 0x28AA JUMP JUMPDEST POP POP SWAP2 SWAP1 POP JUMP JUMPDEST PUSH1 0x40 MLOAD DUP1 PUSH1 0x80 ADD PUSH1 0x40 MSTORE DUP1 PUSH1 0x0 DUP2 MSTORE PUSH1 0x20 ADD PUSH1 0x0 DUP2 MSTORE PUSH1 0x20 ADD PUSH1 0x0 DUP1 NOT AND DUP2 MSTORE PUSH1 0x20 ADD PUSH1 0x0 DUP1 NOT AND DUP2 MSTORE POP SWAP1 JUMP JUMPDEST PUSH1 0x40 MLOAD DUP1 PUSH1 0x40 ADD PUSH1 0x40 MSTORE DUP1 PUSH1 0x0 DUP2 MSTORE PUSH1 0x20 ADD PUSH1 0x0 DUP2 MSTORE POP SWAP1 JUMP INVALID PUSH21 0x72616E736665722073686F756C64206265206D6164 PUSH6 0x20746F204553 0x4E KECCAK256 DIFFICULTY PUSH6 0x706F73697420 COINBASE PUSH5 0x6472657373 COINBASE PUSH13 0x72656164792070726F63657373 PUSH6 0x642077697468 PUSH5 0x726177616C KECCAK256 PUSH7 0x6F722074686973 KECCAK256 PUSH21 0x72616E73616374696F6EA264697066735822122086 DELEGATECALL PUSH15 0xE556CA429AE3D2D96130702E40D7B5 DUP5 DUP5 0xFC SWAP5 0xC4 DELEGATECALL 0x24 0x21 0xC5 DUP12 SWAP11 0xC6 0xE4 0x2E PUSH5 0x736F6C6343 STOP MOD ADDMOD STOP CALLER "},"gasEstimates":{"creation":{"codeDepositCost":"2148400","executionCost":"infinite","totalCost":"infinite"},"external":{"bunches(uint256)":"4546","claimWithdrawal(bytes)":"infinite","esnDepositAddress()":"1077","getAllSigners()":"infinite","getAllValidators()":"infinite","isValidator(address)":"1272","lastBunchIndex()":"1089","numberOfValidators()":"1027","processedWithdrawals(bytes32)":"1223","setESNDepositAddress(address)":"21190","signers(uint256)":"2063","submitBunchHeader(bytes)":"infinite","token()":"1141","validators(uint256)":"2040"},"internal":{"getNextStartBlockNumber()":"7502"}},"methodIdentifiers":{"bunches(uint256)":"75080de8","claimWithdrawal(bytes)":"ca5d0926","esnDepositAddress()":"15c09850","getAllSigners()":"d42f2f35","getAllValidators()":"f3513a37","isValidator(address)":"facd743b","lastBunchIndex()":"2ceea82a","numberOfValidators()":"d6832ea9","processedWithdrawals(bytes32)":"bf49d631","setESNDepositAddress(address)":"974275cf","signers(uint256)":"2079fb9a","submitBunchHeader(bytes)":"76f5e6da","token()":"fc0c546a","validators(uint256)":"35aa2e44"}},"storageLayout":{"storage":[{"astId":271,"contract":"ETH/PlasmaManager.sol:PlasmaManager","label":"numberOfValidators","offset":0,"slot":"0","type":"t_uint256"},{"astId":275,"contract":"ETH/PlasmaManager.sol:PlasmaManager","label":"isValidator","offset":0,"slot":"1","type":"t_mapping(t_address,t_bool)"},{"astId":279,"contract":"ETH/PlasmaManager.sol:PlasmaManager","label":"processedWithdrawals","offset":0,"slot":"2","type":"t_mapping(t_bytes32,t_bool)"},{"astId":282,"contract":"ETH/PlasmaManager.sol:PlasmaManager","label":"validators","offset":0,"slot":"3","type":"t_array(t_address)dyn_storage"},{"astId":285,"contract":"ETH/PlasmaManager.sol:PlasmaManager","label":"signers","offset":0,"slot":"4","type":"t_array(t_address)dyn_storage"},{"astId":288,"contract":"ETH/PlasmaManager.sol:PlasmaManager","label":"bunches","offset":0,"slot":"5","type":"t_array(t_struct(BunchHeader)269_storage)dyn_storage"},{"astId":299,"contract":"ETH/PlasmaManager.sol:PlasmaManager","label":"token","offset":0,"slot":"6","type":"t_contract(ERC20)244"},{"astId":305,"contract":"ETH/PlasmaManager.sol:PlasmaManager","label":"esnDepositAddress","offset":0,"slot":"7","type":"t_address"}],"types":{"t_address":{"encoding":"inplace","label":"address","numberOfBytes":"20"},"t_array(t_address)dyn_storage":{"base":"t_address","encoding":"dynamic_array","label":"address[]","numberOfBytes":"32"},"t_array(t_struct(BunchHeader)269_storage)dyn_storage":{"base":"t_struct(BunchHeader)269_storage","encoding":"dynamic_array","label":"struct PlasmaManager.BunchHeader[]","numberOfBytes":"32"},"t_bool":{"encoding":"inplace","label":"bool","numberOfBytes":"1"},"t_bytes32":{"encoding":"inplace","label":"bytes32","numberOfBytes":"32"},"t_contract(ERC20)244":{"encoding":"inplace","label":"contract ERC20","numberOfBytes":"20"},"t_mapping(t_address,t_bool)":{"encoding":"mapping","key":"t_address","label":"mapping(address => bool)","numberOfBytes":"32","value":"t_bool"},"t_mapping(t_bytes32,t_bool)":{"encoding":"mapping","key":"t_bytes32","label":"mapping(bytes32 => bool)","numberOfBytes":"32","value":"t_bool"},"t_struct(BunchHeader)269_storage":{"encoding":"inplace","label":"struct PlasmaManager.BunchHeader","members":[{"astId":262,"contract":"ETH/PlasmaManager.sol:PlasmaManager","label":"startBlockNumber","offset":0,"slot":"0","type":"t_uint256"},{"astId":264,"contract":"ETH/PlasmaManager.sol:PlasmaManager","label":"bunchDepth","offset":0,"slot":"1","type":"t_uint256"},{"astId":266,"contract":"ETH/PlasmaManager.sol:PlasmaManager","label":"transactionsMegaRoot","offset":0,"slot":"2","type":"t_bytes32"},{"astId":268,"contract":"ETH/PlasmaManager.sol:PlasmaManager","label":"receiptsMegaRoot","offset":0,"slot":"3","type":"t_bytes32"}],"numberOfBytes":"128"},"t_uint256":{"encoding":"inplace","label":"uint256","numberOfBytes":"32"}}},"userdoc":{"methods":{}}}