{"abi":[{"inputs":[{"internalType":"address[]","name":"_validators","type":"address[]"},{"internalType":"contract ERC20","name":"_token","type":"address"}],"stateMutability":"nonpayable","type":"constructor"},{"anonymous":false,"inputs":[{"indexed":false,"internalType":"uint256","name":"_startBlockNumber","type":"uint256"},{"indexed":false,"internalType":"uint256","name":"_bunchDepth","type":"uint256"},{"indexed":false,"internalType":"uint256","name":"_bunchIndex","type":"uint256"}],"name":"NewBunchHeader","type":"event"},{"inputs":[{"internalType":"uint256","name":"","type":"uint256"}],"name":"bunches","outputs":[{"internalType":"uint256","name":"startBlockNumber","type":"uint256"},{"internalType":"uint256","name":"bunchDepth","type":"uint256"},{"internalType":"bytes32","name":"transactionsMegaRoot","type":"bytes32"},{"internalType":"bytes32","name":"receiptsMegaRoot","type":"bytes32"}],"stateMutability":"view","type":"function"},{"inputs":[{"internalType":"bytes","name":"_rawTransactionProof","type":"bytes"}],"name":"claimWithdrawal","outputs":[],"stateMutability":"nonpayable","type":"function"},{"inputs":[],"name":"esnDepositAddress","outputs":[{"internalType":"address","name":"","type":"address"}],"stateMutability":"view","type":"function"},{"inputs":[],"name":"getAllSigners","outputs":[{"internalType":"address[]","name":"","type":"address[]"}],"stateMutability":"view","type":"function"},{"inputs":[],"name":"getAllValidators","outputs":[{"internalType":"address[]","name":"","type":"address[]"}],"stateMutability":"view","type":"function"},{"inputs":[{"internalType":"address","name":"","type":"address"}],"name":"isValidator","outputs":[{"internalType":"bool","name":"","type":"bool"}],"stateMutability":"view","type":"function"},{"inputs":[],"name":"lastBunchIndex","outputs":[{"internalType":"uint256","name":"","type":"uint256"}],"stateMutability":"view","type":"function"},{"inputs":[],"name":"numberOfValidators","outputs":[{"internalType":"uint256","name":"","type":"uint256"}],"stateMutability":"view","type":"function"},{"inputs":[{"internalType":"bytes32","name":"","type":"bytes32"}],"name":"processedWithdrawals","outputs":[{"internalType":"bool","name":"","type":"bool"}],"stateMutability":"view","type":"function"},{"inputs":[{"internalType":"address","name":"_esnDepositAddress","type":"address"}],"name":"setESNDepositAddress","outputs":[],"stateMutability":"nonpayable","type":"function"},{"inputs":[{"internalType":"uint256","name":"","type":"uint256"}],"name":"signers","outputs":[{"internalType":"address","name":"","type":"address"}],"stateMutability":"view","type":"function"},{"inputs":[{"internalType":"bytes","name":"_signedHeader","type":"bytes"}],"name":"submitBunchHeader","outputs":[],"stateMutability":"nonpayable","type":"function"},{"inputs":[],"name":"token","outputs":[{"internalType":"contract ERC20","name":"","type":"address"}],"stateMutability":"view","type":"function"},{"inputs":[{"internalType":"uint256","name":"","type":"uint256"}],"name":"validators","outputs":[{"internalType":"address","name":"","type":"address"}],"stateMutability":"view","type":"function"}],"devdoc":{"methods":{}},"evm":{"assembly":"    /* \"PlasmaManager.sol\":298:5188  contract PlasmaManager {... */\n  mstore(0x40, 0x80)\n    /* \"PlasmaManager.sol\":1124:1128  this */\n  address\n    /* \"PlasmaManager.sol\":1081:1129  address public esnDepositAddress = address(this) */\n  0x07\n  exp(0x0100, 0x00)\n  dup2\n  sload\n  dup2\n  0xffffffffffffffffffffffffffffffffffffffff\n  mul\n  not\n  and\n  swap1\n  dup4\n  0xffffffffffffffffffffffffffffffffffffffff\n  and\n  mul\n  or\n  swap1\n  sstore\n  pop\n    /* \"PlasmaManager.sol\":1244:1514  constructor(address[] memory _validators, ERC20 _token) public {... */\n  callvalue\n    /* \"--CODEGEN--\":5:14   */\n  dup1\n    /* \"--CODEGEN--\":2:4   */\n  iszero\n  tag_1\n  jumpi\n    /* \"--CODEGEN--\":27:28   */\n  0x00\n    /* \"--CODEGEN--\":24:25   */\n  dup1\n    /* \"--CODEGEN--\":17:29   */\n  revert\n    /* \"--CODEGEN--\":2:4   */\ntag_1:\n    /* \"PlasmaManager.sol\":1244:1514  constructor(address[] memory _validators, ERC20 _token) public {... */\n  pop\n  mload(0x40)\n  sub(codesize, bytecodeSize)\n  dup1\n  bytecodeSize\n  dup4\n  codecopy\n  dup2\n  dup2\n  add\n  0x40\n  mstore\n    /* \"--CODEGEN--\":15:17   */\n  0x40\n    /* \"--CODEGEN--\":10:13   */\n  dup2\n    /* \"--CODEGEN--\":7:18   */\n  lt\n    /* \"--CODEGEN--\":4:6   */\n  iszero\n  tag_2\n  jumpi\n    /* \"--CODEGEN--\":31:32   */\n  0x00\n    /* \"--CODEGEN--\":28:29   */\n  dup1\n    /* \"--CODEGEN--\":21:33   */\n  revert\n    /* \"--CODEGEN--\":4:6   */\ntag_2:\n    /* \"PlasmaManager.sol\":1244:1514  constructor(address[] memory _validators, ERC20 _token) public {... */\n  dup2\n  add\n  swap1\n  dup1\n  dup1\n  mload\n  mload(0x40)\n  swap4\n  swap3\n  swap2\n  swap1\n  dup5\n    /* \"--CODEGEN--\":19:30   */\n  0x0100000000\n    /* \"--CODEGEN--\":14:17   */\n  dup3\n    /* \"--CODEGEN--\":11:31   */\n  gt\n    /* \"--CODEGEN--\":8:10   */\n  iszero\n  tag_3\n  jumpi\n    /* \"--CODEGEN--\":44:45   */\n  0x00\n    /* \"--CODEGEN--\":41:42   */\n  dup1\n    /* \"--CODEGEN--\":34:46   */\n  revert\n    /* \"--CODEGEN--\":8:10   */\ntag_3:\n    /* \"--CODEGEN--\":71:82   */\n  dup4\n    /* \"--CODEGEN--\":66:69   */\n  dup3\n    /* \"--CODEGEN--\":62:83   */\n  add\n    /* \"--CODEGEN--\":55:83   */\n  swap2\n  pop\n    /* \"--CODEGEN--\":123:127   */\n  0x20\n    /* \"--CODEGEN--\":118:121   */\n  dup3\n    /* \"--CODEGEN--\":114:128   */\n  add\n    /* \"--CODEGEN--\":159:168   */\n  dup6\n    /* \"--CODEGEN--\":141:157   */\n  dup2\n    /* \"--CODEGEN--\":138:169   */\n  gt\n    /* \"--CODEGEN--\":135:137   */\n  iszero\n  tag_4\n  jumpi\n    /* \"--CODEGEN--\":182:183   */\n  0x00\n    /* \"--CODEGEN--\":179:180   */\n  dup1\n    /* \"--CODEGEN--\":172:184   */\n  revert\n    /* \"--CODEGEN--\":135:137   */\ntag_4:\n    /* \"--CODEGEN--\":219:222   */\n  dup3\n    /* \"--CODEGEN--\":213:223   */\n  mload\n    /* \"--CODEGEN--\":331:340   */\n  dup7\n    /* \"--CODEGEN--\":325:327   */\n  0x20\n    /* \"--CODEGEN--\":311:323   */\n  dup3\n    /* \"--CODEGEN--\":307:328   */\n  mul\n    /* \"--CODEGEN--\":289:305   */\n  dup4\n    /* \"--CODEGEN--\":285:329   */\n  add\n    /* \"--CODEGEN--\":282:341   */\n  gt\n    /* \"--CODEGEN--\":261:272   */\n  0x0100000000\n    /* \"--CODEGEN--\":247:259   */\n  dup3\n    /* \"--CODEGEN--\":244:273   */\n  gt\n    /* \"--CODEGEN--\":233:349   */\n  or\n    /* \"--CODEGEN--\":230:232   */\n  iszero\n  tag_5\n  jumpi\n    /* \"--CODEGEN--\":362:363   */\n  0x00\n    /* \"--CODEGEN--\":359:360   */\n  dup1\n    /* \"--CODEGEN--\":352:364   */\n  revert\n    /* \"--CODEGEN--\":230:232   */\ntag_5:\n    /* \"--CODEGEN--\":385:397   */\n  dup1\n    /* \"--CODEGEN--\":380:383   */\n  dup4\n    /* \"--CODEGEN--\":373:398   */\n  mstore\n    /* \"--CODEGEN--\":421:425   */\n  0x20\n    /* \"--CODEGEN--\":416:419   */\n  dup4\n    /* \"--CODEGEN--\":412:426   */\n  add\n    /* \"--CODEGEN--\":405:426   */\n  swap3\n  pop\n    /* \"--CODEGEN--\":0:433   */\n  pop\n  pop\n    /* \"PlasmaManager.sol\":1244:1514  constructor(address[] memory _validators, ERC20 _token) public {... */\n  swap1\n  dup1\n  mload\n  swap1\n  0x20\n  add\n  swap1\n  0x20\n  mul\n  dup1\n  dup4\n  dup4\n    /* \"--CODEGEN--\":23:24   */\n  0x00\n    /* \"--CODEGEN--\":8:108   */\ntag_6:\n    /* \"--CODEGEN--\":33:36   */\n  dup4\n    /* \"--CODEGEN--\":30:31   */\n  dup2\n    /* \"--CODEGEN--\":27:37   */\n  lt\n    /* \"--CODEGEN--\":8:108   */\n  iszero\n  tag_8\n  jumpi\n    /* \"--CODEGEN--\":99:100   */\n  dup1\n    /* \"--CODEGEN--\":94:97   */\n  dup3\n    /* \"--CODEGEN--\":90:101   */\n  add\n    /* \"--CODEGEN--\":84:102   */\n  mload\n    /* \"--CODEGEN--\":80:81   */\n  dup2\n    /* \"--CODEGEN--\":75:78   */\n  dup5\n    /* \"--CODEGEN--\":71:82   */\n  add\n    /* \"--CODEGEN--\":64:103   */\n  mstore\n    /* \"--CODEGEN--\":52:54   */\n  0x20\n    /* \"--CODEGEN--\":49:50   */\n  dup2\n    /* \"--CODEGEN--\":45:55   */\n  add\n    /* \"--CODEGEN--\":40:55   */\n  swap1\n  pop\n    /* \"--CODEGEN--\":8:108   */\n  jump(tag_6)\ntag_8:\n    /* \"--CODEGEN--\":12:26   */\n  pop\n    /* \"PlasmaManager.sol\":1244:1514  constructor(address[] memory _validators, ERC20 _token) public {... */\n  pop\n  pop\n  pop\n  swap1\n  pop\n  add\n  0x40\n  mstore\n  0x20\n  add\n  dup1\n  mload\n  swap1\n  0x20\n  add\n  swap1\n  swap3\n  swap2\n  swap1\n  pop\n  pop\n  pop\n    /* \"PlasmaManager.sol\":1317:1327  uint256 _i */\n  0x00\n    /* \"PlasmaManager.sol\":1330:1331  0 */\n  dup1\n    /* \"PlasmaManager.sol\":1317:1331  uint256 _i = 0 */\n  swap1\n  pop\n    /* \"PlasmaManager.sol\":1313:1414  for(uint256 _i = 0; _i < _validators.length; _i++) {... */\ntag_11:\n    /* \"PlasmaManager.sol\":1338:1349  _validators */\n  dup3\n    /* \"PlasmaManager.sol\":1338:1356  _validators.length */\n  mload\n    /* \"PlasmaManager.sol\":1333:1335  _i */\n  dup2\n    /* \"PlasmaManager.sol\":1333:1356  _i < _validators.length */\n  lt\n    /* \"PlasmaManager.sol\":1313:1414  for(uint256 _i = 0; _i < _validators.length; _i++) {... */\n  iszero\n  tag_12\n  jumpi\n    /* \"PlasmaManager.sol\":1403:1407  true */\n  0x01\n    /* \"PlasmaManager.sol\":1372:1383  isValidator */\n  dup1\n    /* \"PlasmaManager.sol\":1372:1400  isValidator[_validators[_i]] */\n  0x00\n    /* \"PlasmaManager.sol\":1384:1395  _validators */\n  dup6\n    /* \"PlasmaManager.sol\":1396:1398  _i */\n  dup5\n    /* \"PlasmaManager.sol\":1384:1399  _validators[_i] */\n  dup2\n  mload\n  dup2\n  lt\n  tag_14\n  jumpi\n  invalid\ntag_14:\n  0x20\n  mul\n  0x20\n  add\n  add\n  mload\n    /* \"PlasmaManager.sol\":1372:1400  isValidator[_validators[_i]] */\n  0xffffffffffffffffffffffffffffffffffffffff\n  and\n  0xffffffffffffffffffffffffffffffffffffffff\n  and\n  dup2\n  mstore\n  0x20\n  add\n  swap1\n  dup2\n  mstore\n  0x20\n  add\n  0x00\n  keccak256\n  0x00\n    /* \"PlasmaManager.sol\":1372:1407  isValidator[_validators[_i]] = true */\n  0x0100\n  exp\n  dup2\n  sload\n  dup2\n  0xff\n  mul\n  not\n  and\n  swap1\n  dup4\n  iszero\n  iszero\n  mul\n  or\n  swap1\n  sstore\n  pop\n    /* \"PlasmaManager.sol\":1358:1362  _i++ */\n  dup1\n  dup1\n  0x01\n  add\n  swap2\n  pop\n  pop\n    /* \"PlasmaManager.sol\":1313:1414  for(uint256 _i = 0; _i < _validators.length; _i++) {... */\n  jump(tag_11)\ntag_12:\n  pop\n    /* \"PlasmaManager.sol\":1440:1451  _validators */\n  dup2\n    /* \"PlasmaManager.sol\":1440:1458  _validators.length */\n  mload\n    /* \"PlasmaManager.sol\":1419:1437  numberOfValidators */\n  0x00\n    /* \"PlasmaManager.sol\":1419:1458  numberOfValidators = _validators.length */\n  dup2\n  swap1\n  sstore\n  pop\n    /* \"PlasmaManager.sol\":1477:1488  _validators */\n  dup2\n    /* \"PlasmaManager.sol\":1464:1474  validators */\n  0x03\n    /* \"PlasmaManager.sol\":1464:1488  validators = _validators */\n  swap1\n  dup1\n  mload\n  swap1\n  0x20\n  add\n  swap1\n  tag_15\n  swap3\n  swap2\n  swap1\n  tag_16\n  jump\t// in\ntag_15:\n  pop\n    /* \"PlasmaManager.sol\":1503:1509  _token */\n  dup1\n    /* \"PlasmaManager.sol\":1495:1500  token */\n  0x06\n  0x00\n    /* \"PlasmaManager.sol\":1495:1509  token = _token */\n  0x0100\n  exp\n  dup2\n  sload\n  dup2\n  0xffffffffffffffffffffffffffffffffffffffff\n  mul\n  not\n  and\n  swap1\n  dup4\n  0xffffffffffffffffffffffffffffffffffffffff\n  and\n  mul\n  or\n  swap1\n  sstore\n  pop\n    /* \"PlasmaManager.sol\":1244:1514  constructor(address[] memory _validators, ERC20 _token) public {... */\n  pop\n  pop\n    /* \"PlasmaManager.sol\":298:5188  contract PlasmaManager {... */\n  jump(tag_17)\ntag_16:\n  dup3\n  dup1\n  sload\n  dup3\n  dup3\n  sstore\n  swap1\n  0x00\n  mstore\n  keccak256(0x00, 0x20)\n  swap1\n  dup2\n  add\n  swap3\n  dup3\n  iszero\n  tag_18\n  jumpi\n  swap2\n  0x20\n  mul\n  dup3\n  add\ntag_19:\n  dup3\n  dup2\n  gt\n  iszero\n  tag_20\n  jumpi\n  dup3\n  mload\n  dup3\n  exp(0x0100, 0x00)\n  dup2\n  sload\n  dup2\n  0xffffffffffffffffffffffffffffffffffffffff\n  mul\n  not\n  and\n  swap1\n  dup4\n  0xffffffffffffffffffffffffffffffffffffffff\n  and\n  mul\n  or\n  swap1\n  sstore\n  pop\n  swap2\n  0x20\n  add\n  swap2\n  swap1\n  0x01\n  add\n  swap1\n  jump(tag_19)\ntag_20:\ntag_18:\n  pop\n  swap1\n  pop\n  tag_21\n  swap2\n  swap1\n  tag_22\n  jump\t// in\ntag_21:\n  pop\n  swap1\n  jump\t// out\ntag_22:\n  tag_23\n  swap2\n  swap1\ntag_24:\n  dup1\n  dup3\n  gt\n  iszero\n  tag_25\n  jumpi\n  0x00\n  dup2\n  dup2\n  0x0100\n  exp\n  dup2\n  sload\n  swap1\n  0xffffffffffffffffffffffffffffffffffffffff\n  mul\n  not\n  and\n  swap1\n  sstore\n  pop\n  0x01\n  add\n  jump(tag_24)\ntag_25:\n  pop\n  swap1\n  jump\ntag_23:\n  swap1\n  jump\t// out\ntag_17:\n  dataSize(sub_0)\n  dup1\n  dataOffset(sub_0)\n  0x00\n  codecopy\n  0x00\n  return\nstop\n\nsub_0: assembly {\n        /* \"PlasmaManager.sol\":298:5188  contract PlasmaManager {... */\n      mstore(0x40, 0x80)\n      callvalue\n        /* \"--CODEGEN--\":5:14   */\n      dup1\n        /* \"--CODEGEN--\":2:4   */\n      iszero\n      tag_1\n      jumpi\n        /* \"--CODEGEN--\":27:28   */\n      0x00\n        /* \"--CODEGEN--\":24:25   */\n      dup1\n        /* \"--CODEGEN--\":17:29   */\n      revert\n        /* \"--CODEGEN--\":2:4   */\n    tag_1:\n        /* \"PlasmaManager.sol\":298:5188  contract PlasmaManager {... */\n      pop\n      jumpi(tag_2, lt(calldatasize, 0x04))\n      shr(0xe0, calldataload(0x00))\n      dup1\n      0xbf49d631\n      gt\n      tag_17\n      jumpi\n      dup1\n      0xd6832ea9\n      gt\n      tag_18\n      jumpi\n      dup1\n      0xd6832ea9\n      eq\n      tag_13\n      jumpi\n      dup1\n      0xf3513a37\n      eq\n      tag_14\n      jumpi\n      dup1\n      0xfacd743b\n      eq\n      tag_15\n      jumpi\n      dup1\n      0xfc0c546a\n      eq\n      tag_16\n      jumpi\n      jump(tag_2)\n    tag_18:\n      dup1\n      0xbf49d631\n      eq\n      tag_10\n      jumpi\n      dup1\n      0xca5d0926\n      eq\n      tag_11\n      jumpi\n      dup1\n      0xd42f2f35\n      eq\n      tag_12\n      jumpi\n      jump(tag_2)\n    tag_17:\n      dup1\n      0x35aa2e44\n      gt\n      tag_19\n      jumpi\n      dup1\n      0x35aa2e44\n      eq\n      tag_6\n      jumpi\n      dup1\n      0x75080de8\n      eq\n      tag_7\n      jumpi\n      dup1\n      0x76f5e6da\n      eq\n      tag_8\n      jumpi\n      dup1\n      0x974275cf\n      eq\n      tag_9\n      jumpi\n      jump(tag_2)\n    tag_19:\n      dup1\n      0x15c09850\n      eq\n      tag_3\n      jumpi\n      dup1\n      0x2079fb9a\n      eq\n      tag_4\n      jumpi\n      dup1\n      0x2ceea82a\n      eq\n      tag_5\n      jumpi\n    tag_2:\n        /* \"--CODEGEN--\":12:13   */\n      0x00\n        /* \"--CODEGEN--\":9:10   */\n      dup1\n        /* \"--CODEGEN--\":2:14   */\n      revert\n        /* \"PlasmaManager.sol\":1081:1129  address public esnDepositAddress = address(this) */\n    tag_3:\n      tag_20\n      tag_21\n      jump\t// in\n    tag_20:\n      mload(0x40)\n      dup1\n      dup3\n      0xffffffffffffffffffffffffffffffffffffffff\n      and\n      0xffffffffffffffffffffffffffffffffffffffff\n      and\n      dup2\n      mstore\n      0x20\n      add\n      swap2\n      pop\n      pop\n      mload(0x40)\n      dup1\n      swap2\n      sub\n      swap1\n      return\n        /* \"PlasmaManager.sol\":740:764  address[] public signers */\n    tag_4:\n      tag_22\n      0x04\n      dup1\n      calldatasize\n      sub\n        /* \"--CODEGEN--\":15:17   */\n      0x20\n        /* \"--CODEGEN--\":10:13   */\n      dup2\n        /* \"--CODEGEN--\":7:18   */\n      lt\n        /* \"--CODEGEN--\":4:6   */\n      iszero\n      tag_23\n      jumpi\n        /* \"--CODEGEN--\":31:32   */\n      0x00\n        /* \"--CODEGEN--\":28:29   */\n      dup1\n        /* \"--CODEGEN--\":21:33   */\n      revert\n        /* \"--CODEGEN--\":4:6   */\n    tag_23:\n        /* \"PlasmaManager.sol\":740:764  address[] public signers */\n      dup2\n      add\n      swap1\n      dup1\n      dup1\n      calldataload\n      swap1\n      0x20\n      add\n      swap1\n      swap3\n      swap2\n      swap1\n      pop\n      pop\n      pop\n      tag_24\n      jump\t// in\n    tag_22:\n      mload(0x40)\n      dup1\n      dup3\n      0xffffffffffffffffffffffffffffffffffffffff\n      and\n      0xffffffffffffffffffffffffffffffffffffffff\n      and\n      dup2\n      mstore\n      0x20\n      add\n      swap2\n      pop\n      pop\n      mload(0x40)\n      dup1\n      swap2\n      sub\n      swap1\n      return\n        /* \"PlasmaManager.sol\":1710:1798  function lastBunchIndex() public view returns (uint256) {... */\n    tag_5:\n      tag_25\n      tag_26\n      jump\t// in\n    tag_25:\n      mload(0x40)\n      dup1\n      dup3\n      dup2\n      mstore\n      0x20\n      add\n      swap2\n      pop\n      pop\n      mload(0x40)\n      dup1\n      swap2\n      sub\n      swap1\n      return\n        /* \"PlasmaManager.sol\":709:736  address[] public validators */\n    tag_6:\n      tag_27\n      0x04\n      dup1\n      calldatasize\n      sub\n        /* \"--CODEGEN--\":15:17   */\n      0x20\n        /* \"--CODEGEN--\":10:13   */\n      dup2\n        /* \"--CODEGEN--\":7:18   */\n      lt\n        /* \"--CODEGEN--\":4:6   */\n      iszero\n      tag_28\n      jumpi\n        /* \"--CODEGEN--\":31:32   */\n      0x00\n        /* \"--CODEGEN--\":28:29   */\n      dup1\n        /* \"--CODEGEN--\":21:33   */\n      revert\n        /* \"--CODEGEN--\":4:6   */\n    tag_28:\n        /* \"PlasmaManager.sol\":709:736  address[] public validators */\n      dup2\n      add\n      swap1\n      dup1\n      dup1\n      calldataload\n      swap1\n      0x20\n      add\n      swap1\n      swap3\n      swap2\n      swap1\n      pop\n      pop\n      pop\n      tag_29\n      jump\t// in\n    tag_27:\n      mload(0x40)\n      dup1\n      dup3\n      0xffffffffffffffffffffffffffffffffffffffff\n      and\n      0xffffffffffffffffffffffffffffffffffffffff\n      and\n      dup2\n      mstore\n      0x20\n      add\n      swap2\n      pop\n      pop\n      mload(0x40)\n      dup1\n      swap2\n      sub\n      swap1\n      return\n        /* \"PlasmaManager.sol\":768:796  BunchHeader[] public bunches */\n    tag_7:\n      tag_30\n      0x04\n      dup1\n      calldatasize\n      sub\n        /* \"--CODEGEN--\":15:17   */\n      0x20\n        /* \"--CODEGEN--\":10:13   */\n      dup2\n        /* \"--CODEGEN--\":7:18   */\n      lt\n        /* \"--CODEGEN--\":4:6   */\n      iszero\n      tag_31\n      jumpi\n        /* \"--CODEGEN--\":31:32   */\n      0x00\n        /* \"--CODEGEN--\":28:29   */\n      dup1\n        /* \"--CODEGEN--\":21:33   */\n      revert\n        /* \"--CODEGEN--\":4:6   */\n    tag_31:\n        /* \"PlasmaManager.sol\":768:796  BunchHeader[] public bunches */\n      dup2\n      add\n      swap1\n      dup1\n      dup1\n      calldataload\n      swap1\n      0x20\n      add\n      swap1\n      swap3\n      swap2\n      swap1\n      pop\n      pop\n      pop\n      tag_32\n      jump\t// in\n    tag_30:\n      mload(0x40)\n      dup1\n      dup6\n      dup2\n      mstore\n      0x20\n      add\n      dup5\n      dup2\n      mstore\n      0x20\n      add\n      dup4\n      dup2\n      mstore\n      0x20\n      add\n      dup3\n      dup2\n      mstore\n      0x20\n      add\n      swap5\n      pop\n      pop\n      pop\n      pop\n      pop\n      mload(0x40)\n      dup1\n      swap2\n      sub\n      swap1\n      return\n        /* \"PlasmaManager.sol\":1984:3479  function submitBunchHeader(bytes memory _signedHeader) public {... */\n    tag_8:\n      tag_33\n      0x04\n      dup1\n      calldatasize\n      sub\n        /* \"--CODEGEN--\":15:17   */\n      0x20\n        /* \"--CODEGEN--\":10:13   */\n      dup2\n        /* \"--CODEGEN--\":7:18   */\n      lt\n        /* \"--CODEGEN--\":4:6   */\n      iszero\n      tag_34\n      jumpi\n        /* \"--CODEGEN--\":31:32   */\n      0x00\n        /* \"--CODEGEN--\":28:29   */\n      dup1\n        /* \"--CODEGEN--\":21:33   */\n      revert\n        /* \"--CODEGEN--\":4:6   */\n    tag_34:\n        /* \"PlasmaManager.sol\":1984:3479  function submitBunchHeader(bytes memory _signedHeader) public {... */\n      dup2\n      add\n      swap1\n      dup1\n      dup1\n      calldataload\n      swap1\n      0x20\n      add\n      swap1\n        /* \"--CODEGEN--\":27:38   */\n      0x0100000000\n        /* \"--CODEGEN--\":14:25   */\n      dup2\n        /* \"--CODEGEN--\":11:39   */\n      gt\n        /* \"--CODEGEN--\":8:10   */\n      iszero\n      tag_35\n      jumpi\n        /* \"--CODEGEN--\":52:53   */\n      0x00\n        /* \"--CODEGEN--\":49:50   */\n      dup1\n        /* \"--CODEGEN--\":42:54   */\n      revert\n        /* \"--CODEGEN--\":8:10   */\n    tag_35:\n        /* \"PlasmaManager.sol\":1984:3479  function submitBunchHeader(bytes memory _signedHeader) public {... */\n      dup3\n      add\n        /* \"--CODEGEN--\":41:50   */\n      dup4\n        /* \"--CODEGEN--\":34:38   */\n      0x20\n        /* \"--CODEGEN--\":18:32   */\n      dup3\n        /* \"--CODEGEN--\":14:39   */\n      add\n        /* \"--CODEGEN--\":11:51   */\n      gt\n        /* \"--CODEGEN--\":8:10   */\n      iszero\n      tag_36\n      jumpi\n        /* \"--CODEGEN--\":64:65   */\n      0x00\n        /* \"--CODEGEN--\":61:62   */\n      dup1\n        /* \"--CODEGEN--\":54:66   */\n      revert\n        /* \"--CODEGEN--\":8:10   */\n    tag_36:\n        /* \"PlasmaManager.sol\":1984:3479  function submitBunchHeader(bytes memory _signedHeader) public {... */\n      dup1\n      calldataload\n      swap1\n      0x20\n      add\n      swap2\n        /* \"--CODEGEN--\":100:109   */\n      dup5\n        /* \"--CODEGEN--\":95:96   */\n      0x01\n        /* \"--CODEGEN--\":81:93   */\n      dup4\n        /* \"--CODEGEN--\":77:97   */\n      mul\n        /* \"--CODEGEN--\":67:75   */\n      dup5\n        /* \"--CODEGEN--\":63:98   */\n      add\n        /* \"--CODEGEN--\":60:110   */\n      gt\n        /* \"--CODEGEN--\":39:50   */\n      0x0100000000\n        /* \"--CODEGEN--\":25:37   */\n      dup4\n        /* \"--CODEGEN--\":22:51   */\n      gt\n        /* \"--CODEGEN--\":11:118   */\n      or\n        /* \"--CODEGEN--\":8:10   */\n      iszero\n      tag_37\n      jumpi\n        /* \"--CODEGEN--\":131:132   */\n      0x00\n        /* \"--CODEGEN--\":128:129   */\n      dup1\n        /* \"--CODEGEN--\":121:133   */\n      revert\n        /* \"--CODEGEN--\":8:10   */\n    tag_37:\n        /* \"PlasmaManager.sol\":1984:3479  function submitBunchHeader(bytes memory _signedHeader) public {... */\n      swap2\n      swap1\n      dup1\n      dup1\n      0x1f\n      add\n      0x20\n      dup1\n      swap2\n      div\n      mul\n      0x20\n      add\n      mload(0x40)\n      swap1\n      dup2\n      add\n      0x40\n      mstore\n      dup1\n      swap4\n      swap3\n      swap2\n      swap1\n      dup2\n      dup2\n      mstore\n      0x20\n      add\n      dup4\n      dup4\n        /* \"--CODEGEN--\":30:33   */\n      dup1\n        /* \"--CODEGEN--\":22:28   */\n      dup3\n        /* \"--CODEGEN--\":14:20   */\n      dup5\n        /* \"--CODEGEN--\":1:34   */\n      calldatacopy\n        /* \"--CODEGEN--\":99:100   */\n      0x00\n        /* \"--CODEGEN--\":93:96   */\n      dup2\n        /* \"--CODEGEN--\":85:91   */\n      dup5\n        /* \"--CODEGEN--\":81:97   */\n      add\n        /* \"--CODEGEN--\":74:101   */\n      mstore\n        /* \"--CODEGEN--\":137:141   */\n      0x1f\n        /* \"--CODEGEN--\":133:142   */\n      not\n        /* \"--CODEGEN--\":126:130   */\n      0x1f\n        /* \"--CODEGEN--\":121:124   */\n      dup3\n        /* \"--CODEGEN--\":117:131   */\n      add\n        /* \"--CODEGEN--\":113:143   */\n      and\n        /* \"--CODEGEN--\":106:143   */\n      swap1\n      pop\n        /* \"--CODEGEN--\":169:172   */\n      dup1\n        /* \"--CODEGEN--\":161:167   */\n      dup4\n        /* \"--CODEGEN--\":157:173   */\n      add\n        /* \"--CODEGEN--\":147:173   */\n      swap3\n      pop\n        /* \"PlasmaManager.sol\":1984:3479  function submitBunchHeader(bytes memory _signedHeader) public {... */\n      pop\n      pop\n      pop\n      pop\n      pop\n      pop\n      swap2\n      swap3\n      swap2\n      swap3\n      swap1\n      pop\n      pop\n      pop\n      tag_38\n      jump\t// in\n    tag_33:\n      stop\n        /* \"PlasmaManager.sol\":1866:1980  function setESNDepositAddress(address _esnDepositAddress) public {... */\n    tag_9:\n      tag_39\n      0x04\n      dup1\n      calldatasize\n      sub\n        /* \"--CODEGEN--\":15:17   */\n      0x20\n        /* \"--CODEGEN--\":10:13   */\n      dup2\n        /* \"--CODEGEN--\":7:18   */\n      lt\n        /* \"--CODEGEN--\":4:6   */\n      iszero\n      tag_40\n      jumpi\n        /* \"--CODEGEN--\":31:32   */\n      0x00\n        /* \"--CODEGEN--\":28:29   */\n      dup1\n        /* \"--CODEGEN--\":21:33   */\n      revert\n        /* \"--CODEGEN--\":4:6   */\n    tag_40:\n        /* \"PlasmaManager.sol\":1866:1980  function setESNDepositAddress(address _esnDepositAddress) public {... */\n      dup2\n      add\n      swap1\n      dup1\n      dup1\n      calldataload\n      0xffffffffffffffffffffffffffffffffffffffff\n      and\n      swap1\n      0x20\n      add\n      swap1\n      swap3\n      swap2\n      swap1\n      pop\n      pop\n      pop\n      tag_41\n      jump\t// in\n    tag_39:\n      stop\n        /* \"PlasmaManager.sol\":653:705  mapping(bytes32 => bool) public processedWithdrawals */\n    tag_10:\n      tag_42\n      0x04\n      dup1\n      calldatasize\n      sub\n        /* \"--CODEGEN--\":15:17   */\n      0x20\n        /* \"--CODEGEN--\":10:13   */\n      dup2\n        /* \"--CODEGEN--\":7:18   */\n      lt\n        /* \"--CODEGEN--\":4:6   */\n      iszero\n      tag_43\n      jumpi\n        /* \"--CODEGEN--\":31:32   */\n      0x00\n        /* \"--CODEGEN--\":28:29   */\n      dup1\n        /* \"--CODEGEN--\":21:33   */\n      revert\n        /* \"--CODEGEN--\":4:6   */\n    tag_43:\n        /* \"PlasmaManager.sol\":653:705  mapping(bytes32 => bool) public processedWithdrawals */\n      dup2\n      add\n      swap1\n      dup1\n      dup1\n      calldataload\n      swap1\n      0x20\n      add\n      swap1\n      swap3\n      swap2\n      swap1\n      pop\n      pop\n      pop\n      tag_44\n      jump\t// in\n    tag_42:\n      mload(0x40)\n      dup1\n      dup3\n      iszero\n      iszero\n      iszero\n      iszero\n      dup2\n      mstore\n      0x20\n      add\n      swap2\n      pop\n      pop\n      mload(0x40)\n      dup1\n      swap2\n      sub\n      swap1\n      return\n        /* \"PlasmaManager.sol\":3483:4971  function claimWithdrawal(... */\n    tag_11:\n      tag_45\n      0x04\n      dup1\n      calldatasize\n      sub\n        /* \"--CODEGEN--\":15:17   */\n      0x20\n        /* \"--CODEGEN--\":10:13   */\n      dup2\n        /* \"--CODEGEN--\":7:18   */\n      lt\n        /* \"--CODEGEN--\":4:6   */\n      iszero\n      tag_46\n      jumpi\n        /* \"--CODEGEN--\":31:32   */\n      0x00\n        /* \"--CODEGEN--\":28:29   */\n      dup1\n        /* \"--CODEGEN--\":21:33   */\n      revert\n        /* \"--CODEGEN--\":4:6   */\n    tag_46:\n        /* \"PlasmaManager.sol\":3483:4971  function claimWithdrawal(... */\n      dup2\n      add\n      swap1\n      dup1\n      dup1\n      calldataload\n      swap1\n      0x20\n      add\n      swap1\n        /* \"--CODEGEN--\":27:38   */\n      0x0100000000\n        /* \"--CODEGEN--\":14:25   */\n      dup2\n        /* \"--CODEGEN--\":11:39   */\n      gt\n        /* \"--CODEGEN--\":8:10   */\n      iszero\n      tag_47\n      jumpi\n        /* \"--CODEGEN--\":52:53   */\n      0x00\n        /* \"--CODEGEN--\":49:50   */\n      dup1\n        /* \"--CODEGEN--\":42:54   */\n      revert\n        /* \"--CODEGEN--\":8:10   */\n    tag_47:\n        /* \"PlasmaManager.sol\":3483:4971  function claimWithdrawal(... */\n      dup3\n      add\n        /* \"--CODEGEN--\":41:50   */\n      dup4\n        /* \"--CODEGEN--\":34:38   */\n      0x20\n        /* \"--CODEGEN--\":18:32   */\n      dup3\n        /* \"--CODEGEN--\":14:39   */\n      add\n        /* \"--CODEGEN--\":11:51   */\n      gt\n        /* \"--CODEGEN--\":8:10   */\n      iszero\n      tag_48\n      jumpi\n        /* \"--CODEGEN--\":64:65   */\n      0x00\n        /* \"--CODEGEN--\":61:62   */\n      dup1\n        /* \"--CODEGEN--\":54:66   */\n      revert\n        /* \"--CODEGEN--\":8:10   */\n    tag_48:\n        /* \"PlasmaManager.sol\":3483:4971  function claimWithdrawal(... */\n      dup1\n      calldataload\n      swap1\n      0x20\n      add\n      swap2\n        /* \"--CODEGEN--\":100:109   */\n      dup5\n        /* \"--CODEGEN--\":95:96   */\n      0x01\n        /* \"--CODEGEN--\":81:93   */\n      dup4\n        /* \"--CODEGEN--\":77:97   */\n      mul\n        /* \"--CODEGEN--\":67:75   */\n      dup5\n        /* \"--CODEGEN--\":63:98   */\n      add\n        /* \"--CODEGEN--\":60:110   */\n      gt\n        /* \"--CODEGEN--\":39:50   */\n      0x0100000000\n        /* \"--CODEGEN--\":25:37   */\n      dup4\n        /* \"--CODEGEN--\":22:51   */\n      gt\n        /* \"--CODEGEN--\":11:118   */\n      or\n        /* \"--CODEGEN--\":8:10   */\n      iszero\n      tag_49\n      jumpi\n        /* \"--CODEGEN--\":131:132   */\n      0x00\n        /* \"--CODEGEN--\":128:129   */\n      dup1\n        /* \"--CODEGEN--\":121:133   */\n      revert\n        /* \"--CODEGEN--\":8:10   */\n    tag_49:\n        /* \"PlasmaManager.sol\":3483:4971  function claimWithdrawal(... */\n      swap2\n      swap1\n      dup1\n      dup1\n      0x1f\n      add\n      0x20\n      dup1\n      swap2\n      div\n      mul\n      0x20\n      add\n      mload(0x40)\n      swap1\n      dup2\n      add\n      0x40\n      mstore\n      dup1\n      swap4\n      swap3\n      swap2\n      swap1\n      dup2\n      dup2\n      mstore\n      0x20\n      add\n      dup4\n      dup4\n        /* \"--CODEGEN--\":30:33   */\n      dup1\n        /* \"--CODEGEN--\":22:28   */\n      dup3\n        /* \"--CODEGEN--\":14:20   */\n      dup5\n        /* \"--CODEGEN--\":1:34   */\n      calldatacopy\n        /* \"--CODEGEN--\":99:100   */\n      0x00\n        /* \"--CODEGEN--\":93:96   */\n      dup2\n        /* \"--CODEGEN--\":85:91   */\n      dup5\n        /* \"--CODEGEN--\":81:97   */\n      add\n        /* \"--CODEGEN--\":74:101   */\n      mstore\n        /* \"--CODEGEN--\":137:141   */\n      0x1f\n        /* \"--CODEGEN--\":133:142   */\n      not\n        /* \"--CODEGEN--\":126:130   */\n      0x1f\n        /* \"--CODEGEN--\":121:124   */\n      dup3\n        /* \"--CODEGEN--\":117:131   */\n      add\n        /* \"--CODEGEN--\":113:143   */\n      and\n        /* \"--CODEGEN--\":106:143   */\n      swap1\n      pop\n        /* \"--CODEGEN--\":169:172   */\n      dup1\n        /* \"--CODEGEN--\":161:167   */\n      dup4\n        /* \"--CODEGEN--\":157:173   */\n      add\n        /* \"--CODEGEN--\":147:173   */\n      swap3\n      pop\n        /* \"PlasmaManager.sol\":3483:4971  function claimWithdrawal(... */\n      pop\n      pop\n      pop\n      pop\n      pop\n      pop\n      swap2\n      swap3\n      swap2\n      swap3\n      swap1\n      pop\n      pop\n      pop\n      tag_50\n      jump\t// in\n    tag_45:\n      stop\n        /* \"PlasmaManager.sol\":1617:1706  function getAllSigners() public view returns (address[] memory) {... */\n    tag_12:\n      tag_51\n      tag_52\n      jump\t// in\n    tag_51:\n      mload(0x40)\n      dup1\n      dup1\n      0x20\n      add\n      dup3\n      dup2\n      sub\n      dup3\n      mstore\n      dup4\n      dup2\n      dup2\n      mload\n      dup2\n      mstore\n      0x20\n      add\n      swap2\n      pop\n      dup1\n      mload\n      swap1\n      0x20\n      add\n      swap1\n      0x20\n      mul\n      dup1\n      dup4\n      dup4\n        /* \"--CODEGEN--\":23:24   */\n      0x00\n        /* \"--CODEGEN--\":8:108   */\n    tag_53:\n        /* \"--CODEGEN--\":33:36   */\n      dup4\n        /* \"--CODEGEN--\":30:31   */\n      dup2\n        /* \"--CODEGEN--\":27:37   */\n      lt\n        /* \"--CODEGEN--\":8:108   */\n      iszero\n      tag_55\n      jumpi\n        /* \"--CODEGEN--\":99:100   */\n      dup1\n        /* \"--CODEGEN--\":94:97   */\n      dup3\n        /* \"--CODEGEN--\":90:101   */\n      add\n        /* \"--CODEGEN--\":84:102   */\n      mload\n        /* \"--CODEGEN--\":80:81   */\n      dup2\n        /* \"--CODEGEN--\":75:78   */\n      dup5\n        /* \"--CODEGEN--\":71:82   */\n      add\n        /* \"--CODEGEN--\":64:103   */\n      mstore\n        /* \"--CODEGEN--\":52:54   */\n      0x20\n        /* \"--CODEGEN--\":49:50   */\n      dup2\n        /* \"--CODEGEN--\":45:55   */\n      add\n        /* \"--CODEGEN--\":40:55   */\n      swap1\n      pop\n        /* \"--CODEGEN--\":8:108   */\n      jump(tag_53)\n    tag_55:\n        /* \"--CODEGEN--\":12:26   */\n      pop\n        /* \"PlasmaManager.sol\":1617:1706  function getAllSigners() public view returns (address[] memory) {... */\n      pop\n      pop\n      pop\n      swap1\n      pop\n      add\n      swap3\n      pop\n      pop\n      pop\n      mload(0x40)\n      dup1\n      swap2\n      sub\n      swap1\n      return\n        /* \"PlasmaManager.sol\":569:602  uint256 public numberOfValidators */\n    tag_13:\n      tag_56\n      tag_57\n      jump\t// in\n    tag_56:\n      mload(0x40)\n      dup1\n      dup3\n      dup2\n      mstore\n      0x20\n      add\n      swap2\n      pop\n      pop\n      mload(0x40)\n      dup1\n      swap2\n      sub\n      swap1\n      return\n        /* \"PlasmaManager.sol\":1518:1613  function getAllValidators() public view returns (address[] memory) {... */\n    tag_14:\n      tag_58\n      tag_59\n      jump\t// in\n    tag_58:\n      mload(0x40)\n      dup1\n      dup1\n      0x20\n      add\n      dup3\n      dup2\n      sub\n      dup3\n      mstore\n      dup4\n      dup2\n      dup2\n      mload\n      dup2\n      mstore\n      0x20\n      add\n      swap2\n      pop\n      dup1\n      mload\n      swap1\n      0x20\n      add\n      swap1\n      0x20\n      mul\n      dup1\n      dup4\n      dup4\n        /* \"--CODEGEN--\":23:24   */\n      0x00\n        /* \"--CODEGEN--\":8:108   */\n    tag_60:\n        /* \"--CODEGEN--\":33:36   */\n      dup4\n        /* \"--CODEGEN--\":30:31   */\n      dup2\n        /* \"--CODEGEN--\":27:37   */\n      lt\n        /* \"--CODEGEN--\":8:108   */\n      iszero\n      tag_62\n      jumpi\n        /* \"--CODEGEN--\":99:100   */\n      dup1\n        /* \"--CODEGEN--\":94:97   */\n      dup3\n        /* \"--CODEGEN--\":90:101   */\n      add\n        /* \"--CODEGEN--\":84:102   */\n      mload\n        /* \"--CODEGEN--\":80:81   */\n      dup2\n        /* \"--CODEGEN--\":75:78   */\n      dup5\n        /* \"--CODEGEN--\":71:82   */\n      add\n        /* \"--CODEGEN--\":64:103   */\n      mstore\n        /* \"--CODEGEN--\":52:54   */\n      0x20\n        /* \"--CODEGEN--\":49:50   */\n      dup2\n        /* \"--CODEGEN--\":45:55   */\n      add\n        /* \"--CODEGEN--\":40:55   */\n      swap1\n      pop\n        /* \"--CODEGEN--\":8:108   */\n      jump(tag_60)\n    tag_62:\n        /* \"--CODEGEN--\":12:26   */\n      pop\n        /* \"PlasmaManager.sol\":1518:1613  function getAllValidators() public view returns (address[] memory) {... */\n      pop\n      pop\n      pop\n      swap1\n      pop\n      add\n      swap3\n      pop\n      pop\n      pop\n      mload(0x40)\n      dup1\n      swap2\n      sub\n      swap1\n      return\n        /* \"PlasmaManager.sol\":606:649  mapping(address => bool) public isValidator */\n    tag_15:\n      tag_63\n      0x04\n      dup1\n      calldatasize\n      sub\n        /* \"--CODEGEN--\":15:17   */\n      0x20\n        /* \"--CODEGEN--\":10:13   */\n      dup2\n        /* \"--CODEGEN--\":7:18   */\n      lt\n        /* \"--CODEGEN--\":4:6   */\n      iszero\n      tag_64\n      jumpi\n        /* \"--CODEGEN--\":31:32   */\n      0x00\n        /* \"--CODEGEN--\":28:29   */\n      dup1\n        /* \"--CODEGEN--\":21:33   */\n      revert\n        /* \"--CODEGEN--\":4:6   */\n    tag_64:\n        /* \"PlasmaManager.sol\":606:649  mapping(address => bool) public isValidator */\n      dup2\n      add\n      swap1\n      dup1\n      dup1\n      calldataload\n      0xffffffffffffffffffffffffffffffffffffffff\n      and\n      swap1\n      0x20\n      add\n      swap1\n      swap3\n      swap2\n      swap1\n      pop\n      pop\n      pop\n      tag_65\n      jump\t// in\n    tag_63:\n      mload(0x40)\n      dup1\n      dup3\n      iszero\n      iszero\n      iszero\n      iszero\n      dup2\n      mstore\n      0x20\n      add\n      swap2\n      pop\n      pop\n      mload(0x40)\n      dup1\n      swap2\n      sub\n      swap1\n      return\n        /* \"PlasmaManager.sol\":970:988  ERC20 public token */\n    tag_16:\n      tag_66\n      tag_67\n      jump\t// in\n    tag_66:\n      mload(0x40)\n      dup1\n      dup3\n      0xffffffffffffffffffffffffffffffffffffffff\n      and\n      0xffffffffffffffffffffffffffffffffffffffff\n      and\n      dup2\n      mstore\n      0x20\n      add\n      swap2\n      pop\n      pop\n      mload(0x40)\n      dup1\n      swap2\n      sub\n      swap1\n      return\n        /* \"PlasmaManager.sol\":1081:1129  address public esnDepositAddress = address(this) */\n    tag_21:\n      0x07\n      0x00\n      swap1\n      sload\n      swap1\n      0x0100\n      exp\n      swap1\n      div\n      0xffffffffffffffffffffffffffffffffffffffff\n      and\n      dup2\n      jump\t// out\n        /* \"PlasmaManager.sol\":740:764  address[] public signers */\n    tag_24:\n      0x04\n      dup2\n      dup2\n      sload\n      dup2\n      lt\n      tag_68\n      jumpi\n      invalid\n    tag_68:\n      swap1\n      0x00\n      mstore\n      keccak256(0x00, 0x20)\n      add\n      0x00\n      swap2\n      pop\n      sload\n      swap1\n      0x0100\n      exp\n      swap1\n      div\n      0xffffffffffffffffffffffffffffffffffffffff\n      and\n      dup2\n      jump\t// out\n        /* \"PlasmaManager.sol\":1710:1798  function lastBunchIndex() public view returns (uint256) {... */\n    tag_26:\n        /* \"PlasmaManager.sol\":1757:1764  uint256 */\n      0x00\n        /* \"PlasmaManager.sol\":1779:1786  bunches */\n      0x05\n        /* \"PlasmaManager.sol\":1779:1793  bunches.length */\n      dup1\n      sload\n      swap1\n      pop\n        /* \"PlasmaManager.sol\":1772:1793  return bunches.length */\n      swap1\n      pop\n        /* \"PlasmaManager.sol\":1710:1798  function lastBunchIndex() public view returns (uint256) {... */\n      swap1\n      jump\t// out\n        /* \"PlasmaManager.sol\":709:736  address[] public validators */\n    tag_29:\n      0x03\n      dup2\n      dup2\n      sload\n      dup2\n      lt\n      tag_71\n      jumpi\n      invalid\n    tag_71:\n      swap1\n      0x00\n      mstore\n      keccak256(0x00, 0x20)\n      add\n      0x00\n      swap2\n      pop\n      sload\n      swap1\n      0x0100\n      exp\n      swap1\n      div\n      0xffffffffffffffffffffffffffffffffffffffff\n      and\n      dup2\n      jump\t// out\n        /* \"PlasmaManager.sol\":768:796  BunchHeader[] public bunches */\n    tag_32:\n      0x05\n      dup2\n      dup2\n      sload\n      dup2\n      lt\n      tag_73\n      jumpi\n      invalid\n    tag_73:\n      swap1\n      0x00\n      mstore\n      keccak256(0x00, 0x20)\n      swap1\n      0x04\n      mul\n      add\n      0x00\n      swap2\n      pop\n      swap1\n      pop\n      dup1\n      0x00\n      add\n      sload\n      swap1\n      dup1\n      0x01\n      add\n      sload\n      swap1\n      dup1\n      0x02\n      add\n      sload\n      swap1\n      dup1\n      0x03\n      add\n      sload\n      swap1\n      pop\n      dup5\n      jump\t// out\n        /* \"PlasmaManager.sol\":1984:3479  function submitBunchHeader(bytes memory _signedHeader) public {... */\n    tag_38:\n        /* \"PlasmaManager.sol\":2052:2082  RLP.RLPItem[] memory _fullList */\n      0x60\n        /* \"PlasmaManager.sol\":2085:2119  _signedHeader.toRLPItem().toList() */\n      tag_76\n        /* \"PlasmaManager.sol\":2085:2110  _signedHeader.toRLPItem() */\n      tag_77\n        /* \"PlasmaManager.sol\":2085:2098  _signedHeader */\n      dup4\n        /* \"PlasmaManager.sol\":2085:2108  _signedHeader.toRLPItem */\n      tag_78\n        /* \"PlasmaManager.sol\":2085:2110  _signedHeader.toRLPItem() */\n      jump\t// in\n    tag_77:\n        /* \"PlasmaManager.sol\":2085:2117  _signedHeader.toRLPItem().toList */\n      tag_79\n        /* \"PlasmaManager.sol\":2085:2119  _signedHeader.toRLPItem().toList() */\n      jump\t// in\n    tag_76:\n        /* \"PlasmaManager.sol\":2052:2119  RLP.RLPItem[] memory _fullList = _signedHeader.toRLPItem().toList() */\n      swap1\n      pop\n        /* \"PlasmaManager.sol\":2125:2158  RLP.RLPItem[] memory _headerArray */\n      0x60\n        /* \"PlasmaManager.sol\":2161:2182  _fullList[0].toList() */\n      tag_80\n        /* \"PlasmaManager.sol\":2161:2170  _fullList */\n      dup3\n        /* \"PlasmaManager.sol\":2171:2172  0 */\n      0x00\n        /* \"PlasmaManager.sol\":2161:2173  _fullList[0] */\n      dup2\n      mload\n      dup2\n      lt\n      tag_81\n      jumpi\n      invalid\n    tag_81:\n      0x20\n      mul\n      0x20\n      add\n      add\n      mload\n        /* \"PlasmaManager.sol\":2161:2180  _fullList[0].toList */\n      tag_79\n        /* \"PlasmaManager.sol\":2161:2182  _fullList[0].toList() */\n      jump\t// in\n    tag_80:\n        /* \"PlasmaManager.sol\":2125:2182  RLP.RLPItem[] memory _headerArray = _fullList[0].toList() */\n      swap1\n      pop\n        /* \"PlasmaManager.sol\":2219:2220  4 */\n      0x04\n        /* \"PlasmaManager.sol\":2196:2208  _headerArray */\n      dup2\n        /* \"PlasmaManager.sol\":2196:2215  _headerArray.length */\n      mload\n        /* \"PlasmaManager.sol\":2196:2220  _headerArray.length == 4 */\n      eq\n        /* \"PlasmaManager.sol\":2188:2257  require(_headerArray.length == 4, 'bunch header must have 4 members') */\n      tag_82\n      jumpi\n      mload(0x40)\n      0x08c379a000000000000000000000000000000000000000000000000000000000\n      dup2\n      mstore\n      0x04\n      add\n      dup1\n      dup1\n      0x20\n      add\n      dup3\n      dup2\n      sub\n      dup3\n      mstore\n      0x20\n      dup2\n      mstore\n      0x20\n      add\n      dup1\n      0x62756e636820686561646572206d75737420686176652034206d656d62657273\n      dup2\n      mstore\n      pop\n      0x20\n      add\n      swap2\n      pop\n      pop\n      mload(0x40)\n      dup1\n      swap2\n      sub\n      swap1\n      revert\n    tag_82:\n        /* \"PlasmaManager.sol\":2264:2295  BunchHeader memory _bunchHeader */\n      tag_83\n      tag_84\n      jump\t// in\n    tag_83:\n        /* \"PlasmaManager.sol\":2298:2521  BunchHeader({... */\n      mload(0x40)\n      dup1\n      0x80\n      add\n      0x40\n      mstore\n      dup1\n        /* \"PlasmaManager.sol\":2336:2360  _headerArray[0].toUint() */\n      tag_85\n        /* \"PlasmaManager.sol\":2336:2348  _headerArray */\n      dup5\n        /* \"PlasmaManager.sol\":2349:2350  0 */\n      0x00\n        /* \"PlasmaManager.sol\":2336:2351  _headerArray[0] */\n      dup2\n      mload\n      dup2\n      lt\n      tag_86\n      jumpi\n      invalid\n    tag_86:\n      0x20\n      mul\n      0x20\n      add\n      add\n      mload\n        /* \"PlasmaManager.sol\":2336:2358  _headerArray[0].toUint */\n      tag_87\n        /* \"PlasmaManager.sol\":2336:2360  _headerArray[0].toUint() */\n      jump\t// in\n    tag_85:\n        /* \"PlasmaManager.sol\":2298:2521  BunchHeader({... */\n      dup2\n      mstore\n      0x20\n      add\n        /* \"PlasmaManager.sol\":2380:2404  _headerArray[1].toUint() */\n      tag_88\n        /* \"PlasmaManager.sol\":2380:2392  _headerArray */\n      dup5\n        /* \"PlasmaManager.sol\":2393:2394  1 */\n      0x01\n        /* \"PlasmaManager.sol\":2380:2395  _headerArray[1] */\n      dup2\n      mload\n      dup2\n      lt\n      tag_89\n      jumpi\n      invalid\n    tag_89:\n      0x20\n      mul\n      0x20\n      add\n      add\n      mload\n        /* \"PlasmaManager.sol\":2380:2402  _headerArray[1].toUint */\n      tag_87\n        /* \"PlasmaManager.sol\":2380:2404  _headerArray[1].toUint() */\n      jump\t// in\n    tag_88:\n        /* \"PlasmaManager.sol\":2298:2521  BunchHeader({... */\n      dup2\n      mstore\n      0x20\n      add\n        /* \"PlasmaManager.sol\":2434:2461  _headerArray[2].toBytes32() */\n      tag_90\n        /* \"PlasmaManager.sol\":2434:2446  _headerArray */\n      dup5\n        /* \"PlasmaManager.sol\":2447:2448  2 */\n      0x02\n        /* \"PlasmaManager.sol\":2434:2449  _headerArray[2] */\n      dup2\n      mload\n      dup2\n      lt\n      tag_91\n      jumpi\n      invalid\n    tag_91:\n      0x20\n      mul\n      0x20\n      add\n      add\n      mload\n        /* \"PlasmaManager.sol\":2434:2459  _headerArray[2].toBytes32 */\n      tag_92\n        /* \"PlasmaManager.sol\":2434:2461  _headerArray[2].toBytes32() */\n      jump\t// in\n    tag_90:\n        /* \"PlasmaManager.sol\":2298:2521  BunchHeader({... */\n      dup2\n      mstore\n      0x20\n      add\n        /* \"PlasmaManager.sol\":2487:2514  _headerArray[3].toBytes32() */\n      tag_93\n        /* \"PlasmaManager.sol\":2487:2499  _headerArray */\n      dup5\n        /* \"PlasmaManager.sol\":2500:2501  3 */\n      0x03\n        /* \"PlasmaManager.sol\":2487:2502  _headerArray[3] */\n      dup2\n      mload\n      dup2\n      lt\n      tag_94\n      jumpi\n      invalid\n    tag_94:\n      0x20\n      mul\n      0x20\n      add\n      add\n      mload\n        /* \"PlasmaManager.sol\":2487:2512  _headerArray[3].toBytes32 */\n      tag_92\n        /* \"PlasmaManager.sol\":2487:2514  _headerArray[3].toBytes32() */\n      jump\t// in\n    tag_93:\n        /* \"PlasmaManager.sol\":2298:2521  BunchHeader({... */\n      dup2\n      mstore\n      pop\n        /* \"PlasmaManager.sol\":2264:2521  BunchHeader memory _bunchHeader = BunchHeader({... */\n      swap1\n      pop\n        /* \"PlasmaManager.sol\":2569:2594  getNextStartBlockNumber() */\n      tag_95\n        /* \"PlasmaManager.sol\":2569:2592  getNextStartBlockNumber */\n      tag_96\n        /* \"PlasmaManager.sol\":2569:2594  getNextStartBlockNumber() */\n      jump\t// in\n    tag_95:\n        /* \"PlasmaManager.sol\":2536:2548  _bunchHeader */\n      dup2\n        /* \"PlasmaManager.sol\":2536:2565  _bunchHeader.startBlockNumber */\n      0x00\n      add\n      mload\n        /* \"PlasmaManager.sol\":2536:2594  _bunchHeader.startBlockNumber == getNextStartBlockNumber() */\n      eq\n        /* \"PlasmaManager.sol\":2528:2625  require(_bunchHeader.startBlockNumber == getNextStartBlockNumber(), 'invalid start block number') */\n      tag_97\n      jumpi\n      mload(0x40)\n      0x08c379a000000000000000000000000000000000000000000000000000000000\n      dup2\n      mstore\n      0x04\n      add\n      dup1\n      dup1\n      0x20\n      add\n      dup3\n      dup2\n      sub\n      dup3\n      mstore\n      0x1a\n      dup2\n      mstore\n      0x20\n      add\n      dup1\n      0x696e76616c696420737461727420626c6f636b206e756d626572000000000000\n      dup2\n      mstore\n      pop\n      0x20\n      add\n      swap2\n      pop\n      pop\n      mload(0x40)\n      dup1\n      swap2\n      sub\n      swap1\n      revert\n    tag_97:\n        /* \"PlasmaManager.sol\":2632:2655  bytes memory _headerRLP */\n      0x60\n        /* \"PlasmaManager.sol\":2658:2683  _fullList[0].toRLPBytes() */\n      tag_98\n        /* \"PlasmaManager.sol\":2658:2667  _fullList */\n      dup5\n        /* \"PlasmaManager.sol\":2668:2669  0 */\n      0x00\n        /* \"PlasmaManager.sol\":2658:2670  _fullList[0] */\n      dup2\n      mload\n      dup2\n      lt\n      tag_99\n      jumpi\n      invalid\n    tag_99:\n      0x20\n      mul\n      0x20\n      add\n      add\n      mload\n        /* \"PlasmaManager.sol\":2658:2681  _fullList[0].toRLPBytes */\n      tag_100\n        /* \"PlasmaManager.sol\":2658:2683  _fullList[0].toRLPBytes() */\n      jump\t// in\n    tag_98:\n        /* \"PlasmaManager.sol\":2632:2683  bytes memory _headerRLP = _fullList[0].toRLPBytes() */\n      swap1\n      pop\n        /* \"PlasmaManager.sol\":2690:2705  bytes32 _digest */\n      0x00\n        /* \"PlasmaManager.sol\":2751:2766  PERSONAL_PREFIX */\n      mload(0x40)\n      dup1\n      0x40\n      add\n      0x40\n      mstore\n      dup1\n      0x1a\n      dup2\n      mstore\n      0x20\n      add\n      0x19457468657265756d205369676e6564204d6573736167653a0a000000000000\n      dup2\n      mstore\n      pop\n        /* \"PlasmaManager.sol\":2776:2815  BytesLib.getBytesStr(_headerRLP.length) */\n      tag_101\n        /* \"PlasmaManager.sol\":2797:2807  _headerRLP */\n      dup4\n        /* \"PlasmaManager.sol\":2797:2814  _headerRLP.length */\n      mload\n        /* \"PlasmaManager.sol\":2776:2796  BytesLib.getBytesStr */\n      tag_102\n        /* \"PlasmaManager.sol\":2776:2815  BytesLib.getBytesStr(_headerRLP.length) */\n      jump\t// in\n    tag_101:\n        /* \"PlasmaManager.sol\":2825:2835  _headerRLP */\n      dup4\n        /* \"PlasmaManager.sol\":2725:2843  abi.encodePacked(... */\n      add(0x20, mload(0x40))\n      dup1\n      dup5\n      dup1\n      mload\n      swap1\n      0x20\n      add\n      swap1\n      dup1\n      dup4\n      dup4\n        /* \"--CODEGEN--\":36:189   */\n    tag_103:\n        /* \"--CODEGEN--\":66:68   */\n      0x20\n        /* \"--CODEGEN--\":61:64   */\n      dup4\n        /* \"--CODEGEN--\":58:69   */\n      lt\n        /* \"--CODEGEN--\":36:189   */\n      tag_105\n      jumpi\n        /* \"--CODEGEN--\":182:185   */\n      dup1\n        /* \"--CODEGEN--\":176:186   */\n      mload\n        /* \"--CODEGEN--\":171:174   */\n      dup3\n        /* \"--CODEGEN--\":164:187   */\n      mstore\n        /* \"--CODEGEN--\":98:100   */\n      0x20\n        /* \"--CODEGEN--\":93:96   */\n      dup3\n        /* \"--CODEGEN--\":89:101   */\n      add\n        /* \"--CODEGEN--\":82:101   */\n      swap2\n      pop\n        /* \"--CODEGEN--\":123:125   */\n      0x20\n        /* \"--CODEGEN--\":118:121   */\n      dup2\n        /* \"--CODEGEN--\":114:126   */\n      add\n        /* \"--CODEGEN--\":107:126   */\n      swap1\n      pop\n        /* \"--CODEGEN--\":148:150   */\n      0x20\n        /* \"--CODEGEN--\":143:146   */\n      dup4\n        /* \"--CODEGEN--\":139:151   */\n      sub\n        /* \"--CODEGEN--\":132:151   */\n      swap3\n      pop\n        /* \"--CODEGEN--\":36:189   */\n      jump(tag_103)\n    tag_105:\n        /* \"--CODEGEN--\":274:275   */\n      0x01\n        /* \"--CODEGEN--\":267:270   */\n      dup4\n        /* \"--CODEGEN--\":263:265   */\n      0x20\n        /* \"--CODEGEN--\":259:271   */\n      sub\n        /* \"--CODEGEN--\":254:257   */\n      0x0100\n        /* \"--CODEGEN--\":250:272   */\n      exp\n        /* \"--CODEGEN--\":246:276   */\n      sub\n        /* \"--CODEGEN--\":315:319   */\n      dup1\n        /* \"--CODEGEN--\":311:320   */\n      not\n        /* \"--CODEGEN--\":305:308   */\n      dup3\n        /* \"--CODEGEN--\":299:309   */\n      mload\n        /* \"--CODEGEN--\":295:321   */\n      and\n        /* \"--CODEGEN--\":356:360   */\n      dup2\n        /* \"--CODEGEN--\":350:353   */\n      dup5\n        /* \"--CODEGEN--\":344:354   */\n      mload\n        /* \"--CODEGEN--\":340:361   */\n      and\n        /* \"--CODEGEN--\":389:396   */\n      dup1\n        /* \"--CODEGEN--\":380:387   */\n      dup3\n        /* \"--CODEGEN--\":377:397   */\n      or\n        /* \"--CODEGEN--\":372:375   */\n      dup6\n        /* \"--CODEGEN--\":365:398   */\n      mstore\n        /* \"--CODEGEN--\":3:402   */\n      pop\n      pop\n      pop\n        /* \"PlasmaManager.sol\":2725:2843  abi.encodePacked(... */\n      pop\n      pop\n      pop\n      swap1\n      pop\n      add\n      dup4\n      dup1\n      mload\n      swap1\n      0x20\n      add\n      swap1\n      dup1\n      dup4\n      dup4\n        /* \"--CODEGEN--\":36:189   */\n    tag_106:\n        /* \"--CODEGEN--\":66:68   */\n      0x20\n        /* \"--CODEGEN--\":61:64   */\n      dup4\n        /* \"--CODEGEN--\":58:69   */\n      lt\n        /* \"--CODEGEN--\":36:189   */\n      tag_108\n      jumpi\n        /* \"--CODEGEN--\":182:185   */\n      dup1\n        /* \"--CODEGEN--\":176:186   */\n      mload\n        /* \"--CODEGEN--\":171:174   */\n      dup3\n        /* \"--CODEGEN--\":164:187   */\n      mstore\n        /* \"--CODEGEN--\":98:100   */\n      0x20\n        /* \"--CODEGEN--\":93:96   */\n      dup3\n        /* \"--CODEGEN--\":89:101   */\n      add\n        /* \"--CODEGEN--\":82:101   */\n      swap2\n      pop\n        /* \"--CODEGEN--\":123:125   */\n      0x20\n        /* \"--CODEGEN--\":118:121   */\n      dup2\n        /* \"--CODEGEN--\":114:126   */\n      add\n        /* \"--CODEGEN--\":107:126   */\n      swap1\n      pop\n        /* \"--CODEGEN--\":148:150   */\n      0x20\n        /* \"--CODEGEN--\":143:146   */\n      dup4\n        /* \"--CODEGEN--\":139:151   */\n      sub\n        /* \"--CODEGEN--\":132:151   */\n      swap3\n      pop\n        /* \"--CODEGEN--\":36:189   */\n      jump(tag_106)\n    tag_108:\n        /* \"--CODEGEN--\":274:275   */\n      0x01\n        /* \"--CODEGEN--\":267:270   */\n      dup4\n        /* \"--CODEGEN--\":263:265   */\n      0x20\n        /* \"--CODEGEN--\":259:271   */\n      sub\n        /* \"--CODEGEN--\":254:257   */\n      0x0100\n        /* \"--CODEGEN--\":250:272   */\n      exp\n        /* \"--CODEGEN--\":246:276   */\n      sub\n        /* \"--CODEGEN--\":315:319   */\n      dup1\n        /* \"--CODEGEN--\":311:320   */\n      not\n        /* \"--CODEGEN--\":305:308   */\n      dup3\n        /* \"--CODEGEN--\":299:309   */\n      mload\n        /* \"--CODEGEN--\":295:321   */\n      and\n        /* \"--CODEGEN--\":356:360   */\n      dup2\n        /* \"--CODEGEN--\":350:353   */\n      dup5\n        /* \"--CODEGEN--\":344:354   */\n      mload\n        /* \"--CODEGEN--\":340:361   */\n      and\n        /* \"--CODEGEN--\":389:396   */\n      dup1\n        /* \"--CODEGEN--\":380:387   */\n      dup3\n        /* \"--CODEGEN--\":377:397   */\n      or\n        /* \"--CODEGEN--\":372:375   */\n      dup6\n        /* \"--CODEGEN--\":365:398   */\n      mstore\n        /* \"--CODEGEN--\":3:402   */\n      pop\n      pop\n      pop\n        /* \"PlasmaManager.sol\":2725:2843  abi.encodePacked(... */\n      pop\n      pop\n      pop\n      swap1\n      pop\n      add\n      dup3\n      dup1\n      mload\n      swap1\n      0x20\n      add\n      swap1\n      dup1\n      dup4\n      dup4\n        /* \"--CODEGEN--\":36:189   */\n    tag_109:\n        /* \"--CODEGEN--\":66:68   */\n      0x20\n        /* \"--CODEGEN--\":61:64   */\n      dup4\n        /* \"--CODEGEN--\":58:69   */\n      lt\n        /* \"--CODEGEN--\":36:189   */\n      tag_111\n      jumpi\n        /* \"--CODEGEN--\":182:185   */\n      dup1\n        /* \"--CODEGEN--\":176:186   */\n      mload\n        /* \"--CODEGEN--\":171:174   */\n      dup3\n        /* \"--CODEGEN--\":164:187   */\n      mstore\n        /* \"--CODEGEN--\":98:100   */\n      0x20\n        /* \"--CODEGEN--\":93:96   */\n      dup3\n        /* \"--CODEGEN--\":89:101   */\n      add\n        /* \"--CODEGEN--\":82:101   */\n      swap2\n      pop\n        /* \"--CODEGEN--\":123:125   */\n      0x20\n        /* \"--CODEGEN--\":118:121   */\n      dup2\n        /* \"--CODEGEN--\":114:126   */\n      add\n        /* \"--CODEGEN--\":107:126   */\n      swap1\n      pop\n        /* \"--CODEGEN--\":148:150   */\n      0x20\n        /* \"--CODEGEN--\":143:146   */\n      dup4\n        /* \"--CODEGEN--\":139:151   */\n      sub\n        /* \"--CODEGEN--\":132:151   */\n      swap3\n      pop\n        /* \"--CODEGEN--\":36:189   */\n      jump(tag_109)\n    tag_111:\n        /* \"--CODEGEN--\":274:275   */\n      0x01\n        /* \"--CODEGEN--\":267:270   */\n      dup4\n        /* \"--CODEGEN--\":263:265   */\n      0x20\n        /* \"--CODEGEN--\":259:271   */\n      sub\n        /* \"--CODEGEN--\":254:257   */\n      0x0100\n        /* \"--CODEGEN--\":250:272   */\n      exp\n        /* \"--CODEGEN--\":246:276   */\n      sub\n        /* \"--CODEGEN--\":315:319   */\n      dup1\n        /* \"--CODEGEN--\":311:320   */\n      not\n        /* \"--CODEGEN--\":305:308   */\n      dup3\n        /* \"--CODEGEN--\":299:309   */\n      mload\n        /* \"--CODEGEN--\":295:321   */\n      and\n        /* \"--CODEGEN--\":356:360   */\n      dup2\n        /* \"--CODEGEN--\":350:353   */\n      dup5\n        /* \"--CODEGEN--\":344:354   */\n      mload\n        /* \"--CODEGEN--\":340:361   */\n      and\n        /* \"--CODEGEN--\":389:396   */\n      dup1\n        /* \"--CODEGEN--\":380:387   */\n      dup3\n        /* \"--CODEGEN--\":377:397   */\n      or\n        /* \"--CODEGEN--\":372:375   */\n      dup6\n        /* \"--CODEGEN--\":365:398   */\n      mstore\n        /* \"--CODEGEN--\":3:402   */\n      pop\n      pop\n      pop\n        /* \"PlasmaManager.sol\":2725:2843  abi.encodePacked(... */\n      pop\n      pop\n      pop\n      swap1\n      pop\n      add\n      swap4\n      pop\n      pop\n      pop\n      pop\n      mload(0x40)\n        /* \"--CODEGEN--\":49:53   */\n      0x20\n        /* \"--CODEGEN--\":39:46   */\n      dup2\n        /* \"--CODEGEN--\":30:37   */\n      dup4\n        /* \"--CODEGEN--\":26:47   */\n      sub\n        /* \"--CODEGEN--\":22:54   */\n      sub\n        /* \"--CODEGEN--\":13:20   */\n      dup2\n        /* \"--CODEGEN--\":6:55   */\n      mstore\n        /* \"PlasmaManager.sol\":2725:2843  abi.encodePacked(... */\n      swap1\n      0x40\n      mstore\n        /* \"PlasmaManager.sol\":2708:2849  keccak256(... */\n      dup1\n      mload\n      swap1\n      0x20\n      add\n      keccak256\n        /* \"PlasmaManager.sol\":2690:2849  bytes32 _digest = keccak256(... */\n      swap1\n      pop\n        /* \"PlasmaManager.sol\":2856:2888  uint256 _numberOfValidSignatures */\n      0x00\n        /* \"PlasmaManager.sol\":2899:2908  uint256 i */\n      dup1\n        /* \"PlasmaManager.sol\":2911:2912  1 */\n      0x01\n        /* \"PlasmaManager.sol\":2899:2912  uint256 i = 1 */\n      swap1\n      pop\n        /* \"PlasmaManager.sol\":2895:3202  for(uint256 i = 1; i < _fullList.length; i++) {... */\n    tag_112:\n        /* \"PlasmaManager.sol\":2918:2927  _fullList */\n      dup7\n        /* \"PlasmaManager.sol\":2918:2934  _fullList.length */\n      mload\n        /* \"PlasmaManager.sol\":2914:2915  i */\n      dup2\n        /* \"PlasmaManager.sol\":2914:2934  i < _fullList.length */\n      lt\n        /* \"PlasmaManager.sol\":2895:3202  for(uint256 i = 1; i < _fullList.length; i++) {... */\n      iszero\n      tag_113\n      jumpi\n        /* \"PlasmaManager.sol\":2949:2972  bytes memory _signature */\n      0x60\n        /* \"PlasmaManager.sol\":2975:2997  _fullList[i].toBytes() */\n      tag_115\n        /* \"PlasmaManager.sol\":2975:2984  _fullList */\n      dup9\n        /* \"PlasmaManager.sol\":2985:2986  i */\n      dup4\n        /* \"PlasmaManager.sol\":2975:2987  _fullList[i] */\n      dup2\n      mload\n      dup2\n      lt\n      tag_116\n      jumpi\n      invalid\n    tag_116:\n      0x20\n      mul\n      0x20\n      add\n      add\n      mload\n        /* \"PlasmaManager.sol\":2975:2995  _fullList[i].toBytes */\n      tag_117\n        /* \"PlasmaManager.sol\":2975:2997  _fullList[i].toBytes() */\n      jump\t// in\n    tag_115:\n        /* \"PlasmaManager.sol\":2949:2997  bytes memory _signature = _fullList[i].toBytes() */\n      swap1\n      pop\n        /* \"PlasmaManager.sol\":3007:3020  bool _success */\n      0x00\n        /* \"PlasmaManager.sol\":3022:3037  address _signer */\n      dup1\n        /* \"PlasmaManager.sol\":3041:3081  ECVerify.ecrecovery(_digest, _signature) */\n      tag_118\n        /* \"PlasmaManager.sol\":3061:3068  _digest */\n      dup7\n        /* \"PlasmaManager.sol\":3070:3080  _signature */\n      dup5\n        /* \"PlasmaManager.sol\":3041:3060  ECVerify.ecrecovery */\n      tag_119\n        /* \"PlasmaManager.sol\":3041:3081  ECVerify.ecrecovery(_digest, _signature) */\n      jump\t// in\n    tag_118:\n        /* \"PlasmaManager.sol\":3006:3081  (bool _success, address _signer) = ECVerify.ecrecovery(_digest, _signature) */\n      swap2\n      pop\n      swap2\n      pop\n        /* \"PlasmaManager.sol\":3098:3106  _success */\n      dup2\n        /* \"PlasmaManager.sol\":3090:3135  require(_success, 'ecrecover should success') */\n      tag_120\n      jumpi\n      mload(0x40)\n      0x08c379a000000000000000000000000000000000000000000000000000000000\n      dup2\n      mstore\n      0x04\n      add\n      dup1\n      dup1\n      0x20\n      add\n      dup3\n      dup2\n      sub\n      dup3\n      mstore\n      0x18\n      dup2\n      mstore\n      0x20\n      add\n      dup1\n      0x65637265636f7665722073686f756c6420737563636573730000000000000000\n      dup2\n      mstore\n      pop\n      0x20\n      add\n      swap2\n      pop\n      pop\n      mload(0x40)\n      dup1\n      swap2\n      sub\n      swap1\n      revert\n    tag_120:\n        /* \"PlasmaManager.sol\":3147:3158  isValidator */\n      0x01\n        /* \"PlasmaManager.sol\":3147:3167  isValidator[_signer] */\n      0x00\n        /* \"PlasmaManager.sol\":3159:3166  _signer */\n      dup3\n        /* \"PlasmaManager.sol\":3147:3167  isValidator[_signer] */\n      0xffffffffffffffffffffffffffffffffffffffff\n      and\n      0xffffffffffffffffffffffffffffffffffffffff\n      and\n      dup2\n      mstore\n      0x20\n      add\n      swap1\n      dup2\n      mstore\n      0x20\n      add\n      0x00\n      keccak256\n      0x00\n      swap1\n      sload\n      swap1\n      0x0100\n      exp\n      swap1\n      div\n      0xff\n      and\n        /* \"PlasmaManager.sol\":3144:3195  if(isValidator[_signer]) _numberOfValidSignatures++ */\n      iszero\n      tag_121\n      jumpi\n        /* \"PlasmaManager.sol\":3169:3195  _numberOfValidSignatures++ */\n      dup5\n      dup1\n      0x01\n      add\n      swap6\n      pop\n      pop\n        /* \"PlasmaManager.sol\":3144:3195  if(isValidator[_signer]) _numberOfValidSignatures++ */\n    tag_121:\n        /* \"PlasmaManager.sol\":2895:3202  for(uint256 i = 1; i < _fullList.length; i++) {... */\n      pop\n      pop\n      pop\n        /* \"PlasmaManager.sol\":2936:2939  i++ */\n      dup1\n      dup1\n      0x01\n      add\n      swap2\n      pop\n      pop\n        /* \"PlasmaManager.sol\":2895:3202  for(uint256 i = 1; i < _fullList.length; i++) {... */\n      jump(tag_112)\n    tag_113:\n      pop\n        /* \"PlasmaManager.sol\":3269:3272  100 */\n      0x64\n        /* \"PlasmaManager.sol\":3264:3266  66 */\n      0x42\n        /* \"PlasmaManager.sol\":3243:3261  numberOfValidators */\n      sload(0x00)\n        /* \"PlasmaManager.sol\":3243:3266  numberOfValidators * 66 */\n      mul\n        /* \"PlasmaManager.sol\":3243:3272  numberOfValidators * 66 / 100 */\n      dup2\n      tag_122\n      jumpi\n      invalid\n    tag_122:\n      div\n        /* \"PlasmaManager.sol\":3216:3240  _numberOfValidSignatures */\n      dup2\n        /* \"PlasmaManager.sol\":3216:3272  _numberOfValidSignatures > numberOfValidators * 66 / 100 */\n      gt\n        /* \"PlasmaManager.sol\":3208:3303  require(_numberOfValidSignatures > numberOfValidators * 66 / 100, '66% validators should sign') */\n      tag_123\n      jumpi\n      mload(0x40)\n      0x08c379a000000000000000000000000000000000000000000000000000000000\n      dup2\n      mstore\n      0x04\n      add\n      dup1\n      dup1\n      0x20\n      add\n      dup3\n      dup2\n      sub\n      dup3\n      mstore\n      0x1a\n      dup2\n      mstore\n      0x20\n      add\n      dup1\n      0x3636252076616c696461746f72732073686f756c64207369676e000000000000\n      dup2\n      mstore\n      pop\n      0x20\n      add\n      swap2\n      pop\n      pop\n      mload(0x40)\n      dup1\n      swap2\n      sub\n      swap1\n      revert\n    tag_123:\n        /* \"PlasmaManager.sol\":3310:3329  uint256 _bunchIndex */\n      0x00\n        /* \"PlasmaManager.sol\":3332:3339  bunches */\n      0x05\n        /* \"PlasmaManager.sol\":3332:3346  bunches.length */\n      dup1\n      sload\n      swap1\n      pop\n        /* \"PlasmaManager.sol\":3310:3346  uint256 _bunchIndex = bunches.length */\n      swap1\n      pop\n        /* \"PlasmaManager.sol\":3353:3360  bunches */\n      0x05\n        /* \"PlasmaManager.sol\":3366:3378  _bunchHeader */\n      dup6\n        /* \"PlasmaManager.sol\":3353:3379  bunches.push(_bunchHeader) */\n      swap1\n      dup1\n        /* \"--CODEGEN--\":39:40   */\n      0x01\n        /* \"--CODEGEN--\":33:36   */\n      dup2\n        /* \"--CODEGEN--\":27:37   */\n      sload\n        /* \"--CODEGEN--\":23:41   */\n      add\n        /* \"--CODEGEN--\":57:67   */\n      dup1\n        /* \"--CODEGEN--\":52:55   */\n      dup3\n        /* \"--CODEGEN--\":45:68   */\n      sstore\n        /* \"--CODEGEN--\":79:89   */\n      dup1\n        /* \"--CODEGEN--\":72:89   */\n      swap2\n      pop\n        /* \"--CODEGEN--\":0:93   */\n      pop\n        /* \"PlasmaManager.sol\":3353:3379  bunches.push(_bunchHeader) */\n      0x01\n      swap1\n      sub\n      swap1\n      0x00\n      mstore\n      keccak256(0x00, 0x20)\n      swap1\n      0x04\n      mul\n      add\n      0x00\n      swap1\n      swap2\n      swap1\n      swap2\n      swap1\n      swap2\n      pop\n      0x00\n      dup3\n      add\n      mload\n      dup2\n      0x00\n      add\n      sstore\n      0x20\n      dup3\n      add\n      mload\n      dup2\n      0x01\n      add\n      sstore\n      0x40\n      dup3\n      add\n      mload\n      dup2\n      0x02\n      add\n      sstore\n      0x60\n      dup3\n      add\n      mload\n      dup2\n      0x03\n      add\n      sstore\n      pop\n      pop\n        /* \"PlasmaManager.sol\":3391:3474  NewBunchHeader(_bunchHeader.startBlockNumber, _bunchHeader.bunchDepth, _bunchIndex) */\n      0x435520ea9b14c682112acef5bc8466234d75b18dce73c44a78d905139def419d\n        /* \"PlasmaManager.sol\":3406:3418  _bunchHeader */\n      dup6\n        /* \"PlasmaManager.sol\":3406:3435  _bunchHeader.startBlockNumber */\n      0x00\n      add\n      mload\n        /* \"PlasmaManager.sol\":3437:3449  _bunchHeader */\n      dup7\n        /* \"PlasmaManager.sol\":3437:3460  _bunchHeader.bunchDepth */\n      0x20\n      add\n      mload\n        /* \"PlasmaManager.sol\":3462:3473  _bunchIndex */\n      dup4\n        /* \"PlasmaManager.sol\":3391:3474  NewBunchHeader(_bunchHeader.startBlockNumber, _bunchHeader.bunchDepth, _bunchIndex) */\n      mload(0x40)\n      dup1\n      dup5\n      dup2\n      mstore\n      0x20\n      add\n      dup4\n      dup2\n      mstore\n      0x20\n      add\n      dup3\n      dup2\n      mstore\n      0x20\n      add\n      swap4\n      pop\n      pop\n      pop\n      pop\n      mload(0x40)\n      dup1\n      swap2\n      sub\n      swap1\n      log1\n        /* \"PlasmaManager.sol\":1984:3479  function submitBunchHeader(bytes memory _signedHeader) public {... */\n      pop\n      pop\n      pop\n      pop\n      pop\n      pop\n      pop\n      pop\n      jump\t// out\n        /* \"PlasmaManager.sol\":1866:1980  function setESNDepositAddress(address _esnDepositAddress) public {... */\n    tag_41:\n        /* \"PlasmaManager.sol\":1957:1975  _esnDepositAddress */\n      dup1\n        /* \"PlasmaManager.sol\":1937:1954  esnDepositAddress */\n      0x07\n      0x00\n        /* \"PlasmaManager.sol\":1937:1975  esnDepositAddress = _esnDepositAddress */\n      0x0100\n      exp\n      dup2\n      sload\n      dup2\n      0xffffffffffffffffffffffffffffffffffffffff\n      mul\n      not\n      and\n      swap1\n      dup4\n      0xffffffffffffffffffffffffffffffffffffffff\n      and\n      mul\n      or\n      swap1\n      sstore\n      pop\n        /* \"PlasmaManager.sol\":1866:1980  function setESNDepositAddress(address _esnDepositAddress) public {... */\n      pop\n      jump\t// out\n        /* \"PlasmaManager.sol\":653:705  mapping(bytes32 => bool) public processedWithdrawals */\n    tag_44:\n      mstore(0x20, 0x02)\n      dup1\n      0x00\n      mstore\n      keccak256(0x00, 0x40)\n      0x00\n      swap2\n      pop\n      sload\n      swap1\n      0x0100\n      exp\n      swap1\n      div\n      0xff\n      and\n      dup2\n      jump\t// out\n        /* \"PlasmaManager.sol\":3483:4971  function claimWithdrawal(... */\n    tag_50:\n        /* \"PlasmaManager.sol\":3564:3598  RLP.RLPItem[] memory _decodedProof */\n      0x60\n        /* \"PlasmaManager.sol\":3601:3642  _rawTransactionProof.toRLPItem().toList() */\n      tag_127\n        /* \"PlasmaManager.sol\":3601:3633  _rawTransactionProof.toRLPItem() */\n      tag_128\n        /* \"PlasmaManager.sol\":3601:3621  _rawTransactionProof */\n      dup4\n        /* \"PlasmaManager.sol\":3601:3631  _rawTransactionProof.toRLPItem */\n      tag_78\n        /* \"PlasmaManager.sol\":3601:3633  _rawTransactionProof.toRLPItem() */\n      jump\t// in\n    tag_128:\n        /* \"PlasmaManager.sol\":3601:3640  _rawTransactionProof.toRLPItem().toList */\n      tag_79\n        /* \"PlasmaManager.sol\":3601:3642  _rawTransactionProof.toRLPItem().toList() */\n      jump\t// in\n    tag_127:\n        /* \"PlasmaManager.sol\":3564:3642  RLP.RLPItem[] memory _decodedProof = _rawTransactionProof.toRLPItem().toList() */\n      swap1\n      pop\n        /* \"PlasmaManager.sol\":3649:3668  uint256 _bunchIndex */\n      0x00\n        /* \"PlasmaManager.sol\":3671:3696  _decodedProof[0].toUint() */\n      tag_129\n        /* \"PlasmaManager.sol\":3671:3684  _decodedProof */\n      dup3\n        /* \"PlasmaManager.sol\":3685:3686  0 */\n      0x00\n        /* \"PlasmaManager.sol\":3671:3687  _decodedProof[0] */\n      dup2\n      mload\n      dup2\n      lt\n      tag_130\n      jumpi\n      invalid\n    tag_130:\n      0x20\n      mul\n      0x20\n      add\n      add\n      mload\n        /* \"PlasmaManager.sol\":3671:3694  _decodedProof[0].toUint */\n      tag_87\n        /* \"PlasmaManager.sol\":3671:3696  _decodedProof[0].toUint() */\n      jump\t// in\n    tag_129:\n        /* \"PlasmaManager.sol\":3649:3696  uint256 _bunchIndex = _decodedProof[0].toUint() */\n      swap1\n      pop\n        /* \"PlasmaManager.sol\":3702:3722  uint256 _blockNumber */\n      0x00\n        /* \"PlasmaManager.sol\":3725:3750  _decodedProof[1].toUint() */\n      tag_131\n        /* \"PlasmaManager.sol\":3725:3738  _decodedProof */\n      dup4\n        /* \"PlasmaManager.sol\":3739:3740  1 */\n      0x01\n        /* \"PlasmaManager.sol\":3725:3741  _decodedProof[1] */\n      dup2\n      mload\n      dup2\n      lt\n      tag_132\n      jumpi\n      invalid\n    tag_132:\n      0x20\n      mul\n      0x20\n      add\n      add\n      mload\n        /* \"PlasmaManager.sol\":3725:3748  _decodedProof[1].toUint */\n      tag_87\n        /* \"PlasmaManager.sol\":3725:3750  _decodedProof[1].toUint() */\n      jump\t// in\n    tag_131:\n        /* \"PlasmaManager.sol\":3702:3750  uint256 _blockNumber = _decodedProof[1].toUint() */\n      swap1\n      pop\n        /* \"PlasmaManager.sol\":3756:3787  bytes memory _blockInBunchProof */\n      0x60\n        /* \"PlasmaManager.sol\":3790:3816  _decodedProof[2].toBytes() */\n      tag_133\n        /* \"PlasmaManager.sol\":3790:3803  _decodedProof */\n      dup5\n        /* \"PlasmaManager.sol\":3804:3805  2 */\n      0x02\n        /* \"PlasmaManager.sol\":3790:3806  _decodedProof[2] */\n      dup2\n      mload\n      dup2\n      lt\n      tag_134\n      jumpi\n      invalid\n    tag_134:\n      0x20\n      mul\n      0x20\n      add\n      add\n      mload\n        /* \"PlasmaManager.sol\":3790:3814  _decodedProof[2].toBytes */\n      tag_117\n        /* \"PlasmaManager.sol\":3790:3816  _decodedProof[2].toBytes() */\n      jump\t// in\n    tag_133:\n        /* \"PlasmaManager.sol\":3756:3816  bytes memory _blockInBunchProof = _decodedProof[2].toBytes() */\n      swap1\n      pop\n        /* \"PlasmaManager.sol\":3822:3837  bytes32 _txRoot */\n      0x00\n        /* \"PlasmaManager.sol\":3840:3868  _decodedProof[3].toBytes32() */\n      tag_135\n        /* \"PlasmaManager.sol\":3840:3853  _decodedProof */\n      dup6\n        /* \"PlasmaManager.sol\":3854:3855  3 */\n      0x03\n        /* \"PlasmaManager.sol\":3840:3856  _decodedProof[3] */\n      dup2\n      mload\n      dup2\n      lt\n      tag_136\n      jumpi\n      invalid\n    tag_136:\n      0x20\n      mul\n      0x20\n      add\n      add\n      mload\n        /* \"PlasmaManager.sol\":3840:3866  _decodedProof[3].toBytes32 */\n      tag_92\n        /* \"PlasmaManager.sol\":3840:3868  _decodedProof[3].toBytes32() */\n      jump\t// in\n    tag_135:\n        /* \"PlasmaManager.sol\":3822:3868  bytes32 _txRoot = _decodedProof[3].toBytes32() */\n      swap1\n      pop\n        /* \"PlasmaManager.sol\":3874:3893  bytes memory _rawTx */\n      0x60\n        /* \"PlasmaManager.sol\":3896:3922  _decodedProof[4].toBytes() */\n      tag_137\n        /* \"PlasmaManager.sol\":3896:3909  _decodedProof */\n      dup7\n        /* \"PlasmaManager.sol\":3910:3911  4 */\n      0x04\n        /* \"PlasmaManager.sol\":3896:3912  _decodedProof[4] */\n      dup2\n      mload\n      dup2\n      lt\n      tag_138\n      jumpi\n      invalid\n    tag_138:\n      0x20\n      mul\n      0x20\n      add\n      add\n      mload\n        /* \"PlasmaManager.sol\":3896:3920  _decodedProof[4].toBytes */\n      tag_117\n        /* \"PlasmaManager.sol\":3896:3922  _decodedProof[4].toBytes() */\n      jump\t// in\n    tag_137:\n        /* \"PlasmaManager.sol\":3874:3922  bytes memory _rawTx = _decodedProof[4].toBytes() */\n      swap1\n      pop\n        /* \"PlasmaManager.sol\":3928:3949  bytes memory _txIndex */\n      0x60\n        /* \"PlasmaManager.sol\":3952:3978  _decodedProof[5].toBytes() */\n      tag_139\n        /* \"PlasmaManager.sol\":3952:3965  _decodedProof */\n      dup8\n        /* \"PlasmaManager.sol\":3966:3967  5 */\n      0x05\n        /* \"PlasmaManager.sol\":3952:3968  _decodedProof[5] */\n      dup2\n      mload\n      dup2\n      lt\n      tag_140\n      jumpi\n      invalid\n    tag_140:\n      0x20\n      mul\n      0x20\n      add\n      add\n      mload\n        /* \"PlasmaManager.sol\":3952:3976  _decodedProof[5].toBytes */\n      tag_117\n        /* \"PlasmaManager.sol\":3952:3978  _decodedProof[5].toBytes() */\n      jump\t// in\n    tag_139:\n        /* \"PlasmaManager.sol\":3928:3978  bytes memory _txIndex = _decodedProof[5].toBytes() */\n      swap1\n      pop\n        /* \"PlasmaManager.sol\":3984:4012  bytes memory _txInBlockProof */\n      0x60\n        /* \"PlasmaManager.sol\":4015:4041  _decodedProof[6].toBytes() */\n      tag_141\n        /* \"PlasmaManager.sol\":4015:4028  _decodedProof */\n      dup9\n        /* \"PlasmaManager.sol\":4029:4030  6 */\n      0x06\n        /* \"PlasmaManager.sol\":4015:4031  _decodedProof[6] */\n      dup2\n      mload\n      dup2\n      lt\n      tag_142\n      jumpi\n      invalid\n    tag_142:\n      0x20\n      mul\n      0x20\n      add\n      add\n      mload\n        /* \"PlasmaManager.sol\":4015:4039  _decodedProof[6].toBytes */\n      tag_117\n        /* \"PlasmaManager.sol\":4015:4041  _decodedProof[6].toBytes() */\n      jump\t// in\n    tag_141:\n        /* \"PlasmaManager.sol\":3984:4041  bytes memory _txInBlockProof = _decodedProof[6].toBytes() */\n      swap1\n      pop\n        /* \"PlasmaManager.sol\":4048:4063  bytes32 _txHash */\n      0x00\n        /* \"PlasmaManager.sol\":4076:4082  _rawTx */\n      dup4\n        /* \"PlasmaManager.sol\":4066:4083  keccak256(_rawTx) */\n      dup1\n      mload\n      swap1\n      0x20\n      add\n      keccak256\n        /* \"PlasmaManager.sol\":4048:4083  bytes32 _txHash = keccak256(_rawTx) */\n      swap1\n      pop\n        /* \"PlasmaManager.sol\":4106:4126  processedWithdrawals */\n      0x02\n        /* \"PlasmaManager.sol\":4106:4135  processedWithdrawals[_txHash] */\n      0x00\n        /* \"PlasmaManager.sol\":4127:4134  _txHash */\n      dup3\n        /* \"PlasmaManager.sol\":4106:4135  processedWithdrawals[_txHash] */\n      dup2\n      mstore\n      0x20\n      add\n      swap1\n      dup2\n      mstore\n      0x20\n      add\n      0x00\n      keccak256\n      0x00\n      swap1\n      sload\n      swap1\n      0x0100\n      exp\n      swap1\n      div\n      0xff\n      and\n        /* \"PlasmaManager.sol\":4105:4135  !processedWithdrawals[_txHash] */\n      iszero\n        /* \"PlasmaManager.sol\":4090:4200  require(... */\n      tag_143\n      jumpi\n      mload(0x40)\n      0x08c379a000000000000000000000000000000000000000000000000000000000\n      dup2\n      mstore\n      0x04\n      add\n      dup1\n      dup1\n      0x20\n      add\n      dup3\n      dup2\n      sub\n      dup3\n      mstore\n      0x31\n      dup2\n      mstore\n      0x20\n      add\n      dup1\n      data_fc13d223b0e89774a393f7fd3fe2b806585769765211db5908a5476ec6dfd9e8\n      0x31\n      swap2\n      codecopy\n      0x40\n      add\n      swap2\n      pop\n      pop\n      mload(0x40)\n      dup1\n      swap2\n      sub\n      swap1\n      revert\n    tag_143:\n        /* \"PlasmaManager.sol\":4222:4292  MerklePatriciaProof.verify(_rawTx, _txIndex, _txInBlockProof, _txRoot) */\n      tag_144\n        /* \"PlasmaManager.sol\":4249:4255  _rawTx */\n      dup5\n        /* \"PlasmaManager.sol\":4257:4265  _txIndex */\n      dup5\n        /* \"PlasmaManager.sol\":4267:4282  _txInBlockProof */\n      dup5\n        /* \"PlasmaManager.sol\":4284:4291  _txRoot */\n      dup9\n        /* \"PlasmaManager.sol\":4222:4248  MerklePatriciaProof.verify */\n      tag_145\n        /* \"PlasmaManager.sol\":4222:4292  MerklePatriciaProof.verify(_rawTx, _txIndex, _txInBlockProof, _txRoot) */\n      jump\t// in\n    tag_144:\n        /* \"PlasmaManager.sol\":4207:4330  require(... */\n      tag_146\n      jumpi\n      mload(0x40)\n      0x08c379a000000000000000000000000000000000000000000000000000000000\n      dup2\n      mstore\n      0x04\n      add\n      dup1\n      dup1\n      0x20\n      add\n      dup3\n      dup2\n      sub\n      dup3\n      mstore\n      0x16\n      dup2\n      mstore\n      0x20\n      add\n      dup1\n      0x496e76616c69642050617472696369612050726f6f6600000000000000000000\n      dup2\n      mstore\n      pop\n      0x20\n      add\n      swap2\n      pop\n      pop\n      mload(0x40)\n      dup1\n      swap2\n      sub\n      swap1\n      revert\n    tag_146:\n        /* \"PlasmaManager.sol\":4396:4593  Merkle.verify(... */\n      tag_147\n        /* \"PlasmaManager.sol\":4419:4426  _txRoot */\n      dup6\n        /* \"PlasmaManager.sol\":4469:4476  bunches */\n      0x05\n        /* \"PlasmaManager.sol\":4477:4488  _bunchIndex */\n      dup11\n        /* \"PlasmaManager.sol\":4469:4489  bunches[_bunchIndex] */\n      dup2\n      sload\n      dup2\n      lt\n      tag_148\n      jumpi\n      invalid\n    tag_148:\n      swap1\n      0x00\n      mstore\n      keccak256(0x00, 0x20)\n      swap1\n      0x04\n      mul\n      add\n        /* \"PlasmaManager.sol\":4469:4506  bunches[_bunchIndex].startBlockNumber */\n      0x00\n      add\n      sload\n        /* \"PlasmaManager.sol\":4454:4466  _blockNumber */\n      dup10\n        /* \"PlasmaManager.sol\":4454:4506  _blockNumber - bunches[_bunchIndex].startBlockNumber */\n      sub\n        /* \"PlasmaManager.sol\":4516:4523  bunches */\n      0x05\n        /* \"PlasmaManager.sol\":4524:4535  _bunchIndex */\n      dup12\n        /* \"PlasmaManager.sol\":4516:4536  bunches[_bunchIndex] */\n      dup2\n      sload\n      dup2\n      lt\n      tag_150\n      jumpi\n      invalid\n    tag_150:\n      swap1\n      0x00\n      mstore\n      keccak256(0x00, 0x20)\n      swap1\n      0x04\n      mul\n      add\n        /* \"PlasmaManager.sol\":4516:4557  bunches[_bunchIndex].transactionsMegaRoot */\n      0x02\n      add\n      sload\n        /* \"PlasmaManager.sol\":4567:4585  _blockInBunchProof */\n      dup10\n        /* \"PlasmaManager.sol\":4396:4409  Merkle.verify */\n      tag_152\n        /* \"PlasmaManager.sol\":4396:4593  Merkle.verify(... */\n      jump\t// in\n    tag_147:\n        /* \"PlasmaManager.sol\":4381:4630  require(... */\n      tag_153\n      jumpi\n      mload(0x40)\n      0x08c379a000000000000000000000000000000000000000000000000000000000\n      dup2\n      mstore\n      0x04\n      add\n      dup1\n      dup1\n      0x20\n      add\n      dup3\n      dup2\n      sub\n      dup3\n      mstore\n      0x14\n      dup2\n      mstore\n      0x20\n      add\n      dup1\n      0x496e76616c6964204d65726b6c652050726f6f66000000000000000000000000\n      dup2\n      mstore\n      pop\n      0x20\n      add\n      swap2\n      pop\n      pop\n      mload(0x40)\n      dup1\n      swap2\n      sub\n      swap1\n      revert\n    tag_153:\n        /* \"PlasmaManager.sol\":4638:4653  address _signer */\n      0x00\n        /* \"PlasmaManager.sol\":4655:4666  address _to */\n      dup1\n        /* \"PlasmaManager.sol\":4668:4682  uint256 _value */\n      0x00\n        /* \"PlasmaManager.sol\":4688:4722  EthParser.parseTransaction(_rawTx) */\n      tag_154\n        /* \"PlasmaManager.sol\":4715:4721  _rawTx */\n      dup8\n        /* \"PlasmaManager.sol\":4688:4714  EthParser.parseTransaction */\n      tag_155\n        /* \"PlasmaManager.sol\":4688:4722  EthParser.parseTransaction(_rawTx) */\n      jump\t// in\n    tag_154:\n        /* \"PlasmaManager.sol\":4637:4722  (address _signer, address _to, uint256 _value, ) = EthParser.parseTransaction(_rawTx) */\n      pop\n      swap3\n      pop\n      swap3\n      pop\n      swap3\n      pop\n        /* \"PlasmaManager.sol\":4751:4768  esnDepositAddress */\n      0x07\n      0x00\n      swap1\n      sload\n      swap1\n      0x0100\n      exp\n      swap1\n      div\n      0xffffffffffffffffffffffffffffffffffffffff\n      and\n        /* \"PlasmaManager.sol\":4744:4768  _to == esnDepositAddress */\n      0xffffffffffffffffffffffffffffffffffffffff\n      and\n        /* \"PlasmaManager.sol\":4744:4747  _to */\n      dup3\n        /* \"PlasmaManager.sol\":4744:4768  _to == esnDepositAddress */\n      0xffffffffffffffffffffffffffffffffffffffff\n      and\n      eq\n        /* \"PlasmaManager.sol\":4729:4885  require(... */\n      tag_156\n      jumpi\n      mload(0x40)\n      0x08c379a000000000000000000000000000000000000000000000000000000000\n      dup2\n      mstore\n      0x04\n      add\n      dup1\n      dup1\n      0x20\n      add\n      dup3\n      dup2\n      sub\n      dup3\n      mstore\n      0x2e\n      dup2\n      mstore\n      0x20\n      add\n      dup1\n      data_077781bc781d69c18b16708e32a7859fb69c8510a105056868d84c2c5ba1f85f\n      0x2e\n      swap2\n      codecopy\n      0x40\n      add\n      swap2\n      pop\n      pop\n      mload(0x40)\n      dup1\n      swap2\n      sub\n      swap1\n      revert\n    tag_156:\n        /* \"PlasmaManager.sol\":4924:4928  true */\n      0x01\n        /* \"PlasmaManager.sol\":4892:4912  processedWithdrawals */\n      0x02\n        /* \"PlasmaManager.sol\":4892:4921  processedWithdrawals[_txHash] */\n      0x00\n        /* \"PlasmaManager.sol\":4913:4920  _txHash */\n      dup7\n        /* \"PlasmaManager.sol\":4892:4921  processedWithdrawals[_txHash] */\n      dup2\n      mstore\n      0x20\n      add\n      swap1\n      dup2\n      mstore\n      0x20\n      add\n      0x00\n      keccak256\n      0x00\n        /* \"PlasmaManager.sol\":4892:4928  processedWithdrawals[_txHash] = true */\n      0x0100\n      exp\n      dup2\n      sload\n      dup2\n      0xff\n      mul\n      not\n      and\n      swap1\n      dup4\n      iszero\n      iszero\n      mul\n      or\n      swap1\n      sstore\n      pop\n        /* \"PlasmaManager.sol\":4935:4940  token */\n      0x06\n      0x00\n      swap1\n      sload\n      swap1\n      0x0100\n      exp\n      swap1\n      div\n      0xffffffffffffffffffffffffffffffffffffffff\n      and\n        /* \"PlasmaManager.sol\":4935:4949  token.transfer */\n      0xffffffffffffffffffffffffffffffffffffffff\n      and\n      0xa9059cbb\n        /* \"PlasmaManager.sol\":4950:4957  _signer */\n      dup5\n        /* \"PlasmaManager.sol\":4959:4965  _value */\n      dup4\n        /* \"PlasmaManager.sol\":4935:4966  token.transfer(_signer, _value) */\n      mload(0x40)\n      dup4\n      0xffffffff\n      and\n      0xe0\n      shl\n      dup2\n      mstore\n      0x04\n      add\n      dup1\n      dup4\n      0xffffffffffffffffffffffffffffffffffffffff\n      and\n      0xffffffffffffffffffffffffffffffffffffffff\n      and\n      dup2\n      mstore\n      0x20\n      add\n      dup3\n      dup2\n      mstore\n      0x20\n      add\n      swap3\n      pop\n      pop\n      pop\n      0x20\n      mload(0x40)\n      dup1\n      dup4\n      sub\n      dup2\n      0x00\n      dup8\n      dup1\n      extcodesize\n      iszero\n        /* \"--CODEGEN--\":5:14   */\n      dup1\n        /* \"--CODEGEN--\":2:4   */\n      iszero\n      tag_157\n      jumpi\n        /* \"--CODEGEN--\":27:28   */\n      0x00\n        /* \"--CODEGEN--\":24:25   */\n      dup1\n        /* \"--CODEGEN--\":17:29   */\n      revert\n        /* \"--CODEGEN--\":2:4   */\n    tag_157:\n        /* \"PlasmaManager.sol\":4935:4966  token.transfer(_signer, _value) */\n      pop\n      gas\n      call\n      iszero\n        /* \"--CODEGEN--\":8:17   */\n      dup1\n        /* \"--CODEGEN--\":5:7   */\n      iszero\n      tag_159\n      jumpi\n        /* \"--CODEGEN--\":45:61   */\n      returndatasize\n        /* \"--CODEGEN--\":42:43   */\n      0x00\n        /* \"--CODEGEN--\":39:40   */\n      dup1\n        /* \"--CODEGEN--\":24:62   */\n      returndatacopy\n        /* \"--CODEGEN--\":77:93   */\n      returndatasize\n        /* \"--CODEGEN--\":74:75   */\n      0x00\n        /* \"--CODEGEN--\":67:94   */\n      revert\n        /* \"--CODEGEN--\":5:7   */\n    tag_159:\n        /* \"PlasmaManager.sol\":4935:4966  token.transfer(_signer, _value) */\n      pop\n      pop\n      pop\n      pop\n      mload(0x40)\n      returndatasize\n        /* \"--CODEGEN--\":15:17   */\n      0x20\n        /* \"--CODEGEN--\":10:13   */\n      dup2\n        /* \"--CODEGEN--\":7:18   */\n      lt\n        /* \"--CODEGEN--\":4:6   */\n      iszero\n      tag_160\n      jumpi\n        /* \"--CODEGEN--\":31:32   */\n      0x00\n        /* \"--CODEGEN--\":28:29   */\n      dup1\n        /* \"--CODEGEN--\":21:33   */\n      revert\n        /* \"--CODEGEN--\":4:6   */\n    tag_160:\n        /* \"PlasmaManager.sol\":4935:4966  token.transfer(_signer, _value) */\n      dup2\n      add\n      swap1\n      dup1\n      dup1\n      mload\n      swap1\n      0x20\n      add\n      swap1\n      swap3\n      swap2\n      swap1\n      pop\n      pop\n      pop\n      pop\n        /* \"PlasmaManager.sol\":3483:4971  function claimWithdrawal(... */\n      pop\n      pop\n      pop\n      pop\n      pop\n      pop\n      pop\n      pop\n      pop\n      pop\n      pop\n      pop\n      pop\n      jump\t// out\n        /* \"PlasmaManager.sol\":1617:1706  function getAllSigners() public view returns (address[] memory) {... */\n    tag_52:\n        /* \"PlasmaManager.sol\":1663:1679  address[] memory */\n      0x60\n        /* \"PlasmaManager.sol\":1694:1701  signers */\n      0x04\n        /* \"PlasmaManager.sol\":1687:1701  return signers */\n      dup1\n      sload\n      dup1\n      0x20\n      mul\n      0x20\n      add\n      mload(0x40)\n      swap1\n      dup2\n      add\n      0x40\n      mstore\n      dup1\n      swap3\n      swap2\n      swap1\n      dup2\n      dup2\n      mstore\n      0x20\n      add\n      dup3\n      dup1\n      sload\n      dup1\n      iszero\n      tag_162\n      jumpi\n      0x20\n      mul\n      dup3\n      add\n      swap2\n      swap1\n      0x00\n      mstore\n      keccak256(0x00, 0x20)\n      swap1\n    tag_163:\n      dup2\n      0x00\n      swap1\n      sload\n      swap1\n      0x0100\n      exp\n      swap1\n      div\n      0xffffffffffffffffffffffffffffffffffffffff\n      and\n      0xffffffffffffffffffffffffffffffffffffffff\n      and\n      dup2\n      mstore\n      0x20\n      add\n      swap1\n      0x01\n      add\n      swap1\n      dup1\n      dup4\n      gt\n      tag_163\n      jumpi\n    tag_162:\n      pop\n      pop\n      pop\n      pop\n      pop\n      swap1\n      pop\n        /* \"PlasmaManager.sol\":1617:1706  function getAllSigners() public view returns (address[] memory) {... */\n      swap1\n      jump\t// out\n        /* \"PlasmaManager.sol\":569:602  uint256 public numberOfValidators */\n    tag_57:\n      sload(0x00)\n      dup2\n      jump\t// out\n        /* \"PlasmaManager.sol\":1518:1613  function getAllValidators() public view returns (address[] memory) {... */\n    tag_59:\n        /* \"PlasmaManager.sol\":1567:1583  address[] memory */\n      0x60\n        /* \"PlasmaManager.sol\":1598:1608  validators */\n      0x03\n        /* \"PlasmaManager.sol\":1591:1608  return validators */\n      dup1\n      sload\n      dup1\n      0x20\n      mul\n      0x20\n      add\n      mload(0x40)\n      swap1\n      dup2\n      add\n      0x40\n      mstore\n      dup1\n      swap3\n      swap2\n      swap1\n      dup2\n      dup2\n      mstore\n      0x20\n      add\n      dup3\n      dup1\n      sload\n      dup1\n      iszero\n      tag_165\n      jumpi\n      0x20\n      mul\n      dup3\n      add\n      swap2\n      swap1\n      0x00\n      mstore\n      keccak256(0x00, 0x20)\n      swap1\n    tag_166:\n      dup2\n      0x00\n      swap1\n      sload\n      swap1\n      0x0100\n      exp\n      swap1\n      div\n      0xffffffffffffffffffffffffffffffffffffffff\n      and\n      0xffffffffffffffffffffffffffffffffffffffff\n      and\n      dup2\n      mstore\n      0x20\n      add\n      swap1\n      0x01\n      add\n      swap1\n      dup1\n      dup4\n      gt\n      tag_166\n      jumpi\n    tag_165:\n      pop\n      pop\n      pop\n      pop\n      pop\n      swap1\n      pop\n        /* \"PlasmaManager.sol\":1518:1613  function getAllValidators() public view returns (address[] memory) {... */\n      swap1\n      jump\t// out\n        /* \"PlasmaManager.sol\":606:649  mapping(address => bool) public isValidator */\n    tag_65:\n      mstore(0x20, 0x01)\n      dup1\n      0x00\n      mstore\n      keccak256(0x00, 0x40)\n      0x00\n      swap2\n      pop\n      sload\n      swap1\n      0x0100\n      exp\n      swap1\n      div\n      0xff\n      and\n      dup2\n      jump\t// out\n        /* \"PlasmaManager.sol\":970:988  ERC20 public token */\n    tag_67:\n      0x06\n      0x00\n      swap1\n      sload\n      swap1\n      0x0100\n      exp\n      swap1\n      div\n      0xffffffffffffffffffffffffffffffffffffffff\n      and\n      dup2\n      jump\t// out\n        /* \"lib/RLP.sol\":1339:1533  function toRLPItem(bytes memory item) internal pure returns (RLPItem memory) {... */\n    tag_78:\n        /* \"lib/RLP.sol\":1400:1414  RLPItem memory */\n      tag_167\n      tag_168\n      jump\t// in\n    tag_167:\n        /* \"lib/RLP.sol\":1422:1433  uint memPtr */\n      0x00\n        /* \"lib/RLP.sol\":1476:1480  0x20 */\n      0x20\n        /* \"lib/RLP.sol\":1470:1474  item */\n      dup4\n        /* \"lib/RLP.sol\":1466:1481  add(item, 0x20) */\n      add\n        /* \"lib/RLP.sol\":1456:1481  memPtr := add(item, 0x20) */\n      swap1\n      pop\n        /* \"lib/RLP.sol\":1500:1528  RLPItem(item.length, memPtr) */\n      mload(0x40)\n      dup1\n      0x40\n      add\n      0x40\n      mstore\n      dup1\n        /* \"lib/RLP.sol\":1508:1512  item */\n      dup5\n        /* \"lib/RLP.sol\":1508:1519  item.length */\n      mload\n        /* \"lib/RLP.sol\":1500:1528  RLPItem(item.length, memPtr) */\n      dup2\n      mstore\n      0x20\n      add\n        /* \"lib/RLP.sol\":1521:1527  memPtr */\n      dup3\n        /* \"lib/RLP.sol\":1500:1528  RLPItem(item.length, memPtr) */\n      dup2\n      mstore\n      pop\n        /* \"lib/RLP.sol\":1493:1528  return RLPItem(item.length, memPtr) */\n      swap2\n      pop\n      pop\n        /* \"lib/RLP.sol\":1339:1533  function toRLPItem(bytes memory item) internal pure returns (RLPItem memory) {... */\n      swap2\n      swap1\n      pop\n      jump\t// out\n        /* \"lib/RLP.sol\":2250:2705  function toList(RLPItem memory item) internal pure returns (RLPItem[] memory) {... */\n    tag_79:\n        /* \"lib/RLP.sol\":2310:2326  RLPItem[] memory */\n      0x60\n        /* \"lib/RLP.sol\":2342:2354  isList(item) */\n      tag_171\n        /* \"lib/RLP.sol\":2349:2353  item */\n      dup3\n        /* \"lib/RLP.sol\":2342:2348  isList */\n      tag_172\n        /* \"lib/RLP.sol\":2342:2354  isList(item) */\n      jump\t// in\n    tag_171:\n        /* \"lib/RLP.sol\":2334:2355  require(isList(item)) */\n      tag_173\n      jumpi\n        /* \"--CODEGEN--\":12:13   */\n      0x00\n        /* \"--CODEGEN--\":9:10   */\n      dup1\n        /* \"--CODEGEN--\":2:14   */\n      revert\n        /* \"lib/RLP.sol\":2334:2355  require(isList(item)) */\n    tag_173:\n        /* \"lib/RLP.sol\":2362:2372  uint items */\n      0x00\n        /* \"lib/RLP.sol\":2375:2389  numItems(item) */\n      tag_174\n        /* \"lib/RLP.sol\":2384:2388  item */\n      dup4\n        /* \"lib/RLP.sol\":2375:2383  numItems */\n      tag_175\n        /* \"lib/RLP.sol\":2375:2389  numItems(item) */\n      jump\t// in\n    tag_174:\n        /* \"lib/RLP.sol\":2362:2389  uint items = numItems(item) */\n      swap1\n      pop\n        /* \"lib/RLP.sol\":2395:2418  RLPItem[] memory result */\n      0x60\n        /* \"lib/RLP.sol\":2435:2440  items */\n      dup2\n        /* \"lib/RLP.sol\":2421:2441  new RLPItem[](items) */\n      mload(0x40)\n      swap1\n      dup1\n      dup3\n      mstore\n      dup1\n      0x20\n      mul\n      0x20\n      add\n      dup3\n      add\n      0x40\n      mstore\n      dup1\n      iszero\n      tag_176\n      jumpi\n      dup2\n      0x20\n      add\n    tag_177:\n      tag_178\n      tag_179\n      jump\t// in\n    tag_178:\n      dup2\n      mstore\n      0x20\n      add\n      swap1\n      0x01\n      swap1\n      sub\n      swap1\n      dup2\n      tag_177\n      jumpi\n      swap1\n      pop\n    tag_176:\n      pop\n        /* \"lib/RLP.sol\":2395:2441  RLPItem[] memory result = new RLPItem[](items) */\n      swap1\n      pop\n        /* \"lib/RLP.sol\":2448:2459  uint memPtr */\n      0x00\n        /* \"lib/RLP.sol\":2476:2503  _payloadOffset(item.memPtr) */\n      tag_180\n        /* \"lib/RLP.sol\":2491:2495  item */\n      dup6\n        /* \"lib/RLP.sol\":2491:2502  item.memPtr */\n      0x20\n      add\n      mload\n        /* \"lib/RLP.sol\":2476:2490  _payloadOffset */\n      tag_181\n        /* \"lib/RLP.sol\":2476:2503  _payloadOffset(item.memPtr) */\n      jump\t// in\n    tag_180:\n        /* \"lib/RLP.sol\":2462:2466  item */\n      dup6\n        /* \"lib/RLP.sol\":2462:2473  item.memPtr */\n      0x20\n      add\n      mload\n        /* \"lib/RLP.sol\":2462:2503  item.memPtr + _payloadOffset(item.memPtr) */\n      add\n        /* \"lib/RLP.sol\":2448:2503  uint memPtr = item.memPtr + _payloadOffset(item.memPtr) */\n      swap1\n      pop\n        /* \"lib/RLP.sol\":2509:2521  uint dataLen */\n      0x00\n        /* \"lib/RLP.sol\":2532:2538  uint i */\n      dup1\n        /* \"lib/RLP.sol\":2541:2542  0 */\n      0x00\n        /* \"lib/RLP.sol\":2532:2542  uint i = 0 */\n      swap1\n      pop\n        /* \"lib/RLP.sol\":2527:2681  for (uint i = 0; i < items; i++) {... */\n    tag_182:\n        /* \"lib/RLP.sol\":2548:2553  items */\n      dup5\n        /* \"lib/RLP.sol\":2544:2545  i */\n      dup2\n        /* \"lib/RLP.sol\":2544:2553  i < items */\n      lt\n        /* \"lib/RLP.sol\":2527:2681  for (uint i = 0; i < items; i++) {... */\n      iszero\n      tag_183\n      jumpi\n        /* \"lib/RLP.sol\":2578:2597  _itemLength(memPtr) */\n      tag_185\n        /* \"lib/RLP.sol\":2590:2596  memPtr */\n      dup4\n        /* \"lib/RLP.sol\":2578:2589  _itemLength */\n      tag_186\n        /* \"lib/RLP.sol\":2578:2597  _itemLength(memPtr) */\n      jump\t// in\n    tag_185:\n        /* \"lib/RLP.sol\":2568:2597  dataLen = _itemLength(memPtr) */\n      swap2\n      pop\n        /* \"lib/RLP.sol\":2617:2641  RLPItem(dataLen, memPtr) */\n      mload(0x40)\n      dup1\n      0x40\n      add\n      0x40\n      mstore\n      dup1\n        /* \"lib/RLP.sol\":2625:2632  dataLen */\n      dup4\n        /* \"lib/RLP.sol\":2617:2641  RLPItem(dataLen, memPtr) */\n      dup2\n      mstore\n      0x20\n      add\n        /* \"lib/RLP.sol\":2634:2640  memPtr */\n      dup5\n        /* \"lib/RLP.sol\":2617:2641  RLPItem(dataLen, memPtr) */\n      dup2\n      mstore\n      pop\n        /* \"lib/RLP.sol\":2605:2611  result */\n      dup5\n        /* \"lib/RLP.sol\":2612:2613  i */\n      dup3\n        /* \"lib/RLP.sol\":2605:2614  result[i] */\n      dup2\n      mload\n      dup2\n      lt\n      tag_187\n      jumpi\n      invalid\n    tag_187:\n      0x20\n      mul\n      0x20\n      add\n      add\n        /* \"lib/RLP.sol\":2605:2641  result[i] = RLPItem(dataLen, memPtr) */\n      dup2\n      swap1\n      mstore\n      pop\n        /* \"lib/RLP.sol\":2667:2674  dataLen */\n      dup2\n        /* \"lib/RLP.sol\":2658:2664  memPtr */\n      dup4\n        /* \"lib/RLP.sol\":2658:2674  memPtr + dataLen */\n      add\n        /* \"lib/RLP.sol\":2649:2674  memPtr = memPtr + dataLen */\n      swap3\n      pop\n        /* \"lib/RLP.sol\":2555:2558  i++ */\n      dup1\n      dup1\n      0x01\n      add\n      swap2\n      pop\n      pop\n        /* \"lib/RLP.sol\":2527:2681  for (uint i = 0; i < items; i++) {... */\n      jump(tag_182)\n    tag_183:\n      pop\n        /* \"lib/RLP.sol\":2694:2700  result */\n      dup3\n        /* \"lib/RLP.sol\":2687:2700  return result */\n      swap5\n      pop\n      pop\n      pop\n      pop\n      pop\n        /* \"lib/RLP.sol\":2250:2705  function toList(RLPItem memory item) internal pure returns (RLPItem[] memory) {... */\n      swap2\n      swap1\n      pop\n      jump\t// out\n        /* \"lib/RLP.sol\":3956:4423  function toUint(RLPItem memory item) internal pure returns (uint) {... */\n    tag_87:\n        /* \"lib/RLP.sol\":4016:4020  uint */\n      0x00\n        /* \"lib/RLP.sol\":4047:4048  0 */\n      dup1\n        /* \"lib/RLP.sol\":4036:4040  item */\n      dup3\n        /* \"lib/RLP.sol\":4036:4044  item.len */\n      0x00\n      add\n      mload\n        /* \"lib/RLP.sol\":4036:4048  item.len > 0 */\n      gt\n        /* \"lib/RLP.sol\":4036:4066  item.len > 0 && item.len <= 33 */\n      dup1\n      iszero\n      tag_189\n      jumpi\n      pop\n        /* \"lib/RLP.sol\":4064:4066  33 */\n      0x21\n        /* \"lib/RLP.sol\":4052:4056  item */\n      dup3\n        /* \"lib/RLP.sol\":4052:4060  item.len */\n      0x00\n      add\n      mload\n        /* \"lib/RLP.sol\":4052:4066  item.len <= 33 */\n      gt\n      iszero\n        /* \"lib/RLP.sol\":4036:4066  item.len > 0 && item.len <= 33 */\n    tag_189:\n        /* \"lib/RLP.sol\":4028:4067  require(item.len > 0 && item.len <= 33) */\n      tag_190\n      jumpi\n        /* \"--CODEGEN--\":12:13   */\n      0x00\n        /* \"--CODEGEN--\":9:10   */\n      dup1\n        /* \"--CODEGEN--\":2:14   */\n      revert\n        /* \"lib/RLP.sol\":4028:4067  require(item.len > 0 && item.len <= 33) */\n    tag_190:\n        /* \"lib/RLP.sol\":4074:4085  uint offset */\n      0x00\n        /* \"lib/RLP.sol\":4088:4115  _payloadOffset(item.memPtr) */\n      tag_191\n        /* \"lib/RLP.sol\":4103:4107  item */\n      dup4\n        /* \"lib/RLP.sol\":4103:4114  item.memPtr */\n      0x20\n      add\n      mload\n        /* \"lib/RLP.sol\":4088:4102  _payloadOffset */\n      tag_181\n        /* \"lib/RLP.sol\":4088:4115  _payloadOffset(item.memPtr) */\n      jump\t// in\n    tag_191:\n        /* \"lib/RLP.sol\":4074:4115  uint offset = _payloadOffset(item.memPtr) */\n      swap1\n      pop\n        /* \"lib/RLP.sol\":4121:4129  uint len */\n      0x00\n        /* \"lib/RLP.sol\":4143:4149  offset */\n      dup2\n        /* \"lib/RLP.sol\":4132:4136  item */\n      dup5\n        /* \"lib/RLP.sol\":4132:4140  item.len */\n      0x00\n      add\n      mload\n        /* \"lib/RLP.sol\":4132:4149  item.len - offset */\n      sub\n        /* \"lib/RLP.sol\":4121:4149  uint len = item.len - offset */\n      swap1\n      pop\n        /* \"lib/RLP.sol\":4156:4167  uint result */\n      0x00\n        /* \"lib/RLP.sol\":4173:4184  uint memPtr */\n      dup1\n        /* \"lib/RLP.sol\":4201:4207  offset */\n      dup4\n        /* \"lib/RLP.sol\":4187:4191  item */\n      dup7\n        /* \"lib/RLP.sol\":4187:4198  item.memPtr */\n      0x20\n      add\n      mload\n        /* \"lib/RLP.sol\":4187:4207  item.memPtr + offset */\n      add\n        /* \"lib/RLP.sol\":4173:4207  uint memPtr = item.memPtr + offset */\n      swap1\n      pop\n        /* \"lib/RLP.sol\":4246:4252  memPtr */\n      dup1\n        /* \"lib/RLP.sol\":4240:4253  mload(memPtr) */\n      mload\n        /* \"lib/RLP.sol\":4230:4253  result := mload(memPtr) */\n      swap2\n      pop\n        /* \"lib/RLP.sol\":4324:4326  32 */\n      0x20\n        /* \"lib/RLP.sol\":4319:4322  len */\n      dup4\n        /* \"lib/RLP.sol\":4316:4327  lt(len, 32) */\n      lt\n        /* \"lib/RLP.sol\":4313:4315  if */\n      iszero\n      tag_192\n      jumpi\n        /* \"lib/RLP.sol\":4379:4382  len */\n      dup3\n        /* \"lib/RLP.sol\":4375:4377  32 */\n      0x20\n        /* \"lib/RLP.sol\":4371:4383  sub(32, len) */\n      sub\n        /* \"lib/RLP.sol\":4366:4369  256 */\n      0x0100\n        /* \"lib/RLP.sol\":4362:4384  exp(256, sub(32, len)) */\n      exp\n        /* \"lib/RLP.sol\":4354:4360  result */\n      dup3\n        /* \"lib/RLP.sol\":4350:4385  div(result, exp(256, sub(32, len))) */\n      div\n        /* \"lib/RLP.sol\":4340:4385  result := div(result, exp(256, sub(32, len))) */\n      swap2\n      pop\n        /* \"lib/RLP.sol\":4313:4315  if */\n    tag_192:\n        /* \"lib/RLP.sol\":4412:4418  result */\n      dup2\n        /* \"lib/RLP.sol\":4405:4418  return result */\n      swap5\n      pop\n      pop\n      pop\n      pop\n      pop\n        /* \"lib/RLP.sol\":3956:4423  function toUint(RLPItem memory item) internal pure returns (uint) {... */\n      swap2\n      swap1\n      pop\n      jump\t// out\n        /* \"lib/RLP.sol\":5998:6109  function toBytes32(RLPItem memory item) internal pure returns (bytes32) {... */\n    tag_92:\n        /* \"lib/RLP.sol\":6061:6068  bytes32 */\n      0x00\n        /* \"lib/RLP.sol\":6091:6103  toUint(item) */\n      tag_194\n        /* \"lib/RLP.sol\":6098:6102  item */\n      dup3\n        /* \"lib/RLP.sol\":6091:6097  toUint */\n      tag_87\n        /* \"lib/RLP.sol\":6091:6103  toUint(item) */\n      jump\t// in\n    tag_194:\n        /* \"lib/RLP.sol\":6083:6104  bytes32(toUint(item)) */\n      0x00\n      shl\n        /* \"lib/RLP.sol\":6076:6104  return bytes32(toUint(item)) */\n      swap1\n      pop\n        /* \"lib/RLP.sol\":5998:6109  function toBytes32(RLPItem memory item) internal pure returns (bytes32) {... */\n      swap2\n      swap1\n      pop\n      jump\t// out\n        /* \"PlasmaManager.sol\":4975:5185  function getNextStartBlockNumber() private view returns (uint256) {... */\n    tag_96:\n        /* \"PlasmaManager.sol\":5032:5039  uint256 */\n      0x00\n        /* \"PlasmaManager.sol\":5068:5069  0 */\n      dup1\n        /* \"PlasmaManager.sol\":5050:5057  bunches */\n      0x05\n        /* \"PlasmaManager.sol\":5050:5064  bunches.length */\n      dup1\n      sload\n      swap1\n      pop\n        /* \"PlasmaManager.sol\":5050:5069  bunches.length == 0 */\n      eq\n        /* \"PlasmaManager.sol\":5047:5079  if(bunches.length == 0) return 0 */\n      iszero\n      tag_196\n      jumpi\n        /* \"PlasmaManager.sol\":5078:5079  0 */\n      0x00\n        /* \"PlasmaManager.sol\":5071:5079  return 0 */\n      swap1\n      pop\n      jump(tag_195)\n        /* \"PlasmaManager.sol\":5047:5079  if(bunches.length == 0) return 0 */\n    tag_196:\n        /* \"PlasmaManager.sol\":5142:5149  bunches */\n      0x05\n        /* \"PlasmaManager.sol\":5167:5168  1 */\n      0x01\n        /* \"PlasmaManager.sol\":5150:5157  bunches */\n      0x05\n        /* \"PlasmaManager.sol\":5150:5164  bunches.length */\n      dup1\n      sload\n      swap1\n      pop\n        /* \"PlasmaManager.sol\":5150:5168  bunches.length - 1 */\n      sub\n        /* \"PlasmaManager.sol\":5142:5169  bunches[bunches.length - 1] */\n      dup2\n      sload\n      dup2\n      lt\n      tag_197\n      jumpi\n      invalid\n    tag_197:\n      swap1\n      0x00\n      mstore\n      keccak256(0x00, 0x20)\n      swap1\n      0x04\n      mul\n      add\n        /* \"PlasmaManager.sol\":5142:5180  bunches[bunches.length - 1].bunchDepth */\n      0x01\n      add\n      sload\n        /* \"PlasmaManager.sol\":5139:5140  2 */\n      0x02\n        /* \"PlasmaManager.sol\":5139:5180  2**bunches[bunches.length - 1].bunchDepth */\n      exp\n        /* \"PlasmaManager.sol\":5092:5099  bunches */\n      0x05\n        /* \"PlasmaManager.sol\":5117:5118  1 */\n      0x01\n        /* \"PlasmaManager.sol\":5100:5107  bunches */\n      0x05\n        /* \"PlasmaManager.sol\":5100:5114  bunches.length */\n      dup1\n      sload\n      swap1\n      pop\n        /* \"PlasmaManager.sol\":5100:5118  bunches.length - 1 */\n      sub\n        /* \"PlasmaManager.sol\":5092:5119  bunches[bunches.length - 1] */\n      dup2\n      sload\n      dup2\n      lt\n      tag_199\n      jumpi\n      invalid\n    tag_199:\n      swap1\n      0x00\n      mstore\n      keccak256(0x00, 0x20)\n      swap1\n      0x04\n      mul\n      add\n        /* \"PlasmaManager.sol\":5092:5136  bunches[bunches.length - 1].startBlockNumber */\n      0x00\n      add\n      sload\n        /* \"PlasmaManager.sol\":5092:5180  bunches[bunches.length - 1].startBlockNumber + 2**bunches[bunches.length - 1].bunchDepth */\n      add\n        /* \"PlasmaManager.sol\":5085:5180  return bunches[bunches.length - 1].startBlockNumber + 2**bunches[bunches.length - 1].bunchDepth */\n      swap1\n      pop\n        /* \"PlasmaManager.sol\":4975:5185  function getNextStartBlockNumber() private view returns (uint256) {... */\n    tag_195:\n      swap1\n      jump\t// out\n        /* \"lib/RLP.sol\":3177:3475  function toRLPBytes(RLPItem memory item) internal pure returns (bytes memory) {... */\n    tag_100:\n        /* \"lib/RLP.sol\":3241:3253  bytes memory */\n      0x60\n        /* \"lib/RLP.sol\":3261:3280  bytes memory result */\n      dup1\n        /* \"lib/RLP.sol\":3293:3297  item */\n      dup3\n        /* \"lib/RLP.sol\":3293:3301  item.len */\n      0x00\n      add\n      mload\n        /* \"lib/RLP.sol\":3283:3302  new bytes(item.len) */\n      mload(0x40)\n      swap1\n      dup1\n      dup3\n      mstore\n      dup1\n      0x1f\n      add\n      not(0x1f)\n      and\n      0x20\n      add\n      dup3\n      add\n      0x40\n      mstore\n      dup1\n      iszero\n      tag_202\n      jumpi\n      dup2\n      0x20\n      add\n        /* \"--CODEGEN--\":29:30   */\n      0x01\n        /* \"--CODEGEN--\":21:27   */\n      dup3\n        /* \"--CODEGEN--\":17:31   */\n      mul\n        /* \"--CODEGEN--\":124:128   */\n      dup1\n        /* \"--CODEGEN--\":108:122   */\n      calldatasize\n        /* \"--CODEGEN--\":100:106   */\n      dup4\n        /* \"--CODEGEN--\":87:129   */\n      calldatacopy\n        /* \"--CODEGEN--\":155:159   */\n      dup1\n        /* \"--CODEGEN--\":147:153   */\n      dup3\n        /* \"--CODEGEN--\":143:160   */\n      add\n        /* \"--CODEGEN--\":133:160   */\n      swap2\n      pop\n        /* \"--CODEGEN--\":0:164   */\n      pop\n        /* \"lib/RLP.sol\":3283:3302  new bytes(item.len) */\n      swap1\n      pop\n    tag_202:\n      pop\n        /* \"lib/RLP.sol\":3261:3302  bytes memory result = new bytes(item.len) */\n      swap1\n      pop\n        /* \"lib/RLP.sol\":3329:3330  0 */\n      0x00\n        /* \"lib/RLP.sol\":3312:3318  result */\n      dup2\n        /* \"lib/RLP.sol\":3312:3325  result.length */\n      mload\n        /* \"lib/RLP.sol\":3312:3330  result.length == 0 */\n      eq\n        /* \"lib/RLP.sol\":3308:3345  if (result.length == 0) return result */\n      iszero\n      tag_203\n      jumpi\n        /* \"lib/RLP.sol\":3339:3345  result */\n      dup1\n        /* \"lib/RLP.sol\":3332:3345  return result */\n      swap2\n      pop\n      pop\n      jump(tag_201)\n        /* \"lib/RLP.sol\":3308:3345  if (result.length == 0) return result */\n    tag_203:\n        /* \"lib/RLP.sol\":3352:3360  uint ptr */\n      0x00\n        /* \"lib/RLP.sol\":3400:3406  result */\n      dup2\n        /* \"lib/RLP.sol\":3394:3398  0x20 */\n      0x20\n        /* \"lib/RLP.sol\":3390:3407  add(0x20, result) */\n      add\n        /* \"lib/RLP.sol\":3383:3407  ptr := add(0x20, result) */\n      swap1\n      pop\n        /* \"lib/RLP.sol\":3419:3451  copy(item.memPtr, ptr, item.len) */\n      tag_204\n        /* \"lib/RLP.sol\":3424:3428  item */\n      dup5\n        /* \"lib/RLP.sol\":3424:3435  item.memPtr */\n      0x20\n      add\n      mload\n        /* \"lib/RLP.sol\":3437:3440  ptr */\n      dup3\n        /* \"lib/RLP.sol\":3442:3446  item */\n      dup7\n        /* \"lib/RLP.sol\":3442:3450  item.len */\n      0x00\n      add\n      mload\n        /* \"lib/RLP.sol\":3419:3423  copy */\n      tag_205\n        /* \"lib/RLP.sol\":3419:3451  copy(item.memPtr, ptr, item.len) */\n      jump\t// in\n    tag_204:\n        /* \"lib/RLP.sol\":3464:3470  result */\n      dup2\n        /* \"lib/RLP.sol\":3457:3470  return result */\n      swap3\n      pop\n      pop\n      pop\n        /* \"lib/RLP.sol\":3177:3475  function toRLPBytes(RLPItem memory item) internal pure returns (bytes memory) {... */\n    tag_201:\n      swap2\n      swap1\n      pop\n      jump\t// out\n        /* \"lib/BytesLib.sol\":8566:8963  function getBytesStr(uint i) internal pure returns (bytes memory) {... */\n    tag_102:\n        /* \"lib/BytesLib.sol\":8618:8630  bytes memory */\n      0x60\n        /* \"lib/BytesLib.sol\":8649:8650  0 */\n      0x00\n        /* \"lib/BytesLib.sol\":8644:8645  i */\n      dup3\n        /* \"lib/BytesLib.sol\":8644:8650  i == 0 */\n      eq\n        /* \"lib/BytesLib.sol\":8640:8681  if (i == 0) {... */\n      iszero\n      tag_207\n      jumpi\n        /* \"lib/BytesLib.sol\":8662:8672  return \"0\" */\n      mload(0x40)\n      dup1\n      0x40\n      add\n      0x40\n      mstore\n      dup1\n      0x01\n      dup2\n      mstore\n      0x20\n      add\n      0x3000000000000000000000000000000000000000000000000000000000000000\n      dup2\n      mstore\n      pop\n      swap1\n      pop\n      jump(tag_206)\n        /* \"lib/BytesLib.sol\":8640:8681  if (i == 0) {... */\n    tag_207:\n        /* \"lib/BytesLib.sol\":8688:8694  uint j */\n      0x00\n        /* \"lib/BytesLib.sol\":8697:8698  i */\n      dup3\n        /* \"lib/BytesLib.sol\":8688:8698  uint j = i */\n      swap1\n      pop\n        /* \"lib/BytesLib.sol\":8706:8714  uint len */\n      0x00\n        /* \"lib/BytesLib.sol\":8722:8778  while (j != 0) {... */\n    tag_208:\n        /* \"lib/BytesLib.sol\":8734:8735  0 */\n      0x00\n        /* \"lib/BytesLib.sol\":8729:8730  j */\n      dup3\n        /* \"lib/BytesLib.sol\":8729:8735  j != 0 */\n      eq\n        /* \"lib/BytesLib.sol\":8722:8778  while (j != 0) {... */\n      tag_209\n      jumpi\n        /* \"lib/BytesLib.sol\":8747:8752  len++ */\n      dup1\n      dup1\n      0x01\n      add\n      swap2\n      pop\n      pop\n        /* \"lib/BytesLib.sol\":8767:8769  10 */\n      0x0a\n        /* \"lib/BytesLib.sol\":8762:8769  j /= 10 */\n      dup3\n      dup2\n      tag_210\n      jumpi\n      invalid\n    tag_210:\n      div\n      swap2\n      pop\n        /* \"lib/BytesLib.sol\":8722:8778  while (j != 0) {... */\n      jump(tag_208)\n    tag_209:\n        /* \"lib/BytesLib.sol\":8785:8802  bytes memory bstr */\n      0x60\n        /* \"lib/BytesLib.sol\":8815:8818  len */\n      dup2\n        /* \"lib/BytesLib.sol\":8805:8819  new bytes(len) */\n      mload(0x40)\n      swap1\n      dup1\n      dup3\n      mstore\n      dup1\n      0x1f\n      add\n      not(0x1f)\n      and\n      0x20\n      add\n      dup3\n      add\n      0x40\n      mstore\n      dup1\n      iszero\n      tag_211\n      jumpi\n      dup2\n      0x20\n      add\n        /* \"--CODEGEN--\":29:30   */\n      0x01\n        /* \"--CODEGEN--\":21:27   */\n      dup3\n        /* \"--CODEGEN--\":17:31   */\n      mul\n        /* \"--CODEGEN--\":124:128   */\n      dup1\n        /* \"--CODEGEN--\":108:122   */\n      calldatasize\n        /* \"--CODEGEN--\":100:106   */\n      dup4\n        /* \"--CODEGEN--\":87:129   */\n      calldatacopy\n        /* \"--CODEGEN--\":155:159   */\n      dup1\n        /* \"--CODEGEN--\":147:153   */\n      dup3\n        /* \"--CODEGEN--\":143:160   */\n      add\n        /* \"--CODEGEN--\":133:160   */\n      swap2\n      pop\n        /* \"--CODEGEN--\":0:164   */\n      pop\n        /* \"lib/BytesLib.sol\":8805:8819  new bytes(len) */\n      swap1\n      pop\n    tag_211:\n      pop\n        /* \"lib/BytesLib.sol\":8785:8819  bytes memory bstr = new bytes(len) */\n      swap1\n      pop\n        /* \"lib/BytesLib.sol\":8827:8833  uint k */\n      0x00\n        /* \"lib/BytesLib.sol\":8842:8843  1 */\n      0x01\n        /* \"lib/BytesLib.sol\":8836:8839  len */\n      dup4\n        /* \"lib/BytesLib.sol\":8836:8843  len - 1 */\n      sub\n        /* \"lib/BytesLib.sol\":8827:8843  uint k = len - 1 */\n      swap1\n      pop\n        /* \"lib/BytesLib.sol\":8851:8938  while (i != 0) {... */\n    tag_212:\n        /* \"lib/BytesLib.sol\":8863:8864  0 */\n      0x00\n        /* \"lib/BytesLib.sol\":8858:8859  i */\n      dup7\n        /* \"lib/BytesLib.sol\":8858:8864  i != 0 */\n      eq\n        /* \"lib/BytesLib.sol\":8851:8938  while (i != 0) {... */\n      tag_213\n      jumpi\n        /* \"lib/BytesLib.sol\":8908:8910  10 */\n      0x0a\n        /* \"lib/BytesLib.sol\":8904:8905  i */\n      dup7\n        /* \"lib/BytesLib.sol\":8904:8910  i % 10 */\n      dup2\n      tag_214\n      jumpi\n      invalid\n    tag_214:\n      mod\n        /* \"lib/BytesLib.sol\":8899:8901  48 */\n      0x30\n        /* \"lib/BytesLib.sol\":8899:8910  48 + i % 10 */\n      add\n        /* \"lib/BytesLib.sol\":8888:8912  byte(uint8(48 + i % 10)) */\n      0xf8\n      shl\n        /* \"lib/BytesLib.sol\":8876:8880  bstr */\n      dup3\n        /* \"lib/BytesLib.sol\":8881:8884  k-- */\n      dup3\n      dup1\n      0x01\n      swap1\n      sub\n      swap4\n      pop\n        /* \"lib/BytesLib.sol\":8876:8885  bstr[k--] */\n      dup2\n      mload\n      dup2\n      lt\n      tag_215\n      jumpi\n      invalid\n    tag_215:\n      0x20\n      add\n      add\n        /* \"lib/BytesLib.sol\":8876:8912  bstr[k--] = byte(uint8(48 + i % 10)) */\n      swap1\n      not(0xffffffffffffffffffffffffffffffffffffffffffffffffffffffffffffff)\n      and\n      swap1\n      dup2\n      0x00\n      byte\n      swap1\n      mstore8\n      pop\n        /* \"lib/BytesLib.sol\":8927:8929  10 */\n      0x0a\n        /* \"lib/BytesLib.sol\":8922:8929  i /= 10 */\n      dup7\n      dup2\n      tag_216\n      jumpi\n      invalid\n    tag_216:\n      div\n      swap6\n      pop\n        /* \"lib/BytesLib.sol\":8851:8938  while (i != 0) {... */\n      jump(tag_212)\n    tag_213:\n        /* \"lib/BytesLib.sol\":8952:8956  bstr */\n      dup2\n        /* \"lib/BytesLib.sol\":8945:8956  return bstr */\n      swap5\n      pop\n      pop\n      pop\n      pop\n      pop\n        /* \"lib/BytesLib.sol\":8566:8963  function getBytesStr(uint i) internal pure returns (bytes memory) {... */\n    tag_206:\n      swap2\n      swap1\n      pop\n      jump\t// out\n        /* \"lib/RLP.sol\":5188:5575  function toBytes(RLPItem memory item) internal pure returns (bytes memory) {... */\n    tag_117:\n        /* \"lib/RLP.sol\":5249:5261  bytes memory */\n      0x60\n        /* \"lib/RLP.sol\":5288:5289  0 */\n      0x00\n        /* \"lib/RLP.sol\":5277:5281  item */\n      dup3\n        /* \"lib/RLP.sol\":5277:5285  item.len */\n      0x00\n      add\n      mload\n        /* \"lib/RLP.sol\":5277:5289  item.len > 0 */\n      gt\n        /* \"lib/RLP.sol\":5269:5290  require(item.len > 0) */\n      tag_218\n      jumpi\n        /* \"--CODEGEN--\":12:13   */\n      0x00\n        /* \"--CODEGEN--\":9:10   */\n      dup1\n        /* \"--CODEGEN--\":2:14   */\n      revert\n        /* \"lib/RLP.sol\":5269:5290  require(item.len > 0) */\n    tag_218:\n        /* \"lib/RLP.sol\":5297:5308  uint offset */\n      0x00\n        /* \"lib/RLP.sol\":5311:5338  _payloadOffset(item.memPtr) */\n      tag_219\n        /* \"lib/RLP.sol\":5326:5330  item */\n      dup4\n        /* \"lib/RLP.sol\":5326:5337  item.memPtr */\n      0x20\n      add\n      mload\n        /* \"lib/RLP.sol\":5311:5325  _payloadOffset */\n      tag_181\n        /* \"lib/RLP.sol\":5311:5338  _payloadOffset(item.memPtr) */\n      jump\t// in\n    tag_219:\n        /* \"lib/RLP.sol\":5297:5338  uint offset = _payloadOffset(item.memPtr) */\n      swap1\n      pop\n        /* \"lib/RLP.sol\":5344:5352  uint len */\n      0x00\n        /* \"lib/RLP.sol\":5366:5372  offset */\n      dup2\n        /* \"lib/RLP.sol\":5355:5359  item */\n      dup5\n        /* \"lib/RLP.sol\":5355:5363  item.len */\n      0x00\n      add\n      mload\n        /* \"lib/RLP.sol\":5355:5372  item.len - offset */\n      sub\n        /* \"lib/RLP.sol\":5344:5372  uint len = item.len - offset */\n      swap1\n      pop\n        /* \"lib/RLP.sol\":5393:5412  bytes memory result */\n      0x60\n        /* \"lib/RLP.sol\":5425:5428  len */\n      dup2\n        /* \"lib/RLP.sol\":5415:5429  new bytes(len) */\n      mload(0x40)\n      swap1\n      dup1\n      dup3\n      mstore\n      dup1\n      0x1f\n      add\n      not(0x1f)\n      and\n      0x20\n      add\n      dup3\n      add\n      0x40\n      mstore\n      dup1\n      iszero\n      tag_220\n      jumpi\n      dup2\n      0x20\n      add\n        /* \"--CODEGEN--\":29:30   */\n      0x01\n        /* \"--CODEGEN--\":21:27   */\n      dup3\n        /* \"--CODEGEN--\":17:31   */\n      mul\n        /* \"--CODEGEN--\":124:128   */\n      dup1\n        /* \"--CODEGEN--\":108:122   */\n      calldatasize\n        /* \"--CODEGEN--\":100:106   */\n      dup4\n        /* \"--CODEGEN--\":87:129   */\n      calldatacopy\n        /* \"--CODEGEN--\":155:159   */\n      dup1\n        /* \"--CODEGEN--\":147:153   */\n      dup3\n        /* \"--CODEGEN--\":143:160   */\n      add\n        /* \"--CODEGEN--\":133:160   */\n      swap2\n      pop\n        /* \"--CODEGEN--\":0:164   */\n      pop\n        /* \"lib/RLP.sol\":5415:5429  new bytes(len) */\n      swap1\n      pop\n    tag_220:\n      pop\n        /* \"lib/RLP.sol\":5393:5429  bytes memory result = new bytes(len) */\n      swap1\n      pop\n        /* \"lib/RLP.sol\":5436:5448  uint destPtr */\n      0x00\n        /* \"lib/RLP.sol\":5492:5498  result */\n      dup2\n        /* \"lib/RLP.sol\":5486:5490  0x20 */\n      0x20\n        /* \"lib/RLP.sol\":5482:5499  add(0x20, result) */\n      add\n        /* \"lib/RLP.sol\":5471:5499  destPtr := add(0x20, result) */\n      swap1\n      pop\n        /* \"lib/RLP.sol\":5511:5551  copy(item.memPtr + offset, destPtr, len) */\n      tag_221\n        /* \"lib/RLP.sol\":5530:5536  offset */\n      dup5\n        /* \"lib/RLP.sol\":5516:5520  item */\n      dup8\n        /* \"lib/RLP.sol\":5516:5527  item.memPtr */\n      0x20\n      add\n      mload\n        /* \"lib/RLP.sol\":5516:5536  item.memPtr + offset */\n      add\n        /* \"lib/RLP.sol\":5538:5545  destPtr */\n      dup3\n        /* \"lib/RLP.sol\":5547:5550  len */\n      dup6\n        /* \"lib/RLP.sol\":5511:5515  copy */\n      tag_205\n        /* \"lib/RLP.sol\":5511:5551  copy(item.memPtr + offset, destPtr, len) */\n      jump\t// in\n    tag_221:\n        /* \"lib/RLP.sol\":5564:5570  result */\n      dup2\n        /* \"lib/RLP.sol\":5557:5570  return result */\n      swap5\n      pop\n      pop\n      pop\n      pop\n      pop\n        /* \"lib/RLP.sol\":5188:5575  function toBytes(RLPItem memory item) internal pure returns (bytes memory) {... */\n      swap2\n      swap1\n      pop\n      jump\t// out\n        /* \"lib/ECVerify.sol\":1259:2667  function ecrecovery(bytes32 hash, bytes memory sig) internal returns (bool, address) {... */\n    tag_119:\n        /* \"lib/ECVerify.sol\":1329:1333  bool */\n      0x00\n        /* \"lib/ECVerify.sol\":1335:1342  address */\n      dup1\n        /* \"lib/ECVerify.sol\":1354:1363  bytes32 r */\n      0x00\n        /* \"lib/ECVerify.sol\":1373:1382  bytes32 s */\n      dup1\n        /* \"lib/ECVerify.sol\":1392:1399  uint8 v */\n      0x00\n        /* \"lib/ECVerify.sol\":1428:1430  65 */\n      0x41\n        /* \"lib/ECVerify.sol\":1414:1417  sig */\n      dup7\n        /* \"lib/ECVerify.sol\":1414:1424  sig.length */\n      mload\n        /* \"lib/ECVerify.sol\":1414:1430  sig.length != 65 */\n      eq\n        /* \"lib/ECVerify.sol\":1410:1468  if (sig.length != 65)... */\n      tag_223\n      jumpi\n        /* \"lib/ECVerify.sol\":1450:1455  false */\n      0x00\n        /* \"lib/ECVerify.sol\":1465:1466  0 */\n      dup1\n        /* \"lib/ECVerify.sol\":1442:1468  return (false, address(0)) */\n      dup1\n      swap1\n      pop\n      swap5\n      pop\n      swap5\n      pop\n      pop\n      pop\n      pop\n      jump(tag_222)\n        /* \"lib/ECVerify.sol\":1410:1468  if (sig.length != 65)... */\n    tag_223:\n        /* \"lib/ECVerify.sol\":1680:1682  32 */\n      0x20\n        /* \"lib/ECVerify.sol\":1675:1678  sig */\n      dup7\n        /* \"lib/ECVerify.sol\":1671:1683  add(sig, 32) */\n      add\n        /* \"lib/ECVerify.sol\":1665:1684  mload(add(sig, 32)) */\n      mload\n        /* \"lib/ECVerify.sol\":1660:1684  r := mload(add(sig, 32)) */\n      swap3\n      pop\n        /* \"lib/ECVerify.sol\":1717:1719  64 */\n      0x40\n        /* \"lib/ECVerify.sol\":1712:1715  sig */\n      dup7\n        /* \"lib/ECVerify.sol\":1708:1720  add(sig, 64) */\n      add\n        /* \"lib/ECVerify.sol\":1702:1721  mload(add(sig, 64)) */\n      mload\n        /* \"lib/ECVerify.sol\":1697:1721  s := mload(add(sig, 64)) */\n      swap2\n      pop\n        /* \"lib/ECVerify.sol\":1975:1977  96 */\n      0x60\n        /* \"lib/ECVerify.sol\":1970:1973  sig */\n      dup7\n        /* \"lib/ECVerify.sol\":1966:1978  add(sig, 96) */\n      add\n        /* \"lib/ECVerify.sol\":1960:1979  mload(add(sig, 96)) */\n      mload\n        /* \"lib/ECVerify.sol\":1957:1958  0 */\n      0x00\n        /* \"lib/ECVerify.sol\":1952:1980  byte(0, mload(add(sig, 96))) */\n      byte\n        /* \"lib/ECVerify.sol\":1947:1980  v := byte(0, mload(add(sig, 96))) */\n      swap1\n      pop\n        /* \"lib/ECVerify.sol\":2518:2520  27 */\n      0x1b\n        /* \"lib/ECVerify.sol\":2514:2515  v */\n      dup2\n        /* \"lib/ECVerify.sol\":2514:2520  v < 27 */\n      0xff\n      and\n      lt\n        /* \"lib/ECVerify.sol\":2510:2539  if (v < 27)... */\n      iszero\n      tag_224\n      jumpi\n        /* \"lib/ECVerify.sol\":2537:2539  27 */\n      0x1b\n        /* \"lib/ECVerify.sol\":2532:2539  v += 27 */\n      dup2\n      add\n      swap1\n      pop\n        /* \"lib/ECVerify.sol\":2510:2539  if (v < 27)... */\n    tag_224:\n        /* \"lib/ECVerify.sol\":2559:2561  27 */\n      0x1b\n        /* \"lib/ECVerify.sol\":2554:2555  v */\n      dup2\n        /* \"lib/ECVerify.sol\":2554:2561  v != 27 */\n      0xff\n      and\n      eq\n      iszero\n        /* \"lib/ECVerify.sol\":2554:2572  v != 27 && v != 28 */\n      dup1\n      iszero\n      tag_225\n      jumpi\n      pop\n        /* \"lib/ECVerify.sol\":2570:2572  28 */\n      0x1c\n        /* \"lib/ECVerify.sol\":2565:2566  v */\n      dup2\n        /* \"lib/ECVerify.sol\":2565:2572  v != 28 */\n      0xff\n      and\n      eq\n      iszero\n        /* \"lib/ECVerify.sol\":2554:2572  v != 27 && v != 28 */\n    tag_225:\n        /* \"lib/ECVerify.sol\":2550:2612  if (v != 27 && v != 28)... */\n      iszero\n      tag_226\n      jumpi\n        /* \"lib/ECVerify.sol\":2594:2599  false */\n      0x00\n        /* \"lib/ECVerify.sol\":2609:2610  0 */\n      dup1\n        /* \"lib/ECVerify.sol\":2586:2612  return (false, address(0)) */\n      dup1\n      swap1\n      pop\n      swap5\n      pop\n      swap5\n      pop\n      pop\n      pop\n      pop\n      jump(tag_222)\n        /* \"lib/ECVerify.sol\":2550:2612  if (v != 27 && v != 28)... */\n    tag_226:\n        /* \"lib/ECVerify.sol\":2630:2660  safer_ecrecover(hash, v, r, s) */\n      tag_227\n        /* \"lib/ECVerify.sol\":2646:2650  hash */\n      dup8\n        /* \"lib/ECVerify.sol\":2652:2653  v */\n      dup3\n        /* \"lib/ECVerify.sol\":2655:2656  r */\n      dup6\n        /* \"lib/ECVerify.sol\":2658:2659  s */\n      dup6\n        /* \"lib/ECVerify.sol\":2630:2645  safer_ecrecover */\n      tag_228\n        /* \"lib/ECVerify.sol\":2630:2660  safer_ecrecover(hash, v, r, s) */\n      jump\t// in\n    tag_227:\n        /* \"lib/ECVerify.sol\":2623:2660  return safer_ecrecover(hash, v, r, s) */\n      swap5\n      pop\n      swap5\n      pop\n      pop\n      pop\n      pop\n        /* \"lib/ECVerify.sol\":1259:2667  function ecrecovery(bytes32 hash, bytes memory sig) internal returns (bool, address) {... */\n    tag_222:\n      swap3\n      pop\n      swap3\n      swap1\n      pop\n      jump\t// out\n        /* \"lib/MerklePatriciaProof.sol\":545:3281  function verify(... */\n    tag_145:\n        /* \"lib/MerklePatriciaProof.sol\":711:715  bool */\n      0x00\n        /* \"lib/MerklePatriciaProof.sol\":727:750  RLP.RLPItem memory item */\n      tag_230\n      tag_168\n      jump\t// in\n    tag_230:\n        /* \"lib/MerklePatriciaProof.sol\":753:782  RLP.toRLPItem(rlpParentNodes) */\n      tag_231\n        /* \"lib/MerklePatriciaProof.sol\":767:781  rlpParentNodes */\n      dup5\n        /* \"lib/MerklePatriciaProof.sol\":753:766  RLP.toRLPItem */\n      tag_78\n        /* \"lib/MerklePatriciaProof.sol\":753:782  RLP.toRLPItem(rlpParentNodes) */\n      jump\t// in\n    tag_231:\n        /* \"lib/MerklePatriciaProof.sol\":727:782  RLP.RLPItem memory item = RLP.toRLPItem(rlpParentNodes) */\n      swap1\n      pop\n        /* \"lib/MerklePatriciaProof.sol\":792:824  RLP.RLPItem[] memory parentNodes */\n      0x60\n        /* \"lib/MerklePatriciaProof.sol\":827:843  RLP.toList(item) */\n      tag_232\n        /* \"lib/MerklePatriciaProof.sol\":838:842  item */\n      dup3\n        /* \"lib/MerklePatriciaProof.sol\":827:837  RLP.toList */\n      tag_79\n        /* \"lib/MerklePatriciaProof.sol\":827:843  RLP.toList(item) */\n      jump\t// in\n    tag_232:\n        /* \"lib/MerklePatriciaProof.sol\":792:843  RLP.RLPItem[] memory parentNodes = RLP.toList(item) */\n      swap1\n      pop\n        /* \"lib/MerklePatriciaProof.sol\":854:878  bytes memory currentNode */\n      0x60\n        /* \"lib/MerklePatriciaProof.sol\":888:924  RLP.RLPItem[] memory currentNodeList */\n      dup1\n        /* \"lib/MerklePatriciaProof.sol\":935:950  bytes32 nodeKey */\n      0x00\n        /* \"lib/MerklePatriciaProof.sol\":953:957  root */\n      dup7\n        /* \"lib/MerklePatriciaProof.sol\":935:957  bytes32 nodeKey = root */\n      swap1\n      pop\n        /* \"lib/MerklePatriciaProof.sol\":967:982  uint256 pathPtr */\n      0x00\n        /* \"lib/MerklePatriciaProof.sol\":985:986  0 */\n      dup1\n        /* \"lib/MerklePatriciaProof.sol\":967:986  uint256 pathPtr = 0 */\n      swap1\n      pop\n        /* \"lib/MerklePatriciaProof.sol\":997:1014  bytes memory path */\n      0x60\n        /* \"lib/MerklePatriciaProof.sol\":1017:1045  _getNibbleArray(encodedPath) */\n      tag_233\n        /* \"lib/MerklePatriciaProof.sol\":1033:1044  encodedPath */\n      dup12\n        /* \"lib/MerklePatriciaProof.sol\":1017:1032  _getNibbleArray */\n      tag_234\n        /* \"lib/MerklePatriciaProof.sol\":1017:1045  _getNibbleArray(encodedPath) */\n      jump\t// in\n    tag_233:\n        /* \"lib/MerklePatriciaProof.sol\":997:1045  bytes memory path = _getNibbleArray(encodedPath) */\n      swap1\n      pop\n        /* \"lib/MerklePatriciaProof.sol\":1074:1075  0 */\n      0x00\n        /* \"lib/MerklePatriciaProof.sol\":1059:1063  path */\n      dup2\n        /* \"lib/MerklePatriciaProof.sol\":1059:1070  path.length */\n      mload\n        /* \"lib/MerklePatriciaProof.sol\":1059:1075  path.length == 0 */\n      eq\n        /* \"lib/MerklePatriciaProof.sol\":1055:1114  if (path.length == 0) {... */\n      iszero\n      tag_235\n      jumpi\n        /* \"lib/MerklePatriciaProof.sol\":1098:1103  false */\n      0x00\n        /* \"lib/MerklePatriciaProof.sol\":1091:1103  return false */\n      swap8\n      pop\n      pop\n      pop\n      pop\n      pop\n      pop\n      pop\n      pop\n      jump(tag_229)\n        /* \"lib/MerklePatriciaProof.sol\":1055:1114  if (path.length == 0) {... */\n    tag_235:\n        /* \"lib/MerklePatriciaProof.sol\":1129:1138  uint256 i */\n      0x00\n        /* \"lib/MerklePatriciaProof.sol\":1141:1142  0 */\n      dup1\n        /* \"lib/MerklePatriciaProof.sol\":1129:1142  uint256 i = 0 */\n      swap1\n      pop\n        /* \"lib/MerklePatriciaProof.sol\":1124:3275  for (uint256 i = 0; i < parentNodes.length; i++) {... */\n    tag_236:\n        /* \"lib/MerklePatriciaProof.sol\":1148:1159  parentNodes */\n      dup7\n        /* \"lib/MerklePatriciaProof.sol\":1148:1166  parentNodes.length */\n      mload\n        /* \"lib/MerklePatriciaProof.sol\":1144:1145  i */\n      dup2\n        /* \"lib/MerklePatriciaProof.sol\":1144:1166  i < parentNodes.length */\n      lt\n        /* \"lib/MerklePatriciaProof.sol\":1124:3275  for (uint256 i = 0; i < parentNodes.length; i++) {... */\n      iszero\n      tag_237\n      jumpi\n        /* \"lib/MerklePatriciaProof.sol\":1201:1205  path */\n      dup2\n        /* \"lib/MerklePatriciaProof.sol\":1201:1212  path.length */\n      mload\n        /* \"lib/MerklePatriciaProof.sol\":1191:1198  pathPtr */\n      dup4\n        /* \"lib/MerklePatriciaProof.sol\":1191:1212  pathPtr > path.length */\n      gt\n        /* \"lib/MerklePatriciaProof.sol\":1187:1259  if (pathPtr > path.length) {... */\n      iszero\n      tag_239\n      jumpi\n        /* \"lib/MerklePatriciaProof.sol\":1239:1244  false */\n      0x00\n        /* \"lib/MerklePatriciaProof.sol\":1232:1244  return false */\n      swap9\n      pop\n      pop\n      pop\n      pop\n      pop\n      pop\n      pop\n      pop\n      pop\n      jump(tag_229)\n        /* \"lib/MerklePatriciaProof.sol\":1187:1259  if (pathPtr > path.length) {... */\n    tag_239:\n        /* \"lib/MerklePatriciaProof.sol\":1287:1317  RLP.toRLPBytes(parentNodes[i]) */\n      tag_240\n        /* \"lib/MerklePatriciaProof.sol\":1302:1313  parentNodes */\n      dup8\n        /* \"lib/MerklePatriciaProof.sol\":1314:1315  i */\n      dup3\n        /* \"lib/MerklePatriciaProof.sol\":1302:1316  parentNodes[i] */\n      dup2\n      mload\n      dup2\n      lt\n      tag_241\n      jumpi\n      invalid\n    tag_241:\n      0x20\n      mul\n      0x20\n      add\n      add\n      mload\n        /* \"lib/MerklePatriciaProof.sol\":1287:1301  RLP.toRLPBytes */\n      tag_100\n        /* \"lib/MerklePatriciaProof.sol\":1287:1317  RLP.toRLPBytes(parentNodes[i]) */\n      jump\t// in\n    tag_240:\n        /* \"lib/MerklePatriciaProof.sol\":1273:1317  currentNode = RLP.toRLPBytes(parentNodes[i]) */\n      swap6\n      pop\n        /* \"lib/MerklePatriciaProof.sol\":1356:1367  currentNode */\n      dup6\n        /* \"lib/MerklePatriciaProof.sol\":1346:1368  keccak256(currentNode) */\n      dup1\n      mload\n      swap1\n      0x20\n      add\n      keccak256\n        /* \"lib/MerklePatriciaProof.sol\":1335:1342  nodeKey */\n      dup5\n        /* \"lib/MerklePatriciaProof.sol\":1335:1368  nodeKey != keccak256(currentNode) */\n      eq\n        /* \"lib/MerklePatriciaProof.sol\":1331:1415  if (nodeKey != keccak256(currentNode)) {... */\n      tag_242\n      jumpi\n        /* \"lib/MerklePatriciaProof.sol\":1395:1400  false */\n      0x00\n        /* \"lib/MerklePatriciaProof.sol\":1388:1400  return false */\n      swap9\n      pop\n      pop\n      pop\n      pop\n      pop\n      pop\n      pop\n      pop\n      pop\n      jump(tag_229)\n        /* \"lib/MerklePatriciaProof.sol\":1331:1415  if (nodeKey != keccak256(currentNode)) {... */\n    tag_242:\n        /* \"lib/MerklePatriciaProof.sol\":1446:1472  RLP.toList(parentNodes[i]) */\n      tag_243\n        /* \"lib/MerklePatriciaProof.sol\":1457:1468  parentNodes */\n      dup8\n        /* \"lib/MerklePatriciaProof.sol\":1469:1470  i */\n      dup3\n        /* \"lib/MerklePatriciaProof.sol\":1457:1471  parentNodes[i] */\n      dup2\n      mload\n      dup2\n      lt\n      tag_244\n      jumpi\n      invalid\n    tag_244:\n      0x20\n      mul\n      0x20\n      add\n      add\n      mload\n        /* \"lib/MerklePatriciaProof.sol\":1446:1456  RLP.toList */\n      tag_79\n        /* \"lib/MerklePatriciaProof.sol\":1446:1472  RLP.toList(parentNodes[i]) */\n      jump\t// in\n    tag_243:\n        /* \"lib/MerklePatriciaProof.sol\":1428:1472  currentNodeList = RLP.toList(parentNodes[i]) */\n      swap5\n      pop\n        /* \"lib/MerklePatriciaProof.sol\":1517:1519  17 */\n      0x11\n        /* \"lib/MerklePatriciaProof.sol\":1491:1506  currentNodeList */\n      dup6\n        /* \"lib/MerklePatriciaProof.sol\":1491:1513  currentNodeList.length */\n      mload\n        /* \"lib/MerklePatriciaProof.sol\":1491:1519  currentNodeList.length == 17 */\n      eq\n        /* \"lib/MerklePatriciaProof.sol\":1487:3265  if (currentNodeList.length == 17) {... */\n      iszero\n      tag_245\n      jumpi\n        /* \"lib/MerklePatriciaProof.sol\":1554:1558  path */\n      dup2\n        /* \"lib/MerklePatriciaProof.sol\":1554:1565  path.length */\n      mload\n        /* \"lib/MerklePatriciaProof.sol\":1543:1550  pathPtr */\n      dup4\n        /* \"lib/MerklePatriciaProof.sol\":1543:1565  pathPtr == path.length */\n      eq\n        /* \"lib/MerklePatriciaProof.sol\":1539:1873  if (pathPtr == path.length) {... */\n      iszero\n      tag_246\n      jumpi\n        /* \"lib/MerklePatriciaProof.sol\":1699:1704  value */\n      dup13\n        /* \"lib/MerklePatriciaProof.sol\":1689:1705  keccak256(value) */\n      dup1\n      mload\n      swap1\n      0x20\n      add\n      keccak256\n        /* \"lib/MerklePatriciaProof.sol\":1628:1660  RLP.toBytes(currentNodeList[16]) */\n      tag_247\n        /* \"lib/MerklePatriciaProof.sol\":1640:1655  currentNodeList */\n      dup7\n        /* \"lib/MerklePatriciaProof.sol\":1656:1658  16 */\n      0x10\n        /* \"lib/MerklePatriciaProof.sol\":1640:1659  currentNodeList[16] */\n      dup2\n      mload\n      dup2\n      lt\n      tag_248\n      jumpi\n      invalid\n    tag_248:\n      0x20\n      mul\n      0x20\n      add\n      add\n      mload\n        /* \"lib/MerklePatriciaProof.sol\":1628:1639  RLP.toBytes */\n      tag_117\n        /* \"lib/MerklePatriciaProof.sol\":1628:1660  RLP.toBytes(currentNodeList[16]) */\n      jump\t// in\n    tag_247:\n        /* \"lib/MerklePatriciaProof.sol\":1618:1661  keccak256(RLP.toBytes(currentNodeList[16])) */\n      dup1\n      mload\n      swap1\n      0x20\n      add\n      keccak256\n        /* \"lib/MerklePatriciaProof.sol\":1618:1705  keccak256(RLP.toBytes(currentNodeList[16])) ==... */\n      eq\n        /* \"lib/MerklePatriciaProof.sol\":1589:1855  if (... */\n      iszero\n      tag_249\n      jumpi\n        /* \"lib/MerklePatriciaProof.sol\":1761:1765  true */\n      0x01\n        /* \"lib/MerklePatriciaProof.sol\":1754:1765  return true */\n      swap9\n      pop\n      pop\n      pop\n      pop\n      pop\n      pop\n      pop\n      pop\n      pop\n      jump(tag_229)\n        /* \"lib/MerklePatriciaProof.sol\":1589:1855  if (... */\n    tag_249:\n        /* \"lib/MerklePatriciaProof.sol\":1827:1832  false */\n      0x00\n        /* \"lib/MerklePatriciaProof.sol\":1820:1832  return false */\n      swap9\n      pop\n      pop\n      pop\n      pop\n      pop\n      pop\n      pop\n      pop\n      pop\n      jump(tag_229)\n        /* \"lib/MerklePatriciaProof.sol\":1539:1873  if (pathPtr == path.length) {... */\n    tag_246:\n        /* \"lib/MerklePatriciaProof.sol\":1891:1911  uint8 nextPathNibble */\n      0x00\n        /* \"lib/MerklePatriciaProof.sol\":1920:1924  path */\n      dup3\n        /* \"lib/MerklePatriciaProof.sol\":1925:1932  pathPtr */\n      dup5\n        /* \"lib/MerklePatriciaProof.sol\":1920:1933  path[pathPtr] */\n      dup2\n      mload\n      dup2\n      lt\n      tag_251\n      jumpi\n      invalid\n    tag_251:\n      0x20\n      add\n      add\n      mload\n      0xf8\n      shr\n      0xf8\n      shl\n        /* \"lib/MerklePatriciaProof.sol\":1914:1934  uint8(path[pathPtr]) */\n      0xf8\n      shr\n        /* \"lib/MerklePatriciaProof.sol\":1891:1934  uint8 nextPathNibble = uint8(path[pathPtr]) */\n      swap1\n      pop\n        /* \"lib/MerklePatriciaProof.sol\":1973:1975  16 */\n      0x10\n        /* \"lib/MerklePatriciaProof.sol\":1956:1970  nextPathNibble */\n      dup2\n        /* \"lib/MerklePatriciaProof.sol\":1956:1975  nextPathNibble > 16 */\n      0xff\n      and\n      gt\n        /* \"lib/MerklePatriciaProof.sol\":1952:2030  if (nextPathNibble > 16) {... */\n      iszero\n      tag_252\n      jumpi\n        /* \"lib/MerklePatriciaProof.sol\":2006:2011  false */\n      0x00\n        /* \"lib/MerklePatriciaProof.sol\":1999:2011  return false */\n      swap10\n      pop\n      pop\n      pop\n      pop\n      pop\n      pop\n      pop\n      pop\n      pop\n      pop\n      jump(tag_229)\n        /* \"lib/MerklePatriciaProof.sol\":1952:2030  if (nextPathNibble > 16) {... */\n    tag_252:\n        /* \"lib/MerklePatriciaProof.sol\":2086:2135  RLP.toUintStrict(currentNodeList[nextPathNibble]) */\n      tag_253\n        /* \"lib/MerklePatriciaProof.sol\":2103:2118  currentNodeList */\n      dup7\n        /* \"lib/MerklePatriciaProof.sol\":2119:2133  nextPathNibble */\n      dup3\n        /* \"lib/MerklePatriciaProof.sol\":2103:2134  currentNodeList[nextPathNibble] */\n      0xff\n      and\n      dup2\n      mload\n      dup2\n      lt\n      tag_254\n      jumpi\n      invalid\n    tag_254:\n      0x20\n      mul\n      0x20\n      add\n      add\n      mload\n        /* \"lib/MerklePatriciaProof.sol\":2086:2102  RLP.toUintStrict */\n      tag_255\n        /* \"lib/MerklePatriciaProof.sol\":2086:2135  RLP.toUintStrict(currentNodeList[nextPathNibble]) */\n      jump\t// in\n    tag_253:\n        /* \"lib/MerklePatriciaProof.sol\":2057:2153  bytes32(... */\n      0x00\n      shl\n        /* \"lib/MerklePatriciaProof.sol\":2047:2153  nodeKey = bytes32(... */\n      swap5\n      pop\n        /* \"lib/MerklePatriciaProof.sol\":2182:2183  1 */\n      0x01\n        /* \"lib/MerklePatriciaProof.sol\":2171:2183  pathPtr += 1 */\n      dup5\n      add\n      swap4\n      pop\n        /* \"lib/MerklePatriciaProof.sol\":1487:3265  if (currentNodeList.length == 17) {... */\n      pop\n      jump(tag_256)\n    tag_245:\n        /* \"lib/MerklePatriciaProof.sol\":2234:2235  2 */\n      0x02\n        /* \"lib/MerklePatriciaProof.sol\":2208:2223  currentNodeList */\n      dup6\n        /* \"lib/MerklePatriciaProof.sol\":2208:2230  currentNodeList.length */\n      mload\n        /* \"lib/MerklePatriciaProof.sol\":2208:2235  currentNodeList.length == 2 */\n      eq\n        /* \"lib/MerklePatriciaProof.sol\":2204:3265  if (currentNodeList.length == 2) {... */\n      iszero\n      tag_257\n      jumpi\n        /* \"lib/MerklePatriciaProof.sol\":2266:2410  _nibblesToTraverse(... */\n      tag_258\n        /* \"lib/MerklePatriciaProof.sol\":2306:2337  RLP.toBytes(currentNodeList[0]) */\n      tag_259\n        /* \"lib/MerklePatriciaProof.sol\":2318:2333  currentNodeList */\n      dup7\n        /* \"lib/MerklePatriciaProof.sol\":2334:2335  0 */\n      0x00\n        /* \"lib/MerklePatriciaProof.sol\":2318:2336  currentNodeList[0] */\n      dup2\n      mload\n      dup2\n      lt\n      tag_260\n      jumpi\n      invalid\n    tag_260:\n      0x20\n      mul\n      0x20\n      add\n      add\n      mload\n        /* \"lib/MerklePatriciaProof.sol\":2306:2317  RLP.toBytes */\n      tag_117\n        /* \"lib/MerklePatriciaProof.sol\":2306:2337  RLP.toBytes(currentNodeList[0]) */\n      jump\t// in\n    tag_259:\n        /* \"lib/MerklePatriciaProof.sol\":2359:2363  path */\n      dup4\n        /* \"lib/MerklePatriciaProof.sol\":2385:2392  pathPtr */\n      dup6\n        /* \"lib/MerklePatriciaProof.sol\":2266:2284  _nibblesToTraverse */\n      tag_261\n        /* \"lib/MerklePatriciaProof.sol\":2266:2410  _nibblesToTraverse(... */\n      jump\t// in\n    tag_258:\n        /* \"lib/MerklePatriciaProof.sol\":2255:2410  pathPtr += _nibblesToTraverse(... */\n      dup4\n      add\n      swap3\n      pop\n        /* \"lib/MerklePatriciaProof.sol\":2443:2447  path */\n      dup2\n        /* \"lib/MerklePatriciaProof.sol\":2443:2454  path.length */\n      mload\n        /* \"lib/MerklePatriciaProof.sol\":2432:2439  pathPtr */\n      dup4\n        /* \"lib/MerklePatriciaProof.sol\":2432:2454  pathPtr == path.length */\n      eq\n        /* \"lib/MerklePatriciaProof.sol\":2428:2793  if (pathPtr == path.length) {... */\n      iszero\n      tag_262\n      jumpi\n        /* \"lib/MerklePatriciaProof.sol\":2619:2624  value */\n      dup13\n        /* \"lib/MerklePatriciaProof.sol\":2609:2625  keccak256(value) */\n      dup1\n      mload\n      swap1\n      0x20\n      add\n      keccak256\n        /* \"lib/MerklePatriciaProof.sol\":2549:2580  RLP.toBytes(currentNodeList[1]) */\n      tag_263\n        /* \"lib/MerklePatriciaProof.sol\":2561:2576  currentNodeList */\n      dup7\n        /* \"lib/MerklePatriciaProof.sol\":2577:2578  1 */\n      0x01\n        /* \"lib/MerklePatriciaProof.sol\":2561:2579  currentNodeList[1] */\n      dup2\n      mload\n      dup2\n      lt\n      tag_264\n      jumpi\n      invalid\n    tag_264:\n      0x20\n      mul\n      0x20\n      add\n      add\n      mload\n        /* \"lib/MerklePatriciaProof.sol\":2549:2560  RLP.toBytes */\n      tag_117\n        /* \"lib/MerklePatriciaProof.sol\":2549:2580  RLP.toBytes(currentNodeList[1]) */\n      jump\t// in\n    tag_263:\n        /* \"lib/MerklePatriciaProof.sol\":2539:2581  keccak256(RLP.toBytes(currentNodeList[1])) */\n      dup1\n      mload\n      swap1\n      0x20\n      add\n      keccak256\n        /* \"lib/MerklePatriciaProof.sol\":2539:2625  keccak256(RLP.toBytes(currentNodeList[1])) ==... */\n      eq\n        /* \"lib/MerklePatriciaProof.sol\":2510:2775  if (... */\n      iszero\n      tag_265\n      jumpi\n        /* \"lib/MerklePatriciaProof.sol\":2681:2685  true */\n      0x01\n        /* \"lib/MerklePatriciaProof.sol\":2674:2685  return true */\n      swap9\n      pop\n      pop\n      pop\n      pop\n      pop\n      pop\n      pop\n      pop\n      pop\n      jump(tag_229)\n        /* \"lib/MerklePatriciaProof.sol\":2510:2775  if (... */\n    tag_265:\n        /* \"lib/MerklePatriciaProof.sol\":2747:2752  false */\n      0x00\n        /* \"lib/MerklePatriciaProof.sol\":2740:2752  return false */\n      swap9\n      pop\n      pop\n      pop\n      pop\n      pop\n      pop\n      pop\n      pop\n      pop\n      jump(tag_229)\n        /* \"lib/MerklePatriciaProof.sol\":2428:2793  if (pathPtr == path.length) {... */\n    tag_262:\n        /* \"lib/MerklePatriciaProof.sol\":3053:3054  0 */\n      0x00\n        /* \"lib/MerklePatriciaProof.sol\":2869:3029  _nibblesToTraverse(... */\n      tag_267\n        /* \"lib/MerklePatriciaProof.sol\":2913:2944  RLP.toBytes(currentNodeList[0]) */\n      tag_268\n        /* \"lib/MerklePatriciaProof.sol\":2925:2940  currentNodeList */\n      dup8\n        /* \"lib/MerklePatriciaProof.sol\":2941:2942  0 */\n      0x00\n        /* \"lib/MerklePatriciaProof.sol\":2925:2943  currentNodeList[0] */\n      dup2\n      mload\n      dup2\n      lt\n      tag_269\n      jumpi\n      invalid\n    tag_269:\n      0x20\n      mul\n      0x20\n      add\n      add\n      mload\n        /* \"lib/MerklePatriciaProof.sol\":2913:2924  RLP.toBytes */\n      tag_117\n        /* \"lib/MerklePatriciaProof.sol\":2913:2944  RLP.toBytes(currentNodeList[0]) */\n      jump\t// in\n    tag_268:\n        /* \"lib/MerklePatriciaProof.sol\":2970:2974  path */\n      dup5\n        /* \"lib/MerklePatriciaProof.sol\":3000:3007  pathPtr */\n      dup7\n        /* \"lib/MerklePatriciaProof.sol\":2869:2887  _nibblesToTraverse */\n      tag_261\n        /* \"lib/MerklePatriciaProof.sol\":2869:3029  _nibblesToTraverse(... */\n      jump\t// in\n    tag_267:\n        /* \"lib/MerklePatriciaProof.sol\":2869:3054  _nibblesToTraverse(... */\n      eq\n        /* \"lib/MerklePatriciaProof.sol\":2844:3126  if (... */\n      iszero\n      tag_270\n      jumpi\n        /* \"lib/MerklePatriciaProof.sol\":3102:3107  false */\n      0x00\n        /* \"lib/MerklePatriciaProof.sol\":3095:3107  return false */\n      swap9\n      pop\n      pop\n      pop\n      pop\n      pop\n      pop\n      pop\n      pop\n      pop\n      jump(tag_229)\n        /* \"lib/MerklePatriciaProof.sol\":2844:3126  if (... */\n    tag_270:\n        /* \"lib/MerklePatriciaProof.sol\":3162:3198  RLP.toUintStrict(currentNodeList[1]) */\n      tag_271\n        /* \"lib/MerklePatriciaProof.sol\":3179:3194  currentNodeList */\n      dup6\n        /* \"lib/MerklePatriciaProof.sol\":3195:3196  1 */\n      0x01\n        /* \"lib/MerklePatriciaProof.sol\":3179:3197  currentNodeList[1] */\n      dup2\n      mload\n      dup2\n      lt\n      tag_272\n      jumpi\n      invalid\n    tag_272:\n      0x20\n      mul\n      0x20\n      add\n      add\n      mload\n        /* \"lib/MerklePatriciaProof.sol\":3162:3178  RLP.toUintStrict */\n      tag_255\n        /* \"lib/MerklePatriciaProof.sol\":3162:3198  RLP.toUintStrict(currentNodeList[1]) */\n      jump\t// in\n    tag_271:\n        /* \"lib/MerklePatriciaProof.sol\":3154:3199  bytes32(RLP.toUintStrict(currentNodeList[1])) */\n      0x00\n      shl\n        /* \"lib/MerklePatriciaProof.sol\":3144:3199  nodeKey = bytes32(RLP.toUintStrict(currentNodeList[1])) */\n      swap4\n      pop\n        /* \"lib/MerklePatriciaProof.sol\":2204:3265  if (currentNodeList.length == 2) {... */\n      jump(tag_273)\n    tag_257:\n        /* \"lib/MerklePatriciaProof.sol\":3245:3250  false */\n      0x00\n        /* \"lib/MerklePatriciaProof.sol\":3238:3250  return false */\n      swap9\n      pop\n      pop\n      pop\n      pop\n      pop\n      pop\n      pop\n      pop\n      pop\n      jump(tag_229)\n        /* \"lib/MerklePatriciaProof.sol\":2204:3265  if (currentNodeList.length == 2) {... */\n    tag_273:\n        /* \"lib/MerklePatriciaProof.sol\":1487:3265  if (currentNodeList.length == 17) {... */\n    tag_256:\n        /* \"lib/MerklePatriciaProof.sol\":1168:1171  i++ */\n      dup1\n      dup1\n      0x01\n      add\n      swap2\n      pop\n      pop\n        /* \"lib/MerklePatriciaProof.sol\":1124:3275  for (uint256 i = 0; i < parentNodes.length; i++) {... */\n      jump(tag_236)\n    tag_237:\n      pop\n        /* \"lib/MerklePatriciaProof.sol\":545:3281  function verify(... */\n      pop\n      pop\n      pop\n      pop\n      pop\n      pop\n      pop\n    tag_229:\n      swap5\n      swap4\n      pop\n      pop\n      pop\n      pop\n      jump\t// out\n        /* \"lib/Merkle.sol\":45:928  function verify(... */\n    tag_152:\n        /* \"lib/Merkle.sol\":193:197  bool */\n      0x00\n        /* \"lib/Merkle.sol\":209:229  bytes32 proofElement */\n      dup1\n        /* \"lib/Merkle.sol\":239:259  bytes32 computedHash */\n      0x00\n        /* \"lib/Merkle.sol\":262:266  leaf */\n      dup7\n        /* \"lib/Merkle.sol\":239:266  bytes32 computedHash = leaf */\n      swap1\n      pop\n        /* \"lib/Merkle.sol\":305:306  0 */\n      0x00\n        /* \"lib/Merkle.sol\":299:301  32 */\n      0x20\n        /* \"lib/Merkle.sol\":284:289  proof */\n      dup6\n        /* \"lib/Merkle.sol\":284:296  proof.length */\n      mload\n        /* \"lib/Merkle.sol\":284:301  proof.length % 32 */\n      dup2\n      tag_275\n      jumpi\n      invalid\n    tag_275:\n      mod\n        /* \"lib/Merkle.sol\":284:306  proof.length % 32 == 0 */\n      eq\n        /* \"lib/Merkle.sol\":276:331  require(proof.length % 32 == 0, \"Invalid proof length\") */\n      tag_276\n      jumpi\n      mload(0x40)\n      0x08c379a000000000000000000000000000000000000000000000000000000000\n      dup2\n      mstore\n      0x04\n      add\n      dup1\n      dup1\n      0x20\n      add\n      dup3\n      dup2\n      sub\n      dup3\n      mstore\n      0x14\n      dup2\n      mstore\n      0x20\n      add\n      dup1\n      0x496e76616c69642070726f6f66206c656e677468000000000000000000000000\n      dup2\n      mstore\n      pop\n      0x20\n      add\n      swap2\n      pop\n      pop\n      mload(0x40)\n      dup1\n      swap2\n      sub\n      swap1\n      revert\n    tag_276:\n        /* \"lib/Merkle.sol\":342:355  uint256 index */\n      0x00\n        /* \"lib/Merkle.sol\":358:367  mainIndex */\n      dup7\n        /* \"lib/Merkle.sol\":342:367  uint256 index = mainIndex */\n      swap1\n      pop\n        /* \"lib/Merkle.sol\":382:391  uint256 i */\n      0x00\n        /* \"lib/Merkle.sol\":394:396  32 */\n      0x20\n        /* \"lib/Merkle.sol\":382:396  uint256 i = 32 */\n      swap1\n      pop\n        /* \"lib/Merkle.sol\":377:881  for (uint256 i = 32; i <= proof.length; i += 32) {... */\n    tag_277:\n        /* \"lib/Merkle.sol\":403:408  proof */\n      dup6\n        /* \"lib/Merkle.sol\":403:415  proof.length */\n      mload\n        /* \"lib/Merkle.sol\":398:399  i */\n      dup2\n        /* \"lib/Merkle.sol\":398:415  i <= proof.length */\n      gt\n        /* \"lib/Merkle.sol\":377:881  for (uint256 i = 32; i <= proof.length; i += 32) {... */\n      tag_278\n      jumpi\n        /* \"lib/Merkle.sol\":500:501  i */\n      dup1\n        /* \"lib/Merkle.sol\":493:498  proof */\n      dup7\n        /* \"lib/Merkle.sol\":489:502  add(proof, i) */\n      add\n        /* \"lib/Merkle.sol\":483:503  mload(add(proof, i)) */\n      mload\n        /* \"lib/Merkle.sol\":467:503  proofElement := mload(add(proof, i)) */\n      swap4\n      pop\n        /* \"lib/Merkle.sol\":548:549  0 */\n      0x00\n        /* \"lib/Merkle.sol\":543:544  2 */\n      0x02\n        /* \"lib/Merkle.sol\":535:540  index */\n      dup4\n        /* \"lib/Merkle.sol\":535:544  index % 2 */\n      dup2\n      tag_280\n      jumpi\n      invalid\n    tag_280:\n      mod\n        /* \"lib/Merkle.sol\":535:549  index % 2 == 0 */\n      eq\n        /* \"lib/Merkle.sol\":531:839  if (index % 2 == 0) {... */\n      iszero\n      tag_281\n      jumpi\n        /* \"lib/Merkle.sol\":632:644  computedHash */\n      dup3\n        /* \"lib/Merkle.sol\":646:658  proofElement */\n      dup5\n        /* \"lib/Merkle.sol\":615:659  abi.encodePacked(computedHash, proofElement) */\n      add(0x20, mload(0x40))\n      dup1\n      dup4\n      dup2\n      mstore\n      0x20\n      add\n      dup3\n      dup2\n      mstore\n      0x20\n      add\n      swap3\n      pop\n      pop\n      pop\n      mload(0x40)\n        /* \"--CODEGEN--\":49:53   */\n      0x20\n        /* \"--CODEGEN--\":39:46   */\n      dup2\n        /* \"--CODEGEN--\":30:37   */\n      dup4\n        /* \"--CODEGEN--\":26:47   */\n      sub\n        /* \"--CODEGEN--\":22:54   */\n      sub\n        /* \"--CODEGEN--\":13:20   */\n      dup2\n        /* \"--CODEGEN--\":6:55   */\n      mstore\n        /* \"lib/Merkle.sol\":615:659  abi.encodePacked(computedHash, proofElement) */\n      swap1\n      0x40\n      mstore\n        /* \"lib/Merkle.sol\":584:677  keccak256(... */\n      dup1\n      mload\n      swap1\n      0x20\n      add\n      keccak256\n        /* \"lib/Merkle.sol\":569:677  computedHash = keccak256(... */\n      swap3\n      pop\n        /* \"lib/Merkle.sol\":531:839  if (index % 2 == 0) {... */\n      jump(tag_282)\n    tag_281:\n        /* \"lib/Merkle.sol\":779:791  proofElement */\n      dup4\n        /* \"lib/Merkle.sol\":793:805  computedHash */\n      dup4\n        /* \"lib/Merkle.sol\":762:806  abi.encodePacked(proofElement, computedHash) */\n      add(0x20, mload(0x40))\n      dup1\n      dup4\n      dup2\n      mstore\n      0x20\n      add\n      dup3\n      dup2\n      mstore\n      0x20\n      add\n      swap3\n      pop\n      pop\n      pop\n      mload(0x40)\n        /* \"--CODEGEN--\":49:53   */\n      0x20\n        /* \"--CODEGEN--\":39:46   */\n      dup2\n        /* \"--CODEGEN--\":30:37   */\n      dup4\n        /* \"--CODEGEN--\":26:47   */\n      sub\n        /* \"--CODEGEN--\":22:54   */\n      sub\n        /* \"--CODEGEN--\":13:20   */\n      dup2\n        /* \"--CODEGEN--\":6:55   */\n      mstore\n        /* \"lib/Merkle.sol\":762:806  abi.encodePacked(proofElement, computedHash) */\n      swap1\n      0x40\n      mstore\n        /* \"lib/Merkle.sol\":731:824  keccak256(... */\n      dup1\n      mload\n      swap1\n      0x20\n      add\n      keccak256\n        /* \"lib/Merkle.sol\":716:824  computedHash = keccak256(... */\n      swap3\n      pop\n        /* \"lib/Merkle.sol\":531:839  if (index % 2 == 0) {... */\n    tag_282:\n        /* \"lib/Merkle.sol\":869:870  2 */\n      0x02\n        /* \"lib/Merkle.sol\":861:866  index */\n      dup3\n        /* \"lib/Merkle.sol\":861:870  index / 2 */\n      dup2\n      tag_283\n      jumpi\n      invalid\n    tag_283:\n      div\n        /* \"lib/Merkle.sol\":853:870  index = index / 2 */\n      swap2\n      pop\n        /* \"lib/Merkle.sol\":422:424  32 */\n      0x20\n        /* \"lib/Merkle.sol\":417:424  i += 32 */\n      dup2\n      add\n      swap1\n      pop\n        /* \"lib/Merkle.sol\":377:881  for (uint256 i = 32; i <= proof.length; i += 32) {... */\n      jump(tag_277)\n    tag_278:\n      pop\n        /* \"lib/Merkle.sol\":913:921  rootHash */\n      dup6\n        /* \"lib/Merkle.sol\":897:909  computedHash */\n      dup3\n        /* \"lib/Merkle.sol\":897:921  computedHash == rootHash */\n      eq\n        /* \"lib/Merkle.sol\":890:921  return computedHash == rootHash */\n      swap4\n      pop\n      pop\n      pop\n      pop\n        /* \"lib/Merkle.sol\":45:928  function verify(... */\n      swap5\n      swap4\n      pop\n      pop\n      pop\n      pop\n      jump\t// out\n        /* \"lib/EthParser.sol\":93:1362  function parseTransaction(bytes memory _rawTx) internal pure returns (address, address, uint256, bytes memory) {... */\n    tag_155:\n        /* \"lib/EthParser.sol\":163:170  address */\n      0x00\n        /* \"lib/EthParser.sol\":172:179  address */\n      dup1\n        /* \"lib/EthParser.sol\":181:188  uint256 */\n      0x00\n        /* \"lib/EthParser.sol\":190:202  bytes memory */\n      0x60\n        /* \"lib/EthParser.sol\":210:241  RLP.RLPItem[] memory _txDecoded */\n      dup1\n        /* \"lib/EthParser.sol\":244:277  RLP.toList(RLP.toRLPItem(_rawTx)) */\n      tag_285\n        /* \"lib/EthParser.sol\":255:276  RLP.toRLPItem(_rawTx) */\n      tag_286\n        /* \"lib/EthParser.sol\":269:275  _rawTx */\n      dup8\n        /* \"lib/EthParser.sol\":255:268  RLP.toRLPItem */\n      tag_78\n        /* \"lib/EthParser.sol\":255:276  RLP.toRLPItem(_rawTx) */\n      jump\t// in\n    tag_286:\n        /* \"lib/EthParser.sol\":244:254  RLP.toList */\n      tag_79\n        /* \"lib/EthParser.sol\":244:277  RLP.toList(RLP.toRLPItem(_rawTx)) */\n      jump\t// in\n    tag_285:\n        /* \"lib/EthParser.sol\":210:277  RLP.RLPItem[] memory _txDecoded = RLP.toList(RLP.toRLPItem(_rawTx)) */\n      swap1\n      pop\n        /* \"lib/EthParser.sol\":284:295  address _to */\n      0x00\n        /* \"lib/EthParser.sol\":298:326  RLP.toAddress(_txDecoded[3]) */\n      tag_287\n        /* \"lib/EthParser.sol\":312:322  _txDecoded */\n      dup3\n        /* \"lib/EthParser.sol\":323:324  3 */\n      0x03\n        /* \"lib/EthParser.sol\":312:325  _txDecoded[3] */\n      dup2\n      mload\n      dup2\n      lt\n      tag_288\n      jumpi\n      invalid\n    tag_288:\n      0x20\n      mul\n      0x20\n      add\n      add\n      mload\n        /* \"lib/EthParser.sol\":298:311  RLP.toAddress */\n      tag_289\n        /* \"lib/EthParser.sol\":298:326  RLP.toAddress(_txDecoded[3]) */\n      jump\t// in\n    tag_287:\n        /* \"lib/EthParser.sol\":284:326  address _to = RLP.toAddress(_txDecoded[3]) */\n      swap1\n      pop\n        /* \"lib/EthParser.sol\":332:346  uint256 _value */\n      0x00\n        /* \"lib/EthParser.sol\":349:374  RLP.toUint(_txDecoded[4]) */\n      tag_290\n        /* \"lib/EthParser.sol\":360:370  _txDecoded */\n      dup4\n        /* \"lib/EthParser.sol\":371:372  4 */\n      0x04\n        /* \"lib/EthParser.sol\":360:373  _txDecoded[4] */\n      dup2\n      mload\n      dup2\n      lt\n      tag_291\n      jumpi\n      invalid\n    tag_291:\n      0x20\n      mul\n      0x20\n      add\n      add\n      mload\n        /* \"lib/EthParser.sol\":349:359  RLP.toUint */\n      tag_87\n        /* \"lib/EthParser.sol\":349:374  RLP.toUint(_txDecoded[4]) */\n      jump\t// in\n    tag_290:\n        /* \"lib/EthParser.sol\":332:374  uint256 _value = RLP.toUint(_txDecoded[4]) */\n      swap1\n      pop\n        /* \"lib/EthParser.sol\":380:398  bytes memory _data */\n      0x60\n        /* \"lib/EthParser.sol\":401:427  RLP.toBytes(_txDecoded[5]) */\n      tag_292\n        /* \"lib/EthParser.sol\":413:423  _txDecoded */\n      dup5\n        /* \"lib/EthParser.sol\":424:425  5 */\n      0x05\n        /* \"lib/EthParser.sol\":413:426  _txDecoded[5] */\n      dup2\n      mload\n      dup2\n      lt\n      tag_293\n      jumpi\n      invalid\n    tag_293:\n      0x20\n      mul\n      0x20\n      add\n      add\n      mload\n        /* \"lib/EthParser.sol\":401:412  RLP.toBytes */\n      tag_117\n        /* \"lib/EthParser.sol\":401:427  RLP.toBytes(_txDecoded[5]) */\n      jump\t// in\n    tag_292:\n        /* \"lib/EthParser.sol\":380:427  bytes memory _data = RLP.toBytes(_txDecoded[5]) */\n      swap1\n      pop\n        /* \"lib/EthParser.sol\":434:444  uint256 _v */\n      0x00\n        /* \"lib/EthParser.sol\":447:472  RLP.toUint(_txDecoded[6]) */\n      tag_294\n        /* \"lib/EthParser.sol\":458:468  _txDecoded */\n      dup6\n        /* \"lib/EthParser.sol\":469:470  6 */\n      0x06\n        /* \"lib/EthParser.sol\":458:471  _txDecoded[6] */\n      dup2\n      mload\n      dup2\n      lt\n      tag_295\n      jumpi\n      invalid\n    tag_295:\n      0x20\n      mul\n      0x20\n      add\n      add\n      mload\n        /* \"lib/EthParser.sol\":447:457  RLP.toUint */\n      tag_87\n        /* \"lib/EthParser.sol\":447:472  RLP.toUint(_txDecoded[6]) */\n      jump\t// in\n    tag_294:\n        /* \"lib/EthParser.sol\":434:472  uint256 _v = RLP.toUint(_txDecoded[6]) */\n      swap1\n      pop\n        /* \"lib/EthParser.sol\":478:488  bytes32 _r */\n      0x00\n        /* \"lib/EthParser.sol\":491:519  RLP.toBytes32(_txDecoded[7]) */\n      tag_296\n        /* \"lib/EthParser.sol\":505:515  _txDecoded */\n      dup7\n        /* \"lib/EthParser.sol\":516:517  7 */\n      0x07\n        /* \"lib/EthParser.sol\":505:518  _txDecoded[7] */\n      dup2\n      mload\n      dup2\n      lt\n      tag_297\n      jumpi\n      invalid\n    tag_297:\n      0x20\n      mul\n      0x20\n      add\n      add\n      mload\n        /* \"lib/EthParser.sol\":491:504  RLP.toBytes32 */\n      tag_92\n        /* \"lib/EthParser.sol\":491:519  RLP.toBytes32(_txDecoded[7]) */\n      jump\t// in\n    tag_296:\n        /* \"lib/EthParser.sol\":478:519  bytes32 _r = RLP.toBytes32(_txDecoded[7]) */\n      swap1\n      pop\n        /* \"lib/EthParser.sol\":525:535  bytes32 _s */\n      0x00\n        /* \"lib/EthParser.sol\":538:566  RLP.toBytes32(_txDecoded[8]) */\n      tag_298\n        /* \"lib/EthParser.sol\":552:562  _txDecoded */\n      dup8\n        /* \"lib/EthParser.sol\":563:564  8 */\n      0x08\n        /* \"lib/EthParser.sol\":552:565  _txDecoded[8] */\n      dup2\n      mload\n      dup2\n      lt\n      tag_299\n      jumpi\n      invalid\n    tag_299:\n      0x20\n      mul\n      0x20\n      add\n      add\n      mload\n        /* \"lib/EthParser.sol\":538:551  RLP.toBytes32 */\n      tag_92\n        /* \"lib/EthParser.sol\":538:566  RLP.toBytes32(_txDecoded[8]) */\n      jump\t// in\n    tag_298:\n        /* \"lib/EthParser.sol\":525:566  bytes32 _s = RLP.toBytes32(_txDecoded[8]) */\n      swap1\n      pop\n        /* \"lib/EthParser.sol\":573:612  bytes[] memory _unsignedTransactionList */\n      0x60\n        /* \"lib/EthParser.sol\":619:633  uint8 _actualV */\n      0x00\n        /* \"lib/EthParser.sol\":639:655  uint256 _chainId */\n      dup1\n        /* \"lib/EthParser.sol\":670:672  28 */\n      0x1c\n        /* \"lib/EthParser.sol\":665:667  _v */\n      dup7\n        /* \"lib/EthParser.sol\":665:672  _v > 28 */\n      gt\n        /* \"lib/EthParser.sol\":662:1033  if(_v > 28) {... */\n      iszero\n      tag_300\n      jumpi\n        /* \"lib/EthParser.sol\":721:722  9 */\n      0x09\n        /* \"lib/EthParser.sol\":709:723  new bytes[](9) */\n      mload(0x40)\n      swap1\n      dup1\n      dup3\n      mstore\n      dup1\n      0x20\n      mul\n      0x20\n      add\n      dup3\n      add\n      0x40\n      mstore\n      dup1\n      iszero\n      tag_301\n      jumpi\n      dup2\n      0x20\n      add\n    tag_302:\n      0x60\n      dup2\n      mstore\n      0x20\n      add\n      swap1\n      0x01\n      swap1\n      sub\n      swap1\n      dup2\n      tag_302\n      jumpi\n      swap1\n      pop\n    tag_301:\n      pop\n        /* \"lib/EthParser.sol\":682:723  _unsignedTransactionList = new bytes[](9) */\n      swap3\n      pop\n        /* \"lib/EthParser.sol\":744:745  0 */\n      0x00\n        /* \"lib/EthParser.sol\":739:740  2 */\n      0x02\n        /* \"lib/EthParser.sol\":734:736  _v */\n      dup8\n        /* \"lib/EthParser.sol\":734:740  _v % 2 */\n      dup2\n      tag_303\n      jumpi\n      invalid\n    tag_303:\n      mod\n        /* \"lib/EthParser.sol\":734:745  _v % 2 == 0 */\n      eq\n        /* \"lib/EthParser.sol\":731:817  if(_v % 2 == 0) {... */\n      iszero\n      tag_304\n      jumpi\n        /* \"lib/EthParser.sol\":768:770  28 */\n      0x1c\n        /* \"lib/EthParser.sol\":757:770  _actualV = 28 */\n      swap2\n      pop\n        /* \"lib/EthParser.sol\":731:817  if(_v % 2 == 0) {... */\n      jump(tag_305)\n    tag_304:\n        /* \"lib/EthParser.sol\":806:808  27 */\n      0x1b\n        /* \"lib/EthParser.sol\":795:808  _actualV = 27 */\n      swap2\n      pop\n        /* \"lib/EthParser.sol\":731:817  if(_v % 2 == 0) {... */\n    tag_305:\n        /* \"lib/EthParser.sol\":858:859  2 */\n      0x02\n        /* \"lib/EthParser.sol\":853:854  8 */\n      0x08\n        /* \"lib/EthParser.sol\":842:850  _actualV */\n      dup4\n        /* \"lib/EthParser.sol\":837:850  _v - _actualV */\n      0xff\n      and\n        /* \"lib/EthParser.sol\":837:839  _v */\n      dup9\n        /* \"lib/EthParser.sol\":837:850  _v - _actualV */\n      sub\n        /* \"lib/EthParser.sol\":837:854  _v - _actualV - 8 */\n      sub\n        /* \"lib/EthParser.sol\":836:859  (_v - _actualV - 8) / 2 */\n      dup2\n      tag_306\n      jumpi\n      invalid\n    tag_306:\n      div\n        /* \"lib/EthParser.sol\":825:859  _chainId = (_v - _actualV - 8) / 2 */\n      swap1\n      pop\n        /* \"lib/EthParser.sol\":898:936  BytesLib.packedBytesFromUint(_chainId) */\n      tag_307\n        /* \"lib/EthParser.sol\":927:935  _chainId */\n      dup2\n        /* \"lib/EthParser.sol\":898:926  BytesLib.packedBytesFromUint */\n      tag_308\n        /* \"lib/EthParser.sol\":898:936  BytesLib.packedBytesFromUint(_chainId) */\n      jump\t// in\n    tag_307:\n        /* \"lib/EthParser.sol\":868:892  _unsignedTransactionList */\n      dup4\n        /* \"lib/EthParser.sol\":893:894  6 */\n      0x06\n        /* \"lib/EthParser.sol\":868:895  _unsignedTransactionList[6] */\n      dup2\n      mload\n      dup2\n      lt\n      tag_309\n      jumpi\n      invalid\n    tag_309:\n      0x20\n      mul\n      0x20\n      add\n      add\n        /* \"lib/EthParser.sol\":868:936  _unsignedTransactionList[6] = BytesLib.packedBytesFromUint(_chainId) */\n      dup2\n      swap1\n      mstore\n      pop\n        /* \"lib/EthParser.sol\":662:1033  if(_v > 28) {... */\n      jump(tag_310)\n    tag_300:\n        /* \"lib/EthParser.sol\":996:997  6 */\n      0x06\n        /* \"lib/EthParser.sol\":984:998  new bytes[](6) */\n      mload(0x40)\n      swap1\n      dup1\n      dup3\n      mstore\n      dup1\n      0x20\n      mul\n      0x20\n      add\n      dup3\n      add\n      0x40\n      mstore\n      dup1\n      iszero\n      tag_311\n      jumpi\n      dup2\n      0x20\n      add\n    tag_312:\n      0x60\n      dup2\n      mstore\n      0x20\n      add\n      swap1\n      0x01\n      swap1\n      sub\n      swap1\n      dup2\n      tag_312\n      jumpi\n      swap1\n      pop\n    tag_311:\n      pop\n        /* \"lib/EthParser.sol\":957:998  _unsignedTransactionList = new bytes[](6) */\n      swap3\n      pop\n        /* \"lib/EthParser.sol\":1023:1025  _v */\n      dup6\n        /* \"lib/EthParser.sol\":1006:1026  _actualV = uint8(_v) */\n      swap2\n      pop\n        /* \"lib/EthParser.sol\":662:1033  if(_v > 28) {... */\n    tag_310:\n        /* \"lib/EthParser.sol\":1043:1052  uint256 i */\n      0x00\n        /* \"lib/EthParser.sol\":1055:1056  0 */\n      dup1\n        /* \"lib/EthParser.sol\":1043:1056  uint256 i = 0 */\n      swap1\n      pop\n        /* \"lib/EthParser.sol\":1039:1141  for(uint256 i = 0; i < 6; i++) {... */\n    tag_313:\n        /* \"lib/EthParser.sol\":1062:1063  6 */\n      0x06\n        /* \"lib/EthParser.sol\":1058:1059  i */\n      dup2\n        /* \"lib/EthParser.sol\":1058:1063  i < 6 */\n      lt\n        /* \"lib/EthParser.sol\":1039:1141  for(uint256 i = 0; i < 6; i++) {... */\n      iszero\n      tag_314\n      jumpi\n        /* \"lib/EthParser.sol\":1108:1134  RLP.toBytes(_txDecoded[i]) */\n      tag_316\n        /* \"lib/EthParser.sol\":1120:1130  _txDecoded */\n      dup12\n        /* \"lib/EthParser.sol\":1131:1132  i */\n      dup3\n        /* \"lib/EthParser.sol\":1120:1133  _txDecoded[i] */\n      dup2\n      mload\n      dup2\n      lt\n      tag_317\n      jumpi\n      invalid\n    tag_317:\n      0x20\n      mul\n      0x20\n      add\n      add\n      mload\n        /* \"lib/EthParser.sol\":1108:1119  RLP.toBytes */\n      tag_117\n        /* \"lib/EthParser.sol\":1108:1134  RLP.toBytes(_txDecoded[i]) */\n      jump\t// in\n    tag_316:\n        /* \"lib/EthParser.sol\":1078:1102  _unsignedTransactionList */\n      dup5\n        /* \"lib/EthParser.sol\":1103:1104  i */\n      dup3\n        /* \"lib/EthParser.sol\":1078:1105  _unsignedTransactionList[i] */\n      dup2\n      mload\n      dup2\n      lt\n      tag_318\n      jumpi\n      invalid\n    tag_318:\n      0x20\n      mul\n      0x20\n      add\n      add\n        /* \"lib/EthParser.sol\":1078:1134  _unsignedTransactionList[i] = RLP.toBytes(_txDecoded[i]) */\n      dup2\n      swap1\n      mstore\n      pop\n        /* \"lib/EthParser.sol\":1065:1068  i++ */\n      dup1\n      dup1\n      0x01\n      add\n      swap2\n      pop\n      pop\n        /* \"lib/EthParser.sol\":1039:1141  for(uint256 i = 0; i < 6; i++) {... */\n      jump(tag_313)\n    tag_314:\n      pop\n        /* \"lib/EthParser.sol\":1147:1180  bytes memory _unsignedTransaction */\n      0x60\n        /* \"lib/EthParser.sol\":1183:1229  RLPEncode.encodeList(_unsignedTransactionList) */\n      tag_319\n        /* \"lib/EthParser.sol\":1204:1228  _unsignedTransactionList */\n      dup5\n        /* \"lib/EthParser.sol\":1183:1203  RLPEncode.encodeList */\n      tag_320\n        /* \"lib/EthParser.sol\":1183:1229  RLPEncode.encodeList(_unsignedTransactionList) */\n      jump\t// in\n    tag_319:\n        /* \"lib/EthParser.sol\":1147:1229  bytes memory _unsignedTransaction = RLPEncode.encodeList(_unsignedTransactionList) */\n      swap1\n      pop\n        /* \"lib/EthParser.sol\":1236:1251  address _signer */\n      0x00\n        /* \"lib/EthParser.sol\":1254:1314  ecrecover(keccak256(_unsignedTransaction), _actualV, _r, _s) */\n      0x01\n        /* \"lib/EthParser.sol\":1274:1294  _unsignedTransaction */\n      dup3\n        /* \"lib/EthParser.sol\":1264:1295  keccak256(_unsignedTransaction) */\n      dup1\n      mload\n      swap1\n      0x20\n      add\n      keccak256\n        /* \"lib/EthParser.sol\":1297:1305  _actualV */\n      dup6\n        /* \"lib/EthParser.sol\":1307:1309  _r */\n      dup10\n        /* \"lib/EthParser.sol\":1311:1313  _s */\n      dup10\n        /* \"lib/EthParser.sol\":1254:1314  ecrecover(keccak256(_unsignedTransaction), _actualV, _r, _s) */\n      mload(0x40)\n      0x00\n      dup2\n      mstore\n      0x20\n      add\n      0x40\n      mstore\n      mload(0x40)\n      dup1\n      dup6\n      dup2\n      mstore\n      0x20\n      add\n      dup5\n      0xff\n      and\n      0xff\n      and\n      dup2\n      mstore\n      0x20\n      add\n      dup4\n      dup2\n      mstore\n      0x20\n      add\n      dup3\n      dup2\n      mstore\n      0x20\n      add\n      swap5\n      pop\n      pop\n      pop\n      pop\n      pop\n      0x20\n      mload(0x40)\n      0x20\n      dup2\n      sub\n      swap1\n      dup1\n      dup5\n      sub\n      swap1\n      dup6\n      gas\n      staticcall\n      iszero\n        /* \"--CODEGEN--\":8:17   */\n      dup1\n        /* \"--CODEGEN--\":5:7   */\n      iszero\n      tag_322\n      jumpi\n        /* \"--CODEGEN--\":45:61   */\n      returndatasize\n        /* \"--CODEGEN--\":42:43   */\n      0x00\n        /* \"--CODEGEN--\":39:40   */\n      dup1\n        /* \"--CODEGEN--\":24:62   */\n      returndatacopy\n        /* \"--CODEGEN--\":77:93   */\n      returndatasize\n        /* \"--CODEGEN--\":74:75   */\n      0x00\n        /* \"--CODEGEN--\":67:94   */\n      revert\n        /* \"--CODEGEN--\":5:7   */\n    tag_322:\n        /* \"lib/EthParser.sol\":1254:1314  ecrecover(keccak256(_unsignedTransaction), _actualV, _r, _s) */\n      pop\n      pop\n      pop\n      mload(sub(mload(0x40), 0x20))\n        /* \"lib/EthParser.sol\":1236:1314  address _signer = ecrecover(keccak256(_unsignedTransaction), _actualV, _r, _s) */\n      swap1\n      pop\n        /* \"lib/EthParser.sol\":1329:1336  _signer */\n      dup1\n        /* \"lib/EthParser.sol\":1338:1341  _to */\n      dup12\n        /* \"lib/EthParser.sol\":1343:1349  _value */\n      dup12\n        /* \"lib/EthParser.sol\":1351:1356  _data */\n      dup12\n        /* \"lib/EthParser.sol\":1321:1357  return (_signer, _to, _value, _data) */\n      swap16\n      pop\n      swap16\n      pop\n      swap16\n      pop\n      swap16\n      pop\n      pop\n      pop\n      pop\n      pop\n      pop\n      pop\n      pop\n      pop\n      pop\n      pop\n      pop\n      pop\n        /* \"lib/EthParser.sol\":93:1362  function parseTransaction(bytes memory _rawTx) internal pure returns (address, address, uint256, bytes memory) {... */\n      swap2\n      swap4\n      pop\n      swap2\n      swap4\n      jump\t// out\n        /* \"lib/RLP.sol\":2805:3086  function isList(RLPItem memory item) internal pure returns (bool) {... */\n    tag_172:\n        /* \"lib/RLP.sol\":2865:2869  bool */\n      0x00\n        /* \"lib/RLP.sol\":2892:2893  0 */\n      dup1\n        /* \"lib/RLP.sol\":2880:2884  item */\n      dup3\n        /* \"lib/RLP.sol\":2880:2888  item.len */\n      0x00\n      add\n      mload\n        /* \"lib/RLP.sol\":2880:2893  item.len == 0 */\n      eq\n        /* \"lib/RLP.sol\":2877:2907  if(item.len == 0) return false */\n      iszero\n      tag_324\n      jumpi\n        /* \"lib/RLP.sol\":2902:2907  false */\n      0x00\n        /* \"lib/RLP.sol\":2895:2907  return false */\n      swap1\n      pop\n      jump(tag_323)\n        /* \"lib/RLP.sol\":2877:2907  if(item.len == 0) return false */\n    tag_324:\n        /* \"lib/RLP.sol\":2914:2925  uint8 byte0 */\n      0x00\n        /* \"lib/RLP.sol\":2931:2942  uint memPtr */\n      dup1\n        /* \"lib/RLP.sol\":2945:2949  item */\n      dup4\n        /* \"lib/RLP.sol\":2945:2956  item.memPtr */\n      0x20\n      add\n      mload\n        /* \"lib/RLP.sol\":2931:2956  uint memPtr = item.memPtr */\n      swap1\n      pop\n        /* \"lib/RLP.sol\":3002:3008  memPtr */\n      dup1\n        /* \"lib/RLP.sol\":2996:3009  mload(memPtr) */\n      mload\n        /* \"lib/RLP.sol\":2993:2994  0 */\n      0x00\n        /* \"lib/RLP.sol\":2988:3010  byte(0, mload(memPtr)) */\n      byte\n        /* \"lib/RLP.sol\":2979:3010  byte0 := byte(0, mload(memPtr)) */\n      swap2\n      pop\n        /* \"lib/RLP.sol\":264:268  0xc0 */\n      0xc0\n        /* \"lib/RLP.sol\":3025:3049  byte0 < LIST_SHORT_START */\n      0xff\n      and\n        /* \"lib/RLP.sol\":3025:3030  byte0 */\n      dup3\n        /* \"lib/RLP.sol\":3025:3049  byte0 < LIST_SHORT_START */\n      0xff\n      and\n      lt\n        /* \"lib/RLP.sol\":3022:3063  if(byte0 < LIST_SHORT_START) return false */\n      iszero\n      tag_325\n      jumpi\n        /* \"lib/RLP.sol\":3058:3063  false */\n      0x00\n        /* \"lib/RLP.sol\":3051:3063  return false */\n      swap3\n      pop\n      pop\n      pop\n      jump(tag_323)\n        /* \"lib/RLP.sol\":3022:3063  if(byte0 < LIST_SHORT_START) return false */\n    tag_325:\n        /* \"lib/RLP.sol\":3077:3081  true */\n      0x01\n        /* \"lib/RLP.sol\":3070:3081  return true */\n      swap3\n      pop\n      pop\n      pop\n        /* \"lib/RLP.sol\":2805:3086  function isList(RLPItem memory item) internal pure returns (bool) {... */\n    tag_323:\n      swap2\n      swap1\n      pop\n      jump\t// out\n        /* \"lib/RLP.sol\":6205:6575  function numItems(RLPItem memory item) private pure returns (uint) {... */\n    tag_175:\n        /* \"lib/RLP.sol\":6266:6270  uint */\n      0x00\n        /* \"lib/RLP.sol\":6294:6295  0 */\n      dup1\n        /* \"lib/RLP.sol\":6282:6286  item */\n      dup3\n        /* \"lib/RLP.sol\":6282:6290  item.len */\n      0x00\n      add\n      mload\n        /* \"lib/RLP.sol\":6282:6295  item.len == 0 */\n      eq\n        /* \"lib/RLP.sol\":6278:6305  if (item.len == 0) return 0 */\n      iszero\n      tag_327\n      jumpi\n        /* \"lib/RLP.sol\":6304:6305  0 */\n      0x00\n        /* \"lib/RLP.sol\":6297:6305  return 0 */\n      swap1\n      pop\n      jump(tag_326)\n        /* \"lib/RLP.sol\":6278:6305  if (item.len == 0) return 0 */\n    tag_327:\n        /* \"lib/RLP.sol\":6312:6322  uint count */\n      0x00\n        /* \"lib/RLP.sol\":6325:6326  0 */\n      dup1\n        /* \"lib/RLP.sol\":6312:6326  uint count = 0 */\n      swap1\n      pop\n        /* \"lib/RLP.sol\":6332:6344  uint currPtr */\n      0x00\n        /* \"lib/RLP.sol\":6361:6388  _payloadOffset(item.memPtr) */\n      tag_328\n        /* \"lib/RLP.sol\":6376:6380  item */\n      dup5\n        /* \"lib/RLP.sol\":6376:6387  item.memPtr */\n      0x20\n      add\n      mload\n        /* \"lib/RLP.sol\":6361:6375  _payloadOffset */\n      tag_181\n        /* \"lib/RLP.sol\":6361:6388  _payloadOffset(item.memPtr) */\n      jump\t// in\n    tag_328:\n        /* \"lib/RLP.sol\":6347:6351  item */\n      dup5\n        /* \"lib/RLP.sol\":6347:6358  item.memPtr */\n      0x20\n      add\n      mload\n        /* \"lib/RLP.sol\":6347:6388  item.memPtr + _payloadOffset(item.memPtr) */\n      add\n        /* \"lib/RLP.sol\":6332:6388  uint currPtr = item.memPtr + _payloadOffset(item.memPtr) */\n      swap1\n      pop\n        /* \"lib/RLP.sol\":6394:6405  uint endPtr */\n      0x00\n        /* \"lib/RLP.sol\":6422:6426  item */\n      dup5\n        /* \"lib/RLP.sol\":6422:6430  item.len */\n      0x00\n      add\n      mload\n        /* \"lib/RLP.sol\":6408:6412  item */\n      dup6\n        /* \"lib/RLP.sol\":6408:6419  item.memPtr */\n      0x20\n      add\n      mload\n        /* \"lib/RLP.sol\":6408:6430  item.memPtr + item.len */\n      add\n        /* \"lib/RLP.sol\":6394:6430  uint endPtr = item.memPtr + item.len */\n      swap1\n      pop\n        /* \"lib/RLP.sol\":6436:6552  while (currPtr < endPtr) {... */\n    tag_329:\n        /* \"lib/RLP.sol\":6453:6459  endPtr */\n      dup1\n        /* \"lib/RLP.sol\":6443:6450  currPtr */\n      dup3\n        /* \"lib/RLP.sol\":6443:6459  currPtr < endPtr */\n      lt\n        /* \"lib/RLP.sol\":6436:6552  while (currPtr < endPtr) {... */\n      iszero\n      tag_330\n      jumpi\n        /* \"lib/RLP.sol\":6489:6509  _itemLength(currPtr) */\n      tag_331\n        /* \"lib/RLP.sol\":6501:6508  currPtr */\n      dup3\n        /* \"lib/RLP.sol\":6489:6500  _itemLength */\n      tag_186\n        /* \"lib/RLP.sol\":6489:6509  _itemLength(currPtr) */\n      jump\t// in\n    tag_331:\n        /* \"lib/RLP.sol\":6479:6486  currPtr */\n      dup3\n        /* \"lib/RLP.sol\":6479:6509  currPtr + _itemLength(currPtr) */\n      add\n        /* \"lib/RLP.sol\":6469:6509  currPtr = currPtr + _itemLength(currPtr) */\n      swap2\n      pop\n        /* \"lib/RLP.sol\":6538:6545  count++ */\n      dup3\n      dup1\n      0x01\n      add\n      swap4\n      pop\n      pop\n        /* \"lib/RLP.sol\":6436:6552  while (currPtr < endPtr) {... */\n      jump(tag_329)\n    tag_330:\n        /* \"lib/RLP.sol\":6565:6570  count */\n      dup3\n        /* \"lib/RLP.sol\":6558:6570  return count */\n      swap4\n      pop\n      pop\n      pop\n      pop\n        /* \"lib/RLP.sol\":6205:6575  function numItems(RLPItem memory item) private pure returns (uint) {... */\n    tag_326:\n      swap2\n      swap1\n      pop\n      jump\t// out\n        /* \"lib/RLP.sol\":7757:8234  function _payloadOffset(uint memPtr) private pure returns (uint) {... */\n    tag_181:\n        /* \"lib/RLP.sol\":7816:7820  uint */\n      0x00\n        /* \"lib/RLP.sol\":7828:7838  uint byte0 */\n      dup1\n        /* \"lib/RLP.sol\":7884:7890  memPtr */\n      dup3\n        /* \"lib/RLP.sol\":7878:7891  mload(memPtr) */\n      mload\n        /* \"lib/RLP.sol\":7875:7876  0 */\n      0x00\n        /* \"lib/RLP.sol\":7870:7892  byte(0, mload(memPtr)) */\n      byte\n        /* \"lib/RLP.sol\":7861:7892  byte0 := byte(0, mload(memPtr)) */\n      swap1\n      pop\n        /* \"lib/RLP.sol\":176:180  0x80 */\n      0x80\n        /* \"lib/RLP.sol\":7908:7934  byte0 < STRING_SHORT_START */\n      0xff\n      and\n        /* \"lib/RLP.sol\":7908:7913  byte0 */\n      dup2\n        /* \"lib/RLP.sol\":7908:7934  byte0 < STRING_SHORT_START */\n      lt\n        /* \"lib/RLP.sol\":7904:8229  if (byte0 < STRING_SHORT_START)... */\n      iszero\n      tag_333\n      jumpi\n        /* \"lib/RLP.sol\":7949:7950  0 */\n      0x00\n        /* \"lib/RLP.sol\":7942:7950  return 0 */\n      swap2\n      pop\n      pop\n      jump(tag_332)\n        /* \"lib/RLP.sol\":7904:8229  if (byte0 < STRING_SHORT_START)... */\n    tag_333:\n        /* \"lib/RLP.sol\":220:224  0xb8 */\n      0xb8\n        /* \"lib/RLP.sol\":7965:7990  byte0 < STRING_LONG_START */\n      0xff\n      and\n        /* \"lib/RLP.sol\":7965:7970  byte0 */\n      dup2\n        /* \"lib/RLP.sol\":7965:7990  byte0 < STRING_LONG_START */\n      lt\n        /* \"lib/RLP.sol\":7965:8048  byte0 < STRING_LONG_START || (byte0 >= LIST_SHORT_START && byte0 < LIST_LONG_START) */\n      dup1\n      tag_335\n      jumpi\n      pop\n        /* \"lib/RLP.sol\":264:268  0xc0 */\n      0xc0\n        /* \"lib/RLP.sol\":7995:8020  byte0 >= LIST_SHORT_START */\n      0xff\n      and\n        /* \"lib/RLP.sol\":7995:8000  byte0 */\n      dup2\n        /* \"lib/RLP.sol\":7995:8020  byte0 >= LIST_SHORT_START */\n      lt\n      iszero\n        /* \"lib/RLP.sol\":7995:8047  byte0 >= LIST_SHORT_START && byte0 < LIST_LONG_START */\n      dup1\n      iszero\n      tag_336\n      jumpi\n      pop\n        /* \"lib/RLP.sol\":308:312  0xf8 */\n      0xf8\n        /* \"lib/RLP.sol\":8024:8047  byte0 < LIST_LONG_START */\n      0xff\n      and\n        /* \"lib/RLP.sol\":8024:8029  byte0 */\n      dup2\n        /* \"lib/RLP.sol\":8024:8047  byte0 < LIST_LONG_START */\n      lt\n        /* \"lib/RLP.sol\":7995:8047  byte0 >= LIST_SHORT_START && byte0 < LIST_LONG_START */\n    tag_336:\n        /* \"lib/RLP.sol\":7965:8048  byte0 < STRING_LONG_START || (byte0 >= LIST_SHORT_START && byte0 < LIST_LONG_START) */\n    tag_335:\n        /* \"lib/RLP.sol\":7961:8229  if (byte0 < STRING_LONG_START || (byte0 >= LIST_SHORT_START && byte0 < LIST_LONG_START))... */\n      iszero\n      tag_337\n      jumpi\n        /* \"lib/RLP.sol\":8063:8064  1 */\n      0x01\n        /* \"lib/RLP.sol\":8056:8064  return 1 */\n      swap2\n      pop\n      pop\n      jump(tag_332)\n        /* \"lib/RLP.sol\":7961:8229  if (byte0 < STRING_LONG_START || (byte0 >= LIST_SHORT_START && byte0 < LIST_LONG_START))... */\n    tag_337:\n        /* \"lib/RLP.sol\":264:268  0xc0 */\n      0xc0\n        /* \"lib/RLP.sol\":8079:8103  byte0 < LIST_SHORT_START */\n      0xff\n      and\n        /* \"lib/RLP.sol\":8079:8084  byte0 */\n      dup2\n        /* \"lib/RLP.sol\":8079:8103  byte0 < LIST_SHORT_START */\n      lt\n        /* \"lib/RLP.sol\":8075:8229  if (byte0 < LIST_SHORT_START)  // being explicit... */\n      iszero\n      tag_339\n      jumpi\n        /* \"lib/RLP.sol\":8171:8172  1 */\n      0x01\n        /* \"lib/RLP.sol\":8166:8167  1 */\n      dup1\n        /* \"lib/RLP.sol\":220:224  0xb8 */\n      0xb8\n        /* \"lib/RLP.sol\":8146:8167  STRING_LONG_START - 1 */\n      sub\n        /* \"lib/RLP.sol\":8137:8168  byte0 - (STRING_LONG_START - 1) */\n      0xff\n      and\n        /* \"lib/RLP.sol\":8137:8142  byte0 */\n      dup3\n        /* \"lib/RLP.sol\":8137:8168  byte0 - (STRING_LONG_START - 1) */\n      sub\n        /* \"lib/RLP.sol\":8137:8172  byte0 - (STRING_LONG_START - 1) + 1 */\n      add\n        /* \"lib/RLP.sol\":8130:8172  return byte0 - (STRING_LONG_START - 1) + 1 */\n      swap2\n      pop\n      pop\n      jump(tag_332)\n        /* \"lib/RLP.sol\":8075:8229  if (byte0 < LIST_SHORT_START)  // being explicit... */\n    tag_339:\n        /* \"lib/RLP.sol\":8228:8229  1 */\n      0x01\n        /* \"lib/RLP.sol\":8223:8224  1 */\n      dup1\n        /* \"lib/RLP.sol\":308:312  0xf8 */\n      0xf8\n        /* \"lib/RLP.sol\":8205:8224  LIST_LONG_START - 1 */\n      sub\n        /* \"lib/RLP.sol\":8196:8225  byte0 - (LIST_LONG_START - 1) */\n      0xff\n      and\n        /* \"lib/RLP.sol\":8196:8201  byte0 */\n      dup3\n        /* \"lib/RLP.sol\":8196:8225  byte0 - (LIST_LONG_START - 1) */\n      sub\n        /* \"lib/RLP.sol\":8196:8229  byte0 - (LIST_LONG_START - 1) + 1 */\n      add\n        /* \"lib/RLP.sol\":8189:8229  return byte0 - (LIST_LONG_START - 1) + 1 */\n      swap2\n      pop\n      pop\n        /* \"lib/RLP.sol\":7757:8234  function _payloadOffset(uint memPtr) private pure returns (uint) {... */\n    tag_332:\n      swap2\n      swap1\n      pop\n      jump\t// out\n        /* \"lib/RLP.sol\":6620:7709  function _itemLength(uint memPtr) private pure returns (uint) {... */\n    tag_186:\n        /* \"lib/RLP.sol\":6676:6680  uint */\n      0x00\n        /* \"lib/RLP.sol\":6688:6700  uint itemLen */\n      dup1\n        /* \"lib/RLP.sol\":6706:6716  uint byte0 */\n      0x00\n        /* \"lib/RLP.sol\":6762:6768  memPtr */\n      dup4\n        /* \"lib/RLP.sol\":6756:6769  mload(memPtr) */\n      mload\n        /* \"lib/RLP.sol\":6753:6754  0 */\n      0x00\n        /* \"lib/RLP.sol\":6748:6770  byte(0, mload(memPtr)) */\n      byte\n        /* \"lib/RLP.sol\":6739:6770  byte0 := byte(0, mload(memPtr)) */\n      swap1\n      pop\n        /* \"lib/RLP.sol\":176:180  0x80 */\n      0x80\n        /* \"lib/RLP.sol\":6786:6812  byte0 < STRING_SHORT_START */\n      0xff\n      and\n        /* \"lib/RLP.sol\":6786:6791  byte0 */\n      dup2\n        /* \"lib/RLP.sol\":6786:6812  byte0 < STRING_SHORT_START */\n      lt\n        /* \"lib/RLP.sol\":6782:7684  if (byte0 < STRING_SHORT_START)... */\n      iszero\n      tag_342\n      jumpi\n        /* \"lib/RLP.sol\":6830:6831  1 */\n      0x01\n        /* \"lib/RLP.sol\":6820:6831  itemLen = 1 */\n      swap2\n      pop\n        /* \"lib/RLP.sol\":6782:7684  if (byte0 < STRING_SHORT_START)... */\n      jump(tag_343)\n    tag_342:\n        /* \"lib/RLP.sol\":220:224  0xb8 */\n      0xb8\n        /* \"lib/RLP.sol\":6847:6872  byte0 < STRING_LONG_START */\n      0xff\n      and\n        /* \"lib/RLP.sol\":6847:6852  byte0 */\n      dup2\n        /* \"lib/RLP.sol\":6847:6872  byte0 < STRING_LONG_START */\n      lt\n        /* \"lib/RLP.sol\":6843:7684  if (byte0 < STRING_LONG_START)... */\n      iszero\n      tag_344\n      jumpi\n        /* \"lib/RLP.sol\":6919:6920  1 */\n      0x01\n        /* \"lib/RLP.sol\":176:180  0x80 */\n      0x80\n        /* \"lib/RLP.sol\":6890:6916  byte0 - STRING_SHORT_START */\n      0xff\n      and\n        /* \"lib/RLP.sol\":6890:6895  byte0 */\n      dup3\n        /* \"lib/RLP.sol\":6890:6916  byte0 - STRING_SHORT_START */\n      sub\n        /* \"lib/RLP.sol\":6890:6920  byte0 - STRING_SHORT_START + 1 */\n      add\n        /* \"lib/RLP.sol\":6880:6920  itemLen = byte0 - STRING_SHORT_START + 1 */\n      swap2\n      pop\n        /* \"lib/RLP.sol\":6843:7684  if (byte0 < STRING_LONG_START)... */\n      jump(tag_345)\n    tag_344:\n        /* \"lib/RLP.sol\":264:268  0xc0 */\n      0xc0\n        /* \"lib/RLP.sol\":6936:6960  byte0 < LIST_SHORT_START */\n      0xff\n      and\n        /* \"lib/RLP.sol\":6936:6941  byte0 */\n      dup2\n        /* \"lib/RLP.sol\":6936:6960  byte0 < LIST_SHORT_START */\n      lt\n        /* \"lib/RLP.sol\":6932:7684  if (byte0 < LIST_SHORT_START) {... */\n      iszero\n      tag_346\n      jumpi\n        /* \"lib/RLP.sol\":7015:7019  0xb7 */\n      0xb7\n        /* \"lib/RLP.sol\":7008:7013  byte0 */\n      dup2\n        /* \"lib/RLP.sol\":7004:7020  sub(byte0, 0xb7) */\n      sub\n        /* \"lib/RLP.sol\":7086:7087  1 */\n      0x01\n        /* \"lib/RLP.sol\":7078:7084  memPtr */\n      dup6\n        /* \"lib/RLP.sol\":7074:7088  add(memPtr, 1) */\n      add\n        /* \"lib/RLP.sol\":7064:7088  memPtr := add(memPtr, 1) */\n      swap5\n      pop\n        /* \"lib/RLP.sol\":7209:7216  byteLen */\n      dup1\n        /* \"lib/RLP.sol\":7205:7207  32 */\n      0x20\n        /* \"lib/RLP.sol\":7201:7217  sub(32, byteLen) */\n      sub\n        /* \"lib/RLP.sol\":7196:7199  256 */\n      0x0100\n        /* \"lib/RLP.sol\":7192:7218  exp(256, sub(32, byteLen)) */\n      exp\n        /* \"lib/RLP.sol\":7183:7189  memPtr */\n      dup6\n        /* \"lib/RLP.sol\":7177:7190  mload(memPtr) */\n      mload\n        /* \"lib/RLP.sol\":7173:7219  div(mload(memPtr), exp(256, sub(32, byteLen))) */\n      div\n        /* \"lib/RLP.sol\":7298:7299  1 */\n      0x01\n        /* \"lib/RLP.sol\":7289:7296  byteLen */\n      dup3\n        /* \"lib/RLP.sol\":7285:7300  add(byteLen, 1) */\n      add\n        /* \"lib/RLP.sol\":7276:7283  dataLen */\n      dup2\n        /* \"lib/RLP.sol\":7272:7301  add(dataLen, add(byteLen, 1)) */\n      add\n        /* \"lib/RLP.sol\":7261:7301  itemLen := add(dataLen, add(byteLen, 1)) */\n      swap4\n      pop\n        /* \"lib/RLP.sol\":6979:7309  {... */\n      pop\n      pop\n      jump(tag_347)\n    tag_346:\n        /* \"lib/RLP.sol\":308:312  0xf8 */\n      0xf8\n        /* \"lib/RLP.sol\":7330:7353  byte0 < LIST_LONG_START */\n      0xff\n      and\n        /* \"lib/RLP.sol\":7330:7335  byte0 */\n      dup2\n        /* \"lib/RLP.sol\":7330:7353  byte0 < LIST_LONG_START */\n      lt\n        /* \"lib/RLP.sol\":7326:7684  if (byte0 < LIST_LONG_START) {... */\n      iszero\n      tag_348\n      jumpi\n        /* \"lib/RLP.sol\":7400:7401  1 */\n      0x01\n        /* \"lib/RLP.sol\":264:268  0xc0 */\n      0xc0\n        /* \"lib/RLP.sol\":7373:7397  byte0 - LIST_SHORT_START */\n      0xff\n      and\n        /* \"lib/RLP.sol\":7373:7378  byte0 */\n      dup3\n        /* \"lib/RLP.sol\":7373:7397  byte0 - LIST_SHORT_START */\n      sub\n        /* \"lib/RLP.sol\":7373:7401  byte0 - LIST_SHORT_START + 1 */\n      add\n        /* \"lib/RLP.sol\":7363:7401  itemLen = byte0 - LIST_SHORT_START + 1 */\n      swap2\n      pop\n        /* \"lib/RLP.sol\":7326:7684  if (byte0 < LIST_LONG_START) {... */\n      jump(tag_349)\n    tag_348:\n        /* \"lib/RLP.sol\":7472:7476  0xf7 */\n      0xf7\n        /* \"lib/RLP.sol\":7465:7470  byte0 */\n      dup2\n        /* \"lib/RLP.sol\":7461:7477  sub(byte0, 0xf7) */\n      sub\n        /* \"lib/RLP.sol\":7508:7509  1 */\n      0x01\n        /* \"lib/RLP.sol\":7500:7506  memPtr */\n      dup6\n        /* \"lib/RLP.sol\":7496:7510  add(memPtr, 1) */\n      add\n        /* \"lib/RLP.sol\":7486:7510  memPtr := add(memPtr, 1) */\n      swap5\n      pop\n        /* \"lib/RLP.sol\":7571:7578  byteLen */\n      dup1\n        /* \"lib/RLP.sol\":7567:7569  32 */\n      0x20\n        /* \"lib/RLP.sol\":7563:7579  sub(32, byteLen) */\n      sub\n        /* \"lib/RLP.sol\":7558:7561  256 */\n      0x0100\n        /* \"lib/RLP.sol\":7554:7580  exp(256, sub(32, byteLen)) */\n      exp\n        /* \"lib/RLP.sol\":7545:7551  memPtr */\n      dup6\n        /* \"lib/RLP.sol\":7539:7552  mload(memPtr) */\n      mload\n        /* \"lib/RLP.sol\":7535:7581  div(mload(memPtr), exp(256, sub(32, byteLen))) */\n      div\n        /* \"lib/RLP.sol\":7667:7668  1 */\n      0x01\n        /* \"lib/RLP.sol\":7658:7665  byteLen */\n      dup3\n        /* \"lib/RLP.sol\":7654:7669  add(byteLen, 1) */\n      add\n        /* \"lib/RLP.sol\":7645:7652  dataLen */\n      dup2\n        /* \"lib/RLP.sol\":7641:7670  add(dataLen, add(byteLen, 1)) */\n      add\n        /* \"lib/RLP.sol\":7630:7670  itemLen := add(dataLen, add(byteLen, 1)) */\n      swap4\n      pop\n        /* \"lib/RLP.sol\":7436:7678  {... */\n      pop\n      pop\n    tag_349:\n        /* \"lib/RLP.sol\":6932:7684  if (byte0 < LIST_SHORT_START) {... */\n    tag_347:\n        /* \"lib/RLP.sol\":6843:7684  if (byte0 < STRING_LONG_START)... */\n    tag_345:\n        /* \"lib/RLP.sol\":6782:7684  if (byte0 < STRING_SHORT_START)... */\n    tag_343:\n        /* \"lib/RLP.sol\":7697:7704  itemLen */\n      dup2\n        /* \"lib/RLP.sol\":7690:7704  return itemLen */\n      swap3\n      pop\n      pop\n      pop\n        /* \"lib/RLP.sol\":6620:7709  function _itemLength(uint memPtr) private pure returns (uint) {... */\n      swap2\n      swap1\n      pop\n      jump\t// out\n        /* \"lib/RLP.sol\":8376:8991  function copy(uint src, uint dest, uint len) private pure {... */\n    tag_205:\n        /* \"lib/RLP.sol\":8451:8452  0 */\n      0x00\n        /* \"lib/RLP.sol\":8444:8447  len */\n      dup2\n        /* \"lib/RLP.sol\":8444:8452  len == 0 */\n      eq\n        /* \"lib/RLP.sol\":8440:8461  if (len == 0) return; */\n      iszero\n      tag_351\n      jumpi\n        /* \"lib/RLP.sol\":8454:8461  return; */\n      jump(tag_350)\n        /* \"lib/RLP.sol\":8440:8461  if (len == 0) return; */\n    tag_351:\n        /* \"lib/RLP.sol\":8510:8670  for (; len >= WORD_SIZE; len -= WORD_SIZE) {... */\n    tag_352:\n        /* \"lib/RLP.sol\":343:345  32 */\n      0x20\n        /* \"lib/RLP.sol\":8517:8533  len >= WORD_SIZE */\n      0xff\n      and\n        /* \"lib/RLP.sol\":8517:8520  len */\n      dup2\n        /* \"lib/RLP.sol\":8517:8533  len >= WORD_SIZE */\n      lt\n        /* \"lib/RLP.sol\":8510:8670  for (; len >= WORD_SIZE; len -= WORD_SIZE) {... */\n      tag_353\n      jumpi\n        /* \"lib/RLP.sol\":8601:8604  src */\n      dup3\n        /* \"lib/RLP.sol\":8595:8605  mload(src) */\n      mload\n        /* \"lib/RLP.sol\":8589:8593  dest */\n      dup3\n        /* \"lib/RLP.sol\":8582:8606  mstore(dest, mload(src)) */\n      mstore\n        /* \"lib/RLP.sol\":343:345  32 */\n      0x20\n        /* \"lib/RLP.sol\":8622:8638  src += WORD_SIZE */\n      0xff\n      and\n      dup4\n      add\n      swap3\n      pop\n        /* \"lib/RLP.sol\":343:345  32 */\n      0x20\n        /* \"lib/RLP.sol\":8646:8663  dest += WORD_SIZE */\n      0xff\n      and\n      dup3\n      add\n      swap2\n      pop\n        /* \"lib/RLP.sol\":343:345  32 */\n      0x20\n        /* \"lib/RLP.sol\":8535:8551  len -= WORD_SIZE */\n      0xff\n      and\n      dup2\n      sub\n      swap1\n      pop\n        /* \"lib/RLP.sol\":8510:8670  for (; len >= WORD_SIZE; len -= WORD_SIZE) {... */\n      jump(tag_352)\n    tag_353:\n        /* \"lib/RLP.sol\":8752:8761  uint mask */\n      0x00\n        /* \"lib/RLP.sol\":8791:8792  1 */\n      0x01\n        /* \"lib/RLP.sol\":8784:8787  len */\n      dup3\n        /* \"lib/RLP.sol\":343:345  32 */\n      0x20\n        /* \"lib/RLP.sol\":8772:8787  WORD_SIZE - len */\n      0xff\n      and\n      sub\n        /* \"lib/RLP.sol\":8764:8767  256 */\n      0x0100\n        /* \"lib/RLP.sol\":8764:8788  256 ** (WORD_SIZE - len) */\n      exp\n        /* \"lib/RLP.sol\":8764:8792  256 ** (WORD_SIZE - len) - 1 */\n      sub\n        /* \"lib/RLP.sol\":8752:8792  uint mask = 256 ** (WORD_SIZE - len) - 1 */\n      swap1\n      pop\n        /* \"lib/RLP.sol\":8850:8854  mask */\n      dup1\n        /* \"lib/RLP.sol\":8846:8855  not(mask) */\n      not\n        /* \"lib/RLP.sol\":8840:8843  src */\n      dup5\n        /* \"lib/RLP.sol\":8834:8844  mload(src) */\n      mload\n        /* \"lib/RLP.sol\":8830:8856  and(mload(src), not(mask)) */\n      and\n        /* \"lib/RLP.sol\":8912:8916  mask */\n      dup2\n        /* \"lib/RLP.sol\":8905:8909  dest */\n      dup5\n        /* \"lib/RLP.sol\":8899:8910  mload(dest) */\n      mload\n        /* \"lib/RLP.sol\":8895:8917  and(mload(dest), mask) */\n      and\n        /* \"lib/RLP.sol\":8972:8979  srcpart */\n      dup2\n        /* \"lib/RLP.sol\":8962:8970  destpart */\n      dup2\n        /* \"lib/RLP.sol\":8959:8980  or(destpart, srcpart) */\n      or\n        /* \"lib/RLP.sol\":8953:8957  dest */\n      dup6\n        /* \"lib/RLP.sol\":8946:8981  mstore(dest, or(destpart, srcpart)) */\n      mstore\n        /* \"lib/RLP.sol\":8807:8987  {... */\n      pop\n      pop\n      pop\n    tag_350:\n      pop\n      pop\n      pop\n      jump\t// out\n        /* \"lib/ECVerify.sol\":280:1253  function safer_ecrecover(bytes32 hash, uint8 v, bytes32 r, bytes32 s) internal returns (bool, address) {... */\n    tag_228:\n        /* \"lib/ECVerify.sol\":368:372  bool */\n      0x00\n        /* \"lib/ECVerify.sol\":374:381  address */\n      dup1\n        /* \"lib/ECVerify.sol\":778:786  bool ret */\n      0x00\n        /* \"lib/ECVerify.sol\":796:808  address addr */\n      dup1\n        /* \"lib/ECVerify.sol\":860:864  0x40 */\n      0x40\n        /* \"lib/ECVerify.sol\":854:865  mload(0x40) */\n      mload\n        /* \"lib/ECVerify.sol\":891:895  hash */\n      dup9\n        /* \"lib/ECVerify.sol\":885:889  size */\n      dup2\n        /* \"lib/ECVerify.sol\":878:896  mstore(size, hash) */\n      mstore\n        /* \"lib/ECVerify.sol\":931:932  v */\n      dup8\n        /* \"lib/ECVerify.sol\":926:928  32 */\n      0x20\n        /* \"lib/ECVerify.sol\":920:924  size */\n      dup3\n        /* \"lib/ECVerify.sol\":916:929  add(size, 32) */\n      add\n        /* \"lib/ECVerify.sol\":909:933  mstore(add(size, 32), v) */\n      mstore\n        /* \"lib/ECVerify.sol\":968:969  r */\n      dup7\n        /* \"lib/ECVerify.sol\":963:965  64 */\n      0x40\n        /* \"lib/ECVerify.sol\":957:961  size */\n      dup3\n        /* \"lib/ECVerify.sol\":953:966  add(size, 64) */\n      add\n        /* \"lib/ECVerify.sol\":946:970  mstore(add(size, 64), r) */\n      mstore\n        /* \"lib/ECVerify.sol\":1005:1006  s */\n      dup6\n        /* \"lib/ECVerify.sol\":1000:1002  96 */\n      0x60\n        /* \"lib/ECVerify.sol\":994:998  size */\n      dup3\n        /* \"lib/ECVerify.sol\":990:1003  add(size, 96) */\n      add\n        /* \"lib/ECVerify.sol\":983:1007  mstore(add(size, 96), s) */\n      mstore\n        /* \"lib/ECVerify.sol\":1173:1175  32 */\n      0x20\n        /* \"lib/ECVerify.sol\":1167:1171  size */\n      dup2\n        /* \"lib/ECVerify.sol\":1162:1165  128 */\n      0x80\n        /* \"lib/ECVerify.sol\":1156:1160  size */\n      dup4\n        /* \"lib/ECVerify.sol\":1153:1154  0 */\n      0x00\n        /* \"lib/ECVerify.sol\":1150:1151  1 */\n      0x01\n        /* \"lib/ECVerify.sol\":1144:1148  3000 */\n      0x0bb8\n        /* \"lib/ECVerify.sol\":1139:1176  call(3000, 1, 0, size, 128, size, 32) */\n      call\n        /* \"lib/ECVerify.sol\":1132:1176  ret := call(3000, 1, 0, size, 128, size, 32) */\n      swap3\n      pop\n        /* \"lib/ECVerify.sol\":1203:1207  size */\n      dup1\n        /* \"lib/ECVerify.sol\":1197:1208  mload(size) */\n      mload\n        /* \"lib/ECVerify.sol\":1189:1208  addr := mload(size) */\n      swap2\n      pop\n        /* \"lib/ECVerify.sol\":828:1218  {... */\n      pop\n        /* \"lib/ECVerify.sol\":1236:1239  ret */\n      dup2\n        /* \"lib/ECVerify.sol\":1241:1245  addr */\n      dup2\n        /* \"lib/ECVerify.sol\":1228:1246  return (ret, addr) */\n      swap4\n      pop\n      swap4\n      pop\n      pop\n      pop\n        /* \"lib/ECVerify.sol\":280:1253  function safer_ecrecover(bytes32 hash, uint8 v, bytes32 r, bytes32 s) internal returns (bool, address) {... */\n      swap5\n      pop\n      swap5\n      swap3\n      pop\n      pop\n      pop\n      jump\t// out\n        /* \"lib/MerklePatriciaProof.sol\":4277:5074  function _getNibbleArray(bytes memory b)... */\n    tag_234:\n        /* \"lib/MerklePatriciaProof.sol\":4364:4376  bytes memory */\n      0x60\n        /* \"lib/MerklePatriciaProof.sol\":4392:4412  bytes memory nibbles */\n      dup1\n        /* \"lib/MerklePatriciaProof.sol\":4437:4438  0 */\n      0x00\n        /* \"lib/MerklePatriciaProof.sol\":4426:4427  b */\n      dup4\n        /* \"lib/MerklePatriciaProof.sol\":4426:4434  b.length */\n      mload\n        /* \"lib/MerklePatriciaProof.sol\":4426:4438  b.length > 0 */\n      gt\n        /* \"lib/MerklePatriciaProof.sol\":4422:5044  if (b.length > 0) {... */\n      iszero\n      tag_357\n      jumpi\n        /* \"lib/MerklePatriciaProof.sol\":4454:4466  uint8 offset */\n      0x00\n        /* \"lib/MerklePatriciaProof.sol\":4480:4494  uint8 hpNibble */\n      dup1\n        /* \"lib/MerklePatriciaProof.sol\":4503:4529  _getNthNibbleOfBytes(0, b) */\n      tag_358\n        /* \"lib/MerklePatriciaProof.sol\":4524:4525  0 */\n      0x00\n        /* \"lib/MerklePatriciaProof.sol\":4527:4528  b */\n      dup7\n        /* \"lib/MerklePatriciaProof.sol\":4503:4523  _getNthNibbleOfBytes */\n      tag_359\n        /* \"lib/MerklePatriciaProof.sol\":4503:4529  _getNthNibbleOfBytes(0, b) */\n      jump\t// in\n    tag_358:\n        /* \"lib/MerklePatriciaProof.sol\":4497:4530  uint8(_getNthNibbleOfBytes(0, b)) */\n      0xf8\n      shr\n        /* \"lib/MerklePatriciaProof.sol\":4480:4530  uint8 hpNibble = uint8(_getNthNibbleOfBytes(0, b)) */\n      swap1\n      pop\n        /* \"lib/MerklePatriciaProof.sol\":4560:4561  1 */\n      0x01\n        /* \"lib/MerklePatriciaProof.sol\":4548:4556  hpNibble */\n      dup2\n        /* \"lib/MerklePatriciaProof.sol\":4548:4561  hpNibble == 1 */\n      0xff\n      and\n      eq\n        /* \"lib/MerklePatriciaProof.sol\":4548:4578  hpNibble == 1 || hpNibble == 3 */\n      dup1\n      tag_360\n      jumpi\n      pop\n        /* \"lib/MerklePatriciaProof.sol\":4577:4578  3 */\n      0x03\n        /* \"lib/MerklePatriciaProof.sol\":4565:4573  hpNibble */\n      dup2\n        /* \"lib/MerklePatriciaProof.sol\":4565:4578  hpNibble == 3 */\n      0xff\n      and\n      eq\n        /* \"lib/MerklePatriciaProof.sol\":4548:4578  hpNibble == 1 || hpNibble == 3 */\n    tag_360:\n        /* \"lib/MerklePatriciaProof.sol\":4544:4885  if (hpNibble == 1 || hpNibble == 3) {... */\n      iszero\n      tag_361\n      jumpi\n        /* \"lib/MerklePatriciaProof.sol\":4633:4634  1 */\n      0x01\n        /* \"lib/MerklePatriciaProof.sol\":4629:4630  2 */\n      0x02\n        /* \"lib/MerklePatriciaProof.sol\":4618:4619  b */\n      dup7\n        /* \"lib/MerklePatriciaProof.sol\":4618:4626  b.length */\n      mload\n        /* \"lib/MerklePatriciaProof.sol\":4618:4630  b.length * 2 */\n      mul\n        /* \"lib/MerklePatriciaProof.sol\":4618:4634  b.length * 2 - 1 */\n      sub\n        /* \"lib/MerklePatriciaProof.sol\":4608:4635  new bytes(b.length * 2 - 1) */\n      mload(0x40)\n      swap1\n      dup1\n      dup3\n      mstore\n      dup1\n      0x1f\n      add\n      not(0x1f)\n      and\n      0x20\n      add\n      dup3\n      add\n      0x40\n      mstore\n      dup1\n      iszero\n      tag_362\n      jumpi\n      dup2\n      0x20\n      add\n        /* \"--CODEGEN--\":29:30   */\n      0x01\n        /* \"--CODEGEN--\":21:27   */\n      dup3\n        /* \"--CODEGEN--\":17:31   */\n      mul\n        /* \"--CODEGEN--\":124:128   */\n      dup1\n        /* \"--CODEGEN--\":108:122   */\n      calldatasize\n        /* \"--CODEGEN--\":100:106   */\n      dup4\n        /* \"--CODEGEN--\":87:129   */\n      calldatacopy\n        /* \"--CODEGEN--\":155:159   */\n      dup1\n        /* \"--CODEGEN--\":147:153   */\n      dup3\n        /* \"--CODEGEN--\":143:160   */\n      add\n        /* \"--CODEGEN--\":133:160   */\n      swap2\n      pop\n        /* \"--CODEGEN--\":0:164   */\n      pop\n        /* \"lib/MerklePatriciaProof.sol\":4608:4635  new bytes(b.length * 2 - 1) */\n      swap1\n      pop\n    tag_362:\n      pop\n        /* \"lib/MerklePatriciaProof.sol\":4598:4635  nibbles = new bytes(b.length * 2 - 1) */\n      swap3\n      pop\n        /* \"lib/MerklePatriciaProof.sol\":4653:4669  bytes1 oddNibble */\n      0x00\n        /* \"lib/MerklePatriciaProof.sol\":4672:4698  _getNthNibbleOfBytes(1, b) */\n      tag_363\n        /* \"lib/MerklePatriciaProof.sol\":4693:4694  1 */\n      0x01\n        /* \"lib/MerklePatriciaProof.sol\":4696:4697  b */\n      dup8\n        /* \"lib/MerklePatriciaProof.sol\":4672:4692  _getNthNibbleOfBytes */\n      tag_359\n        /* \"lib/MerklePatriciaProof.sol\":4672:4698  _getNthNibbleOfBytes(1, b) */\n      jump\t// in\n    tag_363:\n        /* \"lib/MerklePatriciaProof.sol\":4653:4698  bytes1 oddNibble = _getNthNibbleOfBytes(1, b) */\n      swap1\n      pop\n        /* \"lib/MerklePatriciaProof.sol\":4729:4738  oddNibble */\n      dup1\n        /* \"lib/MerklePatriciaProof.sol\":4716:4723  nibbles */\n      dup5\n        /* \"lib/MerklePatriciaProof.sol\":4724:4725  0 */\n      0x00\n        /* \"lib/MerklePatriciaProof.sol\":4716:4726  nibbles[0] */\n      dup2\n      mload\n      dup2\n      lt\n      tag_364\n      jumpi\n      invalid\n    tag_364:\n      0x20\n      add\n      add\n        /* \"lib/MerklePatriciaProof.sol\":4716:4738  nibbles[0] = oddNibble */\n      swap1\n      not(0xffffffffffffffffffffffffffffffffffffffffffffffffffffffffffffff)\n      and\n      swap1\n      dup2\n      0x00\n      byte\n      swap1\n      mstore8\n      pop\n        /* \"lib/MerklePatriciaProof.sol\":4765:4766  1 */\n      0x01\n        /* \"lib/MerklePatriciaProof.sol\":4756:4766  offset = 1 */\n      swap3\n      pop\n        /* \"lib/MerklePatriciaProof.sol\":4544:4885  if (hpNibble == 1 || hpNibble == 3) {... */\n      pop\n      jump(tag_365)\n    tag_361:\n        /* \"lib/MerklePatriciaProof.sol\":4840:4841  2 */\n      0x02\n        /* \"lib/MerklePatriciaProof.sol\":4836:4837  2 */\n      dup1\n        /* \"lib/MerklePatriciaProof.sol\":4825:4826  b */\n      dup7\n        /* \"lib/MerklePatriciaProof.sol\":4825:4833  b.length */\n      mload\n        /* \"lib/MerklePatriciaProof.sol\":4825:4837  b.length * 2 */\n      mul\n        /* \"lib/MerklePatriciaProof.sol\":4825:4841  b.length * 2 - 2 */\n      sub\n        /* \"lib/MerklePatriciaProof.sol\":4815:4842  new bytes(b.length * 2 - 2) */\n      mload(0x40)\n      swap1\n      dup1\n      dup3\n      mstore\n      dup1\n      0x1f\n      add\n      not(0x1f)\n      and\n      0x20\n      add\n      dup3\n      add\n      0x40\n      mstore\n      dup1\n      iszero\n      tag_366\n      jumpi\n      dup2\n      0x20\n      add\n        /* \"--CODEGEN--\":29:30   */\n      0x01\n        /* \"--CODEGEN--\":21:27   */\n      dup3\n        /* \"--CODEGEN--\":17:31   */\n      mul\n        /* \"--CODEGEN--\":124:128   */\n      dup1\n        /* \"--CODEGEN--\":108:122   */\n      calldatasize\n        /* \"--CODEGEN--\":100:106   */\n      dup4\n        /* \"--CODEGEN--\":87:129   */\n      calldatacopy\n        /* \"--CODEGEN--\":155:159   */\n      dup1\n        /* \"--CODEGEN--\":147:153   */\n      dup3\n        /* \"--CODEGEN--\":143:160   */\n      add\n        /* \"--CODEGEN--\":133:160   */\n      swap2\n      pop\n        /* \"--CODEGEN--\":0:164   */\n      pop\n        /* \"lib/MerklePatriciaProof.sol\":4815:4842  new bytes(b.length * 2 - 2) */\n      swap1\n      pop\n    tag_366:\n      pop\n        /* \"lib/MerklePatriciaProof.sol\":4805:4842  nibbles = new bytes(b.length * 2 - 2) */\n      swap3\n      pop\n        /* \"lib/MerklePatriciaProof.sol\":4869:4870  0 */\n      0x00\n        /* \"lib/MerklePatriciaProof.sol\":4860:4870  offset = 0 */\n      swap2\n      pop\n        /* \"lib/MerklePatriciaProof.sol\":4544:4885  if (hpNibble == 1 || hpNibble == 3) {... */\n    tag_365:\n        /* \"lib/MerklePatriciaProof.sol\":4904:4913  uint256 i */\n      0x00\n        /* \"lib/MerklePatriciaProof.sol\":4916:4922  offset */\n      dup3\n        /* \"lib/MerklePatriciaProof.sol\":4904:4922  uint256 i = offset */\n      0xff\n      and\n      swap1\n      pop\n        /* \"lib/MerklePatriciaProof.sol\":4899:5034  for (uint256 i = offset; i < nibbles.length; i++) {... */\n    tag_367:\n        /* \"lib/MerklePatriciaProof.sol\":4928:4935  nibbles */\n      dup4\n        /* \"lib/MerklePatriciaProof.sol\":4928:4942  nibbles.length */\n      mload\n        /* \"lib/MerklePatriciaProof.sol\":4924:4925  i */\n      dup2\n        /* \"lib/MerklePatriciaProof.sol\":4924:4942  i < nibbles.length */\n      lt\n        /* \"lib/MerklePatriciaProof.sol\":4899:5034  for (uint256 i = offset; i < nibbles.length; i++) {... */\n      iszero\n      tag_368\n      jumpi\n        /* \"lib/MerklePatriciaProof.sol\":4980:5019  _getNthNibbleOfBytes(i - offset + 2, b) */\n      tag_370\n        /* \"lib/MerklePatriciaProof.sol\":5014:5015  2 */\n      0x02\n        /* \"lib/MerklePatriciaProof.sol\":5005:5011  offset */\n      dup5\n        /* \"lib/MerklePatriciaProof.sol\":5001:5011  i - offset */\n      0xff\n      and\n        /* \"lib/MerklePatriciaProof.sol\":5001:5002  i */\n      dup4\n        /* \"lib/MerklePatriciaProof.sol\":5001:5011  i - offset */\n      sub\n        /* \"lib/MerklePatriciaProof.sol\":5001:5015  i - offset + 2 */\n      add\n        /* \"lib/MerklePatriciaProof.sol\":5017:5018  b */\n      dup8\n        /* \"lib/MerklePatriciaProof.sol\":4980:5000  _getNthNibbleOfBytes */\n      tag_359\n        /* \"lib/MerklePatriciaProof.sol\":4980:5019  _getNthNibbleOfBytes(i - offset + 2, b) */\n      jump\t// in\n    tag_370:\n        /* \"lib/MerklePatriciaProof.sol\":4967:4974  nibbles */\n      dup5\n        /* \"lib/MerklePatriciaProof.sol\":4975:4976  i */\n      dup3\n        /* \"lib/MerklePatriciaProof.sol\":4967:4977  nibbles[i] */\n      dup2\n      mload\n      dup2\n      lt\n      tag_371\n      jumpi\n      invalid\n    tag_371:\n      0x20\n      add\n      add\n        /* \"lib/MerklePatriciaProof.sol\":4967:5019  nibbles[i] = _getNthNibbleOfBytes(i - offset + 2, b) */\n      swap1\n      not(0xffffffffffffffffffffffffffffffffffffffffffffffffffffffffffffff)\n      and\n      swap1\n      dup2\n      0x00\n      byte\n      swap1\n      mstore8\n      pop\n        /* \"lib/MerklePatriciaProof.sol\":4944:4947  i++ */\n      dup1\n      dup1\n      0x01\n      add\n      swap2\n      pop\n      pop\n        /* \"lib/MerklePatriciaProof.sol\":4899:5034  for (uint256 i = offset; i < nibbles.length; i++) {... */\n      jump(tag_367)\n    tag_368:\n      pop\n        /* \"lib/MerklePatriciaProof.sol\":4422:5044  if (b.length > 0) {... */\n      pop\n      pop\n    tag_357:\n        /* \"lib/MerklePatriciaProof.sol\":5060:5067  nibbles */\n      dup1\n        /* \"lib/MerklePatriciaProof.sol\":5053:5067  return nibbles */\n      swap2\n      pop\n      pop\n        /* \"lib/MerklePatriciaProof.sol\":4277:5074  function _getNibbleArray(bytes memory b)... */\n      swap2\n      swap1\n      pop\n      jump\t// out\n        /* \"lib/RLP.sol\":4931:5184  function toUintStrict(RLPItem memory item) internal pure returns (uint) {... */\n    tag_255:\n        /* \"lib/RLP.sol\":4997:5001  uint */\n      0x00\n        /* \"lib/RLP.sol\":5052:5054  33 */\n      0x21\n        /* \"lib/RLP.sol\":5040:5044  item */\n      dup3\n        /* \"lib/RLP.sol\":5040:5048  item.len */\n      0x00\n      add\n      mload\n        /* \"lib/RLP.sol\":5040:5054  item.len == 33 */\n      eq\n        /* \"lib/RLP.sol\":5032:5055  require(item.len == 33) */\n      tag_373\n      jumpi\n        /* \"--CODEGEN--\":12:13   */\n      0x00\n        /* \"--CODEGEN--\":9:10   */\n      dup1\n        /* \"--CODEGEN--\":2:14   */\n      revert\n        /* \"lib/RLP.sol\":5032:5055  require(item.len == 33) */\n    tag_373:\n        /* \"lib/RLP.sol\":5062:5073  uint result */\n      0x00\n        /* \"lib/RLP.sol\":5079:5090  uint memPtr */\n      dup1\n        /* \"lib/RLP.sol\":5107:5108  1 */\n      0x01\n        /* \"lib/RLP.sol\":5093:5097  item */\n      dup5\n        /* \"lib/RLP.sol\":5093:5104  item.memPtr */\n      0x20\n      add\n      mload\n        /* \"lib/RLP.sol\":5093:5108  item.memPtr + 1 */\n      add\n        /* \"lib/RLP.sol\":5079:5108  uint memPtr = item.memPtr + 1 */\n      swap1\n      pop\n        /* \"lib/RLP.sol\":5147:5153  memPtr */\n      dup1\n        /* \"lib/RLP.sol\":5141:5154  mload(memPtr) */\n      mload\n        /* \"lib/RLP.sol\":5131:5154  result := mload(memPtr) */\n      swap2\n      pop\n        /* \"lib/RLP.sol\":5173:5179  result */\n      dup2\n        /* \"lib/RLP.sol\":5166:5179  return result */\n      swap3\n      pop\n      pop\n      pop\n        /* \"lib/RLP.sol\":4931:5184  function toUintStrict(RLPItem memory item) internal pure returns (uint) {... */\n      swap2\n      swap1\n      pop\n      jump\t// out\n        /* \"lib/MerklePatriciaProof.sol\":3287:4237  function _nibblesToTraverse(... */\n    tag_261:\n        /* \"lib/MerklePatriciaProof.sol\":3436:3443  uint256 */\n      0x00\n        /* \"lib/MerklePatriciaProof.sol\":3455:3466  uint256 len */\n      dup1\n        /* \"lib/MerklePatriciaProof.sol\":3661:3685  bytes memory partialPath */\n      0x60\n        /* \"lib/MerklePatriciaProof.sol\":3688:3723  _getNibbleArray(encodedPartialPath) */\n      tag_375\n        /* \"lib/MerklePatriciaProof.sol\":3704:3722  encodedPartialPath */\n      dup7\n        /* \"lib/MerklePatriciaProof.sol\":3688:3703  _getNibbleArray */\n      tag_234\n        /* \"lib/MerklePatriciaProof.sol\":3688:3723  _getNibbleArray(encodedPartialPath) */\n      jump\t// in\n    tag_375:\n        /* \"lib/MerklePatriciaProof.sol\":3661:3723  bytes memory partialPath = _getNibbleArray(encodedPartialPath) */\n      swap1\n      pop\n        /* \"lib/MerklePatriciaProof.sol\":3733:3756  bytes memory slicedPath */\n      0x60\n        /* \"lib/MerklePatriciaProof.sol\":3769:3780  partialPath */\n      dup2\n        /* \"lib/MerklePatriciaProof.sol\":3769:3787  partialPath.length */\n      mload\n        /* \"lib/MerklePatriciaProof.sol\":3759:3788  new bytes(partialPath.length) */\n      mload(0x40)\n      swap1\n      dup1\n      dup3\n      mstore\n      dup1\n      0x1f\n      add\n      not(0x1f)\n      and\n      0x20\n      add\n      dup3\n      add\n      0x40\n      mstore\n      dup1\n      iszero\n      tag_376\n      jumpi\n      dup2\n      0x20\n      add\n        /* \"--CODEGEN--\":29:30   */\n      0x01\n        /* \"--CODEGEN--\":21:27   */\n      dup3\n        /* \"--CODEGEN--\":17:31   */\n      mul\n        /* \"--CODEGEN--\":124:128   */\n      dup1\n        /* \"--CODEGEN--\":108:122   */\n      calldatasize\n        /* \"--CODEGEN--\":100:106   */\n      dup4\n        /* \"--CODEGEN--\":87:129   */\n      calldatacopy\n        /* \"--CODEGEN--\":155:159   */\n      dup1\n        /* \"--CODEGEN--\":147:153   */\n      dup3\n        /* \"--CODEGEN--\":143:160   */\n      add\n        /* \"--CODEGEN--\":133:160   */\n      swap2\n      pop\n        /* \"--CODEGEN--\":0:164   */\n      pop\n        /* \"lib/MerklePatriciaProof.sol\":3759:3788  new bytes(partialPath.length) */\n      swap1\n      pop\n    tag_376:\n      pop\n        /* \"lib/MerklePatriciaProof.sol\":3733:3788  bytes memory slicedPath = new bytes(partialPath.length) */\n      swap1\n      pop\n        /* \"lib/MerklePatriciaProof.sol\":3899:3908  uint256 i */\n      0x00\n        /* \"lib/MerklePatriciaProof.sol\":3911:3918  pathPtr */\n      dup6\n        /* \"lib/MerklePatriciaProof.sol\":3899:3918  uint256 i = pathPtr */\n      swap1\n      pop\n        /* \"lib/MerklePatriciaProof.sol\":3894:4061  for (uint256 i = pathPtr; i < pathPtr + partialPath.length; i++) {... */\n    tag_377:\n        /* \"lib/MerklePatriciaProof.sol\":3934:3945  partialPath */\n      dup3\n        /* \"lib/MerklePatriciaProof.sol\":3934:3952  partialPath.length */\n      mload\n        /* \"lib/MerklePatriciaProof.sol\":3924:3931  pathPtr */\n      dup7\n        /* \"lib/MerklePatriciaProof.sol\":3924:3952  pathPtr + partialPath.length */\n      add\n        /* \"lib/MerklePatriciaProof.sol\":3920:3921  i */\n      dup2\n        /* \"lib/MerklePatriciaProof.sol\":3920:3952  i < pathPtr + partialPath.length */\n      lt\n        /* \"lib/MerklePatriciaProof.sol\":3894:4061  for (uint256 i = pathPtr; i < pathPtr + partialPath.length; i++) {... */\n      iszero\n      tag_378\n      jumpi\n        /* \"lib/MerklePatriciaProof.sol\":3973:3990  bytes1 pathNibble */\n      0x00\n        /* \"lib/MerklePatriciaProof.sol\":3993:3997  path */\n      dup8\n        /* \"lib/MerklePatriciaProof.sol\":3998:3999  i */\n      dup3\n        /* \"lib/MerklePatriciaProof.sol\":3993:4000  path[i] */\n      dup2\n      mload\n      dup2\n      lt\n      tag_380\n      jumpi\n      invalid\n    tag_380:\n      0x20\n      add\n      add\n      mload\n      0xf8\n      shr\n      0xf8\n      shl\n        /* \"lib/MerklePatriciaProof.sol\":3973:4000  bytes1 pathNibble = path[i] */\n      swap1\n      pop\n        /* \"lib/MerklePatriciaProof.sol\":4040:4050  pathNibble */\n      dup1\n        /* \"lib/MerklePatriciaProof.sol\":4014:4024  slicedPath */\n      dup4\n        /* \"lib/MerklePatriciaProof.sol\":4029:4036  pathPtr */\n      dup9\n        /* \"lib/MerklePatriciaProof.sol\":4025:4026  i */\n      dup5\n        /* \"lib/MerklePatriciaProof.sol\":4025:4036  i - pathPtr */\n      sub\n        /* \"lib/MerklePatriciaProof.sol\":4014:4037  slicedPath[i - pathPtr] */\n      dup2\n      mload\n      dup2\n      lt\n      tag_381\n      jumpi\n      invalid\n    tag_381:\n      0x20\n      add\n      add\n        /* \"lib/MerklePatriciaProof.sol\":4014:4050  slicedPath[i - pathPtr] = pathNibble */\n      swap1\n      not(0xffffffffffffffffffffffffffffffffffffffffffffffffffffffffffffff)\n      and\n      swap1\n      dup2\n      0x00\n      byte\n      swap1\n      mstore8\n      pop\n        /* \"lib/MerklePatriciaProof.sol\":3894:4061  for (uint256 i = pathPtr; i < pathPtr + partialPath.length; i++) {... */\n      pop\n        /* \"lib/MerklePatriciaProof.sol\":3954:3957  i++ */\n      dup1\n      dup1\n      0x01\n      add\n      swap2\n      pop\n      pop\n        /* \"lib/MerklePatriciaProof.sol\":3894:4061  for (uint256 i = pathPtr; i < pathPtr + partialPath.length; i++) {... */\n      jump(tag_377)\n    tag_378:\n      pop\n        /* \"lib/MerklePatriciaProof.sol\":4111:4121  slicedPath */\n      dup1\n        /* \"lib/MerklePatriciaProof.sol\":4101:4122  keccak256(slicedPath) */\n      dup1\n      mload\n      swap1\n      0x20\n      add\n      keccak256\n        /* \"lib/MerklePatriciaProof.sol\":4085:4096  partialPath */\n      dup3\n        /* \"lib/MerklePatriciaProof.sol\":4075:4097  keccak256(partialPath) */\n      dup1\n      mload\n      swap1\n      0x20\n      add\n      keccak256\n        /* \"lib/MerklePatriciaProof.sol\":4075:4122  keccak256(partialPath) == keccak256(slicedPath) */\n      eq\n        /* \"lib/MerklePatriciaProof.sol\":4071:4211  if (keccak256(partialPath) == keccak256(slicedPath)) {... */\n      iszero\n      tag_382\n      jumpi\n        /* \"lib/MerklePatriciaProof.sol\":4144:4155  partialPath */\n      dup2\n        /* \"lib/MerklePatriciaProof.sol\":4144:4162  partialPath.length */\n      mload\n        /* \"lib/MerklePatriciaProof.sol\":4138:4162  len = partialPath.length */\n      swap3\n      pop\n        /* \"lib/MerklePatriciaProof.sol\":4071:4211  if (keccak256(partialPath) == keccak256(slicedPath)) {... */\n      jump(tag_383)\n    tag_382:\n        /* \"lib/MerklePatriciaProof.sol\":4199:4200  0 */\n      0x00\n        /* \"lib/MerklePatriciaProof.sol\":4193:4200  len = 0 */\n      swap3\n      pop\n        /* \"lib/MerklePatriciaProof.sol\":4071:4211  if (keccak256(partialPath) == keccak256(slicedPath)) {... */\n    tag_383:\n        /* \"lib/MerklePatriciaProof.sol\":4227:4230  len */\n      dup3\n        /* \"lib/MerklePatriciaProof.sol\":4220:4230  return len */\n      swap4\n      pop\n      pop\n      pop\n      pop\n        /* \"lib/MerklePatriciaProof.sol\":3287:4237  function _nibblesToTraverse(... */\n      swap4\n      swap3\n      pop\n      pop\n      pop\n      jump\t// out\n        /* \"lib/RLP.sol\":3775:3952  function toAddress(RLPItem memory item) internal pure returns (address) {... */\n    tag_289:\n        /* \"lib/RLP.sol\":3838:3845  address */\n      0x00\n        /* \"lib/RLP.sol\":3909:3911  21 */\n      0x15\n        /* \"lib/RLP.sol\":3897:3901  item */\n      dup3\n        /* \"lib/RLP.sol\":3897:3905  item.len */\n      0x00\n      add\n      mload\n        /* \"lib/RLP.sol\":3897:3911  item.len == 21 */\n      eq\n        /* \"lib/RLP.sol\":3889:3912  require(item.len == 21) */\n      tag_385\n      jumpi\n        /* \"--CODEGEN--\":12:13   */\n      0x00\n        /* \"--CODEGEN--\":9:10   */\n      dup1\n        /* \"--CODEGEN--\":2:14   */\n      revert\n        /* \"lib/RLP.sol\":3889:3912  require(item.len == 21) */\n    tag_385:\n        /* \"lib/RLP.sol\":3934:3946  toUint(item) */\n      tag_386\n        /* \"lib/RLP.sol\":3941:3945  item */\n      dup3\n        /* \"lib/RLP.sol\":3934:3940  toUint */\n      tag_87\n        /* \"lib/RLP.sol\":3934:3946  toUint(item) */\n      jump\t// in\n    tag_386:\n        /* \"lib/RLP.sol\":3919:3947  return address(toUint(item)) */\n      swap1\n      pop\n        /* \"lib/RLP.sol\":3775:3952  function toAddress(RLPItem memory item) internal pure returns (address) {... */\n      swap2\n      swap1\n      pop\n      jump\t// out\n        /* \"lib/BytesLib.sol\":7206:7705  function packedBytesFromUint(uint256 _num) internal pure returns (bytes memory _ret) {... */\n    tag_308:\n        /* \"lib/BytesLib.sol\":7272:7289  bytes memory _ret */\n      0x60\n        /* \"lib/BytesLib.sol\":7301:7322  bytes memory _bytes32 */\n      dup1\n        /* \"lib/BytesLib.sol\":7325:7339  fromUint(_num) */\n      tag_388\n        /* \"lib/BytesLib.sol\":7334:7338  _num */\n      dup4\n        /* \"lib/BytesLib.sol\":7325:7333  fromUint */\n      tag_389\n        /* \"lib/BytesLib.sol\":7325:7339  fromUint(_num) */\n      jump\t// in\n    tag_388:\n        /* \"lib/BytesLib.sol\":7301:7339  bytes memory _bytes32 = fromUint(_num) */\n      swap1\n      pop\n        /* \"lib/BytesLib.sol\":7349:7368  uint256 _startIndex */\n      0x00\n        /* \"lib/BytesLib.sol\":7382:7391  uint256 i */\n      dup1\n        /* \"lib/BytesLib.sol\":7394:7395  0 */\n      0x00\n        /* \"lib/BytesLib.sol\":7382:7395  uint256 i = 0 */\n      swap1\n      pop\n        /* \"lib/BytesLib.sol\":7378:7533  for(uint256 i = 0; i < _bytes32.length; i++) {... */\n    tag_390:\n        /* \"lib/BytesLib.sol\":7401:7409  _bytes32 */\n      dup3\n        /* \"lib/BytesLib.sol\":7401:7416  _bytes32.length */\n      mload\n        /* \"lib/BytesLib.sol\":7397:7398  i */\n      dup2\n        /* \"lib/BytesLib.sol\":7397:7416  i < _bytes32.length */\n      lt\n        /* \"lib/BytesLib.sol\":7378:7533  for(uint256 i = 0; i < _bytes32.length; i++) {... */\n      iszero\n      tag_391\n      jumpi\n        /* \"lib/BytesLib.sol\":7458:7459  0 */\n      0x00\n        /* \"lib/BytesLib.sol\":7453:7460  byte(0) */\n      0xf8\n      shl\n        /* \"lib/BytesLib.sol\":7438:7460  _bytes32[i] != byte(0) */\n      not(0xffffffffffffffffffffffffffffffffffffffffffffffffffffffffffffff)\n      and\n        /* \"lib/BytesLib.sol\":7438:7446  _bytes32 */\n      dup4\n        /* \"lib/BytesLib.sol\":7447:7448  i */\n      dup3\n        /* \"lib/BytesLib.sol\":7438:7449  _bytes32[i] */\n      dup2\n      mload\n      dup2\n      lt\n      tag_393\n      jumpi\n      invalid\n    tag_393:\n      0x20\n      add\n      add\n      mload\n      0xf8\n      shr\n      0xf8\n      shl\n        /* \"lib/BytesLib.sol\":7438:7460  _bytes32[i] != byte(0) */\n      not(0xffffffffffffffffffffffffffffffffffffffffffffffffffffffffffffff)\n      and\n      eq\n        /* \"lib/BytesLib.sol\":7435:7523  if(_bytes32[i] != byte(0)) {... */\n      tag_394\n      jumpi\n        /* \"lib/BytesLib.sol\":7490:7491  i */\n      dup1\n        /* \"lib/BytesLib.sol\":7476:7491  _startIndex = i */\n      swap2\n      pop\n        /* \"lib/BytesLib.sol\":7505:7510  break */\n      jump(tag_391)\n        /* \"lib/BytesLib.sol\":7435:7523  if(_bytes32[i] != byte(0)) {... */\n    tag_394:\n        /* \"lib/BytesLib.sol\":7418:7421  i++ */\n      dup1\n      dup1\n      0x01\n      add\n      swap2\n      pop\n      pop\n        /* \"lib/BytesLib.sol\":7378:7533  for(uint256 i = 0; i < _bytes32.length; i++) {... */\n      jump(tag_390)\n    tag_391:\n      pop\n        /* \"lib/BytesLib.sol\":7564:7575  _startIndex */\n      dup1\n        /* \"lib/BytesLib.sol\":7559:7561  32 */\n      0x20\n        /* \"lib/BytesLib.sol\":7559:7575  32 - _startIndex */\n      sub\n        /* \"lib/BytesLib.sol\":7549:7576  new bytes(32 - _startIndex) */\n      mload(0x40)\n      swap1\n      dup1\n      dup3\n      mstore\n      dup1\n      0x1f\n      add\n      not(0x1f)\n      and\n      0x20\n      add\n      dup3\n      add\n      0x40\n      mstore\n      dup1\n      iszero\n      tag_395\n      jumpi\n      dup2\n      0x20\n      add\n        /* \"--CODEGEN--\":29:30   */\n      0x01\n        /* \"--CODEGEN--\":21:27   */\n      dup3\n        /* \"--CODEGEN--\":17:31   */\n      mul\n        /* \"--CODEGEN--\":124:128   */\n      dup1\n        /* \"--CODEGEN--\":108:122   */\n      calldatasize\n        /* \"--CODEGEN--\":100:106   */\n      dup4\n        /* \"--CODEGEN--\":87:129   */\n      calldatacopy\n        /* \"--CODEGEN--\":155:159   */\n      dup1\n        /* \"--CODEGEN--\":147:153   */\n      dup3\n        /* \"--CODEGEN--\":143:160   */\n      add\n        /* \"--CODEGEN--\":133:160   */\n      swap2\n      pop\n        /* \"--CODEGEN--\":0:164   */\n      pop\n        /* \"lib/BytesLib.sol\":7549:7576  new bytes(32 - _startIndex) */\n      swap1\n      pop\n    tag_395:\n      pop\n        /* \"lib/BytesLib.sol\":7542:7576  _ret = new bytes(32 - _startIndex) */\n      swap3\n      pop\n        /* \"lib/BytesLib.sol\":7590:7599  uint256 i */\n      0x00\n        /* \"lib/BytesLib.sol\":7602:7613  _startIndex */\n      dup2\n        /* \"lib/BytesLib.sol\":7590:7613  uint256 i = _startIndex */\n      swap1\n      pop\n        /* \"lib/BytesLib.sol\":7586:7699  for(uint256 i = _startIndex; i < _bytes32.length; i++) {... */\n    tag_396:\n        /* \"lib/BytesLib.sol\":7619:7627  _bytes32 */\n      dup3\n        /* \"lib/BytesLib.sol\":7619:7634  _bytes32.length */\n      mload\n        /* \"lib/BytesLib.sol\":7615:7616  i */\n      dup2\n        /* \"lib/BytesLib.sol\":7615:7634  i < _bytes32.length */\n      lt\n        /* \"lib/BytesLib.sol\":7586:7699  for(uint256 i = _startIndex; i < _bytes32.length; i++) {... */\n      iszero\n      tag_397\n      jumpi\n        /* \"lib/BytesLib.sol\":7677:7685  _bytes32 */\n      dup3\n        /* \"lib/BytesLib.sol\":7686:7687  i */\n      dup2\n        /* \"lib/BytesLib.sol\":7677:7688  _bytes32[i] */\n      dup2\n      mload\n      dup2\n      lt\n      tag_399\n      jumpi\n      invalid\n    tag_399:\n      0x20\n      add\n      add\n      mload\n      0xf8\n      shr\n      0xf8\n      shl\n        /* \"lib/BytesLib.sol\":7653:7657  _ret */\n      dup5\n        /* \"lib/BytesLib.sol\":7662:7673  _startIndex */\n      dup4\n        /* \"lib/BytesLib.sol\":7658:7659  i */\n      dup4\n        /* \"lib/BytesLib.sol\":7658:7673  i - _startIndex */\n      sub\n        /* \"lib/BytesLib.sol\":7653:7674  _ret[i - _startIndex] */\n      dup2\n      mload\n      dup2\n      lt\n      tag_400\n      jumpi\n      invalid\n    tag_400:\n      0x20\n      add\n      add\n        /* \"lib/BytesLib.sol\":7653:7688  _ret[i - _startIndex] = _bytes32[i] */\n      swap1\n      not(0xffffffffffffffffffffffffffffffffffffffffffffffffffffffffffffff)\n      and\n      swap1\n      dup2\n      0x00\n      byte\n      swap1\n      mstore8\n      pop\n        /* \"lib/BytesLib.sol\":7636:7639  i++ */\n      dup1\n      dup1\n      0x01\n      add\n      swap2\n      pop\n      pop\n        /* \"lib/BytesLib.sol\":7586:7699  for(uint256 i = _startIndex; i < _bytes32.length; i++) {... */\n      jump(tag_396)\n    tag_397:\n      pop\n        /* \"lib/BytesLib.sol\":7206:7705  function packedBytesFromUint(uint256 _num) internal pure returns (bytes memory _ret) {... */\n      pop\n      pop\n      swap2\n      swap1\n      pop\n      jump\t// out\n        /* \"lib/RLPEncode.sol\":715:1065  function encodeList(bytes[] memory self)... */\n    tag_320:\n        /* \"lib/RLPEncode.sol\":803:815  bytes memory */\n      0x60\n        /* \"lib/RLPEncode.sol\":831:851  bytes memory encoded */\n      dup1\n        /* \"lib/RLPEncode.sol\":866:875  uint256 i */\n      0x00\n        /* \"lib/RLPEncode.sol\":878:879  0 */\n      dup1\n        /* \"lib/RLPEncode.sol\":866:879  uint256 i = 0 */\n      swap1\n      pop\n        /* \"lib/RLPEncode.sol\":861:983  for (uint256 i = 0; i < self.length; i++) {... */\n    tag_402:\n        /* \"lib/RLPEncode.sol\":885:889  self */\n      dup4\n        /* \"lib/RLPEncode.sol\":885:896  self.length */\n      mload\n        /* \"lib/RLPEncode.sol\":881:882  i */\n      dup2\n        /* \"lib/RLPEncode.sol\":881:896  i < self.length */\n      lt\n        /* \"lib/RLPEncode.sol\":861:983  for (uint256 i = 0; i < self.length; i++) {... */\n      iszero\n      tag_403\n      jumpi\n        /* \"lib/RLPEncode.sol\":927:972  BytesLib.concat(encoded, encodeItem(self[i])) */\n      tag_405\n        /* \"lib/RLPEncode.sol\":943:950  encoded */\n      dup3\n        /* \"lib/RLPEncode.sol\":952:971  encodeItem(self[i]) */\n      tag_406\n        /* \"lib/RLPEncode.sol\":963:967  self */\n      dup7\n        /* \"lib/RLPEncode.sol\":968:969  i */\n      dup5\n        /* \"lib/RLPEncode.sol\":963:970  self[i] */\n      dup2\n      mload\n      dup2\n      lt\n      tag_407\n      jumpi\n      invalid\n    tag_407:\n      0x20\n      mul\n      0x20\n      add\n      add\n      mload\n        /* \"lib/RLPEncode.sol\":952:962  encodeItem */\n      tag_408\n        /* \"lib/RLPEncode.sol\":952:971  encodeItem(self[i]) */\n      jump\t// in\n    tag_406:\n        /* \"lib/RLPEncode.sol\":927:942  BytesLib.concat */\n      tag_409\n        /* \"lib/RLPEncode.sol\":927:972  BytesLib.concat(encoded, encodeItem(self[i])) */\n      jump\t// in\n    tag_405:\n        /* \"lib/RLPEncode.sol\":917:972  encoded = BytesLib.concat(encoded, encodeItem(self[i])) */\n      swap2\n      pop\n        /* \"lib/RLPEncode.sol\":898:901  i++ */\n      dup1\n      dup1\n      0x01\n      add\n      swap2\n      pop\n      pop\n        /* \"lib/RLPEncode.sol\":861:983  for (uint256 i = 0; i < self.length; i++) {... */\n      jump(tag_402)\n    tag_403:\n      pop\n        /* \"lib/RLPEncode.sol\":999:1058  BytesLib.concat(encodeLength(encoded.length, 192), encoded) */\n      tag_410\n        /* \"lib/RLPEncode.sol\":1015:1048  encodeLength(encoded.length, 192) */\n      tag_411\n        /* \"lib/RLPEncode.sol\":1028:1035  encoded */\n      dup3\n        /* \"lib/RLPEncode.sol\":1028:1042  encoded.length */\n      mload\n        /* \"lib/RLPEncode.sol\":1044:1047  192 */\n      0xc0\n        /* \"lib/RLPEncode.sol\":1015:1027  encodeLength */\n      tag_412\n        /* \"lib/RLPEncode.sol\":1015:1048  encodeLength(encoded.length, 192) */\n      jump\t// in\n    tag_411:\n        /* \"lib/RLPEncode.sol\":1050:1057  encoded */\n      dup3\n        /* \"lib/RLPEncode.sol\":999:1014  BytesLib.concat */\n      tag_409\n        /* \"lib/RLPEncode.sol\":999:1058  BytesLib.concat(encodeLength(encoded.length, 192), encoded) */\n      jump\t// in\n    tag_410:\n        /* \"lib/RLPEncode.sol\":992:1058  return BytesLib.concat(encodeLength(encoded.length, 192), encoded) */\n      swap2\n      pop\n      pop\n        /* \"lib/RLPEncode.sol\":715:1065  function encodeList(bytes[] memory self)... */\n      swap2\n      swap1\n      pop\n      jump\t// out\n        /* \"lib/MerklePatriciaProof.sol\":5080:5335  function _getNthNibbleOfBytes(uint256 n, bytes memory str)... */\n    tag_359:\n        /* \"lib/MerklePatriciaProof.sol\":5185:5191  bytes1 */\n      0x00\n        /* \"lib/MerklePatriciaProof.sol\":5259:5260  0 */\n      dup1\n        /* \"lib/MerklePatriciaProof.sol\":5254:5255  2 */\n      0x02\n        /* \"lib/MerklePatriciaProof.sol\":5250:5251  n */\n      dup5\n        /* \"lib/MerklePatriciaProof.sol\":5250:5255  n % 2 */\n      dup2\n      tag_414\n      jumpi\n      invalid\n    tag_414:\n      mod\n        /* \"lib/MerklePatriciaProof.sol\":5250:5260  n % 2 == 0 */\n      eq\n        /* \"lib/MerklePatriciaProof.sol\":5250:5314  n % 2 == 0 ? uint8(str[n / 2]) / 0x10 : uint8(str[n / 2]) % 0x10 */\n      tag_415\n      jumpi\n        /* \"lib/MerklePatriciaProof.sol\":5310:5314  0x10 */\n      0x10\n        /* \"lib/MerklePatriciaProof.sol\":5296:5299  str */\n      dup3\n        /* \"lib/MerklePatriciaProof.sol\":5304:5305  2 */\n      0x02\n        /* \"lib/MerklePatriciaProof.sol\":5300:5301  n */\n      dup6\n        /* \"lib/MerklePatriciaProof.sol\":5300:5305  n / 2 */\n      dup2\n      tag_416\n      jumpi\n      invalid\n    tag_416:\n      div\n        /* \"lib/MerklePatriciaProof.sol\":5296:5306  str[n / 2] */\n      dup2\n      mload\n      dup2\n      lt\n      tag_417\n      jumpi\n      invalid\n    tag_417:\n      0x20\n      add\n      add\n      mload\n      0xf8\n      shr\n      0xf8\n      shl\n        /* \"lib/MerklePatriciaProof.sol\":5290:5307  uint8(str[n / 2]) */\n      0xf8\n      shr\n        /* \"lib/MerklePatriciaProof.sol\":5290:5314  uint8(str[n / 2]) % 0x10 */\n      0xff\n      and\n      dup2\n      tag_418\n      jumpi\n      invalid\n    tag_418:\n      mod\n        /* \"lib/MerklePatriciaProof.sol\":5250:5314  n % 2 == 0 ? uint8(str[n / 2]) / 0x10 : uint8(str[n / 2]) % 0x10 */\n      jump(tag_419)\n    tag_415:\n        /* \"lib/MerklePatriciaProof.sol\":5283:5287  0x10 */\n      0x10\n        /* \"lib/MerklePatriciaProof.sol\":5269:5272  str */\n      dup3\n        /* \"lib/MerklePatriciaProof.sol\":5277:5278  2 */\n      0x02\n        /* \"lib/MerklePatriciaProof.sol\":5273:5274  n */\n      dup6\n        /* \"lib/MerklePatriciaProof.sol\":5273:5278  n / 2 */\n      dup2\n      tag_420\n      jumpi\n      invalid\n    tag_420:\n      div\n        /* \"lib/MerklePatriciaProof.sol\":5269:5279  str[n / 2] */\n      dup2\n      mload\n      dup2\n      lt\n      tag_421\n      jumpi\n      invalid\n    tag_421:\n      0x20\n      add\n      add\n      mload\n      0xf8\n      shr\n      0xf8\n      shl\n        /* \"lib/MerklePatriciaProof.sol\":5263:5280  uint8(str[n / 2]) */\n      0xf8\n      shr\n        /* \"lib/MerklePatriciaProof.sol\":5263:5287  uint8(str[n / 2]) / 0x10 */\n      0xff\n      and\n      dup2\n      tag_422\n      jumpi\n      invalid\n    tag_422:\n      div\n        /* \"lib/MerklePatriciaProof.sol\":5250:5314  n % 2 == 0 ? uint8(str[n / 2]) / 0x10 : uint8(str[n / 2]) % 0x10 */\n    tag_419:\n        /* \"lib/MerklePatriciaProof.sol\":5226:5328  bytes1(... */\n      0xf8\n      shl\n        /* \"lib/MerklePatriciaProof.sol\":5207:5328  return... */\n      swap1\n      pop\n        /* \"lib/MerklePatriciaProof.sol\":5080:5335  function _getNthNibbleOfBytes(uint256 n, bytes memory str)... */\n      swap3\n      swap2\n      pop\n      pop\n      jump\t// out\n        /* \"lib/BytesLib.sol\":7020:7200  function fromUint(uint256 _num) internal pure returns (bytes memory _ret) {... */\n    tag_389:\n        /* \"lib/BytesLib.sol\":7075:7092  bytes memory _ret */\n      0x60\n        /* \"lib/BytesLib.sol\":7121:7123  32 */\n      0x20\n        /* \"lib/BytesLib.sol\":7111:7124  new bytes(32) */\n      mload(0x40)\n      swap1\n      dup1\n      dup3\n      mstore\n      dup1\n      0x1f\n      add\n      not(0x1f)\n      and\n      0x20\n      add\n      dup3\n      add\n      0x40\n      mstore\n      dup1\n      iszero\n      tag_424\n      jumpi\n      dup2\n      0x20\n      add\n        /* \"--CODEGEN--\":29:30   */\n      0x01\n        /* \"--CODEGEN--\":21:27   */\n      dup3\n        /* \"--CODEGEN--\":17:31   */\n      mul\n        /* \"--CODEGEN--\":124:128   */\n      dup1\n        /* \"--CODEGEN--\":108:122   */\n      calldatasize\n        /* \"--CODEGEN--\":100:106   */\n      dup4\n        /* \"--CODEGEN--\":87:129   */\n      calldatacopy\n        /* \"--CODEGEN--\":155:159   */\n      dup1\n        /* \"--CODEGEN--\":147:153   */\n      dup3\n        /* \"--CODEGEN--\":143:160   */\n      add\n        /* \"--CODEGEN--\":133:160   */\n      swap2\n      pop\n        /* \"--CODEGEN--\":0:164   */\n      pop\n        /* \"lib/BytesLib.sol\":7111:7124  new bytes(32) */\n      swap1\n      pop\n    tag_424:\n      pop\n        /* \"lib/BytesLib.sol\":7104:7124  _ret = new bytes(32) */\n      swap1\n      pop\n        /* \"lib/BytesLib.sol\":7179:7183  _num */\n      dup2\n        /* \"lib/BytesLib.sol\":7174:7176  32 */\n      0x20\n        /* \"lib/BytesLib.sol\":7168:7172  _ret */\n      dup3\n        /* \"lib/BytesLib.sol\":7164:7177  add(_ret, 32) */\n      add\n        /* \"lib/BytesLib.sol\":7157:7184  mstore(add(_ret, 32), _num) */\n      mstore\n        /* \"lib/BytesLib.sol\":7143:7194  {... */\n      swap2\n      swap1\n      pop\n      jump\t// out\n        /* \"lib/RLPEncode.sol\":282:679  function encodeItem(bytes memory self)... */\n    tag_408:\n        /* \"lib/RLPEncode.sol\":368:380  bytes memory */\n      0x60\n        /* \"lib/RLPEncode.sol\":396:416  bytes memory encoded */\n      dup1\n        /* \"lib/RLPEncode.sol\":445:446  1 */\n      0x01\n        /* \"lib/RLPEncode.sol\":430:434  self */\n      dup4\n        /* \"lib/RLPEncode.sol\":430:441  self.length */\n      mload\n        /* \"lib/RLPEncode.sol\":430:446  self.length == 1 */\n      eq\n        /* \"lib/RLPEncode.sol\":430:478  self.length == 1 && uint8(self[0] & 0xFF) < 0x80 */\n      dup1\n      iszero\n      tag_426\n      jumpi\n      pop\n        /* \"lib/RLPEncode.sol\":474:478  0x80 */\n      0x80\n        /* \"lib/RLPEncode.sol\":466:470  0xFF */\n      0xff\n        /* \"lib/RLPEncode.sol\":456:470  self[0] & 0xFF */\n      0xf8\n      shl\n        /* \"lib/RLPEncode.sol\":456:460  self */\n      dup5\n        /* \"lib/RLPEncode.sol\":461:462  0 */\n      0x00\n        /* \"lib/RLPEncode.sol\":456:463  self[0] */\n      dup2\n      mload\n      dup2\n      lt\n      tag_427\n      jumpi\n      invalid\n    tag_427:\n      0x20\n      add\n      add\n      mload\n      0xf8\n      shr\n      0xf8\n      shl\n        /* \"lib/RLPEncode.sol\":456:470  self[0] & 0xFF */\n      and\n        /* \"lib/RLPEncode.sol\":450:471  uint8(self[0] & 0xFF) */\n      0xf8\n      shr\n        /* \"lib/RLPEncode.sol\":450:478  uint8(self[0] & 0xFF) < 0x80 */\n      0xff\n      and\n      lt\n        /* \"lib/RLPEncode.sol\":430:478  self.length == 1 && uint8(self[0] & 0xFF) < 0x80 */\n    tag_426:\n        /* \"lib/RLPEncode.sol\":426:649  if (self.length == 1 && uint8(self[0] & 0xFF) < 0x80) {... */\n      iszero\n      tag_428\n      jumpi\n        /* \"lib/RLPEncode.sol\":514:515  1 */\n      0x01\n        /* \"lib/RLPEncode.sol\":504:516  new bytes(1) */\n      mload(0x40)\n      swap1\n      dup1\n      dup3\n      mstore\n      dup1\n      0x1f\n      add\n      not(0x1f)\n      and\n      0x20\n      add\n      dup3\n      add\n      0x40\n      mstore\n      dup1\n      iszero\n      tag_429\n      jumpi\n      dup2\n      0x20\n      add\n        /* \"--CODEGEN--\":29:30   */\n      0x01\n        /* \"--CODEGEN--\":21:27   */\n      dup3\n        /* \"--CODEGEN--\":17:31   */\n      mul\n        /* \"--CODEGEN--\":124:128   */\n      dup1\n        /* \"--CODEGEN--\":108:122   */\n      calldatasize\n        /* \"--CODEGEN--\":100:106   */\n      dup4\n        /* \"--CODEGEN--\":87:129   */\n      calldatacopy\n        /* \"--CODEGEN--\":155:159   */\n      dup1\n        /* \"--CODEGEN--\":147:153   */\n      dup3\n        /* \"--CODEGEN--\":143:160   */\n      add\n        /* \"--CODEGEN--\":133:160   */\n      swap2\n      pop\n        /* \"--CODEGEN--\":0:164   */\n      pop\n        /* \"lib/RLPEncode.sol\":504:516  new bytes(1) */\n      swap1\n      pop\n    tag_429:\n      pop\n        /* \"lib/RLPEncode.sol\":494:516  encoded = new bytes(1) */\n      swap1\n      pop\n        /* \"lib/RLPEncode.sol\":540:544  self */\n      dup3\n        /* \"lib/RLPEncode.sol\":530:544  encoded = self */\n      swap1\n      pop\n        /* \"lib/RLPEncode.sol\":426:649  if (self.length == 1 && uint8(self[0] & 0xFF) < 0x80) {... */\n      jump(tag_430)\n    tag_428:\n        /* \"lib/RLPEncode.sol\":585:638  BytesLib.concat(encodeLength(self.length, 128), self) */\n      tag_431\n        /* \"lib/RLPEncode.sol\":601:631  encodeLength(self.length, 128) */\n      tag_432\n        /* \"lib/RLPEncode.sol\":614:618  self */\n      dup5\n        /* \"lib/RLPEncode.sol\":614:625  self.length */\n      mload\n        /* \"lib/RLPEncode.sol\":627:630  128 */\n      0x80\n        /* \"lib/RLPEncode.sol\":601:613  encodeLength */\n      tag_412\n        /* \"lib/RLPEncode.sol\":601:631  encodeLength(self.length, 128) */\n      jump\t// in\n    tag_432:\n        /* \"lib/RLPEncode.sol\":633:637  self */\n      dup5\n        /* \"lib/RLPEncode.sol\":585:600  BytesLib.concat */\n      tag_409\n        /* \"lib/RLPEncode.sol\":585:638  BytesLib.concat(encodeLength(self.length, 128), self) */\n      jump\t// in\n    tag_431:\n        /* \"lib/RLPEncode.sol\":575:638  encoded = BytesLib.concat(encodeLength(self.length, 128), self) */\n      swap1\n      pop\n        /* \"lib/RLPEncode.sol\":426:649  if (self.length == 1 && uint8(self[0] & 0xFF) < 0x80) {... */\n    tag_430:\n        /* \"lib/RLPEncode.sol\":665:672  encoded */\n      dup1\n        /* \"lib/RLPEncode.sol\":658:672  return encoded */\n      swap2\n      pop\n      pop\n        /* \"lib/RLPEncode.sol\":282:679  function encodeItem(bytes memory self)... */\n      swap2\n      swap1\n      pop\n      jump\t// out\n        /* \"lib/BytesLib.sol\":74:3067  function concat(bytes memory _preBytes, bytes memory _postBytes)... */\n    tag_409:\n        /* \"lib/BytesLib.sol\":186:198  bytes memory */\n      0x60\n        /* \"lib/BytesLib.sol\":214:236  bytes memory tempBytes */\n      dup1\n        /* \"lib/BytesLib.sol\":418:422  0x40 */\n      0x40\n        /* \"lib/BytesLib.sol\":412:423  mload(0x40) */\n      mload\n        /* \"lib/BytesLib.sol\":399:423  tempBytes := mload(0x40) */\n      swap1\n      pop\n        /* \"lib/BytesLib.sol\":575:584  _preBytes */\n      dup4\n        /* \"lib/BytesLib.sol\":569:585  mload(_preBytes) */\n      mload\n        /* \"lib/BytesLib.sol\":616:622  length */\n      dup1\n        /* \"lib/BytesLib.sol\":605:614  tempBytes */\n      dup3\n        /* \"lib/BytesLib.sol\":598:623  mstore(tempBytes, length) */\n      mstore\n        /* \"lib/BytesLib.sol\":858:862  0x20 */\n      0x20\n        /* \"lib/BytesLib.sol\":847:856  tempBytes */\n      dup3\n        /* \"lib/BytesLib.sol\":843:863  add(tempBytes, 0x20) */\n      add\n        /* \"lib/BytesLib.sol\":1007:1013  length */\n      dup2\n        /* \"lib/BytesLib.sol\":1003:1005  mc */\n      dup2\n        /* \"lib/BytesLib.sol\":999:1014  add(mc, length) */\n      add\n        /* \"lib/BytesLib.sol\":1201:1205  0x20 */\n      0x20\n        /* \"lib/BytesLib.sol\":1190:1199  _preBytes */\n      dup8\n        /* \"lib/BytesLib.sol\":1186:1206  add(_preBytes, 0x20) */\n      add\n        /* \"lib/BytesLib.sol\":1028:1553  for {... */\n    tag_434:\n        /* \"lib/BytesLib.sol\":1228:1231  end */\n      dup2\n        /* \"lib/BytesLib.sol\":1224:1226  mc */\n      dup4\n        /* \"lib/BytesLib.sol\":1221:1232  lt(mc, end) */\n      lt\n        /* \"lib/BytesLib.sol\":1028:1553  for {... */\n      iszero\n      tag_436\n      jumpi\n        /* \"lib/BytesLib.sol\":1535:1537  cc */\n      dup1\n        /* \"lib/BytesLib.sol\":1529:1538  mload(cc) */\n      mload\n        /* \"lib/BytesLib.sol\":1525:1527  mc */\n      dup4\n        /* \"lib/BytesLib.sol\":1518:1539  mstore(mc, mload(cc)) */\n      mstore\n        /* \"lib/BytesLib.sol\":1335:1339  0x20 */\n      0x20\n        /* \"lib/BytesLib.sol\":1331:1333  mc */\n      dup4\n        /* \"lib/BytesLib.sol\":1327:1340  add(mc, 0x20) */\n      add\n        /* \"lib/BytesLib.sol\":1321:1340  mc := add(mc, 0x20) */\n      swap3\n      pop\n        /* \"lib/BytesLib.sol\":1371:1375  0x20 */\n      0x20\n        /* \"lib/BytesLib.sol\":1367:1369  cc */\n      dup2\n        /* \"lib/BytesLib.sol\":1363:1376  add(cc, 0x20) */\n      add\n        /* \"lib/BytesLib.sol\":1357:1376  cc := add(cc, 0x20) */\n      swap1\n      pop\n        /* \"lib/BytesLib.sol\":1028:1553  for {... */\n      jump(tag_434)\n    tag_436:\n        /* \"lib/BytesLib.sol\":1032:1220  {... */\n      pop\n        /* \"lib/BytesLib.sol\":1770:1780  _postBytes */\n      dup6\n        /* \"lib/BytesLib.sol\":1764:1781  mload(_postBytes) */\n      mload\n        /* \"lib/BytesLib.sol\":1754:1781  length := mload(_postBytes) */\n      swap3\n      pop\n        /* \"lib/BytesLib.sol\":1830:1839  tempBytes */\n      dup4\n        /* \"lib/BytesLib.sol\":1824:1840  mload(tempBytes) */\n      mload\n        /* \"lib/BytesLib.sol\":1816:1822  length */\n      dup4\n        /* \"lib/BytesLib.sol\":1812:1841  add(length, mload(tempBytes)) */\n      add\n        /* \"lib/BytesLib.sol\":1801:1810  tempBytes */\n      dup5\n        /* \"lib/BytesLib.sol\":1794:1842  mstore(tempBytes, add(length, mload(tempBytes))) */\n      mstore\n        /* \"lib/BytesLib.sol\":1986:1989  end */\n      dup1\n        /* \"lib/BytesLib.sol\":1980:1989  mc := end */\n      swap2\n      pop\n        /* \"lib/BytesLib.sol\":2131:2137  length */\n      dup3\n        /* \"lib/BytesLib.sol\":2127:2129  mc */\n      dup3\n        /* \"lib/BytesLib.sol\":2123:2138  add(mc, length) */\n      add\n        /* \"lib/BytesLib.sol\":2116:2138  end := add(mc, length) */\n      swap1\n      pop\n        /* \"lib/BytesLib.sol\":2200:2204  0x20 */\n      0x20\n        /* \"lib/BytesLib.sol\":2188:2198  _postBytes */\n      dup7\n        /* \"lib/BytesLib.sol\":2184:2205  add(_postBytes, 0x20) */\n      add\n        /* \"lib/BytesLib.sol\":2152:2373  for {... */\n    tag_437:\n        /* \"lib/BytesLib.sol\":2227:2230  end */\n      dup2\n        /* \"lib/BytesLib.sol\":2223:2225  mc */\n      dup4\n        /* \"lib/BytesLib.sol\":2220:2231  lt(mc, end) */\n      lt\n        /* \"lib/BytesLib.sol\":2152:2373  for {... */\n      iszero\n      tag_439\n      jumpi\n        /* \"lib/BytesLib.sol\":2355:2357  cc */\n      dup1\n        /* \"lib/BytesLib.sol\":2349:2358  mload(cc) */\n      mload\n        /* \"lib/BytesLib.sol\":2345:2347  mc */\n      dup4\n        /* \"lib/BytesLib.sol\":2338:2359  mstore(mc, mload(cc)) */\n      mstore\n        /* \"lib/BytesLib.sol\":2264:2268  0x20 */\n      0x20\n        /* \"lib/BytesLib.sol\":2260:2262  mc */\n      dup4\n        /* \"lib/BytesLib.sol\":2256:2269  add(mc, 0x20) */\n      add\n        /* \"lib/BytesLib.sol\":2250:2269  mc := add(mc, 0x20) */\n      swap3\n      pop\n        /* \"lib/BytesLib.sol\":2300:2304  0x20 */\n      0x20\n        /* \"lib/BytesLib.sol\":2296:2298  cc */\n      dup2\n        /* \"lib/BytesLib.sol\":2292:2305  add(cc, 0x20) */\n      add\n        /* \"lib/BytesLib.sol\":2286:2305  cc := add(cc, 0x20) */\n      swap1\n      pop\n        /* \"lib/BytesLib.sol\":2152:2373  for {... */\n      jump(tag_437)\n    tag_439:\n        /* \"lib/BytesLib.sol\":2156:2219  {... */\n      pop\n        /* \"lib/BytesLib.sol\":2951:2953  31 */\n      0x1f\n        /* \"lib/BytesLib.sol\":2947:2954  not(31) */\n      not\n        /* \"lib/BytesLib.sol\":2922:2924  31 */\n      0x1f\n        /* \"lib/BytesLib.sol\":2907:2916  _preBytes */\n      dup9\n        /* \"lib/BytesLib.sol\":2901:2917  mload(_preBytes) */\n      mload\n        /* \"lib/BytesLib.sol\":2893:2899  length */\n      dup6\n        /* \"lib/BytesLib.sol\":2889:2918  add(length, mload(_preBytes)) */\n      add\n        /* \"lib/BytesLib.sol\":2882:2919  iszero(add(length, mload(_preBytes))) */\n      iszero\n        /* \"lib/BytesLib.sol\":2877:2880  end */\n      dup4\n        /* \"lib/BytesLib.sol\":2873:2920  add(end, iszero(add(length, mload(_preBytes)))) */\n      add\n        /* \"lib/BytesLib.sol\":2869:2925  add(add(end, iszero(add(length, mload(_preBytes)))), 31) */\n      add\n        /* \"lib/BytesLib.sol\":2844:3011  and(... */\n      and\n        /* \"lib/BytesLib.sol\":2822:2826  0x40 */\n      0x40\n        /* \"lib/BytesLib.sol\":2798:3025  mstore(... */\n      mstore\n        /* \"lib/BytesLib.sol\":255:3035  {... */\n      pop\n      pop\n      pop\n        /* \"lib/BytesLib.sol\":3051:3060  tempBytes */\n      dup1\n        /* \"lib/BytesLib.sol\":3044:3060  return tempBytes */\n      swap2\n      pop\n      pop\n        /* \"lib/BytesLib.sol\":74:3067  function concat(bytes memory _preBytes, bytes memory _postBytes)... */\n      swap3\n      swap2\n      pop\n      pop\n      jump\t// out\n        /* \"lib/RLPEncode.sol\":1802:2520  function encodeLength(uint256 L, uint256 offset)... */\n    tag_412:\n        /* \"lib/RLPEncode.sol\":1898:1910  bytes memory */\n      0x60\n        /* \"lib/RLPEncode.sol\":1934:1936  56 */\n      0x38\n        /* \"lib/RLPEncode.sol\":1930:1931  L */\n      dup4\n        /* \"lib/RLPEncode.sol\":1930:1936  L < 56 */\n      lt\n        /* \"lib/RLPEncode.sol\":1926:2514  if (L < 56) {... */\n      iszero\n      tag_441\n      jumpi\n        /* \"lib/RLPEncode.sol\":1952:1971  bytes memory prefix */\n      0x60\n        /* \"lib/RLPEncode.sol\":1984:1985  1 */\n      0x01\n        /* \"lib/RLPEncode.sol\":1974:1986  new bytes(1) */\n      mload(0x40)\n      swap1\n      dup1\n      dup3\n      mstore\n      dup1\n      0x1f\n      add\n      not(0x1f)\n      and\n      0x20\n      add\n      dup3\n      add\n      0x40\n      mstore\n      dup1\n      iszero\n      tag_442\n      jumpi\n      dup2\n      0x20\n      add\n        /* \"--CODEGEN--\":29:30   */\n      0x01\n        /* \"--CODEGEN--\":21:27   */\n      dup3\n        /* \"--CODEGEN--\":17:31   */\n      mul\n        /* \"--CODEGEN--\":124:128   */\n      dup1\n        /* \"--CODEGEN--\":108:122   */\n      calldatasize\n        /* \"--CODEGEN--\":100:106   */\n      dup4\n        /* \"--CODEGEN--\":87:129   */\n      calldatacopy\n        /* \"--CODEGEN--\":155:159   */\n      dup1\n        /* \"--CODEGEN--\":147:153   */\n      dup3\n        /* \"--CODEGEN--\":143:160   */\n      add\n        /* \"--CODEGEN--\":133:160   */\n      swap2\n      pop\n        /* \"--CODEGEN--\":0:164   */\n      pop\n        /* \"lib/RLPEncode.sol\":1974:1986  new bytes(1) */\n      swap1\n      pop\n    tag_442:\n      pop\n        /* \"lib/RLPEncode.sol\":1952:1986  bytes memory prefix = new bytes(1) */\n      swap1\n      pop\n        /* \"lib/RLPEncode.sol\":2029:2035  offset */\n      dup3\n        /* \"lib/RLPEncode.sol\":2025:2026  L */\n      dup5\n        /* \"lib/RLPEncode.sol\":2025:2035  L + offset */\n      add\n        /* \"lib/RLPEncode.sol\":2012:2037  bytes1(uint8(L + offset)) */\n      0xf8\n      shl\n        /* \"lib/RLPEncode.sol\":2000:2006  prefix */\n      dup2\n        /* \"lib/RLPEncode.sol\":2007:2008  0 */\n      0x00\n        /* \"lib/RLPEncode.sol\":2000:2009  prefix[0] */\n      dup2\n      mload\n      dup2\n      lt\n      tag_443\n      jumpi\n      invalid\n    tag_443:\n      0x20\n      add\n      add\n        /* \"lib/RLPEncode.sol\":2000:2037  prefix[0] = bytes1(uint8(L + offset)) */\n      swap1\n      not(0xffffffffffffffffffffffffffffffffffffffffffffffffffffffffffffff)\n      and\n      swap1\n      dup2\n      0x00\n      byte\n      swap1\n      mstore8\n      pop\n        /* \"lib/RLPEncode.sol\":2058:2064  prefix */\n      dup1\n        /* \"lib/RLPEncode.sol\":2051:2064  return prefix */\n      swap2\n      pop\n      pop\n      jump(tag_440)\n        /* \"lib/RLPEncode.sol\":1926:2514  if (L < 56) {... */\n    tag_441:\n        /* \"lib/RLPEncode.sol\":2176:2190  uint256 lenLen */\n      0x00\n        /* \"lib/RLPEncode.sol\":2204:2213  uint256 i */\n      dup1\n        /* \"lib/RLPEncode.sol\":2216:2219  0x1 */\n      0x01\n        /* \"lib/RLPEncode.sol\":2204:2219  uint256 i = 0x1 */\n      swap1\n      pop\n        /* \"lib/RLPEncode.sol\":2234:2322  while (L / i != 0) {... */\n    tag_445:\n        /* \"lib/RLPEncode.sol\":2250:2251  0 */\n      0x00\n        /* \"lib/RLPEncode.sol\":2245:2246  i */\n      dup2\n        /* \"lib/RLPEncode.sol\":2241:2242  L */\n      dup7\n        /* \"lib/RLPEncode.sol\":2241:2246  L / i */\n      dup2\n      tag_447\n      jumpi\n      invalid\n    tag_447:\n      div\n        /* \"lib/RLPEncode.sol\":2241:2251  L / i != 0 */\n      eq\n        /* \"lib/RLPEncode.sol\":2234:2322  while (L / i != 0) {... */\n      tag_446\n      jumpi\n        /* \"lib/RLPEncode.sol\":2271:2279  lenLen++ */\n      dup2\n      dup1\n      0x01\n      add\n      swap3\n      pop\n      pop\n        /* \"lib/RLPEncode.sol\":2302:2307  0x100 */\n      0x0100\n        /* \"lib/RLPEncode.sol\":2297:2307  i *= 0x100 */\n      dup2\n      mul\n      swap1\n      pop\n        /* \"lib/RLPEncode.sol\":2234:2322  while (L / i != 0) {... */\n      jump(tag_445)\n    tag_446:\n        /* \"lib/RLPEncode.sol\":2336:2356  bytes memory prefix0 */\n      0x60\n        /* \"lib/RLPEncode.sol\":2359:2395  getLengthBytes(offset + 55 + lenLen) */\n      tag_448\n        /* \"lib/RLPEncode.sol\":2388:2394  lenLen */\n      dup4\n        /* \"lib/RLPEncode.sol\":2383:2385  55 */\n      0x37\n        /* \"lib/RLPEncode.sol\":2374:2380  offset */\n      dup8\n        /* \"lib/RLPEncode.sol\":2374:2385  offset + 55 */\n      add\n        /* \"lib/RLPEncode.sol\":2374:2394  offset + 55 + lenLen */\n      add\n        /* \"lib/RLPEncode.sol\":2359:2373  getLengthBytes */\n      tag_449\n        /* \"lib/RLPEncode.sol\":2359:2395  getLengthBytes(offset + 55 + lenLen) */\n      jump\t// in\n    tag_448:\n        /* \"lib/RLPEncode.sol\":2336:2395  bytes memory prefix0 = getLengthBytes(offset + 55 + lenLen) */\n      swap1\n      pop\n        /* \"lib/RLPEncode.sol\":2409:2429  bytes memory prefix1 */\n      0x60\n        /* \"lib/RLPEncode.sol\":2432:2449  getLengthBytes(L) */\n      tag_450\n        /* \"lib/RLPEncode.sol\":2447:2448  L */\n      dup8\n        /* \"lib/RLPEncode.sol\":2432:2446  getLengthBytes */\n      tag_449\n        /* \"lib/RLPEncode.sol\":2432:2449  getLengthBytes(L) */\n      jump\t// in\n    tag_450:\n        /* \"lib/RLPEncode.sol\":2409:2449  bytes memory prefix1 = getLengthBytes(L) */\n      swap1\n      pop\n        /* \"lib/RLPEncode.sol\":2470:2503  BytesLib.concat(prefix0, prefix1) */\n      tag_451\n        /* \"lib/RLPEncode.sol\":2486:2493  prefix0 */\n      dup3\n        /* \"lib/RLPEncode.sol\":2495:2502  prefix1 */\n      dup3\n        /* \"lib/RLPEncode.sol\":2470:2485  BytesLib.concat */\n      tag_409\n        /* \"lib/RLPEncode.sol\":2470:2503  BytesLib.concat(prefix0, prefix1) */\n      jump\t// in\n    tag_451:\n        /* \"lib/RLPEncode.sol\":2463:2503  return BytesLib.concat(prefix0, prefix1) */\n      swap5\n      pop\n      pop\n      pop\n      pop\n      pop\n        /* \"lib/RLPEncode.sol\":1802:2520  function encodeLength(uint256 L, uint256 offset)... */\n    tag_440:\n      swap3\n      swap2\n      pop\n      pop\n      jump\t// out\n        /* \"lib/RLPEncode.sol\":2526:3078  function getLengthBytes(uint256 x) internal pure returns (bytes memory b) {... */\n    tag_449:\n        /* \"lib/RLPEncode.sol\":2584:2598  bytes memory b */\n      0x60\n        /* \"lib/RLPEncode.sol\":2797:2811  uint256 nBytes */\n      0x00\n        /* \"lib/RLPEncode.sol\":2814:2815  1 */\n      0x01\n        /* \"lib/RLPEncode.sol\":2797:2815  uint256 nBytes = 1 */\n      swap1\n      pop\n        /* \"lib/RLPEncode.sol\":2833:2836  255 */\n      0xff\n        /* \"lib/RLPEncode.sol\":2829:2830  x */\n      dup4\n        /* \"lib/RLPEncode.sol\":2829:2836  x > 255 */\n      gt\n        /* \"lib/RLPEncode.sol\":2825:2873  if (x > 255) {... */\n      iszero\n      tag_453\n      jumpi\n        /* \"lib/RLPEncode.sol\":2861:2862  2 */\n      0x02\n        /* \"lib/RLPEncode.sol\":2852:2862  nBytes = 2 */\n      swap1\n      pop\n        /* \"lib/RLPEncode.sol\":2825:2873  if (x > 255) {... */\n    tag_453:\n        /* \"lib/RLPEncode.sol\":2897:2903  nBytes */\n      dup1\n        /* \"lib/RLPEncode.sol\":2887:2904  new bytes(nBytes) */\n      mload(0x40)\n      swap1\n      dup1\n      dup3\n      mstore\n      dup1\n      0x1f\n      add\n      not(0x1f)\n      and\n      0x20\n      add\n      dup3\n      add\n      0x40\n      mstore\n      dup1\n      iszero\n      tag_454\n      jumpi\n      dup2\n      0x20\n      add\n        /* \"--CODEGEN--\":29:30   */\n      0x01\n        /* \"--CODEGEN--\":21:27   */\n      dup3\n        /* \"--CODEGEN--\":17:31   */\n      mul\n        /* \"--CODEGEN--\":124:128   */\n      dup1\n        /* \"--CODEGEN--\":108:122   */\n      calldatasize\n        /* \"--CODEGEN--\":100:106   */\n      dup4\n        /* \"--CODEGEN--\":87:129   */\n      calldatacopy\n        /* \"--CODEGEN--\":155:159   */\n      dup1\n        /* \"--CODEGEN--\":147:153   */\n      dup3\n        /* \"--CODEGEN--\":143:160   */\n      add\n        /* \"--CODEGEN--\":133:160   */\n      swap2\n      pop\n        /* \"--CODEGEN--\":0:164   */\n      pop\n        /* \"lib/RLPEncode.sol\":2887:2904  new bytes(nBytes) */\n      swap1\n      pop\n    tag_454:\n      pop\n        /* \"lib/RLPEncode.sol\":2883:2904  b = new bytes(nBytes) */\n      swap2\n      pop\n        /* \"lib/RLPEncode.sol\":2962:2971  uint256 i */\n      0x00\n        /* \"lib/RLPEncode.sol\":2974:2975  0 */\n      dup1\n        /* \"lib/RLPEncode.sol\":2962:2975  uint256 i = 0 */\n      swap1\n      pop\n        /* \"lib/RLPEncode.sol\":2957:3072  for (uint256 i = 0; i < nBytes; i++) {... */\n    tag_455:\n        /* \"lib/RLPEncode.sol\":2981:2987  nBytes */\n      dup2\n        /* \"lib/RLPEncode.sol\":2977:2978  i */\n      dup2\n        /* \"lib/RLPEncode.sol\":2977:2987  i < nBytes */\n      lt\n        /* \"lib/RLPEncode.sol\":2957:3072  for (uint256 i = 0; i < nBytes; i++) {... */\n      iszero\n      tag_456\n      jumpi\n        /* \"lib/RLPEncode.sol\":3055:3056  i */\n      dup1\n        /* \"lib/RLPEncode.sol\":3051:3052  1 */\n      0x01\n        /* \"lib/RLPEncode.sol\":3042:3048  nBytes */\n      dup4\n        /* \"lib/RLPEncode.sol\":3042:3052  nBytes - 1 */\n      sub\n        /* \"lib/RLPEncode.sol\":3042:3056  nBytes - 1 - i */\n      sub\n        /* \"lib/RLPEncode.sol\":3037:3038  8 */\n      0x08\n        /* \"lib/RLPEncode.sol\":3037:3057  8 * (nBytes - 1 - i) */\n      mul\n        /* \"lib/RLPEncode.sol\":3033:3034  2 */\n      0x02\n        /* \"lib/RLPEncode.sol\":3033:3058  2**(8 * (nBytes - 1 - i)) */\n      exp\n        /* \"lib/RLPEncode.sol\":3028:3029  x */\n      dup5\n        /* \"lib/RLPEncode.sol\":3028:3059  x / (2**(8 * (nBytes - 1 - i))) */\n      dup2\n      tag_458\n      jumpi\n      invalid\n    tag_458:\n      div\n        /* \"lib/RLPEncode.sol\":3015:3061  bytes1(uint8(x / (2**(8 * (nBytes - 1 - i))))) */\n      0xf8\n      shl\n        /* \"lib/RLPEncode.sol\":3008:3009  b */\n      dup4\n        /* \"lib/RLPEncode.sol\":3010:3011  i */\n      dup3\n        /* \"lib/RLPEncode.sol\":3008:3012  b[i] */\n      dup2\n      mload\n      dup2\n      lt\n      tag_459\n      jumpi\n      invalid\n    tag_459:\n      0x20\n      add\n      add\n        /* \"lib/RLPEncode.sol\":3008:3061  b[i] = bytes1(uint8(x / (2**(8 * (nBytes - 1 - i))))) */\n      swap1\n      not(0xffffffffffffffffffffffffffffffffffffffffffffffffffffffffffffff)\n      and\n      swap1\n      dup2\n      0x00\n      byte\n      swap1\n      mstore8\n      pop\n        /* \"lib/RLPEncode.sol\":2989:2992  i++ */\n      dup1\n      dup1\n      0x01\n      add\n      swap2\n      pop\n      pop\n        /* \"lib/RLPEncode.sol\":2957:3072  for (uint256 i = 0; i < nBytes; i++) {... */\n      jump(tag_455)\n    tag_456:\n      pop\n        /* \"lib/RLPEncode.sol\":2526:3078  function getLengthBytes(uint256 x) internal pure returns (bytes memory b) {... */\n      pop\n      swap2\n      swap1\n      pop\n      jump\t// out\n        /* \"PlasmaManager.sol\":298:5188  contract PlasmaManager {... */\n    tag_84:\n      mload(0x40)\n      dup1\n      0x80\n      add\n      0x40\n      mstore\n      dup1\n      0x00\n      dup2\n      mstore\n      0x20\n      add\n      0x00\n      dup2\n      mstore\n      0x20\n      add\n      0x00\n      dup1\n      not\n      and\n      dup2\n      mstore\n      0x20\n      add\n      0x00\n      dup1\n      not\n      and\n      dup2\n      mstore\n      pop\n      swap1\n      jump\t// out\n    tag_168:\n      mload(0x40)\n      dup1\n      0x40\n      add\n      0x40\n      mstore\n      dup1\n      0x00\n      dup2\n      mstore\n      0x20\n      add\n      0x00\n      dup2\n      mstore\n      pop\n      swap1\n      jump\t// out\n    tag_179:\n      mload(0x40)\n      dup1\n      0x40\n      add\n      0x40\n      mstore\n      dup1\n      0x00\n      dup2\n      mstore\n      0x20\n      add\n      0x00\n      dup2\n      mstore\n      pop\n      swap1\n      jump\t// out\n    stop\n    data_077781bc781d69c18b16708e32a7859fb69c8510a105056868d84c2c5ba1f85f 7472616e736665722073686f756c64206265206d61646520746f2045534e204465706f7369742041646472657373\n    data_fc13d223b0e89774a393f7fd3fe2b806585769765211db5908a5476ec6dfd9e8 416c72656164792070726f636573736564207769746864726177616c20666f722074686973207472616e73616374696f6e\n\n    auxdata: 0xa26469706673582212208c7d5f723fd83e958a228fef604e0ce8e0570bc014f4c89d25472a232e5d551864736f6c63430006030033\n}\n","bytecode":{"linkReferences":{},"object":"608060405230600760006101000a81548173ffffffffffffffffffffffffffffffffffffffff021916908373ffffffffffffffffffffffffffffffffffffffff1602179055503480156200005257600080fd5b5060405162002d4038038062002d40833981810160405260408110156200007857600080fd5b81019080805160405193929190846401000000008211156200009957600080fd5b83820191506020820185811115620000b057600080fd5b8251866020820283011164010000000082111715620000ce57600080fd5b8083526020830192505050908051906020019060200280838360005b8381101562000107578082015181840152602081019050620000ea565b505050509050016040526020018051906020019092919050505060008090505b8251811015620001aa5760018060008584815181106200014357fe5b602002602001015173ffffffffffffffffffffffffffffffffffffffff1673ffffffffffffffffffffffffffffffffffffffff16815260200190815260200160002060006101000a81548160ff021916908315150217905550808060010191505062000127565b5081516000819055508160039080519060200190620001cb92919062000215565b5080600660006101000a81548173ffffffffffffffffffffffffffffffffffffffff021916908373ffffffffffffffffffffffffffffffffffffffff1602179055505050620002ea565b82805482825590600052602060002090810192821562000291579160200282015b82811115620002905782518260006101000a81548173ffffffffffffffffffffffffffffffffffffffff021916908373ffffffffffffffffffffffffffffffffffffffff1602179055509160200191906001019062000236565b5b509050620002a09190620002a4565b5090565b620002e791905b80821115620002e357600081816101000a81549073ffffffffffffffffffffffffffffffffffffffff021916905550600101620002ab565b5090565b90565b612a4680620002fa6000396000f3fe608060405234801561001057600080fd5b50600436106100ea5760003560e01c8063bf49d6311161008c578063d6832ea911610066578063d6832ea9146104e9578063f3513a3714610507578063facd743b14610566578063fc0c546a146105c2576100ea565b8063bf49d63114610389578063ca5d0926146103cf578063d42f2f351461048a576100ea565b806335aa2e44116100c857806335aa2e44146101c557806375080de81461023357806376f5e6da1461028a578063974275cf14610345576100ea565b806315c09850146100ef5780632079fb9a146101395780632ceea82a146101a7575b600080fd5b6100f761060c565b604051808273ffffffffffffffffffffffffffffffffffffffff1673ffffffffffffffffffffffffffffffffffffffff16815260200191505060405180910390f35b6101656004803603602081101561014f57600080fd5b8101908080359060200190929190505050610632565b604051808273ffffffffffffffffffffffffffffffffffffffff1673ffffffffffffffffffffffffffffffffffffffff16815260200191505060405180910390f35b6101af61066e565b6040518082815260200191505060405180910390f35b6101f1600480360360208110156101db57600080fd5b810190808035906020019092919050505061067b565b604051808273ffffffffffffffffffffffffffffffffffffffff1673ffffffffffffffffffffffffffffffffffffffff16815260200191505060405180910390f35b61025f6004803603602081101561024957600080fd5b81019080803590602001909291905050506106b7565b6040518085815260200184815260200183815260200182815260200194505050505060405180910390f35b610343600480360360208110156102a057600080fd5b81019080803590602001906401000000008111156102bd57600080fd5b8201836020820111156102cf57600080fd5b803590602001918460018302840111640100000000831117156102f157600080fd5b91908080601f016020809104026020016040519081016040528093929190818152602001838380828437600081840152601f19601f8201169050808301925050505050505091929192905050506106f4565b005b6103876004803603602081101561035b57600080fd5b81019080803573ffffffffffffffffffffffffffffffffffffffff169060200190929190505050610c95565b005b6103b56004803603602081101561039f57600080fd5b8101908080359060200190929190505050610cd9565b604051808215151515815260200191505060405180910390f35b610488600480360360208110156103e557600080fd5b810190808035906020019064010000000081111561040257600080fd5b82018360208201111561041457600080fd5b8035906020019184600183028401116401000000008311171561043657600080fd5b91908080601f016020809104026020016040519081016040528093929190818152602001838380828437600081840152601f19601f820116905080830192505050505050509192919290505050610cf9565b005b61049261118d565b6040518080602001828103825283818151815260200191508051906020019060200280838360005b838110156104d55780820151818401526020810190506104ba565b505050509050019250505060405180910390f35b6104f161121b565b6040518082815260200191505060405180910390f35b61050f611221565b6040518080602001828103825283818151815260200191508051906020019060200280838360005b83811015610552578082015181840152602081019050610537565b505050509050019250505060405180910390f35b6105a86004803603602081101561057c57600080fd5b81019080803573ffffffffffffffffffffffffffffffffffffffff1690602001909291905050506112af565b604051808215151515815260200191505060405180910390f35b6105ca6112cf565b604051808273ffffffffffffffffffffffffffffffffffffffff1673ffffffffffffffffffffffffffffffffffffffff16815260200191505060405180910390f35b600760009054906101000a900473ffffffffffffffffffffffffffffffffffffffff1681565b6004818154811061063f57fe5b906000526020600020016000915054906101000a900473ffffffffffffffffffffffffffffffffffffffff1681565b6000600580549050905090565b6003818154811061068857fe5b906000526020600020016000915054906101000a900473ffffffffffffffffffffffffffffffffffffffff1681565b600581815481106106c457fe5b90600052602060002090600402016000915090508060000154908060010154908060020154908060030154905084565b6060610707610702836112f5565b611323565b905060606107288260008151811061071b57fe5b6020026020010151611323565b905060048151146107a1576040517f08c379a00000000000000000000000000000000000000000000000000000000081526004018080602001828103825260208152602001807f62756e636820686561646572206d75737420686176652034206d656d6265727381525060200191505060405180910390fd5b6107a961294f565b60405180608001604052806107d1846000815181106107c457fe5b6020026020010151611400565b81526020016107f3846001815181106107e657fe5b6020026020010151611400565b81526020016108158460028151811061080857fe5b6020026020010151611471565b81526020016108378460038151811061082a57fe5b6020026020010151611471565b8152509050610844611486565b8160000151146108bc576040517f08c379a000000000000000000000000000000000000000000000000000000000815260040180806020018281038252601a8152602001807f696e76616c696420737461727420626c6f636b206e756d62657200000000000081525060200191505060405180910390fd5b60606108db846000815181106108ce57fe5b60200260200101516114f6565b905060006040518060400160405280601a81526020017f19457468657265756d205369676e6564204d6573736167653a0a00000000000081525061091f835161156c565b836040516020018084805190602001908083835b602083106109565780518252602082019150602081019050602083039250610933565b6001836020036101000a03801982511681845116808217855250505050505090500183805190602001908083835b602083106109a75780518252602082019150602081019050602083039250610984565b6001836020036101000a03801982511681845116808217855250505050505090500182805190602001908083835b602083106109f857805182526020820191506020810190506020830392506109d5565b6001836020036101000a0380198251168184511680821785525050505050509050019350505050604051602081830303815290604052805190602001209050600080600190505b8651811015610b57576060610a66888381518110610a5957fe5b6020026020010151611699565b9050600080610a758684611725565b9150915081610aec576040517f08c379a00000000000000000000000000000000000000000000000000000000081526004018080602001828103825260188152602001807f65637265636f7665722073686f756c642073756363657373000000000000000081525060200191505060405180910390fd5b600160008273ffffffffffffffffffffffffffffffffffffffff1673ffffffffffffffffffffffffffffffffffffffff16815260200190815260200160002060009054906101000a900460ff1615610b475784806001019550505b5050508080600101915050610a3f565b50606460426000540281610b6757fe5b048111610bdc576040517f08c379a000000000000000000000000000000000000000000000000000000000815260040180806020018281038252601a8152602001807f3636252076616c696461746f72732073686f756c64207369676e00000000000081525060200191505060405180910390fd5b6000600580549050905060058590806001815401808255809150506001900390600052602060002090600402016000909190919091506000820151816000015560208201518160010155604082015181600201556060820151816003015550507f435520ea9b14c682112acef5bc8466234d75b18dce73c44a78d905139def419d856000015186602001518360405180848152602001838152602001828152602001935050505060405180910390a15050505050505050565b80600760006101000a81548173ffffffffffffffffffffffffffffffffffffffff021916908373ffffffffffffffffffffffffffffffffffffffff16021790555050565b60026020528060005260406000206000915054906101000a900460ff1681565b6060610d0c610d07836112f5565b611323565b90506000610d2d82600081518110610d2057fe5b6020026020010151611400565b90506000610d4e83600181518110610d4157fe5b6020026020010151611400565b90506060610d6f84600281518110610d6257fe5b6020026020010151611699565b90506000610d9085600381518110610d8357fe5b6020026020010151611471565b90506060610db186600481518110610da457fe5b6020026020010151611699565b90506060610dd287600581518110610dc557fe5b6020026020010151611699565b90506060610df388600681518110610de657fe5b6020026020010151611699565b90506000838051906020012090506002600082815260200190815260200160002060009054906101000a900460ff1615610e78576040517f08c379a00000000000000000000000000000000000000000000000000000000081526004018080602001828103825260318152602001806129e06031913960400191505060405180910390fd5b610e84848484886117bd565b610ef6576040517f08c379a00000000000000000000000000000000000000000000000000000000081526004018080602001828103825260168152602001807f496e76616c69642050617472696369612050726f6f660000000000000000000081525060200191505060405180910390fd5b610f408560058a81548110610f0757fe5b906000526020600020906004020160000154890360058b81548110610f2857fe5b90600052602060002090600402016002015489611a93565b610fb2576040517f08c379a00000000000000000000000000000000000000000000000000000000081526004018080602001828103825260148152602001807f496e76616c6964204d65726b6c652050726f6f6600000000000000000000000081525060200191505060405180910390fd5b6000806000610fc087611bda565b50925092509250600760009054906101000a900473ffffffffffffffffffffffffffffffffffffffff1673ffffffffffffffffffffffffffffffffffffffff168273ffffffffffffffffffffffffffffffffffffffff161461106d576040517f08c379a000000000000000000000000000000000000000000000000000000000815260040180806020018281038252602e8152602001806129b2602e913960400191505060405180910390fd5b60016002600086815260200190815260200160002060006101000a81548160ff021916908315150217905550600660009054906101000a900473ffffffffffffffffffffffffffffffffffffffff1673ffffffffffffffffffffffffffffffffffffffff1663a9059cbb84836040518363ffffffff1660e01b8152600401808373ffffffffffffffffffffffffffffffffffffffff1673ffffffffffffffffffffffffffffffffffffffff16815260200182815260200192505050602060405180830381600087803b15801561114257600080fd5b505af1158015611156573d6000803e3d6000fd5b505050506040513d602081101561116c57600080fd5b81019080805190602001909291905050505050505050505050505050505050565b6060600480548060200260200160405190810160405280929190818152602001828054801561121157602002820191906000526020600020905b8160009054906101000a900473ffffffffffffffffffffffffffffffffffffffff1673ffffffffffffffffffffffffffffffffffffffff16815260200190600101908083116111c7575b5050505050905090565b60005481565b606060038054806020026020016040519081016040528092919081815260200182805480156112a557602002820191906000526020600020905b8160009054906101000a900473ffffffffffffffffffffffffffffffffffffffff1673ffffffffffffffffffffffffffffffffffffffff168152602001906001019080831161125b575b5050505050905090565b60016020528060005260406000206000915054906101000a900460ff1681565b600660009054906101000a900473ffffffffffffffffffffffffffffffffffffffff1681565b6112fd61297d565b600060208301905060405180604001604052808451815260200182815250915050919050565b606061132e82611e87565b61133757600080fd5b600061134283611ed5565b905060608160405190808252806020026020018201604052801561138057816020015b61136d612997565b8152602001906001900390816113655790505b50905060006113928560200151611f46565b8560200151019050600080600090505b848110156113f3576113b383611fcf565b91506040518060400160405280838152602001848152508482815181106113d657fe5b6020026020010181905250818301925080806001019150506113a2565b5082945050505050919050565b600080826000015111801561141a57506021826000015111155b61142357600080fd5b60006114328360200151611f46565b9050600081846000015103905060008083866020015101905080519150602083101561146557826020036101000a820491505b81945050505050919050565b600061147c82611400565b60001b9050919050565b600080600580549050141561149e57600090506114f3565b6005600160058054905003815481106114b357fe5b90600052602060002090600402016001015460020a6005600160058054905003815481106114dd57fe5b9060005260206000209060040201600001540190505b90565b60608082600001516040519080825280601f01601f1916602001820160405280156115305781602001600182028036833780820191505090505b5090506000815114156115465780915050611567565b60008160200190506115618460200151828660000151612087565b81925050505b919050565b606060008214156115b4576040518060400160405280600181526020017f30000000000000000000000000000000000000000000000000000000000000008152509050611694565b600082905060005b600082146115de578080600101915050600a82816115d657fe5b0491506115bc565b6060816040519080825280601f01601f1916602001820160405280156116135781602001600182028036833780820191505090505b50905060006001830390505b6000861461168c57600a868161163157fe5b0660300160f81b8282806001900393508151811061164b57fe5b60200101907effffffffffffffffffffffffffffffffffffffffffffffffffffffffffffff1916908160001a905350600a868161168457fe5b04955061161f565b819450505050505b919050565b606060008260000151116116ac57600080fd5b60006116bb8360200151611f46565b905060008184600001510390506060816040519080825280601f01601f1916602001820160405280156116fd5781602001600182028036833780820191505090505b5090506000816020019050611719848760200151018285612087565b81945050505050919050565b6000806000806000604186511461174857600080809050945094505050506117b6565b6020860151925060408601519150606086015160001a9050601b8160ff16101561177357601b810190505b601b8160ff161415801561178b5750601c8160ff1614155b156117a257600080809050945094505050506117b6565b6117ae878285856120ee565b945094505050505b9250929050565b60006117c761297d565b6117d0846112f5565b905060606117dd82611323565b90506060806000869050600080905060606117f78b612132565b9050600081511415611813576000975050505050505050611a8b565b60008090505b8651811015611a8257815183111561183c57600098505050505050505050611a8b565b61185887828151811061184b57fe5b60200260200101516114f6565b95508580519060200120841461187957600098505050505050505050611a8b565b61189587828151811061188857fe5b6020026020010151611323565b945060118551141561196a5781518314156118fe578c805190602001206118cf866010815181106118c257fe5b6020026020010151611699565b8051906020012014156118ed57600198505050505050505050611a8b565b600098505050505050505050611a8b565b600082848151811061190c57fe5b602001015160f81c60f81b60f81c905060108160ff16111561193a5760009950505050505050505050611a8b565b611959868260ff168151811061194c57fe5b60200260200101516122b9565b60001b945060018401935050611a75565b600285511415611a635761199b6119948660008151811061198757fe5b6020026020010151611699565b83856122e7565b8301925081518314156119fc578c805190602001206119cd866001815181106119c057fe5b6020026020010151611699565b8051906020012014156119eb57600198505050505050505050611a8b565b600098505050505050505050611a8b565b6000611a25611a1e87600081518110611a1157fe5b6020026020010151611699565b84866122e7565b1415611a3c57600098505050505050505050611a8b565b611a5985600181518110611a4c57fe5b60200260200101516122b9565b60001b9350611a74565b600098505050505050505050611a8b565b5b8080600101915050611819565b50505050505050505b949350505050565b600080600086905060006020855181611aa857fe5b0614611b1c576040517f08c379a00000000000000000000000000000000000000000000000000000000081526004018080602001828103825260148152602001807f496e76616c69642070726f6f66206c656e67746800000000000000000000000081525060200191505060405180910390fd5b60008690506000602090505b85518111611bc957808601519350600060028381611b4257fe5b061415611b7f5782846040516020018083815260200182815260200192505050604051602081830303815290604052805190602001209250611bb1565b838360405160200180838152602001828152602001925050506040516020818303038152906040528051906020012092505b60028281611bbb57fe5b049150602081019050611b28565b508582149350505050949350505050565b6000806000606080611bf3611bee876112f5565b611323565b90506000611c1482600381518110611c0757fe5b60200260200101516123da565b90506000611c3583600481518110611c2857fe5b6020026020010151611400565b90506060611c5684600581518110611c4957fe5b6020026020010151611699565b90506000611c7785600681518110611c6a57fe5b6020026020010151611400565b90506000611c9886600781518110611c8b57fe5b6020026020010151611471565b90506000611cb987600881518110611cac57fe5b6020026020010151611471565b90506060600080601c861115611d5d576009604051908082528060200260200182016040528015611cfe57816020015b6060815260200190600190039081611ce95790505b509250600060028781611d0d57fe5b061415611d1d57601c9150611d22565b601b91505b600260088360ff1688030381611d3457fe5b049050611d40816123fd565b83600681518110611d4d57fe5b6020026020010181905250611d99565b6006604051908082528060200260200182016040528015611d9257816020015b6060815260200190600190039081611d7d5790505b5092508591505b60008090505b6006811015611de857611dc48b8281518110611db757fe5b6020026020010151611699565b848281518110611dd057fe5b60200260200101819052508080600101915050611d9f565b506060611df484612548565b905060006001828051906020012085898960405160008152602001604052604051808581526020018460ff1660ff1681526020018381526020018281526020019450505050506020604051602081039080840390855afa158015611e5c573d6000803e3d6000fd5b505050602060405103519050808b8b8b9f509f509f509f505050505050505050505050509193509193565b60008082600001511415611e9e5760009050611ed0565b60008083602001519050805160001a915060c060ff168260ff161015611ec957600092505050611ed0565b6001925050505b919050565b60008082600001511415611eec5760009050611f41565b60008090506000611f008460200151611f46565b84602001510190506000846000015185602001510190505b80821015611f3a57611f2982611fcf565b820191508280600101935050611f18565b8293505050505b919050565b600080825160001a9050608060ff16811015611f66576000915050611fca565b60b860ff16811080611f8b575060c060ff168110158015611f8a575060f860ff1681105b5b15611f9a576001915050611fca565b60c060ff16811015611fba5760018060b80360ff16820301915050611fca565b60018060f80360ff168203019150505b919050565b6000806000835160001a9050608060ff16811015611ff0576001915061207d565b60b860ff1681101561200d576001608060ff16820301915061207c565b60c060ff1681101561203d5760b78103600185019450806020036101000a8551046001820181019350505061207b565b60f860ff1681101561205a57600160c060ff16820301915061207a565b60f78103600185019450806020036101000a855104600182018101935050505b5b5b5b8192505050919050565b6000811415612095576120e9565b5b602060ff1681106120c55782518252602060ff1683019250602060ff1682019150602060ff1681039050612096565b6000600182602060ff16036101000a03905080198451168184511681811785525050505b505050565b60008060008060405188815287602082015286604082015285606082015260208160808360006001610bb8f192508051915050818193509350505094509492505050565b6060806000835111156122b05760008061214d6000866125ac565b60f81c905060018160ff161480612167575060038160ff16145b156121ff5760016002865102036040519080825280601f01601f1916602001820160405280156121a65781602001600182028036833780820191505090505b50925060006121b66001876125ac565b905080846000815181106121c657fe5b60200101907effffffffffffffffffffffffffffffffffffffffffffffffffffffffffffff1916908160001a9053506001925050612240565b600280865102036040519080825280601f01601f1916602001820160405280156122385781602001600182028036833780820191505090505b509250600091505b60008260ff1690505b83518110156122ac5761226460028460ff16830301876125ac565b84828151811061227057fe5b60200101907effffffffffffffffffffffffffffffffffffffffffffffffffffffffffffff1916908160001a9053508080600101915050612249565b5050505b80915050919050565b600060218260000151146122cc57600080fd5b60008060018460200151019050805191508192505050919050565b60008060606122f586612132565b9050606081516040519080825280601f01601f19166020018201604052801561232d5781602001600182028036833780820191505090505b50905060008590505b825186018110156123a857600087828151811061234f57fe5b602001015160f81c60f81b905080838884038151811061236b57fe5b60200101907effffffffffffffffffffffffffffffffffffffffffffffffffffffffffffff1916908160001a905350508080600101915050612336565b508080519060200120828051906020012014156123c857815192506123cd565b600092505b8293505050509392505050565b600060158260000151146123ed57600080fd5b6123f682611400565b9050919050565b60608061240983612632565b9050600080600090505b825181101561249657600060f81b7effffffffffffffffffffffffffffffffffffffffffffffffffffffffffffff191683828151811061244f57fe5b602001015160f81c60f81b7effffffffffffffffffffffffffffffffffffffffffffffffffffffffffffff19161461248957809150612496565b8080600101915050612413565b50806020036040519080825280601f01601f1916602001820160405280156124cd5781602001600182028036833780820191505090505b50925060008190505b8251811015612540578281815181106124eb57fe5b602001015160f81c60f81b848383038151811061250457fe5b60200101907effffffffffffffffffffffffffffffffffffffffffffffffffffffffffffff1916908160001a90535080806001019150506124d6565b505050919050565b60608060008090505b835181101561258e5761257f8261257a86848151811061256d57fe5b6020026020010151612676565b612712565b91508080600101915050612551565b506125a461259e825160c061279c565b82612712565b915050919050565b600080600284816125b957fe5b06146125f557601082600285816125cc57fe5b04815181106125d757fe5b602001015160f81c60f81b60f81c60ff16816125ef57fe5b06612627565b6010826002858161260257fe5b048151811061260d57fe5b602001015160f81c60f81b60f81c60ff168161262557fe5b045b60f81b905092915050565b606060206040519080825280601f01601f1916602001820160405280156126685781602001600182028036833780820191505090505b509050816020820152919050565b606080600183511480156126ad5750608060ff60f81b8460008151811061269957fe5b602001015160f81c60f81b1660f81c60ff16105b156126f15760016040519080825280601f01601f1916602001820160405280156126e65781602001600182028036833780820191505090505b509050829050612709565b6127066127008451608061279c565b84612712565b90505b80915050919050565b6060806040519050835180825260208201818101602087015b81831015612748578051835260208301925060208101905061272b565b50855192508351830184528091508282019050602086015b8183101561277d5780518352602083019250602081019050612760565b50601f19601f8851850115830101166040525050508091505092915050565b6060603883101561282b57606060016040519080825280601f01601f1916602001820160405280156127dd5781602001600182028036833780820191505090505b50905082840160f81b816000815181106127f357fe5b60200101907effffffffffffffffffffffffffffffffffffffffffffffffffffffffffffff1916908160001a90535080915050612888565b600080600190505b600081868161283e57fe5b041461285857818060010192505061010081029050612833565b606061286883603787010161288e565b905060606128758761288e565b90506128818282612712565b9450505050505b92915050565b606060006001905060ff8311156128a457600290505b806040519080825280601f01601f1916602001820160405280156128d75781602001600182028036833780820191505090505b50915060008090505b818110156129485780600183030360080260020a84816128fc57fe5b0460f81b83828151811061290c57fe5b60200101907effffffffffffffffffffffffffffffffffffffffffffffffffffffffffffff1916908160001a90535080806001019150506128e0565b5050919050565b6040518060800160405280600081526020016000815260200160008019168152602001600080191681525090565b604051806040016040528060008152602001600081525090565b60405180604001604052806000815260200160008152509056fe7472616e736665722073686f756c64206265206d61646520746f2045534e204465706f7369742041646472657373416c72656164792070726f636573736564207769746864726177616c20666f722074686973207472616e73616374696f6ea26469706673582212208c7d5f723fd83e958a228fef604e0ce8e0570bc014f4c89d25472a232e5d551864736f6c63430006030033","opcodes":"PUSH1 0x80 PUSH1 0x40 MSTORE ADDRESS PUSH1 0x7 PUSH1 0x0 PUSH2 0x100 EXP DUP2 SLOAD DUP2 PUSH20 0xFFFFFFFFFFFFFFFFFFFFFFFFFFFFFFFFFFFFFFFF MUL NOT AND SWAP1 DUP4 PUSH20 0xFFFFFFFFFFFFFFFFFFFFFFFFFFFFFFFFFFFFFFFF AND MUL OR SWAP1 SSTORE POP CALLVALUE DUP1 ISZERO PUSH3 0x52 JUMPI PUSH1 0x0 DUP1 REVERT JUMPDEST POP PUSH1 0x40 MLOAD PUSH3 0x2D40 CODESIZE SUB DUP1 PUSH3 0x2D40 DUP4 CODECOPY DUP2 DUP2 ADD PUSH1 0x40 MSTORE PUSH1 0x40 DUP2 LT ISZERO PUSH3 0x78 JUMPI PUSH1 0x0 DUP1 REVERT JUMPDEST DUP2 ADD SWAP1 DUP1 DUP1 MLOAD PUSH1 0x40 MLOAD SWAP4 SWAP3 SWAP2 SWAP1 DUP5 PUSH5 0x100000000 DUP3 GT ISZERO PUSH3 0x99 JUMPI PUSH1 0x0 DUP1 REVERT JUMPDEST DUP4 DUP3 ADD SWAP2 POP PUSH1 0x20 DUP3 ADD DUP6 DUP2 GT ISZERO PUSH3 0xB0 JUMPI PUSH1 0x0 DUP1 REVERT JUMPDEST DUP3 MLOAD DUP7 PUSH1 0x20 DUP3 MUL DUP4 ADD GT PUSH5 0x100000000 DUP3 GT OR ISZERO PUSH3 0xCE JUMPI PUSH1 0x0 DUP1 REVERT JUMPDEST DUP1 DUP4 MSTORE PUSH1 0x20 DUP4 ADD SWAP3 POP POP POP SWAP1 DUP1 MLOAD SWAP1 PUSH1 0x20 ADD SWAP1 PUSH1 0x20 MUL DUP1 DUP4 DUP4 PUSH1 0x0 JUMPDEST DUP4 DUP2 LT ISZERO PUSH3 0x107 JUMPI DUP1 DUP3 ADD MLOAD DUP2 DUP5 ADD MSTORE PUSH1 0x20 DUP2 ADD SWAP1 POP PUSH3 0xEA JUMP JUMPDEST POP POP POP POP SWAP1 POP ADD PUSH1 0x40 MSTORE PUSH1 0x20 ADD DUP1 MLOAD SWAP1 PUSH1 0x20 ADD SWAP1 SWAP3 SWAP2 SWAP1 POP POP POP PUSH1 0x0 DUP1 SWAP1 POP JUMPDEST DUP3 MLOAD DUP2 LT ISZERO PUSH3 0x1AA JUMPI PUSH1 0x1 DUP1 PUSH1 0x0 DUP6 DUP5 DUP2 MLOAD DUP2 LT PUSH3 0x143 JUMPI INVALID JUMPDEST PUSH1 0x20 MUL PUSH1 0x20 ADD ADD MLOAD PUSH20 0xFFFFFFFFFFFFFFFFFFFFFFFFFFFFFFFFFFFFFFFF AND PUSH20 0xFFFFFFFFFFFFFFFFFFFFFFFFFFFFFFFFFFFFFFFF AND DUP2 MSTORE PUSH1 0x20 ADD SWAP1 DUP2 MSTORE PUSH1 0x20 ADD PUSH1 0x0 KECCAK256 PUSH1 0x0 PUSH2 0x100 EXP DUP2 SLOAD DUP2 PUSH1 0xFF MUL NOT AND SWAP1 DUP4 ISZERO ISZERO MUL OR SWAP1 SSTORE POP DUP1 DUP1 PUSH1 0x1 ADD SWAP2 POP POP PUSH3 0x127 JUMP JUMPDEST POP DUP2 MLOAD PUSH1 0x0 DUP2 SWAP1 SSTORE POP DUP2 PUSH1 0x3 SWAP1 DUP1 MLOAD SWAP1 PUSH1 0x20 ADD SWAP1 PUSH3 0x1CB SWAP3 SWAP2 SWAP1 PUSH3 0x215 JUMP JUMPDEST POP DUP1 PUSH1 0x6 PUSH1 0x0 PUSH2 0x100 EXP DUP2 SLOAD DUP2 PUSH20 0xFFFFFFFFFFFFFFFFFFFFFFFFFFFFFFFFFFFFFFFF MUL NOT AND SWAP1 DUP4 PUSH20 0xFFFFFFFFFFFFFFFFFFFFFFFFFFFFFFFFFFFFFFFF AND MUL OR SWAP1 SSTORE POP POP POP PUSH3 0x2EA JUMP JUMPDEST DUP3 DUP1 SLOAD DUP3 DUP3 SSTORE SWAP1 PUSH1 0x0 MSTORE PUSH1 0x20 PUSH1 0x0 KECCAK256 SWAP1 DUP2 ADD SWAP3 DUP3 ISZERO PUSH3 0x291 JUMPI SWAP2 PUSH1 0x20 MUL DUP3 ADD JUMPDEST DUP3 DUP2 GT ISZERO PUSH3 0x290 JUMPI DUP3 MLOAD DUP3 PUSH1 0x0 PUSH2 0x100 EXP DUP2 SLOAD DUP2 PUSH20 0xFFFFFFFFFFFFFFFFFFFFFFFFFFFFFFFFFFFFFFFF MUL NOT AND SWAP1 DUP4 PUSH20 0xFFFFFFFFFFFFFFFFFFFFFFFFFFFFFFFFFFFFFFFF AND MUL OR SWAP1 SSTORE POP SWAP2 PUSH1 0x20 ADD SWAP2 SWAP1 PUSH1 0x1 ADD SWAP1 PUSH3 0x236 JUMP JUMPDEST JUMPDEST POP SWAP1 POP PUSH3 0x2A0 SWAP2 SWAP1 PUSH3 0x2A4 JUMP JUMPDEST POP SWAP1 JUMP JUMPDEST PUSH3 0x2E7 SWAP2 SWAP1 JUMPDEST DUP1 DUP3 GT ISZERO PUSH3 0x2E3 JUMPI PUSH1 0x0 DUP2 DUP2 PUSH2 0x100 EXP DUP2 SLOAD SWAP1 PUSH20 0xFFFFFFFFFFFFFFFFFFFFFFFFFFFFFFFFFFFFFFFF MUL NOT AND SWAP1 SSTORE POP PUSH1 0x1 ADD PUSH3 0x2AB JUMP JUMPDEST POP SWAP1 JUMP JUMPDEST SWAP1 JUMP JUMPDEST PUSH2 0x2A46 DUP1 PUSH3 0x2FA PUSH1 0x0 CODECOPY PUSH1 0x0 RETURN INVALID PUSH1 0x80 PUSH1 0x40 MSTORE CALLVALUE DUP1 ISZERO PUSH2 0x10 JUMPI PUSH1 0x0 DUP1 REVERT JUMPDEST POP PUSH1 0x4 CALLDATASIZE LT PUSH2 0xEA JUMPI PUSH1 0x0 CALLDATALOAD PUSH1 0xE0 SHR DUP1 PUSH4 0xBF49D631 GT PUSH2 0x8C JUMPI DUP1 PUSH4 0xD6832EA9 GT PUSH2 0x66 JUMPI DUP1 PUSH4 0xD6832EA9 EQ PUSH2 0x4E9 JUMPI DUP1 PUSH4 0xF3513A37 EQ PUSH2 0x507 JUMPI DUP1 PUSH4 0xFACD743B EQ PUSH2 0x566 JUMPI DUP1 PUSH4 0xFC0C546A EQ PUSH2 0x5C2 JUMPI PUSH2 0xEA JUMP JUMPDEST DUP1 PUSH4 0xBF49D631 EQ PUSH2 0x389 JUMPI DUP1 PUSH4 0xCA5D0926 EQ PUSH2 0x3CF JUMPI DUP1 PUSH4 0xD42F2F35 EQ PUSH2 0x48A JUMPI PUSH2 0xEA JUMP JUMPDEST DUP1 PUSH4 0x35AA2E44 GT PUSH2 0xC8 JUMPI DUP1 PUSH4 0x35AA2E44 EQ PUSH2 0x1C5 JUMPI DUP1 PUSH4 0x75080DE8 EQ PUSH2 0x233 JUMPI DUP1 PUSH4 0x76F5E6DA EQ PUSH2 0x28A JUMPI DUP1 PUSH4 0x974275CF EQ PUSH2 0x345 JUMPI PUSH2 0xEA JUMP JUMPDEST DUP1 PUSH4 0x15C09850 EQ PUSH2 0xEF JUMPI DUP1 PUSH4 0x2079FB9A EQ PUSH2 0x139 JUMPI DUP1 PUSH4 0x2CEEA82A EQ PUSH2 0x1A7 JUMPI JUMPDEST PUSH1 0x0 DUP1 REVERT JUMPDEST PUSH2 0xF7 PUSH2 0x60C JUMP JUMPDEST PUSH1 0x40 MLOAD DUP1 DUP3 PUSH20 0xFFFFFFFFFFFFFFFFFFFFFFFFFFFFFFFFFFFFFFFF AND PUSH20 0xFFFFFFFFFFFFFFFFFFFFFFFFFFFFFFFFFFFFFFFF AND DUP2 MSTORE PUSH1 0x20 ADD SWAP2 POP POP PUSH1 0x40 MLOAD DUP1 SWAP2 SUB SWAP1 RETURN JUMPDEST PUSH2 0x165 PUSH1 0x4 DUP1 CALLDATASIZE SUB PUSH1 0x20 DUP2 LT ISZERO PUSH2 0x14F JUMPI PUSH1 0x0 DUP1 REVERT JUMPDEST DUP2 ADD SWAP1 DUP1 DUP1 CALLDATALOAD SWAP1 PUSH1 0x20 ADD SWAP1 SWAP3 SWAP2 SWAP1 POP POP POP PUSH2 0x632 JUMP JUMPDEST PUSH1 0x40 MLOAD DUP1 DUP3 PUSH20 0xFFFFFFFFFFFFFFFFFFFFFFFFFFFFFFFFFFFFFFFF AND PUSH20 0xFFFFFFFFFFFFFFFFFFFFFFFFFFFFFFFFFFFFFFFF AND DUP2 MSTORE PUSH1 0x20 ADD SWAP2 POP POP PUSH1 0x40 MLOAD DUP1 SWAP2 SUB SWAP1 RETURN JUMPDEST PUSH2 0x1AF PUSH2 0x66E JUMP JUMPDEST PUSH1 0x40 MLOAD DUP1 DUP3 DUP2 MSTORE PUSH1 0x20 ADD SWAP2 POP POP PUSH1 0x40 MLOAD DUP1 SWAP2 SUB SWAP1 RETURN JUMPDEST PUSH2 0x1F1 PUSH1 0x4 DUP1 CALLDATASIZE SUB PUSH1 0x20 DUP2 LT ISZERO PUSH2 0x1DB JUMPI PUSH1 0x0 DUP1 REVERT JUMPDEST DUP2 ADD SWAP1 DUP1 DUP1 CALLDATALOAD SWAP1 PUSH1 0x20 ADD SWAP1 SWAP3 SWAP2 SWAP1 POP POP POP PUSH2 0x67B JUMP JUMPDEST PUSH1 0x40 MLOAD DUP1 DUP3 PUSH20 0xFFFFFFFFFFFFFFFFFFFFFFFFFFFFFFFFFFFFFFFF AND PUSH20 0xFFFFFFFFFFFFFFFFFFFFFFFFFFFFFFFFFFFFFFFF AND DUP2 MSTORE PUSH1 0x20 ADD SWAP2 POP POP PUSH1 0x40 MLOAD DUP1 SWAP2 SUB SWAP1 RETURN JUMPDEST PUSH2 0x25F PUSH1 0x4 DUP1 CALLDATASIZE SUB PUSH1 0x20 DUP2 LT ISZERO PUSH2 0x249 JUMPI PUSH1 0x0 DUP1 REVERT JUMPDEST DUP2 ADD SWAP1 DUP1 DUP1 CALLDATALOAD SWAP1 PUSH1 0x20 ADD SWAP1 SWAP3 SWAP2 SWAP1 POP POP POP PUSH2 0x6B7 JUMP JUMPDEST PUSH1 0x40 MLOAD DUP1 DUP6 DUP2 MSTORE PUSH1 0x20 ADD DUP5 DUP2 MSTORE PUSH1 0x20 ADD DUP4 DUP2 MSTORE PUSH1 0x20 ADD DUP3 DUP2 MSTORE PUSH1 0x20 ADD SWAP5 POP POP POP POP POP PUSH1 0x40 MLOAD DUP1 SWAP2 SUB SWAP1 RETURN JUMPDEST PUSH2 0x343 PUSH1 0x4 DUP1 CALLDATASIZE SUB PUSH1 0x20 DUP2 LT ISZERO PUSH2 0x2A0 JUMPI PUSH1 0x0 DUP1 REVERT JUMPDEST DUP2 ADD SWAP1 DUP1 DUP1 CALLDATALOAD SWAP1 PUSH1 0x20 ADD SWAP1 PUSH5 0x100000000 DUP2 GT ISZERO PUSH2 0x2BD JUMPI PUSH1 0x0 DUP1 REVERT JUMPDEST DUP3 ADD DUP4 PUSH1 0x20 DUP3 ADD GT ISZERO PUSH2 0x2CF JUMPI PUSH1 0x0 DUP1 REVERT JUMPDEST DUP1 CALLDATALOAD SWAP1 PUSH1 0x20 ADD SWAP2 DUP5 PUSH1 0x1 DUP4 MUL DUP5 ADD GT PUSH5 0x100000000 DUP4 GT OR ISZERO PUSH2 0x2F1 JUMPI PUSH1 0x0 DUP1 REVERT JUMPDEST SWAP2 SWAP1 DUP1 DUP1 PUSH1 0x1F ADD PUSH1 0x20 DUP1 SWAP2 DIV MUL PUSH1 0x20 ADD PUSH1 0x40 MLOAD SWAP1 DUP2 ADD PUSH1 0x40 MSTORE DUP1 SWAP4 SWAP3 SWAP2 SWAP1 DUP2 DUP2 MSTORE PUSH1 0x20 ADD DUP4 DUP4 DUP1 DUP3 DUP5 CALLDATACOPY PUSH1 0x0 DUP2 DUP5 ADD MSTORE PUSH1 0x1F NOT PUSH1 0x1F DUP3 ADD AND SWAP1 POP DUP1 DUP4 ADD SWAP3 POP POP POP POP POP POP POP SWAP2 SWAP3 SWAP2 SWAP3 SWAP1 POP POP POP PUSH2 0x6F4 JUMP JUMPDEST STOP JUMPDEST PUSH2 0x387 PUSH1 0x4 DUP1 CALLDATASIZE SUB PUSH1 0x20 DUP2 LT ISZERO PUSH2 0x35B JUMPI PUSH1 0x0 DUP1 REVERT JUMPDEST DUP2 ADD SWAP1 DUP1 DUP1 CALLDATALOAD PUSH20 0xFFFFFFFFFFFFFFFFFFFFFFFFFFFFFFFFFFFFFFFF AND SWAP1 PUSH1 0x20 ADD SWAP1 SWAP3 SWAP2 SWAP1 POP POP POP PUSH2 0xC95 JUMP JUMPDEST STOP JUMPDEST PUSH2 0x3B5 PUSH1 0x4 DUP1 CALLDATASIZE SUB PUSH1 0x20 DUP2 LT ISZERO PUSH2 0x39F JUMPI PUSH1 0x0 DUP1 REVERT JUMPDEST DUP2 ADD SWAP1 DUP1 DUP1 CALLDATALOAD SWAP1 PUSH1 0x20 ADD SWAP1 SWAP3 SWAP2 SWAP1 POP POP POP PUSH2 0xCD9 JUMP JUMPDEST PUSH1 0x40 MLOAD DUP1 DUP3 ISZERO ISZERO ISZERO ISZERO DUP2 MSTORE PUSH1 0x20 ADD SWAP2 POP POP PUSH1 0x40 MLOAD DUP1 SWAP2 SUB SWAP1 RETURN JUMPDEST PUSH2 0x488 PUSH1 0x4 DUP1 CALLDATASIZE SUB PUSH1 0x20 DUP2 LT ISZERO PUSH2 0x3E5 JUMPI PUSH1 0x0 DUP1 REVERT JUMPDEST DUP2 ADD SWAP1 DUP1 DUP1 CALLDATALOAD SWAP1 PUSH1 0x20 ADD SWAP1 PUSH5 0x100000000 DUP2 GT ISZERO PUSH2 0x402 JUMPI PUSH1 0x0 DUP1 REVERT JUMPDEST DUP3 ADD DUP4 PUSH1 0x20 DUP3 ADD GT ISZERO PUSH2 0x414 JUMPI PUSH1 0x0 DUP1 REVERT JUMPDEST DUP1 CALLDATALOAD SWAP1 PUSH1 0x20 ADD SWAP2 DUP5 PUSH1 0x1 DUP4 MUL DUP5 ADD GT PUSH5 0x100000000 DUP4 GT OR ISZERO PUSH2 0x436 JUMPI PUSH1 0x0 DUP1 REVERT JUMPDEST SWAP2 SWAP1 DUP1 DUP1 PUSH1 0x1F ADD PUSH1 0x20 DUP1 SWAP2 DIV MUL PUSH1 0x20 ADD PUSH1 0x40 MLOAD SWAP1 DUP2 ADD PUSH1 0x40 MSTORE DUP1 SWAP4 SWAP3 SWAP2 SWAP1 DUP2 DUP2 MSTORE PUSH1 0x20 ADD DUP4 DUP4 DUP1 DUP3 DUP5 CALLDATACOPY PUSH1 0x0 DUP2 DUP5 ADD MSTORE PUSH1 0x1F NOT PUSH1 0x1F DUP3 ADD AND SWAP1 POP DUP1 DUP4 ADD SWAP3 POP POP POP POP POP POP POP SWAP2 SWAP3 SWAP2 SWAP3 SWAP1 POP POP POP PUSH2 0xCF9 JUMP JUMPDEST STOP JUMPDEST PUSH2 0x492 PUSH2 0x118D JUMP JUMPDEST PUSH1 0x40 MLOAD DUP1 DUP1 PUSH1 0x20 ADD DUP3 DUP2 SUB DUP3 MSTORE DUP4 DUP2 DUP2 MLOAD DUP2 MSTORE PUSH1 0x20 ADD SWAP2 POP DUP1 MLOAD SWAP1 PUSH1 0x20 ADD SWAP1 PUSH1 0x20 MUL DUP1 DUP4 DUP4 PUSH1 0x0 JUMPDEST DUP4 DUP2 LT ISZERO PUSH2 0x4D5 JUMPI DUP1 DUP3 ADD MLOAD DUP2 DUP5 ADD MSTORE PUSH1 0x20 DUP2 ADD SWAP1 POP PUSH2 0x4BA JUMP JUMPDEST POP POP POP POP SWAP1 POP ADD SWAP3 POP POP POP PUSH1 0x40 MLOAD DUP1 SWAP2 SUB SWAP1 RETURN JUMPDEST PUSH2 0x4F1 PUSH2 0x121B JUMP JUMPDEST PUSH1 0x40 MLOAD DUP1 DUP3 DUP2 MSTORE PUSH1 0x20 ADD SWAP2 POP POP PUSH1 0x40 MLOAD DUP1 SWAP2 SUB SWAP1 RETURN JUMPDEST PUSH2 0x50F PUSH2 0x1221 JUMP JUMPDEST PUSH1 0x40 MLOAD DUP1 DUP1 PUSH1 0x20 ADD DUP3 DUP2 SUB DUP3 MSTORE DUP4 DUP2 DUP2 MLOAD DUP2 MSTORE PUSH1 0x20 ADD SWAP2 POP DUP1 MLOAD SWAP1 PUSH1 0x20 ADD SWAP1 PUSH1 0x20 MUL DUP1 DUP4 DUP4 PUSH1 0x0 JUMPDEST DUP4 DUP2 LT ISZERO PUSH2 0x552 JUMPI DUP1 DUP3 ADD MLOAD DUP2 DUP5 ADD MSTORE PUSH1 0x20 DUP2 ADD SWAP1 POP PUSH2 0x537 JUMP JUMPDEST POP POP POP POP SWAP1 POP ADD SWAP3 POP POP POP PUSH1 0x40 MLOAD DUP1 SWAP2 SUB SWAP1 RETURN JUMPDEST PUSH2 0x5A8 PUSH1 0x4 DUP1 CALLDATASIZE SUB PUSH1 0x20 DUP2 LT ISZERO PUSH2 0x57C JUMPI PUSH1 0x0 DUP1 REVERT JUMPDEST DUP2 ADD SWAP1 DUP1 DUP1 CALLDATALOAD PUSH20 0xFFFFFFFFFFFFFFFFFFFFFFFFFFFFFFFFFFFFFFFF AND SWAP1 PUSH1 0x20 ADD SWAP1 SWAP3 SWAP2 SWAP1 POP POP POP PUSH2 0x12AF JUMP JUMPDEST PUSH1 0x40 MLOAD DUP1 DUP3 ISZERO ISZERO ISZERO ISZERO DUP2 MSTORE PUSH1 0x20 ADD SWAP2 POP POP PUSH1 0x40 MLOAD DUP1 SWAP2 SUB SWAP1 RETURN JUMPDEST PUSH2 0x5CA PUSH2 0x12CF JUMP JUMPDEST PUSH1 0x40 MLOAD DUP1 DUP3 PUSH20 0xFFFFFFFFFFFFFFFFFFFFFFFFFFFFFFFFFFFFFFFF AND PUSH20 0xFFFFFFFFFFFFFFFFFFFFFFFFFFFFFFFFFFFFFFFF AND DUP2 MSTORE PUSH1 0x20 ADD SWAP2 POP POP PUSH1 0x40 MLOAD DUP1 SWAP2 SUB SWAP1 RETURN JUMPDEST PUSH1 0x7 PUSH1 0x0 SWAP1 SLOAD SWAP1 PUSH2 0x100 EXP SWAP1 DIV PUSH20 0xFFFFFFFFFFFFFFFFFFFFFFFFFFFFFFFFFFFFFFFF AND DUP2 JUMP JUMPDEST PUSH1 0x4 DUP2 DUP2 SLOAD DUP2 LT PUSH2 0x63F JUMPI INVALID JUMPDEST SWAP1 PUSH1 0x0 MSTORE PUSH1 0x20 PUSH1 0x0 KECCAK256 ADD PUSH1 0x0 SWAP2 POP SLOAD SWAP1 PUSH2 0x100 EXP SWAP1 DIV PUSH20 0xFFFFFFFFFFFFFFFFFFFFFFFFFFFFFFFFFFFFFFFF AND DUP2 JUMP JUMPDEST PUSH1 0x0 PUSH1 0x5 DUP1 SLOAD SWAP1 POP SWAP1 POP SWAP1 JUMP JUMPDEST PUSH1 0x3 DUP2 DUP2 SLOAD DUP2 LT PUSH2 0x688 JUMPI INVALID JUMPDEST SWAP1 PUSH1 0x0 MSTORE PUSH1 0x20 PUSH1 0x0 KECCAK256 ADD PUSH1 0x0 SWAP2 POP SLOAD SWAP1 PUSH2 0x100 EXP SWAP1 DIV PUSH20 0xFFFFFFFFFFFFFFFFFFFFFFFFFFFFFFFFFFFFFFFF AND DUP2 JUMP JUMPDEST PUSH1 0x5 DUP2 DUP2 SLOAD DUP2 LT PUSH2 0x6C4 JUMPI INVALID JUMPDEST SWAP1 PUSH1 0x0 MSTORE PUSH1 0x20 PUSH1 0x0 KECCAK256 SWAP1 PUSH1 0x4 MUL ADD PUSH1 0x0 SWAP2 POP SWAP1 POP DUP1 PUSH1 0x0 ADD SLOAD SWAP1 DUP1 PUSH1 0x1 ADD SLOAD SWAP1 DUP1 PUSH1 0x2 ADD SLOAD SWAP1 DUP1 PUSH1 0x3 ADD SLOAD SWAP1 POP DUP5 JUMP JUMPDEST PUSH1 0x60 PUSH2 0x707 PUSH2 0x702 DUP4 PUSH2 0x12F5 JUMP JUMPDEST PUSH2 0x1323 JUMP JUMPDEST SWAP1 POP PUSH1 0x60 PUSH2 0x728 DUP3 PUSH1 0x0 DUP2 MLOAD DUP2 LT PUSH2 0x71B JUMPI INVALID JUMPDEST PUSH1 0x20 MUL PUSH1 0x20 ADD ADD MLOAD PUSH2 0x1323 JUMP JUMPDEST SWAP1 POP PUSH1 0x4 DUP2 MLOAD EQ PUSH2 0x7A1 JUMPI PUSH1 0x40 MLOAD PUSH32 0x8C379A000000000000000000000000000000000000000000000000000000000 DUP2 MSTORE PUSH1 0x4 ADD DUP1 DUP1 PUSH1 0x20 ADD DUP3 DUP2 SUB DUP3 MSTORE PUSH1 0x20 DUP2 MSTORE PUSH1 0x20 ADD DUP1 PUSH32 0x62756E636820686561646572206D75737420686176652034206D656D62657273 DUP2 MSTORE POP PUSH1 0x20 ADD SWAP2 POP POP PUSH1 0x40 MLOAD DUP1 SWAP2 SUB SWAP1 REVERT JUMPDEST PUSH2 0x7A9 PUSH2 0x294F JUMP JUMPDEST PUSH1 0x40 MLOAD DUP1 PUSH1 0x80 ADD PUSH1 0x40 MSTORE DUP1 PUSH2 0x7D1 DUP5 PUSH1 0x0 DUP2 MLOAD DUP2 LT PUSH2 0x7C4 JUMPI INVALID JUMPDEST PUSH1 0x20 MUL PUSH1 0x20 ADD ADD MLOAD PUSH2 0x1400 JUMP JUMPDEST DUP2 MSTORE PUSH1 0x20 ADD PUSH2 0x7F3 DUP5 PUSH1 0x1 DUP2 MLOAD DUP2 LT PUSH2 0x7E6 JUMPI INVALID JUMPDEST PUSH1 0x20 MUL PUSH1 0x20 ADD ADD MLOAD PUSH2 0x1400 JUMP JUMPDEST DUP2 MSTORE PUSH1 0x20 ADD PUSH2 0x815 DUP5 PUSH1 0x2 DUP2 MLOAD DUP2 LT PUSH2 0x808 JUMPI INVALID JUMPDEST PUSH1 0x20 MUL PUSH1 0x20 ADD ADD MLOAD PUSH2 0x1471 JUMP JUMPDEST DUP2 MSTORE PUSH1 0x20 ADD PUSH2 0x837 DUP5 PUSH1 0x3 DUP2 MLOAD DUP2 LT PUSH2 0x82A JUMPI INVALID JUMPDEST PUSH1 0x20 MUL PUSH1 0x20 ADD ADD MLOAD PUSH2 0x1471 JUMP JUMPDEST DUP2 MSTORE POP SWAP1 POP PUSH2 0x844 PUSH2 0x1486 JUMP JUMPDEST DUP2 PUSH1 0x0 ADD MLOAD EQ PUSH2 0x8BC JUMPI PUSH1 0x40 MLOAD PUSH32 0x8C379A000000000000000000000000000000000000000000000000000000000 DUP2 MSTORE PUSH1 0x4 ADD DUP1 DUP1 PUSH1 0x20 ADD DUP3 DUP2 SUB DUP3 MSTORE PUSH1 0x1A DUP2 MSTORE PUSH1 0x20 ADD DUP1 PUSH32 0x696E76616C696420737461727420626C6F636B206E756D626572000000000000 DUP2 MSTORE POP PUSH1 0x20 ADD SWAP2 POP POP PUSH1 0x40 MLOAD DUP1 SWAP2 SUB SWAP1 REVERT JUMPDEST PUSH1 0x60 PUSH2 0x8DB DUP5 PUSH1 0x0 DUP2 MLOAD DUP2 LT PUSH2 0x8CE JUMPI INVALID JUMPDEST PUSH1 0x20 MUL PUSH1 0x20 ADD ADD MLOAD PUSH2 0x14F6 JUMP JUMPDEST SWAP1 POP PUSH1 0x0 PUSH1 0x40 MLOAD DUP1 PUSH1 0x40 ADD PUSH1 0x40 MSTORE DUP1 PUSH1 0x1A DUP2 MSTORE PUSH1 0x20 ADD PUSH32 0x19457468657265756D205369676E6564204D6573736167653A0A000000000000 DUP2 MSTORE POP PUSH2 0x91F DUP4 MLOAD PUSH2 0x156C JUMP JUMPDEST DUP4 PUSH1 0x40 MLOAD PUSH1 0x20 ADD DUP1 DUP5 DUP1 MLOAD SWAP1 PUSH1 0x20 ADD SWAP1 DUP1 DUP4 DUP4 JUMPDEST PUSH1 0x20 DUP4 LT PUSH2 0x956 JUMPI DUP1 MLOAD DUP3 MSTORE PUSH1 0x20 DUP3 ADD SWAP2 POP PUSH1 0x20 DUP2 ADD SWAP1 POP PUSH1 0x20 DUP4 SUB SWAP3 POP PUSH2 0x933 JUMP JUMPDEST PUSH1 0x1 DUP4 PUSH1 0x20 SUB PUSH2 0x100 EXP SUB DUP1 NOT DUP3 MLOAD AND DUP2 DUP5 MLOAD AND DUP1 DUP3 OR DUP6 MSTORE POP POP POP POP POP POP SWAP1 POP ADD DUP4 DUP1 MLOAD SWAP1 PUSH1 0x20 ADD SWAP1 DUP1 DUP4 DUP4 JUMPDEST PUSH1 0x20 DUP4 LT PUSH2 0x9A7 JUMPI DUP1 MLOAD DUP3 MSTORE PUSH1 0x20 DUP3 ADD SWAP2 POP PUSH1 0x20 DUP2 ADD SWAP1 POP PUSH1 0x20 DUP4 SUB SWAP3 POP PUSH2 0x984 JUMP JUMPDEST PUSH1 0x1 DUP4 PUSH1 0x20 SUB PUSH2 0x100 EXP SUB DUP1 NOT DUP3 MLOAD AND DUP2 DUP5 MLOAD AND DUP1 DUP3 OR DUP6 MSTORE POP POP POP POP POP POP SWAP1 POP ADD DUP3 DUP1 MLOAD SWAP1 PUSH1 0x20 ADD SWAP1 DUP1 DUP4 DUP4 JUMPDEST PUSH1 0x20 DUP4 LT PUSH2 0x9F8 JUMPI DUP1 MLOAD DUP3 MSTORE PUSH1 0x20 DUP3 ADD SWAP2 POP PUSH1 0x20 DUP2 ADD SWAP1 POP PUSH1 0x20 DUP4 SUB SWAP3 POP PUSH2 0x9D5 JUMP JUMPDEST PUSH1 0x1 DUP4 PUSH1 0x20 SUB PUSH2 0x100 EXP SUB DUP1 NOT DUP3 MLOAD AND DUP2 DUP5 MLOAD AND DUP1 DUP3 OR DUP6 MSTORE POP POP POP POP POP POP SWAP1 POP ADD SWAP4 POP POP POP POP PUSH1 0x40 MLOAD PUSH1 0x20 DUP2 DUP4 SUB SUB DUP2 MSTORE SWAP1 PUSH1 0x40 MSTORE DUP1 MLOAD SWAP1 PUSH1 0x20 ADD KECCAK256 SWAP1 POP PUSH1 0x0 DUP1 PUSH1 0x1 SWAP1 POP JUMPDEST DUP7 MLOAD DUP2 LT ISZERO PUSH2 0xB57 JUMPI PUSH1 0x60 PUSH2 0xA66 DUP9 DUP4 DUP2 MLOAD DUP2 LT PUSH2 0xA59 JUMPI INVALID JUMPDEST PUSH1 0x20 MUL PUSH1 0x20 ADD ADD MLOAD PUSH2 0x1699 JUMP JUMPDEST SWAP1 POP PUSH1 0x0 DUP1 PUSH2 0xA75 DUP7 DUP5 PUSH2 0x1725 JUMP JUMPDEST SWAP2 POP SWAP2 POP DUP2 PUSH2 0xAEC JUMPI PUSH1 0x40 MLOAD PUSH32 0x8C379A000000000000000000000000000000000000000000000000000000000 DUP2 MSTORE PUSH1 0x4 ADD DUP1 DUP1 PUSH1 0x20 ADD DUP3 DUP2 SUB DUP3 MSTORE PUSH1 0x18 DUP2 MSTORE PUSH1 0x20 ADD DUP1 PUSH32 0x65637265636F7665722073686F756C6420737563636573730000000000000000 DUP2 MSTORE POP PUSH1 0x20 ADD SWAP2 POP POP PUSH1 0x40 MLOAD DUP1 SWAP2 SUB SWAP1 REVERT JUMPDEST PUSH1 0x1 PUSH1 0x0 DUP3 PUSH20 0xFFFFFFFFFFFFFFFFFFFFFFFFFFFFFFFFFFFFFFFF AND PUSH20 0xFFFFFFFFFFFFFFFFFFFFFFFFFFFFFFFFFFFFFFFF AND DUP2 MSTORE PUSH1 0x20 ADD SWAP1 DUP2 MSTORE PUSH1 0x20 ADD PUSH1 0x0 KECCAK256 PUSH1 0x0 SWAP1 SLOAD SWAP1 PUSH2 0x100 EXP SWAP1 DIV PUSH1 0xFF AND ISZERO PUSH2 0xB47 JUMPI DUP5 DUP1 PUSH1 0x1 ADD SWAP6 POP POP JUMPDEST POP POP POP DUP1 DUP1 PUSH1 0x1 ADD SWAP2 POP POP PUSH2 0xA3F JUMP JUMPDEST POP PUSH1 0x64 PUSH1 0x42 PUSH1 0x0 SLOAD MUL DUP2 PUSH2 0xB67 JUMPI INVALID JUMPDEST DIV DUP2 GT PUSH2 0xBDC JUMPI PUSH1 0x40 MLOAD PUSH32 0x8C379A000000000000000000000000000000000000000000000000000000000 DUP2 MSTORE PUSH1 0x4 ADD DUP1 DUP1 PUSH1 0x20 ADD DUP3 DUP2 SUB DUP3 MSTORE PUSH1 0x1A DUP2 MSTORE PUSH1 0x20 ADD DUP1 PUSH32 0x3636252076616C696461746F72732073686F756C64207369676E000000000000 DUP2 MSTORE POP PUSH1 0x20 ADD SWAP2 POP POP PUSH1 0x40 MLOAD DUP1 SWAP2 SUB SWAP1 REVERT JUMPDEST PUSH1 0x0 PUSH1 0x5 DUP1 SLOAD SWAP1 POP SWAP1 POP PUSH1 0x5 DUP6 SWAP1 DUP1 PUSH1 0x1 DUP2 SLOAD ADD DUP1 DUP3 SSTORE DUP1 SWAP2 POP POP PUSH1 0x1 SWAP1 SUB SWAP1 PUSH1 0x0 MSTORE PUSH1 0x20 PUSH1 0x0 KECCAK256 SWAP1 PUSH1 0x4 MUL ADD PUSH1 0x0 SWAP1 SWAP2 SWAP1 SWAP2 SWAP1 SWAP2 POP PUSH1 0x0 DUP3 ADD MLOAD DUP2 PUSH1 0x0 ADD SSTORE PUSH1 0x20 DUP3 ADD MLOAD DUP2 PUSH1 0x1 ADD SSTORE PUSH1 0x40 DUP3 ADD MLOAD DUP2 PUSH1 0x2 ADD SSTORE PUSH1 0x60 DUP3 ADD MLOAD DUP2 PUSH1 0x3 ADD SSTORE POP POP PUSH32 0x435520EA9B14C682112ACEF5BC8466234D75B18DCE73C44A78D905139DEF419D DUP6 PUSH1 0x0 ADD MLOAD DUP7 PUSH1 0x20 ADD MLOAD DUP4 PUSH1 0x40 MLOAD DUP1 DUP5 DUP2 MSTORE PUSH1 0x20 ADD DUP4 DUP2 MSTORE PUSH1 0x20 ADD DUP3 DUP2 MSTORE PUSH1 0x20 ADD SWAP4 POP POP POP POP PUSH1 0x40 MLOAD DUP1 SWAP2 SUB SWAP1 LOG1 POP POP POP POP POP POP POP POP JUMP JUMPDEST DUP1 PUSH1 0x7 PUSH1 0x0 PUSH2 0x100 EXP DUP2 SLOAD DUP2 PUSH20 0xFFFFFFFFFFFFFFFFFFFFFFFFFFFFFFFFFFFFFFFF MUL NOT AND SWAP1 DUP4 PUSH20 0xFFFFFFFFFFFFFFFFFFFFFFFFFFFFFFFFFFFFFFFF AND MUL OR SWAP1 SSTORE POP POP JUMP JUMPDEST PUSH1 0x2 PUSH1 0x20 MSTORE DUP1 PUSH1 0x0 MSTORE PUSH1 0x40 PUSH1 0x0 KECCAK256 PUSH1 0x0 SWAP2 POP SLOAD SWAP1 PUSH2 0x100 EXP SWAP1 DIV PUSH1 0xFF AND DUP2 JUMP JUMPDEST PUSH1 0x60 PUSH2 0xD0C PUSH2 0xD07 DUP4 PUSH2 0x12F5 JUMP JUMPDEST PUSH2 0x1323 JUMP JUMPDEST SWAP1 POP PUSH1 0x0 PUSH2 0xD2D DUP3 PUSH1 0x0 DUP2 MLOAD DUP2 LT PUSH2 0xD20 JUMPI INVALID JUMPDEST PUSH1 0x20 MUL PUSH1 0x20 ADD ADD MLOAD PUSH2 0x1400 JUMP JUMPDEST SWAP1 POP PUSH1 0x0 PUSH2 0xD4E DUP4 PUSH1 0x1 DUP2 MLOAD DUP2 LT PUSH2 0xD41 JUMPI INVALID JUMPDEST PUSH1 0x20 MUL PUSH1 0x20 ADD ADD MLOAD PUSH2 0x1400 JUMP JUMPDEST SWAP1 POP PUSH1 0x60 PUSH2 0xD6F DUP5 PUSH1 0x2 DUP2 MLOAD DUP2 LT PUSH2 0xD62 JUMPI INVALID JUMPDEST PUSH1 0x20 MUL PUSH1 0x20 ADD ADD MLOAD PUSH2 0x1699 JUMP JUMPDEST SWAP1 POP PUSH1 0x0 PUSH2 0xD90 DUP6 PUSH1 0x3 DUP2 MLOAD DUP2 LT PUSH2 0xD83 JUMPI INVALID JUMPDEST PUSH1 0x20 MUL PUSH1 0x20 ADD ADD MLOAD PUSH2 0x1471 JUMP JUMPDEST SWAP1 POP PUSH1 0x60 PUSH2 0xDB1 DUP7 PUSH1 0x4 DUP2 MLOAD DUP2 LT PUSH2 0xDA4 JUMPI INVALID JUMPDEST PUSH1 0x20 MUL PUSH1 0x20 ADD ADD MLOAD PUSH2 0x1699 JUMP JUMPDEST SWAP1 POP PUSH1 0x60 PUSH2 0xDD2 DUP8 PUSH1 0x5 DUP2 MLOAD DUP2 LT PUSH2 0xDC5 JUMPI INVALID JUMPDEST PUSH1 0x20 MUL PUSH1 0x20 ADD ADD MLOAD PUSH2 0x1699 JUMP JUMPDEST SWAP1 POP PUSH1 0x60 PUSH2 0xDF3 DUP9 PUSH1 0x6 DUP2 MLOAD DUP2 LT PUSH2 0xDE6 JUMPI INVALID JUMPDEST PUSH1 0x20 MUL PUSH1 0x20 ADD ADD MLOAD PUSH2 0x1699 JUMP JUMPDEST SWAP1 POP PUSH1 0x0 DUP4 DUP1 MLOAD SWAP1 PUSH1 0x20 ADD KECCAK256 SWAP1 POP PUSH1 0x2 PUSH1 0x0 DUP3 DUP2 MSTORE PUSH1 0x20 ADD SWAP1 DUP2 MSTORE PUSH1 0x20 ADD PUSH1 0x0 KECCAK256 PUSH1 0x0 SWAP1 SLOAD SWAP1 PUSH2 0x100 EXP SWAP1 DIV PUSH1 0xFF AND ISZERO PUSH2 0xE78 JUMPI PUSH1 0x40 MLOAD PUSH32 0x8C379A000000000000000000000000000000000000000000000000000000000 DUP2 MSTORE PUSH1 0x4 ADD DUP1 DUP1 PUSH1 0x20 ADD DUP3 DUP2 SUB DUP3 MSTORE PUSH1 0x31 DUP2 MSTORE PUSH1 0x20 ADD DUP1 PUSH2 0x29E0 PUSH1 0x31 SWAP2 CODECOPY PUSH1 0x40 ADD SWAP2 POP POP PUSH1 0x40 MLOAD DUP1 SWAP2 SUB SWAP1 REVERT JUMPDEST PUSH2 0xE84 DUP5 DUP5 DUP5 DUP9 PUSH2 0x17BD JUMP JUMPDEST PUSH2 0xEF6 JUMPI PUSH1 0x40 MLOAD PUSH32 0x8C379A000000000000000000000000000000000000000000000000000000000 DUP2 MSTORE PUSH1 0x4 ADD DUP1 DUP1 PUSH1 0x20 ADD DUP3 DUP2 SUB DUP3 MSTORE PUSH1 0x16 DUP2 MSTORE PUSH1 0x20 ADD DUP1 PUSH32 0x496E76616C69642050617472696369612050726F6F6600000000000000000000 DUP2 MSTORE POP PUSH1 0x20 ADD SWAP2 POP POP PUSH1 0x40 MLOAD DUP1 SWAP2 SUB SWAP1 REVERT JUMPDEST PUSH2 0xF40 DUP6 PUSH1 0x5 DUP11 DUP2 SLOAD DUP2 LT PUSH2 0xF07 JUMPI INVALID JUMPDEST SWAP1 PUSH1 0x0 MSTORE PUSH1 0x20 PUSH1 0x0 KECCAK256 SWAP1 PUSH1 0x4 MUL ADD PUSH1 0x0 ADD SLOAD DUP10 SUB PUSH1 0x5 DUP12 DUP2 SLOAD DUP2 LT PUSH2 0xF28 JUMPI INVALID JUMPDEST SWAP1 PUSH1 0x0 MSTORE PUSH1 0x20 PUSH1 0x0 KECCAK256 SWAP1 PUSH1 0x4 MUL ADD PUSH1 0x2 ADD SLOAD DUP10 PUSH2 0x1A93 JUMP JUMPDEST PUSH2 0xFB2 JUMPI PUSH1 0x40 MLOAD PUSH32 0x8C379A000000000000000000000000000000000000000000000000000000000 DUP2 MSTORE PUSH1 0x4 ADD DUP1 DUP1 PUSH1 0x20 ADD DUP3 DUP2 SUB DUP3 MSTORE PUSH1 0x14 DUP2 MSTORE PUSH1 0x20 ADD DUP1 PUSH32 0x496E76616C6964204D65726B6C652050726F6F66000000000000000000000000 DUP2 MSTORE POP PUSH1 0x20 ADD SWAP2 POP POP PUSH1 0x40 MLOAD DUP1 SWAP2 SUB SWAP1 REVERT JUMPDEST PUSH1 0x0 DUP1 PUSH1 0x0 PUSH2 0xFC0 DUP8 PUSH2 0x1BDA JUMP JUMPDEST POP SWAP3 POP SWAP3 POP SWAP3 POP PUSH1 0x7 PUSH1 0x0 SWAP1 SLOAD SWAP1 PUSH2 0x100 EXP SWAP1 DIV PUSH20 0xFFFFFFFFFFFFFFFFFFFFFFFFFFFFFFFFFFFFFFFF AND PUSH20 0xFFFFFFFFFFFFFFFFFFFFFFFFFFFFFFFFFFFFFFFF AND DUP3 PUSH20 0xFFFFFFFFFFFFFFFFFFFFFFFFFFFFFFFFFFFFFFFF AND EQ PUSH2 0x106D JUMPI PUSH1 0x40 MLOAD PUSH32 0x8C379A000000000000000000000000000000000000000000000000000000000 DUP2 MSTORE PUSH1 0x4 ADD DUP1 DUP1 PUSH1 0x20 ADD DUP3 DUP2 SUB DUP3 MSTORE PUSH1 0x2E DUP2 MSTORE PUSH1 0x20 ADD DUP1 PUSH2 0x29B2 PUSH1 0x2E SWAP2 CODECOPY PUSH1 0x40 ADD SWAP2 POP POP PUSH1 0x40 MLOAD DUP1 SWAP2 SUB SWAP1 REVERT JUMPDEST PUSH1 0x1 PUSH1 0x2 PUSH1 0x0 DUP7 DUP2 MSTORE PUSH1 0x20 ADD SWAP1 DUP2 MSTORE PUSH1 0x20 ADD PUSH1 0x0 KECCAK256 PUSH1 0x0 PUSH2 0x100 EXP DUP2 SLOAD DUP2 PUSH1 0xFF MUL NOT AND SWAP1 DUP4 ISZERO ISZERO MUL OR SWAP1 SSTORE POP PUSH1 0x6 PUSH1 0x0 SWAP1 SLOAD SWAP1 PUSH2 0x100 EXP SWAP1 DIV PUSH20 0xFFFFFFFFFFFFFFFFFFFFFFFFFFFFFFFFFFFFFFFF AND PUSH20 0xFFFFFFFFFFFFFFFFFFFFFFFFFFFFFFFFFFFFFFFF AND PUSH4 0xA9059CBB DUP5 DUP4 PUSH1 0x40 MLOAD DUP4 PUSH4 0xFFFFFFFF AND PUSH1 0xE0 SHL DUP2 MSTORE PUSH1 0x4 ADD DUP1 DUP4 PUSH20 0xFFFFFFFFFFFFFFFFFFFFFFFFFFFFFFFFFFFFFFFF AND PUSH20 0xFFFFFFFFFFFFFFFFFFFFFFFFFFFFFFFFFFFFFFFF AND DUP2 MSTORE PUSH1 0x20 ADD DUP3 DUP2 MSTORE PUSH1 0x20 ADD SWAP3 POP POP POP PUSH1 0x20 PUSH1 0x40 MLOAD DUP1 DUP4 SUB DUP2 PUSH1 0x0 DUP8 DUP1 EXTCODESIZE ISZERO DUP1 ISZERO PUSH2 0x1142 JUMPI PUSH1 0x0 DUP1 REVERT JUMPDEST POP GAS CALL ISZERO DUP1 ISZERO PUSH2 0x1156 JUMPI RETURNDATASIZE PUSH1 0x0 DUP1 RETURNDATACOPY RETURNDATASIZE PUSH1 0x0 REVERT JUMPDEST POP POP POP POP PUSH1 0x40 MLOAD RETURNDATASIZE PUSH1 0x20 DUP2 LT ISZERO PUSH2 0x116C JUMPI PUSH1 0x0 DUP1 REVERT JUMPDEST DUP2 ADD SWAP1 DUP1 DUP1 MLOAD SWAP1 PUSH1 0x20 ADD SWAP1 SWAP3 SWAP2 SWAP1 POP POP POP POP POP POP POP POP POP POP POP POP POP POP POP POP POP JUMP JUMPDEST PUSH1 0x60 PUSH1 0x4 DUP1 SLOAD DUP1 PUSH1 0x20 MUL PUSH1 0x20 ADD PUSH1 0x40 MLOAD SWAP1 DUP2 ADD PUSH1 0x40 MSTORE DUP1 SWAP3 SWAP2 SWAP1 DUP2 DUP2 MSTORE PUSH1 0x20 ADD DUP3 DUP1 SLOAD DUP1 ISZERO PUSH2 0x1211 JUMPI PUSH1 0x20 MUL DUP3 ADD SWAP2 SWAP1 PUSH1 0x0 MSTORE PUSH1 0x20 PUSH1 0x0 KECCAK256 SWAP1 JUMPDEST DUP2 PUSH1 0x0 SWAP1 SLOAD SWAP1 PUSH2 0x100 EXP SWAP1 DIV PUSH20 0xFFFFFFFFFFFFFFFFFFFFFFFFFFFFFFFFFFFFFFFF AND PUSH20 0xFFFFFFFFFFFFFFFFFFFFFFFFFFFFFFFFFFFFFFFF AND DUP2 MSTORE PUSH1 0x20 ADD SWAP1 PUSH1 0x1 ADD SWAP1 DUP1 DUP4 GT PUSH2 0x11C7 JUMPI JUMPDEST POP POP POP POP POP SWAP1 POP SWAP1 JUMP JUMPDEST PUSH1 0x0 SLOAD DUP2 JUMP JUMPDEST PUSH1 0x60 PUSH1 0x3 DUP1 SLOAD DUP1 PUSH1 0x20 MUL PUSH1 0x20 ADD PUSH1 0x40 MLOAD SWAP1 DUP2 ADD PUSH1 0x40 MSTORE DUP1 SWAP3 SWAP2 SWAP1 DUP2 DUP2 MSTORE PUSH1 0x20 ADD DUP3 DUP1 SLOAD DUP1 ISZERO PUSH2 0x12A5 JUMPI PUSH1 0x20 MUL DUP3 ADD SWAP2 SWAP1 PUSH1 0x0 MSTORE PUSH1 0x20 PUSH1 0x0 KECCAK256 SWAP1 JUMPDEST DUP2 PUSH1 0x0 SWAP1 SLOAD SWAP1 PUSH2 0x100 EXP SWAP1 DIV PUSH20 0xFFFFFFFFFFFFFFFFFFFFFFFFFFFFFFFFFFFFFFFF AND PUSH20 0xFFFFFFFFFFFFFFFFFFFFFFFFFFFFFFFFFFFFFFFF AND DUP2 MSTORE PUSH1 0x20 ADD SWAP1 PUSH1 0x1 ADD SWAP1 DUP1 DUP4 GT PUSH2 0x125B JUMPI JUMPDEST POP POP POP POP POP SWAP1 POP SWAP1 JUMP JUMPDEST PUSH1 0x1 PUSH1 0x20 MSTORE DUP1 PUSH1 0x0 MSTORE PUSH1 0x40 PUSH1 0x0 KECCAK256 PUSH1 0x0 SWAP2 POP SLOAD SWAP1 PUSH2 0x100 EXP SWAP1 DIV PUSH1 0xFF AND DUP2 JUMP JUMPDEST PUSH1 0x6 PUSH1 0x0 SWAP1 SLOAD SWAP1 PUSH2 0x100 EXP SWAP1 DIV PUSH20 0xFFFFFFFFFFFFFFFFFFFFFFFFFFFFFFFFFFFFFFFF AND DUP2 JUMP JUMPDEST PUSH2 0x12FD PUSH2 0x297D JUMP JUMPDEST PUSH1 0x0 PUSH1 0x20 DUP4 ADD SWAP1 POP PUSH1 0x40 MLOAD DUP1 PUSH1 0x40 ADD PUSH1 0x40 MSTORE DUP1 DUP5 MLOAD DUP2 MSTORE PUSH1 0x20 ADD DUP3 DUP2 MSTORE POP SWAP2 POP POP SWAP2 SWAP1 POP JUMP JUMPDEST PUSH1 0x60 PUSH2 0x132E DUP3 PUSH2 0x1E87 JUMP JUMPDEST PUSH2 0x1337 JUMPI PUSH1 0x0 DUP1 REVERT JUMPDEST PUSH1 0x0 PUSH2 0x1342 DUP4 PUSH2 0x1ED5 JUMP JUMPDEST SWAP1 POP PUSH1 0x60 DUP2 PUSH1 0x40 MLOAD SWAP1 DUP1 DUP3 MSTORE DUP1 PUSH1 0x20 MUL PUSH1 0x20 ADD DUP3 ADD PUSH1 0x40 MSTORE DUP1 ISZERO PUSH2 0x1380 JUMPI DUP2 PUSH1 0x20 ADD JUMPDEST PUSH2 0x136D PUSH2 0x2997 JUMP JUMPDEST DUP2 MSTORE PUSH1 0x20 ADD SWAP1 PUSH1 0x1 SWAP1 SUB SWAP1 DUP2 PUSH2 0x1365 JUMPI SWAP1 POP JUMPDEST POP SWAP1 POP PUSH1 0x0 PUSH2 0x1392 DUP6 PUSH1 0x20 ADD MLOAD PUSH2 0x1F46 JUMP JUMPDEST DUP6 PUSH1 0x20 ADD MLOAD ADD SWAP1 POP PUSH1 0x0 DUP1 PUSH1 0x0 SWAP1 POP JUMPDEST DUP5 DUP2 LT ISZERO PUSH2 0x13F3 JUMPI PUSH2 0x13B3 DUP4 PUSH2 0x1FCF JUMP JUMPDEST SWAP2 POP PUSH1 0x40 MLOAD DUP1 PUSH1 0x40 ADD PUSH1 0x40 MSTORE DUP1 DUP4 DUP2 MSTORE PUSH1 0x20 ADD DUP5 DUP2 MSTORE POP DUP5 DUP3 DUP2 MLOAD DUP2 LT PUSH2 0x13D6 JUMPI INVALID JUMPDEST PUSH1 0x20 MUL PUSH1 0x20 ADD ADD DUP2 SWAP1 MSTORE POP DUP2 DUP4 ADD SWAP3 POP DUP1 DUP1 PUSH1 0x1 ADD SWAP2 POP POP PUSH2 0x13A2 JUMP JUMPDEST POP DUP3 SWAP5 POP POP POP POP POP SWAP2 SWAP1 POP JUMP JUMPDEST PUSH1 0x0 DUP1 DUP3 PUSH1 0x0 ADD MLOAD GT DUP1 ISZERO PUSH2 0x141A JUMPI POP PUSH1 0x21 DUP3 PUSH1 0x0 ADD MLOAD GT ISZERO JUMPDEST PUSH2 0x1423 JUMPI PUSH1 0x0 DUP1 REVERT JUMPDEST PUSH1 0x0 PUSH2 0x1432 DUP4 PUSH1 0x20 ADD MLOAD PUSH2 0x1F46 JUMP JUMPDEST SWAP1 POP PUSH1 0x0 DUP2 DUP5 PUSH1 0x0 ADD MLOAD SUB SWAP1 POP PUSH1 0x0 DUP1 DUP4 DUP7 PUSH1 0x20 ADD MLOAD ADD SWAP1 POP DUP1 MLOAD SWAP2 POP PUSH1 0x20 DUP4 LT ISZERO PUSH2 0x1465 JUMPI DUP3 PUSH1 0x20 SUB PUSH2 0x100 EXP DUP3 DIV SWAP2 POP JUMPDEST DUP2 SWAP5 POP POP POP POP POP SWAP2 SWAP1 POP JUMP JUMPDEST PUSH1 0x0 PUSH2 0x147C DUP3 PUSH2 0x1400 JUMP JUMPDEST PUSH1 0x0 SHL SWAP1 POP SWAP2 SWAP1 POP JUMP JUMPDEST PUSH1 0x0 DUP1 PUSH1 0x5 DUP1 SLOAD SWAP1 POP EQ ISZERO PUSH2 0x149E JUMPI PUSH1 0x0 SWAP1 POP PUSH2 0x14F3 JUMP JUMPDEST PUSH1 0x5 PUSH1 0x1 PUSH1 0x5 DUP1 SLOAD SWAP1 POP SUB DUP2 SLOAD DUP2 LT PUSH2 0x14B3 JUMPI INVALID JUMPDEST SWAP1 PUSH1 0x0 MSTORE PUSH1 0x20 PUSH1 0x0 KECCAK256 SWAP1 PUSH1 0x4 MUL ADD PUSH1 0x1 ADD SLOAD PUSH1 0x2 EXP PUSH1 0x5 PUSH1 0x1 PUSH1 0x5 DUP1 SLOAD SWAP1 POP SUB DUP2 SLOAD DUP2 LT PUSH2 0x14DD JUMPI INVALID JUMPDEST SWAP1 PUSH1 0x0 MSTORE PUSH1 0x20 PUSH1 0x0 KECCAK256 SWAP1 PUSH1 0x4 MUL ADD PUSH1 0x0 ADD SLOAD ADD SWAP1 POP JUMPDEST SWAP1 JUMP JUMPDEST PUSH1 0x60 DUP1 DUP3 PUSH1 0x0 ADD MLOAD PUSH1 0x40 MLOAD SWAP1 DUP1 DUP3 MSTORE DUP1 PUSH1 0x1F ADD PUSH1 0x1F NOT AND PUSH1 0x20 ADD DUP3 ADD PUSH1 0x40 MSTORE DUP1 ISZERO PUSH2 0x1530 JUMPI DUP2 PUSH1 0x20 ADD PUSH1 0x1 DUP3 MUL DUP1 CALLDATASIZE DUP4 CALLDATACOPY DUP1 DUP3 ADD SWAP2 POP POP SWAP1 POP JUMPDEST POP SWAP1 POP PUSH1 0x0 DUP2 MLOAD EQ ISZERO PUSH2 0x1546 JUMPI DUP1 SWAP2 POP POP PUSH2 0x1567 JUMP JUMPDEST PUSH1 0x0 DUP2 PUSH1 0x20 ADD SWAP1 POP PUSH2 0x1561 DUP5 PUSH1 0x20 ADD MLOAD DUP3 DUP7 PUSH1 0x0 ADD MLOAD PUSH2 0x2087 JUMP JUMPDEST DUP2 SWAP3 POP POP POP JUMPDEST SWAP2 SWAP1 POP JUMP JUMPDEST PUSH1 0x60 PUSH1 0x0 DUP3 EQ ISZERO PUSH2 0x15B4 JUMPI PUSH1 0x40 MLOAD DUP1 PUSH1 0x40 ADD PUSH1 0x40 MSTORE DUP1 PUSH1 0x1 DUP2 MSTORE PUSH1 0x20 ADD PUSH32 0x3000000000000000000000000000000000000000000000000000000000000000 DUP2 MSTORE POP SWAP1 POP PUSH2 0x1694 JUMP JUMPDEST PUSH1 0x0 DUP3 SWAP1 POP PUSH1 0x0 JUMPDEST PUSH1 0x0 DUP3 EQ PUSH2 0x15DE JUMPI DUP1 DUP1 PUSH1 0x1 ADD SWAP2 POP POP PUSH1 0xA DUP3 DUP2 PUSH2 0x15D6 JUMPI INVALID JUMPDEST DIV SWAP2 POP PUSH2 0x15BC JUMP JUMPDEST PUSH1 0x60 DUP2 PUSH1 0x40 MLOAD SWAP1 DUP1 DUP3 MSTORE DUP1 PUSH1 0x1F ADD PUSH1 0x1F NOT AND PUSH1 0x20 ADD DUP3 ADD PUSH1 0x40 MSTORE DUP1 ISZERO PUSH2 0x1613 JUMPI DUP2 PUSH1 0x20 ADD PUSH1 0x1 DUP3 MUL DUP1 CALLDATASIZE DUP4 CALLDATACOPY DUP1 DUP3 ADD SWAP2 POP POP SWAP1 POP JUMPDEST POP SWAP1 POP PUSH1 0x0 PUSH1 0x1 DUP4 SUB SWAP1 POP JUMPDEST PUSH1 0x0 DUP7 EQ PUSH2 0x168C JUMPI PUSH1 0xA DUP7 DUP2 PUSH2 0x1631 JUMPI INVALID JUMPDEST MOD PUSH1 0x30 ADD PUSH1 0xF8 SHL DUP3 DUP3 DUP1 PUSH1 0x1 SWAP1 SUB SWAP4 POP DUP2 MLOAD DUP2 LT PUSH2 0x164B JUMPI INVALID JUMPDEST PUSH1 0x20 ADD ADD SWAP1 PUSH31 0xFFFFFFFFFFFFFFFFFFFFFFFFFFFFFFFFFFFFFFFFFFFFFFFFFFFFFFFFFFFFFF NOT AND SWAP1 DUP2 PUSH1 0x0 BYTE SWAP1 MSTORE8 POP PUSH1 0xA DUP7 DUP2 PUSH2 0x1684 JUMPI INVALID JUMPDEST DIV SWAP6 POP PUSH2 0x161F JUMP JUMPDEST DUP2 SWAP5 POP POP POP POP POP JUMPDEST SWAP2 SWAP1 POP JUMP JUMPDEST PUSH1 0x60 PUSH1 0x0 DUP3 PUSH1 0x0 ADD MLOAD GT PUSH2 0x16AC JUMPI PUSH1 0x0 DUP1 REVERT JUMPDEST PUSH1 0x0 PUSH2 0x16BB DUP4 PUSH1 0x20 ADD MLOAD PUSH2 0x1F46 JUMP JUMPDEST SWAP1 POP PUSH1 0x0 DUP2 DUP5 PUSH1 0x0 ADD MLOAD SUB SWAP1 POP PUSH1 0x60 DUP2 PUSH1 0x40 MLOAD SWAP1 DUP1 DUP3 MSTORE DUP1 PUSH1 0x1F ADD PUSH1 0x1F NOT AND PUSH1 0x20 ADD DUP3 ADD PUSH1 0x40 MSTORE DUP1 ISZERO PUSH2 0x16FD JUMPI DUP2 PUSH1 0x20 ADD PUSH1 0x1 DUP3 MUL DUP1 CALLDATASIZE DUP4 CALLDATACOPY DUP1 DUP3 ADD SWAP2 POP POP SWAP1 POP JUMPDEST POP SWAP1 POP PUSH1 0x0 DUP2 PUSH1 0x20 ADD SWAP1 POP PUSH2 0x1719 DUP5 DUP8 PUSH1 0x20 ADD MLOAD ADD DUP3 DUP6 PUSH2 0x2087 JUMP JUMPDEST DUP2 SWAP5 POP POP POP POP POP SWAP2 SWAP1 POP JUMP JUMPDEST PUSH1 0x0 DUP1 PUSH1 0x0 DUP1 PUSH1 0x0 PUSH1 0x41 DUP7 MLOAD EQ PUSH2 0x1748 JUMPI PUSH1 0x0 DUP1 DUP1 SWAP1 POP SWAP5 POP SWAP5 POP POP POP POP PUSH2 0x17B6 JUMP JUMPDEST PUSH1 0x20 DUP7 ADD MLOAD SWAP3 POP PUSH1 0x40 DUP7 ADD MLOAD SWAP2 POP PUSH1 0x60 DUP7 ADD MLOAD PUSH1 0x0 BYTE SWAP1 POP PUSH1 0x1B DUP2 PUSH1 0xFF AND LT ISZERO PUSH2 0x1773 JUMPI PUSH1 0x1B DUP2 ADD SWAP1 POP JUMPDEST PUSH1 0x1B DUP2 PUSH1 0xFF AND EQ ISZERO DUP1 ISZERO PUSH2 0x178B JUMPI POP PUSH1 0x1C DUP2 PUSH1 0xFF AND EQ ISZERO JUMPDEST ISZERO PUSH2 0x17A2 JUMPI PUSH1 0x0 DUP1 DUP1 SWAP1 POP SWAP5 POP SWAP5 POP POP POP POP PUSH2 0x17B6 JUMP JUMPDEST PUSH2 0x17AE DUP8 DUP3 DUP6 DUP6 PUSH2 0x20EE JUMP JUMPDEST SWAP5 POP SWAP5 POP POP POP POP JUMPDEST SWAP3 POP SWAP3 SWAP1 POP JUMP JUMPDEST PUSH1 0x0 PUSH2 0x17C7 PUSH2 0x297D JUMP JUMPDEST PUSH2 0x17D0 DUP5 PUSH2 0x12F5 JUMP JUMPDEST SWAP1 POP PUSH1 0x60 PUSH2 0x17DD DUP3 PUSH2 0x1323 JUMP JUMPDEST SWAP1 POP PUSH1 0x60 DUP1 PUSH1 0x0 DUP7 SWAP1 POP PUSH1 0x0 DUP1 SWAP1 POP PUSH1 0x60 PUSH2 0x17F7 DUP12 PUSH2 0x2132 JUMP JUMPDEST SWAP1 POP PUSH1 0x0 DUP2 MLOAD EQ ISZERO PUSH2 0x1813 JUMPI PUSH1 0x0 SWAP8 POP POP POP POP POP POP POP POP PUSH2 0x1A8B JUMP JUMPDEST PUSH1 0x0 DUP1 SWAP1 POP JUMPDEST DUP7 MLOAD DUP2 LT ISZERO PUSH2 0x1A82 JUMPI DUP2 MLOAD DUP4 GT ISZERO PUSH2 0x183C JUMPI PUSH1 0x0 SWAP9 POP POP POP POP POP POP POP POP POP PUSH2 0x1A8B JUMP JUMPDEST PUSH2 0x1858 DUP8 DUP3 DUP2 MLOAD DUP2 LT PUSH2 0x184B JUMPI INVALID JUMPDEST PUSH1 0x20 MUL PUSH1 0x20 ADD ADD MLOAD PUSH2 0x14F6 JUMP JUMPDEST SWAP6 POP DUP6 DUP1 MLOAD SWAP1 PUSH1 0x20 ADD KECCAK256 DUP5 EQ PUSH2 0x1879 JUMPI PUSH1 0x0 SWAP9 POP POP POP POP POP POP POP POP POP PUSH2 0x1A8B JUMP JUMPDEST PUSH2 0x1895 DUP8 DUP3 DUP2 MLOAD DUP2 LT PUSH2 0x1888 JUMPI INVALID JUMPDEST PUSH1 0x20 MUL PUSH1 0x20 ADD ADD MLOAD PUSH2 0x1323 JUMP JUMPDEST SWAP5 POP PUSH1 0x11 DUP6 MLOAD EQ ISZERO PUSH2 0x196A JUMPI DUP2 MLOAD DUP4 EQ ISZERO PUSH2 0x18FE JUMPI DUP13 DUP1 MLOAD SWAP1 PUSH1 0x20 ADD KECCAK256 PUSH2 0x18CF DUP7 PUSH1 0x10 DUP2 MLOAD DUP2 LT PUSH2 0x18C2 JUMPI INVALID JUMPDEST PUSH1 0x20 MUL PUSH1 0x20 ADD ADD MLOAD PUSH2 0x1699 JUMP JUMPDEST DUP1 MLOAD SWAP1 PUSH1 0x20 ADD KECCAK256 EQ ISZERO PUSH2 0x18ED JUMPI PUSH1 0x1 SWAP9 POP POP POP POP POP POP POP POP POP PUSH2 0x1A8B JUMP JUMPDEST PUSH1 0x0 SWAP9 POP POP POP POP POP POP POP POP POP PUSH2 0x1A8B JUMP JUMPDEST PUSH1 0x0 DUP3 DUP5 DUP2 MLOAD DUP2 LT PUSH2 0x190C JUMPI INVALID JUMPDEST PUSH1 0x20 ADD ADD MLOAD PUSH1 0xF8 SHR PUSH1 0xF8 SHL PUSH1 0xF8 SHR SWAP1 POP PUSH1 0x10 DUP2 PUSH1 0xFF AND GT ISZERO PUSH2 0x193A JUMPI PUSH1 0x0 SWAP10 POP POP POP POP POP POP POP POP POP POP PUSH2 0x1A8B JUMP JUMPDEST PUSH2 0x1959 DUP7 DUP3 PUSH1 0xFF AND DUP2 MLOAD DUP2 LT PUSH2 0x194C JUMPI INVALID JUMPDEST PUSH1 0x20 MUL PUSH1 0x20 ADD ADD MLOAD PUSH2 0x22B9 JUMP JUMPDEST PUSH1 0x0 SHL SWAP5 POP PUSH1 0x1 DUP5 ADD SWAP4 POP POP PUSH2 0x1A75 JUMP JUMPDEST PUSH1 0x2 DUP6 MLOAD EQ ISZERO PUSH2 0x1A63 JUMPI PUSH2 0x199B PUSH2 0x1994 DUP7 PUSH1 0x0 DUP2 MLOAD DUP2 LT PUSH2 0x1987 JUMPI INVALID JUMPDEST PUSH1 0x20 MUL PUSH1 0x20 ADD ADD MLOAD PUSH2 0x1699 JUMP JUMPDEST DUP4 DUP6 PUSH2 0x22E7 JUMP JUMPDEST DUP4 ADD SWAP3 POP DUP2 MLOAD DUP4 EQ ISZERO PUSH2 0x19FC JUMPI DUP13 DUP1 MLOAD SWAP1 PUSH1 0x20 ADD KECCAK256 PUSH2 0x19CD DUP7 PUSH1 0x1 DUP2 MLOAD DUP2 LT PUSH2 0x19C0 JUMPI INVALID JUMPDEST PUSH1 0x20 MUL PUSH1 0x20 ADD ADD MLOAD PUSH2 0x1699 JUMP JUMPDEST DUP1 MLOAD SWAP1 PUSH1 0x20 ADD KECCAK256 EQ ISZERO PUSH2 0x19EB JUMPI PUSH1 0x1 SWAP9 POP POP POP POP POP POP POP POP POP PUSH2 0x1A8B JUMP JUMPDEST PUSH1 0x0 SWAP9 POP POP POP POP POP POP POP POP POP PUSH2 0x1A8B JUMP JUMPDEST PUSH1 0x0 PUSH2 0x1A25 PUSH2 0x1A1E DUP8 PUSH1 0x0 DUP2 MLOAD DUP2 LT PUSH2 0x1A11 JUMPI INVALID JUMPDEST PUSH1 0x20 MUL PUSH1 0x20 ADD ADD MLOAD PUSH2 0x1699 JUMP JUMPDEST DUP5 DUP7 PUSH2 0x22E7 JUMP JUMPDEST EQ ISZERO PUSH2 0x1A3C JUMPI PUSH1 0x0 SWAP9 POP POP POP POP POP POP POP POP POP PUSH2 0x1A8B JUMP JUMPDEST PUSH2 0x1A59 DUP6 PUSH1 0x1 DUP2 MLOAD DUP2 LT PUSH2 0x1A4C JUMPI INVALID JUMPDEST PUSH1 0x20 MUL PUSH1 0x20 ADD ADD MLOAD PUSH2 0x22B9 JUMP JUMPDEST PUSH1 0x0 SHL SWAP4 POP PUSH2 0x1A74 JUMP JUMPDEST PUSH1 0x0 SWAP9 POP POP POP POP POP POP POP POP POP PUSH2 0x1A8B JUMP JUMPDEST JUMPDEST DUP1 DUP1 PUSH1 0x1 ADD SWAP2 POP POP PUSH2 0x1819 JUMP JUMPDEST POP POP POP POP POP POP POP POP JUMPDEST SWAP5 SWAP4 POP POP POP POP JUMP JUMPDEST PUSH1 0x0 DUP1 PUSH1 0x0 DUP7 SWAP1 POP PUSH1 0x0 PUSH1 0x20 DUP6 MLOAD DUP2 PUSH2 0x1AA8 JUMPI INVALID JUMPDEST MOD EQ PUSH2 0x1B1C JUMPI PUSH1 0x40 MLOAD PUSH32 0x8C379A000000000000000000000000000000000000000000000000000000000 DUP2 MSTORE PUSH1 0x4 ADD DUP1 DUP1 PUSH1 0x20 ADD DUP3 DUP2 SUB DUP3 MSTORE PUSH1 0x14 DUP2 MSTORE PUSH1 0x20 ADD DUP1 PUSH32 0x496E76616C69642070726F6F66206C656E677468000000000000000000000000 DUP2 MSTORE POP PUSH1 0x20 ADD SWAP2 POP POP PUSH1 0x40 MLOAD DUP1 SWAP2 SUB SWAP1 REVERT JUMPDEST PUSH1 0x0 DUP7 SWAP1 POP PUSH1 0x0 PUSH1 0x20 SWAP1 POP JUMPDEST DUP6 MLOAD DUP2 GT PUSH2 0x1BC9 JUMPI DUP1 DUP7 ADD MLOAD SWAP4 POP PUSH1 0x0 PUSH1 0x2 DUP4 DUP2 PUSH2 0x1B42 JUMPI INVALID JUMPDEST MOD EQ ISZERO PUSH2 0x1B7F JUMPI DUP3 DUP5 PUSH1 0x40 MLOAD PUSH1 0x20 ADD DUP1 DUP4 DUP2 MSTORE PUSH1 0x20 ADD DUP3 DUP2 MSTORE PUSH1 0x20 ADD SWAP3 POP POP POP PUSH1 0x40 MLOAD PUSH1 0x20 DUP2 DUP4 SUB SUB DUP2 MSTORE SWAP1 PUSH1 0x40 MSTORE DUP1 MLOAD SWAP1 PUSH1 0x20 ADD KECCAK256 SWAP3 POP PUSH2 0x1BB1 JUMP JUMPDEST DUP4 DUP4 PUSH1 0x40 MLOAD PUSH1 0x20 ADD DUP1 DUP4 DUP2 MSTORE PUSH1 0x20 ADD DUP3 DUP2 MSTORE PUSH1 0x20 ADD SWAP3 POP POP POP PUSH1 0x40 MLOAD PUSH1 0x20 DUP2 DUP4 SUB SUB DUP2 MSTORE SWAP1 PUSH1 0x40 MSTORE DUP1 MLOAD SWAP1 PUSH1 0x20 ADD KECCAK256 SWAP3 POP JUMPDEST PUSH1 0x2 DUP3 DUP2 PUSH2 0x1BBB JUMPI INVALID JUMPDEST DIV SWAP2 POP PUSH1 0x20 DUP2 ADD SWAP1 POP PUSH2 0x1B28 JUMP JUMPDEST POP DUP6 DUP3 EQ SWAP4 POP POP POP POP SWAP5 SWAP4 POP POP POP POP JUMP JUMPDEST PUSH1 0x0 DUP1 PUSH1 0x0 PUSH1 0x60 DUP1 PUSH2 0x1BF3 PUSH2 0x1BEE DUP8 PUSH2 0x12F5 JUMP JUMPDEST PUSH2 0x1323 JUMP JUMPDEST SWAP1 POP PUSH1 0x0 PUSH2 0x1C14 DUP3 PUSH1 0x3 DUP2 MLOAD DUP2 LT PUSH2 0x1C07 JUMPI INVALID JUMPDEST PUSH1 0x20 MUL PUSH1 0x20 ADD ADD MLOAD PUSH2 0x23DA JUMP JUMPDEST SWAP1 POP PUSH1 0x0 PUSH2 0x1C35 DUP4 PUSH1 0x4 DUP2 MLOAD DUP2 LT PUSH2 0x1C28 JUMPI INVALID JUMPDEST PUSH1 0x20 MUL PUSH1 0x20 ADD ADD MLOAD PUSH2 0x1400 JUMP JUMPDEST SWAP1 POP PUSH1 0x60 PUSH2 0x1C56 DUP5 PUSH1 0x5 DUP2 MLOAD DUP2 LT PUSH2 0x1C49 JUMPI INVALID JUMPDEST PUSH1 0x20 MUL PUSH1 0x20 ADD ADD MLOAD PUSH2 0x1699 JUMP JUMPDEST SWAP1 POP PUSH1 0x0 PUSH2 0x1C77 DUP6 PUSH1 0x6 DUP2 MLOAD DUP2 LT PUSH2 0x1C6A JUMPI INVALID JUMPDEST PUSH1 0x20 MUL PUSH1 0x20 ADD ADD MLOAD PUSH2 0x1400 JUMP JUMPDEST SWAP1 POP PUSH1 0x0 PUSH2 0x1C98 DUP7 PUSH1 0x7 DUP2 MLOAD DUP2 LT PUSH2 0x1C8B JUMPI INVALID JUMPDEST PUSH1 0x20 MUL PUSH1 0x20 ADD ADD MLOAD PUSH2 0x1471 JUMP JUMPDEST SWAP1 POP PUSH1 0x0 PUSH2 0x1CB9 DUP8 PUSH1 0x8 DUP2 MLOAD DUP2 LT PUSH2 0x1CAC JUMPI INVALID JUMPDEST PUSH1 0x20 MUL PUSH1 0x20 ADD ADD MLOAD PUSH2 0x1471 JUMP JUMPDEST SWAP1 POP PUSH1 0x60 PUSH1 0x0 DUP1 PUSH1 0x1C DUP7 GT ISZERO PUSH2 0x1D5D JUMPI PUSH1 0x9 PUSH1 0x40 MLOAD SWAP1 DUP1 DUP3 MSTORE DUP1 PUSH1 0x20 MUL PUSH1 0x20 ADD DUP3 ADD PUSH1 0x40 MSTORE DUP1 ISZERO PUSH2 0x1CFE JUMPI DUP2 PUSH1 0x20 ADD JUMPDEST PUSH1 0x60 DUP2 MSTORE PUSH1 0x20 ADD SWAP1 PUSH1 0x1 SWAP1 SUB SWAP1 DUP2 PUSH2 0x1CE9 JUMPI SWAP1 POP JUMPDEST POP SWAP3 POP PUSH1 0x0 PUSH1 0x2 DUP8 DUP2 PUSH2 0x1D0D JUMPI INVALID JUMPDEST MOD EQ ISZERO PUSH2 0x1D1D JUMPI PUSH1 0x1C SWAP2 POP PUSH2 0x1D22 JUMP JUMPDEST PUSH1 0x1B SWAP2 POP JUMPDEST PUSH1 0x2 PUSH1 0x8 DUP4 PUSH1 0xFF AND DUP9 SUB SUB DUP2 PUSH2 0x1D34 JUMPI INVALID JUMPDEST DIV SWAP1 POP PUSH2 0x1D40 DUP2 PUSH2 0x23FD JUMP JUMPDEST DUP4 PUSH1 0x6 DUP2 MLOAD DUP2 LT PUSH2 0x1D4D JUMPI INVALID JUMPDEST PUSH1 0x20 MUL PUSH1 0x20 ADD ADD DUP2 SWAP1 MSTORE POP PUSH2 0x1D99 JUMP JUMPDEST PUSH1 0x6 PUSH1 0x40 MLOAD SWAP1 DUP1 DUP3 MSTORE DUP1 PUSH1 0x20 MUL PUSH1 0x20 ADD DUP3 ADD PUSH1 0x40 MSTORE DUP1 ISZERO PUSH2 0x1D92 JUMPI DUP2 PUSH1 0x20 ADD JUMPDEST PUSH1 0x60 DUP2 MSTORE PUSH1 0x20 ADD SWAP1 PUSH1 0x1 SWAP1 SUB SWAP1 DUP2 PUSH2 0x1D7D JUMPI SWAP1 POP JUMPDEST POP SWAP3 POP DUP6 SWAP2 POP JUMPDEST PUSH1 0x0 DUP1 SWAP1 POP JUMPDEST PUSH1 0x6 DUP2 LT ISZERO PUSH2 0x1DE8 JUMPI PUSH2 0x1DC4 DUP12 DUP3 DUP2 MLOAD DUP2 LT PUSH2 0x1DB7 JUMPI INVALID JUMPDEST PUSH1 0x20 MUL PUSH1 0x20 ADD ADD MLOAD PUSH2 0x1699 JUMP JUMPDEST DUP5 DUP3 DUP2 MLOAD DUP2 LT PUSH2 0x1DD0 JUMPI INVALID JUMPDEST PUSH1 0x20 MUL PUSH1 0x20 ADD ADD DUP2 SWAP1 MSTORE POP DUP1 DUP1 PUSH1 0x1 ADD SWAP2 POP POP PUSH2 0x1D9F JUMP JUMPDEST POP PUSH1 0x60 PUSH2 0x1DF4 DUP5 PUSH2 0x2548 JUMP JUMPDEST SWAP1 POP PUSH1 0x0 PUSH1 0x1 DUP3 DUP1 MLOAD SWAP1 PUSH1 0x20 ADD KECCAK256 DUP6 DUP10 DUP10 PUSH1 0x40 MLOAD PUSH1 0x0 DUP2 MSTORE PUSH1 0x20 ADD PUSH1 0x40 MSTORE PUSH1 0x40 MLOAD DUP1 DUP6 DUP2 MSTORE PUSH1 0x20 ADD DUP5 PUSH1 0xFF AND PUSH1 0xFF AND DUP2 MSTORE PUSH1 0x20 ADD DUP4 DUP2 MSTORE PUSH1 0x20 ADD DUP3 DUP2 MSTORE PUSH1 0x20 ADD SWAP5 POP POP POP POP POP PUSH1 0x20 PUSH1 0x40 MLOAD PUSH1 0x20 DUP2 SUB SWAP1 DUP1 DUP5 SUB SWAP1 DUP6 GAS STATICCALL ISZERO DUP1 ISZERO PUSH2 0x1E5C JUMPI RETURNDATASIZE PUSH1 0x0 DUP1 RETURNDATACOPY RETURNDATASIZE PUSH1 0x0 REVERT JUMPDEST POP POP POP PUSH1 0x20 PUSH1 0x40 MLOAD SUB MLOAD SWAP1 POP DUP1 DUP12 DUP12 DUP12 SWAP16 POP SWAP16 POP SWAP16 POP SWAP16 POP POP POP POP POP POP POP POP POP POP POP POP POP SWAP2 SWAP4 POP SWAP2 SWAP4 JUMP JUMPDEST PUSH1 0x0 DUP1 DUP3 PUSH1 0x0 ADD MLOAD EQ ISZERO PUSH2 0x1E9E JUMPI PUSH1 0x0 SWAP1 POP PUSH2 0x1ED0 JUMP JUMPDEST PUSH1 0x0 DUP1 DUP4 PUSH1 0x20 ADD MLOAD SWAP1 POP DUP1 MLOAD PUSH1 0x0 BYTE SWAP2 POP PUSH1 0xC0 PUSH1 0xFF AND DUP3 PUSH1 0xFF AND LT ISZERO PUSH2 0x1EC9 JUMPI PUSH1 0x0 SWAP3 POP POP POP PUSH2 0x1ED0 JUMP JUMPDEST PUSH1 0x1 SWAP3 POP POP POP JUMPDEST SWAP2 SWAP1 POP JUMP JUMPDEST PUSH1 0x0 DUP1 DUP3 PUSH1 0x0 ADD MLOAD EQ ISZERO PUSH2 0x1EEC JUMPI PUSH1 0x0 SWAP1 POP PUSH2 0x1F41 JUMP JUMPDEST PUSH1 0x0 DUP1 SWAP1 POP PUSH1 0x0 PUSH2 0x1F00 DUP5 PUSH1 0x20 ADD MLOAD PUSH2 0x1F46 JUMP JUMPDEST DUP5 PUSH1 0x20 ADD MLOAD ADD SWAP1 POP PUSH1 0x0 DUP5 PUSH1 0x0 ADD MLOAD DUP6 PUSH1 0x20 ADD MLOAD ADD SWAP1 POP JUMPDEST DUP1 DUP3 LT ISZERO PUSH2 0x1F3A JUMPI PUSH2 0x1F29 DUP3 PUSH2 0x1FCF JUMP JUMPDEST DUP3 ADD SWAP2 POP DUP3 DUP1 PUSH1 0x1 ADD SWAP4 POP POP PUSH2 0x1F18 JUMP JUMPDEST DUP3 SWAP4 POP POP POP POP JUMPDEST SWAP2 SWAP1 POP JUMP JUMPDEST PUSH1 0x0 DUP1 DUP3 MLOAD PUSH1 0x0 BYTE SWAP1 POP PUSH1 0x80 PUSH1 0xFF AND DUP2 LT ISZERO PUSH2 0x1F66 JUMPI PUSH1 0x0 SWAP2 POP POP PUSH2 0x1FCA JUMP JUMPDEST PUSH1 0xB8 PUSH1 0xFF AND DUP2 LT DUP1 PUSH2 0x1F8B JUMPI POP PUSH1 0xC0 PUSH1 0xFF AND DUP2 LT ISZERO DUP1 ISZERO PUSH2 0x1F8A JUMPI POP PUSH1 0xF8 PUSH1 0xFF AND DUP2 LT JUMPDEST JUMPDEST ISZERO PUSH2 0x1F9A JUMPI PUSH1 0x1 SWAP2 POP POP PUSH2 0x1FCA JUMP JUMPDEST PUSH1 0xC0 PUSH1 0xFF AND DUP2 LT ISZERO PUSH2 0x1FBA JUMPI PUSH1 0x1 DUP1 PUSH1 0xB8 SUB PUSH1 0xFF AND DUP3 SUB ADD SWAP2 POP POP PUSH2 0x1FCA JUMP JUMPDEST PUSH1 0x1 DUP1 PUSH1 0xF8 SUB PUSH1 0xFF AND DUP3 SUB ADD SWAP2 POP POP JUMPDEST SWAP2 SWAP1 POP JUMP JUMPDEST PUSH1 0x0 DUP1 PUSH1 0x0 DUP4 MLOAD PUSH1 0x0 BYTE SWAP1 POP PUSH1 0x80 PUSH1 0xFF AND DUP2 LT ISZERO PUSH2 0x1FF0 JUMPI PUSH1 0x1 SWAP2 POP PUSH2 0x207D JUMP JUMPDEST PUSH1 0xB8 PUSH1 0xFF AND DUP2 LT ISZERO PUSH2 0x200D JUMPI PUSH1 0x1 PUSH1 0x80 PUSH1 0xFF AND DUP3 SUB ADD SWAP2 POP PUSH2 0x207C JUMP JUMPDEST PUSH1 0xC0 PUSH1 0xFF AND DUP2 LT ISZERO PUSH2 0x203D JUMPI PUSH1 0xB7 DUP2 SUB PUSH1 0x1 DUP6 ADD SWAP5 POP DUP1 PUSH1 0x20 SUB PUSH2 0x100 EXP DUP6 MLOAD DIV PUSH1 0x1 DUP3 ADD DUP2 ADD SWAP4 POP POP POP PUSH2 0x207B JUMP JUMPDEST PUSH1 0xF8 PUSH1 0xFF AND DUP2 LT ISZERO PUSH2 0x205A JUMPI PUSH1 0x1 PUSH1 0xC0 PUSH1 0xFF AND DUP3 SUB ADD SWAP2 POP PUSH2 0x207A JUMP JUMPDEST PUSH1 0xF7 DUP2 SUB PUSH1 0x1 DUP6 ADD SWAP5 POP DUP1 PUSH1 0x20 SUB PUSH2 0x100 EXP DUP6 MLOAD DIV PUSH1 0x1 DUP3 ADD DUP2 ADD SWAP4 POP POP POP JUMPDEST JUMPDEST JUMPDEST JUMPDEST DUP2 SWAP3 POP POP POP SWAP2 SWAP1 POP JUMP JUMPDEST PUSH1 0x0 DUP2 EQ ISZERO PUSH2 0x2095 JUMPI PUSH2 0x20E9 JUMP JUMPDEST JUMPDEST PUSH1 0x20 PUSH1 0xFF AND DUP2 LT PUSH2 0x20C5 JUMPI DUP3 MLOAD DUP3 MSTORE PUSH1 0x20 PUSH1 0xFF AND DUP4 ADD SWAP3 POP PUSH1 0x20 PUSH1 0xFF AND DUP3 ADD SWAP2 POP PUSH1 0x20 PUSH1 0xFF AND DUP2 SUB SWAP1 POP PUSH2 0x2096 JUMP JUMPDEST PUSH1 0x0 PUSH1 0x1 DUP3 PUSH1 0x20 PUSH1 0xFF AND SUB PUSH2 0x100 EXP SUB SWAP1 POP DUP1 NOT DUP5 MLOAD AND DUP2 DUP5 MLOAD AND DUP2 DUP2 OR DUP6 MSTORE POP POP POP JUMPDEST POP POP POP JUMP JUMPDEST PUSH1 0x0 DUP1 PUSH1 0x0 DUP1 PUSH1 0x40 MLOAD DUP9 DUP2 MSTORE DUP8 PUSH1 0x20 DUP3 ADD MSTORE DUP7 PUSH1 0x40 DUP3 ADD MSTORE DUP6 PUSH1 0x60 DUP3 ADD MSTORE PUSH1 0x20 DUP2 PUSH1 0x80 DUP4 PUSH1 0x0 PUSH1 0x1 PUSH2 0xBB8 CALL SWAP3 POP DUP1 MLOAD SWAP2 POP POP DUP2 DUP2 SWAP4 POP SWAP4 POP POP POP SWAP5 POP SWAP5 SWAP3 POP POP POP JUMP JUMPDEST PUSH1 0x60 DUP1 PUSH1 0x0 DUP4 MLOAD GT ISZERO PUSH2 0x22B0 JUMPI PUSH1 0x0 DUP1 PUSH2 0x214D PUSH1 0x0 DUP7 PUSH2 0x25AC JUMP JUMPDEST PUSH1 0xF8 SHR SWAP1 POP PUSH1 0x1 DUP2 PUSH1 0xFF AND EQ DUP1 PUSH2 0x2167 JUMPI POP PUSH1 0x3 DUP2 PUSH1 0xFF AND EQ JUMPDEST ISZERO PUSH2 0x21FF JUMPI PUSH1 0x1 PUSH1 0x2 DUP7 MLOAD MUL SUB PUSH1 0x40 MLOAD SWAP1 DUP1 DUP3 MSTORE DUP1 PUSH1 0x1F ADD PUSH1 0x1F NOT AND PUSH1 0x20 ADD DUP3 ADD PUSH1 0x40 MSTORE DUP1 ISZERO PUSH2 0x21A6 JUMPI DUP2 PUSH1 0x20 ADD PUSH1 0x1 DUP3 MUL DUP1 CALLDATASIZE DUP4 CALLDATACOPY DUP1 DUP3 ADD SWAP2 POP POP SWAP1 POP JUMPDEST POP SWAP3 POP PUSH1 0x0 PUSH2 0x21B6 PUSH1 0x1 DUP8 PUSH2 0x25AC JUMP JUMPDEST SWAP1 POP DUP1 DUP5 PUSH1 0x0 DUP2 MLOAD DUP2 LT PUSH2 0x21C6 JUMPI INVALID JUMPDEST PUSH1 0x20 ADD ADD SWAP1 PUSH31 0xFFFFFFFFFFFFFFFFFFFFFFFFFFFFFFFFFFFFFFFFFFFFFFFFFFFFFFFFFFFFFF NOT AND SWAP1 DUP2 PUSH1 0x0 BYTE SWAP1 MSTORE8 POP PUSH1 0x1 SWAP3 POP POP PUSH2 0x2240 JUMP JUMPDEST PUSH1 0x2 DUP1 DUP7 MLOAD MUL SUB PUSH1 0x40 MLOAD SWAP1 DUP1 DUP3 MSTORE DUP1 PUSH1 0x1F ADD PUSH1 0x1F NOT AND PUSH1 0x20 ADD DUP3 ADD PUSH1 0x40 MSTORE DUP1 ISZERO PUSH2 0x2238 JUMPI DUP2 PUSH1 0x20 ADD PUSH1 0x1 DUP3 MUL DUP1 CALLDATASIZE DUP4 CALLDATACOPY DUP1 DUP3 ADD SWAP2 POP POP SWAP1 POP JUMPDEST POP SWAP3 POP PUSH1 0x0 SWAP2 POP JUMPDEST PUSH1 0x0 DUP3 PUSH1 0xFF AND SWAP1 POP JUMPDEST DUP4 MLOAD DUP2 LT ISZERO PUSH2 0x22AC JUMPI PUSH2 0x2264 PUSH1 0x2 DUP5 PUSH1 0xFF AND DUP4 SUB ADD DUP8 PUSH2 0x25AC JUMP JUMPDEST DUP5 DUP3 DUP2 MLOAD DUP2 LT PUSH2 0x2270 JUMPI INVALID JUMPDEST PUSH1 0x20 ADD ADD SWAP1 PUSH31 0xFFFFFFFFFFFFFFFFFFFFFFFFFFFFFFFFFFFFFFFFFFFFFFFFFFFFFFFFFFFFFF NOT AND SWAP1 DUP2 PUSH1 0x0 BYTE SWAP1 MSTORE8 POP DUP1 DUP1 PUSH1 0x1 ADD SWAP2 POP POP PUSH2 0x2249 JUMP JUMPDEST POP POP POP JUMPDEST DUP1 SWAP2 POP POP SWAP2 SWAP1 POP JUMP JUMPDEST PUSH1 0x0 PUSH1 0x21 DUP3 PUSH1 0x0 ADD MLOAD EQ PUSH2 0x22CC JUMPI PUSH1 0x0 DUP1 REVERT JUMPDEST PUSH1 0x0 DUP1 PUSH1 0x1 DUP5 PUSH1 0x20 ADD MLOAD ADD SWAP1 POP DUP1 MLOAD SWAP2 POP DUP2 SWAP3 POP POP POP SWAP2 SWAP1 POP JUMP JUMPDEST PUSH1 0x0 DUP1 PUSH1 0x60 PUSH2 0x22F5 DUP7 PUSH2 0x2132 JUMP JUMPDEST SWAP1 POP PUSH1 0x60 DUP2 MLOAD PUSH1 0x40 MLOAD SWAP1 DUP1 DUP3 MSTORE DUP1 PUSH1 0x1F ADD PUSH1 0x1F NOT AND PUSH1 0x20 ADD DUP3 ADD PUSH1 0x40 MSTORE DUP1 ISZERO PUSH2 0x232D JUMPI DUP2 PUSH1 0x20 ADD PUSH1 0x1 DUP3 MUL DUP1 CALLDATASIZE DUP4 CALLDATACOPY DUP1 DUP3 ADD SWAP2 POP POP SWAP1 POP JUMPDEST POP SWAP1 POP PUSH1 0x0 DUP6 SWAP1 POP JUMPDEST DUP3 MLOAD DUP7 ADD DUP2 LT ISZERO PUSH2 0x23A8 JUMPI PUSH1 0x0 DUP8 DUP3 DUP2 MLOAD DUP2 LT PUSH2 0x234F JUMPI INVALID JUMPDEST PUSH1 0x20 ADD ADD MLOAD PUSH1 0xF8 SHR PUSH1 0xF8 SHL SWAP1 POP DUP1 DUP4 DUP9 DUP5 SUB DUP2 MLOAD DUP2 LT PUSH2 0x236B JUMPI INVALID JUMPDEST PUSH1 0x20 ADD ADD SWAP1 PUSH31 0xFFFFFFFFFFFFFFFFFFFFFFFFFFFFFFFFFFFFFFFFFFFFFFFFFFFFFFFFFFFFFF NOT AND SWAP1 DUP2 PUSH1 0x0 BYTE SWAP1 MSTORE8 POP POP DUP1 DUP1 PUSH1 0x1 ADD SWAP2 POP POP PUSH2 0x2336 JUMP JUMPDEST POP DUP1 DUP1 MLOAD SWAP1 PUSH1 0x20 ADD KECCAK256 DUP3 DUP1 MLOAD SWAP1 PUSH1 0x20 ADD KECCAK256 EQ ISZERO PUSH2 0x23C8 JUMPI DUP2 MLOAD SWAP3 POP PUSH2 0x23CD JUMP JUMPDEST PUSH1 0x0 SWAP3 POP JUMPDEST DUP3 SWAP4 POP POP POP POP SWAP4 SWAP3 POP POP POP JUMP JUMPDEST PUSH1 0x0 PUSH1 0x15 DUP3 PUSH1 0x0 ADD MLOAD EQ PUSH2 0x23ED JUMPI PUSH1 0x0 DUP1 REVERT JUMPDEST PUSH2 0x23F6 DUP3 PUSH2 0x1400 JUMP JUMPDEST SWAP1 POP SWAP2 SWAP1 POP JUMP JUMPDEST PUSH1 0x60 DUP1 PUSH2 0x2409 DUP4 PUSH2 0x2632 JUMP JUMPDEST SWAP1 POP PUSH1 0x0 DUP1 PUSH1 0x0 SWAP1 POP JUMPDEST DUP3 MLOAD DUP2 LT ISZERO PUSH2 0x2496 JUMPI PUSH1 0x0 PUSH1 0xF8 SHL PUSH31 0xFFFFFFFFFFFFFFFFFFFFFFFFFFFFFFFFFFFFFFFFFFFFFFFFFFFFFFFFFFFFFF NOT AND DUP4 DUP3 DUP2 MLOAD DUP2 LT PUSH2 0x244F JUMPI INVALID JUMPDEST PUSH1 0x20 ADD ADD MLOAD PUSH1 0xF8 SHR PUSH1 0xF8 SHL PUSH31 0xFFFFFFFFFFFFFFFFFFFFFFFFFFFFFFFFFFFFFFFFFFFFFFFFFFFFFFFFFFFFFF NOT AND EQ PUSH2 0x2489 JUMPI DUP1 SWAP2 POP PUSH2 0x2496 JUMP JUMPDEST DUP1 DUP1 PUSH1 0x1 ADD SWAP2 POP POP PUSH2 0x2413 JUMP JUMPDEST POP DUP1 PUSH1 0x20 SUB PUSH1 0x40 MLOAD SWAP1 DUP1 DUP3 MSTORE DUP1 PUSH1 0x1F ADD PUSH1 0x1F NOT AND PUSH1 0x20 ADD DUP3 ADD PUSH1 0x40 MSTORE DUP1 ISZERO PUSH2 0x24CD JUMPI DUP2 PUSH1 0x20 ADD PUSH1 0x1 DUP3 MUL DUP1 CALLDATASIZE DUP4 CALLDATACOPY DUP1 DUP3 ADD SWAP2 POP POP SWAP1 POP JUMPDEST POP SWAP3 POP PUSH1 0x0 DUP2 SWAP1 POP JUMPDEST DUP3 MLOAD DUP2 LT ISZERO PUSH2 0x2540 JUMPI DUP3 DUP2 DUP2 MLOAD DUP2 LT PUSH2 0x24EB JUMPI INVALID JUMPDEST PUSH1 0x20 ADD ADD MLOAD PUSH1 0xF8 SHR PUSH1 0xF8 SHL DUP5 DUP4 DUP4 SUB DUP2 MLOAD DUP2 LT PUSH2 0x2504 JUMPI INVALID JUMPDEST PUSH1 0x20 ADD ADD SWAP1 PUSH31 0xFFFFFFFFFFFFFFFFFFFFFFFFFFFFFFFFFFFFFFFFFFFFFFFFFFFFFFFFFFFFFF NOT AND SWAP1 DUP2 PUSH1 0x0 BYTE SWAP1 MSTORE8 POP DUP1 DUP1 PUSH1 0x1 ADD SWAP2 POP POP PUSH2 0x24D6 JUMP JUMPDEST POP POP POP SWAP2 SWAP1 POP JUMP JUMPDEST PUSH1 0x60 DUP1 PUSH1 0x0 DUP1 SWAP1 POP JUMPDEST DUP4 MLOAD DUP2 LT ISZERO PUSH2 0x258E JUMPI PUSH2 0x257F DUP3 PUSH2 0x257A DUP7 DUP5 DUP2 MLOAD DUP2 LT PUSH2 0x256D JUMPI INVALID JUMPDEST PUSH1 0x20 MUL PUSH1 0x20 ADD ADD MLOAD PUSH2 0x2676 JUMP JUMPDEST PUSH2 0x2712 JUMP JUMPDEST SWAP2 POP DUP1 DUP1 PUSH1 0x1 ADD SWAP2 POP POP PUSH2 0x2551 JUMP JUMPDEST POP PUSH2 0x25A4 PUSH2 0x259E DUP3 MLOAD PUSH1 0xC0 PUSH2 0x279C JUMP JUMPDEST DUP3 PUSH2 0x2712 JUMP JUMPDEST SWAP2 POP POP SWAP2 SWAP1 POP JUMP JUMPDEST PUSH1 0x0 DUP1 PUSH1 0x2 DUP5 DUP2 PUSH2 0x25B9 JUMPI INVALID JUMPDEST MOD EQ PUSH2 0x25F5 JUMPI PUSH1 0x10 DUP3 PUSH1 0x2 DUP6 DUP2 PUSH2 0x25CC JUMPI INVALID JUMPDEST DIV DUP2 MLOAD DUP2 LT PUSH2 0x25D7 JUMPI INVALID JUMPDEST PUSH1 0x20 ADD ADD MLOAD PUSH1 0xF8 SHR PUSH1 0xF8 SHL PUSH1 0xF8 SHR PUSH1 0xFF AND DUP2 PUSH2 0x25EF JUMPI INVALID JUMPDEST MOD PUSH2 0x2627 JUMP JUMPDEST PUSH1 0x10 DUP3 PUSH1 0x2 DUP6 DUP2 PUSH2 0x2602 JUMPI INVALID JUMPDEST DIV DUP2 MLOAD DUP2 LT PUSH2 0x260D JUMPI INVALID JUMPDEST PUSH1 0x20 ADD ADD MLOAD PUSH1 0xF8 SHR PUSH1 0xF8 SHL PUSH1 0xF8 SHR PUSH1 0xFF AND DUP2 PUSH2 0x2625 JUMPI INVALID JUMPDEST DIV JUMPDEST PUSH1 0xF8 SHL SWAP1 POP SWAP3 SWAP2 POP POP JUMP JUMPDEST PUSH1 0x60 PUSH1 0x20 PUSH1 0x40 MLOAD SWAP1 DUP1 DUP3 MSTORE DUP1 PUSH1 0x1F ADD PUSH1 0x1F NOT AND PUSH1 0x20 ADD DUP3 ADD PUSH1 0x40 MSTORE DUP1 ISZERO PUSH2 0x2668 JUMPI DUP2 PUSH1 0x20 ADD PUSH1 0x1 DUP3 MUL DUP1 CALLDATASIZE DUP4 CALLDATACOPY DUP1 DUP3 ADD SWAP2 POP POP SWAP1 POP JUMPDEST POP SWAP1 POP DUP2 PUSH1 0x20 DUP3 ADD MSTORE SWAP2 SWAP1 POP JUMP JUMPDEST PUSH1 0x60 DUP1 PUSH1 0x1 DUP4 MLOAD EQ DUP1 ISZERO PUSH2 0x26AD JUMPI POP PUSH1 0x80 PUSH1 0xFF PUSH1 0xF8 SHL DUP5 PUSH1 0x0 DUP2 MLOAD DUP2 LT PUSH2 0x2699 JUMPI INVALID JUMPDEST PUSH1 0x20 ADD ADD MLOAD PUSH1 0xF8 SHR PUSH1 0xF8 SHL AND PUSH1 0xF8 SHR PUSH1 0xFF AND LT JUMPDEST ISZERO PUSH2 0x26F1 JUMPI PUSH1 0x1 PUSH1 0x40 MLOAD SWAP1 DUP1 DUP3 MSTORE DUP1 PUSH1 0x1F ADD PUSH1 0x1F NOT AND PUSH1 0x20 ADD DUP3 ADD PUSH1 0x40 MSTORE DUP1 ISZERO PUSH2 0x26E6 JUMPI DUP2 PUSH1 0x20 ADD PUSH1 0x1 DUP3 MUL DUP1 CALLDATASIZE DUP4 CALLDATACOPY DUP1 DUP3 ADD SWAP2 POP POP SWAP1 POP JUMPDEST POP SWAP1 POP DUP3 SWAP1 POP PUSH2 0x2709 JUMP JUMPDEST PUSH2 0x2706 PUSH2 0x2700 DUP5 MLOAD PUSH1 0x80 PUSH2 0x279C JUMP JUMPDEST DUP5 PUSH2 0x2712 JUMP JUMPDEST SWAP1 POP JUMPDEST DUP1 SWAP2 POP POP SWAP2 SWAP1 POP JUMP JUMPDEST PUSH1 0x60 DUP1 PUSH1 0x40 MLOAD SWAP1 POP DUP4 MLOAD DUP1 DUP3 MSTORE PUSH1 0x20 DUP3 ADD DUP2 DUP2 ADD PUSH1 0x20 DUP8 ADD JUMPDEST DUP2 DUP4 LT ISZERO PUSH2 0x2748 JUMPI DUP1 MLOAD DUP4 MSTORE PUSH1 0x20 DUP4 ADD SWAP3 POP PUSH1 0x20 DUP2 ADD SWAP1 POP PUSH2 0x272B JUMP JUMPDEST POP DUP6 MLOAD SWAP3 POP DUP4 MLOAD DUP4 ADD DUP5 MSTORE DUP1 SWAP2 POP DUP3 DUP3 ADD SWAP1 POP PUSH1 0x20 DUP7 ADD JUMPDEST DUP2 DUP4 LT ISZERO PUSH2 0x277D JUMPI DUP1 MLOAD DUP4 MSTORE PUSH1 0x20 DUP4 ADD SWAP3 POP PUSH1 0x20 DUP2 ADD SWAP1 POP PUSH2 0x2760 JUMP JUMPDEST POP PUSH1 0x1F NOT PUSH1 0x1F DUP9 MLOAD DUP6 ADD ISZERO DUP4 ADD ADD AND PUSH1 0x40 MSTORE POP POP POP DUP1 SWAP2 POP POP SWAP3 SWAP2 POP POP JUMP JUMPDEST PUSH1 0x60 PUSH1 0x38 DUP4 LT ISZERO PUSH2 0x282B JUMPI PUSH1 0x60 PUSH1 0x1 PUSH1 0x40 MLOAD SWAP1 DUP1 DUP3 MSTORE DUP1 PUSH1 0x1F ADD PUSH1 0x1F NOT AND PUSH1 0x20 ADD DUP3 ADD PUSH1 0x40 MSTORE DUP1 ISZERO PUSH2 0x27DD JUMPI DUP2 PUSH1 0x20 ADD PUSH1 0x1 DUP3 MUL DUP1 CALLDATASIZE DUP4 CALLDATACOPY DUP1 DUP3 ADD SWAP2 POP POP SWAP1 POP JUMPDEST POP SWAP1 POP DUP3 DUP5 ADD PUSH1 0xF8 SHL DUP2 PUSH1 0x0 DUP2 MLOAD DUP2 LT PUSH2 0x27F3 JUMPI INVALID JUMPDEST PUSH1 0x20 ADD ADD SWAP1 PUSH31 0xFFFFFFFFFFFFFFFFFFFFFFFFFFFFFFFFFFFFFFFFFFFFFFFFFFFFFFFFFFFFFF NOT AND SWAP1 DUP2 PUSH1 0x0 BYTE SWAP1 MSTORE8 POP DUP1 SWAP2 POP POP PUSH2 0x2888 JUMP JUMPDEST PUSH1 0x0 DUP1 PUSH1 0x1 SWAP1 POP JUMPDEST PUSH1 0x0 DUP2 DUP7 DUP2 PUSH2 0x283E JUMPI INVALID JUMPDEST DIV EQ PUSH2 0x2858 JUMPI DUP2 DUP1 PUSH1 0x1 ADD SWAP3 POP POP PUSH2 0x100 DUP2 MUL SWAP1 POP PUSH2 0x2833 JUMP JUMPDEST PUSH1 0x60 PUSH2 0x2868 DUP4 PUSH1 0x37 DUP8 ADD ADD PUSH2 0x288E JUMP JUMPDEST SWAP1 POP PUSH1 0x60 PUSH2 0x2875 DUP8 PUSH2 0x288E JUMP JUMPDEST SWAP1 POP PUSH2 0x2881 DUP3 DUP3 PUSH2 0x2712 JUMP JUMPDEST SWAP5 POP POP POP POP POP JUMPDEST SWAP3 SWAP2 POP POP JUMP JUMPDEST PUSH1 0x60 PUSH1 0x0 PUSH1 0x1 SWAP1 POP PUSH1 0xFF DUP4 GT ISZERO PUSH2 0x28A4 JUMPI PUSH1 0x2 SWAP1 POP JUMPDEST DUP1 PUSH1 0x40 MLOAD SWAP1 DUP1 DUP3 MSTORE DUP1 PUSH1 0x1F ADD PUSH1 0x1F NOT AND PUSH1 0x20 ADD DUP3 ADD PUSH1 0x40 MSTORE DUP1 ISZERO PUSH2 0x28D7 JUMPI DUP2 PUSH1 0x20 ADD PUSH1 0x1 DUP3 MUL DUP1 CALLDATASIZE DUP4 CALLDATACOPY DUP1 DUP3 ADD SWAP2 POP POP SWAP1 POP JUMPDEST POP SWAP2 POP PUSH1 0x0 DUP1 SWAP1 POP JUMPDEST DUP2 DUP2 LT ISZERO PUSH2 0x2948 JUMPI DUP1 PUSH1 0x1 DUP4 SUB SUB PUSH1 0x8 MUL PUSH1 0x2 EXP DUP5 DUP2 PUSH2 0x28FC JUMPI INVALID JUMPDEST DIV PUSH1 0xF8 SHL DUP4 DUP3 DUP2 MLOAD DUP2 LT PUSH2 0x290C JUMPI INVALID JUMPDEST PUSH1 0x20 ADD ADD SWAP1 PUSH31 0xFFFFFFFFFFFFFFFFFFFFFFFFFFFFFFFFFFFFFFFFFFFFFFFFFFFFFFFFFFFFFF NOT AND SWAP1 DUP2 PUSH1 0x0 BYTE SWAP1 MSTORE8 POP DUP1 DUP1 PUSH1 0x1 ADD SWAP2 POP POP PUSH2 0x28E0 JUMP JUMPDEST POP POP SWAP2 SWAP1 POP JUMP JUMPDEST PUSH1 0x40 MLOAD DUP1 PUSH1 0x80 ADD PUSH1 0x40 MSTORE DUP1 PUSH1 0x0 DUP2 MSTORE PUSH1 0x20 ADD PUSH1 0x0 DUP2 MSTORE PUSH1 0x20 ADD PUSH1 0x0 DUP1 NOT AND DUP2 MSTORE PUSH1 0x20 ADD PUSH1 0x0 DUP1 NOT AND DUP2 MSTORE POP SWAP1 JUMP JUMPDEST PUSH1 0x40 MLOAD DUP1 PUSH1 0x40 ADD PUSH1 0x40 MSTORE DUP1 PUSH1 0x0 DUP2 MSTORE PUSH1 0x20 ADD PUSH1 0x0 DUP2 MSTORE POP SWAP1 JUMP JUMPDEST PUSH1 0x40 MLOAD DUP1 PUSH1 0x40 ADD PUSH1 0x40 MSTORE DUP1 PUSH1 0x0 DUP2 MSTORE PUSH1 0x20 ADD PUSH1 0x0 DUP2 MSTORE POP SWAP1 JUMP INVALID PUSH21 0x72616E736665722073686F756C64206265206D6164 PUSH6 0x20746F204553 0x4E KECCAK256 DIFFICULTY PUSH6 0x706F73697420 COINBASE PUSH5 0x6472657373 COINBASE PUSH13 0x72656164792070726F63657373 PUSH6 0x642077697468 PUSH5 0x726177616C KECCAK256 PUSH7 0x6F722074686973 KECCAK256 PUSH21 0x72616E73616374696F6EA26469706673582212208C PUSH30 0x5F723FD83E958A228FEF604E0CE8E0570BC014F4C89D25472A232E5D5518 PUSH5 0x736F6C6343 STOP MOD SUB STOP CALLER "},"gasEstimates":{"creation":{"codeDepositCost":"2164400","executionCost":"infinite","totalCost":"infinite"},"external":{"bunches(uint256)":"4546","claimWithdrawal(bytes)":"infinite","esnDepositAddress()":"1077","getAllSigners()":"infinite","getAllValidators()":"infinite","isValidator(address)":"1272","lastBunchIndex()":"1089","numberOfValidators()":"1027","processedWithdrawals(bytes32)":"1223","setESNDepositAddress(address)":"21190","signers(uint256)":"2063","submitBunchHeader(bytes)":"infinite","token()":"1141","validators(uint256)":"2040"},"internal":{"getNextStartBlockNumber()":"7502"}},"methodIdentifiers":{"bunches(uint256)":"75080de8","claimWithdrawal(bytes)":"ca5d0926","esnDepositAddress()":"15c09850","getAllSigners()":"d42f2f35","getAllValidators()":"f3513a37","isValidator(address)":"facd743b","lastBunchIndex()":"2ceea82a","numberOfValidators()":"d6832ea9","processedWithdrawals(bytes32)":"bf49d631","setESNDepositAddress(address)":"974275cf","signers(uint256)":"2079fb9a","submitBunchHeader(bytes)":"76f5e6da","token()":"fc0c546a","validators(uint256)":"35aa2e44"}},"storageLayout":{"storage":[{"astId":271,"contract":"PlasmaManager.sol:PlasmaManager","label":"numberOfValidators","offset":0,"slot":"0","type":"t_uint256"},{"astId":275,"contract":"PlasmaManager.sol:PlasmaManager","label":"isValidator","offset":0,"slot":"1","type":"t_mapping(t_address,t_bool)"},{"astId":279,"contract":"PlasmaManager.sol:PlasmaManager","label":"processedWithdrawals","offset":0,"slot":"2","type":"t_mapping(t_bytes32,t_bool)"},{"astId":282,"contract":"PlasmaManager.sol:PlasmaManager","label":"validators","offset":0,"slot":"3","type":"t_array(t_address)dyn_storage"},{"astId":285,"contract":"PlasmaManager.sol:PlasmaManager","label":"signers","offset":0,"slot":"4","type":"t_array(t_address)dyn_storage"},{"astId":288,"contract":"PlasmaManager.sol:PlasmaManager","label":"bunches","offset":0,"slot":"5","type":"t_array(t_struct(BunchHeader)269_storage)dyn_storage"},{"astId":296,"contract":"PlasmaManager.sol:PlasmaManager","label":"token","offset":0,"slot":"6","type":"t_contract(ERC20)244"},{"astId":302,"contract":"PlasmaManager.sol:PlasmaManager","label":"esnDepositAddress","offset":0,"slot":"7","type":"t_address"}],"types":{"t_address":{"encoding":"inplace","label":"address","numberOfBytes":"20"},"t_array(t_address)dyn_storage":{"base":"t_address","encoding":"dynamic_array","label":"address[]","numberOfBytes":"32"},"t_array(t_struct(BunchHeader)269_storage)dyn_storage":{"base":"t_struct(BunchHeader)269_storage","encoding":"dynamic_array","label":"struct PlasmaManager.BunchHeader[]","numberOfBytes":"32"},"t_bool":{"encoding":"inplace","label":"bool","numberOfBytes":"1"},"t_bytes32":{"encoding":"inplace","label":"bytes32","numberOfBytes":"32"},"t_contract(ERC20)244":{"encoding":"inplace","label":"contract ERC20","numberOfBytes":"20"},"t_mapping(t_address,t_bool)":{"encoding":"mapping","key":"t_address","label":"mapping(address => bool)","numberOfBytes":"32","value":"t_bool"},"t_mapping(t_bytes32,t_bool)":{"encoding":"mapping","key":"t_bytes32","label":"mapping(bytes32 => bool)","numberOfBytes":"32","value":"t_bool"},"t_struct(BunchHeader)269_storage":{"encoding":"inplace","label":"struct PlasmaManager.BunchHeader","members":[{"astId":262,"contract":"PlasmaManager.sol:PlasmaManager","label":"startBlockNumber","offset":0,"slot":"0","type":"t_uint256"},{"astId":264,"contract":"PlasmaManager.sol:PlasmaManager","label":"bunchDepth","offset":0,"slot":"1","type":"t_uint256"},{"astId":266,"contract":"PlasmaManager.sol:PlasmaManager","label":"transactionsMegaRoot","offset":0,"slot":"2","type":"t_bytes32"},{"astId":268,"contract":"PlasmaManager.sol:PlasmaManager","label":"receiptsMegaRoot","offset":0,"slot":"3","type":"t_bytes32"}],"numberOfBytes":"128"},"t_uint256":{"encoding":"inplace","label":"uint256","numberOfBytes":"32"}}},"userdoc":{"methods":{}}}