{"abi":[{"inputs":[],"stateMutability":"nonpayable","type":"constructor"},{"anonymous":false,"inputs":[{"indexed":false,"internalType":"uint256","name":"_startBlockNumber","type":"uint256"},{"indexed":false,"internalType":"uint256","name":"_bunchDepth","type":"uint256"},{"indexed":false,"internalType":"uint256","name":"_bunchIndex","type":"uint256"}],"name":"NewBunchHeader","type":"event"},{"inputs":[{"internalType":"uint256","name":"","type":"uint256"}],"name":"bunches","outputs":[{"internalType":"uint256","name":"startBlockNumber","type":"uint256"},{"internalType":"uint256","name":"bunchDepth","type":"uint256"},{"internalType":"bytes32","name":"transactionsMegaRoot","type":"bytes32"},{"internalType":"bytes32","name":"receiptsMegaRoot","type":"bytes32"}],"stateMutability":"view","type":"function"},{"inputs":[],"name":"esnDepositAddress","outputs":[{"internalType":"address","name":"","type":"address"}],"stateMutability":"view","type":"function"},{"inputs":[],"name":"getAllSigners","outputs":[{"internalType":"address[]","name":"","type":"address[]"}],"stateMutability":"view","type":"function"},{"inputs":[],"name":"getAllValidators","outputs":[{"internalType":"address[]","name":"","type":"address[]"}],"stateMutability":"view","type":"function"},{"inputs":[],"name":"getNextStartBlockNumber","outputs":[{"internalType":"uint256","name":"","type":"uint256"}],"stateMutability":"view","type":"function"},{"inputs":[{"internalType":"address","name":"","type":"address"}],"name":"isValidator","outputs":[{"internalType":"bool","name":"","type":"bool"}],"stateMutability":"view","type":"function"},{"inputs":[],"name":"lastBunchIndex","outputs":[{"internalType":"uint256","name":"","type":"uint256"}],"stateMutability":"view","type":"function"},{"inputs":[{"internalType":"bytes32","name":"","type":"bytes32"}],"name":"processedWithdrawals","outputs":[{"internalType":"bool","name":"","type":"bool"}],"stateMutability":"view","type":"function"},{"inputs":[{"internalType":"address","name":"_esnDepositAddress","type":"address"}],"name":"setESNDepositAddress","outputs":[],"stateMutability":"nonpayable","type":"function"},{"inputs":[{"internalType":"address","name":"_token","type":"address"},{"internalType":"address[]","name":"_validators","type":"address[]"}],"name":"setInitialValues","outputs":[],"stateMutability":"nonpayable","type":"function"},{"inputs":[{"internalType":"uint256","name":"","type":"uint256"}],"name":"signers","outputs":[{"internalType":"address","name":"","type":"address"}],"stateMutability":"view","type":"function"},{"inputs":[{"internalType":"bytes","name":"_signedHeader","type":"bytes"}],"name":"submitBunchHeader","outputs":[],"stateMutability":"nonpayable","type":"function"},{"inputs":[],"name":"token","outputs":[{"internalType":"contract ERC20","name":"","type":"address"}],"stateMutability":"view","type":"function"},{"inputs":[{"internalType":"uint256","name":"","type":"uint256"}],"name":"validators","outputs":[{"internalType":"address","name":"","type":"address"}],"stateMutability":"view","type":"function"}],"devdoc":{"methods":{},"stateVariables":{"DOMAIN_SEPERATOR":{"details":"ESN Testnet ChainID"},"PREFIX":{"details":"EIP-191 Prepend byte + Version byte"},"deployer":{"details":"keeping deployer private since this wallet will be used for onetime     calling setInitialValues method, after that it has no special role.     Hence it doesn't make sence creating a method by marking it public."},"esnDepositAddress":{"details":"to avoid confusion, there will a same plasma contract address (deployed by )"},"token":{"details":"ESN Mainnet ChainID"}}},"evm":{"assembly":"    /* \"ETH/PlasmaManager.sol\":370:4489  contract PlasmaManager {... */\n  mstore(0x40, 0x80)\n    /* \"ETH/PlasmaManager.sol\":1701:1705  this */\n  address\n    /* \"ETH/PlasmaManager.sol\":1658:1706  address public esnDepositAddress = address(this) */\n  0x07\n  exp(0x0100, 0x00)\n  dup2\n  sload\n  dup2\n  0xffffffffffffffffffffffffffffffffffffffff\n  mul\n  not\n  and\n  swap1\n  dup4\n  0xffffffffffffffffffffffffffffffffffffffff\n  and\n  mul\n  or\n  swap1\n  sstore\n  pop\n    /* \"ETH/PlasmaManager.sol\":1803:1853  constructor() public {... */\n  callvalue\n  dup1\n  iszero\n  tag_1\n  jumpi\n  0x00\n  dup1\n  revert\ntag_1:\n  pop\n    /* \"ETH/PlasmaManager.sol\":1839:1849  msg.sender */\n  caller\n    /* \"ETH/PlasmaManager.sol\":1828:1836  deployer */\n  0x00\n  dup1\n    /* \"ETH/PlasmaManager.sol\":1828:1849  deployer = msg.sender */\n  0x0100\n  exp\n  dup2\n  sload\n  dup2\n  0xffffffffffffffffffffffffffffffffffffffff\n  mul\n  not\n  and\n  swap1\n  dup4\n  0xffffffffffffffffffffffffffffffffffffffff\n  and\n  mul\n  or\n  swap1\n  sstore\n  pop\n    /* \"ETH/PlasmaManager.sol\":370:4489  contract PlasmaManager {... */\n  dataSize(sub_0)\n  dup1\n  dataOffset(sub_0)\n  0x00\n  codecopy\n  0x00\n  return\nstop\n\nsub_0: assembly {\n        /* \"ETH/PlasmaManager.sol\":370:4489  contract PlasmaManager {... */\n      mstore(0x40, 0x80)\n      callvalue\n      dup1\n      iszero\n      tag_1\n      jumpi\n      0x00\n      dup1\n      revert\n    tag_1:\n      pop\n      jumpi(tag_2, lt(calldatasize, 0x04))\n      shr(0xe0, calldataload(0x00))\n      dup1\n      0x76f5e6da\n      gt\n      tag_17\n      jumpi\n      dup1\n      0xd42f2f35\n      gt\n      tag_18\n      jumpi\n      dup1\n      0xd42f2f35\n      eq\n      tag_13\n      jumpi\n      dup1\n      0xf3513a37\n      eq\n      tag_14\n      jumpi\n      dup1\n      0xfacd743b\n      eq\n      tag_15\n      jumpi\n      dup1\n      0xfc0c546a\n      eq\n      tag_16\n      jumpi\n      jump(tag_2)\n    tag_18:\n      dup1\n      0x76f5e6da\n      eq\n      tag_10\n      jumpi\n      dup1\n      0x974275cf\n      eq\n      tag_11\n      jumpi\n      dup1\n      0xbf49d631\n      eq\n      tag_12\n      jumpi\n      jump(tag_2)\n    tag_17:\n      dup1\n      0x2ceea82a\n      gt\n      tag_19\n      jumpi\n      dup1\n      0x2ceea82a\n      eq\n      tag_6\n      jumpi\n      dup1\n      0x35aa2e44\n      eq\n      tag_7\n      jumpi\n      dup1\n      0x4eee0890\n      eq\n      tag_8\n      jumpi\n      dup1\n      0x75080de8\n      eq\n      tag_9\n      jumpi\n      jump(tag_2)\n    tag_19:\n      dup1\n      0x15c09850\n      eq\n      tag_3\n      jumpi\n      dup1\n      0x2079fb9a\n      eq\n      tag_4\n      jumpi\n      dup1\n      0x24f8ecec\n      eq\n      tag_5\n      jumpi\n    tag_2:\n      0x00\n      dup1\n      revert\n        /* \"ETH/PlasmaManager.sol\":1658:1706  address public esnDepositAddress = address(this) */\n    tag_3:\n      tag_20\n      tag_21\n      jump\t// in\n    tag_20:\n      mload(0x40)\n      dup1\n      dup3\n      0xffffffffffffffffffffffffffffffffffffffff\n      and\n      0xffffffffffffffffffffffffffffffffffffffff\n      and\n      dup2\n      mstore\n      0x20\n      add\n      swap2\n      pop\n      pop\n      mload(0x40)\n      dup1\n      swap2\n      sub\n      swap1\n      return\n        /* \"ETH/PlasmaManager.sol\":1049:1073  address[] public signers */\n    tag_4:\n      tag_22\n      0x04\n      dup1\n      calldatasize\n      sub\n      0x20\n      dup2\n      lt\n      iszero\n      tag_23\n      jumpi\n      0x00\n      dup1\n      revert\n    tag_23:\n      dup2\n      add\n      swap1\n      dup1\n      dup1\n      calldataload\n      swap1\n      0x20\n      add\n      swap1\n      swap3\n      swap2\n      swap1\n      pop\n      pop\n      pop\n      tag_24\n      jump\t// in\n    tag_22:\n      mload(0x40)\n      dup1\n      dup3\n      0xffffffffffffffffffffffffffffffffffffffff\n      and\n      0xffffffffffffffffffffffffffffffffffffffff\n      and\n      dup2\n      mstore\n      0x20\n      add\n      swap2\n      pop\n      pop\n      mload(0x40)\n      dup1\n      swap2\n      sub\n      swap1\n      return\n        /* \"ETH/PlasmaManager.sol\":1856:2386  function setInitialValues(address _token, address[] memory _validators) public {... */\n    tag_5:\n      tag_25\n      0x04\n      dup1\n      calldatasize\n      sub\n      0x40\n      dup2\n      lt\n      iszero\n      tag_26\n      jumpi\n      0x00\n      dup1\n      revert\n    tag_26:\n      dup2\n      add\n      swap1\n      dup1\n      dup1\n      calldataload\n      0xffffffffffffffffffffffffffffffffffffffff\n      and\n      swap1\n      0x20\n      add\n      swap1\n      swap3\n      swap2\n      swap1\n      dup1\n      calldataload\n      swap1\n      0x20\n      add\n      swap1\n      0x0100000000\n      dup2\n      gt\n      iszero\n      tag_27\n      jumpi\n      0x00\n      dup1\n      revert\n    tag_27:\n      dup3\n      add\n      dup4\n      0x20\n      dup3\n      add\n      gt\n      iszero\n      tag_28\n      jumpi\n      0x00\n      dup1\n      revert\n    tag_28:\n      dup1\n      calldataload\n      swap1\n      0x20\n      add\n      swap2\n      dup5\n      0x20\n      dup4\n      mul\n      dup5\n      add\n      gt\n      0x0100000000\n      dup4\n      gt\n      or\n      iszero\n      tag_29\n      jumpi\n      0x00\n      dup1\n      revert\n    tag_29:\n      swap2\n      swap1\n      dup1\n      dup1\n      0x20\n      mul\n      0x20\n      add\n      mload(0x40)\n      swap1\n      dup2\n      add\n      0x40\n      mstore\n      dup1\n      swap4\n      swap3\n      swap2\n      swap1\n      dup2\n      dup2\n      mstore\n      0x20\n      add\n      dup4\n      dup4\n      0x20\n      mul\n      dup1\n      dup3\n      dup5\n      calldatacopy\n      0x00\n      dup2\n      dup5\n      add\n      mstore\n      not(0x1f)\n      0x1f\n      dup3\n      add\n      and\n      swap1\n      pop\n      dup1\n      dup4\n      add\n      swap3\n      pop\n      pop\n      pop\n      pop\n      pop\n      pop\n      pop\n      swap2\n      swap3\n      swap2\n      swap3\n      swap1\n      pop\n      pop\n      pop\n      tag_30\n      jump\t// in\n    tag_25:\n      stop\n        /* \"ETH/PlasmaManager.sol\":2573:2658  function lastBunchIndex() public view returns (uint256) {... */\n    tag_6:\n      tag_31\n      tag_32\n      jump\t// in\n    tag_31:\n      mload(0x40)\n      dup1\n      dup3\n      dup2\n      mstore\n      0x20\n      add\n      swap2\n      pop\n      pop\n      mload(0x40)\n      dup1\n      swap2\n      sub\n      swap1\n      return\n        /* \"ETH/PlasmaManager.sol\":1019:1046  address[] public validators */\n    tag_7:\n      tag_33\n      0x04\n      dup1\n      calldatasize\n      sub\n      0x20\n      dup2\n      lt\n      iszero\n      tag_34\n      jumpi\n      0x00\n      dup1\n      revert\n    tag_34:\n      dup2\n      add\n      swap1\n      dup1\n      dup1\n      calldataload\n      swap1\n      0x20\n      add\n      swap1\n      swap3\n      swap2\n      swap1\n      pop\n      pop\n      pop\n      tag_35\n      jump\t// in\n    tag_33:\n      mload(0x40)\n      dup1\n      dup3\n      0xffffffffffffffffffffffffffffffffffffffff\n      and\n      0xffffffffffffffffffffffffffffffffffffffff\n      and\n      dup2\n      mstore\n      0x20\n      add\n      swap2\n      pop\n      pop\n      mload(0x40)\n      dup1\n      swap2\n      sub\n      swap1\n      return\n        /* \"ETH/PlasmaManager.sol\":4276:4487  function getNextStartBlockNumber() public view returns (uint256) {... */\n    tag_8:\n      tag_36\n      tag_37\n      jump\t// in\n    tag_36:\n      mload(0x40)\n      dup1\n      dup3\n      dup2\n      mstore\n      0x20\n      add\n      swap2\n      pop\n      pop\n      mload(0x40)\n      dup1\n      swap2\n      sub\n      swap1\n      return\n        /* \"ETH/PlasmaManager.sol\":1076:1104  BunchHeader[] public bunches */\n    tag_9:\n      tag_38\n      0x04\n      dup1\n      calldatasize\n      sub\n      0x20\n      dup2\n      lt\n      iszero\n      tag_39\n      jumpi\n      0x00\n      dup1\n      revert\n    tag_39:\n      dup2\n      add\n      swap1\n      dup1\n      dup1\n      calldataload\n      swap1\n      0x20\n      add\n      swap1\n      swap3\n      swap2\n      swap1\n      pop\n      pop\n      pop\n      tag_40\n      jump\t// in\n    tag_38:\n      mload(0x40)\n      dup1\n      dup6\n      dup2\n      mstore\n      0x20\n      add\n      dup5\n      dup2\n      mstore\n      0x20\n      add\n      dup4\n      dup2\n      mstore\n      0x20\n      add\n      dup3\n      dup2\n      mstore\n      0x20\n      add\n      swap5\n      pop\n      pop\n      pop\n      pop\n      pop\n      mload(0x40)\n      dup1\n      swap2\n      sub\n      swap1\n      return\n        /* \"ETH/PlasmaManager.sol\":2838:4273  function submitBunchHeader(bytes memory _signedHeader) public {... */\n    tag_10:\n      tag_41\n      0x04\n      dup1\n      calldatasize\n      sub\n      0x20\n      dup2\n      lt\n      iszero\n      tag_42\n      jumpi\n      0x00\n      dup1\n      revert\n    tag_42:\n      dup2\n      add\n      swap1\n      dup1\n      dup1\n      calldataload\n      swap1\n      0x20\n      add\n      swap1\n      0x0100000000\n      dup2\n      gt\n      iszero\n      tag_43\n      jumpi\n      0x00\n      dup1\n      revert\n    tag_43:\n      dup3\n      add\n      dup4\n      0x20\n      dup3\n      add\n      gt\n      iszero\n      tag_44\n      jumpi\n      0x00\n      dup1\n      revert\n    tag_44:\n      dup1\n      calldataload\n      swap1\n      0x20\n      add\n      swap2\n      dup5\n      0x01\n      dup4\n      mul\n      dup5\n      add\n      gt\n      0x0100000000\n      dup4\n      gt\n      or\n      iszero\n      tag_45\n      jumpi\n      0x00\n      dup1\n      revert\n    tag_45:\n      swap2\n      swap1\n      dup1\n      dup1\n      0x1f\n      add\n      0x20\n      dup1\n      swap2\n      div\n      mul\n      0x20\n      add\n      mload(0x40)\n      swap1\n      dup2\n      add\n      0x40\n      mstore\n      dup1\n      swap4\n      swap3\n      swap2\n      swap1\n      dup2\n      dup2\n      mstore\n      0x20\n      add\n      dup4\n      dup4\n      dup1\n      dup3\n      dup5\n      calldatacopy\n      0x00\n      dup2\n      dup5\n      add\n      mstore\n      not(0x1f)\n      0x1f\n      dup3\n      add\n      and\n      swap1\n      pop\n      dup1\n      dup4\n      add\n      swap3\n      pop\n      pop\n      pop\n      pop\n      pop\n      pop\n      pop\n      swap2\n      swap3\n      swap2\n      swap3\n      swap1\n      pop\n      pop\n      pop\n      tag_46\n      jump\t// in\n    tag_41:\n      stop\n        /* \"ETH/PlasmaManager.sol\":2724:2835  function setESNDepositAddress(address _esnDepositAddress) public {... */\n    tag_11:\n      tag_47\n      0x04\n      dup1\n      calldatasize\n      sub\n      0x20\n      dup2\n      lt\n      iszero\n      tag_48\n      jumpi\n      0x00\n      dup1\n      revert\n    tag_48:\n      dup2\n      add\n      swap1\n      dup1\n      dup1\n      calldataload\n      0xffffffffffffffffffffffffffffffffffffffff\n      and\n      swap1\n      0x20\n      add\n      swap1\n      swap3\n      swap2\n      swap1\n      pop\n      pop\n      pop\n      tag_49\n      jump\t// in\n    tag_47:\n      stop\n        /* \"ETH/PlasmaManager.sol\":964:1016  mapping(bytes32 => bool) public processedWithdrawals */\n    tag_12:\n      tag_50\n      0x04\n      dup1\n      calldatasize\n      sub\n      0x20\n      dup2\n      lt\n      iszero\n      tag_51\n      jumpi\n      0x00\n      dup1\n      revert\n    tag_51:\n      dup2\n      add\n      swap1\n      dup1\n      dup1\n      calldataload\n      swap1\n      0x20\n      add\n      swap1\n      swap3\n      swap2\n      swap1\n      pop\n      pop\n      pop\n      tag_52\n      jump\t// in\n    tag_50:\n      mload(0x40)\n      dup1\n      dup3\n      iszero\n      iszero\n      iszero\n      iszero\n      dup2\n      mstore\n      0x20\n      add\n      swap2\n      pop\n      pop\n      mload(0x40)\n      dup1\n      swap2\n      sub\n      swap1\n      return\n        /* \"ETH/PlasmaManager.sol\":2484:2570  function getAllSigners() public view returns (address[] memory) {... */\n    tag_13:\n      tag_53\n      tag_54\n      jump\t// in\n    tag_53:\n      mload(0x40)\n      dup1\n      dup1\n      0x20\n      add\n      dup3\n      dup2\n      sub\n      dup3\n      mstore\n      dup4\n      dup2\n      dup2\n      mload\n      dup2\n      mstore\n      0x20\n      add\n      swap2\n      pop\n      dup1\n      mload\n      swap1\n      0x20\n      add\n      swap1\n      0x20\n      mul\n      dup1\n      dup4\n      dup4\n      0x00\n    tag_55:\n      dup4\n      dup2\n      lt\n      iszero\n      tag_57\n      jumpi\n      dup1\n      dup3\n      add\n      mload\n      dup2\n      dup5\n      add\n      mstore\n      0x20\n      dup2\n      add\n      swap1\n      pop\n      jump(tag_55)\n    tag_57:\n      pop\n      pop\n      pop\n      pop\n      swap1\n      pop\n      add\n      swap3\n      pop\n      pop\n      pop\n      mload(0x40)\n      dup1\n      swap2\n      sub\n      swap1\n      return\n        /* \"ETH/PlasmaManager.sol\":2389:2481  function getAllValidators() public view returns (address[] memory) {... */\n    tag_14:\n      tag_58\n      tag_59\n      jump\t// in\n    tag_58:\n      mload(0x40)\n      dup1\n      dup1\n      0x20\n      add\n      dup3\n      dup2\n      sub\n      dup3\n      mstore\n      dup4\n      dup2\n      dup2\n      mload\n      dup2\n      mstore\n      0x20\n      add\n      swap2\n      pop\n      dup1\n      mload\n      swap1\n      0x20\n      add\n      swap1\n      0x20\n      mul\n      dup1\n      dup4\n      dup4\n      0x00\n    tag_60:\n      dup4\n      dup2\n      lt\n      iszero\n      tag_62\n      jumpi\n      dup1\n      dup3\n      add\n      mload\n      dup2\n      dup5\n      add\n      mstore\n      0x20\n      dup2\n      add\n      swap1\n      pop\n      jump(tag_60)\n    tag_62:\n      pop\n      pop\n      pop\n      pop\n      swap1\n      pop\n      add\n      swap3\n      pop\n      pop\n      pop\n      mload(0x40)\n      dup1\n      swap2\n      sub\n      swap1\n      return\n        /* \"ETH/PlasmaManager.sol\":918:961  mapping(address => bool) public isValidator */\n    tag_15:\n      tag_63\n      0x04\n      dup1\n      calldatasize\n      sub\n      0x20\n      dup2\n      lt\n      iszero\n      tag_64\n      jumpi\n      0x00\n      dup1\n      revert\n    tag_64:\n      dup2\n      add\n      swap1\n      dup1\n      dup1\n      calldataload\n      0xffffffffffffffffffffffffffffffffffffffff\n      and\n      swap1\n      0x20\n      add\n      swap1\n      swap3\n      swap2\n      swap1\n      pop\n      pop\n      pop\n      tag_65\n      jump\t// in\n    tag_63:\n      mload(0x40)\n      dup1\n      dup3\n      iszero\n      iszero\n      iszero\n      iszero\n      dup2\n      mstore\n      0x20\n      add\n      swap2\n      pop\n      pop\n      mload(0x40)\n      dup1\n      swap2\n      sub\n      swap1\n      return\n        /* \"ETH/PlasmaManager.sol\":1549:1567  ERC20 public token */\n    tag_16:\n      tag_66\n      tag_67\n      jump\t// in\n    tag_66:\n      mload(0x40)\n      dup1\n      dup3\n      0xffffffffffffffffffffffffffffffffffffffff\n      and\n      0xffffffffffffffffffffffffffffffffffffffff\n      and\n      dup2\n      mstore\n      0x20\n      add\n      swap2\n      pop\n      pop\n      mload(0x40)\n      dup1\n      swap2\n      sub\n      swap1\n      return\n        /* \"ETH/PlasmaManager.sol\":1658:1706  address public esnDepositAddress = address(this) */\n    tag_21:\n      0x07\n      0x00\n      swap1\n      sload\n      swap1\n      0x0100\n      exp\n      swap1\n      div\n      0xffffffffffffffffffffffffffffffffffffffff\n      and\n      dup2\n      jump\t// out\n        /* \"ETH/PlasmaManager.sol\":1049:1073  address[] public signers */\n    tag_24:\n      0x04\n      dup2\n      dup2\n      sload\n      dup2\n      lt\n      tag_68\n      jumpi\n      invalid\n    tag_68:\n      swap1\n      0x00\n      mstore\n      keccak256(0x00, 0x20)\n      add\n      0x00\n      swap2\n      pop\n      sload\n      swap1\n      0x0100\n      exp\n      swap1\n      div\n      0xffffffffffffffffffffffffffffffffffffffff\n      and\n      dup2\n      jump\t// out\n        /* \"ETH/PlasmaManager.sol\":1856:2386  function setInitialValues(address _token, address[] memory _validators) public {... */\n    tag_30:\n        /* \"ETH/PlasmaManager.sol\":1961:1969  deployer */\n      0x00\n      dup1\n      swap1\n      sload\n      swap1\n      0x0100\n      exp\n      swap1\n      div\n      0xffffffffffffffffffffffffffffffffffffffff\n      and\n        /* \"ETH/PlasmaManager.sol\":1947:1969  msg.sender == deployer */\n      0xffffffffffffffffffffffffffffffffffffffff\n      and\n        /* \"ETH/PlasmaManager.sol\":1947:1957  msg.sender */\n      caller\n        /* \"ETH/PlasmaManager.sol\":1947:1969  msg.sender == deployer */\n      0xffffffffffffffffffffffffffffffffffffffff\n      and\n      eq\n        /* \"ETH/PlasmaManager.sol\":1939:2004  require(msg.sender == deployer, \"PLASMA: Only deployer can call\") */\n      tag_71\n      jumpi\n      mload(0x40)\n      0x08c379a000000000000000000000000000000000000000000000000000000000\n      dup2\n      mstore\n      0x04\n      add\n      dup1\n      dup1\n      0x20\n      add\n      dup3\n      dup2\n      sub\n      dup3\n      mstore\n      0x1e\n      dup2\n      mstore\n      0x20\n      add\n      dup1\n      0x504c41534d413a204f6e6c79206465706c6f7965722063616e2063616c6c0000\n      dup2\n      mstore\n      pop\n      0x20\n      add\n      swap2\n      pop\n      pop\n      mload(0x40)\n      dup1\n      swap2\n      sub\n      swap1\n      revert\n    tag_71:\n        /* \"ETH/PlasmaManager.sol\":2031:2032  0 */\n      0x00\n        /* \"ETH/PlasmaManager.sol\":2013:2033  _token != address(0) */\n      0xffffffffffffffffffffffffffffffffffffffff\n      and\n        /* \"ETH/PlasmaManager.sol\":2013:2019  _token */\n      dup3\n        /* \"ETH/PlasmaManager.sol\":2013:2033  _token != address(0) */\n      0xffffffffffffffffffffffffffffffffffffffff\n      and\n      eq\n        /* \"ETH/PlasmaManager.sol\":2009:2143  if (_token != address(0)) {... */\n      tag_72\n      jumpi\n        /* \"ETH/PlasmaManager.sol\":2074:2075  0 */\n      0x00\n        /* \"ETH/PlasmaManager.sol\":2048:2076  address(token) == address(0) */\n      0xffffffffffffffffffffffffffffffffffffffff\n      and\n        /* \"ETH/PlasmaManager.sol\":2056:2061  token */\n      0x06\n      0x00\n      swap1\n      sload\n      swap1\n      0x0100\n      exp\n      swap1\n      div\n      0xffffffffffffffffffffffffffffffffffffffff\n      and\n        /* \"ETH/PlasmaManager.sol\":2048:2076  address(token) == address(0) */\n      0xffffffffffffffffffffffffffffffffffffffff\n      and\n      eq\n        /* \"ETH/PlasmaManager.sol\":2040:2111  require(address(token) == address(0), \"PLASMA: Token adrs already set\") */\n      tag_73\n      jumpi\n      mload(0x40)\n      0x08c379a000000000000000000000000000000000000000000000000000000000\n      dup2\n      mstore\n      0x04\n      add\n      dup1\n      dup1\n      0x20\n      add\n      dup3\n      dup2\n      sub\n      dup3\n      mstore\n      0x1e\n      dup2\n      mstore\n      0x20\n      add\n      dup1\n      0x504c41534d413a20546f6b656e206164727320616c7265616479207365740000\n      dup2\n      mstore\n      pop\n      0x20\n      add\n      swap2\n      pop\n      pop\n      mload(0x40)\n      dup1\n      swap2\n      sub\n      swap1\n      revert\n    tag_73:\n        /* \"ETH/PlasmaManager.sol\":2131:2137  _token */\n      dup2\n        /* \"ETH/PlasmaManager.sol\":2117:2122  token */\n      0x06\n      0x00\n        /* \"ETH/PlasmaManager.sol\":2117:2138  token = ERC20(_token) */\n      0x0100\n      exp\n      dup2\n      sload\n      dup2\n      0xffffffffffffffffffffffffffffffffffffffff\n      mul\n      not\n      and\n      swap1\n      dup4\n      0xffffffffffffffffffffffffffffffffffffffff\n      and\n      mul\n      or\n      swap1\n      sstore\n      pop\n        /* \"ETH/PlasmaManager.sol\":2009:2143  if (_token != address(0)) {... */\n    tag_72:\n        /* \"ETH/PlasmaManager.sol\":2172:2173  0 */\n      0x00\n        /* \"ETH/PlasmaManager.sol\":2151:2162  _validators */\n      dup2\n        /* \"ETH/PlasmaManager.sol\":2151:2169  _validators.length */\n      mload\n        /* \"ETH/PlasmaManager.sol\":2151:2173  _validators.length > 0 */\n      gt\n        /* \"ETH/PlasmaManager.sol\":2147:2383  if (_validators.length > 0) {... */\n      iszero\n      tag_74\n      jumpi\n        /* \"ETH/PlasmaManager.sol\":2209:2210  0 */\n      0x00\n        /* \"ETH/PlasmaManager.sol\":2188:2198  validators */\n      0x03\n        /* \"ETH/PlasmaManager.sol\":2188:2205  validators.length */\n      dup1\n      sload\n      swap1\n      pop\n        /* \"ETH/PlasmaManager.sol\":2188:2210  validators.length == 0 */\n      eq\n        /* \"ETH/PlasmaManager.sol\":2180:2245  require(validators.length == 0, \"PLASMA: Validators already set\") */\n      tag_75\n      jumpi\n      mload(0x40)\n      0x08c379a000000000000000000000000000000000000000000000000000000000\n      dup2\n      mstore\n      0x04\n      add\n      dup1\n      dup1\n      0x20\n      add\n      dup3\n      dup2\n      sub\n      dup3\n      mstore\n      0x1e\n      dup2\n      mstore\n      0x20\n      add\n      dup1\n      0x504c41534d413a2056616c696461746f727320616c7265616479207365740000\n      dup2\n      mstore\n      pop\n      0x20\n      add\n      swap2\n      pop\n      pop\n      mload(0x40)\n      dup1\n      swap2\n      sub\n      swap1\n      revert\n    tag_75:\n        /* \"ETH/PlasmaManager.sol\":2256:2266  uint256 _i */\n      0x00\n        /* \"ETH/PlasmaManager.sol\":2269:2270  0 */\n      dup1\n        /* \"ETH/PlasmaManager.sol\":2256:2270  uint256 _i = 0 */\n      swap1\n      pop\n        /* \"ETH/PlasmaManager.sol\":2251:2350  for (uint256 _i = 0; _i < _validators.length; _i++) {... */\n    tag_76:\n        /* \"ETH/PlasmaManager.sol\":2277:2288  _validators */\n      dup2\n        /* \"ETH/PlasmaManager.sol\":2277:2295  _validators.length */\n      mload\n        /* \"ETH/PlasmaManager.sol\":2272:2274  _i */\n      dup2\n        /* \"ETH/PlasmaManager.sol\":2272:2295  _i < _validators.length */\n      lt\n        /* \"ETH/PlasmaManager.sol\":2251:2350  for (uint256 _i = 0; _i < _validators.length; _i++) {... */\n      iszero\n      tag_77\n      jumpi\n        /* \"ETH/PlasmaManager.sol\":2340:2344  true */\n      0x01\n        /* \"ETH/PlasmaManager.sol\":2309:2320  isValidator */\n      dup1\n        /* \"ETH/PlasmaManager.sol\":2309:2337  isValidator[_validators[_i]] */\n      0x00\n        /* \"ETH/PlasmaManager.sol\":2321:2332  _validators */\n      dup5\n        /* \"ETH/PlasmaManager.sol\":2333:2335  _i */\n      dup5\n        /* \"ETH/PlasmaManager.sol\":2321:2336  _validators[_i] */\n      dup2\n      mload\n      dup2\n      lt\n      tag_79\n      jumpi\n      invalid\n    tag_79:\n      0x20\n      mul\n      0x20\n      add\n      add\n      mload\n        /* \"ETH/PlasmaManager.sol\":2309:2337  isValidator[_validators[_i]] */\n      0xffffffffffffffffffffffffffffffffffffffff\n      and\n      0xffffffffffffffffffffffffffffffffffffffff\n      and\n      dup2\n      mstore\n      0x20\n      add\n      swap1\n      dup2\n      mstore\n      0x20\n      add\n      0x00\n      keccak256\n      0x00\n        /* \"ETH/PlasmaManager.sol\":2309:2344  isValidator[_validators[_i]] = true */\n      0x0100\n      exp\n      dup2\n      sload\n      dup2\n      0xff\n      mul\n      not\n      and\n      swap1\n      dup4\n      iszero\n      iszero\n      mul\n      or\n      swap1\n      sstore\n      pop\n        /* \"ETH/PlasmaManager.sol\":2297:2301  _i++ */\n      dup1\n      dup1\n      0x01\n      add\n      swap2\n      pop\n      pop\n        /* \"ETH/PlasmaManager.sol\":2251:2350  for (uint256 _i = 0; _i < _validators.length; _i++) {... */\n      jump(tag_76)\n    tag_77:\n      pop\n        /* \"ETH/PlasmaManager.sol\":2367:2378  _validators */\n      dup1\n        /* \"ETH/PlasmaManager.sol\":2354:2364  validators */\n      0x03\n        /* \"ETH/PlasmaManager.sol\":2354:2378  validators = _validators */\n      swap1\n      dup1\n      mload\n      swap1\n      0x20\n      add\n      swap1\n      tag_80\n      swap3\n      swap2\n      swap1\n      tag_81\n      jump\t// in\n    tag_80:\n      pop\n        /* \"ETH/PlasmaManager.sol\":2147:2383  if (_validators.length > 0) {... */\n    tag_74:\n        /* \"ETH/PlasmaManager.sol\":1856:2386  function setInitialValues(address _token, address[] memory _validators) public {... */\n      pop\n      pop\n      jump\t// out\n        /* \"ETH/PlasmaManager.sol\":2573:2658  function lastBunchIndex() public view returns (uint256) {... */\n    tag_32:\n        /* \"ETH/PlasmaManager.sol\":2620:2627  uint256 */\n      0x00\n        /* \"ETH/PlasmaManager.sol\":2640:2647  bunches */\n      0x05\n        /* \"ETH/PlasmaManager.sol\":2640:2654  bunches.length */\n      dup1\n      sload\n      swap1\n      pop\n        /* \"ETH/PlasmaManager.sol\":2633:2654  return bunches.length */\n      swap1\n      pop\n        /* \"ETH/PlasmaManager.sol\":2573:2658  function lastBunchIndex() public view returns (uint256) {... */\n      swap1\n      jump\t// out\n        /* \"ETH/PlasmaManager.sol\":1019:1046  address[] public validators */\n    tag_35:\n      0x03\n      dup2\n      dup2\n      sload\n      dup2\n      lt\n      tag_83\n      jumpi\n      invalid\n    tag_83:\n      swap1\n      0x00\n      mstore\n      keccak256(0x00, 0x20)\n      add\n      0x00\n      swap2\n      pop\n      sload\n      swap1\n      0x0100\n      exp\n      swap1\n      div\n      0xffffffffffffffffffffffffffffffffffffffff\n      and\n      dup2\n      jump\t// out\n        /* \"ETH/PlasmaManager.sol\":4276:4487  function getNextStartBlockNumber() public view returns (uint256) {... */\n    tag_37:\n        /* \"ETH/PlasmaManager.sol\":4332:4339  uint256 */\n      0x00\n        /* \"ETH/PlasmaManager.sol\":4367:4368  0 */\n      dup1\n        /* \"ETH/PlasmaManager.sol\":4349:4356  bunches */\n      0x05\n        /* \"ETH/PlasmaManager.sol\":4349:4363  bunches.length */\n      dup1\n      sload\n      swap1\n      pop\n        /* \"ETH/PlasmaManager.sol\":4349:4368  bunches.length == 0 */\n      eq\n        /* \"ETH/PlasmaManager.sol\":4345:4378  if (bunches.length == 0) return 0 */\n      iszero\n      tag_86\n      jumpi\n        /* \"ETH/PlasmaManager.sol\":4377:4378  0 */\n      0x00\n        /* \"ETH/PlasmaManager.sol\":4370:4378  return 0 */\n      swap1\n      pop\n      jump(tag_85)\n        /* \"ETH/PlasmaManager.sol\":4345:4378  if (bunches.length == 0) return 0 */\n    tag_86:\n        /* \"ETH/PlasmaManager.sol\":4445:4452  bunches */\n      0x05\n        /* \"ETH/PlasmaManager.sol\":4470:4471  1 */\n      0x01\n        /* \"ETH/PlasmaManager.sol\":4453:4460  bunches */\n      0x05\n        /* \"ETH/PlasmaManager.sol\":4453:4467  bunches.length */\n      dup1\n      sload\n      swap1\n      pop\n        /* \"ETH/PlasmaManager.sol\":4453:4471  bunches.length - 1 */\n      sub\n        /* \"ETH/PlasmaManager.sol\":4445:4472  bunches[bunches.length - 1] */\n      dup2\n      sload\n      dup2\n      lt\n      tag_87\n      jumpi\n      invalid\n    tag_87:\n      swap1\n      0x00\n      mstore\n      keccak256(0x00, 0x20)\n      swap1\n      0x04\n      mul\n      add\n        /* \"ETH/PlasmaManager.sol\":4445:4483  bunches[bunches.length - 1].bunchDepth */\n      0x01\n      add\n      sload\n        /* \"ETH/PlasmaManager.sol\":4442:4443  2 */\n      0x02\n        /* \"ETH/PlasmaManager.sol\":4442:4483  2**bunches[bunches.length - 1].bunchDepth */\n      exp\n        /* \"ETH/PlasmaManager.sol\":4392:4399  bunches */\n      0x05\n        /* \"ETH/PlasmaManager.sol\":4417:4418  1 */\n      0x01\n        /* \"ETH/PlasmaManager.sol\":4400:4407  bunches */\n      0x05\n        /* \"ETH/PlasmaManager.sol\":4400:4414  bunches.length */\n      dup1\n      sload\n      swap1\n      pop\n        /* \"ETH/PlasmaManager.sol\":4400:4418  bunches.length - 1 */\n      sub\n        /* \"ETH/PlasmaManager.sol\":4392:4419  bunches[bunches.length - 1] */\n      dup2\n      sload\n      dup2\n      lt\n      tag_89\n      jumpi\n      invalid\n    tag_89:\n      swap1\n      0x00\n      mstore\n      keccak256(0x00, 0x20)\n      swap1\n      0x04\n      mul\n      add\n        /* \"ETH/PlasmaManager.sol\":4392:4436  bunches[bunches.length - 1].startBlockNumber */\n      0x00\n      add\n      sload\n        /* \"ETH/PlasmaManager.sol\":4392:4483  bunches[bunches.length - 1].startBlockNumber +... */\n      add\n        /* \"ETH/PlasmaManager.sol\":4382:4483  return... */\n      swap1\n      pop\n        /* \"ETH/PlasmaManager.sol\":4276:4487  function getNextStartBlockNumber() public view returns (uint256) {... */\n    tag_85:\n      swap1\n      jump\t// out\n        /* \"ETH/PlasmaManager.sol\":1076:1104  BunchHeader[] public bunches */\n    tag_40:\n      0x05\n      dup2\n      dup2\n      sload\n      dup2\n      lt\n      tag_91\n      jumpi\n      invalid\n    tag_91:\n      swap1\n      0x00\n      mstore\n      keccak256(0x00, 0x20)\n      swap1\n      0x04\n      mul\n      add\n      0x00\n      swap2\n      pop\n      swap1\n      pop\n      dup1\n      0x00\n      add\n      sload\n      swap1\n      dup1\n      0x01\n      add\n      sload\n      swap1\n      dup1\n      0x02\n      add\n      sload\n      swap1\n      dup1\n      0x03\n      add\n      sload\n      swap1\n      pop\n      dup5\n      jump\t// out\n        /* \"ETH/PlasmaManager.sol\":2838:4273  function submitBunchHeader(bytes memory _signedHeader) public {... */\n    tag_46:\n        /* \"ETH/PlasmaManager.sol\":2904:2934  RLP.RLPItem[] memory _fullList */\n      0x60\n        /* \"ETH/PlasmaManager.sol\":2937:2971  _signedHeader.toRLPItem().toList() */\n      tag_94\n        /* \"ETH/PlasmaManager.sol\":2937:2962  _signedHeader.toRLPItem() */\n      tag_95\n        /* \"ETH/PlasmaManager.sol\":2937:2950  _signedHeader */\n      dup4\n        /* \"ETH/PlasmaManager.sol\":2937:2960  _signedHeader.toRLPItem */\n      tag_96\n        /* \"ETH/PlasmaManager.sol\":2937:2962  _signedHeader.toRLPItem() */\n      jump\t// in\n    tag_95:\n        /* \"ETH/PlasmaManager.sol\":2937:2969  _signedHeader.toRLPItem().toList */\n      tag_97\n        /* \"ETH/PlasmaManager.sol\":2937:2971  _signedHeader.toRLPItem().toList() */\n      jump\t// in\n    tag_94:\n        /* \"ETH/PlasmaManager.sol\":2904:2971  RLP.RLPItem[] memory _fullList = _signedHeader.toRLPItem().toList() */\n      swap1\n      pop\n        /* \"ETH/PlasmaManager.sol\":2975:3008  RLP.RLPItem[] memory _headerArray */\n      0x60\n        /* \"ETH/PlasmaManager.sol\":3011:3032  _fullList[0].toList() */\n      tag_98\n        /* \"ETH/PlasmaManager.sol\":3011:3020  _fullList */\n      dup3\n        /* \"ETH/PlasmaManager.sol\":3021:3022  0 */\n      0x00\n        /* \"ETH/PlasmaManager.sol\":3011:3023  _fullList[0] */\n      dup2\n      mload\n      dup2\n      lt\n      tag_99\n      jumpi\n      invalid\n    tag_99:\n      0x20\n      mul\n      0x20\n      add\n      add\n      mload\n        /* \"ETH/PlasmaManager.sol\":3011:3030  _fullList[0].toList */\n      tag_97\n        /* \"ETH/PlasmaManager.sol\":3011:3032  _fullList[0].toList() */\n      jump\t// in\n    tag_98:\n        /* \"ETH/PlasmaManager.sol\":2975:3032  RLP.RLPItem[] memory _headerArray = _fullList[0].toList() */\n      swap1\n      pop\n        /* \"ETH/PlasmaManager.sol\":3067:3068  4 */\n      0x04\n        /* \"ETH/PlasmaManager.sol\":3044:3056  _headerArray */\n      dup2\n        /* \"ETH/PlasmaManager.sol\":3044:3063  _headerArray.length */\n      mload\n        /* \"ETH/PlasmaManager.sol\":3044:3068  _headerArray.length == 4 */\n      eq\n        /* \"ETH/PlasmaManager.sol\":3036:3097  require(_headerArray.length == 4, \"PLASMA: invalid proposal\") */\n      tag_100\n      jumpi\n      mload(0x40)\n      0x08c379a000000000000000000000000000000000000000000000000000000000\n      dup2\n      mstore\n      0x04\n      add\n      dup1\n      dup1\n      0x20\n      add\n      dup3\n      dup2\n      sub\n      dup3\n      mstore\n      0x18\n      dup2\n      mstore\n      0x20\n      add\n      dup1\n      0x504c41534d413a20696e76616c69642070726f706f73616c0000000000000000\n      dup2\n      mstore\n      pop\n      0x20\n      add\n      swap2\n      pop\n      pop\n      mload(0x40)\n      dup1\n      swap2\n      sub\n      swap1\n      revert\n    tag_100:\n        /* \"ETH/PlasmaManager.sol\":3102:3133  BunchHeader memory _bunchHeader */\n      tag_101\n      tag_102\n      jump\t// in\n    tag_101:\n        /* \"ETH/PlasmaManager.sol\":3136:3345  BunchHeader({... */\n      mload(0x40)\n      dup1\n      0x80\n      add\n      0x40\n      mstore\n      dup1\n        /* \"ETH/PlasmaManager.sol\":3171:3195  _headerArray[0].toUint() */\n      tag_103\n        /* \"ETH/PlasmaManager.sol\":3171:3183  _headerArray */\n      dup5\n        /* \"ETH/PlasmaManager.sol\":3184:3185  0 */\n      0x00\n        /* \"ETH/PlasmaManager.sol\":3171:3186  _headerArray[0] */\n      dup2\n      mload\n      dup2\n      lt\n      tag_104\n      jumpi\n      invalid\n    tag_104:\n      0x20\n      mul\n      0x20\n      add\n      add\n      mload\n        /* \"ETH/PlasmaManager.sol\":3171:3193  _headerArray[0].toUint */\n      tag_105\n        /* \"ETH/PlasmaManager.sol\":3171:3195  _headerArray[0].toUint() */\n      jump\t// in\n    tag_103:\n        /* \"ETH/PlasmaManager.sol\":3136:3345  BunchHeader({... */\n      dup2\n      mstore\n      0x20\n      add\n        /* \"ETH/PlasmaManager.sol\":3212:3236  _headerArray[1].toUint() */\n      tag_106\n        /* \"ETH/PlasmaManager.sol\":3212:3224  _headerArray */\n      dup5\n        /* \"ETH/PlasmaManager.sol\":3225:3226  1 */\n      0x01\n        /* \"ETH/PlasmaManager.sol\":3212:3227  _headerArray[1] */\n      dup2\n      mload\n      dup2\n      lt\n      tag_107\n      jumpi\n      invalid\n    tag_107:\n      0x20\n      mul\n      0x20\n      add\n      add\n      mload\n        /* \"ETH/PlasmaManager.sol\":3212:3234  _headerArray[1].toUint */\n      tag_105\n        /* \"ETH/PlasmaManager.sol\":3212:3236  _headerArray[1].toUint() */\n      jump\t// in\n    tag_106:\n        /* \"ETH/PlasmaManager.sol\":3136:3345  BunchHeader({... */\n      dup2\n      mstore\n      0x20\n      add\n        /* \"ETH/PlasmaManager.sol\":3263:3290  _headerArray[2].toBytes32() */\n      tag_108\n        /* \"ETH/PlasmaManager.sol\":3263:3275  _headerArray */\n      dup5\n        /* \"ETH/PlasmaManager.sol\":3276:3277  2 */\n      0x02\n        /* \"ETH/PlasmaManager.sol\":3263:3278  _headerArray[2] */\n      dup2\n      mload\n      dup2\n      lt\n      tag_109\n      jumpi\n      invalid\n    tag_109:\n      0x20\n      mul\n      0x20\n      add\n      add\n      mload\n        /* \"ETH/PlasmaManager.sol\":3263:3288  _headerArray[2].toBytes32 */\n      tag_110\n        /* \"ETH/PlasmaManager.sol\":3263:3290  _headerArray[2].toBytes32() */\n      jump\t// in\n    tag_108:\n        /* \"ETH/PlasmaManager.sol\":3136:3345  BunchHeader({... */\n      dup2\n      mstore\n      0x20\n      add\n        /* \"ETH/PlasmaManager.sol\":3313:3340  _headerArray[3].toBytes32() */\n      tag_111\n        /* \"ETH/PlasmaManager.sol\":3313:3325  _headerArray */\n      dup5\n        /* \"ETH/PlasmaManager.sol\":3326:3327  3 */\n      0x03\n        /* \"ETH/PlasmaManager.sol\":3313:3328  _headerArray[3] */\n      dup2\n      mload\n      dup2\n      lt\n      tag_112\n      jumpi\n      invalid\n    tag_112:\n      0x20\n      mul\n      0x20\n      add\n      add\n      mload\n        /* \"ETH/PlasmaManager.sol\":3313:3338  _headerArray[3].toBytes32 */\n      tag_110\n        /* \"ETH/PlasmaManager.sol\":3313:3340  _headerArray[3].toBytes32() */\n      jump\t// in\n    tag_111:\n        /* \"ETH/PlasmaManager.sol\":3136:3345  BunchHeader({... */\n      dup2\n      mstore\n      pop\n        /* \"ETH/PlasmaManager.sol\":3102:3345  BunchHeader memory _bunchHeader = BunchHeader({... */\n      swap1\n      pop\n        /* \"ETH/PlasmaManager.sol\":3395:3420  getNextStartBlockNumber() */\n      tag_113\n        /* \"ETH/PlasmaManager.sol\":3395:3418  getNextStartBlockNumber */\n      tag_37\n        /* \"ETH/PlasmaManager.sol\":3395:3420  getNextStartBlockNumber() */\n      jump\t// in\n    tag_113:\n        /* \"ETH/PlasmaManager.sol\":3362:3374  _bunchHeader */\n      dup2\n        /* \"ETH/PlasmaManager.sol\":3362:3391  _bunchHeader.startBlockNumber */\n      0x00\n      add\n      mload\n        /* \"ETH/PlasmaManager.sol\":3362:3420  _bunchHeader.startBlockNumber == getNextStartBlockNumber() */\n      eq\n        /* \"ETH/PlasmaManager.sol\":3350:3462  require(... */\n      tag_114\n      jumpi\n      mload(0x40)\n      0x08c379a000000000000000000000000000000000000000000000000000000000\n      dup2\n      mstore\n      0x04\n      add\n      dup1\n      dup1\n      0x20\n      add\n      dup3\n      dup2\n      sub\n      dup3\n      mstore\n      0x1f\n      dup2\n      mstore\n      0x20\n      add\n      dup1\n      0x504c41534d413a20696e76616c696420737461727420626c6f636b206e6f2e00\n      dup2\n      mstore\n      pop\n      0x20\n      add\n      swap2\n      pop\n      pop\n      mload(0x40)\n      dup1\n      swap2\n      sub\n      swap1\n      revert\n    tag_114:\n        /* \"ETH/PlasmaManager.sol\":3467:3490  bytes memory _headerRLP */\n      0x60\n        /* \"ETH/PlasmaManager.sol\":3493:3518  _fullList[0].toRLPBytes() */\n      tag_115\n        /* \"ETH/PlasmaManager.sol\":3493:3502  _fullList */\n      dup5\n        /* \"ETH/PlasmaManager.sol\":3503:3504  0 */\n      0x00\n        /* \"ETH/PlasmaManager.sol\":3493:3505  _fullList[0] */\n      dup2\n      mload\n      dup2\n      lt\n      tag_116\n      jumpi\n      invalid\n    tag_116:\n      0x20\n      mul\n      0x20\n      add\n      add\n      mload\n        /* \"ETH/PlasmaManager.sol\":3493:3516  _fullList[0].toRLPBytes */\n      tag_117\n        /* \"ETH/PlasmaManager.sol\":3493:3518  _fullList[0].toRLPBytes() */\n      jump\t// in\n    tag_115:\n        /* \"ETH/PlasmaManager.sol\":3467:3518  bytes memory _headerRLP = _fullList[0].toRLPBytes() */\n      swap1\n      pop\n        /* \"ETH/PlasmaManager.sol\":3523:3538  bytes32 _digest */\n      0x00\n        /* \"ETH/PlasmaManager.sol\":3568:3574  PREFIX */\n      mload(0x40)\n      dup1\n      0x40\n      add\n      0x40\n      mstore\n      dup1\n      0x02\n      dup2\n      mstore\n      0x20\n      add\n      0x1997000000000000000000000000000000000000000000000000000000000000\n      dup2\n      mstore\n      pop\n        /* \"ETH/PlasmaManager.sol\":3576:3592  DOMAIN_SEPERATOR */\n      0x6f3a1e66e989a1cf337b9dd2ce4c98a5e78763cf9f9bdaac5707038c66a4d74e\n        /* \"ETH/PlasmaManager.sol\":3594:3604  _headerRLP */\n      dup4\n        /* \"ETH/PlasmaManager.sol\":3551:3605  abi.encodePacked(PREFIX, DOMAIN_SEPERATOR, _headerRLP) */\n      add(0x20, mload(0x40))\n      dup1\n      dup5\n      dup1\n      mload\n      swap1\n      0x20\n      add\n      swap1\n      dup1\n      dup4\n      dup4\n    tag_118:\n      0x20\n      dup4\n      lt\n      tag_120\n      jumpi\n      dup1\n      mload\n      dup3\n      mstore\n      0x20\n      dup3\n      add\n      swap2\n      pop\n      0x20\n      dup2\n      add\n      swap1\n      pop\n      0x20\n      dup4\n      sub\n      swap3\n      pop\n      jump(tag_118)\n    tag_120:\n      0x01\n      dup4\n      0x20\n      sub\n      0x0100\n      exp\n      sub\n      dup1\n      not\n      dup3\n      mload\n      and\n      dup2\n      dup5\n      mload\n      and\n      dup1\n      dup3\n      or\n      dup6\n      mstore\n      pop\n      pop\n      pop\n      pop\n      pop\n      pop\n      swap1\n      pop\n      add\n      dup4\n      dup2\n      mstore\n      0x20\n      add\n      dup3\n      dup1\n      mload\n      swap1\n      0x20\n      add\n      swap1\n      dup1\n      dup4\n      dup4\n    tag_121:\n      0x20\n      dup4\n      lt\n      tag_123\n      jumpi\n      dup1\n      mload\n      dup3\n      mstore\n      0x20\n      dup3\n      add\n      swap2\n      pop\n      0x20\n      dup2\n      add\n      swap1\n      pop\n      0x20\n      dup4\n      sub\n      swap3\n      pop\n      jump(tag_121)\n    tag_123:\n      0x01\n      dup4\n      0x20\n      sub\n      0x0100\n      exp\n      sub\n      dup1\n      not\n      dup3\n      mload\n      and\n      dup2\n      dup5\n      mload\n      and\n      dup1\n      dup3\n      or\n      dup6\n      mstore\n      pop\n      pop\n      pop\n      pop\n      pop\n      pop\n      swap1\n      pop\n      add\n      swap4\n      pop\n      pop\n      pop\n      pop\n      mload(0x40)\n      0x20\n      dup2\n      dup4\n      sub\n      sub\n      dup2\n      mstore\n      swap1\n      0x40\n      mstore\n        /* \"ETH/PlasmaManager.sol\":3541:3606  keccak256(abi.encodePacked(PREFIX, DOMAIN_SEPERATOR, _headerRLP)) */\n      dup1\n      mload\n      swap1\n      0x20\n      add\n      keccak256\n        /* \"ETH/PlasmaManager.sol\":3523:3606  bytes32 _digest = keccak256(abi.encodePacked(PREFIX, DOMAIN_SEPERATOR, _headerRLP)) */\n      swap1\n      pop\n        /* \"ETH/PlasmaManager.sol\":3611:3643  uint256 _numberOfValidSignatures */\n      0x00\n        /* \"ETH/PlasmaManager.sol\":3653:3662  uint256 i */\n      dup1\n        /* \"ETH/PlasmaManager.sol\":3665:3666  1 */\n      0x01\n        /* \"ETH/PlasmaManager.sol\":3653:3666  uint256 i = 1 */\n      swap1\n      pop\n        /* \"ETH/PlasmaManager.sol\":3648:3993  for (uint256 i = 1; i < _fullList.length; i++) {... */\n    tag_124:\n        /* \"ETH/PlasmaManager.sol\":3672:3681  _fullList */\n      dup7\n        /* \"ETH/PlasmaManager.sol\":3672:3688  _fullList.length */\n      mload\n        /* \"ETH/PlasmaManager.sol\":3668:3669  i */\n      dup2\n        /* \"ETH/PlasmaManager.sol\":3668:3688  i < _fullList.length */\n      lt\n        /* \"ETH/PlasmaManager.sol\":3648:3993  for (uint256 i = 1; i < _fullList.length; i++) {... */\n      iszero\n      tag_125\n      jumpi\n        /* \"ETH/PlasmaManager.sol\":3700:3723  bytes memory _signature */\n      0x60\n        /* \"ETH/PlasmaManager.sol\":3726:3748  _fullList[i].toBytes() */\n      tag_127\n        /* \"ETH/PlasmaManager.sol\":3726:3735  _fullList */\n      dup9\n        /* \"ETH/PlasmaManager.sol\":3736:3737  i */\n      dup4\n        /* \"ETH/PlasmaManager.sol\":3726:3738  _fullList[i] */\n      dup2\n      mload\n      dup2\n      lt\n      tag_128\n      jumpi\n      invalid\n    tag_128:\n      0x20\n      mul\n      0x20\n      add\n      add\n      mload\n        /* \"ETH/PlasmaManager.sol\":3726:3746  _fullList[i].toBytes */\n      tag_129\n        /* \"ETH/PlasmaManager.sol\":3726:3748  _fullList[i].toBytes() */\n      jump\t// in\n    tag_127:\n        /* \"ETH/PlasmaManager.sol\":3700:3748  bytes memory _signature = _fullList[i].toBytes() */\n      swap1\n      pop\n        /* \"ETH/PlasmaManager.sol\":3755:3768  bool _success */\n      0x00\n        /* \"ETH/PlasmaManager.sol\":3770:3785  address _signer */\n      dup1\n        /* \"ETH/PlasmaManager.sol\":3789:3829  ECVerify.ecrecovery(_digest, _signature) */\n      tag_130\n        /* \"ETH/PlasmaManager.sol\":3809:3816  _digest */\n      dup7\n        /* \"ETH/PlasmaManager.sol\":3818:3828  _signature */\n      dup5\n        /* \"ETH/PlasmaManager.sol\":3789:3808  ECVerify.ecrecovery */\n      tag_131\n        /* \"ETH/PlasmaManager.sol\":3789:3829  ECVerify.ecrecovery(_digest, _signature) */\n      jump\t// in\n    tag_130:\n        /* \"ETH/PlasmaManager.sol\":3754:3829  (bool _success, address _signer) = ECVerify.ecrecovery(_digest, _signature) */\n      swap2\n      pop\n      swap2\n      pop\n        /* \"ETH/PlasmaManager.sol\":3843:3851  _success */\n      dup2\n        /* \"ETH/PlasmaManager.sol\":3835:3888  require(_success, \"PLASMA: ecrecover should success\") */\n      tag_132\n      jumpi\n      mload(0x40)\n      0x08c379a000000000000000000000000000000000000000000000000000000000\n      dup2\n      mstore\n      0x04\n      add\n      dup1\n      dup1\n      0x20\n      add\n      dup3\n      dup2\n      sub\n      dup3\n      mstore\n      0x20\n      dup2\n      mstore\n      0x20\n      add\n      dup1\n      0x504c41534d413a2065637265636f7665722073686f756c642073756363657373\n      dup2\n      mstore\n      pop\n      0x20\n      add\n      swap2\n      pop\n      pop\n      mload(0x40)\n      dup1\n      swap2\n      sub\n      swap1\n      revert\n    tag_132:\n        /* \"ETH/PlasmaManager.sol\":3902:3913  isValidator */\n      0x01\n        /* \"ETH/PlasmaManager.sol\":3902:3922  isValidator[_signer] */\n      0x00\n        /* \"ETH/PlasmaManager.sol\":3914:3921  _signer */\n      dup3\n        /* \"ETH/PlasmaManager.sol\":3902:3922  isValidator[_signer] */\n      0xffffffffffffffffffffffffffffffffffffffff\n      and\n      0xffffffffffffffffffffffffffffffffffffffff\n      and\n      dup2\n      mstore\n      0x20\n      add\n      swap1\n      dup2\n      mstore\n      0x20\n      add\n      0x00\n      keccak256\n      0x00\n      swap1\n      sload\n      swap1\n      0x0100\n      exp\n      swap1\n      div\n      0xff\n      and\n        /* \"ETH/PlasmaManager.sol\":3894:3956  require(isValidator[_signer], \"PLASMA: invalid validator sig\") */\n      tag_133\n      jumpi\n      mload(0x40)\n      0x08c379a000000000000000000000000000000000000000000000000000000000\n      dup2\n      mstore\n      0x04\n      add\n      dup1\n      dup1\n      0x20\n      add\n      dup3\n      dup2\n      sub\n      dup3\n      mstore\n      0x1d\n      dup2\n      mstore\n      0x20\n      add\n      dup1\n      0x504c41534d413a20696e76616c69642076616c696461746f7220736967000000\n      dup2\n      mstore\n      pop\n      0x20\n      add\n      swap2\n      pop\n      pop\n      mload(0x40)\n      dup1\n      swap2\n      sub\n      swap1\n      revert\n    tag_133:\n        /* \"ETH/PlasmaManager.sol\":3962:3988  _numberOfValidSignatures++ */\n      dup5\n      dup1\n      0x01\n      add\n      swap6\n      pop\n      pop\n        /* \"ETH/PlasmaManager.sol\":3648:3993  for (uint256 i = 1; i < _fullList.length; i++) {... */\n      pop\n      pop\n      pop\n        /* \"ETH/PlasmaManager.sol\":3690:3693  i++ */\n      dup1\n      dup1\n      0x01\n      add\n      swap2\n      pop\n      pop\n        /* \"ETH/PlasmaManager.sol\":3648:3993  for (uint256 i = 1; i < _fullList.length; i++) {... */\n      jump(tag_124)\n    tag_125:\n      pop\n        /* \"ETH/PlasmaManager.sol\":4043:4067  validators.length.mul(2) */\n      tag_134\n        /* \"ETH/PlasmaManager.sol\":4065:4066  2 */\n      0x02\n        /* \"ETH/PlasmaManager.sol\":4043:4053  validators */\n      0x03\n        /* \"ETH/PlasmaManager.sol\":4043:4060  validators.length */\n      dup1\n      sload\n      swap1\n      pop\n        /* \"ETH/PlasmaManager.sol\":4043:4064  validators.length.mul */\n      tag_135\n      swap1\n        /* \"ETH/PlasmaManager.sol\":4043:4067  validators.length.mul(2) */\n      swap2\n      swap1\n      0xffffffff\n      and\n      jump\t// in\n    tag_134:\n        /* \"ETH/PlasmaManager.sol\":4009:4040  _numberOfValidSignatures.mul(3) */\n      tag_136\n        /* \"ETH/PlasmaManager.sol\":4038:4039  3 */\n      0x03\n        /* \"ETH/PlasmaManager.sol\":4009:4033  _numberOfValidSignatures */\n      dup4\n        /* \"ETH/PlasmaManager.sol\":4009:4037  _numberOfValidSignatures.mul */\n      tag_135\n      swap1\n        /* \"ETH/PlasmaManager.sol\":4009:4040  _numberOfValidSignatures.mul(3) */\n      swap2\n      swap1\n      0xffffffff\n      and\n      jump\t// in\n    tag_136:\n        /* \"ETH/PlasmaManager.sol\":4009:4067  _numberOfValidSignatures.mul(3) > validators.length.mul(2) */\n      gt\n        /* \"ETH/PlasmaManager.sol\":3997:4104  require(... */\n      tag_137\n      jumpi\n      mload(0x40)\n      0x08c379a000000000000000000000000000000000000000000000000000000000\n      dup2\n      mstore\n      0x04\n      add\n      dup1\n      dup1\n      0x20\n      add\n      dup3\n      dup2\n      sub\n      dup3\n      mstore\n      0x1a\n      dup2\n      mstore\n      0x20\n      add\n      dup1\n      0x504c41534d413a206e6f74203636252076616c696461746f7273000000000000\n      dup2\n      mstore\n      pop\n      0x20\n      add\n      swap2\n      pop\n      pop\n      mload(0x40)\n      dup1\n      swap2\n      sub\n      swap1\n      revert\n    tag_137:\n        /* \"ETH/PlasmaManager.sol\":4109:4128  uint256 _bunchIndex */\n      0x00\n        /* \"ETH/PlasmaManager.sol\":4131:4138  bunches */\n      0x05\n        /* \"ETH/PlasmaManager.sol\":4131:4145  bunches.length */\n      dup1\n      sload\n      swap1\n      pop\n        /* \"ETH/PlasmaManager.sol\":4109:4145  uint256 _bunchIndex = bunches.length */\n      swap1\n      pop\n        /* \"ETH/PlasmaManager.sol\":4150:4157  bunches */\n      0x05\n        /* \"ETH/PlasmaManager.sol\":4163:4175  _bunchHeader */\n      dup6\n        /* \"ETH/PlasmaManager.sol\":4150:4176  bunches.push(_bunchHeader) */\n      swap1\n      dup1\n      0x01\n      dup2\n      sload\n      add\n      dup1\n      dup3\n      sstore\n      dup1\n      swap2\n      pop\n      pop\n      0x01\n      swap1\n      sub\n      swap1\n      0x00\n      mstore\n      keccak256(0x00, 0x20)\n      swap1\n      0x04\n      mul\n      add\n      0x00\n      swap1\n      swap2\n      swap1\n      swap2\n      swap1\n      swap2\n      pop\n      0x00\n      dup3\n      add\n      mload\n      dup2\n      0x00\n      add\n      sstore\n      0x20\n      dup3\n      add\n      mload\n      dup2\n      0x01\n      add\n      sstore\n      0x40\n      dup3\n      add\n      mload\n      dup2\n      0x02\n      add\n      sstore\n      0x60\n      dup3\n      add\n      mload\n      dup2\n      0x03\n      add\n      sstore\n      pop\n      pop\n        /* \"ETH/PlasmaManager.sol\":4186:4269  NewBunchHeader(_bunchHeader.startBlockNumber, _bunchHeader.bunchDepth, _bunchIndex) */\n      0x435520ea9b14c682112acef5bc8466234d75b18dce73c44a78d905139def419d\n        /* \"ETH/PlasmaManager.sol\":4201:4213  _bunchHeader */\n      dup6\n        /* \"ETH/PlasmaManager.sol\":4201:4230  _bunchHeader.startBlockNumber */\n      0x00\n      add\n      mload\n        /* \"ETH/PlasmaManager.sol\":4232:4244  _bunchHeader */\n      dup7\n        /* \"ETH/PlasmaManager.sol\":4232:4255  _bunchHeader.bunchDepth */\n      0x20\n      add\n      mload\n        /* \"ETH/PlasmaManager.sol\":4257:4268  _bunchIndex */\n      dup4\n        /* \"ETH/PlasmaManager.sol\":4186:4269  NewBunchHeader(_bunchHeader.startBlockNumber, _bunchHeader.bunchDepth, _bunchIndex) */\n      mload(0x40)\n      dup1\n      dup5\n      dup2\n      mstore\n      0x20\n      add\n      dup4\n      dup2\n      mstore\n      0x20\n      add\n      dup3\n      dup2\n      mstore\n      0x20\n      add\n      swap4\n      pop\n      pop\n      pop\n      pop\n      mload(0x40)\n      dup1\n      swap2\n      sub\n      swap1\n      log1\n        /* \"ETH/PlasmaManager.sol\":2838:4273  function submitBunchHeader(bytes memory _signedHeader) public {... */\n      pop\n      pop\n      pop\n      pop\n      pop\n      pop\n      pop\n      pop\n      jump\t// out\n        /* \"ETH/PlasmaManager.sol\":2724:2835  function setESNDepositAddress(address _esnDepositAddress) public {... */\n    tag_49:\n        /* \"ETH/PlasmaManager.sol\":2813:2831  _esnDepositAddress */\n      dup1\n        /* \"ETH/PlasmaManager.sol\":2793:2810  esnDepositAddress */\n      0x07\n      0x00\n        /* \"ETH/PlasmaManager.sol\":2793:2831  esnDepositAddress = _esnDepositAddress */\n      0x0100\n      exp\n      dup2\n      sload\n      dup2\n      0xffffffffffffffffffffffffffffffffffffffff\n      mul\n      not\n      and\n      swap1\n      dup4\n      0xffffffffffffffffffffffffffffffffffffffff\n      and\n      mul\n      or\n      swap1\n      sstore\n      pop\n        /* \"ETH/PlasmaManager.sol\":2724:2835  function setESNDepositAddress(address _esnDepositAddress) public {... */\n      pop\n      jump\t// out\n        /* \"ETH/PlasmaManager.sol\":964:1016  mapping(bytes32 => bool) public processedWithdrawals */\n    tag_52:\n      mstore(0x20, 0x02)\n      dup1\n      0x00\n      mstore\n      keccak256(0x00, 0x40)\n      0x00\n      swap2\n      pop\n      sload\n      swap1\n      0x0100\n      exp\n      swap1\n      div\n      0xff\n      and\n      dup2\n      jump\t// out\n        /* \"ETH/PlasmaManager.sol\":2484:2570  function getAllSigners() public view returns (address[] memory) {... */\n    tag_54:\n        /* \"ETH/PlasmaManager.sol\":2530:2546  address[] memory */\n      0x60\n        /* \"ETH/PlasmaManager.sol\":2559:2566  signers */\n      0x04\n        /* \"ETH/PlasmaManager.sol\":2552:2566  return signers */\n      dup1\n      sload\n      dup1\n      0x20\n      mul\n      0x20\n      add\n      mload(0x40)\n      swap1\n      dup2\n      add\n      0x40\n      mstore\n      dup1\n      swap3\n      swap2\n      swap1\n      dup2\n      dup2\n      mstore\n      0x20\n      add\n      dup3\n      dup1\n      sload\n      dup1\n      iszero\n      tag_141\n      jumpi\n      0x20\n      mul\n      dup3\n      add\n      swap2\n      swap1\n      0x00\n      mstore\n      keccak256(0x00, 0x20)\n      swap1\n    tag_142:\n      dup2\n      0x00\n      swap1\n      sload\n      swap1\n      0x0100\n      exp\n      swap1\n      div\n      0xffffffffffffffffffffffffffffffffffffffff\n      and\n      0xffffffffffffffffffffffffffffffffffffffff\n      and\n      dup2\n      mstore\n      0x20\n      add\n      swap1\n      0x01\n      add\n      swap1\n      dup1\n      dup4\n      gt\n      tag_142\n      jumpi\n    tag_141:\n      pop\n      pop\n      pop\n      pop\n      pop\n      swap1\n      pop\n        /* \"ETH/PlasmaManager.sol\":2484:2570  function getAllSigners() public view returns (address[] memory) {... */\n      swap1\n      jump\t// out\n        /* \"ETH/PlasmaManager.sol\":2389:2481  function getAllValidators() public view returns (address[] memory) {... */\n    tag_59:\n        /* \"ETH/PlasmaManager.sol\":2438:2454  address[] memory */\n      0x60\n        /* \"ETH/PlasmaManager.sol\":2467:2477  validators */\n      0x03\n        /* \"ETH/PlasmaManager.sol\":2460:2477  return validators */\n      dup1\n      sload\n      dup1\n      0x20\n      mul\n      0x20\n      add\n      mload(0x40)\n      swap1\n      dup2\n      add\n      0x40\n      mstore\n      dup1\n      swap3\n      swap2\n      swap1\n      dup2\n      dup2\n      mstore\n      0x20\n      add\n      dup3\n      dup1\n      sload\n      dup1\n      iszero\n      tag_144\n      jumpi\n      0x20\n      mul\n      dup3\n      add\n      swap2\n      swap1\n      0x00\n      mstore\n      keccak256(0x00, 0x20)\n      swap1\n    tag_145:\n      dup2\n      0x00\n      swap1\n      sload\n      swap1\n      0x0100\n      exp\n      swap1\n      div\n      0xffffffffffffffffffffffffffffffffffffffff\n      and\n      0xffffffffffffffffffffffffffffffffffffffff\n      and\n      dup2\n      mstore\n      0x20\n      add\n      swap1\n      0x01\n      add\n      swap1\n      dup1\n      dup4\n      gt\n      tag_145\n      jumpi\n    tag_144:\n      pop\n      pop\n      pop\n      pop\n      pop\n      swap1\n      pop\n        /* \"ETH/PlasmaManager.sol\":2389:2481  function getAllValidators() public view returns (address[] memory) {... */\n      swap1\n      jump\t// out\n        /* \"ETH/PlasmaManager.sol\":918:961  mapping(address => bool) public isValidator */\n    tag_65:\n      mstore(0x20, 0x01)\n      dup1\n      0x00\n      mstore\n      keccak256(0x00, 0x40)\n      0x00\n      swap2\n      pop\n      sload\n      swap1\n      0x0100\n      exp\n      swap1\n      div\n      0xff\n      and\n      dup2\n      jump\t// out\n        /* \"ETH/PlasmaManager.sol\":1549:1567  ERC20 public token */\n    tag_67:\n      0x06\n      0x00\n      swap1\n      sload\n      swap1\n      0x0100\n      exp\n      swap1\n      div\n      0xffffffffffffffffffffffffffffffffffffffff\n      and\n      dup2\n      jump\t// out\n        /* \"lib/RLP.sol\":1365:1550  function toRLPItem(bytes memory item) internal pure returns (RLPItem memory) {... */\n    tag_96:\n        /* \"lib/RLP.sol\":1426:1440  RLPItem memory */\n      tag_146\n      tag_147\n      jump\t// in\n    tag_146:\n        /* \"lib/RLP.sol\":1446:1460  uint256 memPtr */\n      0x00\n        /* \"lib/RLP.sol\":1498:1502  0x20 */\n      0x20\n        /* \"lib/RLP.sol\":1492:1496  item */\n      dup4\n        /* \"lib/RLP.sol\":1488:1503  add(item, 0x20) */\n      add\n        /* \"lib/RLP.sol\":1478:1503  memPtr := add(item, 0x20) */\n      swap1\n      pop\n        /* \"lib/RLP.sol\":1518:1546  RLPItem(item.length, memPtr) */\n      mload(0x40)\n      dup1\n      0x40\n      add\n      0x40\n      mstore\n      dup1\n        /* \"lib/RLP.sol\":1526:1530  item */\n      dup5\n        /* \"lib/RLP.sol\":1526:1537  item.length */\n      mload\n        /* \"lib/RLP.sol\":1518:1546  RLPItem(item.length, memPtr) */\n      dup2\n      mstore\n      0x20\n      add\n        /* \"lib/RLP.sol\":1539:1545  memPtr */\n      dup3\n        /* \"lib/RLP.sol\":1518:1546  RLPItem(item.length, memPtr) */\n      dup2\n      mstore\n      pop\n        /* \"lib/RLP.sol\":1511:1546  return RLPItem(item.length, memPtr) */\n      swap2\n      pop\n      pop\n        /* \"lib/RLP.sol\":1365:1550  function toRLPItem(bytes memory item) internal pure returns (RLPItem memory) {... */\n      swap2\n      swap1\n      pop\n      jump\t// out\n        /* \"lib/RLP.sol\":2280:2746  function toList(RLPItem memory item) internal pure returns (RLPItem[] memory) {... */\n    tag_97:\n        /* \"lib/RLP.sol\":2340:2356  RLPItem[] memory */\n      0x60\n        /* \"lib/RLP.sol\":2370:2382  isList(item) */\n      tag_150\n        /* \"lib/RLP.sol\":2377:2381  item */\n      dup3\n        /* \"lib/RLP.sol\":2370:2376  isList */\n      tag_151\n        /* \"lib/RLP.sol\":2370:2382  isList(item) */\n      jump\t// in\n    tag_150:\n        /* \"lib/RLP.sol\":2362:2408  require(isList(item), \"RLP: item is not list\") */\n      tag_152\n      jumpi\n      mload(0x40)\n      0x08c379a000000000000000000000000000000000000000000000000000000000\n      dup2\n      mstore\n      0x04\n      add\n      dup1\n      dup1\n      0x20\n      add\n      dup3\n      dup2\n      sub\n      dup3\n      mstore\n      0x15\n      dup2\n      mstore\n      0x20\n      add\n      dup1\n      0x524c503a206974656d206973206e6f74206c6973740000000000000000000000\n      dup2\n      mstore\n      pop\n      0x20\n      add\n      swap2\n      pop\n      pop\n      mload(0x40)\n      dup1\n      swap2\n      sub\n      swap1\n      revert\n    tag_152:\n        /* \"lib/RLP.sol\":2413:2426  uint256 items */\n      0x00\n        /* \"lib/RLP.sol\":2429:2443  numItems(item) */\n      tag_153\n        /* \"lib/RLP.sol\":2438:2442  item */\n      dup4\n        /* \"lib/RLP.sol\":2429:2437  numItems */\n      tag_154\n        /* \"lib/RLP.sol\":2429:2443  numItems(item) */\n      jump\t// in\n    tag_153:\n        /* \"lib/RLP.sol\":2413:2443  uint256 items = numItems(item) */\n      swap1\n      pop\n        /* \"lib/RLP.sol\":2447:2470  RLPItem[] memory result */\n      0x60\n        /* \"lib/RLP.sol\":2487:2492  items */\n      dup2\n        /* \"lib/RLP.sol\":2473:2493  new RLPItem[](items) */\n      0xffffffffffffffff\n      dup2\n      gt\n      dup1\n      iszero\n      tag_155\n      jumpi\n      0x00\n      dup1\n      revert\n    tag_155:\n      pop\n      mload(0x40)\n      swap1\n      dup1\n      dup3\n      mstore\n      dup1\n      0x20\n      mul\n      0x20\n      add\n      dup3\n      add\n      0x40\n      mstore\n      dup1\n      iszero\n      tag_156\n      jumpi\n      dup2\n      0x20\n      add\n    tag_157:\n      tag_158\n      tag_147\n      jump\t// in\n    tag_158:\n      dup2\n      mstore\n      0x20\n      add\n      swap1\n      0x01\n      swap1\n      sub\n      swap1\n      dup2\n      tag_157\n      jumpi\n      swap1\n      pop\n    tag_156:\n      pop\n        /* \"lib/RLP.sol\":2447:2493  RLPItem[] memory result = new RLPItem[](items) */\n      swap1\n      pop\n        /* \"lib/RLP.sol\":2498:2512  uint256 memPtr */\n      0x00\n        /* \"lib/RLP.sol\":2529:2556  _payloadOffset(item.memPtr) */\n      tag_159\n        /* \"lib/RLP.sol\":2544:2548  item */\n      dup6\n        /* \"lib/RLP.sol\":2544:2555  item.memPtr */\n      0x20\n      add\n      mload\n        /* \"lib/RLP.sol\":2529:2543  _payloadOffset */\n      tag_160\n        /* \"lib/RLP.sol\":2529:2556  _payloadOffset(item.memPtr) */\n      jump\t// in\n    tag_159:\n        /* \"lib/RLP.sol\":2515:2519  item */\n      dup6\n        /* \"lib/RLP.sol\":2515:2526  item.memPtr */\n      0x20\n      add\n      mload\n        /* \"lib/RLP.sol\":2515:2556  item.memPtr + _payloadOffset(item.memPtr) */\n      add\n        /* \"lib/RLP.sol\":2498:2556  uint256 memPtr = item.memPtr + _payloadOffset(item.memPtr) */\n      swap1\n      pop\n        /* \"lib/RLP.sol\":2560:2575  uint256 dataLen */\n      0x00\n        /* \"lib/RLP.sol\":2584:2593  uint256 i */\n      dup1\n        /* \"lib/RLP.sol\":2596:2597  0 */\n      0x00\n        /* \"lib/RLP.sol\":2584:2597  uint256 i = 0 */\n      swap1\n      pop\n        /* \"lib/RLP.sol\":2579:2725  for (uint256 i = 0; i < items; i++) {... */\n    tag_161:\n        /* \"lib/RLP.sol\":2603:2608  items */\n      dup5\n        /* \"lib/RLP.sol\":2599:2600  i */\n      dup2\n        /* \"lib/RLP.sol\":2599:2608  i < items */\n      lt\n        /* \"lib/RLP.sol\":2579:2725  for (uint256 i = 0; i < items; i++) {... */\n      iszero\n      tag_162\n      jumpi\n        /* \"lib/RLP.sol\":2630:2649  _itemLength(memPtr) */\n      tag_164\n        /* \"lib/RLP.sol\":2642:2648  memPtr */\n      dup4\n        /* \"lib/RLP.sol\":2630:2641  _itemLength */\n      tag_165\n        /* \"lib/RLP.sol\":2630:2649  _itemLength(memPtr) */\n      jump\t// in\n    tag_164:\n        /* \"lib/RLP.sol\":2620:2649  dataLen = _itemLength(memPtr) */\n      swap2\n      pop\n        /* \"lib/RLP.sol\":2666:2690  RLPItem(dataLen, memPtr) */\n      mload(0x40)\n      dup1\n      0x40\n      add\n      0x40\n      mstore\n      dup1\n        /* \"lib/RLP.sol\":2674:2681  dataLen */\n      dup4\n        /* \"lib/RLP.sol\":2666:2690  RLPItem(dataLen, memPtr) */\n      dup2\n      mstore\n      0x20\n      add\n        /* \"lib/RLP.sol\":2683:2689  memPtr */\n      dup5\n        /* \"lib/RLP.sol\":2666:2690  RLPItem(dataLen, memPtr) */\n      dup2\n      mstore\n      pop\n        /* \"lib/RLP.sol\":2654:2660  result */\n      dup5\n        /* \"lib/RLP.sol\":2661:2662  i */\n      dup3\n        /* \"lib/RLP.sol\":2654:2663  result[i] */\n      dup2\n      mload\n      dup2\n      lt\n      tag_166\n      jumpi\n      invalid\n    tag_166:\n      0x20\n      mul\n      0x20\n      add\n      add\n        /* \"lib/RLP.sol\":2654:2690  result[i] = RLPItem(dataLen, memPtr) */\n      dup2\n      swap1\n      mstore\n      pop\n        /* \"lib/RLP.sol\":2713:2720  dataLen */\n      dup2\n        /* \"lib/RLP.sol\":2704:2710  memPtr */\n      dup4\n        /* \"lib/RLP.sol\":2704:2720  memPtr + dataLen */\n      add\n        /* \"lib/RLP.sol\":2695:2720  memPtr = memPtr + dataLen */\n      swap3\n      pop\n        /* \"lib/RLP.sol\":2610:2613  i++ */\n      dup1\n      dup1\n      0x01\n      add\n      swap2\n      pop\n      pop\n        /* \"lib/RLP.sol\":2579:2725  for (uint256 i = 0; i < items; i++) {... */\n      jump(tag_161)\n    tag_162:\n      pop\n        /* \"lib/RLP.sol\":2736:2742  result */\n      dup3\n        /* \"lib/RLP.sol\":2729:2742  return result */\n      swap5\n      pop\n      pop\n      pop\n      pop\n      pop\n        /* \"lib/RLP.sol\":2280:2746  function toList(RLPItem memory item) internal pure returns (RLPItem[] memory) {... */\n      swap2\n      swap1\n      pop\n      jump\t// out\n        /* \"lib/RLP.sol\":3986:4466  function toUint(RLPItem memory item) internal pure returns (uint256) {... */\n    tag_105:\n        /* \"lib/RLP.sol\":4046:4053  uint256 */\n      0x00\n        /* \"lib/RLP.sol\":4078:4079  0 */\n      dup1\n        /* \"lib/RLP.sol\":4067:4071  item */\n      dup3\n        /* \"lib/RLP.sol\":4067:4075  item.len */\n      0x00\n      add\n      mload\n        /* \"lib/RLP.sol\":4067:4079  item.len > 0 */\n      gt\n        /* \"lib/RLP.sol\":4067:4097  item.len > 0 && item.len <= 33 */\n      dup1\n      iszero\n      tag_168\n      jumpi\n      pop\n        /* \"lib/RLP.sol\":4095:4097  33 */\n      0x21\n        /* \"lib/RLP.sol\":4083:4087  item */\n      dup3\n        /* \"lib/RLP.sol\":4083:4091  item.len */\n      0x00\n      add\n      mload\n        /* \"lib/RLP.sol\":4083:4097  item.len <= 33 */\n      gt\n      iszero\n        /* \"lib/RLP.sol\":4067:4097  item.len > 0 && item.len <= 33 */\n    tag_168:\n        /* \"lib/RLP.sol\":4059:4131  require(item.len > 0 && item.len <= 33, \"RLP: len not between 0 and 33\") */\n      tag_169\n      jumpi\n      mload(0x40)\n      0x08c379a000000000000000000000000000000000000000000000000000000000\n      dup2\n      mstore\n      0x04\n      add\n      dup1\n      dup1\n      0x20\n      add\n      dup3\n      dup2\n      sub\n      dup3\n      mstore\n      0x1d\n      dup2\n      mstore\n      0x20\n      add\n      dup1\n      0x524c503a206c656e206e6f74206265747765656e203020616e64203333000000\n      dup2\n      mstore\n      pop\n      0x20\n      add\n      swap2\n      pop\n      pop\n      mload(0x40)\n      dup1\n      swap2\n      sub\n      swap1\n      revert\n    tag_169:\n        /* \"lib/RLP.sol\":4136:4150  uint256 offset */\n      0x00\n        /* \"lib/RLP.sol\":4153:4180  _payloadOffset(item.memPtr) */\n      tag_170\n        /* \"lib/RLP.sol\":4168:4172  item */\n      dup4\n        /* \"lib/RLP.sol\":4168:4179  item.memPtr */\n      0x20\n      add\n      mload\n        /* \"lib/RLP.sol\":4153:4167  _payloadOffset */\n      tag_160\n        /* \"lib/RLP.sol\":4153:4180  _payloadOffset(item.memPtr) */\n      jump\t// in\n    tag_170:\n        /* \"lib/RLP.sol\":4136:4180  uint256 offset = _payloadOffset(item.memPtr) */\n      swap1\n      pop\n        /* \"lib/RLP.sol\":4184:4195  uint256 len */\n      0x00\n        /* \"lib/RLP.sol\":4209:4215  offset */\n      dup2\n        /* \"lib/RLP.sol\":4198:4202  item */\n      dup5\n        /* \"lib/RLP.sol\":4198:4206  item.len */\n      0x00\n      add\n      mload\n        /* \"lib/RLP.sol\":4198:4215  item.len - offset */\n      sub\n        /* \"lib/RLP.sol\":4184:4215  uint256 len = item.len - offset */\n      swap1\n      pop\n        /* \"lib/RLP.sol\":4220:4234  uint256 result */\n      0x00\n        /* \"lib/RLP.sol\":4238:4252  uint256 memPtr */\n      dup1\n        /* \"lib/RLP.sol\":4269:4275  offset */\n      dup4\n        /* \"lib/RLP.sol\":4255:4259  item */\n      dup7\n        /* \"lib/RLP.sol\":4255:4266  item.memPtr */\n      0x20\n      add\n      mload\n        /* \"lib/RLP.sol\":4255:4275  item.memPtr + offset */\n      add\n        /* \"lib/RLP.sol\":4238:4275  uint256 memPtr = item.memPtr + offset */\n      swap1\n      pop\n        /* \"lib/RLP.sol\":4309:4315  memPtr */\n      dup1\n        /* \"lib/RLP.sol\":4303:4316  mload(memPtr) */\n      mload\n        /* \"lib/RLP.sol\":4293:4316  result := mload(memPtr) */\n      swap2\n      pop\n        /* \"lib/RLP.sol\":4381:4383  32 */\n      0x20\n        /* \"lib/RLP.sol\":4376:4379  len */\n      dup4\n        /* \"lib/RLP.sol\":4373:4384  lt(len, 32) */\n      lt\n        /* \"lib/RLP.sol\":4370:4372  if */\n      iszero\n      tag_171\n      jumpi\n        /* \"lib/RLP.sol\":4430:4433  len */\n      dup3\n        /* \"lib/RLP.sol\":4426:4428  32 */\n      0x20\n        /* \"lib/RLP.sol\":4422:4434  sub(32, len) */\n      sub\n        /* \"lib/RLP.sol\":4417:4420  256 */\n      0x0100\n        /* \"lib/RLP.sol\":4413:4435  exp(256, sub(32, len)) */\n      exp\n        /* \"lib/RLP.sol\":4405:4411  result */\n      dup3\n        /* \"lib/RLP.sol\":4401:4436  div(result, exp(256, sub(32, len))) */\n      div\n        /* \"lib/RLP.sol\":4391:4436  result := div(result, exp(256, sub(32, len))) */\n      swap2\n      pop\n        /* \"lib/RLP.sol\":4370:4372  if */\n    tag_171:\n        /* \"lib/RLP.sol\":4456:4462  result */\n      dup2\n        /* \"lib/RLP.sol\":4449:4462  return result */\n      swap5\n      pop\n      pop\n      pop\n      pop\n      pop\n        /* \"lib/RLP.sol\":3986:4466  function toUint(RLPItem memory item) internal pure returns (uint256) {... */\n      swap2\n      swap1\n      pop\n      jump\t// out\n        /* \"lib/RLP.sol\":6076:6184  function toBytes32(RLPItem memory item) internal pure returns (bytes32) {... */\n    tag_110:\n        /* \"lib/RLP.sol\":6139:6146  bytes32 */\n      0x00\n        /* \"lib/RLP.sol\":6167:6179  toUint(item) */\n      tag_173\n        /* \"lib/RLP.sol\":6174:6178  item */\n      dup3\n        /* \"lib/RLP.sol\":6167:6173  toUint */\n      tag_105\n        /* \"lib/RLP.sol\":6167:6179  toUint(item) */\n      jump\t// in\n    tag_173:\n        /* \"lib/RLP.sol\":6159:6180  bytes32(toUint(item)) */\n      0x00\n      shl\n        /* \"lib/RLP.sol\":6152:6180  return bytes32(toUint(item)) */\n      swap1\n      pop\n        /* \"lib/RLP.sol\":6076:6184  function toBytes32(RLPItem memory item) internal pure returns (bytes32) {... */\n      swap2\n      swap1\n      pop\n      jump\t// out\n        /* \"lib/RLP.sol\":3200:3483  function toRLPBytes(RLPItem memory item) internal pure returns (bytes memory) {... */\n    tag_117:\n        /* \"lib/RLP.sol\":3264:3276  bytes memory */\n      0x60\n        /* \"lib/RLP.sol\":3282:3301  bytes memory result */\n      dup1\n        /* \"lib/RLP.sol\":3314:3318  item */\n      dup3\n        /* \"lib/RLP.sol\":3314:3322  item.len */\n      0x00\n      add\n      mload\n        /* \"lib/RLP.sol\":3304:3323  new bytes(item.len) */\n      0xffffffffffffffff\n      dup2\n      gt\n      dup1\n      iszero\n      tag_175\n      jumpi\n      0x00\n      dup1\n      revert\n    tag_175:\n      pop\n      mload(0x40)\n      swap1\n      dup1\n      dup3\n      mstore\n      dup1\n      0x1f\n      add\n      not(0x1f)\n      and\n      0x20\n      add\n      dup3\n      add\n      0x40\n      mstore\n      dup1\n      iszero\n      tag_176\n      jumpi\n      dup2\n      0x20\n      add\n      0x01\n      dup3\n      mul\n      dup1\n      calldatasize\n      dup4\n      calldatacopy\n      dup1\n      dup3\n      add\n      swap2\n      pop\n      pop\n      swap1\n      pop\n    tag_176:\n      pop\n        /* \"lib/RLP.sol\":3282:3323  bytes memory result = new bytes(item.len) */\n      swap1\n      pop\n        /* \"lib/RLP.sol\":3348:3349  0 */\n      0x00\n        /* \"lib/RLP.sol\":3331:3337  result */\n      dup2\n        /* \"lib/RLP.sol\":3331:3344  result.length */\n      mload\n        /* \"lib/RLP.sol\":3331:3349  result.length == 0 */\n      eq\n        /* \"lib/RLP.sol\":3327:3364  if (result.length == 0) return result */\n      iszero\n      tag_177\n      jumpi\n        /* \"lib/RLP.sol\":3358:3364  result */\n      dup1\n        /* \"lib/RLP.sol\":3351:3364  return result */\n      swap2\n      pop\n      pop\n      jump(tag_174)\n        /* \"lib/RLP.sol\":3327:3364  if (result.length == 0) return result */\n    tag_177:\n        /* \"lib/RLP.sol\":3369:3380  uint256 ptr */\n      0x00\n        /* \"lib/RLP.sol\":3415:3421  result */\n      dup2\n        /* \"lib/RLP.sol\":3409:3413  0x20 */\n      0x20\n        /* \"lib/RLP.sol\":3405:3422  add(0x20, result) */\n      add\n        /* \"lib/RLP.sol\":3398:3422  ptr := add(0x20, result) */\n      swap1\n      pop\n        /* \"lib/RLP.sol\":3430:3462  copy(item.memPtr, ptr, item.len) */\n      tag_178\n        /* \"lib/RLP.sol\":3435:3439  item */\n      dup5\n        /* \"lib/RLP.sol\":3435:3446  item.memPtr */\n      0x20\n      add\n      mload\n        /* \"lib/RLP.sol\":3448:3451  ptr */\n      dup3\n        /* \"lib/RLP.sol\":3453:3457  item */\n      dup7\n        /* \"lib/RLP.sol\":3453:3461  item.len */\n      0x00\n      add\n      mload\n        /* \"lib/RLP.sol\":3430:3434  copy */\n      tag_179\n        /* \"lib/RLP.sol\":3430:3462  copy(item.memPtr, ptr, item.len) */\n      jump\t// in\n    tag_178:\n        /* \"lib/RLP.sol\":3473:3479  result */\n      dup2\n        /* \"lib/RLP.sol\":3466:3479  return result */\n      swap3\n      pop\n      pop\n      pop\n        /* \"lib/RLP.sol\":3200:3483  function toRLPBytes(RLPItem memory item) internal pure returns (bytes memory) {... */\n    tag_174:\n      swap2\n      swap1\n      pop\n      jump\t// out\n        /* \"lib/RLP.sol\":5246:5644  function toBytes(RLPItem memory item) internal pure returns (bytes memory) {... */\n    tag_129:\n        /* \"lib/RLP.sol\":5307:5319  bytes memory */\n      0x60\n        /* \"lib/RLP.sol\":5344:5345  0 */\n      0x00\n        /* \"lib/RLP.sol\":5333:5337  item */\n      dup3\n        /* \"lib/RLP.sol\":5333:5341  item.len */\n      0x00\n      add\n      mload\n        /* \"lib/RLP.sol\":5333:5345  item.len > 0 */\n      gt\n        /* \"lib/RLP.sol\":5325:5370  require(item.len > 0, \"RLP: len is not gt 0\") */\n      tag_181\n      jumpi\n      mload(0x40)\n      0x08c379a000000000000000000000000000000000000000000000000000000000\n      dup2\n      mstore\n      0x04\n      add\n      dup1\n      dup1\n      0x20\n      add\n      dup3\n      dup2\n      sub\n      dup3\n      mstore\n      0x14\n      dup2\n      mstore\n      0x20\n      add\n      dup1\n      0x524c503a206c656e206973206e6f742067742030000000000000000000000000\n      dup2\n      mstore\n      pop\n      0x20\n      add\n      swap2\n      pop\n      pop\n      mload(0x40)\n      dup1\n      swap2\n      sub\n      swap1\n      revert\n    tag_181:\n        /* \"lib/RLP.sol\":5375:5389  uint256 offset */\n      0x00\n        /* \"lib/RLP.sol\":5392:5419  _payloadOffset(item.memPtr) */\n      tag_182\n        /* \"lib/RLP.sol\":5407:5411  item */\n      dup4\n        /* \"lib/RLP.sol\":5407:5418  item.memPtr */\n      0x20\n      add\n      mload\n        /* \"lib/RLP.sol\":5392:5406  _payloadOffset */\n      tag_160\n        /* \"lib/RLP.sol\":5392:5419  _payloadOffset(item.memPtr) */\n      jump\t// in\n    tag_182:\n        /* \"lib/RLP.sol\":5375:5419  uint256 offset = _payloadOffset(item.memPtr) */\n      swap1\n      pop\n        /* \"lib/RLP.sol\":5423:5434  uint256 len */\n      0x00\n        /* \"lib/RLP.sol\":5448:5454  offset */\n      dup2\n        /* \"lib/RLP.sol\":5437:5441  item */\n      dup5\n        /* \"lib/RLP.sol\":5437:5445  item.len */\n      0x00\n      add\n      mload\n        /* \"lib/RLP.sol\":5437:5454  item.len - offset */\n      sub\n        /* \"lib/RLP.sol\":5423:5454  uint256 len = item.len - offset */\n      swap1\n      pop\n        /* \"lib/RLP.sol\":5473:5492  bytes memory result */\n      0x60\n        /* \"lib/RLP.sol\":5505:5508  len */\n      dup2\n        /* \"lib/RLP.sol\":5495:5509  new bytes(len) */\n      0xffffffffffffffff\n      dup2\n      gt\n      dup1\n      iszero\n      tag_183\n      jumpi\n      0x00\n      dup1\n      revert\n    tag_183:\n      pop\n      mload(0x40)\n      swap1\n      dup1\n      dup3\n      mstore\n      dup1\n      0x1f\n      add\n      not(0x1f)\n      and\n      0x20\n      add\n      dup3\n      add\n      0x40\n      mstore\n      dup1\n      iszero\n      tag_184\n      jumpi\n      dup2\n      0x20\n      add\n      0x01\n      dup3\n      mul\n      dup1\n      calldatasize\n      dup4\n      calldatacopy\n      dup1\n      dup3\n      add\n      swap2\n      pop\n      pop\n      swap1\n      pop\n    tag_184:\n      pop\n        /* \"lib/RLP.sol\":5473:5509  bytes memory result = new bytes(len) */\n      swap1\n      pop\n        /* \"lib/RLP.sol\":5514:5529  uint256 destPtr */\n      0x00\n        /* \"lib/RLP.sol\":5568:5574  result */\n      dup2\n        /* \"lib/RLP.sol\":5562:5566  0x20 */\n      0x20\n        /* \"lib/RLP.sol\":5558:5575  add(0x20, result) */\n      add\n        /* \"lib/RLP.sol\":5547:5575  destPtr := add(0x20, result) */\n      swap1\n      pop\n        /* \"lib/RLP.sol\":5583:5623  copy(item.memPtr + offset, destPtr, len) */\n      tag_185\n        /* \"lib/RLP.sol\":5602:5608  offset */\n      dup5\n        /* \"lib/RLP.sol\":5588:5592  item */\n      dup8\n        /* \"lib/RLP.sol\":5588:5599  item.memPtr */\n      0x20\n      add\n      mload\n        /* \"lib/RLP.sol\":5588:5608  item.memPtr + offset */\n      add\n        /* \"lib/RLP.sol\":5610:5617  destPtr */\n      dup3\n        /* \"lib/RLP.sol\":5619:5622  len */\n      dup6\n        /* \"lib/RLP.sol\":5583:5587  copy */\n      tag_179\n        /* \"lib/RLP.sol\":5583:5623  copy(item.memPtr + offset, destPtr, len) */\n      jump\t// in\n    tag_185:\n        /* \"lib/RLP.sol\":5634:5640  result */\n      dup2\n        /* \"lib/RLP.sol\":5627:5640  return result */\n      swap5\n      pop\n      pop\n      pop\n      pop\n      pop\n        /* \"lib/RLP.sol\":5246:5644  function toBytes(RLPItem memory item) internal pure returns (bytes memory) {... */\n      swap2\n      swap1\n      pop\n      jump\t// out\n        /* \"lib/ECVerify.sol\":1145:2326  function ecrecovery(bytes32 hash, bytes memory sig) internal returns (bool, address) {... */\n    tag_131:\n        /* \"lib/ECVerify.sol\":1215:1219  bool */\n      0x00\n        /* \"lib/ECVerify.sol\":1221:1228  address */\n      dup1\n        /* \"lib/ECVerify.sol\":1234:1243  bytes32 r */\n      0x00\n        /* \"lib/ECVerify.sol\":1247:1256  bytes32 s */\n      dup1\n        /* \"lib/ECVerify.sol\":1260:1267  uint8 v */\n      0x00\n        /* \"lib/ECVerify.sol\":1290:1292  65 */\n      0x41\n        /* \"lib/ECVerify.sol\":1276:1279  sig */\n      dup7\n        /* \"lib/ECVerify.sol\":1276:1286  sig.length */\n      mload\n        /* \"lib/ECVerify.sol\":1276:1292  sig.length != 65 */\n      eq\n        /* \"lib/ECVerify.sol\":1272:1320  if (sig.length != 65) return (false, address(0)) */\n      tag_187\n      jumpi\n        /* \"lib/ECVerify.sol\":1302:1307  false */\n      0x00\n        /* \"lib/ECVerify.sol\":1317:1318  0 */\n      dup1\n        /* \"lib/ECVerify.sol\":1294:1320  return (false, address(0)) */\n      dup1\n      swap1\n      pop\n      swap5\n      pop\n      swap5\n      pop\n      pop\n      pop\n      pop\n      jump(tag_186)\n        /* \"lib/ECVerify.sol\":1272:1320  if (sig.length != 65) return (false, address(0)) */\n    tag_187:\n        /* \"lib/ECVerify.sol\":1499:1501  32 */\n      0x20\n        /* \"lib/ECVerify.sol\":1494:1497  sig */\n      dup7\n        /* \"lib/ECVerify.sol\":1490:1502  add(sig, 32) */\n      add\n        /* \"lib/ECVerify.sol\":1484:1503  mload(add(sig, 32)) */\n      mload\n        /* \"lib/ECVerify.sol\":1479:1503  r := mload(add(sig, 32)) */\n      swap3\n      pop\n        /* \"lib/ECVerify.sol\":1527:1529  64 */\n      0x40\n        /* \"lib/ECVerify.sol\":1522:1525  sig */\n      dup7\n        /* \"lib/ECVerify.sol\":1518:1530  add(sig, 64) */\n      add\n        /* \"lib/ECVerify.sol\":1512:1531  mload(add(sig, 64)) */\n      mload\n        /* \"lib/ECVerify.sol\":1507:1531  s := mload(add(sig, 64)) */\n      swap2\n      pop\n        /* \"lib/ECVerify.sol\":1749:1751  96 */\n      0x60\n        /* \"lib/ECVerify.sol\":1744:1747  sig */\n      dup7\n        /* \"lib/ECVerify.sol\":1740:1752  add(sig, 96) */\n      add\n        /* \"lib/ECVerify.sol\":1734:1753  mload(add(sig, 96)) */\n      mload\n        /* \"lib/ECVerify.sol\":1731:1732  0 */\n      0x00\n        /* \"lib/ECVerify.sol\":1726:1754  byte(0, mload(add(sig, 96))) */\n      byte\n        /* \"lib/ECVerify.sol\":1721:1754  v := byte(0, mload(add(sig, 96))) */\n      swap1\n      pop\n        /* \"lib/ECVerify.sol\":2214:2216  27 */\n      0x1b\n        /* \"lib/ECVerify.sol\":2210:2211  v */\n      dup2\n        /* \"lib/ECVerify.sol\":2210:2216  v < 27 */\n      0xff\n      and\n      lt\n        /* \"lib/ECVerify.sol\":2206:2225  if (v < 27) v += 27 */\n      iszero\n      tag_188\n      jumpi\n        /* \"lib/ECVerify.sol\":2223:2225  27 */\n      0x1b\n        /* \"lib/ECVerify.sol\":2218:2225  v += 27 */\n      dup2\n      add\n      swap1\n      pop\n        /* \"lib/ECVerify.sol\":2206:2225  if (v < 27) v += 27 */\n    tag_188:\n        /* \"lib/ECVerify.sol\":2239:2241  27 */\n      0x1b\n        /* \"lib/ECVerify.sol\":2234:2235  v */\n      dup2\n        /* \"lib/ECVerify.sol\":2234:2241  v != 27 */\n      0xff\n      and\n      eq\n      iszero\n        /* \"lib/ECVerify.sol\":2234:2252  v != 27 && v != 28 */\n      dup1\n      iszero\n      tag_189\n      jumpi\n      pop\n        /* \"lib/ECVerify.sol\":2250:2252  28 */\n      0x1c\n        /* \"lib/ECVerify.sol\":2245:2246  v */\n      dup2\n        /* \"lib/ECVerify.sol\":2245:2252  v != 28 */\n      0xff\n      and\n      eq\n      iszero\n        /* \"lib/ECVerify.sol\":2234:2252  v != 27 && v != 28 */\n    tag_189:\n        /* \"lib/ECVerify.sol\":2230:2280  if (v != 27 && v != 28) return (false, address(0)) */\n      iszero\n      tag_190\n      jumpi\n        /* \"lib/ECVerify.sol\":2262:2267  false */\n      0x00\n        /* \"lib/ECVerify.sol\":2277:2278  0 */\n      dup1\n        /* \"lib/ECVerify.sol\":2254:2280  return (false, address(0)) */\n      dup1\n      swap1\n      pop\n      swap5\n      pop\n      swap5\n      pop\n      pop\n      pop\n      pop\n      jump(tag_186)\n        /* \"lib/ECVerify.sol\":2230:2280  if (v != 27 && v != 28) return (false, address(0)) */\n    tag_190:\n        /* \"lib/ECVerify.sol\":2292:2322  safer_ecrecover(hash, v, r, s) */\n      tag_191\n        /* \"lib/ECVerify.sol\":2308:2312  hash */\n      dup8\n        /* \"lib/ECVerify.sol\":2314:2315  v */\n      dup3\n        /* \"lib/ECVerify.sol\":2317:2318  r */\n      dup6\n        /* \"lib/ECVerify.sol\":2320:2321  s */\n      dup6\n        /* \"lib/ECVerify.sol\":2292:2307  safer_ecrecover */\n      tag_192\n        /* \"lib/ECVerify.sol\":2292:2322  safer_ecrecover(hash, v, r, s) */\n      jump\t// in\n    tag_191:\n        /* \"lib/ECVerify.sol\":2285:2322  return safer_ecrecover(hash, v, r, s) */\n      swap5\n      pop\n      swap5\n      pop\n      pop\n      pop\n      pop\n        /* \"lib/ECVerify.sol\":1145:2326  function ecrecovery(bytes32 hash, bytes memory sig) internal returns (bool, address) {... */\n    tag_186:\n      swap3\n      pop\n      swap3\n      swap1\n      pop\n      jump\t// out\n        /* \"lib/SafeMath.sol\":2025:2422  function mul(uint256 a, uint256 b) internal pure returns (uint256) {... */\n    tag_135:\n        /* \"lib/SafeMath.sol\":2083:2090  uint256 */\n      0x00\n        /* \"lib/SafeMath.sol\":2305:2306  0 */\n      dup1\n        /* \"lib/SafeMath.sol\":2300:2301  a */\n      dup4\n        /* \"lib/SafeMath.sol\":2300:2306  a == 0 */\n      eq\n        /* \"lib/SafeMath.sol\":2296:2326  if (a == 0) {... */\n      iszero\n      tag_194\n      jumpi\n        /* \"lib/SafeMath.sol\":2320:2321  0 */\n      0x00\n        /* \"lib/SafeMath.sol\":2313:2321  return 0 */\n      swap1\n      pop\n      jump(tag_193)\n        /* \"lib/SafeMath.sol\":2296:2326  if (a == 0) {... */\n    tag_194:\n        /* \"lib/SafeMath.sol\":2330:2339  uint256 c */\n      0x00\n        /* \"lib/SafeMath.sol\":2346:2347  b */\n      dup3\n        /* \"lib/SafeMath.sol\":2342:2343  a */\n      dup5\n        /* \"lib/SafeMath.sol\":2342:2347  a * b */\n      mul\n        /* \"lib/SafeMath.sol\":2330:2347  uint256 c = a * b */\n      swap1\n      pop\n        /* \"lib/SafeMath.sol\":2368:2369  b */\n      dup3\n        /* \"lib/SafeMath.sol\":2363:2364  a */\n      dup5\n        /* \"lib/SafeMath.sol\":2359:2360  c */\n      dup3\n        /* \"lib/SafeMath.sol\":2359:2364  c / a */\n      dup2\n      tag_195\n      jumpi\n      invalid\n    tag_195:\n      div\n        /* \"lib/SafeMath.sol\":2359:2369  c / a == b */\n      eq\n        /* \"lib/SafeMath.sol\":2351:2405  require(c / a == b, \"SafeMath: Multiplicatn overflow\") */\n      tag_196\n      jumpi\n      mload(0x40)\n      0x08c379a000000000000000000000000000000000000000000000000000000000\n      dup2\n      mstore\n      0x04\n      add\n      dup1\n      dup1\n      0x20\n      add\n      dup3\n      dup2\n      sub\n      dup3\n      mstore\n      0x1f\n      dup2\n      mstore\n      0x20\n      add\n      dup1\n      0x536166654d6174683a204d756c7469706c696361746e206f766572666c6f7700\n      dup2\n      mstore\n      pop\n      0x20\n      add\n      swap2\n      pop\n      pop\n      mload(0x40)\n      dup1\n      swap2\n      sub\n      swap1\n      revert\n    tag_196:\n        /* \"lib/SafeMath.sol\":2417:2418  c */\n      dup1\n        /* \"lib/SafeMath.sol\":2410:2418  return c */\n      swap2\n      pop\n      pop\n        /* \"lib/SafeMath.sol\":2025:2422  function mul(uint256 a, uint256 b) internal pure returns (uint256) {... */\n    tag_193:\n      swap3\n      swap2\n      pop\n      pop\n      jump\t// out\n        /* \"lib/RLP.sol\":2844:3112  function isList(RLPItem memory item) internal pure returns (bool) {... */\n    tag_151:\n        /* \"lib/RLP.sol\":2904:2908  bool */\n      0x00\n        /* \"lib/RLP.sol\":2930:2931  0 */\n      dup1\n        /* \"lib/RLP.sol\":2918:2922  item */\n      dup3\n        /* \"lib/RLP.sol\":2918:2926  item.len */\n      0x00\n      add\n      mload\n        /* \"lib/RLP.sol\":2918:2931  item.len == 0 */\n      eq\n        /* \"lib/RLP.sol\":2914:2945  if (item.len == 0) return false */\n      iszero\n      tag_198\n      jumpi\n        /* \"lib/RLP.sol\":2940:2945  false */\n      0x00\n        /* \"lib/RLP.sol\":2933:2945  return false */\n      swap1\n      pop\n      jump(tag_197)\n        /* \"lib/RLP.sol\":2914:2945  if (item.len == 0) return false */\n    tag_198:\n        /* \"lib/RLP.sol\":2950:2961  uint8 byte0 */\n      0x00\n        /* \"lib/RLP.sol\":2965:2979  uint256 memPtr */\n      dup1\n        /* \"lib/RLP.sol\":2982:2986  item */\n      dup4\n        /* \"lib/RLP.sol\":2982:2993  item.memPtr */\n      0x20\n      add\n      mload\n        /* \"lib/RLP.sol\":2965:2993  uint256 memPtr = item.memPtr */\n      swap1\n      pop\n        /* \"lib/RLP.sol\":3034:3040  memPtr */\n      dup1\n        /* \"lib/RLP.sol\":3028:3041  mload(memPtr) */\n      mload\n        /* \"lib/RLP.sol\":3025:3026  0 */\n      0x00\n        /* \"lib/RLP.sol\":3020:3042  byte(0, mload(memPtr)) */\n      byte\n        /* \"lib/RLP.sol\":3011:3042  byte0 := byte(0, mload(memPtr)) */\n      swap2\n      pop\n        /* \"lib/RLP.sol\":291:295  0xc0 */\n      0xc0\n        /* \"lib/RLP.sol\":3054:3078  byte0 < LIST_SHORT_START */\n      0xff\n      and\n        /* \"lib/RLP.sol\":3054:3059  byte0 */\n      dup3\n        /* \"lib/RLP.sol\":3054:3078  byte0 < LIST_SHORT_START */\n      0xff\n      and\n      lt\n        /* \"lib/RLP.sol\":3050:3092  if (byte0 < LIST_SHORT_START) return false */\n      iszero\n      tag_199\n      jumpi\n        /* \"lib/RLP.sol\":3087:3092  false */\n      0x00\n        /* \"lib/RLP.sol\":3080:3092  return false */\n      swap3\n      pop\n      pop\n      pop\n      jump(tag_197)\n        /* \"lib/RLP.sol\":3050:3092  if (byte0 < LIST_SHORT_START) return false */\n    tag_199:\n        /* \"lib/RLP.sol\":3104:3108  true */\n      0x01\n        /* \"lib/RLP.sol\":3097:3108  return true */\n      swap3\n      pop\n      pop\n      pop\n        /* \"lib/RLP.sol\":2844:3112  function isList(RLPItem memory item) internal pure returns (bool) {... */\n    tag_197:\n      swap2\n      swap1\n      pop\n      jump\t// out\n        /* \"lib/RLP.sol\":6277:6638  function numItems(RLPItem memory item) private pure returns (uint256) {... */\n    tag_154:\n        /* \"lib/RLP.sol\":6338:6345  uint256 */\n      0x00\n        /* \"lib/RLP.sol\":6367:6368  0 */\n      dup1\n        /* \"lib/RLP.sol\":6355:6359  item */\n      dup3\n        /* \"lib/RLP.sol\":6355:6363  item.len */\n      0x00\n      add\n      mload\n        /* \"lib/RLP.sol\":6355:6368  item.len == 0 */\n      eq\n        /* \"lib/RLP.sol\":6351:6378  if (item.len == 0) return 0 */\n      iszero\n      tag_201\n      jumpi\n        /* \"lib/RLP.sol\":6377:6378  0 */\n      0x00\n        /* \"lib/RLP.sol\":6370:6378  return 0 */\n      swap1\n      pop\n      jump(tag_200)\n        /* \"lib/RLP.sol\":6351:6378  if (item.len == 0) return 0 */\n    tag_201:\n        /* \"lib/RLP.sol\":6383:6396  uint256 count */\n      0x00\n        /* \"lib/RLP.sol\":6399:6400  0 */\n      dup1\n        /* \"lib/RLP.sol\":6383:6400  uint256 count = 0 */\n      swap1\n      pop\n        /* \"lib/RLP.sol\":6404:6419  uint256 currPtr */\n      0x00\n        /* \"lib/RLP.sol\":6436:6463  _payloadOffset(item.memPtr) */\n      tag_202\n        /* \"lib/RLP.sol\":6451:6455  item */\n      dup5\n        /* \"lib/RLP.sol\":6451:6462  item.memPtr */\n      0x20\n      add\n      mload\n        /* \"lib/RLP.sol\":6436:6450  _payloadOffset */\n      tag_160\n        /* \"lib/RLP.sol\":6436:6463  _payloadOffset(item.memPtr) */\n      jump\t// in\n    tag_202:\n        /* \"lib/RLP.sol\":6422:6426  item */\n      dup5\n        /* \"lib/RLP.sol\":6422:6433  item.memPtr */\n      0x20\n      add\n      mload\n        /* \"lib/RLP.sol\":6422:6463  item.memPtr + _payloadOffset(item.memPtr) */\n      add\n        /* \"lib/RLP.sol\":6404:6463  uint256 currPtr = item.memPtr + _payloadOffset(item.memPtr) */\n      swap1\n      pop\n        /* \"lib/RLP.sol\":6467:6481  uint256 endPtr */\n      0x00\n        /* \"lib/RLP.sol\":6498:6502  item */\n      dup5\n        /* \"lib/RLP.sol\":6498:6506  item.len */\n      0x00\n      add\n      mload\n        /* \"lib/RLP.sol\":6484:6488  item */\n      dup6\n        /* \"lib/RLP.sol\":6484:6495  item.memPtr */\n      0x20\n      add\n      mload\n        /* \"lib/RLP.sol\":6484:6506  item.memPtr + item.len */\n      add\n        /* \"lib/RLP.sol\":6467:6506  uint256 endPtr = item.memPtr + item.len */\n      swap1\n      pop\n        /* \"lib/RLP.sol\":6510:6618  while (currPtr < endPtr) {... */\n    tag_203:\n        /* \"lib/RLP.sol\":6527:6533  endPtr */\n      dup1\n        /* \"lib/RLP.sol\":6517:6524  currPtr */\n      dup3\n        /* \"lib/RLP.sol\":6517:6533  currPtr < endPtr */\n      lt\n        /* \"lib/RLP.sol\":6510:6618  while (currPtr < endPtr) {... */\n      iszero\n      tag_204\n      jumpi\n        /* \"lib/RLP.sol\":6560:6580  _itemLength(currPtr) */\n      tag_205\n        /* \"lib/RLP.sol\":6572:6579  currPtr */\n      dup3\n        /* \"lib/RLP.sol\":6560:6571  _itemLength */\n      tag_165\n        /* \"lib/RLP.sol\":6560:6580  _itemLength(currPtr) */\n      jump\t// in\n    tag_205:\n        /* \"lib/RLP.sol\":6550:6557  currPtr */\n      dup3\n        /* \"lib/RLP.sol\":6550:6580  currPtr + _itemLength(currPtr) */\n      add\n        /* \"lib/RLP.sol\":6540:6580  currPtr = currPtr + _itemLength(currPtr) */\n      swap2\n      pop\n        /* \"lib/RLP.sol\":6606:6613  count++ */\n      dup3\n      dup1\n      0x01\n      add\n      swap4\n      pop\n      pop\n        /* \"lib/RLP.sol\":6510:6618  while (currPtr < endPtr) {... */\n      jump(tag_203)\n    tag_204:\n        /* \"lib/RLP.sol\":6629:6634  count */\n      dup3\n        /* \"lib/RLP.sol\":6622:6634  return count */\n      swap4\n      pop\n      pop\n      pop\n      pop\n        /* \"lib/RLP.sol\":6277:6638  function numItems(RLPItem memory item) private pure returns (uint256) {... */\n    tag_200:\n      swap2\n      swap1\n      pop\n      jump\t// out\n        /* \"lib/RLP.sol\":7727:8183  function _payloadOffset(uint256 memPtr) private pure returns (uint256) {... */\n    tag_160:\n        /* \"lib/RLP.sol\":7789:7796  uint256 */\n      0x00\n        /* \"lib/RLP.sol\":7802:7815  uint256 byte0 */\n      dup1\n        /* \"lib/RLP.sol\":7856:7862  memPtr */\n      dup3\n        /* \"lib/RLP.sol\":7850:7863  mload(memPtr) */\n      mload\n        /* \"lib/RLP.sol\":7847:7848  0 */\n      0x00\n        /* \"lib/RLP.sol\":7842:7864  byte(0, mload(memPtr)) */\n      byte\n        /* \"lib/RLP.sol\":7833:7864  byte0 := byte(0, mload(memPtr)) */\n      swap1\n      pop\n        /* \"lib/RLP.sol\":208:212  0x80 */\n      0x80\n        /* \"lib/RLP.sol\":7876:7902  byte0 < STRING_SHORT_START */\n      0xff\n      and\n        /* \"lib/RLP.sol\":7876:7881  byte0 */\n      dup2\n        /* \"lib/RLP.sol\":7876:7902  byte0 < STRING_SHORT_START */\n      lt\n        /* \"lib/RLP.sol\":7872:8179  if (byte0 < STRING_SHORT_START) return 0;... */\n      iszero\n      tag_207\n      jumpi\n        /* \"lib/RLP.sol\":7911:7912  0 */\n      0x00\n        /* \"lib/RLP.sol\":7904:7912  return 0 */\n      swap2\n      pop\n      pop\n      jump(tag_206)\n        /* \"lib/RLP.sol\":7872:8179  if (byte0 < STRING_SHORT_START) return 0;... */\n    tag_207:\n        /* \"lib/RLP.sol\":250:254  0xb8 */\n      0xb8\n        /* \"lib/RLP.sol\":7929:7954  byte0 < STRING_LONG_START */\n      0xff\n      and\n        /* \"lib/RLP.sol\":7929:7934  byte0 */\n      dup2\n        /* \"lib/RLP.sol\":7929:7954  byte0 < STRING_LONG_START */\n      lt\n        /* \"lib/RLP.sol\":7929:8012  byte0 < STRING_LONG_START || (byte0 >= LIST_SHORT_START && byte0 < LIST_LONG_START) */\n      dup1\n      tag_209\n      jumpi\n      pop\n        /* \"lib/RLP.sol\":291:295  0xc0 */\n      0xc0\n        /* \"lib/RLP.sol\":7959:7984  byte0 >= LIST_SHORT_START */\n      0xff\n      and\n        /* \"lib/RLP.sol\":7959:7964  byte0 */\n      dup2\n        /* \"lib/RLP.sol\":7959:7984  byte0 >= LIST_SHORT_START */\n      lt\n      iszero\n        /* \"lib/RLP.sol\":7959:8011  byte0 >= LIST_SHORT_START && byte0 < LIST_LONG_START */\n      dup1\n      iszero\n      tag_210\n      jumpi\n      pop\n        /* \"lib/RLP.sol\":331:335  0xf8 */\n      0xf8\n        /* \"lib/RLP.sol\":7988:8011  byte0 < LIST_LONG_START */\n      0xff\n      and\n        /* \"lib/RLP.sol\":7988:7993  byte0 */\n      dup2\n        /* \"lib/RLP.sol\":7988:8011  byte0 < LIST_LONG_START */\n      lt\n        /* \"lib/RLP.sol\":7959:8011  byte0 >= LIST_SHORT_START && byte0 < LIST_LONG_START */\n    tag_210:\n        /* \"lib/RLP.sol\":7929:8012  byte0 < STRING_LONG_START || (byte0 >= LIST_SHORT_START && byte0 < LIST_LONG_START) */\n    tag_209:\n        /* \"lib/RLP.sol\":7921:8179  if (... */\n      iszero\n      tag_211\n      jumpi\n        /* \"lib/RLP.sol\":8024:8025  1 */\n      0x01\n        /* \"lib/RLP.sol\":8017:8025  return 1 */\n      swap2\n      pop\n      pop\n      jump(tag_206)\n        /* \"lib/RLP.sol\":7921:8179  if (... */\n    tag_211:\n        /* \"lib/RLP.sol\":291:295  0xc0 */\n      0xc0\n        /* \"lib/RLP.sol\":8038:8062  byte0 < LIST_SHORT_START */\n      0xff\n      and\n        /* \"lib/RLP.sol\":8038:8043  byte0 */\n      dup2\n        /* \"lib/RLP.sol\":8038:8062  byte0 < LIST_SHORT_START */\n      lt\n        /* \"lib/RLP.sol\":8034:8179  if (byte0 < LIST_SHORT_START)... */\n      iszero\n      tag_213\n      jumpi\n        /* \"lib/RLP.sol\":8129:8130  1 */\n      0x01\n        /* \"lib/RLP.sol\":8124:8125  1 */\n      dup1\n        /* \"lib/RLP.sol\":250:254  0xb8 */\n      0xb8\n        /* \"lib/RLP.sol\":8104:8125  STRING_LONG_START - 1 */\n      sub\n        /* \"lib/RLP.sol\":8095:8126  byte0 - (STRING_LONG_START - 1) */\n      0xff\n      and\n        /* \"lib/RLP.sol\":8095:8100  byte0 */\n      dup3\n        /* \"lib/RLP.sol\":8095:8126  byte0 - (STRING_LONG_START - 1) */\n      sub\n        /* \"lib/RLP.sol\":8095:8130  byte0 - (STRING_LONG_START - 1) + 1 */\n      add\n        /* \"lib/RLP.sol\":8088:8130  return byte0 - (STRING_LONG_START - 1) + 1 */\n      swap2\n      pop\n      pop\n      jump(tag_206)\n        /* \"lib/RLP.sol\":8034:8179  if (byte0 < LIST_SHORT_START)... */\n    tag_213:\n        /* \"lib/RLP.sol\":8178:8179  1 */\n      0x01\n        /* \"lib/RLP.sol\":8173:8174  1 */\n      dup1\n        /* \"lib/RLP.sol\":331:335  0xf8 */\n      0xf8\n        /* \"lib/RLP.sol\":8155:8174  LIST_LONG_START - 1 */\n      sub\n        /* \"lib/RLP.sol\":8146:8175  byte0 - (LIST_LONG_START - 1) */\n      0xff\n      and\n        /* \"lib/RLP.sol\":8146:8151  byte0 */\n      dup3\n        /* \"lib/RLP.sol\":8146:8175  byte0 - (LIST_LONG_START - 1) */\n      sub\n        /* \"lib/RLP.sol\":8146:8179  byte0 - (LIST_LONG_START - 1) + 1 */\n      add\n        /* \"lib/RLP.sol\":8139:8179  return byte0 - (LIST_LONG_START - 1) + 1 */\n      swap2\n      pop\n      pop\n        /* \"lib/RLP.sol\":7727:8183  function _payloadOffset(uint256 memPtr) private pure returns (uint256) {... */\n    tag_206:\n      swap2\n      swap1\n      pop\n      jump\t// out\n        /* \"lib/RLP.sol\":6681:7681  function _itemLength(uint256 memPtr) private pure returns (uint256) {... */\n    tag_165:\n        /* \"lib/RLP.sol\":6740:6747  uint256 */\n      0x00\n        /* \"lib/RLP.sol\":6753:6768  uint256 itemLen */\n      dup1\n        /* \"lib/RLP.sol\":6772:6785  uint256 byte0 */\n      0x00\n        /* \"lib/RLP.sol\":6826:6832  memPtr */\n      dup4\n        /* \"lib/RLP.sol\":6820:6833  mload(memPtr) */\n      mload\n        /* \"lib/RLP.sol\":6817:6818  0 */\n      0x00\n        /* \"lib/RLP.sol\":6812:6834  byte(0, mload(memPtr)) */\n      byte\n        /* \"lib/RLP.sol\":6803:6834  byte0 := byte(0, mload(memPtr)) */\n      swap1\n      pop\n        /* \"lib/RLP.sol\":208:212  0x80 */\n      0x80\n        /* \"lib/RLP.sol\":6846:6872  byte0 < STRING_SHORT_START */\n      0xff\n      and\n        /* \"lib/RLP.sol\":6846:6851  byte0 */\n      dup2\n        /* \"lib/RLP.sol\":6846:6872  byte0 < STRING_SHORT_START */\n      lt\n        /* \"lib/RLP.sol\":6842:7659  if (byte0 < STRING_SHORT_START) itemLen = 1;... */\n      iszero\n      tag_216\n      jumpi\n        /* \"lib/RLP.sol\":6884:6885  1 */\n      0x01\n        /* \"lib/RLP.sol\":6874:6885  itemLen = 1 */\n      swap2\n      pop\n        /* \"lib/RLP.sol\":6842:7659  if (byte0 < STRING_SHORT_START) itemLen = 1;... */\n      jump(tag_217)\n    tag_216:\n        /* \"lib/RLP.sol\":250:254  0xb8 */\n      0xb8\n        /* \"lib/RLP.sol\":6898:6923  byte0 < STRING_LONG_START */\n      0xff\n      and\n        /* \"lib/RLP.sol\":6898:6903  byte0 */\n      dup2\n        /* \"lib/RLP.sol\":6898:6923  byte0 < STRING_LONG_START */\n      lt\n        /* \"lib/RLP.sol\":6894:7659  if (byte0 < STRING_LONG_START) itemLen = byte0 - STRING_SHORT_START + 1;... */\n      iszero\n      tag_218\n      jumpi\n        /* \"lib/RLP.sol\":6964:6965  1 */\n      0x01\n        /* \"lib/RLP.sol\":208:212  0x80 */\n      0x80\n        /* \"lib/RLP.sol\":6935:6961  byte0 - STRING_SHORT_START */\n      0xff\n      and\n        /* \"lib/RLP.sol\":6935:6940  byte0 */\n      dup3\n        /* \"lib/RLP.sol\":6935:6961  byte0 - STRING_SHORT_START */\n      sub\n        /* \"lib/RLP.sol\":6935:6965  byte0 - STRING_SHORT_START + 1 */\n      add\n        /* \"lib/RLP.sol\":6925:6965  itemLen = byte0 - STRING_SHORT_START + 1 */\n      swap2\n      pop\n        /* \"lib/RLP.sol\":6894:7659  if (byte0 < STRING_LONG_START) itemLen = byte0 - STRING_SHORT_START + 1;... */\n      jump(tag_219)\n    tag_218:\n        /* \"lib/RLP.sol\":291:295  0xc0 */\n      0xc0\n        /* \"lib/RLP.sol\":6978:7002  byte0 < LIST_SHORT_START */\n      0xff\n      and\n        /* \"lib/RLP.sol\":6978:6983  byte0 */\n      dup2\n        /* \"lib/RLP.sol\":6978:7002  byte0 < LIST_SHORT_START */\n      lt\n        /* \"lib/RLP.sol\":6974:7659  if (byte0 < LIST_SHORT_START) {... */\n      iszero\n      tag_220\n      jumpi\n        /* \"lib/RLP.sol\":7050:7054  0xb7 */\n      0xb7\n        /* \"lib/RLP.sol\":7043:7048  byte0 */\n      dup2\n        /* \"lib/RLP.sol\":7039:7055  sub(byte0, 0xb7) */\n      sub\n        /* \"lib/RLP.sol\":7117:7118  1 */\n      0x01\n        /* \"lib/RLP.sol\":7109:7115  memPtr */\n      dup6\n        /* \"lib/RLP.sol\":7105:7119  add(memPtr, 1) */\n      add\n        /* \"lib/RLP.sol\":7095:7119  memPtr := add(memPtr, 1) */\n      swap5\n      pop\n        /* \"lib/RLP.sol\":7232:7239  byteLen */\n      dup1\n        /* \"lib/RLP.sol\":7228:7230  32 */\n      0x20\n        /* \"lib/RLP.sol\":7224:7240  sub(32, byteLen) */\n      sub\n        /* \"lib/RLP.sol\":7219:7222  256 */\n      0x0100\n        /* \"lib/RLP.sol\":7215:7241  exp(256, sub(32, byteLen)) */\n      exp\n        /* \"lib/RLP.sol\":7206:7212  memPtr */\n      dup6\n        /* \"lib/RLP.sol\":7200:7213  mload(memPtr) */\n      mload\n        /* \"lib/RLP.sol\":7196:7242  div(mload(memPtr), exp(256, sub(32, byteLen))) */\n      div\n        /* \"lib/RLP.sol\":7317:7318  1 */\n      0x01\n        /* \"lib/RLP.sol\":7308:7315  byteLen */\n      dup3\n        /* \"lib/RLP.sol\":7304:7319  add(byteLen, 1) */\n      add\n        /* \"lib/RLP.sol\":7295:7302  dataLen */\n      dup2\n        /* \"lib/RLP.sol\":7291:7320  add(dataLen, add(byteLen, 1)) */\n      add\n        /* \"lib/RLP.sol\":7280:7320  itemLen := add(dataLen, add(byteLen, 1)) */\n      swap4\n      pop\n        /* \"lib/RLP.sol\":7018:7325  {... */\n      pop\n      pop\n      jump(tag_221)\n    tag_220:\n        /* \"lib/RLP.sol\":331:335  0xf8 */\n      0xf8\n        /* \"lib/RLP.sol\":7339:7362  byte0 < LIST_LONG_START */\n      0xff\n      and\n        /* \"lib/RLP.sol\":7339:7344  byte0 */\n      dup2\n        /* \"lib/RLP.sol\":7339:7362  byte0 < LIST_LONG_START */\n      lt\n        /* \"lib/RLP.sol\":7335:7659  if (byte0 < LIST_LONG_START) {... */\n      iszero\n      tag_222\n      jumpi\n        /* \"lib/RLP.sol\":7406:7407  1 */\n      0x01\n        /* \"lib/RLP.sol\":291:295  0xc0 */\n      0xc0\n        /* \"lib/RLP.sol\":7379:7403  byte0 - LIST_SHORT_START */\n      0xff\n      and\n        /* \"lib/RLP.sol\":7379:7384  byte0 */\n      dup3\n        /* \"lib/RLP.sol\":7379:7403  byte0 - LIST_SHORT_START */\n      sub\n        /* \"lib/RLP.sol\":7379:7407  byte0 - LIST_SHORT_START + 1 */\n      add\n        /* \"lib/RLP.sol\":7369:7407  itemLen = byte0 - LIST_SHORT_START + 1 */\n      swap2\n      pop\n        /* \"lib/RLP.sol\":7335:7659  if (byte0 < LIST_LONG_START) {... */\n      jump(tag_223)\n    tag_222:\n        /* \"lib/RLP.sol\":7464:7468  0xf7 */\n      0xf7\n        /* \"lib/RLP.sol\":7457:7462  byte0 */\n      dup2\n        /* \"lib/RLP.sol\":7453:7469  sub(byte0, 0xf7) */\n      sub\n        /* \"lib/RLP.sol\":7496:7497  1 */\n      0x01\n        /* \"lib/RLP.sol\":7488:7494  memPtr */\n      dup6\n        /* \"lib/RLP.sol\":7484:7498  add(memPtr, 1) */\n      add\n        /* \"lib/RLP.sol\":7474:7498  memPtr := add(memPtr, 1) */\n      swap5\n      pop\n        /* \"lib/RLP.sol\":7555:7562  byteLen */\n      dup1\n        /* \"lib/RLP.sol\":7551:7553  32 */\n      0x20\n        /* \"lib/RLP.sol\":7547:7563  sub(32, byteLen) */\n      sub\n        /* \"lib/RLP.sol\":7542:7545  256 */\n      0x0100\n        /* \"lib/RLP.sol\":7538:7564  exp(256, sub(32, byteLen)) */\n      exp\n        /* \"lib/RLP.sol\":7529:7535  memPtr */\n      dup6\n        /* \"lib/RLP.sol\":7523:7536  mload(memPtr) */\n      mload\n        /* \"lib/RLP.sol\":7519:7565  div(mload(memPtr), exp(256, sub(32, byteLen))) */\n      div\n        /* \"lib/RLP.sol\":7647:7648  1 */\n      0x01\n        /* \"lib/RLP.sol\":7638:7645  byteLen */\n      dup3\n        /* \"lib/RLP.sol\":7634:7649  add(byteLen, 1) */\n      add\n        /* \"lib/RLP.sol\":7625:7632  dataLen */\n      dup2\n        /* \"lib/RLP.sol\":7621:7650  add(dataLen, add(byteLen, 1)) */\n      add\n        /* \"lib/RLP.sol\":7610:7650  itemLen := add(dataLen, add(byteLen, 1)) */\n      swap4\n      pop\n        /* \"lib/RLP.sol\":7432:7655  {... */\n      pop\n      pop\n    tag_223:\n        /* \"lib/RLP.sol\":6974:7659  if (byte0 < LIST_SHORT_START) {... */\n    tag_221:\n        /* \"lib/RLP.sol\":6894:7659  if (byte0 < STRING_LONG_START) itemLen = byte0 - STRING_SHORT_START + 1;... */\n    tag_219:\n        /* \"lib/RLP.sol\":6842:7659  if (byte0 < STRING_SHORT_START) itemLen = 1;... */\n    tag_217:\n        /* \"lib/RLP.sol\":7670:7677  itemLen */\n      dup2\n        /* \"lib/RLP.sol\":7663:7677  return itemLen */\n      swap3\n      pop\n      pop\n      pop\n        /* \"lib/RLP.sol\":6681:7681  function _itemLength(uint256 memPtr) private pure returns (uint256) {... */\n      swap2\n      swap1\n      pop\n      jump\t// out\n        /* \"lib/RLP.sol\":8323:8913  function copy(... */\n    tag_179:\n        /* \"lib/RLP.sol\":8414:8415  0 */\n      0x00\n        /* \"lib/RLP.sol\":8407:8410  len */\n      dup2\n        /* \"lib/RLP.sol\":8407:8415  len == 0 */\n      eq\n        /* \"lib/RLP.sol\":8403:8424  if (len == 0) return; */\n      iszero\n      tag_225\n      jumpi\n        /* \"lib/RLP.sol\":8417:8424  return; */\n      jump(tag_224)\n        /* \"lib/RLP.sol\":8403:8424  if (len == 0) return; */\n    tag_225:\n        /* \"lib/RLP.sol\":8469:8609  for (; len >= WORD_SIZE; len -= WORD_SIZE) {... */\n    tag_226:\n        /* \"lib/RLP.sol\":365:367  32 */\n      0x20\n        /* \"lib/RLP.sol\":8476:8492  len >= WORD_SIZE */\n      0xff\n      and\n        /* \"lib/RLP.sol\":8476:8479  len */\n      dup2\n        /* \"lib/RLP.sol\":8476:8492  len >= WORD_SIZE */\n      lt\n        /* \"lib/RLP.sol\":8469:8609  for (; len >= WORD_SIZE; len -= WORD_SIZE) {... */\n      tag_227\n      jumpi\n        /* \"lib/RLP.sol\":8551:8554  src */\n      dup3\n        /* \"lib/RLP.sol\":8545:8555  mload(src) */\n      mload\n        /* \"lib/RLP.sol\":8539:8543  dest */\n      dup3\n        /* \"lib/RLP.sol\":8532:8556  mstore(dest, mload(src)) */\n      mstore\n        /* \"lib/RLP.sol\":365:367  32 */\n      0x20\n        /* \"lib/RLP.sol\":8566:8582  src += WORD_SIZE */\n      0xff\n      and\n      dup4\n      add\n      swap3\n      pop\n        /* \"lib/RLP.sol\":365:367  32 */\n      0x20\n        /* \"lib/RLP.sol\":8587:8604  dest += WORD_SIZE */\n      0xff\n      and\n      dup3\n      add\n      swap2\n      pop\n        /* \"lib/RLP.sol\":365:367  32 */\n      0x20\n        /* \"lib/RLP.sol\":8494:8510  len -= WORD_SIZE */\n      0xff\n      and\n      dup2\n      sub\n      swap1\n      pop\n        /* \"lib/RLP.sol\":8469:8609  for (; len >= WORD_SIZE; len -= WORD_SIZE) {... */\n      jump(tag_226)\n    tag_227:\n        /* \"lib/RLP.sol\":8687:8699  uint256 mask */\n      0x00\n        /* \"lib/RLP.sol\":8727:8728  1 */\n      0x01\n        /* \"lib/RLP.sol\":8720:8723  len */\n      dup3\n        /* \"lib/RLP.sol\":365:367  32 */\n      0x20\n        /* \"lib/RLP.sol\":8708:8723  WORD_SIZE - len */\n      0xff\n      and\n      sub\n        /* \"lib/RLP.sol\":8702:8705  256 */\n      0x0100\n        /* \"lib/RLP.sol\":8702:8724  256**(WORD_SIZE - len) */\n      exp\n        /* \"lib/RLP.sol\":8702:8728  256**(WORD_SIZE - len) - 1 */\n      sub\n        /* \"lib/RLP.sol\":8687:8728  uint256 mask = 256**(WORD_SIZE - len) - 1 */\n      swap1\n      pop\n        /* \"lib/RLP.sol\":8781:8785  mask */\n      dup1\n        /* \"lib/RLP.sol\":8777:8786  not(mask) */\n      not\n        /* \"lib/RLP.sol\":8771:8774  src */\n      dup5\n        /* \"lib/RLP.sol\":8765:8775  mload(src) */\n      mload\n        /* \"lib/RLP.sol\":8761:8787  and(mload(src), not(mask)) */\n      and\n        /* \"lib/RLP.sol\":8840:8844  mask */\n      dup2\n        /* \"lib/RLP.sol\":8833:8837  dest */\n      dup5\n        /* \"lib/RLP.sol\":8827:8838  mload(dest) */\n      mload\n        /* \"lib/RLP.sol\":8823:8845  and(mload(dest), mask) */\n      and\n        /* \"lib/RLP.sol\":8897:8904  srcpart */\n      dup2\n        /* \"lib/RLP.sol\":8887:8895  destpart */\n      dup2\n        /* \"lib/RLP.sol\":8884:8905  or(destpart, srcpart) */\n      or\n        /* \"lib/RLP.sol\":8878:8882  dest */\n      dup6\n        /* \"lib/RLP.sol\":8871:8906  mstore(dest, or(destpart, srcpart)) */\n      mstore\n        /* \"lib/RLP.sol\":8741:8910  {... */\n      pop\n      pop\n      pop\n    tag_224:\n      pop\n      pop\n      pop\n      jump\t// out\n        /* \"lib/ECVerify.sol\":308:1142  function safer_ecrecover(... */\n    tag_192:\n        /* \"lib/ECVerify.sol\":407:411  bool */\n      0x00\n        /* \"lib/ECVerify.sol\":413:420  address */\n      dup1\n        /* \"lib/ECVerify.sol\":775:783  bool ret */\n      0x00\n        /* \"lib/ECVerify.sol\":787:799  address addr */\n      dup1\n        /* \"lib/ECVerify.sol\":836:840  0x40 */\n      0x40\n        /* \"lib/ECVerify.sol\":830:841  mload(0x40) */\n      mload\n        /* \"lib/ECVerify.sol\":858:862  hash */\n      dup9\n        /* \"lib/ECVerify.sol\":852:856  size */\n      dup2\n        /* \"lib/ECVerify.sol\":845:863  mstore(size, hash) */\n      mstore\n        /* \"lib/ECVerify.sol\":889:890  v */\n      dup8\n        /* \"lib/ECVerify.sol\":884:886  32 */\n      0x20\n        /* \"lib/ECVerify.sol\":878:882  size */\n      dup3\n        /* \"lib/ECVerify.sol\":874:887  add(size, 32) */\n      add\n        /* \"lib/ECVerify.sol\":867:891  mstore(add(size, 32), v) */\n      mstore\n        /* \"lib/ECVerify.sol\":917:918  r */\n      dup7\n        /* \"lib/ECVerify.sol\":912:914  64 */\n      0x40\n        /* \"lib/ECVerify.sol\":906:910  size */\n      dup3\n        /* \"lib/ECVerify.sol\":902:915  add(size, 64) */\n      add\n        /* \"lib/ECVerify.sol\":895:919  mstore(add(size, 64), r) */\n      mstore\n        /* \"lib/ECVerify.sol\":945:946  s */\n      dup6\n        /* \"lib/ECVerify.sol\":940:942  96 */\n      0x60\n        /* \"lib/ECVerify.sol\":934:938  size */\n      dup3\n        /* \"lib/ECVerify.sol\":930:943  add(size, 96) */\n      add\n        /* \"lib/ECVerify.sol\":923:947  mstore(add(size, 96), s) */\n      mstore\n        /* \"lib/ECVerify.sol\":1086:1088  32 */\n      0x20\n        /* \"lib/ECVerify.sol\":1080:1084  size */\n      dup2\n        /* \"lib/ECVerify.sol\":1075:1078  128 */\n      0x80\n        /* \"lib/ECVerify.sol\":1069:1073  size */\n      dup4\n        /* \"lib/ECVerify.sol\":1066:1067  0 */\n      0x00\n        /* \"lib/ECVerify.sol\":1063:1064  1 */\n      0x01\n        /* \"lib/ECVerify.sol\":1057:1061  3000 */\n      0x0bb8\n        /* \"lib/ECVerify.sol\":1052:1089  call(3000, 1, 0, size, 128, size, 32) */\n      call\n        /* \"lib/ECVerify.sol\":1045:1089  ret := call(3000, 1, 0, size, 128, size, 32) */\n      swap3\n      pop\n        /* \"lib/ECVerify.sol\":1107:1111  size */\n      dup1\n        /* \"lib/ECVerify.sol\":1101:1112  mload(size) */\n      mload\n        /* \"lib/ECVerify.sol\":1093:1112  addr := mload(size) */\n      swap2\n      pop\n        /* \"lib/ECVerify.sol\":813:1116  {... */\n      pop\n        /* \"lib/ECVerify.sol\":1128:1131  ret */\n      dup2\n        /* \"lib/ECVerify.sol\":1133:1137  addr */\n      dup2\n        /* \"lib/ECVerify.sol\":1120:1138  return (ret, addr) */\n      swap4\n      pop\n      swap4\n      pop\n      pop\n      pop\n        /* \"lib/ECVerify.sol\":308:1142  function safer_ecrecover(... */\n      swap5\n      pop\n      swap5\n      swap3\n      pop\n      pop\n      pop\n      jump\t// out\n    tag_81:\n      dup3\n      dup1\n      sload\n      dup3\n      dup3\n      sstore\n      swap1\n      0x00\n      mstore\n      keccak256(0x00, 0x20)\n      swap1\n      dup2\n      add\n      swap3\n      dup3\n      iszero\n      tag_230\n      jumpi\n      swap2\n      0x20\n      mul\n      dup3\n      add\n    tag_231:\n      dup3\n      dup2\n      gt\n      iszero\n      tag_232\n      jumpi\n      dup3\n      mload\n      dup3\n      exp(0x0100, 0x00)\n      dup2\n      sload\n      dup2\n      0xffffffffffffffffffffffffffffffffffffffff\n      mul\n      not\n      and\n      swap1\n      dup4\n      0xffffffffffffffffffffffffffffffffffffffff\n      and\n      mul\n      or\n      swap1\n      sstore\n      pop\n      swap2\n      0x20\n      add\n      swap2\n      swap1\n      0x01\n      add\n      swap1\n      jump(tag_231)\n    tag_232:\n    tag_230:\n      pop\n      swap1\n      pop\n      tag_233\n      swap2\n      swap1\n      tag_234\n      jump\t// in\n    tag_233:\n      pop\n      swap1\n      jump\t// out\n    tag_102:\n      mload(0x40)\n      dup1\n      0x80\n      add\n      0x40\n      mstore\n      dup1\n      0x00\n      dup2\n      mstore\n      0x20\n      add\n      0x00\n      dup2\n      mstore\n      0x20\n      add\n      0x00\n      dup1\n      not\n      and\n      dup2\n      mstore\n      0x20\n      add\n      0x00\n      dup1\n      not\n      and\n      dup2\n      mstore\n      pop\n      swap1\n      jump\t// out\n    tag_147:\n      mload(0x40)\n      dup1\n      0x40\n      add\n      0x40\n      mstore\n      dup1\n      0x00\n      dup2\n      mstore\n      0x20\n      add\n      0x00\n      dup2\n      mstore\n      pop\n      swap1\n      jump\t// out\n    tag_234:\n      tag_235\n      swap2\n      swap1\n    tag_236:\n      dup1\n      dup3\n      gt\n      iszero\n      tag_237\n      jumpi\n      0x00\n      dup2\n      dup2\n      0x0100\n      exp\n      dup2\n      sload\n      swap1\n      0xffffffffffffffffffffffffffffffffffffffff\n      mul\n      not\n      and\n      swap1\n      sstore\n      pop\n      0x01\n      add\n      jump(tag_236)\n    tag_237:\n      pop\n      swap1\n      jump\n    tag_235:\n      swap1\n      jump\t// out\n\n    auxdata: 0xa26469706673582212204032bb987a6f7b364387788e32b17f01d2457ca1337d9210b6bfe4bdbe5aeb6464736f6c634300060a0033\n}\n","bytecode":{"linkReferences":{},"object":"608060405230600760006101000a81548173ffffffffffffffffffffffffffffffffffffffff021916908373ffffffffffffffffffffffffffffffffffffffff16021790555034801561005157600080fd5b50336000806101000a81548173ffffffffffffffffffffffffffffffffffffffff021916908373ffffffffffffffffffffffffffffffffffffffff160217905550611ba4806100a16000396000f3fe608060405234801561001057600080fd5b50600436106100ea5760003560e01c806376f5e6da1161008c578063d42f2f3511610066578063d42f2f35146104c5578063f3513a3714610524578063facd743b14610583578063fc0c546a146105df576100ea565b806376f5e6da14610380578063974275cf1461043b578063bf49d6311461047f576100ea565b80632ceea82a116100c85780632ceea82a1461027f57806335aa2e441461029d5780634eee08901461030b57806375080de814610329576100ea565b806315c09850146100ef5780632079fb9a1461013957806324f8ecec146101a7575b600080fd5b6100f7610629565b604051808273ffffffffffffffffffffffffffffffffffffffff1673ffffffffffffffffffffffffffffffffffffffff16815260200191505060405180910390f35b6101656004803603602081101561014f57600080fd5b810190808035906020019092919050505061064f565b604051808273ffffffffffffffffffffffffffffffffffffffff1673ffffffffffffffffffffffffffffffffffffffff16815260200191505060405180910390f35b61027d600480360360408110156101bd57600080fd5b81019080803573ffffffffffffffffffffffffffffffffffffffff169060200190929190803590602001906401000000008111156101fa57600080fd5b82018360208201111561020c57600080fd5b8035906020019184602083028401116401000000008311171561022e57600080fd5b919080806020026020016040519081016040528093929190818152602001838360200280828437600081840152601f19601f82011690508083019250505050505050919291929050505061068b565b005b6102876109af565b6040518082815260200191505060405180910390f35b6102c9600480360360208110156102b357600080fd5b81019080803590602001909291905050506109bc565b604051808273ffffffffffffffffffffffffffffffffffffffff1673ffffffffffffffffffffffffffffffffffffffff16815260200191505060405180910390f35b6103136109f8565b6040518082815260200191505060405180910390f35b6103556004803603602081101561033f57600080fd5b8101908080359060200190929190505050610a68565b6040518085815260200184815260200183815260200182815260200194505050505060405180910390f35b6104396004803603602081101561039657600080fd5b81019080803590602001906401000000008111156103b357600080fd5b8201836020820111156103c557600080fd5b803590602001918460018302840111640100000000831117156103e757600080fd5b91908080601f016020809104026020016040519081016040528093929190818152602001838380828437600081840152601f19601f820116905080830192505050505050509192919290505050610aa5565b005b61047d6004803603602081101561045157600080fd5b81019080803573ffffffffffffffffffffffffffffffffffffffff16906020019092919050505061109a565b005b6104ab6004803603602081101561049557600080fd5b81019080803590602001909291905050506110de565b604051808215151515815260200191505060405180910390f35b6104cd6110fe565b6040518080602001828103825283818151815260200191508051906020019060200280838360005b838110156105105780820151818401526020810190506104f5565b505050509050019250505060405180910390f35b61052c61118c565b6040518080602001828103825283818151815260200191508051906020019060200280838360005b8381101561056f578082015181840152602081019050610554565b505050509050019250505060405180910390f35b6105c56004803603602081101561059957600080fd5b81019080803573ffffffffffffffffffffffffffffffffffffffff16906020019092919050505061121a565b604051808215151515815260200191505060405180910390f35b6105e761123a565b604051808273ffffffffffffffffffffffffffffffffffffffff1673ffffffffffffffffffffffffffffffffffffffff16815260200191505060405180910390f35b600760009054906101000a900473ffffffffffffffffffffffffffffffffffffffff1681565b6004818154811061065c57fe5b906000526020600020016000915054906101000a900473ffffffffffffffffffffffffffffffffffffffff1681565b6000809054906101000a900473ffffffffffffffffffffffffffffffffffffffff1673ffffffffffffffffffffffffffffffffffffffff163373ffffffffffffffffffffffffffffffffffffffff161461074d576040517f08c379a000000000000000000000000000000000000000000000000000000000815260040180806020018281038252601e8152602001807f504c41534d413a204f6e6c79206465706c6f7965722063616e2063616c6c000081525060200191505060405180910390fd5b600073ffffffffffffffffffffffffffffffffffffffff168273ffffffffffffffffffffffffffffffffffffffff161461088757600073ffffffffffffffffffffffffffffffffffffffff16600660009054906101000a900473ffffffffffffffffffffffffffffffffffffffff1673ffffffffffffffffffffffffffffffffffffffff1614610845576040517f08c379a000000000000000000000000000000000000000000000000000000000815260040180806020018281038252601e8152602001807f504c41534d413a20546f6b656e206164727320616c726561647920736574000081525060200191505060405180910390fd5b81600660006101000a81548173ffffffffffffffffffffffffffffffffffffffff021916908373ffffffffffffffffffffffffffffffffffffffff1602179055505b6000815111156109ab5760006003805490501461090c576040517f08c379a000000000000000000000000000000000000000000000000000000000815260040180806020018281038252601e8152602001807f504c41534d413a2056616c696461746f727320616c726561647920736574000081525060200191505060405180910390fd5b60008090505b815181101561099257600180600084848151811061092c57fe5b602002602001015173ffffffffffffffffffffffffffffffffffffffff1673ffffffffffffffffffffffffffffffffffffffff16815260200190815260200160002060006101000a81548160ff0219169083151502179055508080600101915050610912565b5080600390805190602001906109a9929190611a59565b505b5050565b6000600580549050905090565b600381815481106109c957fe5b906000526020600020016000915054906101000a900473ffffffffffffffffffffffffffffffffffffffff1681565b6000806005805490501415610a105760009050610a65565b600560016005805490500381548110610a2557fe5b90600052602060002090600402016001015460020a600560016005805490500381548110610a4f57fe5b9060005260206000209060040201600001540190505b90565b60058181548110610a7557fe5b90600052602060002090600402016000915090508060000154908060010154908060020154908060030154905084565b6060610ab8610ab383611260565b61128e565b90506060610ad982600081518110610acc57fe5b602002602001015161128e565b90506004815114610b52576040517f08c379a00000000000000000000000000000000000000000000000000000000081526004018080602001828103825260188152602001807f504c41534d413a20696e76616c69642070726f706f73616c000000000000000081525060200191505060405180910390fd5b610b5a611ae3565b6040518060800160405280610b8284600081518110610b7557fe5b60200260200101516113eb565b8152602001610ba484600181518110610b9757fe5b60200260200101516113eb565b8152602001610bc684600281518110610bb957fe5b60200260200101516114c5565b8152602001610be884600381518110610bdb57fe5b60200260200101516114c5565b8152509050610bf56109f8565b816000015114610c6d576040517f08c379a000000000000000000000000000000000000000000000000000000000815260040180806020018281038252601f8152602001807f504c41534d413a20696e76616c696420737461727420626c6f636b206e6f2e0081525060200191505060405180910390fd5b6060610c8c84600081518110610c7f57fe5b60200260200101516114da565b905060006040518060400160405280600281526020017f19970000000000000000000000000000000000000000000000000000000000008152507f6f3a1e66e989a1cf337b9dd2ce4c98a5e78763cf9f9bdaac5707038c66a4d74e836040516020018084805190602001908083835b60208310610d1e5780518252602082019150602081019050602083039250610cfb565b6001836020036101000a03801982511681845116808217855250505050505090500183815260200182805190602001908083835b60208310610d755780518252602082019150602081019050602083039250610d52565b6001836020036101000a0380198251168184511680821785525050505050509050019350505050604051602081830303815290604052805190602001209050600080600190505b8651811015610f40576060610de3888381518110610dd657fe5b6020026020010151611567565b9050600080610df28684611673565b9150915081610e69576040517f08c379a00000000000000000000000000000000000000000000000000000000081526004018080602001828103825260208152602001807f504c41534d413a2065637265636f7665722073686f756c64207375636365737381525060200191505060405180910390fd5b600160008273ffffffffffffffffffffffffffffffffffffffff1673ffffffffffffffffffffffffffffffffffffffff16815260200190815260200160002060009054906101000a900460ff16610f28576040517f08c379a000000000000000000000000000000000000000000000000000000000815260040180806020018281038252601d8152602001807f504c41534d413a20696e76616c69642076616c696461746f722073696700000081525060200191505060405180910390fd5b84806001019550505050508080600101915050610dbc565b50610f5a600260038054905061170b90919063ffffffff16565b610f6e60038361170b90919063ffffffff16565b11610fe1576040517f08c379a000000000000000000000000000000000000000000000000000000000815260040180806020018281038252601a8152602001807f504c41534d413a206e6f74203636252076616c696461746f727300000000000081525060200191505060405180910390fd5b6000600580549050905060058590806001815401808255809150506001900390600052602060002090600402016000909190919091506000820151816000015560208201518160010155604082015181600201556060820151816003015550507f435520ea9b14c682112acef5bc8466234d75b18dce73c44a78d905139def419d856000015186602001518360405180848152602001838152602001828152602001935050505060405180910390a15050505050505050565b80600760006101000a81548173ffffffffffffffffffffffffffffffffffffffff021916908373ffffffffffffffffffffffffffffffffffffffff16021790555050565b60026020528060005260406000206000915054906101000a900460ff1681565b6060600480548060200260200160405190810160405280929190818152602001828054801561118257602002820191906000526020600020905b8160009054906101000a900473ffffffffffffffffffffffffffffffffffffffff1673ffffffffffffffffffffffffffffffffffffffff1681526020019060010190808311611138575b5050505050905090565b6060600380548060200260200160405190810160405280929190818152602001828054801561121057602002820191906000526020600020905b8160009054906101000a900473ffffffffffffffffffffffffffffffffffffffff1673ffffffffffffffffffffffffffffffffffffffff16815260200190600101908083116111c6575b5050505050905090565b60016020528060005260406000206000915054906101000a900460ff1681565b600660009054906101000a900473ffffffffffffffffffffffffffffffffffffffff1681565b611268611b11565b600060208301905060405180604001604052808451815260200182815250915050919050565b6060611299826117ae565b61130b576040517f08c379a00000000000000000000000000000000000000000000000000000000081526004018080602001828103825260158152602001807f524c503a206974656d206973206e6f74206c697374000000000000000000000081525060200191505060405180910390fd5b6000611316836117fc565b905060608167ffffffffffffffff8111801561133157600080fd5b5060405190808252806020026020018201604052801561136b57816020015b611358611b11565b8152602001906001900390816113505790505b509050600061137d856020015161186d565b8560200151019050600080600090505b848110156113de5761139e836118f6565b91506040518060400160405280838152602001848152508482815181106113c157fe5b60200260200101819052508183019250808060010191505061138d565b5082945050505050919050565b600080826000015111801561140557506021826000015111155b611477576040517f08c379a000000000000000000000000000000000000000000000000000000000815260040180806020018281038252601d8152602001807f524c503a206c656e206e6f74206265747765656e203020616e6420333300000081525060200191505060405180910390fd5b6000611486836020015161186d565b905060008184600001510390506000808386602001510190508051915060208310156114b957826020036101000a820491505b81945050505050919050565b60006114d0826113eb565b60001b9050919050565b606080826000015167ffffffffffffffff811180156114f857600080fd5b506040519080825280601f01601f19166020018201604052801561152b5781602001600182028036833780820191505090505b5090506000815114156115415780915050611562565b600081602001905061155c84602001518286600001516119ae565b81925050505b919050565b606060008260000151116115e3576040517f08c379a00000000000000000000000000000000000000000000000000000000081526004018080602001828103825260148152602001807f524c503a206c656e206973206e6f74206774203000000000000000000000000081525060200191505060405180910390fd5b60006115f2836020015161186d565b9050600081846000015103905060608167ffffffffffffffff8111801561161857600080fd5b506040519080825280601f01601f19166020018201604052801561164b5781602001600182028036833780820191505090505b50905060008160200190506116678487602001510182856119ae565b81945050505050919050565b600080600080600060418651146116965760008080905094509450505050611704565b6020860151925060408601519150606086015160001a9050601b8160ff1610156116c157601b810190505b601b8160ff16141580156116d95750601c8160ff1614155b156116f05760008080905094509450505050611704565b6116fc87828585611a15565b945094505050505b9250929050565b60008083141561171e57600090506117a8565b600082840290508284828161172f57fe5b04146117a3576040517f08c379a000000000000000000000000000000000000000000000000000000000815260040180806020018281038252601f8152602001807f536166654d6174683a204d756c7469706c696361746e206f766572666c6f770081525060200191505060405180910390fd5b809150505b92915050565b600080826000015114156117c557600090506117f7565b60008083602001519050805160001a915060c060ff168260ff1610156117f0576000925050506117f7565b6001925050505b919050565b600080826000015114156118135760009050611868565b60008090506000611827846020015161186d565b84602001510190506000846000015185602001510190505b8082101561186157611850826118f6565b82019150828060010193505061183f565b8293505050505b919050565b600080825160001a9050608060ff1681101561188d5760009150506118f1565b60b860ff168110806118b2575060c060ff1681101580156118b1575060f860ff1681105b5b156118c15760019150506118f1565b60c060ff168110156118e15760018060b80360ff168203019150506118f1565b60018060f80360ff168203019150505b919050565b6000806000835160001a9050608060ff1681101561191757600191506119a4565b60b860ff16811015611934576001608060ff1682030191506119a3565b60c060ff168110156119645760b78103600185019450806020036101000a855104600182018101935050506119a2565b60f860ff1681101561198157600160c060ff1682030191506119a1565b60f78103600185019450806020036101000a855104600182018101935050505b5b5b5b8192505050919050565b60008114156119bc57611a10565b5b602060ff1681106119ec5782518252602060ff1683019250602060ff1682019150602060ff16810390506119bd565b6000600182602060ff16036101000a03905080198451168184511681811785525050505b505050565b60008060008060405188815287602082015286604082015285606082015260208160808360006001610bb8f192508051915050818193509350505094509492505050565b828054828255906000526020600020908101928215611ad2579160200282015b82811115611ad15782518260006101000a81548173ffffffffffffffffffffffffffffffffffffffff021916908373ffffffffffffffffffffffffffffffffffffffff16021790555091602001919060010190611a79565b5b509050611adf9190611b2b565b5090565b6040518060800160405280600081526020016000815260200160008019168152602001600080191681525090565b604051806040016040528060008152602001600081525090565b611b6b91905b80821115611b6757600081816101000a81549073ffffffffffffffffffffffffffffffffffffffff021916905550600101611b31565b5090565b9056fea26469706673582212204032bb987a6f7b364387788e32b17f01d2457ca1337d9210b6bfe4bdbe5aeb6464736f6c634300060a0033","opcodes":"PUSH1 0x80 PUSH1 0x40 MSTORE ADDRESS PUSH1 0x7 PUSH1 0x0 PUSH2 0x100 EXP DUP2 SLOAD DUP2 PUSH20 0xFFFFFFFFFFFFFFFFFFFFFFFFFFFFFFFFFFFFFFFF MUL NOT AND SWAP1 DUP4 PUSH20 0xFFFFFFFFFFFFFFFFFFFFFFFFFFFFFFFFFFFFFFFF AND MUL OR SWAP1 SSTORE POP CALLVALUE DUP1 ISZERO PUSH2 0x51 JUMPI PUSH1 0x0 DUP1 REVERT JUMPDEST POP CALLER PUSH1 0x0 DUP1 PUSH2 0x100 EXP DUP2 SLOAD DUP2 PUSH20 0xFFFFFFFFFFFFFFFFFFFFFFFFFFFFFFFFFFFFFFFF MUL NOT AND SWAP1 DUP4 PUSH20 0xFFFFFFFFFFFFFFFFFFFFFFFFFFFFFFFFFFFFFFFF AND MUL OR SWAP1 SSTORE POP PUSH2 0x1BA4 DUP1 PUSH2 0xA1 PUSH1 0x0 CODECOPY PUSH1 0x0 RETURN INVALID PUSH1 0x80 PUSH1 0x40 MSTORE CALLVALUE DUP1 ISZERO PUSH2 0x10 JUMPI PUSH1 0x0 DUP1 REVERT JUMPDEST POP PUSH1 0x4 CALLDATASIZE LT PUSH2 0xEA JUMPI PUSH1 0x0 CALLDATALOAD PUSH1 0xE0 SHR DUP1 PUSH4 0x76F5E6DA GT PUSH2 0x8C JUMPI DUP1 PUSH4 0xD42F2F35 GT PUSH2 0x66 JUMPI DUP1 PUSH4 0xD42F2F35 EQ PUSH2 0x4C5 JUMPI DUP1 PUSH4 0xF3513A37 EQ PUSH2 0x524 JUMPI DUP1 PUSH4 0xFACD743B EQ PUSH2 0x583 JUMPI DUP1 PUSH4 0xFC0C546A EQ PUSH2 0x5DF JUMPI PUSH2 0xEA JUMP JUMPDEST DUP1 PUSH4 0x76F5E6DA EQ PUSH2 0x380 JUMPI DUP1 PUSH4 0x974275CF EQ PUSH2 0x43B JUMPI DUP1 PUSH4 0xBF49D631 EQ PUSH2 0x47F JUMPI PUSH2 0xEA JUMP JUMPDEST DUP1 PUSH4 0x2CEEA82A GT PUSH2 0xC8 JUMPI DUP1 PUSH4 0x2CEEA82A EQ PUSH2 0x27F JUMPI DUP1 PUSH4 0x35AA2E44 EQ PUSH2 0x29D JUMPI DUP1 PUSH4 0x4EEE0890 EQ PUSH2 0x30B JUMPI DUP1 PUSH4 0x75080DE8 EQ PUSH2 0x329 JUMPI PUSH2 0xEA JUMP JUMPDEST DUP1 PUSH4 0x15C09850 EQ PUSH2 0xEF JUMPI DUP1 PUSH4 0x2079FB9A EQ PUSH2 0x139 JUMPI DUP1 PUSH4 0x24F8ECEC EQ PUSH2 0x1A7 JUMPI JUMPDEST PUSH1 0x0 DUP1 REVERT JUMPDEST PUSH2 0xF7 PUSH2 0x629 JUMP JUMPDEST PUSH1 0x40 MLOAD DUP1 DUP3 PUSH20 0xFFFFFFFFFFFFFFFFFFFFFFFFFFFFFFFFFFFFFFFF AND PUSH20 0xFFFFFFFFFFFFFFFFFFFFFFFFFFFFFFFFFFFFFFFF AND DUP2 MSTORE PUSH1 0x20 ADD SWAP2 POP POP PUSH1 0x40 MLOAD DUP1 SWAP2 SUB SWAP1 RETURN JUMPDEST PUSH2 0x165 PUSH1 0x4 DUP1 CALLDATASIZE SUB PUSH1 0x20 DUP2 LT ISZERO PUSH2 0x14F JUMPI PUSH1 0x0 DUP1 REVERT JUMPDEST DUP2 ADD SWAP1 DUP1 DUP1 CALLDATALOAD SWAP1 PUSH1 0x20 ADD SWAP1 SWAP3 SWAP2 SWAP1 POP POP POP PUSH2 0x64F JUMP JUMPDEST PUSH1 0x40 MLOAD DUP1 DUP3 PUSH20 0xFFFFFFFFFFFFFFFFFFFFFFFFFFFFFFFFFFFFFFFF AND PUSH20 0xFFFFFFFFFFFFFFFFFFFFFFFFFFFFFFFFFFFFFFFF AND DUP2 MSTORE PUSH1 0x20 ADD SWAP2 POP POP PUSH1 0x40 MLOAD DUP1 SWAP2 SUB SWAP1 RETURN JUMPDEST PUSH2 0x27D PUSH1 0x4 DUP1 CALLDATASIZE SUB PUSH1 0x40 DUP2 LT ISZERO PUSH2 0x1BD JUMPI PUSH1 0x0 DUP1 REVERT JUMPDEST DUP2 ADD SWAP1 DUP1 DUP1 CALLDATALOAD PUSH20 0xFFFFFFFFFFFFFFFFFFFFFFFFFFFFFFFFFFFFFFFF AND SWAP1 PUSH1 0x20 ADD SWAP1 SWAP3 SWAP2 SWAP1 DUP1 CALLDATALOAD SWAP1 PUSH1 0x20 ADD SWAP1 PUSH5 0x100000000 DUP2 GT ISZERO PUSH2 0x1FA JUMPI PUSH1 0x0 DUP1 REVERT JUMPDEST DUP3 ADD DUP4 PUSH1 0x20 DUP3 ADD GT ISZERO PUSH2 0x20C JUMPI PUSH1 0x0 DUP1 REVERT JUMPDEST DUP1 CALLDATALOAD SWAP1 PUSH1 0x20 ADD SWAP2 DUP5 PUSH1 0x20 DUP4 MUL DUP5 ADD GT PUSH5 0x100000000 DUP4 GT OR ISZERO PUSH2 0x22E JUMPI PUSH1 0x0 DUP1 REVERT JUMPDEST SWAP2 SWAP1 DUP1 DUP1 PUSH1 0x20 MUL PUSH1 0x20 ADD PUSH1 0x40 MLOAD SWAP1 DUP2 ADD PUSH1 0x40 MSTORE DUP1 SWAP4 SWAP3 SWAP2 SWAP1 DUP2 DUP2 MSTORE PUSH1 0x20 ADD DUP4 DUP4 PUSH1 0x20 MUL DUP1 DUP3 DUP5 CALLDATACOPY PUSH1 0x0 DUP2 DUP5 ADD MSTORE PUSH1 0x1F NOT PUSH1 0x1F DUP3 ADD AND SWAP1 POP DUP1 DUP4 ADD SWAP3 POP POP POP POP POP POP POP SWAP2 SWAP3 SWAP2 SWAP3 SWAP1 POP POP POP PUSH2 0x68B JUMP JUMPDEST STOP JUMPDEST PUSH2 0x287 PUSH2 0x9AF JUMP JUMPDEST PUSH1 0x40 MLOAD DUP1 DUP3 DUP2 MSTORE PUSH1 0x20 ADD SWAP2 POP POP PUSH1 0x40 MLOAD DUP1 SWAP2 SUB SWAP1 RETURN JUMPDEST PUSH2 0x2C9 PUSH1 0x4 DUP1 CALLDATASIZE SUB PUSH1 0x20 DUP2 LT ISZERO PUSH2 0x2B3 JUMPI PUSH1 0x0 DUP1 REVERT JUMPDEST DUP2 ADD SWAP1 DUP1 DUP1 CALLDATALOAD SWAP1 PUSH1 0x20 ADD SWAP1 SWAP3 SWAP2 SWAP1 POP POP POP PUSH2 0x9BC JUMP JUMPDEST PUSH1 0x40 MLOAD DUP1 DUP3 PUSH20 0xFFFFFFFFFFFFFFFFFFFFFFFFFFFFFFFFFFFFFFFF AND PUSH20 0xFFFFFFFFFFFFFFFFFFFFFFFFFFFFFFFFFFFFFFFF AND DUP2 MSTORE PUSH1 0x20 ADD SWAP2 POP POP PUSH1 0x40 MLOAD DUP1 SWAP2 SUB SWAP1 RETURN JUMPDEST PUSH2 0x313 PUSH2 0x9F8 JUMP JUMPDEST PUSH1 0x40 MLOAD DUP1 DUP3 DUP2 MSTORE PUSH1 0x20 ADD SWAP2 POP POP PUSH1 0x40 MLOAD DUP1 SWAP2 SUB SWAP1 RETURN JUMPDEST PUSH2 0x355 PUSH1 0x4 DUP1 CALLDATASIZE SUB PUSH1 0x20 DUP2 LT ISZERO PUSH2 0x33F JUMPI PUSH1 0x0 DUP1 REVERT JUMPDEST DUP2 ADD SWAP1 DUP1 DUP1 CALLDATALOAD SWAP1 PUSH1 0x20 ADD SWAP1 SWAP3 SWAP2 SWAP1 POP POP POP PUSH2 0xA68 JUMP JUMPDEST PUSH1 0x40 MLOAD DUP1 DUP6 DUP2 MSTORE PUSH1 0x20 ADD DUP5 DUP2 MSTORE PUSH1 0x20 ADD DUP4 DUP2 MSTORE PUSH1 0x20 ADD DUP3 DUP2 MSTORE PUSH1 0x20 ADD SWAP5 POP POP POP POP POP PUSH1 0x40 MLOAD DUP1 SWAP2 SUB SWAP1 RETURN JUMPDEST PUSH2 0x439 PUSH1 0x4 DUP1 CALLDATASIZE SUB PUSH1 0x20 DUP2 LT ISZERO PUSH2 0x396 JUMPI PUSH1 0x0 DUP1 REVERT JUMPDEST DUP2 ADD SWAP1 DUP1 DUP1 CALLDATALOAD SWAP1 PUSH1 0x20 ADD SWAP1 PUSH5 0x100000000 DUP2 GT ISZERO PUSH2 0x3B3 JUMPI PUSH1 0x0 DUP1 REVERT JUMPDEST DUP3 ADD DUP4 PUSH1 0x20 DUP3 ADD GT ISZERO PUSH2 0x3C5 JUMPI PUSH1 0x0 DUP1 REVERT JUMPDEST DUP1 CALLDATALOAD SWAP1 PUSH1 0x20 ADD SWAP2 DUP5 PUSH1 0x1 DUP4 MUL DUP5 ADD GT PUSH5 0x100000000 DUP4 GT OR ISZERO PUSH2 0x3E7 JUMPI PUSH1 0x0 DUP1 REVERT JUMPDEST SWAP2 SWAP1 DUP1 DUP1 PUSH1 0x1F ADD PUSH1 0x20 DUP1 SWAP2 DIV MUL PUSH1 0x20 ADD PUSH1 0x40 MLOAD SWAP1 DUP2 ADD PUSH1 0x40 MSTORE DUP1 SWAP4 SWAP3 SWAP2 SWAP1 DUP2 DUP2 MSTORE PUSH1 0x20 ADD DUP4 DUP4 DUP1 DUP3 DUP5 CALLDATACOPY PUSH1 0x0 DUP2 DUP5 ADD MSTORE PUSH1 0x1F NOT PUSH1 0x1F DUP3 ADD AND SWAP1 POP DUP1 DUP4 ADD SWAP3 POP POP POP POP POP POP POP SWAP2 SWAP3 SWAP2 SWAP3 SWAP1 POP POP POP PUSH2 0xAA5 JUMP JUMPDEST STOP JUMPDEST PUSH2 0x47D PUSH1 0x4 DUP1 CALLDATASIZE SUB PUSH1 0x20 DUP2 LT ISZERO PUSH2 0x451 JUMPI PUSH1 0x0 DUP1 REVERT JUMPDEST DUP2 ADD SWAP1 DUP1 DUP1 CALLDATALOAD PUSH20 0xFFFFFFFFFFFFFFFFFFFFFFFFFFFFFFFFFFFFFFFF AND SWAP1 PUSH1 0x20 ADD SWAP1 SWAP3 SWAP2 SWAP1 POP POP POP PUSH2 0x109A JUMP JUMPDEST STOP JUMPDEST PUSH2 0x4AB PUSH1 0x4 DUP1 CALLDATASIZE SUB PUSH1 0x20 DUP2 LT ISZERO PUSH2 0x495 JUMPI PUSH1 0x0 DUP1 REVERT JUMPDEST DUP2 ADD SWAP1 DUP1 DUP1 CALLDATALOAD SWAP1 PUSH1 0x20 ADD SWAP1 SWAP3 SWAP2 SWAP1 POP POP POP PUSH2 0x10DE JUMP JUMPDEST PUSH1 0x40 MLOAD DUP1 DUP3 ISZERO ISZERO ISZERO ISZERO DUP2 MSTORE PUSH1 0x20 ADD SWAP2 POP POP PUSH1 0x40 MLOAD DUP1 SWAP2 SUB SWAP1 RETURN JUMPDEST PUSH2 0x4CD PUSH2 0x10FE JUMP JUMPDEST PUSH1 0x40 MLOAD DUP1 DUP1 PUSH1 0x20 ADD DUP3 DUP2 SUB DUP3 MSTORE DUP4 DUP2 DUP2 MLOAD DUP2 MSTORE PUSH1 0x20 ADD SWAP2 POP DUP1 MLOAD SWAP1 PUSH1 0x20 ADD SWAP1 PUSH1 0x20 MUL DUP1 DUP4 DUP4 PUSH1 0x0 JUMPDEST DUP4 DUP2 LT ISZERO PUSH2 0x510 JUMPI DUP1 DUP3 ADD MLOAD DUP2 DUP5 ADD MSTORE PUSH1 0x20 DUP2 ADD SWAP1 POP PUSH2 0x4F5 JUMP JUMPDEST POP POP POP POP SWAP1 POP ADD SWAP3 POP POP POP PUSH1 0x40 MLOAD DUP1 SWAP2 SUB SWAP1 RETURN JUMPDEST PUSH2 0x52C PUSH2 0x118C JUMP JUMPDEST PUSH1 0x40 MLOAD DUP1 DUP1 PUSH1 0x20 ADD DUP3 DUP2 SUB DUP3 MSTORE DUP4 DUP2 DUP2 MLOAD DUP2 MSTORE PUSH1 0x20 ADD SWAP2 POP DUP1 MLOAD SWAP1 PUSH1 0x20 ADD SWAP1 PUSH1 0x20 MUL DUP1 DUP4 DUP4 PUSH1 0x0 JUMPDEST DUP4 DUP2 LT ISZERO PUSH2 0x56F JUMPI DUP1 DUP3 ADD MLOAD DUP2 DUP5 ADD MSTORE PUSH1 0x20 DUP2 ADD SWAP1 POP PUSH2 0x554 JUMP JUMPDEST POP POP POP POP SWAP1 POP ADD SWAP3 POP POP POP PUSH1 0x40 MLOAD DUP1 SWAP2 SUB SWAP1 RETURN JUMPDEST PUSH2 0x5C5 PUSH1 0x4 DUP1 CALLDATASIZE SUB PUSH1 0x20 DUP2 LT ISZERO PUSH2 0x599 JUMPI PUSH1 0x0 DUP1 REVERT JUMPDEST DUP2 ADD SWAP1 DUP1 DUP1 CALLDATALOAD PUSH20 0xFFFFFFFFFFFFFFFFFFFFFFFFFFFFFFFFFFFFFFFF AND SWAP1 PUSH1 0x20 ADD SWAP1 SWAP3 SWAP2 SWAP1 POP POP POP PUSH2 0x121A JUMP JUMPDEST PUSH1 0x40 MLOAD DUP1 DUP3 ISZERO ISZERO ISZERO ISZERO DUP2 MSTORE PUSH1 0x20 ADD SWAP2 POP POP PUSH1 0x40 MLOAD DUP1 SWAP2 SUB SWAP1 RETURN JUMPDEST PUSH2 0x5E7 PUSH2 0x123A JUMP JUMPDEST PUSH1 0x40 MLOAD DUP1 DUP3 PUSH20 0xFFFFFFFFFFFFFFFFFFFFFFFFFFFFFFFFFFFFFFFF AND PUSH20 0xFFFFFFFFFFFFFFFFFFFFFFFFFFFFFFFFFFFFFFFF AND DUP2 MSTORE PUSH1 0x20 ADD SWAP2 POP POP PUSH1 0x40 MLOAD DUP1 SWAP2 SUB SWAP1 RETURN JUMPDEST PUSH1 0x7 PUSH1 0x0 SWAP1 SLOAD SWAP1 PUSH2 0x100 EXP SWAP1 DIV PUSH20 0xFFFFFFFFFFFFFFFFFFFFFFFFFFFFFFFFFFFFFFFF AND DUP2 JUMP JUMPDEST PUSH1 0x4 DUP2 DUP2 SLOAD DUP2 LT PUSH2 0x65C JUMPI INVALID JUMPDEST SWAP1 PUSH1 0x0 MSTORE PUSH1 0x20 PUSH1 0x0 KECCAK256 ADD PUSH1 0x0 SWAP2 POP SLOAD SWAP1 PUSH2 0x100 EXP SWAP1 DIV PUSH20 0xFFFFFFFFFFFFFFFFFFFFFFFFFFFFFFFFFFFFFFFF AND DUP2 JUMP JUMPDEST PUSH1 0x0 DUP1 SWAP1 SLOAD SWAP1 PUSH2 0x100 EXP SWAP1 DIV PUSH20 0xFFFFFFFFFFFFFFFFFFFFFFFFFFFFFFFFFFFFFFFF AND PUSH20 0xFFFFFFFFFFFFFFFFFFFFFFFFFFFFFFFFFFFFFFFF AND CALLER PUSH20 0xFFFFFFFFFFFFFFFFFFFFFFFFFFFFFFFFFFFFFFFF AND EQ PUSH2 0x74D JUMPI PUSH1 0x40 MLOAD PUSH32 0x8C379A000000000000000000000000000000000000000000000000000000000 DUP2 MSTORE PUSH1 0x4 ADD DUP1 DUP1 PUSH1 0x20 ADD DUP3 DUP2 SUB DUP3 MSTORE PUSH1 0x1E DUP2 MSTORE PUSH1 0x20 ADD DUP1 PUSH32 0x504C41534D413A204F6E6C79206465706C6F7965722063616E2063616C6C0000 DUP2 MSTORE POP PUSH1 0x20 ADD SWAP2 POP POP PUSH1 0x40 MLOAD DUP1 SWAP2 SUB SWAP1 REVERT JUMPDEST PUSH1 0x0 PUSH20 0xFFFFFFFFFFFFFFFFFFFFFFFFFFFFFFFFFFFFFFFF AND DUP3 PUSH20 0xFFFFFFFFFFFFFFFFFFFFFFFFFFFFFFFFFFFFFFFF AND EQ PUSH2 0x887 JUMPI PUSH1 0x0 PUSH20 0xFFFFFFFFFFFFFFFFFFFFFFFFFFFFFFFFFFFFFFFF AND PUSH1 0x6 PUSH1 0x0 SWAP1 SLOAD SWAP1 PUSH2 0x100 EXP SWAP1 DIV PUSH20 0xFFFFFFFFFFFFFFFFFFFFFFFFFFFFFFFFFFFFFFFF AND PUSH20 0xFFFFFFFFFFFFFFFFFFFFFFFFFFFFFFFFFFFFFFFF AND EQ PUSH2 0x845 JUMPI PUSH1 0x40 MLOAD PUSH32 0x8C379A000000000000000000000000000000000000000000000000000000000 DUP2 MSTORE PUSH1 0x4 ADD DUP1 DUP1 PUSH1 0x20 ADD DUP3 DUP2 SUB DUP3 MSTORE PUSH1 0x1E DUP2 MSTORE PUSH1 0x20 ADD DUP1 PUSH32 0x504C41534D413A20546F6B656E206164727320616C7265616479207365740000 DUP2 MSTORE POP PUSH1 0x20 ADD SWAP2 POP POP PUSH1 0x40 MLOAD DUP1 SWAP2 SUB SWAP1 REVERT JUMPDEST DUP2 PUSH1 0x6 PUSH1 0x0 PUSH2 0x100 EXP DUP2 SLOAD DUP2 PUSH20 0xFFFFFFFFFFFFFFFFFFFFFFFFFFFFFFFFFFFFFFFF MUL NOT AND SWAP1 DUP4 PUSH20 0xFFFFFFFFFFFFFFFFFFFFFFFFFFFFFFFFFFFFFFFF AND MUL OR SWAP1 SSTORE POP JUMPDEST PUSH1 0x0 DUP2 MLOAD GT ISZERO PUSH2 0x9AB JUMPI PUSH1 0x0 PUSH1 0x3 DUP1 SLOAD SWAP1 POP EQ PUSH2 0x90C JUMPI PUSH1 0x40 MLOAD PUSH32 0x8C379A000000000000000000000000000000000000000000000000000000000 DUP2 MSTORE PUSH1 0x4 ADD DUP1 DUP1 PUSH1 0x20 ADD DUP3 DUP2 SUB DUP3 MSTORE PUSH1 0x1E DUP2 MSTORE PUSH1 0x20 ADD DUP1 PUSH32 0x504C41534D413A2056616C696461746F727320616C7265616479207365740000 DUP2 MSTORE POP PUSH1 0x20 ADD SWAP2 POP POP PUSH1 0x40 MLOAD DUP1 SWAP2 SUB SWAP1 REVERT JUMPDEST PUSH1 0x0 DUP1 SWAP1 POP JUMPDEST DUP2 MLOAD DUP2 LT ISZERO PUSH2 0x992 JUMPI PUSH1 0x1 DUP1 PUSH1 0x0 DUP5 DUP5 DUP2 MLOAD DUP2 LT PUSH2 0x92C JUMPI INVALID JUMPDEST PUSH1 0x20 MUL PUSH1 0x20 ADD ADD MLOAD PUSH20 0xFFFFFFFFFFFFFFFFFFFFFFFFFFFFFFFFFFFFFFFF AND PUSH20 0xFFFFFFFFFFFFFFFFFFFFFFFFFFFFFFFFFFFFFFFF AND DUP2 MSTORE PUSH1 0x20 ADD SWAP1 DUP2 MSTORE PUSH1 0x20 ADD PUSH1 0x0 KECCAK256 PUSH1 0x0 PUSH2 0x100 EXP DUP2 SLOAD DUP2 PUSH1 0xFF MUL NOT AND SWAP1 DUP4 ISZERO ISZERO MUL OR SWAP1 SSTORE POP DUP1 DUP1 PUSH1 0x1 ADD SWAP2 POP POP PUSH2 0x912 JUMP JUMPDEST POP DUP1 PUSH1 0x3 SWAP1 DUP1 MLOAD SWAP1 PUSH1 0x20 ADD SWAP1 PUSH2 0x9A9 SWAP3 SWAP2 SWAP1 PUSH2 0x1A59 JUMP JUMPDEST POP JUMPDEST POP POP JUMP JUMPDEST PUSH1 0x0 PUSH1 0x5 DUP1 SLOAD SWAP1 POP SWAP1 POP SWAP1 JUMP JUMPDEST PUSH1 0x3 DUP2 DUP2 SLOAD DUP2 LT PUSH2 0x9C9 JUMPI INVALID JUMPDEST SWAP1 PUSH1 0x0 MSTORE PUSH1 0x20 PUSH1 0x0 KECCAK256 ADD PUSH1 0x0 SWAP2 POP SLOAD SWAP1 PUSH2 0x100 EXP SWAP1 DIV PUSH20 0xFFFFFFFFFFFFFFFFFFFFFFFFFFFFFFFFFFFFFFFF AND DUP2 JUMP JUMPDEST PUSH1 0x0 DUP1 PUSH1 0x5 DUP1 SLOAD SWAP1 POP EQ ISZERO PUSH2 0xA10 JUMPI PUSH1 0x0 SWAP1 POP PUSH2 0xA65 JUMP JUMPDEST PUSH1 0x5 PUSH1 0x1 PUSH1 0x5 DUP1 SLOAD SWAP1 POP SUB DUP2 SLOAD DUP2 LT PUSH2 0xA25 JUMPI INVALID JUMPDEST SWAP1 PUSH1 0x0 MSTORE PUSH1 0x20 PUSH1 0x0 KECCAK256 SWAP1 PUSH1 0x4 MUL ADD PUSH1 0x1 ADD SLOAD PUSH1 0x2 EXP PUSH1 0x5 PUSH1 0x1 PUSH1 0x5 DUP1 SLOAD SWAP1 POP SUB DUP2 SLOAD DUP2 LT PUSH2 0xA4F JUMPI INVALID JUMPDEST SWAP1 PUSH1 0x0 MSTORE PUSH1 0x20 PUSH1 0x0 KECCAK256 SWAP1 PUSH1 0x4 MUL ADD PUSH1 0x0 ADD SLOAD ADD SWAP1 POP JUMPDEST SWAP1 JUMP JUMPDEST PUSH1 0x5 DUP2 DUP2 SLOAD DUP2 LT PUSH2 0xA75 JUMPI INVALID JUMPDEST SWAP1 PUSH1 0x0 MSTORE PUSH1 0x20 PUSH1 0x0 KECCAK256 SWAP1 PUSH1 0x4 MUL ADD PUSH1 0x0 SWAP2 POP SWAP1 POP DUP1 PUSH1 0x0 ADD SLOAD SWAP1 DUP1 PUSH1 0x1 ADD SLOAD SWAP1 DUP1 PUSH1 0x2 ADD SLOAD SWAP1 DUP1 PUSH1 0x3 ADD SLOAD SWAP1 POP DUP5 JUMP JUMPDEST PUSH1 0x60 PUSH2 0xAB8 PUSH2 0xAB3 DUP4 PUSH2 0x1260 JUMP JUMPDEST PUSH2 0x128E JUMP JUMPDEST SWAP1 POP PUSH1 0x60 PUSH2 0xAD9 DUP3 PUSH1 0x0 DUP2 MLOAD DUP2 LT PUSH2 0xACC JUMPI INVALID JUMPDEST PUSH1 0x20 MUL PUSH1 0x20 ADD ADD MLOAD PUSH2 0x128E JUMP JUMPDEST SWAP1 POP PUSH1 0x4 DUP2 MLOAD EQ PUSH2 0xB52 JUMPI PUSH1 0x40 MLOAD PUSH32 0x8C379A000000000000000000000000000000000000000000000000000000000 DUP2 MSTORE PUSH1 0x4 ADD DUP1 DUP1 PUSH1 0x20 ADD DUP3 DUP2 SUB DUP3 MSTORE PUSH1 0x18 DUP2 MSTORE PUSH1 0x20 ADD DUP1 PUSH32 0x504C41534D413A20696E76616C69642070726F706F73616C0000000000000000 DUP2 MSTORE POP PUSH1 0x20 ADD SWAP2 POP POP PUSH1 0x40 MLOAD DUP1 SWAP2 SUB SWAP1 REVERT JUMPDEST PUSH2 0xB5A PUSH2 0x1AE3 JUMP JUMPDEST PUSH1 0x40 MLOAD DUP1 PUSH1 0x80 ADD PUSH1 0x40 MSTORE DUP1 PUSH2 0xB82 DUP5 PUSH1 0x0 DUP2 MLOAD DUP2 LT PUSH2 0xB75 JUMPI INVALID JUMPDEST PUSH1 0x20 MUL PUSH1 0x20 ADD ADD MLOAD PUSH2 0x13EB JUMP JUMPDEST DUP2 MSTORE PUSH1 0x20 ADD PUSH2 0xBA4 DUP5 PUSH1 0x1 DUP2 MLOAD DUP2 LT PUSH2 0xB97 JUMPI INVALID JUMPDEST PUSH1 0x20 MUL PUSH1 0x20 ADD ADD MLOAD PUSH2 0x13EB JUMP JUMPDEST DUP2 MSTORE PUSH1 0x20 ADD PUSH2 0xBC6 DUP5 PUSH1 0x2 DUP2 MLOAD DUP2 LT PUSH2 0xBB9 JUMPI INVALID JUMPDEST PUSH1 0x20 MUL PUSH1 0x20 ADD ADD MLOAD PUSH2 0x14C5 JUMP JUMPDEST DUP2 MSTORE PUSH1 0x20 ADD PUSH2 0xBE8 DUP5 PUSH1 0x3 DUP2 MLOAD DUP2 LT PUSH2 0xBDB JUMPI INVALID JUMPDEST PUSH1 0x20 MUL PUSH1 0x20 ADD ADD MLOAD PUSH2 0x14C5 JUMP JUMPDEST DUP2 MSTORE POP SWAP1 POP PUSH2 0xBF5 PUSH2 0x9F8 JUMP JUMPDEST DUP2 PUSH1 0x0 ADD MLOAD EQ PUSH2 0xC6D JUMPI PUSH1 0x40 MLOAD PUSH32 0x8C379A000000000000000000000000000000000000000000000000000000000 DUP2 MSTORE PUSH1 0x4 ADD DUP1 DUP1 PUSH1 0x20 ADD DUP3 DUP2 SUB DUP3 MSTORE PUSH1 0x1F DUP2 MSTORE PUSH1 0x20 ADD DUP1 PUSH32 0x504C41534D413A20696E76616C696420737461727420626C6F636B206E6F2E00 DUP2 MSTORE POP PUSH1 0x20 ADD SWAP2 POP POP PUSH1 0x40 MLOAD DUP1 SWAP2 SUB SWAP1 REVERT JUMPDEST PUSH1 0x60 PUSH2 0xC8C DUP5 PUSH1 0x0 DUP2 MLOAD DUP2 LT PUSH2 0xC7F JUMPI INVALID JUMPDEST PUSH1 0x20 MUL PUSH1 0x20 ADD ADD MLOAD PUSH2 0x14DA JUMP JUMPDEST SWAP1 POP PUSH1 0x0 PUSH1 0x40 MLOAD DUP1 PUSH1 0x40 ADD PUSH1 0x40 MSTORE DUP1 PUSH1 0x2 DUP2 MSTORE PUSH1 0x20 ADD PUSH32 0x1997000000000000000000000000000000000000000000000000000000000000 DUP2 MSTORE POP PUSH32 0x6F3A1E66E989A1CF337B9DD2CE4C98A5E78763CF9F9BDAAC5707038C66A4D74E DUP4 PUSH1 0x40 MLOAD PUSH1 0x20 ADD DUP1 DUP5 DUP1 MLOAD SWAP1 PUSH1 0x20 ADD SWAP1 DUP1 DUP4 DUP4 JUMPDEST PUSH1 0x20 DUP4 LT PUSH2 0xD1E JUMPI DUP1 MLOAD DUP3 MSTORE PUSH1 0x20 DUP3 ADD SWAP2 POP PUSH1 0x20 DUP2 ADD SWAP1 POP PUSH1 0x20 DUP4 SUB SWAP3 POP PUSH2 0xCFB JUMP JUMPDEST PUSH1 0x1 DUP4 PUSH1 0x20 SUB PUSH2 0x100 EXP SUB DUP1 NOT DUP3 MLOAD AND DUP2 DUP5 MLOAD AND DUP1 DUP3 OR DUP6 MSTORE POP POP POP POP POP POP SWAP1 POP ADD DUP4 DUP2 MSTORE PUSH1 0x20 ADD DUP3 DUP1 MLOAD SWAP1 PUSH1 0x20 ADD SWAP1 DUP1 DUP4 DUP4 JUMPDEST PUSH1 0x20 DUP4 LT PUSH2 0xD75 JUMPI DUP1 MLOAD DUP3 MSTORE PUSH1 0x20 DUP3 ADD SWAP2 POP PUSH1 0x20 DUP2 ADD SWAP1 POP PUSH1 0x20 DUP4 SUB SWAP3 POP PUSH2 0xD52 JUMP JUMPDEST PUSH1 0x1 DUP4 PUSH1 0x20 SUB PUSH2 0x100 EXP SUB DUP1 NOT DUP3 MLOAD AND DUP2 DUP5 MLOAD AND DUP1 DUP3 OR DUP6 MSTORE POP POP POP POP POP POP SWAP1 POP ADD SWAP4 POP POP POP POP PUSH1 0x40 MLOAD PUSH1 0x20 DUP2 DUP4 SUB SUB DUP2 MSTORE SWAP1 PUSH1 0x40 MSTORE DUP1 MLOAD SWAP1 PUSH1 0x20 ADD KECCAK256 SWAP1 POP PUSH1 0x0 DUP1 PUSH1 0x1 SWAP1 POP JUMPDEST DUP7 MLOAD DUP2 LT ISZERO PUSH2 0xF40 JUMPI PUSH1 0x60 PUSH2 0xDE3 DUP9 DUP4 DUP2 MLOAD DUP2 LT PUSH2 0xDD6 JUMPI INVALID JUMPDEST PUSH1 0x20 MUL PUSH1 0x20 ADD ADD MLOAD PUSH2 0x1567 JUMP JUMPDEST SWAP1 POP PUSH1 0x0 DUP1 PUSH2 0xDF2 DUP7 DUP5 PUSH2 0x1673 JUMP JUMPDEST SWAP2 POP SWAP2 POP DUP2 PUSH2 0xE69 JUMPI PUSH1 0x40 MLOAD PUSH32 0x8C379A000000000000000000000000000000000000000000000000000000000 DUP2 MSTORE PUSH1 0x4 ADD DUP1 DUP1 PUSH1 0x20 ADD DUP3 DUP2 SUB DUP3 MSTORE PUSH1 0x20 DUP2 MSTORE PUSH1 0x20 ADD DUP1 PUSH32 0x504C41534D413A2065637265636F7665722073686F756C642073756363657373 DUP2 MSTORE POP PUSH1 0x20 ADD SWAP2 POP POP PUSH1 0x40 MLOAD DUP1 SWAP2 SUB SWAP1 REVERT JUMPDEST PUSH1 0x1 PUSH1 0x0 DUP3 PUSH20 0xFFFFFFFFFFFFFFFFFFFFFFFFFFFFFFFFFFFFFFFF AND PUSH20 0xFFFFFFFFFFFFFFFFFFFFFFFFFFFFFFFFFFFFFFFF AND DUP2 MSTORE PUSH1 0x20 ADD SWAP1 DUP2 MSTORE PUSH1 0x20 ADD PUSH1 0x0 KECCAK256 PUSH1 0x0 SWAP1 SLOAD SWAP1 PUSH2 0x100 EXP SWAP1 DIV PUSH1 0xFF AND PUSH2 0xF28 JUMPI PUSH1 0x40 MLOAD PUSH32 0x8C379A000000000000000000000000000000000000000000000000000000000 DUP2 MSTORE PUSH1 0x4 ADD DUP1 DUP1 PUSH1 0x20 ADD DUP3 DUP2 SUB DUP3 MSTORE PUSH1 0x1D DUP2 MSTORE PUSH1 0x20 ADD DUP1 PUSH32 0x504C41534D413A20696E76616C69642076616C696461746F7220736967000000 DUP2 MSTORE POP PUSH1 0x20 ADD SWAP2 POP POP PUSH1 0x40 MLOAD DUP1 SWAP2 SUB SWAP1 REVERT JUMPDEST DUP5 DUP1 PUSH1 0x1 ADD SWAP6 POP POP POP POP POP DUP1 DUP1 PUSH1 0x1 ADD SWAP2 POP POP PUSH2 0xDBC JUMP JUMPDEST POP PUSH2 0xF5A PUSH1 0x2 PUSH1 0x3 DUP1 SLOAD SWAP1 POP PUSH2 0x170B SWAP1 SWAP2 SWAP1 PUSH4 0xFFFFFFFF AND JUMP JUMPDEST PUSH2 0xF6E PUSH1 0x3 DUP4 PUSH2 0x170B SWAP1 SWAP2 SWAP1 PUSH4 0xFFFFFFFF AND JUMP JUMPDEST GT PUSH2 0xFE1 JUMPI PUSH1 0x40 MLOAD PUSH32 0x8C379A000000000000000000000000000000000000000000000000000000000 DUP2 MSTORE PUSH1 0x4 ADD DUP1 DUP1 PUSH1 0x20 ADD DUP3 DUP2 SUB DUP3 MSTORE PUSH1 0x1A DUP2 MSTORE PUSH1 0x20 ADD DUP1 PUSH32 0x504C41534D413A206E6F74203636252076616C696461746F7273000000000000 DUP2 MSTORE POP PUSH1 0x20 ADD SWAP2 POP POP PUSH1 0x40 MLOAD DUP1 SWAP2 SUB SWAP1 REVERT JUMPDEST PUSH1 0x0 PUSH1 0x5 DUP1 SLOAD SWAP1 POP SWAP1 POP PUSH1 0x5 DUP6 SWAP1 DUP1 PUSH1 0x1 DUP2 SLOAD ADD DUP1 DUP3 SSTORE DUP1 SWAP2 POP POP PUSH1 0x1 SWAP1 SUB SWAP1 PUSH1 0x0 MSTORE PUSH1 0x20 PUSH1 0x0 KECCAK256 SWAP1 PUSH1 0x4 MUL ADD PUSH1 0x0 SWAP1 SWAP2 SWAP1 SWAP2 SWAP1 SWAP2 POP PUSH1 0x0 DUP3 ADD MLOAD DUP2 PUSH1 0x0 ADD SSTORE PUSH1 0x20 DUP3 ADD MLOAD DUP2 PUSH1 0x1 ADD SSTORE PUSH1 0x40 DUP3 ADD MLOAD DUP2 PUSH1 0x2 ADD SSTORE PUSH1 0x60 DUP3 ADD MLOAD DUP2 PUSH1 0x3 ADD SSTORE POP POP PUSH32 0x435520EA9B14C682112ACEF5BC8466234D75B18DCE73C44A78D905139DEF419D DUP6 PUSH1 0x0 ADD MLOAD DUP7 PUSH1 0x20 ADD MLOAD DUP4 PUSH1 0x40 MLOAD DUP1 DUP5 DUP2 MSTORE PUSH1 0x20 ADD DUP4 DUP2 MSTORE PUSH1 0x20 ADD DUP3 DUP2 MSTORE PUSH1 0x20 ADD SWAP4 POP POP POP POP PUSH1 0x40 MLOAD DUP1 SWAP2 SUB SWAP1 LOG1 POP POP POP POP POP POP POP POP JUMP JUMPDEST DUP1 PUSH1 0x7 PUSH1 0x0 PUSH2 0x100 EXP DUP2 SLOAD DUP2 PUSH20 0xFFFFFFFFFFFFFFFFFFFFFFFFFFFFFFFFFFFFFFFF MUL NOT AND SWAP1 DUP4 PUSH20 0xFFFFFFFFFFFFFFFFFFFFFFFFFFFFFFFFFFFFFFFF AND MUL OR SWAP1 SSTORE POP POP JUMP JUMPDEST PUSH1 0x2 PUSH1 0x20 MSTORE DUP1 PUSH1 0x0 MSTORE PUSH1 0x40 PUSH1 0x0 KECCAK256 PUSH1 0x0 SWAP2 POP SLOAD SWAP1 PUSH2 0x100 EXP SWAP1 DIV PUSH1 0xFF AND DUP2 JUMP JUMPDEST PUSH1 0x60 PUSH1 0x4 DUP1 SLOAD DUP1 PUSH1 0x20 MUL PUSH1 0x20 ADD PUSH1 0x40 MLOAD SWAP1 DUP2 ADD PUSH1 0x40 MSTORE DUP1 SWAP3 SWAP2 SWAP1 DUP2 DUP2 MSTORE PUSH1 0x20 ADD DUP3 DUP1 SLOAD DUP1 ISZERO PUSH2 0x1182 JUMPI PUSH1 0x20 MUL DUP3 ADD SWAP2 SWAP1 PUSH1 0x0 MSTORE PUSH1 0x20 PUSH1 0x0 KECCAK256 SWAP1 JUMPDEST DUP2 PUSH1 0x0 SWAP1 SLOAD SWAP1 PUSH2 0x100 EXP SWAP1 DIV PUSH20 0xFFFFFFFFFFFFFFFFFFFFFFFFFFFFFFFFFFFFFFFF AND PUSH20 0xFFFFFFFFFFFFFFFFFFFFFFFFFFFFFFFFFFFFFFFF AND DUP2 MSTORE PUSH1 0x20 ADD SWAP1 PUSH1 0x1 ADD SWAP1 DUP1 DUP4 GT PUSH2 0x1138 JUMPI JUMPDEST POP POP POP POP POP SWAP1 POP SWAP1 JUMP JUMPDEST PUSH1 0x60 PUSH1 0x3 DUP1 SLOAD DUP1 PUSH1 0x20 MUL PUSH1 0x20 ADD PUSH1 0x40 MLOAD SWAP1 DUP2 ADD PUSH1 0x40 MSTORE DUP1 SWAP3 SWAP2 SWAP1 DUP2 DUP2 MSTORE PUSH1 0x20 ADD DUP3 DUP1 SLOAD DUP1 ISZERO PUSH2 0x1210 JUMPI PUSH1 0x20 MUL DUP3 ADD SWAP2 SWAP1 PUSH1 0x0 MSTORE PUSH1 0x20 PUSH1 0x0 KECCAK256 SWAP1 JUMPDEST DUP2 PUSH1 0x0 SWAP1 SLOAD SWAP1 PUSH2 0x100 EXP SWAP1 DIV PUSH20 0xFFFFFFFFFFFFFFFFFFFFFFFFFFFFFFFFFFFFFFFF AND PUSH20 0xFFFFFFFFFFFFFFFFFFFFFFFFFFFFFFFFFFFFFFFF AND DUP2 MSTORE PUSH1 0x20 ADD SWAP1 PUSH1 0x1 ADD SWAP1 DUP1 DUP4 GT PUSH2 0x11C6 JUMPI JUMPDEST POP POP POP POP POP SWAP1 POP SWAP1 JUMP JUMPDEST PUSH1 0x1 PUSH1 0x20 MSTORE DUP1 PUSH1 0x0 MSTORE PUSH1 0x40 PUSH1 0x0 KECCAK256 PUSH1 0x0 SWAP2 POP SLOAD SWAP1 PUSH2 0x100 EXP SWAP1 DIV PUSH1 0xFF AND DUP2 JUMP JUMPDEST PUSH1 0x6 PUSH1 0x0 SWAP1 SLOAD SWAP1 PUSH2 0x100 EXP SWAP1 DIV PUSH20 0xFFFFFFFFFFFFFFFFFFFFFFFFFFFFFFFFFFFFFFFF AND DUP2 JUMP JUMPDEST PUSH2 0x1268 PUSH2 0x1B11 JUMP JUMPDEST PUSH1 0x0 PUSH1 0x20 DUP4 ADD SWAP1 POP PUSH1 0x40 MLOAD DUP1 PUSH1 0x40 ADD PUSH1 0x40 MSTORE DUP1 DUP5 MLOAD DUP2 MSTORE PUSH1 0x20 ADD DUP3 DUP2 MSTORE POP SWAP2 POP POP SWAP2 SWAP1 POP JUMP JUMPDEST PUSH1 0x60 PUSH2 0x1299 DUP3 PUSH2 0x17AE JUMP JUMPDEST PUSH2 0x130B JUMPI PUSH1 0x40 MLOAD PUSH32 0x8C379A000000000000000000000000000000000000000000000000000000000 DUP2 MSTORE PUSH1 0x4 ADD DUP1 DUP1 PUSH1 0x20 ADD DUP3 DUP2 SUB DUP3 MSTORE PUSH1 0x15 DUP2 MSTORE PUSH1 0x20 ADD DUP1 PUSH32 0x524C503A206974656D206973206E6F74206C6973740000000000000000000000 DUP2 MSTORE POP PUSH1 0x20 ADD SWAP2 POP POP PUSH1 0x40 MLOAD DUP1 SWAP2 SUB SWAP1 REVERT JUMPDEST PUSH1 0x0 PUSH2 0x1316 DUP4 PUSH2 0x17FC JUMP JUMPDEST SWAP1 POP PUSH1 0x60 DUP2 PUSH8 0xFFFFFFFFFFFFFFFF DUP2 GT DUP1 ISZERO PUSH2 0x1331 JUMPI PUSH1 0x0 DUP1 REVERT JUMPDEST POP PUSH1 0x40 MLOAD SWAP1 DUP1 DUP3 MSTORE DUP1 PUSH1 0x20 MUL PUSH1 0x20 ADD DUP3 ADD PUSH1 0x40 MSTORE DUP1 ISZERO PUSH2 0x136B JUMPI DUP2 PUSH1 0x20 ADD JUMPDEST PUSH2 0x1358 PUSH2 0x1B11 JUMP JUMPDEST DUP2 MSTORE PUSH1 0x20 ADD SWAP1 PUSH1 0x1 SWAP1 SUB SWAP1 DUP2 PUSH2 0x1350 JUMPI SWAP1 POP JUMPDEST POP SWAP1 POP PUSH1 0x0 PUSH2 0x137D DUP6 PUSH1 0x20 ADD MLOAD PUSH2 0x186D JUMP JUMPDEST DUP6 PUSH1 0x20 ADD MLOAD ADD SWAP1 POP PUSH1 0x0 DUP1 PUSH1 0x0 SWAP1 POP JUMPDEST DUP5 DUP2 LT ISZERO PUSH2 0x13DE JUMPI PUSH2 0x139E DUP4 PUSH2 0x18F6 JUMP JUMPDEST SWAP2 POP PUSH1 0x40 MLOAD DUP1 PUSH1 0x40 ADD PUSH1 0x40 MSTORE DUP1 DUP4 DUP2 MSTORE PUSH1 0x20 ADD DUP5 DUP2 MSTORE POP DUP5 DUP3 DUP2 MLOAD DUP2 LT PUSH2 0x13C1 JUMPI INVALID JUMPDEST PUSH1 0x20 MUL PUSH1 0x20 ADD ADD DUP2 SWAP1 MSTORE POP DUP2 DUP4 ADD SWAP3 POP DUP1 DUP1 PUSH1 0x1 ADD SWAP2 POP POP PUSH2 0x138D JUMP JUMPDEST POP DUP3 SWAP5 POP POP POP POP POP SWAP2 SWAP1 POP JUMP JUMPDEST PUSH1 0x0 DUP1 DUP3 PUSH1 0x0 ADD MLOAD GT DUP1 ISZERO PUSH2 0x1405 JUMPI POP PUSH1 0x21 DUP3 PUSH1 0x0 ADD MLOAD GT ISZERO JUMPDEST PUSH2 0x1477 JUMPI PUSH1 0x40 MLOAD PUSH32 0x8C379A000000000000000000000000000000000000000000000000000000000 DUP2 MSTORE PUSH1 0x4 ADD DUP1 DUP1 PUSH1 0x20 ADD DUP3 DUP2 SUB DUP3 MSTORE PUSH1 0x1D DUP2 MSTORE PUSH1 0x20 ADD DUP1 PUSH32 0x524C503A206C656E206E6F74206265747765656E203020616E64203333000000 DUP2 MSTORE POP PUSH1 0x20 ADD SWAP2 POP POP PUSH1 0x40 MLOAD DUP1 SWAP2 SUB SWAP1 REVERT JUMPDEST PUSH1 0x0 PUSH2 0x1486 DUP4 PUSH1 0x20 ADD MLOAD PUSH2 0x186D JUMP JUMPDEST SWAP1 POP PUSH1 0x0 DUP2 DUP5 PUSH1 0x0 ADD MLOAD SUB SWAP1 POP PUSH1 0x0 DUP1 DUP4 DUP7 PUSH1 0x20 ADD MLOAD ADD SWAP1 POP DUP1 MLOAD SWAP2 POP PUSH1 0x20 DUP4 LT ISZERO PUSH2 0x14B9 JUMPI DUP3 PUSH1 0x20 SUB PUSH2 0x100 EXP DUP3 DIV SWAP2 POP JUMPDEST DUP2 SWAP5 POP POP POP POP POP SWAP2 SWAP1 POP JUMP JUMPDEST PUSH1 0x0 PUSH2 0x14D0 DUP3 PUSH2 0x13EB JUMP JUMPDEST PUSH1 0x0 SHL SWAP1 POP SWAP2 SWAP1 POP JUMP JUMPDEST PUSH1 0x60 DUP1 DUP3 PUSH1 0x0 ADD MLOAD PUSH8 0xFFFFFFFFFFFFFFFF DUP2 GT DUP1 ISZERO PUSH2 0x14F8 JUMPI PUSH1 0x0 DUP1 REVERT JUMPDEST POP PUSH1 0x40 MLOAD SWAP1 DUP1 DUP3 MSTORE DUP1 PUSH1 0x1F ADD PUSH1 0x1F NOT AND PUSH1 0x20 ADD DUP3 ADD PUSH1 0x40 MSTORE DUP1 ISZERO PUSH2 0x152B JUMPI DUP2 PUSH1 0x20 ADD PUSH1 0x1 DUP3 MUL DUP1 CALLDATASIZE DUP4 CALLDATACOPY DUP1 DUP3 ADD SWAP2 POP POP SWAP1 POP JUMPDEST POP SWAP1 POP PUSH1 0x0 DUP2 MLOAD EQ ISZERO PUSH2 0x1541 JUMPI DUP1 SWAP2 POP POP PUSH2 0x1562 JUMP JUMPDEST PUSH1 0x0 DUP2 PUSH1 0x20 ADD SWAP1 POP PUSH2 0x155C DUP5 PUSH1 0x20 ADD MLOAD DUP3 DUP7 PUSH1 0x0 ADD MLOAD PUSH2 0x19AE JUMP JUMPDEST DUP2 SWAP3 POP POP POP JUMPDEST SWAP2 SWAP1 POP JUMP JUMPDEST PUSH1 0x60 PUSH1 0x0 DUP3 PUSH1 0x0 ADD MLOAD GT PUSH2 0x15E3 JUMPI PUSH1 0x40 MLOAD PUSH32 0x8C379A000000000000000000000000000000000000000000000000000000000 DUP2 MSTORE PUSH1 0x4 ADD DUP1 DUP1 PUSH1 0x20 ADD DUP3 DUP2 SUB DUP3 MSTORE PUSH1 0x14 DUP2 MSTORE PUSH1 0x20 ADD DUP1 PUSH32 0x524C503A206C656E206973206E6F742067742030000000000000000000000000 DUP2 MSTORE POP PUSH1 0x20 ADD SWAP2 POP POP PUSH1 0x40 MLOAD DUP1 SWAP2 SUB SWAP1 REVERT JUMPDEST PUSH1 0x0 PUSH2 0x15F2 DUP4 PUSH1 0x20 ADD MLOAD PUSH2 0x186D JUMP JUMPDEST SWAP1 POP PUSH1 0x0 DUP2 DUP5 PUSH1 0x0 ADD MLOAD SUB SWAP1 POP PUSH1 0x60 DUP2 PUSH8 0xFFFFFFFFFFFFFFFF DUP2 GT DUP1 ISZERO PUSH2 0x1618 JUMPI PUSH1 0x0 DUP1 REVERT JUMPDEST POP PUSH1 0x40 MLOAD SWAP1 DUP1 DUP3 MSTORE DUP1 PUSH1 0x1F ADD PUSH1 0x1F NOT AND PUSH1 0x20 ADD DUP3 ADD PUSH1 0x40 MSTORE DUP1 ISZERO PUSH2 0x164B JUMPI DUP2 PUSH1 0x20 ADD PUSH1 0x1 DUP3 MUL DUP1 CALLDATASIZE DUP4 CALLDATACOPY DUP1 DUP3 ADD SWAP2 POP POP SWAP1 POP JUMPDEST POP SWAP1 POP PUSH1 0x0 DUP2 PUSH1 0x20 ADD SWAP1 POP PUSH2 0x1667 DUP5 DUP8 PUSH1 0x20 ADD MLOAD ADD DUP3 DUP6 PUSH2 0x19AE JUMP JUMPDEST DUP2 SWAP5 POP POP POP POP POP SWAP2 SWAP1 POP JUMP JUMPDEST PUSH1 0x0 DUP1 PUSH1 0x0 DUP1 PUSH1 0x0 PUSH1 0x41 DUP7 MLOAD EQ PUSH2 0x1696 JUMPI PUSH1 0x0 DUP1 DUP1 SWAP1 POP SWAP5 POP SWAP5 POP POP POP POP PUSH2 0x1704 JUMP JUMPDEST PUSH1 0x20 DUP7 ADD MLOAD SWAP3 POP PUSH1 0x40 DUP7 ADD MLOAD SWAP2 POP PUSH1 0x60 DUP7 ADD MLOAD PUSH1 0x0 BYTE SWAP1 POP PUSH1 0x1B DUP2 PUSH1 0xFF AND LT ISZERO PUSH2 0x16C1 JUMPI PUSH1 0x1B DUP2 ADD SWAP1 POP JUMPDEST PUSH1 0x1B DUP2 PUSH1 0xFF AND EQ ISZERO DUP1 ISZERO PUSH2 0x16D9 JUMPI POP PUSH1 0x1C DUP2 PUSH1 0xFF AND EQ ISZERO JUMPDEST ISZERO PUSH2 0x16F0 JUMPI PUSH1 0x0 DUP1 DUP1 SWAP1 POP SWAP5 POP SWAP5 POP POP POP POP PUSH2 0x1704 JUMP JUMPDEST PUSH2 0x16FC DUP8 DUP3 DUP6 DUP6 PUSH2 0x1A15 JUMP JUMPDEST SWAP5 POP SWAP5 POP POP POP POP JUMPDEST SWAP3 POP SWAP3 SWAP1 POP JUMP JUMPDEST PUSH1 0x0 DUP1 DUP4 EQ ISZERO PUSH2 0x171E JUMPI PUSH1 0x0 SWAP1 POP PUSH2 0x17A8 JUMP JUMPDEST PUSH1 0x0 DUP3 DUP5 MUL SWAP1 POP DUP3 DUP5 DUP3 DUP2 PUSH2 0x172F JUMPI INVALID JUMPDEST DIV EQ PUSH2 0x17A3 JUMPI PUSH1 0x40 MLOAD PUSH32 0x8C379A000000000000000000000000000000000000000000000000000000000 DUP2 MSTORE PUSH1 0x4 ADD DUP1 DUP1 PUSH1 0x20 ADD DUP3 DUP2 SUB DUP3 MSTORE PUSH1 0x1F DUP2 MSTORE PUSH1 0x20 ADD DUP1 PUSH32 0x536166654D6174683A204D756C7469706C696361746E206F766572666C6F7700 DUP2 MSTORE POP PUSH1 0x20 ADD SWAP2 POP POP PUSH1 0x40 MLOAD DUP1 SWAP2 SUB SWAP1 REVERT JUMPDEST DUP1 SWAP2 POP POP JUMPDEST SWAP3 SWAP2 POP POP JUMP JUMPDEST PUSH1 0x0 DUP1 DUP3 PUSH1 0x0 ADD MLOAD EQ ISZERO PUSH2 0x17C5 JUMPI PUSH1 0x0 SWAP1 POP PUSH2 0x17F7 JUMP JUMPDEST PUSH1 0x0 DUP1 DUP4 PUSH1 0x20 ADD MLOAD SWAP1 POP DUP1 MLOAD PUSH1 0x0 BYTE SWAP2 POP PUSH1 0xC0 PUSH1 0xFF AND DUP3 PUSH1 0xFF AND LT ISZERO PUSH2 0x17F0 JUMPI PUSH1 0x0 SWAP3 POP POP POP PUSH2 0x17F7 JUMP JUMPDEST PUSH1 0x1 SWAP3 POP POP POP JUMPDEST SWAP2 SWAP1 POP JUMP JUMPDEST PUSH1 0x0 DUP1 DUP3 PUSH1 0x0 ADD MLOAD EQ ISZERO PUSH2 0x1813 JUMPI PUSH1 0x0 SWAP1 POP PUSH2 0x1868 JUMP JUMPDEST PUSH1 0x0 DUP1 SWAP1 POP PUSH1 0x0 PUSH2 0x1827 DUP5 PUSH1 0x20 ADD MLOAD PUSH2 0x186D JUMP JUMPDEST DUP5 PUSH1 0x20 ADD MLOAD ADD SWAP1 POP PUSH1 0x0 DUP5 PUSH1 0x0 ADD MLOAD DUP6 PUSH1 0x20 ADD MLOAD ADD SWAP1 POP JUMPDEST DUP1 DUP3 LT ISZERO PUSH2 0x1861 JUMPI PUSH2 0x1850 DUP3 PUSH2 0x18F6 JUMP JUMPDEST DUP3 ADD SWAP2 POP DUP3 DUP1 PUSH1 0x1 ADD SWAP4 POP POP PUSH2 0x183F JUMP JUMPDEST DUP3 SWAP4 POP POP POP POP JUMPDEST SWAP2 SWAP1 POP JUMP JUMPDEST PUSH1 0x0 DUP1 DUP3 MLOAD PUSH1 0x0 BYTE SWAP1 POP PUSH1 0x80 PUSH1 0xFF AND DUP2 LT ISZERO PUSH2 0x188D JUMPI PUSH1 0x0 SWAP2 POP POP PUSH2 0x18F1 JUMP JUMPDEST PUSH1 0xB8 PUSH1 0xFF AND DUP2 LT DUP1 PUSH2 0x18B2 JUMPI POP PUSH1 0xC0 PUSH1 0xFF AND DUP2 LT ISZERO DUP1 ISZERO PUSH2 0x18B1 JUMPI POP PUSH1 0xF8 PUSH1 0xFF AND DUP2 LT JUMPDEST JUMPDEST ISZERO PUSH2 0x18C1 JUMPI PUSH1 0x1 SWAP2 POP POP PUSH2 0x18F1 JUMP JUMPDEST PUSH1 0xC0 PUSH1 0xFF AND DUP2 LT ISZERO PUSH2 0x18E1 JUMPI PUSH1 0x1 DUP1 PUSH1 0xB8 SUB PUSH1 0xFF AND DUP3 SUB ADD SWAP2 POP POP PUSH2 0x18F1 JUMP JUMPDEST PUSH1 0x1 DUP1 PUSH1 0xF8 SUB PUSH1 0xFF AND DUP3 SUB ADD SWAP2 POP POP JUMPDEST SWAP2 SWAP1 POP JUMP JUMPDEST PUSH1 0x0 DUP1 PUSH1 0x0 DUP4 MLOAD PUSH1 0x0 BYTE SWAP1 POP PUSH1 0x80 PUSH1 0xFF AND DUP2 LT ISZERO PUSH2 0x1917 JUMPI PUSH1 0x1 SWAP2 POP PUSH2 0x19A4 JUMP JUMPDEST PUSH1 0xB8 PUSH1 0xFF AND DUP2 LT ISZERO PUSH2 0x1934 JUMPI PUSH1 0x1 PUSH1 0x80 PUSH1 0xFF AND DUP3 SUB ADD SWAP2 POP PUSH2 0x19A3 JUMP JUMPDEST PUSH1 0xC0 PUSH1 0xFF AND DUP2 LT ISZERO PUSH2 0x1964 JUMPI PUSH1 0xB7 DUP2 SUB PUSH1 0x1 DUP6 ADD SWAP5 POP DUP1 PUSH1 0x20 SUB PUSH2 0x100 EXP DUP6 MLOAD DIV PUSH1 0x1 DUP3 ADD DUP2 ADD SWAP4 POP POP POP PUSH2 0x19A2 JUMP JUMPDEST PUSH1 0xF8 PUSH1 0xFF AND DUP2 LT ISZERO PUSH2 0x1981 JUMPI PUSH1 0x1 PUSH1 0xC0 PUSH1 0xFF AND DUP3 SUB ADD SWAP2 POP PUSH2 0x19A1 JUMP JUMPDEST PUSH1 0xF7 DUP2 SUB PUSH1 0x1 DUP6 ADD SWAP5 POP DUP1 PUSH1 0x20 SUB PUSH2 0x100 EXP DUP6 MLOAD DIV PUSH1 0x1 DUP3 ADD DUP2 ADD SWAP4 POP POP POP JUMPDEST JUMPDEST JUMPDEST JUMPDEST DUP2 SWAP3 POP POP POP SWAP2 SWAP1 POP JUMP JUMPDEST PUSH1 0x0 DUP2 EQ ISZERO PUSH2 0x19BC JUMPI PUSH2 0x1A10 JUMP JUMPDEST JUMPDEST PUSH1 0x20 PUSH1 0xFF AND DUP2 LT PUSH2 0x19EC JUMPI DUP3 MLOAD DUP3 MSTORE PUSH1 0x20 PUSH1 0xFF AND DUP4 ADD SWAP3 POP PUSH1 0x20 PUSH1 0xFF AND DUP3 ADD SWAP2 POP PUSH1 0x20 PUSH1 0xFF AND DUP2 SUB SWAP1 POP PUSH2 0x19BD JUMP JUMPDEST PUSH1 0x0 PUSH1 0x1 DUP3 PUSH1 0x20 PUSH1 0xFF AND SUB PUSH2 0x100 EXP SUB SWAP1 POP DUP1 NOT DUP5 MLOAD AND DUP2 DUP5 MLOAD AND DUP2 DUP2 OR DUP6 MSTORE POP POP POP JUMPDEST POP POP POP JUMP JUMPDEST PUSH1 0x0 DUP1 PUSH1 0x0 DUP1 PUSH1 0x40 MLOAD DUP9 DUP2 MSTORE DUP8 PUSH1 0x20 DUP3 ADD MSTORE DUP7 PUSH1 0x40 DUP3 ADD MSTORE DUP6 PUSH1 0x60 DUP3 ADD MSTORE PUSH1 0x20 DUP2 PUSH1 0x80 DUP4 PUSH1 0x0 PUSH1 0x1 PUSH2 0xBB8 CALL SWAP3 POP DUP1 MLOAD SWAP2 POP POP DUP2 DUP2 SWAP4 POP SWAP4 POP POP POP SWAP5 POP SWAP5 SWAP3 POP POP POP JUMP JUMPDEST DUP3 DUP1 SLOAD DUP3 DUP3 SSTORE SWAP1 PUSH1 0x0 MSTORE PUSH1 0x20 PUSH1 0x0 KECCAK256 SWAP1 DUP2 ADD SWAP3 DUP3 ISZERO PUSH2 0x1AD2 JUMPI SWAP2 PUSH1 0x20 MUL DUP3 ADD JUMPDEST DUP3 DUP2 GT ISZERO PUSH2 0x1AD1 JUMPI DUP3 MLOAD DUP3 PUSH1 0x0 PUSH2 0x100 EXP DUP2 SLOAD DUP2 PUSH20 0xFFFFFFFFFFFFFFFFFFFFFFFFFFFFFFFFFFFFFFFF MUL NOT AND SWAP1 DUP4 PUSH20 0xFFFFFFFFFFFFFFFFFFFFFFFFFFFFFFFFFFFFFFFF AND MUL OR SWAP1 SSTORE POP SWAP2 PUSH1 0x20 ADD SWAP2 SWAP1 PUSH1 0x1 ADD SWAP1 PUSH2 0x1A79 JUMP JUMPDEST JUMPDEST POP SWAP1 POP PUSH2 0x1ADF SWAP2 SWAP1 PUSH2 0x1B2B JUMP JUMPDEST POP SWAP1 JUMP JUMPDEST PUSH1 0x40 MLOAD DUP1 PUSH1 0x80 ADD PUSH1 0x40 MSTORE DUP1 PUSH1 0x0 DUP2 MSTORE PUSH1 0x20 ADD PUSH1 0x0 DUP2 MSTORE PUSH1 0x20 ADD PUSH1 0x0 DUP1 NOT AND DUP2 MSTORE PUSH1 0x20 ADD PUSH1 0x0 DUP1 NOT AND DUP2 MSTORE POP SWAP1 JUMP JUMPDEST PUSH1 0x40 MLOAD DUP1 PUSH1 0x40 ADD PUSH1 0x40 MSTORE DUP1 PUSH1 0x0 DUP2 MSTORE PUSH1 0x20 ADD PUSH1 0x0 DUP2 MSTORE POP SWAP1 JUMP JUMPDEST PUSH2 0x1B6B SWAP2 SWAP1 JUMPDEST DUP1 DUP3 GT ISZERO PUSH2 0x1B67 JUMPI PUSH1 0x0 DUP2 DUP2 PUSH2 0x100 EXP DUP2 SLOAD SWAP1 PUSH20 0xFFFFFFFFFFFFFFFFFFFFFFFFFFFFFFFFFFFFFFFF MUL NOT AND SWAP1 SSTORE POP PUSH1 0x1 ADD PUSH2 0x1B31 JUMP JUMPDEST POP SWAP1 JUMP JUMPDEST SWAP1 JUMP INVALID LOG2 PUSH5 0x6970667358 0x22 SLT KECCAK256 BLOCKHASH ORIGIN 0xBB SWAP9 PUSH27 0x6F7B364387788E32B17F01D2457CA1337D9210B6BFE4BDBE5AEB64 PUSH5 0x736F6C6343 STOP MOD EXP STOP CALLER "},"gasEstimates":{"creation":{"codeDepositCost":"1415200","executionCost":"43211","totalCost":"1458411"},"external":{"bunches(uint256)":"4590","esnDepositAddress()":"1077","getAllSigners()":"infinite","getAllValidators()":"infinite","getNextStartBlockNumber()":"7756","isValidator(address)":"1272","lastBunchIndex()":"1044","processedWithdrawals(bytes32)":"1267","setESNDepositAddress(address)":"21146","setInitialValues(address,address[])":"infinite","signers(uint256)":"2063","submitBunchHeader(bytes)":"infinite","token()":"1141","validators(uint256)":"2062"}},"methodIdentifiers":{"bunches(uint256)":"75080de8","esnDepositAddress()":"15c09850","getAllSigners()":"d42f2f35","getAllValidators()":"f3513a37","getNextStartBlockNumber()":"4eee0890","isValidator(address)":"facd743b","lastBunchIndex()":"2ceea82a","processedWithdrawals(bytes32)":"bf49d631","setESNDepositAddress(address)":"974275cf","setInitialValues(address,address[])":"24f8ecec","signers(uint256)":"2079fb9a","submitBunchHeader(bytes)":"76f5e6da","token()":"fc0c546a","validators(uint256)":"35aa2e44"}},"storageLayout":{"storage":[{"astId":1426,"contract":"ETH/PlasmaManager.sol:PlasmaManager","label":"deployer","offset":0,"slot":"0","type":"t_address"},{"astId":1430,"contract":"ETH/PlasmaManager.sol:PlasmaManager","label":"isValidator","offset":0,"slot":"1","type":"t_mapping(t_address,t_bool)"},{"astId":1434,"contract":"ETH/PlasmaManager.sol:PlasmaManager","label":"processedWithdrawals","offset":0,"slot":"2","type":"t_mapping(t_bytes32,t_bool)"},{"astId":1437,"contract":"ETH/PlasmaManager.sol:PlasmaManager","label":"validators","offset":0,"slot":"3","type":"t_array(t_address)dyn_storage"},{"astId":1440,"contract":"ETH/PlasmaManager.sol:PlasmaManager","label":"signers","offset":0,"slot":"4","type":"t_array(t_address)dyn_storage"},{"astId":1443,"contract":"ETH/PlasmaManager.sol:PlasmaManager","label":"bunches","offset":0,"slot":"5","type":"t_array(t_struct(BunchHeader)1423_storage)dyn_storage"},{"astId":1457,"contract":"ETH/PlasmaManager.sol:PlasmaManager","label":"token","offset":0,"slot":"6","type":"t_contract(ERC20)1116"},{"astId":1464,"contract":"ETH/PlasmaManager.sol:PlasmaManager","label":"esnDepositAddress","offset":0,"slot":"7","type":"t_address"}],"types":{"t_address":{"encoding":"inplace","label":"address","numberOfBytes":"20"},"t_array(t_address)dyn_storage":{"base":"t_address","encoding":"dynamic_array","label":"address[]","numberOfBytes":"32"},"t_array(t_struct(BunchHeader)1423_storage)dyn_storage":{"base":"t_struct(BunchHeader)1423_storage","encoding":"dynamic_array","label":"struct PlasmaManager.BunchHeader[]","numberOfBytes":"32"},"t_bool":{"encoding":"inplace","label":"bool","numberOfBytes":"1"},"t_bytes32":{"encoding":"inplace","label":"bytes32","numberOfBytes":"32"},"t_contract(ERC20)1116":{"encoding":"inplace","label":"contract ERC20","numberOfBytes":"20"},"t_mapping(t_address,t_bool)":{"encoding":"mapping","key":"t_address","label":"mapping(address => bool)","numberOfBytes":"32","value":"t_bool"},"t_mapping(t_bytes32,t_bool)":{"encoding":"mapping","key":"t_bytes32","label":"mapping(bytes32 => bool)","numberOfBytes":"32","value":"t_bool"},"t_struct(BunchHeader)1423_storage":{"encoding":"inplace","label":"struct PlasmaManager.BunchHeader","members":[{"astId":1416,"contract":"ETH/PlasmaManager.sol:PlasmaManager","label":"startBlockNumber","offset":0,"slot":"0","type":"t_uint256"},{"astId":1418,"contract":"ETH/PlasmaManager.sol:PlasmaManager","label":"bunchDepth","offset":0,"slot":"1","type":"t_uint256"},{"astId":1420,"contract":"ETH/PlasmaManager.sol:PlasmaManager","label":"transactionsMegaRoot","offset":0,"slot":"2","type":"t_bytes32"},{"astId":1422,"contract":"ETH/PlasmaManager.sol:PlasmaManager","label":"receiptsMegaRoot","offset":0,"slot":"3","type":"t_bytes32"}],"numberOfBytes":"128"},"t_uint256":{"encoding":"inplace","label":"uint256","numberOfBytes":"32"}}},"userdoc":{"methods":{}}}