{"abi":[{"inputs":[],"stateMutability":"nonpayable","type":"constructor"},{"anonymous":false,"inputs":[{"indexed":false,"internalType":"uint256","name":"blockNumber","type":"uint256"},{"indexed":false,"internalType":"uint256","name":"proposalId","type":"uint256"}],"name":"NewBlockHeader","type":"event"},{"inputs":[{"internalType":"uint256","name":"","type":"uint256"}],"name":"ethBlockchain","outputs":[{"internalType":"bytes32","name":"transactionsRoot","type":"bytes32"},{"internalType":"bytes32","name":"receiptsRoot","type":"bytes32"}],"stateMutability":"view","type":"function"},{"inputs":[{"internalType":"uint256","name":"","type":"uint256"},{"internalType":"uint256","name":"","type":"uint256"}],"name":"ethProposals","outputs":[{"internalType":"bytes32","name":"transactionsRoot","type":"bytes32"},{"internalType":"bytes32","name":"receiptsRoot","type":"bytes32"}],"stateMutability":"view","type":"function"},{"inputs":[{"internalType":"uint256","name":"_blockNumber","type":"uint256"},{"internalType":"uint256","name":"_proposalId","type":"uint256"}],"name":"finalizeProposal","outputs":[],"stateMutability":"nonpayable","type":"function"},{"inputs":[{"internalType":"uint256","name":"_blockNumber","type":"uint256"},{"internalType":"bytes32","name":"_transactionsRoot","type":"bytes32"},{"internalType":"bytes32","name":"_receiptsRoot","type":"bytes32"}],"name":"findProposal","outputs":[{"internalType":"bool","name":"","type":"bool"},{"internalType":"uint256","name":"","type":"uint256"}],"stateMutability":"view","type":"function"},{"inputs":[],"name":"getAllValidators","outputs":[{"internalType":"address[]","name":"","type":"address[]"}],"stateMutability":"view","type":"function"},{"inputs":[{"internalType":"uint256","name":"_blockNumber","type":"uint256"},{"internalType":"uint256","name":"_proposalId","type":"uint256"}],"name":"getProposalValidators","outputs":[{"internalType":"address[]","name":"","type":"address[]"}],"stateMutability":"view","type":"function"},{"inputs":[{"internalType":"uint256","name":"_blockNumber","type":"uint256"}],"name":"getProposalsCount","outputs":[{"internalType":"uint256","name":"","type":"uint256"}],"stateMutability":"view","type":"function"},{"inputs":[{"internalType":"address","name":"_validator","type":"address"}],"name":"isValidator","outputs":[{"internalType":"bool","name":"","type":"bool"}],"stateMutability":"view","type":"function"},{"inputs":[],"name":"latestBlockNumber","outputs":[{"internalType":"uint256","name":"","type":"uint256"}],"stateMutability":"view","type":"function"},{"inputs":[{"internalType":"uint256","name":"","type":"uint256"}],"name":"mainValidators","outputs":[{"internalType":"address","name":"","type":"address"}],"stateMutability":"view","type":"function"},{"inputs":[{"internalType":"bytes","name":"_blockHeader","type":"bytes"}],"name":"proposeBlock","outputs":[],"stateMutability":"nonpayable","type":"function"},{"inputs":[],"name":"reverseDepositAddress","outputs":[{"internalType":"address","name":"","type":"address"}],"stateMutability":"view","type":"function"},{"inputs":[{"internalType":"address","name":"_tokenOnETH","type":"address"},{"internalType":"uint256","name":"_startBlockNumber","type":"uint256"},{"internalType":"address[]","name":"_validators","type":"address[]"}],"name":"setInitialValues","outputs":[],"stateMutability":"nonpayable","type":"function"},{"inputs":[],"name":"tokenOnETH","outputs":[{"internalType":"address","name":"","type":"address"}],"stateMutability":"view","type":"function"},{"inputs":[{"internalType":"address","name":"_reverseDepositAddress","type":"address"}],"name":"updateDepositAddress","outputs":[],"stateMutability":"nonpayable","type":"function"}],"devdoc":{"methods":{},"stateVariables":{"deployer":{"details":"keeping deployer private since this wallet will be used for onetime     calling setInitialValues method, after that it has no special role.     Hence it doesn't make sence creating a method by marking it public."}}},"evm":{"assembly":"    /* \"ESN/ReversePlasma.sol\":282:6296  contract ReversePlasma {... */\n  mstore(0x40, 0x80)\n    /* \"ESN/ReversePlasma.sol\":964:968  this */\n  address\n    /* \"ESN/ReversePlasma.sol\":917:969  address public reverseDepositAddress = address(this) */\n  0x03\n  exp(0x0100, 0x00)\n  dup2\n  sload\n  dup2\n  0xffffffffffffffffffffffffffffffffffffffff\n  mul\n  not\n  and\n  swap1\n  dup4\n  0xffffffffffffffffffffffffffffffffffffffff\n  and\n  mul\n  or\n  swap1\n  sstore\n  pop\n    /* \"ESN/ReversePlasma.sol\":1318:1368  constructor() public {... */\n  callvalue\n  dup1\n  iszero\n  tag_1\n  jumpi\n  0x00\n  dup1\n  revert\ntag_1:\n  pop\n    /* \"ESN/ReversePlasma.sol\":1354:1364  msg.sender */\n  caller\n    /* \"ESN/ReversePlasma.sol\":1343:1351  deployer */\n  0x00\n  dup1\n    /* \"ESN/ReversePlasma.sol\":1343:1364  deployer = msg.sender */\n  0x0100\n  exp\n  dup2\n  sload\n  dup2\n  0xffffffffffffffffffffffffffffffffffffffff\n  mul\n  not\n  and\n  swap1\n  dup4\n  0xffffffffffffffffffffffffffffffffffffffff\n  and\n  mul\n  or\n  swap1\n  sstore\n  pop\n    /* \"ESN/ReversePlasma.sol\":282:6296  contract ReversePlasma {... */\n  dataSize(sub_0)\n  dup1\n  dataOffset(sub_0)\n  0x00\n  codecopy\n  0x00\n  return\nstop\n\nsub_0: assembly {\n        /* \"ESN/ReversePlasma.sol\":282:6296  contract ReversePlasma {... */\n      mstore(0x40, 0x80)\n      callvalue\n      dup1\n      iszero\n      tag_1\n      jumpi\n      0x00\n      dup1\n      revert\n    tag_1:\n      pop\n      jumpi(tag_2, lt(calldatasize, 0x04))\n      shr(0xe0, calldataload(0x00))\n      dup1\n      0x5f281006\n      gt\n      tag_18\n      jumpi\n      dup1\n      0xd7ef9dcc\n      gt\n      tag_19\n      jumpi\n      dup1\n      0xd7ef9dcc\n      eq\n      tag_14\n      jumpi\n      dup1\n      0xf3513a37\n      eq\n      tag_15\n      jumpi\n      dup1\n      0xf80339a8\n      eq\n      tag_16\n      jumpi\n      dup1\n      0xfacd743b\n      eq\n      tag_17\n      jumpi\n      jump(tag_2)\n    tag_19:\n      dup1\n      0x5f281006\n      eq\n      tag_10\n      jumpi\n      dup1\n      0x74c2c698\n      eq\n      tag_11\n      jumpi\n      dup1\n      0x9d382ed0\n      eq\n      tag_12\n      jumpi\n      dup1\n      0xbe08be6d\n      eq\n      tag_13\n      jumpi\n      jump(tag_2)\n    tag_18:\n      dup1\n      0x3ce03bdd\n      gt\n      tag_20\n      jumpi\n      dup1\n      0x3ce03bdd\n      eq\n      tag_6\n      jumpi\n      dup1\n      0x439ef4d3\n      eq\n      tag_7\n      jumpi\n      dup1\n      0x4599c788\n      eq\n      tag_8\n      jumpi\n      dup1\n      0x5053f5fd\n      eq\n      tag_9\n      jumpi\n      jump(tag_2)\n    tag_20:\n      dup1\n      0x0635ce00\n      eq\n      tag_3\n      jumpi\n      dup1\n      0x1b1aa8b8\n      eq\n      tag_4\n      jumpi\n      dup1\n      0x1ba853d0\n      eq\n      tag_5\n      jumpi\n    tag_2:\n      0x00\n      dup1\n      revert\n        /* \"ESN/ReversePlasma.sol\":1071:1132  mapping(uint256 => BlockHeaderFinalized) public ethBlockchain */\n    tag_3:\n      tag_21\n      0x04\n      dup1\n      calldatasize\n      sub\n      0x20\n      dup2\n      lt\n      iszero\n      tag_22\n      jumpi\n      0x00\n      dup1\n      revert\n    tag_22:\n      dup2\n      add\n      swap1\n      dup1\n      dup1\n      calldataload\n      swap1\n      0x20\n      add\n      swap1\n      swap3\n      swap2\n      swap1\n      pop\n      pop\n      pop\n      tag_23\n      jump\t// in\n    tag_21:\n      mload(0x40)\n      dup1\n      dup4\n      dup2\n      mstore\n      0x20\n      add\n      dup3\n      dup2\n      mstore\n      0x20\n      add\n      swap3\n      pop\n      pop\n      pop\n      mload(0x40)\n      dup1\n      swap2\n      sub\n      swap1\n      return\n        /* \"ESN/ReversePlasma.sol\":5276:5403  function getProposalsCount(uint256 _blockNumber) public view returns (uint256) {... */\n    tag_4:\n      tag_24\n      0x04\n      dup1\n      calldatasize\n      sub\n      0x20\n      dup2\n      lt\n      iszero\n      tag_25\n      jumpi\n      0x00\n      dup1\n      revert\n    tag_25:\n      dup2\n      add\n      swap1\n      dup1\n      dup1\n      calldataload\n      swap1\n      0x20\n      add\n      swap1\n      swap3\n      swap2\n      swap1\n      pop\n      pop\n      pop\n      tag_26\n      jump\t// in\n    tag_24:\n      mload(0x40)\n      dup1\n      dup3\n      dup2\n      mstore\n      0x20\n      add\n      swap2\n      pop\n      pop\n      mload(0x40)\n      dup1\n      swap2\n      sub\n      swap1\n      return\n        /* \"ESN/ReversePlasma.sol\":2187:2310  function updateDepositAddress(address _reverseDepositAddress) public {... */\n    tag_5:\n      tag_27\n      0x04\n      dup1\n      calldatasize\n      sub\n      0x20\n      dup2\n      lt\n      iszero\n      tag_28\n      jumpi\n      0x00\n      dup1\n      revert\n    tag_28:\n      dup2\n      add\n      swap1\n      dup1\n      dup1\n      calldataload\n      0xffffffffffffffffffffffffffffffffffffffff\n      and\n      swap1\n      0x20\n      add\n      swap1\n      swap3\n      swap2\n      swap1\n      pop\n      pop\n      pop\n      tag_29\n      jump\t// in\n    tag_27:\n      stop\n        /* \"ESN/ReversePlasma.sol\":972:1003  address[] public mainValidators */\n    tag_6:\n      tag_30\n      0x04\n      dup1\n      calldatasize\n      sub\n      0x20\n      dup2\n      lt\n      iszero\n      tag_31\n      jumpi\n      0x00\n      dup1\n      revert\n    tag_31:\n      dup2\n      add\n      swap1\n      dup1\n      dup1\n      calldataload\n      swap1\n      0x20\n      add\n      swap1\n      swap3\n      swap2\n      swap1\n      pop\n      pop\n      pop\n      tag_32\n      jump\t// in\n    tag_30:\n      mload(0x40)\n      dup1\n      dup3\n      0xffffffffffffffffffffffffffffffffffffffff\n      and\n      0xffffffffffffffffffffffffffffffffffffffff\n      and\n      dup2\n      mstore\n      0x20\n      add\n      swap2\n      pop\n      pop\n      mload(0x40)\n      dup1\n      swap2\n      sub\n      swap1\n      return\n        /* \"ESN/ReversePlasma.sol\":5080:5273  function getProposalValidators(uint256 _blockNumber, uint256 _proposalId)... */\n    tag_7:\n      tag_33\n      0x04\n      dup1\n      calldatasize\n      sub\n      0x40\n      dup2\n      lt\n      iszero\n      tag_34\n      jumpi\n      0x00\n      dup1\n      revert\n    tag_34:\n      dup2\n      add\n      swap1\n      dup1\n      dup1\n      calldataload\n      swap1\n      0x20\n      add\n      swap1\n      swap3\n      swap2\n      swap1\n      dup1\n      calldataload\n      swap1\n      0x20\n      add\n      swap1\n      swap3\n      swap2\n      swap1\n      pop\n      pop\n      pop\n      tag_35\n      jump\t// in\n    tag_33:\n      mload(0x40)\n      dup1\n      dup1\n      0x20\n      add\n      dup3\n      dup2\n      sub\n      dup3\n      mstore\n      dup4\n      dup2\n      dup2\n      mload\n      dup2\n      mstore\n      0x20\n      add\n      swap2\n      pop\n      dup1\n      mload\n      swap1\n      0x20\n      add\n      swap1\n      0x20\n      mul\n      dup1\n      dup4\n      dup4\n      0x00\n    tag_36:\n      dup4\n      dup2\n      lt\n      iszero\n      tag_38\n      jumpi\n      dup1\n      dup3\n      add\n      mload\n      dup2\n      dup5\n      add\n      mstore\n      0x20\n      dup2\n      add\n      swap1\n      pop\n      jump(tag_36)\n    tag_38:\n      pop\n      pop\n      pop\n      pop\n      swap1\n      pop\n      add\n      swap3\n      pop\n      pop\n      pop\n      mload(0x40)\n      dup1\n      swap2\n      sub\n      swap1\n      return\n        /* \"ESN/ReversePlasma.sol\":854:886  uint256 public latestBlockNumber */\n    tag_8:\n      tag_39\n      tag_40\n      jump\t// in\n    tag_39:\n      mload(0x40)\n      dup1\n      dup3\n      dup2\n      mstore\n      0x20\n      add\n      swap2\n      pop\n      pop\n      mload(0x40)\n      dup1\n      swap2\n      sub\n      swap1\n      return\n        /* \"ESN/ReversePlasma.sol\":889:914  address public tokenOnETH */\n    tag_9:\n      tag_41\n      tag_42\n      jump\t// in\n    tag_41:\n      mload(0x40)\n      dup1\n      dup3\n      0xffffffffffffffffffffffffffffffffffffffff\n      and\n      0xffffffffffffffffffffffffffffffffffffffff\n      and\n      dup2\n      mstore\n      0x20\n      add\n      swap2\n      pop\n      pop\n      mload(0x40)\n      dup1\n      swap2\n      sub\n      swap1\n      return\n        /* \"ESN/ReversePlasma.sol\":1371:2128  function setInitialValues(... */\n    tag_10:\n      tag_43\n      0x04\n      dup1\n      calldatasize\n      sub\n      0x60\n      dup2\n      lt\n      iszero\n      tag_44\n      jumpi\n      0x00\n      dup1\n      revert\n    tag_44:\n      dup2\n      add\n      swap1\n      dup1\n      dup1\n      calldataload\n      0xffffffffffffffffffffffffffffffffffffffff\n      and\n      swap1\n      0x20\n      add\n      swap1\n      swap3\n      swap2\n      swap1\n      dup1\n      calldataload\n      swap1\n      0x20\n      add\n      swap1\n      swap3\n      swap2\n      swap1\n      dup1\n      calldataload\n      swap1\n      0x20\n      add\n      swap1\n      0x0100000000\n      dup2\n      gt\n      iszero\n      tag_45\n      jumpi\n      0x00\n      dup1\n      revert\n    tag_45:\n      dup3\n      add\n      dup4\n      0x20\n      dup3\n      add\n      gt\n      iszero\n      tag_46\n      jumpi\n      0x00\n      dup1\n      revert\n    tag_46:\n      dup1\n      calldataload\n      swap1\n      0x20\n      add\n      swap2\n      dup5\n      0x20\n      dup4\n      mul\n      dup5\n      add\n      gt\n      0x0100000000\n      dup4\n      gt\n      or\n      iszero\n      tag_47\n      jumpi\n      0x00\n      dup1\n      revert\n    tag_47:\n      swap2\n      swap1\n      dup1\n      dup1\n      0x20\n      mul\n      0x20\n      add\n      mload(0x40)\n      swap1\n      dup2\n      add\n      0x40\n      mstore\n      dup1\n      swap4\n      swap3\n      swap2\n      swap1\n      dup2\n      dup2\n      mstore\n      0x20\n      add\n      dup4\n      dup4\n      0x20\n      mul\n      dup1\n      dup3\n      dup5\n      calldatacopy\n      0x00\n      dup2\n      dup5\n      add\n      mstore\n      not(0x1f)\n      0x1f\n      dup3\n      add\n      and\n      swap1\n      pop\n      dup1\n      dup4\n      add\n      swap3\n      pop\n      pop\n      pop\n      pop\n      pop\n      pop\n      pop\n      swap2\n      swap3\n      swap2\n      swap3\n      swap1\n      pop\n      pop\n      pop\n      tag_48\n      jump\t// in\n    tag_43:\n      stop\n        /* \"ESN/ReversePlasma.sol\":2313:3399  function proposeBlock(bytes memory _blockHeader) public {... */\n    tag_11:\n      tag_49\n      0x04\n      dup1\n      calldatasize\n      sub\n      0x20\n      dup2\n      lt\n      iszero\n      tag_50\n      jumpi\n      0x00\n      dup1\n      revert\n    tag_50:\n      dup2\n      add\n      swap1\n      dup1\n      dup1\n      calldataload\n      swap1\n      0x20\n      add\n      swap1\n      0x0100000000\n      dup2\n      gt\n      iszero\n      tag_51\n      jumpi\n      0x00\n      dup1\n      revert\n    tag_51:\n      dup3\n      add\n      dup4\n      0x20\n      dup3\n      add\n      gt\n      iszero\n      tag_52\n      jumpi\n      0x00\n      dup1\n      revert\n    tag_52:\n      dup1\n      calldataload\n      swap1\n      0x20\n      add\n      swap2\n      dup5\n      0x01\n      dup4\n      mul\n      dup5\n      add\n      gt\n      0x0100000000\n      dup4\n      gt\n      or\n      iszero\n      tag_53\n      jumpi\n      0x00\n      dup1\n      revert\n    tag_53:\n      swap2\n      swap1\n      dup1\n      dup1\n      0x1f\n      add\n      0x20\n      dup1\n      swap2\n      div\n      mul\n      0x20\n      add\n      mload(0x40)\n      swap1\n      dup2\n      add\n      0x40\n      mstore\n      dup1\n      swap4\n      swap3\n      swap2\n      swap1\n      dup2\n      dup2\n      mstore\n      0x20\n      add\n      dup4\n      dup4\n      dup1\n      dup3\n      dup5\n      calldatacopy\n      0x00\n      dup2\n      dup5\n      add\n      mstore\n      not(0x1f)\n      0x1f\n      dup3\n      add\n      and\n      swap1\n      pop\n      dup1\n      dup4\n      add\n      swap3\n      pop\n      pop\n      pop\n      pop\n      pop\n      pop\n      pop\n      swap2\n      swap3\n      swap2\n      swap3\n      swap1\n      pop\n      pop\n      pop\n      tag_54\n      jump\t// in\n    tag_49:\n      stop\n        /* \"ESN/ReversePlasma.sol\":917:969  address public reverseDepositAddress = address(this) */\n    tag_12:\n      tag_55\n      tag_56\n      jump\t// in\n    tag_55:\n      mload(0x40)\n      dup1\n      dup3\n      0xffffffffffffffffffffffffffffffffffffffff\n      and\n      0xffffffffffffffffffffffffffffffffffffffff\n      and\n      dup2\n      mstore\n      0x20\n      add\n      swap2\n      pop\n      pop\n      mload(0x40)\n      dup1\n      swap2\n      sub\n      swap1\n      return\n        /* \"ESN/ReversePlasma.sol\":5406:5824  function findProposal(... */\n    tag_13:\n      tag_57\n      0x04\n      dup1\n      calldatasize\n      sub\n      0x60\n      dup2\n      lt\n      iszero\n      tag_58\n      jumpi\n      0x00\n      dup1\n      revert\n    tag_58:\n      dup2\n      add\n      swap1\n      dup1\n      dup1\n      calldataload\n      swap1\n      0x20\n      add\n      swap1\n      swap3\n      swap2\n      swap1\n      dup1\n      calldataload\n      swap1\n      0x20\n      add\n      swap1\n      swap3\n      swap2\n      swap1\n      dup1\n      calldataload\n      swap1\n      0x20\n      add\n      swap1\n      swap3\n      swap2\n      swap1\n      pop\n      pop\n      pop\n      tag_59\n      jump\t// in\n    tag_57:\n      mload(0x40)\n      dup1\n      dup4\n      iszero\n      iszero\n      iszero\n      iszero\n      dup2\n      mstore\n      0x20\n      add\n      dup3\n      dup2\n      mstore\n      0x20\n      add\n      swap3\n      pop\n      pop\n      pop\n      mload(0x40)\n      dup1\n      swap2\n      sub\n      swap1\n      return\n        /* \"ESN/ReversePlasma.sol\":1007:1068  mapping(uint256 => BlockHeaderProposal[]) public ethProposals */\n    tag_14:\n      tag_60\n      0x04\n      dup1\n      calldatasize\n      sub\n      0x40\n      dup2\n      lt\n      iszero\n      tag_61\n      jumpi\n      0x00\n      dup1\n      revert\n    tag_61:\n      dup2\n      add\n      swap1\n      dup1\n      dup1\n      calldataload\n      swap1\n      0x20\n      add\n      swap1\n      swap3\n      swap2\n      swap1\n      dup1\n      calldataload\n      swap1\n      0x20\n      add\n      swap1\n      swap3\n      swap2\n      swap1\n      pop\n      pop\n      pop\n      tag_62\n      jump\t// in\n    tag_60:\n      mload(0x40)\n      dup1\n      dup4\n      dup2\n      mstore\n      0x20\n      add\n      dup3\n      dup2\n      mstore\n      0x20\n      add\n      swap3\n      pop\n      pop\n      pop\n      mload(0x40)\n      dup1\n      swap2\n      sub\n      swap1\n      return\n        /* \"ESN/ReversePlasma.sol\":5827:5923  function getAllValidators() public view returns (address[] memory) {... */\n    tag_15:\n      tag_63\n      tag_64\n      jump\t// in\n    tag_63:\n      mload(0x40)\n      dup1\n      dup1\n      0x20\n      add\n      dup3\n      dup2\n      sub\n      dup3\n      mstore\n      dup4\n      dup2\n      dup2\n      mload\n      dup2\n      mstore\n      0x20\n      add\n      swap2\n      pop\n      dup1\n      mload\n      swap1\n      0x20\n      add\n      swap1\n      0x20\n      mul\n      dup1\n      dup4\n      dup4\n      0x00\n    tag_65:\n      dup4\n      dup2\n      lt\n      iszero\n      tag_67\n      jumpi\n      dup1\n      dup3\n      add\n      mload\n      dup2\n      dup5\n      add\n      mstore\n      0x20\n      dup2\n      add\n      swap1\n      pop\n      jump(tag_65)\n    tag_67:\n      pop\n      pop\n      pop\n      pop\n      swap1\n      pop\n      add\n      swap3\n      pop\n      pop\n      pop\n      mload(0x40)\n      dup1\n      swap2\n      sub\n      swap1\n      return\n        /* \"ESN/ReversePlasma.sol\":3402:4363  function finalizeProposal(uint256 _blockNumber, uint256 _proposalId) public {... */\n    tag_16:\n      tag_68\n      0x04\n      dup1\n      calldatasize\n      sub\n      0x40\n      dup2\n      lt\n      iszero\n      tag_69\n      jumpi\n      0x00\n      dup1\n      revert\n    tag_69:\n      dup2\n      add\n      swap1\n      dup1\n      dup1\n      calldataload\n      swap1\n      0x20\n      add\n      swap1\n      swap3\n      swap2\n      swap1\n      dup1\n      calldataload\n      swap1\n      0x20\n      add\n      swap1\n      swap3\n      swap2\n      swap1\n      pop\n      pop\n      pop\n      tag_70\n      jump\t// in\n    tag_68:\n      stop\n        /* \"ESN/ReversePlasma.sol\":4864:5077  function isValidator(address _validator) public view returns (bool) {... */\n    tag_17:\n      tag_71\n      0x04\n      dup1\n      calldatasize\n      sub\n      0x20\n      dup2\n      lt\n      iszero\n      tag_72\n      jumpi\n      0x00\n      dup1\n      revert\n    tag_72:\n      dup2\n      add\n      swap1\n      dup1\n      dup1\n      calldataload\n      0xffffffffffffffffffffffffffffffffffffffff\n      and\n      swap1\n      0x20\n      add\n      swap1\n      swap3\n      swap2\n      swap1\n      pop\n      pop\n      pop\n      tag_73\n      jump\t// in\n    tag_71:\n      mload(0x40)\n      dup1\n      dup3\n      iszero\n      iszero\n      iszero\n      iszero\n      dup2\n      mstore\n      0x20\n      add\n      swap2\n      pop\n      pop\n      mload(0x40)\n      dup1\n      swap2\n      sub\n      swap1\n      return\n        /* \"ESN/ReversePlasma.sol\":1071:1132  mapping(uint256 => BlockHeaderFinalized) public ethBlockchain */\n    tag_23:\n      mstore(0x20, 0x06)\n      dup1\n      0x00\n      mstore\n      keccak256(0x00, 0x40)\n      0x00\n      swap2\n      pop\n      swap1\n      pop\n      dup1\n      0x00\n      add\n      sload\n      swap1\n      dup1\n      0x01\n      add\n      sload\n      swap1\n      pop\n      dup3\n      jump\t// out\n        /* \"ESN/ReversePlasma.sol\":5276:5403  function getProposalsCount(uint256 _blockNumber) public view returns (uint256) {... */\n    tag_26:\n        /* \"ESN/ReversePlasma.sol\":5346:5353  uint256 */\n      0x00\n        /* \"ESN/ReversePlasma.sol\":5366:5378  ethProposals */\n      0x05\n        /* \"ESN/ReversePlasma.sol\":5366:5392  ethProposals[_blockNumber] */\n      0x00\n        /* \"ESN/ReversePlasma.sol\":5379:5391  _blockNumber */\n      dup4\n        /* \"ESN/ReversePlasma.sol\":5366:5392  ethProposals[_blockNumber] */\n      dup2\n      mstore\n      0x20\n      add\n      swap1\n      dup2\n      mstore\n      0x20\n      add\n      0x00\n      keccak256\n        /* \"ESN/ReversePlasma.sol\":5366:5399  ethProposals[_blockNumber].length */\n      dup1\n      sload\n      swap1\n      pop\n        /* \"ESN/ReversePlasma.sol\":5359:5399  return ethProposals[_blockNumber].length */\n      swap1\n      pop\n        /* \"ESN/ReversePlasma.sol\":5276:5403  function getProposalsCount(uint256 _blockNumber) public view returns (uint256) {... */\n      swap2\n      swap1\n      pop\n      jump\t// out\n        /* \"ESN/ReversePlasma.sol\":2187:2310  function updateDepositAddress(address _reverseDepositAddress) public {... */\n    tag_29:\n        /* \"ESN/ReversePlasma.sol\":2284:2306  _reverseDepositAddress */\n      dup1\n        /* \"ESN/ReversePlasma.sol\":2260:2281  reverseDepositAddress */\n      0x03\n      0x00\n        /* \"ESN/ReversePlasma.sol\":2260:2306  reverseDepositAddress = _reverseDepositAddress */\n      0x0100\n      exp\n      dup2\n      sload\n      dup2\n      0xffffffffffffffffffffffffffffffffffffffff\n      mul\n      not\n      and\n      swap1\n      dup4\n      0xffffffffffffffffffffffffffffffffffffffff\n      and\n      mul\n      or\n      swap1\n      sstore\n      pop\n        /* \"ESN/ReversePlasma.sol\":2187:2310  function updateDepositAddress(address _reverseDepositAddress) public {... */\n      pop\n      jump\t// out\n        /* \"ESN/ReversePlasma.sol\":972:1003  address[] public mainValidators */\n    tag_32:\n      0x04\n      dup2\n      dup2\n      sload\n      dup2\n      lt\n      tag_76\n      jumpi\n      invalid\n    tag_76:\n      swap1\n      0x00\n      mstore\n      keccak256(0x00, 0x20)\n      add\n      0x00\n      swap2\n      pop\n      sload\n      swap1\n      0x0100\n      exp\n      swap1\n      div\n      0xffffffffffffffffffffffffffffffffffffffff\n      and\n      dup2\n      jump\t// out\n        /* \"ESN/ReversePlasma.sol\":5080:5273  function getProposalValidators(uint256 _blockNumber, uint256 _proposalId)... */\n    tag_35:\n        /* \"ESN/ReversePlasma.sol\":5181:5197  address[] memory */\n      0x60\n        /* \"ESN/ReversePlasma.sol\":5211:5223  ethProposals */\n      0x05\n        /* \"ESN/ReversePlasma.sol\":5211:5237  ethProposals[_blockNumber] */\n      0x00\n        /* \"ESN/ReversePlasma.sol\":5224:5236  _blockNumber */\n      dup5\n        /* \"ESN/ReversePlasma.sol\":5211:5237  ethProposals[_blockNumber] */\n      dup2\n      mstore\n      0x20\n      add\n      swap1\n      dup2\n      mstore\n      0x20\n      add\n      0x00\n      keccak256\n        /* \"ESN/ReversePlasma.sol\":5238:5249  _proposalId */\n      dup3\n        /* \"ESN/ReversePlasma.sol\":5211:5250  ethProposals[_blockNumber][_proposalId] */\n      dup2\n      sload\n      dup2\n      lt\n      tag_79\n      jumpi\n      invalid\n    tag_79:\n      swap1\n      0x00\n      mstore\n      keccak256(0x00, 0x20)\n      swap1\n      0x03\n      mul\n      add\n        /* \"ESN/ReversePlasma.sol\":5211:5269  ethProposals[_blockNumber][_proposalId].proposalValidators */\n      0x02\n      add\n        /* \"ESN/ReversePlasma.sol\":5204:5269  return ethProposals[_blockNumber][_proposalId].proposalValidators */\n      dup1\n      sload\n      dup1\n      0x20\n      mul\n      0x20\n      add\n      mload(0x40)\n      swap1\n      dup2\n      add\n      0x40\n      mstore\n      dup1\n      swap3\n      swap2\n      swap1\n      dup2\n      dup2\n      mstore\n      0x20\n      add\n      dup3\n      dup1\n      sload\n      dup1\n      iszero\n      tag_81\n      jumpi\n      0x20\n      mul\n      dup3\n      add\n      swap2\n      swap1\n      0x00\n      mstore\n      keccak256(0x00, 0x20)\n      swap1\n    tag_82:\n      dup2\n      0x00\n      swap1\n      sload\n      swap1\n      0x0100\n      exp\n      swap1\n      div\n      0xffffffffffffffffffffffffffffffffffffffff\n      and\n      0xffffffffffffffffffffffffffffffffffffffff\n      and\n      dup2\n      mstore\n      0x20\n      add\n      swap1\n      0x01\n      add\n      swap1\n      dup1\n      dup4\n      gt\n      tag_82\n      jumpi\n    tag_81:\n      pop\n      pop\n      pop\n      pop\n      pop\n      swap1\n      pop\n        /* \"ESN/ReversePlasma.sol\":5080:5273  function getProposalValidators(uint256 _blockNumber, uint256 _proposalId)... */\n      swap3\n      swap2\n      pop\n      pop\n      jump\t// out\n        /* \"ESN/ReversePlasma.sol\":854:886  uint256 public latestBlockNumber */\n    tag_40:\n      sload(0x01)\n      dup2\n      jump\t// out\n        /* \"ESN/ReversePlasma.sol\":889:914  address public tokenOnETH */\n    tag_42:\n      0x02\n      0x00\n      swap1\n      sload\n      swap1\n      0x0100\n      exp\n      swap1\n      div\n      0xffffffffffffffffffffffffffffffffffffffff\n      and\n      dup2\n      jump\t// out\n        /* \"ESN/ReversePlasma.sol\":1371:2128  function setInitialValues(... */\n    tag_48:\n        /* \"ESN/ReversePlasma.sol\":1517:1525  deployer */\n      0x00\n      dup1\n      swap1\n      sload\n      swap1\n      0x0100\n      exp\n      swap1\n      div\n      0xffffffffffffffffffffffffffffffffffffffff\n      and\n        /* \"ESN/ReversePlasma.sol\":1503:1525  msg.sender == deployer */\n      0xffffffffffffffffffffffffffffffffffffffff\n      and\n        /* \"ESN/ReversePlasma.sol\":1503:1513  msg.sender */\n      caller\n        /* \"ESN/ReversePlasma.sol\":1503:1525  msg.sender == deployer */\n      0xffffffffffffffffffffffffffffffffffffffff\n      and\n      eq\n        /* \"ESN/ReversePlasma.sol\":1495:1560  require(msg.sender == deployer, \"RPLSMA: Only deployer can call\") */\n      tag_84\n      jumpi\n      mload(0x40)\n      0x08c379a000000000000000000000000000000000000000000000000000000000\n      dup2\n      mstore\n      0x04\n      add\n      dup1\n      dup1\n      0x20\n      add\n      dup3\n      dup2\n      sub\n      dup3\n      mstore\n      0x1e\n      dup2\n      mstore\n      0x20\n      add\n      dup1\n      0x52504c534d413a204f6e6c79206465706c6f7965722063616e2063616c6c0000\n      dup2\n      mstore\n      pop\n      0x20\n      add\n      swap2\n      pop\n      pop\n      mload(0x40)\n      dup1\n      swap2\n      sub\n      swap1\n      revert\n    tag_84:\n        /* \"ESN/ReversePlasma.sol\":1592:1593  0 */\n      0x00\n        /* \"ESN/ReversePlasma.sol\":1569:1594  _tokenOnETH != address(0) */\n      0xffffffffffffffffffffffffffffffffffffffff\n      and\n        /* \"ESN/ReversePlasma.sol\":1569:1580  _tokenOnETH */\n      dup4\n        /* \"ESN/ReversePlasma.sol\":1569:1594  _tokenOnETH != address(0) */\n      0xffffffffffffffffffffffffffffffffffffffff\n      and\n      eq\n        /* \"ESN/ReversePlasma.sol\":1565:1712  if (_tokenOnETH != address(0)) {... */\n      tag_85\n      jumpi\n        /* \"ESN/ReversePlasma.sol\":1640:1641  0 */\n      0x00\n        /* \"ESN/ReversePlasma.sol\":1609:1642  address(tokenOnETH) == address(0) */\n      0xffffffffffffffffffffffffffffffffffffffff\n      and\n        /* \"ESN/ReversePlasma.sol\":1617:1627  tokenOnETH */\n      0x02\n      0x00\n      swap1\n      sload\n      swap1\n      0x0100\n      exp\n      swap1\n      div\n      0xffffffffffffffffffffffffffffffffffffffff\n      and\n        /* \"ESN/ReversePlasma.sol\":1609:1642  address(tokenOnETH) == address(0) */\n      0xffffffffffffffffffffffffffffffffffffffff\n      and\n      eq\n        /* \"ESN/ReversePlasma.sol\":1601:1677  require(address(tokenOnETH) == address(0), \"RPLSMA: Token adrs already set\") */\n      tag_86\n      jumpi\n      mload(0x40)\n      0x08c379a000000000000000000000000000000000000000000000000000000000\n      dup2\n      mstore\n      0x04\n      add\n      dup1\n      dup1\n      0x20\n      add\n      dup3\n      dup2\n      sub\n      dup3\n      mstore\n      0x1e\n      dup2\n      mstore\n      0x20\n      add\n      dup1\n      0x52504c534d413a20546f6b656e206164727320616c7265616479207365740000\n      dup2\n      mstore\n      pop\n      0x20\n      add\n      swap2\n      pop\n      pop\n      mload(0x40)\n      dup1\n      swap2\n      sub\n      swap1\n      revert\n    tag_86:\n        /* \"ESN/ReversePlasma.sol\":1696:1707  _tokenOnETH */\n      dup3\n        /* \"ESN/ReversePlasma.sol\":1683:1693  tokenOnETH */\n      0x02\n      0x00\n        /* \"ESN/ReversePlasma.sol\":1683:1707  tokenOnETH = _tokenOnETH */\n      0x0100\n      exp\n      dup2\n      sload\n      dup2\n      0xffffffffffffffffffffffffffffffffffffffff\n      mul\n      not\n      and\n      swap1\n      dup4\n      0xffffffffffffffffffffffffffffffffffffffff\n      and\n      mul\n      or\n      swap1\n      sstore\n      pop\n        /* \"ESN/ReversePlasma.sol\":1565:1712  if (_tokenOnETH != address(0)) {... */\n    tag_85:\n        /* \"ESN/ReversePlasma.sol\":1741:1742  0 */\n      0x00\n        /* \"ESN/ReversePlasma.sol\":1720:1737  _startBlockNumber */\n      dup3\n        /* \"ESN/ReversePlasma.sol\":1720:1742  _startBlockNumber != 0 */\n      eq\n        /* \"ESN/ReversePlasma.sol\":1716:1868  if (_startBlockNumber != 0) {... */\n      tag_87\n      jumpi\n        /* \"ESN/ReversePlasma.sol\":1778:1779  0 */\n      0x00\n        /* \"ESN/ReversePlasma.sol\":1757:1774  latestBlockNumber */\n      sload(0x01)\n        /* \"ESN/ReversePlasma.sol\":1757:1779  latestBlockNumber == 0 */\n      eq\n        /* \"ESN/ReversePlasma.sol\":1749:1816  require(latestBlockNumber == 0, \"RPLSMA: StrtBlockNum already set\") */\n      tag_88\n      jumpi\n      mload(0x40)\n      0x08c379a000000000000000000000000000000000000000000000000000000000\n      dup2\n      mstore\n      0x04\n      add\n      dup1\n      dup1\n      0x20\n      add\n      dup3\n      dup2\n      sub\n      dup3\n      mstore\n      0x20\n      dup2\n      mstore\n      0x20\n      add\n      dup1\n      0x52504c534d413a2053747274426c6f636b4e756d20616c726561647920736574\n      dup2\n      mstore\n      pop\n      0x20\n      add\n      swap2\n      pop\n      pop\n      mload(0x40)\n      dup1\n      swap2\n      sub\n      swap1\n      revert\n    tag_88:\n        /* \"ESN/ReversePlasma.sol\":1862:1863  1 */\n      0x01\n        /* \"ESN/ReversePlasma.sol\":1842:1859  _startBlockNumber */\n      dup3\n        /* \"ESN/ReversePlasma.sol\":1842:1863  _startBlockNumber - 1 */\n      sub\n        /* \"ESN/ReversePlasma.sol\":1822:1839  latestBlockNumber */\n      0x01\n        /* \"ESN/ReversePlasma.sol\":1822:1863  latestBlockNumber = _startBlockNumber - 1 */\n      dup2\n      swap1\n      sstore\n      pop\n        /* \"ESN/ReversePlasma.sol\":1716:1868  if (_startBlockNumber != 0) {... */\n    tag_87:\n        /* \"ESN/ReversePlasma.sol\":1897:1898  0 */\n      0x00\n        /* \"ESN/ReversePlasma.sol\":1876:1887  _validators */\n      dup2\n        /* \"ESN/ReversePlasma.sol\":1876:1894  _validators.length */\n      mload\n        /* \"ESN/ReversePlasma.sol\":1876:1898  _validators.length > 0 */\n      gt\n        /* \"ESN/ReversePlasma.sol\":1872:2125  if (_validators.length > 0) {... */\n      iszero\n      tag_89\n      jumpi\n        /* \"ESN/ReversePlasma.sol\":1938:1939  0 */\n      0x00\n        /* \"ESN/ReversePlasma.sol\":1913:1927  mainValidators */\n      0x04\n        /* \"ESN/ReversePlasma.sol\":1913:1934  mainValidators.length */\n      dup1\n      sload\n      swap1\n      pop\n        /* \"ESN/ReversePlasma.sol\":1913:1939  mainValidators.length == 0 */\n      eq\n        /* \"ESN/ReversePlasma.sol\":1905:1974  require(mainValidators.length == 0, \"RPLSMA: Validators already set\") */\n      tag_90\n      jumpi\n      mload(0x40)\n      0x08c379a000000000000000000000000000000000000000000000000000000000\n      dup2\n      mstore\n      0x04\n      add\n      dup1\n      dup1\n      0x20\n      add\n      dup3\n      dup2\n      sub\n      dup3\n      mstore\n      0x1e\n      dup2\n      mstore\n      0x20\n      add\n      dup1\n      0x52504c534d413a2056616c696461746f727320616c7265616479207365740000\n      dup2\n      mstore\n      pop\n      0x20\n      add\n      swap2\n      pop\n      pop\n      mload(0x40)\n      dup1\n      swap2\n      sub\n      swap1\n      revert\n    tag_90:\n        /* \"ESN/ReversePlasma.sol\":2109:2120  _validators */\n      dup1\n        /* \"ESN/ReversePlasma.sol\":2092:2106  mainValidators */\n      0x04\n        /* \"ESN/ReversePlasma.sol\":2092:2120  mainValidators = _validators */\n      swap1\n      dup1\n      mload\n      swap1\n      0x20\n      add\n      swap1\n      tag_91\n      swap3\n      swap2\n      swap1\n      tag_92\n      jump\t// in\n    tag_91:\n      pop\n        /* \"ESN/ReversePlasma.sol\":1872:2125  if (_validators.length > 0) {... */\n    tag_89:\n        /* \"ESN/ReversePlasma.sol\":1371:2128  function setInitialValues(... */\n      pop\n      pop\n      pop\n      jump\t// out\n        /* \"ESN/ReversePlasma.sol\":2313:3399  function proposeBlock(bytes memory _blockHeader) public {... */\n    tag_54:\n        /* \"ESN/ReversePlasma.sol\":2381:2404  isValidator(msg.sender) */\n      tag_94\n        /* \"ESN/ReversePlasma.sol\":2393:2403  msg.sender */\n      caller\n        /* \"ESN/ReversePlasma.sol\":2381:2392  isValidator */\n      tag_73\n        /* \"ESN/ReversePlasma.sol\":2381:2404  isValidator(msg.sender) */\n      jump\t// in\n    tag_94:\n        /* \"ESN/ReversePlasma.sol\":2373:2432  require(isValidator(msg.sender), \"RPLSMA: not a validator\") */\n      tag_95\n      jumpi\n      mload(0x40)\n      0x08c379a000000000000000000000000000000000000000000000000000000000\n      dup2\n      mstore\n      0x04\n      add\n      dup1\n      dup1\n      0x20\n      add\n      dup3\n      dup2\n      sub\n      dup3\n      mstore\n      0x17\n      dup2\n      mstore\n      0x20\n      add\n      dup1\n      0x52504c534d413a206e6f7420612076616c696461746f72000000000000000000\n      dup2\n      mstore\n      pop\n      0x20\n      add\n      swap2\n      pop\n      pop\n      mload(0x40)\n      dup1\n      swap2\n      sub\n      swap1\n      revert\n    tag_95:\n        /* \"ESN/ReversePlasma.sol\":2437:2457  uint256 _blockNumber */\n      0x00\n        /* \"ESN/ReversePlasma.sol\":2461:2486  bytes32 _transactionsRoot */\n      dup1\n        /* \"ESN/ReversePlasma.sol\":2490:2511  bytes32 _receiptsRoot */\n      0x00\n        /* \"ESN/ReversePlasma.sol\":2564:2568  0x20 */\n      0x20\n        /* \"ESN/ReversePlasma.sol\":2550:2562  _blockHeader */\n      dup5\n        /* \"ESN/ReversePlasma.sol\":2546:2569  add(_blockHeader, 0x20) */\n      add\n        /* \"ESN/ReversePlasma.sol\":2595:2603  _pointer */\n      dup1\n        /* \"ESN/ReversePlasma.sol\":2589:2604  mload(_pointer) */\n      mload\n        /* \"ESN/ReversePlasma.sol\":2573:2604  _blockNumber := mload(_pointer) */\n      swap4\n      pop\n        /* \"ESN/ReversePlasma.sol\":2649:2653  0x20 */\n      0x20\n        /* \"ESN/ReversePlasma.sol\":2639:2647  _pointer */\n      dup2\n        /* \"ESN/ReversePlasma.sol\":2635:2654  add(_pointer, 0x20) */\n      add\n        /* \"ESN/ReversePlasma.sol\":2629:2655  mload(add(_pointer, 0x20)) */\n      mload\n        /* \"ESN/ReversePlasma.sol\":2608:2655  _transactionsRoot := mload(add(_pointer, 0x20)) */\n      swap3\n      pop\n        /* \"ESN/ReversePlasma.sol\":2696:2700  0x40 */\n      0x40\n        /* \"ESN/ReversePlasma.sol\":2686:2694  _pointer */\n      dup2\n        /* \"ESN/ReversePlasma.sol\":2682:2701  add(_pointer, 0x40) */\n      add\n        /* \"ESN/ReversePlasma.sol\":2676:2702  mload(add(_pointer, 0x40)) */\n      mload\n        /* \"ESN/ReversePlasma.sol\":2659:2702  _receiptsRoot := mload(add(_pointer, 0x40)) */\n      swap2\n      pop\n        /* \"ESN/ReversePlasma.sol\":2525:2706  {... */\n      pop\n        /* \"ESN/ReversePlasma.sol\":2759:2782  bool _doesProposalExist */\n      0x00\n        /* \"ESN/ReversePlasma.sol\":2784:2803  uint256 _proposalId */\n      dup1\n        /* \"ESN/ReversePlasma.sol\":2807:2880  findProposal(... */\n      tag_96\n        /* \"ESN/ReversePlasma.sol\":2824:2836  _blockNumber */\n      dup6\n        /* \"ESN/ReversePlasma.sol\":2841:2858  _transactionsRoot */\n      dup6\n        /* \"ESN/ReversePlasma.sol\":2863:2876  _receiptsRoot */\n      dup6\n        /* \"ESN/ReversePlasma.sol\":2807:2819  findProposal */\n      tag_59\n        /* \"ESN/ReversePlasma.sol\":2807:2880  findProposal(... */\n      jump\t// in\n    tag_96:\n        /* \"ESN/ReversePlasma.sol\":2758:2880  (bool _doesProposalExist, uint256 _proposalId) = findProposal(... */\n      swap2\n      pop\n      swap2\n      pop\n        /* \"ESN/ReversePlasma.sol\":2890:2908  _doesProposalExist */\n      dup2\n        /* \"ESN/ReversePlasma.sol\":2885:3165  if (!_doesProposalExist) {... */\n      tag_97\n      jumpi\n        /* \"ESN/ReversePlasma.sol\":2915:2927  ethProposals */\n      0x05\n        /* \"ESN/ReversePlasma.sol\":2915:2941  ethProposals[_blockNumber] */\n      0x00\n        /* \"ESN/ReversePlasma.sol\":2928:2940  _blockNumber */\n      dup7\n        /* \"ESN/ReversePlasma.sol\":2915:2941  ethProposals[_blockNumber] */\n      dup2\n      mstore\n      0x20\n      add\n      swap1\n      dup2\n      mstore\n      0x20\n      add\n      0x00\n      keccak256\n        /* \"ESN/ReversePlasma.sol\":2952:3098  BlockHeaderProposal({... */\n      mload(0x40)\n      dup1\n      0x60\n      add\n      0x40\n      mstore\n      dup1\n        /* \"ESN/ReversePlasma.sol\":2997:3014  _transactionsRoot */\n      dup7\n        /* \"ESN/ReversePlasma.sol\":2952:3098  BlockHeaderProposal({... */\n      dup2\n      mstore\n      0x20\n      add\n        /* \"ESN/ReversePlasma.sol\":3035:3048  _receiptsRoot */\n      dup6\n        /* \"ESN/ReversePlasma.sol\":2952:3098  BlockHeaderProposal({... */\n      dup2\n      mstore\n      0x20\n      add\n        /* \"ESN/ReversePlasma.sol\":3089:3090  0 */\n      0x00\n        /* \"ESN/ReversePlasma.sol\":3075:3091  new address[](0) */\n      0xffffffffffffffff\n      dup2\n      gt\n      dup1\n      iszero\n      tag_98\n      jumpi\n      0x00\n      dup1\n      revert\n    tag_98:\n      pop\n      mload(0x40)\n      swap1\n      dup1\n      dup3\n      mstore\n      dup1\n      0x20\n      mul\n      0x20\n      add\n      dup3\n      add\n      0x40\n      mstore\n      dup1\n      iszero\n      tag_99\n      jumpi\n      dup2\n      0x20\n      add\n      0x20\n      dup3\n      mul\n      dup1\n      calldatasize\n      dup4\n      calldatacopy\n      dup1\n      dup3\n      add\n      swap2\n      pop\n      pop\n      swap1\n      pop\n    tag_99:\n      pop\n        /* \"ESN/ReversePlasma.sol\":2952:3098  BlockHeaderProposal({... */\n      dup2\n      mstore\n      pop\n        /* \"ESN/ReversePlasma.sol\":2915:3103  ethProposals[_blockNumber].push(... */\n      swap1\n      dup1\n      0x01\n      dup2\n      sload\n      add\n      dup1\n      dup3\n      sstore\n      dup1\n      swap2\n      pop\n      pop\n      0x01\n      swap1\n      sub\n      swap1\n      0x00\n      mstore\n      keccak256(0x00, 0x20)\n      swap1\n      0x03\n      mul\n      add\n      0x00\n      swap1\n      swap2\n      swap1\n      swap2\n      swap1\n      swap2\n      pop\n      0x00\n      dup3\n      add\n      mload\n      dup2\n      0x00\n      add\n      sstore\n      0x20\n      dup3\n      add\n      mload\n      dup2\n      0x01\n      add\n      sstore\n      0x40\n      dup3\n      add\n      mload\n      dup2\n      0x02\n      add\n      swap1\n      dup1\n      mload\n      swap1\n      0x20\n      add\n      swap1\n      tag_101\n      swap3\n      swap2\n      swap1\n      tag_92\n      jump\t// in\n    tag_101:\n      pop\n      pop\n      pop\n        /* \"ESN/ReversePlasma.sol\":3159:3160  1 */\n      0x01\n        /* \"ESN/ReversePlasma.sol\":3123:3135  ethProposals */\n      0x05\n        /* \"ESN/ReversePlasma.sol\":3123:3149  ethProposals[_blockNumber] */\n      0x00\n        /* \"ESN/ReversePlasma.sol\":3136:3148  _blockNumber */\n      dup8\n        /* \"ESN/ReversePlasma.sol\":3123:3149  ethProposals[_blockNumber] */\n      dup2\n      mstore\n      0x20\n      add\n      swap1\n      dup2\n      mstore\n      0x20\n      add\n      0x00\n      keccak256\n        /* \"ESN/ReversePlasma.sol\":3123:3156  ethProposals[_blockNumber].length */\n      dup1\n      sload\n      swap1\n      pop\n        /* \"ESN/ReversePlasma.sol\":3123:3160  ethProposals[_blockNumber].length - 1 */\n      sub\n        /* \"ESN/ReversePlasma.sol\":3109:3160  _proposalId = ethProposals[_blockNumber].length - 1 */\n      swap1\n      pop\n        /* \"ESN/ReversePlasma.sol\":2885:3165  if (!_doesProposalExist) {... */\n    tag_97:\n        /* \"ESN/ReversePlasma.sol\":3243:3315  _removeValidatorFromAllProposals(ethProposals[_blockNumber], msg.sender) */\n      tag_102\n        /* \"ESN/ReversePlasma.sol\":3276:3288  ethProposals */\n      0x05\n        /* \"ESN/ReversePlasma.sol\":3276:3302  ethProposals[_blockNumber] */\n      0x00\n        /* \"ESN/ReversePlasma.sol\":3289:3301  _blockNumber */\n      dup8\n        /* \"ESN/ReversePlasma.sol\":3276:3302  ethProposals[_blockNumber] */\n      dup2\n      mstore\n      0x20\n      add\n      swap1\n      dup2\n      mstore\n      0x20\n      add\n      0x00\n      keccak256\n        /* \"ESN/ReversePlasma.sol\":3304:3314  msg.sender */\n      caller\n        /* \"ESN/ReversePlasma.sol\":3243:3275  _removeValidatorFromAllProposals */\n      tag_103\n        /* \"ESN/ReversePlasma.sol\":3243:3315  _removeValidatorFromAllProposals(ethProposals[_blockNumber], msg.sender) */\n      jump\t// in\n    tag_102:\n        /* \"ESN/ReversePlasma.sol\":3320:3332  ethProposals */\n      0x05\n        /* \"ESN/ReversePlasma.sol\":3320:3346  ethProposals[_blockNumber] */\n      0x00\n        /* \"ESN/ReversePlasma.sol\":3333:3345  _blockNumber */\n      dup7\n        /* \"ESN/ReversePlasma.sol\":3320:3346  ethProposals[_blockNumber] */\n      dup2\n      mstore\n      0x20\n      add\n      swap1\n      dup2\n      mstore\n      0x20\n      add\n      0x00\n      keccak256\n        /* \"ESN/ReversePlasma.sol\":3347:3358  _proposalId */\n      dup2\n        /* \"ESN/ReversePlasma.sol\":3320:3359  ethProposals[_blockNumber][_proposalId] */\n      dup2\n      sload\n      dup2\n      lt\n      tag_104\n      jumpi\n      invalid\n    tag_104:\n      swap1\n      0x00\n      mstore\n      keccak256(0x00, 0x20)\n      swap1\n      0x03\n      mul\n      add\n        /* \"ESN/ReversePlasma.sol\":3320:3378  ethProposals[_blockNumber][_proposalId].proposalValidators */\n      0x02\n      add\n        /* \"ESN/ReversePlasma.sol\":3384:3394  msg.sender */\n      caller\n        /* \"ESN/ReversePlasma.sol\":3320:3395  ethProposals[_blockNumber][_proposalId].proposalValidators.push(msg.sender) */\n      swap1\n      dup1\n      0x01\n      dup2\n      sload\n      add\n      dup1\n      dup3\n      sstore\n      dup1\n      swap2\n      pop\n      pop\n      0x01\n      swap1\n      sub\n      swap1\n      0x00\n      mstore\n      keccak256(0x00, 0x20)\n      add\n      0x00\n      swap1\n      swap2\n      swap1\n      swap2\n      swap1\n      swap2\n      0x0100\n      exp\n      dup2\n      sload\n      dup2\n      0xffffffffffffffffffffffffffffffffffffffff\n      mul\n      not\n      and\n      swap1\n      dup4\n      0xffffffffffffffffffffffffffffffffffffffff\n      and\n      mul\n      or\n      swap1\n      sstore\n      pop\n        /* \"ESN/ReversePlasma.sol\":2313:3399  function proposeBlock(bytes memory _blockHeader) public {... */\n      pop\n      pop\n      pop\n      pop\n      pop\n      pop\n      jump\t// out\n        /* \"ESN/ReversePlasma.sol\":917:969  address public reverseDepositAddress = address(this) */\n    tag_56:\n      0x03\n      0x00\n      swap1\n      sload\n      swap1\n      0x0100\n      exp\n      swap1\n      div\n      0xffffffffffffffffffffffffffffffffffffffff\n      and\n      dup2\n      jump\t// out\n        /* \"ESN/ReversePlasma.sol\":5406:5824  function findProposal(... */\n    tag_59:\n        /* \"ESN/ReversePlasma.sol\":5530:5534  bool */\n      0x00\n        /* \"ESN/ReversePlasma.sol\":5536:5543  uint256 */\n      dup1\n        /* \"ESN/ReversePlasma.sol\":5554:5563  uint256 i */\n      0x00\n        /* \"ESN/ReversePlasma.sol\":5566:5567  0 */\n      dup1\n        /* \"ESN/ReversePlasma.sol\":5554:5567  uint256 i = 0 */\n      swap1\n      pop\n        /* \"ESN/ReversePlasma.sol\":5549:5799  for (uint256 i = 0; i < ethProposals[_blockNumber].length; i++) {... */\n    tag_108:\n        /* \"ESN/ReversePlasma.sol\":5573:5585  ethProposals */\n      0x05\n        /* \"ESN/ReversePlasma.sol\":5573:5599  ethProposals[_blockNumber] */\n      0x00\n        /* \"ESN/ReversePlasma.sol\":5586:5598  _blockNumber */\n      dup8\n        /* \"ESN/ReversePlasma.sol\":5573:5599  ethProposals[_blockNumber] */\n      dup2\n      mstore\n      0x20\n      add\n      swap1\n      dup2\n      mstore\n      0x20\n      add\n      0x00\n      keccak256\n        /* \"ESN/ReversePlasma.sol\":5573:5606  ethProposals[_blockNumber].length */\n      dup1\n      sload\n      swap1\n      pop\n        /* \"ESN/ReversePlasma.sol\":5569:5570  i */\n      dup2\n        /* \"ESN/ReversePlasma.sol\":5569:5606  i < ethProposals[_blockNumber].length */\n      lt\n        /* \"ESN/ReversePlasma.sol\":5549:5799  for (uint256 i = 0; i < ethProposals[_blockNumber].length; i++) {... */\n      iszero\n      tag_109\n      jumpi\n        /* \"ESN/ReversePlasma.sol\":5648:5660  ethProposals */\n      0x05\n        /* \"ESN/ReversePlasma.sol\":5648:5674  ethProposals[_blockNumber] */\n      0x00\n        /* \"ESN/ReversePlasma.sol\":5661:5673  _blockNumber */\n      dup8\n        /* \"ESN/ReversePlasma.sol\":5648:5674  ethProposals[_blockNumber] */\n      dup2\n      mstore\n      0x20\n      add\n      swap1\n      dup2\n      mstore\n      0x20\n      add\n      0x00\n      keccak256\n        /* \"ESN/ReversePlasma.sol\":5675:5676  i */\n      dup2\n        /* \"ESN/ReversePlasma.sol\":5648:5677  ethProposals[_blockNumber][i] */\n      dup2\n      sload\n      dup2\n      lt\n      tag_111\n      jumpi\n      invalid\n    tag_111:\n      swap1\n      0x00\n      mstore\n      keccak256(0x00, 0x20)\n      swap1\n      0x03\n      mul\n      add\n        /* \"ESN/ReversePlasma.sol\":5648:5694  ethProposals[_blockNumber][i].transactionsRoot */\n      0x00\n      add\n      sload\n        /* \"ESN/ReversePlasma.sol\":5627:5644  _transactionsRoot */\n      dup6\n        /* \"ESN/ReversePlasma.sol\":5627:5694  _transactionsRoot == ethProposals[_blockNumber][i].transactionsRoot */\n      eq\n        /* \"ESN/ReversePlasma.sol\":5627:5761  _transactionsRoot == ethProposals[_blockNumber][i].transactionsRoot &&... */\n      dup1\n      iszero\n      tag_113\n      jumpi\n      pop\n        /* \"ESN/ReversePlasma.sol\":5719:5731  ethProposals */\n      0x05\n        /* \"ESN/ReversePlasma.sol\":5719:5745  ethProposals[_blockNumber] */\n      0x00\n        /* \"ESN/ReversePlasma.sol\":5732:5744  _blockNumber */\n      dup8\n        /* \"ESN/ReversePlasma.sol\":5719:5745  ethProposals[_blockNumber] */\n      dup2\n      mstore\n      0x20\n      add\n      swap1\n      dup2\n      mstore\n      0x20\n      add\n      0x00\n      keccak256\n        /* \"ESN/ReversePlasma.sol\":5746:5747  i */\n      dup2\n        /* \"ESN/ReversePlasma.sol\":5719:5748  ethProposals[_blockNumber][i] */\n      dup2\n      sload\n      dup2\n      lt\n      tag_114\n      jumpi\n      invalid\n    tag_114:\n      swap1\n      0x00\n      mstore\n      keccak256(0x00, 0x20)\n      swap1\n      0x03\n      mul\n      add\n        /* \"ESN/ReversePlasma.sol\":5719:5761  ethProposals[_blockNumber][i].receiptsRoot */\n      0x01\n      add\n      sload\n        /* \"ESN/ReversePlasma.sol\":5702:5715  _receiptsRoot */\n      dup5\n        /* \"ESN/ReversePlasma.sol\":5702:5761  _receiptsRoot == ethProposals[_blockNumber][i].receiptsRoot */\n      eq\n        /* \"ESN/ReversePlasma.sol\":5627:5761  _transactionsRoot == ethProposals[_blockNumber][i].transactionsRoot &&... */\n    tag_113:\n        /* \"ESN/ReversePlasma.sol\":5618:5795  if (... */\n      iszero\n      tag_116\n      jumpi\n        /* \"ESN/ReversePlasma.sol\":5781:5785  true */\n      0x01\n        /* \"ESN/ReversePlasma.sol\":5787:5788  i */\n      dup2\n        /* \"ESN/ReversePlasma.sol\":5773:5789  return (true, i) */\n      swap3\n      pop\n      swap3\n      pop\n      pop\n      jump(tag_107)\n        /* \"ESN/ReversePlasma.sol\":5618:5795  if (... */\n    tag_116:\n        /* \"ESN/ReversePlasma.sol\":5608:5611  i++ */\n      dup1\n      dup1\n      0x01\n      add\n      swap2\n      pop\n      pop\n        /* \"ESN/ReversePlasma.sol\":5549:5799  for (uint256 i = 0; i < ethProposals[_blockNumber].length; i++) {... */\n      jump(tag_108)\n    tag_109:\n      pop\n        /* \"ESN/ReversePlasma.sol\":5811:5816  false */\n      0x00\n        /* \"ESN/ReversePlasma.sol\":5818:5819  0 */\n      dup1\n        /* \"ESN/ReversePlasma.sol\":5803:5820  return (false, 0) */\n      dup1\n      swap1\n      pop\n      swap2\n      pop\n      swap2\n      pop\n        /* \"ESN/ReversePlasma.sol\":5406:5824  function findProposal(... */\n    tag_107:\n      swap4\n      pop\n      swap4\n      swap2\n      pop\n      pop\n      jump\t// out\n        /* \"ESN/ReversePlasma.sol\":1007:1068  mapping(uint256 => BlockHeaderProposal[]) public ethProposals */\n    tag_62:\n      mstore(0x20, 0x05)\n      dup2\n      0x00\n      mstore\n      keccak256(0x00, 0x40)\n      dup2\n      dup2\n      sload\n      dup2\n      lt\n      tag_117\n      jumpi\n      invalid\n    tag_117:\n      swap1\n      0x00\n      mstore\n      keccak256(0x00, 0x20)\n      swap1\n      0x03\n      mul\n      add\n      0x00\n      swap2\n      pop\n      swap2\n      pop\n      pop\n      dup1\n      0x00\n      add\n      sload\n      swap1\n      dup1\n      0x01\n      add\n      sload\n      swap1\n      pop\n      dup3\n      jump\t// out\n        /* \"ESN/ReversePlasma.sol\":5827:5923  function getAllValidators() public view returns (address[] memory) {... */\n    tag_64:\n        /* \"ESN/ReversePlasma.sol\":5876:5892  address[] memory */\n      0x60\n        /* \"ESN/ReversePlasma.sol\":5905:5919  mainValidators */\n      0x04\n        /* \"ESN/ReversePlasma.sol\":5898:5919  return mainValidators */\n      dup1\n      sload\n      dup1\n      0x20\n      mul\n      0x20\n      add\n      mload(0x40)\n      swap1\n      dup2\n      add\n      0x40\n      mstore\n      dup1\n      swap3\n      swap2\n      swap1\n      dup2\n      dup2\n      mstore\n      0x20\n      add\n      dup3\n      dup1\n      sload\n      dup1\n      iszero\n      tag_120\n      jumpi\n      0x20\n      mul\n      dup3\n      add\n      swap2\n      swap1\n      0x00\n      mstore\n      keccak256(0x00, 0x20)\n      swap1\n    tag_121:\n      dup2\n      0x00\n      swap1\n      sload\n      swap1\n      0x0100\n      exp\n      swap1\n      div\n      0xffffffffffffffffffffffffffffffffffffffff\n      and\n      0xffffffffffffffffffffffffffffffffffffffff\n      and\n      dup2\n      mstore\n      0x20\n      add\n      swap1\n      0x01\n      add\n      swap1\n      dup1\n      dup4\n      gt\n      tag_121\n      jumpi\n    tag_120:\n      pop\n      pop\n      pop\n      pop\n      pop\n      swap1\n      pop\n        /* \"ESN/ReversePlasma.sol\":5827:5923  function getAllValidators() public view returns (address[] memory) {... */\n      swap1\n      jump\t// out\n        /* \"ESN/ReversePlasma.sol\":3402:4363  function finalizeProposal(uint256 _blockNumber, uint256 _proposalId) public {... */\n    tag_70:\n        /* \"ESN/ReversePlasma.sol\":3526:3527  1 */\n      0x01\n        /* \"ESN/ReversePlasma.sol\":3506:3523  latestBlockNumber */\n      dup1\n      sload\n        /* \"ESN/ReversePlasma.sol\":3506:3527  latestBlockNumber + 1 */\n      add\n        /* \"ESN/ReversePlasma.sol\":3490:3502  _blockNumber */\n      dup3\n        /* \"ESN/ReversePlasma.sol\":3490:3527  _blockNumber <= latestBlockNumber + 1 */\n      gt\n      iszero\n        /* \"ESN/ReversePlasma.sol\":3482:3560  require(_blockNumber <= latestBlockNumber + 1, \"RPLSMA: invalid block number\") */\n      tag_123\n      jumpi\n      mload(0x40)\n      0x08c379a000000000000000000000000000000000000000000000000000000000\n      dup2\n      mstore\n      0x04\n      add\n      dup1\n      dup1\n      0x20\n      add\n      dup3\n      dup2\n      sub\n      dup3\n      mstore\n      0x1c\n      dup2\n      mstore\n      0x20\n      add\n      dup1\n      0x52504c534d413a20696e76616c696420626c6f636b206e756d62657200000000\n      dup2\n      mstore\n      pop\n      0x20\n      add\n      swap2\n      pop\n      pop\n      mload(0x40)\n      dup1\n      swap2\n      sub\n      swap1\n      revert\n    tag_123:\n        /* \"ESN/ReversePlasma.sol\":3564:3578  uint256 _votes */\n      0x00\n        /* \"ESN/ReversePlasma.sol\":3583:3619  address[] storage proposalValidators */\n      dup1\n        /* \"ESN/ReversePlasma.sol\":3622:3634  ethProposals */\n      0x05\n        /* \"ESN/ReversePlasma.sol\":3622:3648  ethProposals[_blockNumber] */\n      0x00\n        /* \"ESN/ReversePlasma.sol\":3635:3647  _blockNumber */\n      dup6\n        /* \"ESN/ReversePlasma.sol\":3622:3648  ethProposals[_blockNumber] */\n      dup2\n      mstore\n      0x20\n      add\n      swap1\n      dup2\n      mstore\n      0x20\n      add\n      0x00\n      keccak256\n        /* \"ESN/ReversePlasma.sol\":3649:3660  _proposalId */\n      dup4\n        /* \"ESN/ReversePlasma.sol\":3622:3661  ethProposals[_blockNumber][_proposalId] */\n      dup2\n      sload\n      dup2\n      lt\n      tag_124\n      jumpi\n      invalid\n    tag_124:\n      swap1\n      0x00\n      mstore\n      keccak256(0x00, 0x20)\n      swap1\n      0x03\n      mul\n      add\n        /* \"ESN/ReversePlasma.sol\":3622:3684  ethProposals[_blockNumber][_proposalId]... */\n      0x02\n      add\n        /* \"ESN/ReversePlasma.sol\":3583:3684  address[] storage proposalValidators = ethProposals[_blockNumber][_proposalId]... */\n      swap1\n      pop\n        /* \"ESN/ReversePlasma.sol\":3694:3703  uint256 i */\n      0x00\n        /* \"ESN/ReversePlasma.sol\":3706:3707  0 */\n      dup1\n        /* \"ESN/ReversePlasma.sol\":3694:3707  uint256 i = 0 */\n      swap1\n      pop\n        /* \"ESN/ReversePlasma.sol\":3689:3874  for (uint256 i = 0; i < proposalValidators.length; i++) {... */\n    tag_126:\n        /* \"ESN/ReversePlasma.sol\":3713:3731  proposalValidators */\n      dup2\n        /* \"ESN/ReversePlasma.sol\":3713:3738  proposalValidators.length */\n      dup1\n      sload\n      swap1\n      pop\n        /* \"ESN/ReversePlasma.sol\":3709:3710  i */\n      dup2\n        /* \"ESN/ReversePlasma.sol\":3709:3738  i < proposalValidators.length */\n      lt\n        /* \"ESN/ReversePlasma.sol\":3689:3874  for (uint256 i = 0; i < proposalValidators.length; i++) {... */\n      iszero\n      tag_127\n      jumpi\n        /* \"ESN/ReversePlasma.sol\":3814:3848  isValidator(proposalValidators[i]) */\n      tag_129\n        /* \"ESN/ReversePlasma.sol\":3826:3844  proposalValidators */\n      dup3\n        /* \"ESN/ReversePlasma.sol\":3845:3846  i */\n      dup3\n        /* \"ESN/ReversePlasma.sol\":3826:3847  proposalValidators[i] */\n      dup2\n      sload\n      dup2\n      lt\n      tag_130\n      jumpi\n      invalid\n    tag_130:\n      swap1\n      0x00\n      mstore\n      keccak256(0x00, 0x20)\n      add\n      0x00\n      swap1\n      sload\n      swap1\n      0x0100\n      exp\n      swap1\n      div\n      0xffffffffffffffffffffffffffffffffffffffff\n      and\n        /* \"ESN/ReversePlasma.sol\":3814:3825  isValidator */\n      tag_73\n        /* \"ESN/ReversePlasma.sol\":3814:3848  isValidator(proposalValidators[i]) */\n      jump\t// in\n    tag_129:\n        /* \"ESN/ReversePlasma.sol\":3810:3870  if (isValidator(proposalValidators[i])) {... */\n      iszero\n      tag_132\n      jumpi\n        /* \"ESN/ReversePlasma.sol\":3856:3864  _votes++ */\n      dup3\n      dup1\n      0x01\n      add\n      swap4\n      pop\n      pop\n        /* \"ESN/ReversePlasma.sol\":3810:3870  if (isValidator(proposalValidators[i])) {... */\n    tag_132:\n        /* \"ESN/ReversePlasma.sol\":3740:3743  i++ */\n      dup1\n      dup1\n      0x01\n      add\n      swap2\n      pop\n      pop\n        /* \"ESN/ReversePlasma.sol\":3689:3874  for (uint256 i = 0; i < proposalValidators.length; i++) {... */\n      jump(tag_126)\n    tag_127:\n      pop\n        /* \"ESN/ReversePlasma.sol\":3902:3930  mainValidators.length.mul(2) */\n      tag_133\n        /* \"ESN/ReversePlasma.sol\":3928:3929  2 */\n      0x02\n        /* \"ESN/ReversePlasma.sol\":3902:3916  mainValidators */\n      0x04\n        /* \"ESN/ReversePlasma.sol\":3902:3923  mainValidators.length */\n      dup1\n      sload\n      swap1\n      pop\n        /* \"ESN/ReversePlasma.sol\":3902:3927  mainValidators.length.mul */\n      tag_134\n      swap1\n        /* \"ESN/ReversePlasma.sol\":3902:3930  mainValidators.length.mul(2) */\n      swap2\n      swap1\n      0xffffffff\n      and\n      jump\t// in\n    tag_133:\n        /* \"ESN/ReversePlasma.sol\":3886:3899  _votes.mul(3) */\n      tag_135\n        /* \"ESN/ReversePlasma.sol\":3897:3898  3 */\n      0x03\n        /* \"ESN/ReversePlasma.sol\":3886:3892  _votes */\n      dup5\n        /* \"ESN/ReversePlasma.sol\":3886:3896  _votes.mul */\n      tag_134\n      swap1\n        /* \"ESN/ReversePlasma.sol\":3886:3899  _votes.mul(3) */\n      swap2\n      swap1\n      0xffffffff\n      and\n      jump\t// in\n    tag_135:\n        /* \"ESN/ReversePlasma.sol\":3886:3930  _votes.mul(3) > mainValidators.length.mul(2) */\n      gt\n        /* \"ESN/ReversePlasma.sol\":3878:3961  require(_votes.mul(3) > mainValidators.length.mul(2), \"RPLSMA: not 66% validators\") */\n      tag_136\n      jumpi\n      mload(0x40)\n      0x08c379a000000000000000000000000000000000000000000000000000000000\n      dup2\n      mstore\n      0x04\n      add\n      dup1\n      dup1\n      0x20\n      add\n      dup3\n      dup2\n      sub\n      dup3\n      mstore\n      0x1a\n      dup2\n      mstore\n      0x20\n      add\n      dup1\n      0x52504c534d413a206e6f74203636252076616c696461746f7273000000000000\n      dup2\n      mstore\n      pop\n      0x20\n      add\n      swap2\n      pop\n      pop\n      mload(0x40)\n      dup1\n      swap2\n      sub\n      swap1\n      revert\n    tag_136:\n        /* \"ESN/ReversePlasma.sol\":3996:4172  BlockHeaderFinalized({... */\n      mload(0x40)\n      dup1\n      0x40\n      add\n      0x40\n      mstore\n      dup1\n        /* \"ESN/ReversePlasma.sol\":4040:4052  ethProposals */\n      0x05\n        /* \"ESN/ReversePlasma.sol\":4040:4066  ethProposals[_blockNumber] */\n      0x00\n        /* \"ESN/ReversePlasma.sol\":4053:4065  _blockNumber */\n      dup8\n        /* \"ESN/ReversePlasma.sol\":4040:4066  ethProposals[_blockNumber] */\n      dup2\n      mstore\n      0x20\n      add\n      swap1\n      dup2\n      mstore\n      0x20\n      add\n      0x00\n      keccak256\n        /* \"ESN/ReversePlasma.sol\":4067:4078  _proposalId */\n      dup6\n        /* \"ESN/ReversePlasma.sol\":4040:4079  ethProposals[_blockNumber][_proposalId] */\n      dup2\n      sload\n      dup2\n      lt\n      tag_137\n      jumpi\n      invalid\n    tag_137:\n      swap1\n      0x00\n      mstore\n      keccak256(0x00, 0x20)\n      swap1\n      0x03\n      mul\n      add\n        /* \"ESN/ReversePlasma.sol\":4040:4096  ethProposals[_blockNumber][_proposalId].transactionsRoot */\n      0x00\n      add\n      sload\n        /* \"ESN/ReversePlasma.sol\":3996:4172  BlockHeaderFinalized({... */\n      dup2\n      mstore\n      0x20\n      add\n        /* \"ESN/ReversePlasma.sol\":4115:4127  ethProposals */\n      0x05\n        /* \"ESN/ReversePlasma.sol\":4115:4141  ethProposals[_blockNumber] */\n      0x00\n        /* \"ESN/ReversePlasma.sol\":4128:4140  _blockNumber */\n      dup8\n        /* \"ESN/ReversePlasma.sol\":4115:4141  ethProposals[_blockNumber] */\n      dup2\n      mstore\n      0x20\n      add\n      swap1\n      dup2\n      mstore\n      0x20\n      add\n      0x00\n      keccak256\n        /* \"ESN/ReversePlasma.sol\":4142:4153  _proposalId */\n      dup6\n        /* \"ESN/ReversePlasma.sol\":4115:4154  ethProposals[_blockNumber][_proposalId] */\n      dup2\n      sload\n      dup2\n      lt\n      tag_139\n      jumpi\n      invalid\n    tag_139:\n      swap1\n      0x00\n      mstore\n      keccak256(0x00, 0x20)\n      swap1\n      0x03\n      mul\n      add\n        /* \"ESN/ReversePlasma.sol\":4115:4167  ethProposals[_blockNumber][_proposalId].receiptsRoot */\n      0x01\n      add\n      sload\n        /* \"ESN/ReversePlasma.sol\":3996:4172  BlockHeaderFinalized({... */\n      dup2\n      mstore\n      pop\n        /* \"ESN/ReversePlasma.sol\":3966:3979  ethBlockchain */\n      0x06\n        /* \"ESN/ReversePlasma.sol\":3966:3993  ethBlockchain[_blockNumber] */\n      0x00\n        /* \"ESN/ReversePlasma.sol\":3980:3992  _blockNumber */\n      dup7\n        /* \"ESN/ReversePlasma.sol\":3966:3993  ethBlockchain[_blockNumber] */\n      dup2\n      mstore\n      0x20\n      add\n      swap1\n      dup2\n      mstore\n      0x20\n      add\n      0x00\n      keccak256\n        /* \"ESN/ReversePlasma.sol\":3966:4172  ethBlockchain[_blockNumber] = BlockHeaderFinalized({... */\n      0x00\n      dup3\n      add\n      mload\n      dup2\n      0x00\n      add\n      sstore\n      0x20\n      dup3\n      add\n      mload\n      dup2\n      0x01\n      add\n      sstore\n      swap1\n      pop\n      pop\n        /* \"ESN/ReversePlasma.sol\":4213:4225  ethProposals */\n      0x05\n        /* \"ESN/ReversePlasma.sol\":4213:4239  ethProposals[_blockNumber] */\n      0x00\n        /* \"ESN/ReversePlasma.sol\":4226:4238  _blockNumber */\n      dup6\n        /* \"ESN/ReversePlasma.sol\":4213:4239  ethProposals[_blockNumber] */\n      dup2\n      mstore\n      0x20\n      add\n      swap1\n      dup2\n      mstore\n      0x20\n      add\n      0x00\n      keccak256\n        /* \"ESN/ReversePlasma.sol\":4240:4251  _proposalId */\n      dup4\n        /* \"ESN/ReversePlasma.sol\":4213:4252  ethProposals[_blockNumber][_proposalId] */\n      dup2\n      sload\n      dup2\n      lt\n      tag_141\n      jumpi\n      invalid\n    tag_141:\n      swap1\n      0x00\n      mstore\n      keccak256(0x00, 0x20)\n      swap1\n      0x03\n      mul\n      add\n        /* \"ESN/ReversePlasma.sol\":4213:4271  ethProposals[_blockNumber][_proposalId].proposalValidators */\n      0x02\n      add\n      0x00\n        /* \"ESN/ReversePlasma.sol\":4206:4271  delete ethProposals[_blockNumber][_proposalId].proposalValidators */\n      tag_143\n      swap2\n      swap1\n      tag_144\n      jump\t// in\n    tag_143:\n        /* \"ESN/ReversePlasma.sol\":4296:4308  _blockNumber */\n      dup4\n        /* \"ESN/ReversePlasma.sol\":4276:4293  latestBlockNumber */\n      0x01\n        /* \"ESN/ReversePlasma.sol\":4276:4308  latestBlockNumber = _blockNumber */\n      dup2\n      swap1\n      sstore\n      pop\n        /* \"ESN/ReversePlasma.sol\":4318:4359  NewBlockHeader(_blockNumber, _proposalId) */\n      0x72485b82f943ddb489949c1b7feaea5c5acd4113547cad7a281343c8300fc6f1\n        /* \"ESN/ReversePlasma.sol\":4333:4345  _blockNumber */\n      dup5\n        /* \"ESN/ReversePlasma.sol\":4347:4358  _proposalId */\n      dup5\n        /* \"ESN/ReversePlasma.sol\":4318:4359  NewBlockHeader(_blockNumber, _proposalId) */\n      mload(0x40)\n      dup1\n      dup4\n      dup2\n      mstore\n      0x20\n      add\n      dup3\n      dup2\n      mstore\n      0x20\n      add\n      swap3\n      pop\n      pop\n      pop\n      mload(0x40)\n      dup1\n      swap2\n      sub\n      swap1\n      log1\n        /* \"ESN/ReversePlasma.sol\":3402:4363  function finalizeProposal(uint256 _blockNumber, uint256 _proposalId) public {... */\n      pop\n      pop\n      pop\n      pop\n      jump\t// out\n        /* \"ESN/ReversePlasma.sol\":4864:5077  function isValidator(address _validator) public view returns (bool) {... */\n    tag_73:\n        /* \"ESN/ReversePlasma.sol\":4926:4930  bool */\n      0x00\n        /* \"ESN/ReversePlasma.sol\":4941:4950  uint256 i */\n      dup1\n        /* \"ESN/ReversePlasma.sol\":4953:4954  0 */\n      0x00\n        /* \"ESN/ReversePlasma.sol\":4941:4954  uint256 i = 0 */\n      swap1\n      pop\n        /* \"ESN/ReversePlasma.sol\":4936:5057  for (uint256 i = 0; i < mainValidators.length; i++) {... */\n    tag_146:\n        /* \"ESN/ReversePlasma.sol\":4960:4974  mainValidators */\n      0x04\n        /* \"ESN/ReversePlasma.sol\":4960:4981  mainValidators.length */\n      dup1\n      sload\n      swap1\n      pop\n        /* \"ESN/ReversePlasma.sol\":4956:4957  i */\n      dup2\n        /* \"ESN/ReversePlasma.sol\":4956:4981  i < mainValidators.length */\n      lt\n        /* \"ESN/ReversePlasma.sol\":4936:5057  for (uint256 i = 0; i < mainValidators.length; i++) {... */\n      iszero\n      tag_147\n      jumpi\n        /* \"ESN/ReversePlasma.sol\":5011:5025  mainValidators */\n      0x04\n        /* \"ESN/ReversePlasma.sol\":5026:5027  i */\n      dup2\n        /* \"ESN/ReversePlasma.sol\":5011:5028  mainValidators[i] */\n      dup2\n      sload\n      dup2\n      lt\n      tag_149\n      jumpi\n      invalid\n    tag_149:\n      swap1\n      0x00\n      mstore\n      keccak256(0x00, 0x20)\n      add\n      0x00\n      swap1\n      sload\n      swap1\n      0x0100\n      exp\n      swap1\n      div\n      0xffffffffffffffffffffffffffffffffffffffff\n      and\n        /* \"ESN/ReversePlasma.sol\":4997:5028  _validator == mainValidators[i] */\n      0xffffffffffffffffffffffffffffffffffffffff\n      and\n        /* \"ESN/ReversePlasma.sol\":4997:5007  _validator */\n      dup4\n        /* \"ESN/ReversePlasma.sol\":4997:5028  _validator == mainValidators[i] */\n      0xffffffffffffffffffffffffffffffffffffffff\n      and\n      eq\n        /* \"ESN/ReversePlasma.sol\":4993:5053  if (_validator == mainValidators[i]) {... */\n      iszero\n      tag_151\n      jumpi\n        /* \"ESN/ReversePlasma.sol\":5043:5047  true */\n      0x01\n        /* \"ESN/ReversePlasma.sol\":5036:5047  return true */\n      swap2\n      pop\n      pop\n      jump(tag_145)\n        /* \"ESN/ReversePlasma.sol\":4993:5053  if (_validator == mainValidators[i]) {... */\n    tag_151:\n        /* \"ESN/ReversePlasma.sol\":4983:4986  i++ */\n      dup1\n      dup1\n      0x01\n      add\n      swap2\n      pop\n      pop\n        /* \"ESN/ReversePlasma.sol\":4936:5057  for (uint256 i = 0; i < mainValidators.length; i++) {... */\n      jump(tag_146)\n    tag_147:\n      pop\n        /* \"ESN/ReversePlasma.sol\":5068:5073  false */\n      0x00\n        /* \"ESN/ReversePlasma.sol\":5061:5073  return false */\n      swap1\n      pop\n        /* \"ESN/ReversePlasma.sol\":4864:5077  function isValidator(address _validator) public view returns (bool) {... */\n    tag_145:\n      swap2\n      swap1\n      pop\n      jump\t// out\n        /* \"ESN/ReversePlasma.sol\":4366:4861  function _removeValidatorFromAllProposals(... */\n    tag_103:\n        /* \"ESN/ReversePlasma.sol\":4493:4502  uint256 i */\n      0x00\n        /* \"ESN/ReversePlasma.sol\":4505:4506  0 */\n      dup1\n        /* \"ESN/ReversePlasma.sol\":4493:4506  uint256 i = 0 */\n      swap1\n      pop\n        /* \"ESN/ReversePlasma.sol\":4488:4858  for (uint256 i = 0; i < proposals.length; i++) {... */\n    tag_153:\n        /* \"ESN/ReversePlasma.sol\":4512:4521  proposals */\n      dup3\n        /* \"ESN/ReversePlasma.sol\":4512:4528  proposals.length */\n      dup1\n      sload\n      swap1\n      pop\n        /* \"ESN/ReversePlasma.sol\":4508:4509  i */\n      dup2\n        /* \"ESN/ReversePlasma.sol\":4508:4528  i < proposals.length */\n      lt\n        /* \"ESN/ReversePlasma.sol\":4488:4858  for (uint256 i = 0; i < proposals.length; i++) {... */\n      iszero\n      tag_154\n      jumpi\n        /* \"ESN/ReversePlasma.sol\":4540:4576  address[] storage proposalValidators */\n      0x00\n        /* \"ESN/ReversePlasma.sol\":4579:4588  proposals */\n      dup4\n        /* \"ESN/ReversePlasma.sol\":4589:4590  i */\n      dup3\n        /* \"ESN/ReversePlasma.sol\":4579:4591  proposals[i] */\n      dup2\n      sload\n      dup2\n      lt\n      tag_156\n      jumpi\n      invalid\n    tag_156:\n      swap1\n      0x00\n      mstore\n      keccak256(0x00, 0x20)\n      swap1\n      0x03\n      mul\n      add\n        /* \"ESN/ReversePlasma.sol\":4579:4610  proposals[i].proposalValidators */\n      0x02\n      add\n        /* \"ESN/ReversePlasma.sol\":4540:4610  address[] storage proposalValidators = proposals[i].proposalValidators */\n      swap1\n      pop\n        /* \"ESN/ReversePlasma.sol\":4621:4630  uint256 j */\n      0x00\n        /* \"ESN/ReversePlasma.sol\":4633:4634  0 */\n      dup1\n        /* \"ESN/ReversePlasma.sol\":4621:4634  uint256 j = 0 */\n      swap1\n      pop\n        /* \"ESN/ReversePlasma.sol\":4616:4854  for (uint256 j = 0; j < proposalValidators.length; j++) {... */\n    tag_158:\n        /* \"ESN/ReversePlasma.sol\":4640:4658  proposalValidators */\n      dup2\n        /* \"ESN/ReversePlasma.sol\":4640:4665  proposalValidators.length */\n      dup1\n      sload\n      swap1\n      pop\n        /* \"ESN/ReversePlasma.sol\":4636:4637  j */\n      dup2\n        /* \"ESN/ReversePlasma.sol\":4636:4665  j < proposalValidators.length */\n      lt\n        /* \"ESN/ReversePlasma.sol\":4616:4854  for (uint256 j = 0; j < proposalValidators.length; j++) {... */\n      iszero\n      tag_159\n      jumpi\n        /* \"ESN/ReversePlasma.sol\":4696:4714  proposalValidators */\n      dup2\n        /* \"ESN/ReversePlasma.sol\":4715:4716  j */\n      dup2\n        /* \"ESN/ReversePlasma.sol\":4696:4717  proposalValidators[j] */\n      dup2\n      sload\n      dup2\n      lt\n      tag_161\n      jumpi\n      invalid\n    tag_161:\n      swap1\n      0x00\n      mstore\n      keccak256(0x00, 0x20)\n      add\n      0x00\n      swap1\n      sload\n      swap1\n      0x0100\n      exp\n      swap1\n      div\n      0xffffffffffffffffffffffffffffffffffffffff\n      and\n        /* \"ESN/ReversePlasma.sol\":4682:4717  _validator == proposalValidators[j] */\n      0xffffffffffffffffffffffffffffffffffffffff\n      and\n        /* \"ESN/ReversePlasma.sol\":4682:4692  _validator */\n      dup5\n        /* \"ESN/ReversePlasma.sol\":4682:4717  _validator == proposalValidators[j] */\n      0xffffffffffffffffffffffffffffffffffffffff\n      and\n      eq\n        /* \"ESN/ReversePlasma.sol\":4678:4849  if (_validator == proposalValidators[j]) {... */\n      iszero\n      tag_163\n      jumpi\n        /* \"ESN/ReversePlasma.sol\":4750:4768  proposalValidators */\n      dup2\n        /* \"ESN/ReversePlasma.sol\":4797:4798  1 */\n      0x01\n        /* \"ESN/ReversePlasma.sol\":4769:4787  proposalValidators */\n      dup4\n        /* \"ESN/ReversePlasma.sol\":4769:4794  proposalValidators.length */\n      dup1\n      sload\n      swap1\n      pop\n        /* \"ESN/ReversePlasma.sol\":4769:4798  proposalValidators.length - 1 */\n      sub\n        /* \"ESN/ReversePlasma.sol\":4750:4799  proposalValidators[proposalValidators.length - 1] */\n      dup2\n      sload\n      dup2\n      lt\n      tag_164\n      jumpi\n      invalid\n    tag_164:\n      swap1\n      0x00\n      mstore\n      keccak256(0x00, 0x20)\n      add\n      0x00\n      swap1\n      sload\n      swap1\n      0x0100\n      exp\n      swap1\n      div\n      0xffffffffffffffffffffffffffffffffffffffff\n      and\n        /* \"ESN/ReversePlasma.sol\":4726:4744  proposalValidators */\n      dup3\n        /* \"ESN/ReversePlasma.sol\":4745:4746  j */\n      dup3\n        /* \"ESN/ReversePlasma.sol\":4726:4747  proposalValidators[j] */\n      dup2\n      sload\n      dup2\n      lt\n      tag_166\n      jumpi\n      invalid\n    tag_166:\n      swap1\n      0x00\n      mstore\n      keccak256(0x00, 0x20)\n      add\n      0x00\n        /* \"ESN/ReversePlasma.sol\":4726:4799  proposalValidators[j] = proposalValidators[proposalValidators.length - 1] */\n      0x0100\n      exp\n      dup2\n      sload\n      dup2\n      0xffffffffffffffffffffffffffffffffffffffff\n      mul\n      not\n      and\n      swap1\n      dup4\n      0xffffffffffffffffffffffffffffffffffffffff\n      and\n      mul\n      or\n      swap1\n      sstore\n      pop\n        /* \"ESN/ReversePlasma.sol\":4806:4824  proposalValidators */\n      dup2\n        /* \"ESN/ReversePlasma.sol\":4806:4830  proposalValidators.pop() */\n      dup1\n      sload\n      dup1\n      tag_168\n      jumpi\n      invalid\n    tag_168:\n      0x01\n      swap1\n      sub\n      dup2\n      dup2\n      swap1\n      0x00\n      mstore\n      keccak256(0x00, 0x20)\n      add\n      exp(0x0100, 0x00)\n      dup2\n      sload\n      swap1\n      0xffffffffffffffffffffffffffffffffffffffff\n      mul\n      not\n      and\n      swap1\n      sstore\n      swap1\n      sstore\n        /* \"ESN/ReversePlasma.sol\":4837:4842  break */\n      jump(tag_159)\n        /* \"ESN/ReversePlasma.sol\":4678:4849  if (_validator == proposalValidators[j]) {... */\n    tag_163:\n        /* \"ESN/ReversePlasma.sol\":4667:4670  j++ */\n      dup1\n      dup1\n      0x01\n      add\n      swap2\n      pop\n      pop\n        /* \"ESN/ReversePlasma.sol\":4616:4854  for (uint256 j = 0; j < proposalValidators.length; j++) {... */\n      jump(tag_158)\n    tag_159:\n      pop\n        /* \"ESN/ReversePlasma.sol\":4488:4858  for (uint256 i = 0; i < proposals.length; i++) {... */\n      pop\n        /* \"ESN/ReversePlasma.sol\":4530:4533  i++ */\n      dup1\n      dup1\n      0x01\n      add\n      swap2\n      pop\n      pop\n        /* \"ESN/ReversePlasma.sol\":4488:4858  for (uint256 i = 0; i < proposals.length; i++) {... */\n      jump(tag_153)\n    tag_154:\n      pop\n        /* \"ESN/ReversePlasma.sol\":4366:4861  function _removeValidatorFromAllProposals(... */\n      pop\n      pop\n      jump\t// out\n        /* \"lib/SafeMath.sol\":2025:2422  function mul(uint256 a, uint256 b) internal pure returns (uint256) {... */\n    tag_134:\n        /* \"lib/SafeMath.sol\":2083:2090  uint256 */\n      0x00\n        /* \"lib/SafeMath.sol\":2305:2306  0 */\n      dup1\n        /* \"lib/SafeMath.sol\":2300:2301  a */\n      dup4\n        /* \"lib/SafeMath.sol\":2300:2306  a == 0 */\n      eq\n        /* \"lib/SafeMath.sol\":2296:2326  if (a == 0) {... */\n      iszero\n      tag_171\n      jumpi\n        /* \"lib/SafeMath.sol\":2320:2321  0 */\n      0x00\n        /* \"lib/SafeMath.sol\":2313:2321  return 0 */\n      swap1\n      pop\n      jump(tag_170)\n        /* \"lib/SafeMath.sol\":2296:2326  if (a == 0) {... */\n    tag_171:\n        /* \"lib/SafeMath.sol\":2330:2339  uint256 c */\n      0x00\n        /* \"lib/SafeMath.sol\":2346:2347  b */\n      dup3\n        /* \"lib/SafeMath.sol\":2342:2343  a */\n      dup5\n        /* \"lib/SafeMath.sol\":2342:2347  a * b */\n      mul\n        /* \"lib/SafeMath.sol\":2330:2347  uint256 c = a * b */\n      swap1\n      pop\n        /* \"lib/SafeMath.sol\":2368:2369  b */\n      dup3\n        /* \"lib/SafeMath.sol\":2363:2364  a */\n      dup5\n        /* \"lib/SafeMath.sol\":2359:2360  c */\n      dup3\n        /* \"lib/SafeMath.sol\":2359:2364  c / a */\n      dup2\n      tag_172\n      jumpi\n      invalid\n    tag_172:\n      div\n        /* \"lib/SafeMath.sol\":2359:2369  c / a == b */\n      eq\n        /* \"lib/SafeMath.sol\":2351:2405  require(c / a == b, \"SafeMath: Multiplicatn overflow\") */\n      tag_173\n      jumpi\n      mload(0x40)\n      0x08c379a000000000000000000000000000000000000000000000000000000000\n      dup2\n      mstore\n      0x04\n      add\n      dup1\n      dup1\n      0x20\n      add\n      dup3\n      dup2\n      sub\n      dup3\n      mstore\n      0x1f\n      dup2\n      mstore\n      0x20\n      add\n      dup1\n      0x536166654d6174683a204d756c7469706c696361746e206f766572666c6f7700\n      dup2\n      mstore\n      pop\n      0x20\n      add\n      swap2\n      pop\n      pop\n      mload(0x40)\n      dup1\n      swap2\n      sub\n      swap1\n      revert\n    tag_173:\n        /* \"lib/SafeMath.sol\":2417:2418  c */\n      dup1\n        /* \"lib/SafeMath.sol\":2410:2418  return c */\n      swap2\n      pop\n      pop\n        /* \"lib/SafeMath.sol\":2025:2422  function mul(uint256 a, uint256 b) internal pure returns (uint256) {... */\n    tag_170:\n      swap3\n      swap2\n      pop\n      pop\n      jump\t// out\n    tag_92:\n      dup3\n      dup1\n      sload\n      dup3\n      dup3\n      sstore\n      swap1\n      0x00\n      mstore\n      keccak256(0x00, 0x20)\n      swap1\n      dup2\n      add\n      swap3\n      dup3\n      iszero\n      tag_174\n      jumpi\n      swap2\n      0x20\n      mul\n      dup3\n      add\n    tag_175:\n      dup3\n      dup2\n      gt\n      iszero\n      tag_176\n      jumpi\n      dup3\n      mload\n      dup3\n      exp(0x0100, 0x00)\n      dup2\n      sload\n      dup2\n      0xffffffffffffffffffffffffffffffffffffffff\n      mul\n      not\n      and\n      swap1\n      dup4\n      0xffffffffffffffffffffffffffffffffffffffff\n      and\n      mul\n      or\n      swap1\n      sstore\n      pop\n      swap2\n      0x20\n      add\n      swap2\n      swap1\n      0x01\n      add\n      swap1\n      jump(tag_175)\n    tag_176:\n    tag_174:\n      pop\n      swap1\n      pop\n      tag_177\n      swap2\n      swap1\n      tag_178\n      jump\t// in\n    tag_177:\n      pop\n      swap1\n      jump\t// out\n    tag_144:\n      pop\n      dup1\n      sload\n      0x00\n      dup3\n      sstore\n      swap1\n      0x00\n      mstore\n      keccak256(0x00, 0x20)\n      swap1\n      dup2\n      add\n      swap1\n      tag_180\n      swap2\n      swap1\n      tag_181\n      jump\t// in\n    tag_180:\n      pop\n      jump\t// out\n    tag_178:\n      tag_182\n      swap2\n      swap1\n    tag_183:\n      dup1\n      dup3\n      gt\n      iszero\n      tag_184\n      jumpi\n      0x00\n      dup2\n      dup2\n      0x0100\n      exp\n      dup2\n      sload\n      swap1\n      0xffffffffffffffffffffffffffffffffffffffff\n      mul\n      not\n      and\n      swap1\n      sstore\n      pop\n      0x01\n      add\n      jump(tag_183)\n    tag_184:\n      pop\n      swap1\n      jump\n    tag_182:\n      swap1\n      jump\t// out\n    tag_181:\n      tag_185\n      swap2\n      swap1\n    tag_186:\n      dup1\n      dup3\n      gt\n      iszero\n      tag_187\n      jumpi\n      0x00\n      dup2\n      0x00\n      swap1\n      sstore\n      pop\n      0x01\n      add\n      jump(tag_186)\n    tag_187:\n      pop\n      swap1\n      jump\n    tag_185:\n      swap1\n      jump\t// out\n\n    auxdata: 0xa26469706673582212202d37f36a7a9f5ac981551358a34a43bde490b7ae2c5e83b7153b9de9fcb65e1b64736f6c634300060a0033\n}\n","bytecode":{"linkReferences":{},"object":"608060405230600360006101000a81548173ffffffffffffffffffffffffffffffffffffffff021916908373ffffffffffffffffffffffffffffffffffffffff16021790555034801561005157600080fd5b50336000806101000a81548173ffffffffffffffffffffffffffffffffffffffff021916908373ffffffffffffffffffffffffffffffffffffffff1602179055506116ac806100a16000396000f3fe608060405234801561001057600080fd5b50600436106100f55760003560e01c80635f28100611610097578063d7ef9dcc11610066578063d7ef9dcc14610574578063f3513a37146105c7578063f80339a814610626578063facd743b1461065e576100f5565b80635f2810061461032c57806374c2c6981461040e5780639d382ed0146104c9578063be08be6d14610513576100f5565b80633ce03bdd116100d35780633ce03bdd146101c9578063439ef4d3146102375780634599c788146102c45780635053f5fd146102e2576100f5565b80630635ce00146100fa5780631b1aa8b8146101435780631ba853d014610185575b600080fd5b6101266004803603602081101561011057600080fd5b81019080803590602001909291905050506106ba565b604051808381526020018281526020019250505060405180910390f35b61016f6004803603602081101561015957600080fd5b81019080803590602001909291905050506106de565b6040518082815260200191505060405180910390f35b6101c76004803603602081101561019b57600080fd5b81019080803573ffffffffffffffffffffffffffffffffffffffff1690602001909291905050506106fe565b005b6101f5600480360360208110156101df57600080fd5b8101908080359060200190929190505050610742565b604051808273ffffffffffffffffffffffffffffffffffffffff1673ffffffffffffffffffffffffffffffffffffffff16815260200191505060405180910390f35b61026d6004803603604081101561024d57600080fd5b81019080803590602001909291908035906020019092919050505061077e565b6040518080602001828103825283818151815260200191508051906020019060200280838360005b838110156102b0578082015181840152602081019050610295565b505050509050019250505060405180910390f35b6102cc61083c565b6040518082815260200191505060405180910390f35b6102ea610842565b604051808273ffffffffffffffffffffffffffffffffffffffff1673ffffffffffffffffffffffffffffffffffffffff16815260200191505060405180910390f35b61040c6004803603606081101561034257600080fd5b81019080803573ffffffffffffffffffffffffffffffffffffffff169060200190929190803590602001909291908035906020019064010000000081111561038957600080fd5b82018360208201111561039b57600080fd5b803590602001918460208302840111640100000000831117156103bd57600080fd5b919080806020026020016040519081016040528093929190818152602001838360200280828437600081840152601f19601f820116905080830192505050505050509192919290505050610868565b005b6104c76004803603602081101561042457600080fd5b810190808035906020019064010000000081111561044157600080fd5b82018360208201111561045357600080fd5b8035906020019184600183028401116401000000008311171561047557600080fd5b91908080601f016020809104026020016040519081016040528093929190818152602001838380828437600081840152601f19601f820116905080830192505050505050509192919290505050610b91565b005b6104d1610de1565b604051808273ffffffffffffffffffffffffffffffffffffffff1673ffffffffffffffffffffffffffffffffffffffff16815260200191505060405180910390f35b6105536004803603606081101561052957600080fd5b81019080803590602001909291908035906020019092919080359060200190929190505050610e07565b60405180831515151581526020018281526020019250505060405180910390f35b6105aa6004803603604081101561058a57600080fd5b810190808035906020019092919080359060200190929190505050610ecd565b604051808381526020018281526020019250505060405180910390f35b6105cf610f0b565b6040518080602001828103825283818151815260200191508051906020019060200280838360005b838110156106125780820151818401526020810190506105f7565b505050509050019250505060405180910390f35b61065c6004803603604081101561063c57600080fd5b810190808035906020019092919080359060200190929190505050610f99565b005b6106a06004803603602081101561067457600080fd5b81019080803573ffffffffffffffffffffffffffffffffffffffff169060200190929190505050611278565b604051808215151515815260200191505060405180910390f35b60066020528060005260406000206000915090508060000154908060010154905082565b600060056000838152602001908152602001600020805490509050919050565b80600360006101000a81548173ffffffffffffffffffffffffffffffffffffffff021916908373ffffffffffffffffffffffffffffffffffffffff16021790555050565b6004818154811061074f57fe5b906000526020600020016000915054906101000a900473ffffffffffffffffffffffffffffffffffffffff1681565b606060056000848152602001908152602001600020828154811061079e57fe5b906000526020600020906003020160020180548060200260200160405190810160405280929190818152602001828054801561082f57602002820191906000526020600020905b8160009054906101000a900473ffffffffffffffffffffffffffffffffffffffff1673ffffffffffffffffffffffffffffffffffffffff16815260200190600101908083116107e5575b5050505050905092915050565b60015481565b600260009054906101000a900473ffffffffffffffffffffffffffffffffffffffff1681565b6000809054906101000a900473ffffffffffffffffffffffffffffffffffffffff1673ffffffffffffffffffffffffffffffffffffffff163373ffffffffffffffffffffffffffffffffffffffff161461092a576040517f08c379a000000000000000000000000000000000000000000000000000000000815260040180806020018281038252601e8152602001807f52504c534d413a204f6e6c79206465706c6f7965722063616e2063616c6c000081525060200191505060405180910390fd5b600073ffffffffffffffffffffffffffffffffffffffff168373ffffffffffffffffffffffffffffffffffffffff1614610a6457600073ffffffffffffffffffffffffffffffffffffffff16600260009054906101000a900473ffffffffffffffffffffffffffffffffffffffff1673ffffffffffffffffffffffffffffffffffffffff1614610a22576040517f08c379a000000000000000000000000000000000000000000000000000000000815260040180806020018281038252601e8152602001807f52504c534d413a20546f6b656e206164727320616c726561647920736574000081525060200191505060405180910390fd5b82600260006101000a81548173ffffffffffffffffffffffffffffffffffffffff021916908373ffffffffffffffffffffffffffffffffffffffff1602179055505b60008214610aef57600060015414610ae4576040517f08c379a00000000000000000000000000000000000000000000000000000000081526004018080602001828103825260208152602001807f52504c534d413a2053747274426c6f636b4e756d20616c72656164792073657481525060200191505060405180910390fd5b600182036001819055505b600081511115610b8c57600060048054905014610b74576040517f08c379a000000000000000000000000000000000000000000000000000000000815260040180806020018281038252601e8152602001807f52504c534d413a2056616c696461746f727320616c726561647920736574000081525060200191505060405180910390fd5b8060049080519060200190610b8a929190611563565b505b505050565b610b9a33611278565b610c0c576040517f08c379a00000000000000000000000000000000000000000000000000000000081526004018080602001828103825260178152602001807f52504c534d413a206e6f7420612076616c696461746f7200000000000000000081525060200191505060405180910390fd5b60008060006020840180519350602081015192506040810151915050600080610c36858585610e07565b9150915081610d2d57600560008681526020019081526020016000206040518060600160405280868152602001858152602001600067ffffffffffffffff81118015610c8157600080fd5b50604051908082528060200260200182016040528015610cb05781602001602082028036833780820191505090505b50815250908060018154018082558091505060019003906000526020600020906003020160009091909190915060008201518160000155602082015181600101556040820151816002019080519060200190610d0d929190611563565b505050600160056000878152602001908152602001600020805490500390505b610d49600560008781526020019081526020016000203361131a565b600560008681526020019081526020016000208181548110610d6757fe5b9060005260206000209060030201600201339080600181540180825580915050600190039060005260206000200160009091909190916101000a81548173ffffffffffffffffffffffffffffffffffffffff021916908373ffffffffffffffffffffffffffffffffffffffff160217905550505050505050565b600360009054906101000a900473ffffffffffffffffffffffffffffffffffffffff1681565b60008060008090505b6005600087815260200190815260200160002080549050811015610eb957600560008781526020019081526020016000208181548110610e4c57fe5b90600052602060002090600302016000015485148015610e9a5750600560008781526020019081526020016000208181548110610e8557fe5b90600052602060002090600302016001015484145b15610eac576001819250925050610ec5565b8080600101915050610e10565b50600080809050915091505b935093915050565b60056020528160005260406000208181548110610ee657fe5b9060005260206000209060030201600091509150508060000154908060010154905082565b60606004805480602002602001604051908101604052809291908181526020018280548015610f8f57602002820191906000526020600020905b8160009054906101000a900473ffffffffffffffffffffffffffffffffffffffff1673ffffffffffffffffffffffffffffffffffffffff1681526020019060010190808311610f45575b5050505050905090565b6001805401821115611013576040517f08c379a000000000000000000000000000000000000000000000000000000000815260040180806020018281038252601c8152602001807f52504c534d413a20696e76616c696420626c6f636b206e756d6265720000000081525060200191505060405180910390fd5b60008060056000858152602001908152602001600020838154811061103457fe5b9060005260206000209060030201600201905060008090505b81805490508110156110b35761109882828154811061106857fe5b9060005260206000200160009054906101000a900473ffffffffffffffffffffffffffffffffffffffff16611278565b156110a65782806001019350505b808060010191505061104d565b506110cd60026004805490506114c090919063ffffffff16565b6110e16003846114c090919063ffffffff16565b11611154576040517f08c379a000000000000000000000000000000000000000000000000000000000815260040180806020018281038252601a8152602001807f52504c534d413a206e6f74203636252076616c696461746f727300000000000081525060200191505060405180910390fd5b604051806040016040528060056000878152602001908152602001600020858154811061117d57fe5b90600052602060002090600302016000015481526020016005600087815260200190815260200160002085815481106111b257fe5b90600052602060002090600302016001015481525060066000868152602001908152602001600020600082015181600001556020820151816001015590505060056000858152602001908152602001600020838154811061120f57fe5b9060005260206000209060030201600201600061122c91906115ed565b836001819055507f72485b82f943ddb489949c1b7feaea5c5acd4113547cad7a281343c8300fc6f18484604051808381526020018281526020019250505060405180910390a150505050565b600080600090505b60048054905081101561130f576004818154811061129a57fe5b9060005260206000200160009054906101000a900473ffffffffffffffffffffffffffffffffffffffff1673ffffffffffffffffffffffffffffffffffffffff168373ffffffffffffffffffffffffffffffffffffffff161415611302576001915050611315565b8080600101915050611280565b50600090505b919050565b60008090505b82805490508110156114bb57600083828154811061133a57fe5b9060005260206000209060030201600201905060008090505b81805490508110156114ac5781818154811061136b57fe5b9060005260206000200160009054906101000a900473ffffffffffffffffffffffffffffffffffffffff1673ffffffffffffffffffffffffffffffffffffffff168473ffffffffffffffffffffffffffffffffffffffff16141561149f57816001838054905003815481106113dc57fe5b9060005260206000200160009054906101000a900473ffffffffffffffffffffffffffffffffffffffff1682828154811061141357fe5b9060005260206000200160006101000a81548173ffffffffffffffffffffffffffffffffffffffff021916908373ffffffffffffffffffffffffffffffffffffffff1602179055508180548061146557fe5b6001900381819060005260206000200160006101000a81549073ffffffffffffffffffffffffffffffffffffffff021916905590556114ac565b8080600101915050611353565b50508080600101915050611320565b505050565b6000808314156114d3576000905061155d565b60008284029050828482816114e457fe5b0414611558576040517f08c379a000000000000000000000000000000000000000000000000000000000815260040180806020018281038252601f8152602001807f536166654d6174683a204d756c7469706c696361746e206f766572666c6f770081525060200191505060405180910390fd5b809150505b92915050565b8280548282559060005260206000209081019282156115dc579160200282015b828111156115db5782518260006101000a81548173ffffffffffffffffffffffffffffffffffffffff021916908373ffffffffffffffffffffffffffffffffffffffff16021790555091602001919060010190611583565b5b5090506115e9919061160e565b5090565b508054600082559060005260206000209081019061160b9190611651565b50565b61164e91905b8082111561164a57600081816101000a81549073ffffffffffffffffffffffffffffffffffffffff021916905550600101611614565b5090565b90565b61167391905b8082111561166f576000816000905550600101611657565b5090565b9056fea26469706673582212202d37f36a7a9f5ac981551358a34a43bde490b7ae2c5e83b7153b9de9fcb65e1b64736f6c634300060a0033","opcodes":"PUSH1 0x80 PUSH1 0x40 MSTORE ADDRESS PUSH1 0x3 PUSH1 0x0 PUSH2 0x100 EXP DUP2 SLOAD DUP2 PUSH20 0xFFFFFFFFFFFFFFFFFFFFFFFFFFFFFFFFFFFFFFFF MUL NOT AND SWAP1 DUP4 PUSH20 0xFFFFFFFFFFFFFFFFFFFFFFFFFFFFFFFFFFFFFFFF AND MUL OR SWAP1 SSTORE POP CALLVALUE DUP1 ISZERO PUSH2 0x51 JUMPI PUSH1 0x0 DUP1 REVERT JUMPDEST POP CALLER PUSH1 0x0 DUP1 PUSH2 0x100 EXP DUP2 SLOAD DUP2 PUSH20 0xFFFFFFFFFFFFFFFFFFFFFFFFFFFFFFFFFFFFFFFF MUL NOT AND SWAP1 DUP4 PUSH20 0xFFFFFFFFFFFFFFFFFFFFFFFFFFFFFFFFFFFFFFFF AND MUL OR SWAP1 SSTORE POP PUSH2 0x16AC DUP1 PUSH2 0xA1 PUSH1 0x0 CODECOPY PUSH1 0x0 RETURN INVALID PUSH1 0x80 PUSH1 0x40 MSTORE CALLVALUE DUP1 ISZERO PUSH2 0x10 JUMPI PUSH1 0x0 DUP1 REVERT JUMPDEST POP PUSH1 0x4 CALLDATASIZE LT PUSH2 0xF5 JUMPI PUSH1 0x0 CALLDATALOAD PUSH1 0xE0 SHR DUP1 PUSH4 0x5F281006 GT PUSH2 0x97 JUMPI DUP1 PUSH4 0xD7EF9DCC GT PUSH2 0x66 JUMPI DUP1 PUSH4 0xD7EF9DCC EQ PUSH2 0x574 JUMPI DUP1 PUSH4 0xF3513A37 EQ PUSH2 0x5C7 JUMPI DUP1 PUSH4 0xF80339A8 EQ PUSH2 0x626 JUMPI DUP1 PUSH4 0xFACD743B EQ PUSH2 0x65E JUMPI PUSH2 0xF5 JUMP JUMPDEST DUP1 PUSH4 0x5F281006 EQ PUSH2 0x32C JUMPI DUP1 PUSH4 0x74C2C698 EQ PUSH2 0x40E JUMPI DUP1 PUSH4 0x9D382ED0 EQ PUSH2 0x4C9 JUMPI DUP1 PUSH4 0xBE08BE6D EQ PUSH2 0x513 JUMPI PUSH2 0xF5 JUMP JUMPDEST DUP1 PUSH4 0x3CE03BDD GT PUSH2 0xD3 JUMPI DUP1 PUSH4 0x3CE03BDD EQ PUSH2 0x1C9 JUMPI DUP1 PUSH4 0x439EF4D3 EQ PUSH2 0x237 JUMPI DUP1 PUSH4 0x4599C788 EQ PUSH2 0x2C4 JUMPI DUP1 PUSH4 0x5053F5FD EQ PUSH2 0x2E2 JUMPI PUSH2 0xF5 JUMP JUMPDEST DUP1 PUSH4 0x635CE00 EQ PUSH2 0xFA JUMPI DUP1 PUSH4 0x1B1AA8B8 EQ PUSH2 0x143 JUMPI DUP1 PUSH4 0x1BA853D0 EQ PUSH2 0x185 JUMPI JUMPDEST PUSH1 0x0 DUP1 REVERT JUMPDEST PUSH2 0x126 PUSH1 0x4 DUP1 CALLDATASIZE SUB PUSH1 0x20 DUP2 LT ISZERO PUSH2 0x110 JUMPI PUSH1 0x0 DUP1 REVERT JUMPDEST DUP2 ADD SWAP1 DUP1 DUP1 CALLDATALOAD SWAP1 PUSH1 0x20 ADD SWAP1 SWAP3 SWAP2 SWAP1 POP POP POP PUSH2 0x6BA JUMP JUMPDEST PUSH1 0x40 MLOAD DUP1 DUP4 DUP2 MSTORE PUSH1 0x20 ADD DUP3 DUP2 MSTORE PUSH1 0x20 ADD SWAP3 POP POP POP PUSH1 0x40 MLOAD DUP1 SWAP2 SUB SWAP1 RETURN JUMPDEST PUSH2 0x16F PUSH1 0x4 DUP1 CALLDATASIZE SUB PUSH1 0x20 DUP2 LT ISZERO PUSH2 0x159 JUMPI PUSH1 0x0 DUP1 REVERT JUMPDEST DUP2 ADD SWAP1 DUP1 DUP1 CALLDATALOAD SWAP1 PUSH1 0x20 ADD SWAP1 SWAP3 SWAP2 SWAP1 POP POP POP PUSH2 0x6DE JUMP JUMPDEST PUSH1 0x40 MLOAD DUP1 DUP3 DUP2 MSTORE PUSH1 0x20 ADD SWAP2 POP POP PUSH1 0x40 MLOAD DUP1 SWAP2 SUB SWAP1 RETURN JUMPDEST PUSH2 0x1C7 PUSH1 0x4 DUP1 CALLDATASIZE SUB PUSH1 0x20 DUP2 LT ISZERO PUSH2 0x19B JUMPI PUSH1 0x0 DUP1 REVERT JUMPDEST DUP2 ADD SWAP1 DUP1 DUP1 CALLDATALOAD PUSH20 0xFFFFFFFFFFFFFFFFFFFFFFFFFFFFFFFFFFFFFFFF AND SWAP1 PUSH1 0x20 ADD SWAP1 SWAP3 SWAP2 SWAP1 POP POP POP PUSH2 0x6FE JUMP JUMPDEST STOP JUMPDEST PUSH2 0x1F5 PUSH1 0x4 DUP1 CALLDATASIZE SUB PUSH1 0x20 DUP2 LT ISZERO PUSH2 0x1DF JUMPI PUSH1 0x0 DUP1 REVERT JUMPDEST DUP2 ADD SWAP1 DUP1 DUP1 CALLDATALOAD SWAP1 PUSH1 0x20 ADD SWAP1 SWAP3 SWAP2 SWAP1 POP POP POP PUSH2 0x742 JUMP JUMPDEST PUSH1 0x40 MLOAD DUP1 DUP3 PUSH20 0xFFFFFFFFFFFFFFFFFFFFFFFFFFFFFFFFFFFFFFFF AND PUSH20 0xFFFFFFFFFFFFFFFFFFFFFFFFFFFFFFFFFFFFFFFF AND DUP2 MSTORE PUSH1 0x20 ADD SWAP2 POP POP PUSH1 0x40 MLOAD DUP1 SWAP2 SUB SWAP1 RETURN JUMPDEST PUSH2 0x26D PUSH1 0x4 DUP1 CALLDATASIZE SUB PUSH1 0x40 DUP2 LT ISZERO PUSH2 0x24D JUMPI PUSH1 0x0 DUP1 REVERT JUMPDEST DUP2 ADD SWAP1 DUP1 DUP1 CALLDATALOAD SWAP1 PUSH1 0x20 ADD SWAP1 SWAP3 SWAP2 SWAP1 DUP1 CALLDATALOAD SWAP1 PUSH1 0x20 ADD SWAP1 SWAP3 SWAP2 SWAP1 POP POP POP PUSH2 0x77E JUMP JUMPDEST PUSH1 0x40 MLOAD DUP1 DUP1 PUSH1 0x20 ADD DUP3 DUP2 SUB DUP3 MSTORE DUP4 DUP2 DUP2 MLOAD DUP2 MSTORE PUSH1 0x20 ADD SWAP2 POP DUP1 MLOAD SWAP1 PUSH1 0x20 ADD SWAP1 PUSH1 0x20 MUL DUP1 DUP4 DUP4 PUSH1 0x0 JUMPDEST DUP4 DUP2 LT ISZERO PUSH2 0x2B0 JUMPI DUP1 DUP3 ADD MLOAD DUP2 DUP5 ADD MSTORE PUSH1 0x20 DUP2 ADD SWAP1 POP PUSH2 0x295 JUMP JUMPDEST POP POP POP POP SWAP1 POP ADD SWAP3 POP POP POP PUSH1 0x40 MLOAD DUP1 SWAP2 SUB SWAP1 RETURN JUMPDEST PUSH2 0x2CC PUSH2 0x83C JUMP JUMPDEST PUSH1 0x40 MLOAD DUP1 DUP3 DUP2 MSTORE PUSH1 0x20 ADD SWAP2 POP POP PUSH1 0x40 MLOAD DUP1 SWAP2 SUB SWAP1 RETURN JUMPDEST PUSH2 0x2EA PUSH2 0x842 JUMP JUMPDEST PUSH1 0x40 MLOAD DUP1 DUP3 PUSH20 0xFFFFFFFFFFFFFFFFFFFFFFFFFFFFFFFFFFFFFFFF AND PUSH20 0xFFFFFFFFFFFFFFFFFFFFFFFFFFFFFFFFFFFFFFFF AND DUP2 MSTORE PUSH1 0x20 ADD SWAP2 POP POP PUSH1 0x40 MLOAD DUP1 SWAP2 SUB SWAP1 RETURN JUMPDEST PUSH2 0x40C PUSH1 0x4 DUP1 CALLDATASIZE SUB PUSH1 0x60 DUP2 LT ISZERO PUSH2 0x342 JUMPI PUSH1 0x0 DUP1 REVERT JUMPDEST DUP2 ADD SWAP1 DUP1 DUP1 CALLDATALOAD PUSH20 0xFFFFFFFFFFFFFFFFFFFFFFFFFFFFFFFFFFFFFFFF AND SWAP1 PUSH1 0x20 ADD SWAP1 SWAP3 SWAP2 SWAP1 DUP1 CALLDATALOAD SWAP1 PUSH1 0x20 ADD SWAP1 SWAP3 SWAP2 SWAP1 DUP1 CALLDATALOAD SWAP1 PUSH1 0x20 ADD SWAP1 PUSH5 0x100000000 DUP2 GT ISZERO PUSH2 0x389 JUMPI PUSH1 0x0 DUP1 REVERT JUMPDEST DUP3 ADD DUP4 PUSH1 0x20 DUP3 ADD GT ISZERO PUSH2 0x39B JUMPI PUSH1 0x0 DUP1 REVERT JUMPDEST DUP1 CALLDATALOAD SWAP1 PUSH1 0x20 ADD SWAP2 DUP5 PUSH1 0x20 DUP4 MUL DUP5 ADD GT PUSH5 0x100000000 DUP4 GT OR ISZERO PUSH2 0x3BD JUMPI PUSH1 0x0 DUP1 REVERT JUMPDEST SWAP2 SWAP1 DUP1 DUP1 PUSH1 0x20 MUL PUSH1 0x20 ADD PUSH1 0x40 MLOAD SWAP1 DUP2 ADD PUSH1 0x40 MSTORE DUP1 SWAP4 SWAP3 SWAP2 SWAP1 DUP2 DUP2 MSTORE PUSH1 0x20 ADD DUP4 DUP4 PUSH1 0x20 MUL DUP1 DUP3 DUP5 CALLDATACOPY PUSH1 0x0 DUP2 DUP5 ADD MSTORE PUSH1 0x1F NOT PUSH1 0x1F DUP3 ADD AND SWAP1 POP DUP1 DUP4 ADD SWAP3 POP POP POP POP POP POP POP SWAP2 SWAP3 SWAP2 SWAP3 SWAP1 POP POP POP PUSH2 0x868 JUMP JUMPDEST STOP JUMPDEST PUSH2 0x4C7 PUSH1 0x4 DUP1 CALLDATASIZE SUB PUSH1 0x20 DUP2 LT ISZERO PUSH2 0x424 JUMPI PUSH1 0x0 DUP1 REVERT JUMPDEST DUP2 ADD SWAP1 DUP1 DUP1 CALLDATALOAD SWAP1 PUSH1 0x20 ADD SWAP1 PUSH5 0x100000000 DUP2 GT ISZERO PUSH2 0x441 JUMPI PUSH1 0x0 DUP1 REVERT JUMPDEST DUP3 ADD DUP4 PUSH1 0x20 DUP3 ADD GT ISZERO PUSH2 0x453 JUMPI PUSH1 0x0 DUP1 REVERT JUMPDEST DUP1 CALLDATALOAD SWAP1 PUSH1 0x20 ADD SWAP2 DUP5 PUSH1 0x1 DUP4 MUL DUP5 ADD GT PUSH5 0x100000000 DUP4 GT OR ISZERO PUSH2 0x475 JUMPI PUSH1 0x0 DUP1 REVERT JUMPDEST SWAP2 SWAP1 DUP1 DUP1 PUSH1 0x1F ADD PUSH1 0x20 DUP1 SWAP2 DIV MUL PUSH1 0x20 ADD PUSH1 0x40 MLOAD SWAP1 DUP2 ADD PUSH1 0x40 MSTORE DUP1 SWAP4 SWAP3 SWAP2 SWAP1 DUP2 DUP2 MSTORE PUSH1 0x20 ADD DUP4 DUP4 DUP1 DUP3 DUP5 CALLDATACOPY PUSH1 0x0 DUP2 DUP5 ADD MSTORE PUSH1 0x1F NOT PUSH1 0x1F DUP3 ADD AND SWAP1 POP DUP1 DUP4 ADD SWAP3 POP POP POP POP POP POP POP SWAP2 SWAP3 SWAP2 SWAP3 SWAP1 POP POP POP PUSH2 0xB91 JUMP JUMPDEST STOP JUMPDEST PUSH2 0x4D1 PUSH2 0xDE1 JUMP JUMPDEST PUSH1 0x40 MLOAD DUP1 DUP3 PUSH20 0xFFFFFFFFFFFFFFFFFFFFFFFFFFFFFFFFFFFFFFFF AND PUSH20 0xFFFFFFFFFFFFFFFFFFFFFFFFFFFFFFFFFFFFFFFF AND DUP2 MSTORE PUSH1 0x20 ADD SWAP2 POP POP PUSH1 0x40 MLOAD DUP1 SWAP2 SUB SWAP1 RETURN JUMPDEST PUSH2 0x553 PUSH1 0x4 DUP1 CALLDATASIZE SUB PUSH1 0x60 DUP2 LT ISZERO PUSH2 0x529 JUMPI PUSH1 0x0 DUP1 REVERT JUMPDEST DUP2 ADD SWAP1 DUP1 DUP1 CALLDATALOAD SWAP1 PUSH1 0x20 ADD SWAP1 SWAP3 SWAP2 SWAP1 DUP1 CALLDATALOAD SWAP1 PUSH1 0x20 ADD SWAP1 SWAP3 SWAP2 SWAP1 DUP1 CALLDATALOAD SWAP1 PUSH1 0x20 ADD SWAP1 SWAP3 SWAP2 SWAP1 POP POP POP PUSH2 0xE07 JUMP JUMPDEST PUSH1 0x40 MLOAD DUP1 DUP4 ISZERO ISZERO ISZERO ISZERO DUP2 MSTORE PUSH1 0x20 ADD DUP3 DUP2 MSTORE PUSH1 0x20 ADD SWAP3 POP POP POP PUSH1 0x40 MLOAD DUP1 SWAP2 SUB SWAP1 RETURN JUMPDEST PUSH2 0x5AA PUSH1 0x4 DUP1 CALLDATASIZE SUB PUSH1 0x40 DUP2 LT ISZERO PUSH2 0x58A JUMPI PUSH1 0x0 DUP1 REVERT JUMPDEST DUP2 ADD SWAP1 DUP1 DUP1 CALLDATALOAD SWAP1 PUSH1 0x20 ADD SWAP1 SWAP3 SWAP2 SWAP1 DUP1 CALLDATALOAD SWAP1 PUSH1 0x20 ADD SWAP1 SWAP3 SWAP2 SWAP1 POP POP POP PUSH2 0xECD JUMP JUMPDEST PUSH1 0x40 MLOAD DUP1 DUP4 DUP2 MSTORE PUSH1 0x20 ADD DUP3 DUP2 MSTORE PUSH1 0x20 ADD SWAP3 POP POP POP PUSH1 0x40 MLOAD DUP1 SWAP2 SUB SWAP1 RETURN JUMPDEST PUSH2 0x5CF PUSH2 0xF0B JUMP JUMPDEST PUSH1 0x40 MLOAD DUP1 DUP1 PUSH1 0x20 ADD DUP3 DUP2 SUB DUP3 MSTORE DUP4 DUP2 DUP2 MLOAD DUP2 MSTORE PUSH1 0x20 ADD SWAP2 POP DUP1 MLOAD SWAP1 PUSH1 0x20 ADD SWAP1 PUSH1 0x20 MUL DUP1 DUP4 DUP4 PUSH1 0x0 JUMPDEST DUP4 DUP2 LT ISZERO PUSH2 0x612 JUMPI DUP1 DUP3 ADD MLOAD DUP2 DUP5 ADD MSTORE PUSH1 0x20 DUP2 ADD SWAP1 POP PUSH2 0x5F7 JUMP JUMPDEST POP POP POP POP SWAP1 POP ADD SWAP3 POP POP POP PUSH1 0x40 MLOAD DUP1 SWAP2 SUB SWAP1 RETURN JUMPDEST PUSH2 0x65C PUSH1 0x4 DUP1 CALLDATASIZE SUB PUSH1 0x40 DUP2 LT ISZERO PUSH2 0x63C JUMPI PUSH1 0x0 DUP1 REVERT JUMPDEST DUP2 ADD SWAP1 DUP1 DUP1 CALLDATALOAD SWAP1 PUSH1 0x20 ADD SWAP1 SWAP3 SWAP2 SWAP1 DUP1 CALLDATALOAD SWAP1 PUSH1 0x20 ADD SWAP1 SWAP3 SWAP2 SWAP1 POP POP POP PUSH2 0xF99 JUMP JUMPDEST STOP JUMPDEST PUSH2 0x6A0 PUSH1 0x4 DUP1 CALLDATASIZE SUB PUSH1 0x20 DUP2 LT ISZERO PUSH2 0x674 JUMPI PUSH1 0x0 DUP1 REVERT JUMPDEST DUP2 ADD SWAP1 DUP1 DUP1 CALLDATALOAD PUSH20 0xFFFFFFFFFFFFFFFFFFFFFFFFFFFFFFFFFFFFFFFF AND SWAP1 PUSH1 0x20 ADD SWAP1 SWAP3 SWAP2 SWAP1 POP POP POP PUSH2 0x1278 JUMP JUMPDEST PUSH1 0x40 MLOAD DUP1 DUP3 ISZERO ISZERO ISZERO ISZERO DUP2 MSTORE PUSH1 0x20 ADD SWAP2 POP POP PUSH1 0x40 MLOAD DUP1 SWAP2 SUB SWAP1 RETURN JUMPDEST PUSH1 0x6 PUSH1 0x20 MSTORE DUP1 PUSH1 0x0 MSTORE PUSH1 0x40 PUSH1 0x0 KECCAK256 PUSH1 0x0 SWAP2 POP SWAP1 POP DUP1 PUSH1 0x0 ADD SLOAD SWAP1 DUP1 PUSH1 0x1 ADD SLOAD SWAP1 POP DUP3 JUMP JUMPDEST PUSH1 0x0 PUSH1 0x5 PUSH1 0x0 DUP4 DUP2 MSTORE PUSH1 0x20 ADD SWAP1 DUP2 MSTORE PUSH1 0x20 ADD PUSH1 0x0 KECCAK256 DUP1 SLOAD SWAP1 POP SWAP1 POP SWAP2 SWAP1 POP JUMP JUMPDEST DUP1 PUSH1 0x3 PUSH1 0x0 PUSH2 0x100 EXP DUP2 SLOAD DUP2 PUSH20 0xFFFFFFFFFFFFFFFFFFFFFFFFFFFFFFFFFFFFFFFF MUL NOT AND SWAP1 DUP4 PUSH20 0xFFFFFFFFFFFFFFFFFFFFFFFFFFFFFFFFFFFFFFFF AND MUL OR SWAP1 SSTORE POP POP JUMP JUMPDEST PUSH1 0x4 DUP2 DUP2 SLOAD DUP2 LT PUSH2 0x74F JUMPI INVALID JUMPDEST SWAP1 PUSH1 0x0 MSTORE PUSH1 0x20 PUSH1 0x0 KECCAK256 ADD PUSH1 0x0 SWAP2 POP SLOAD SWAP1 PUSH2 0x100 EXP SWAP1 DIV PUSH20 0xFFFFFFFFFFFFFFFFFFFFFFFFFFFFFFFFFFFFFFFF AND DUP2 JUMP JUMPDEST PUSH1 0x60 PUSH1 0x5 PUSH1 0x0 DUP5 DUP2 MSTORE PUSH1 0x20 ADD SWAP1 DUP2 MSTORE PUSH1 0x20 ADD PUSH1 0x0 KECCAK256 DUP3 DUP2 SLOAD DUP2 LT PUSH2 0x79E JUMPI INVALID JUMPDEST SWAP1 PUSH1 0x0 MSTORE PUSH1 0x20 PUSH1 0x0 KECCAK256 SWAP1 PUSH1 0x3 MUL ADD PUSH1 0x2 ADD DUP1 SLOAD DUP1 PUSH1 0x20 MUL PUSH1 0x20 ADD PUSH1 0x40 MLOAD SWAP1 DUP2 ADD PUSH1 0x40 MSTORE DUP1 SWAP3 SWAP2 SWAP1 DUP2 DUP2 MSTORE PUSH1 0x20 ADD DUP3 DUP1 SLOAD DUP1 ISZERO PUSH2 0x82F JUMPI PUSH1 0x20 MUL DUP3 ADD SWAP2 SWAP1 PUSH1 0x0 MSTORE PUSH1 0x20 PUSH1 0x0 KECCAK256 SWAP1 JUMPDEST DUP2 PUSH1 0x0 SWAP1 SLOAD SWAP1 PUSH2 0x100 EXP SWAP1 DIV PUSH20 0xFFFFFFFFFFFFFFFFFFFFFFFFFFFFFFFFFFFFFFFF AND PUSH20 0xFFFFFFFFFFFFFFFFFFFFFFFFFFFFFFFFFFFFFFFF AND DUP2 MSTORE PUSH1 0x20 ADD SWAP1 PUSH1 0x1 ADD SWAP1 DUP1 DUP4 GT PUSH2 0x7E5 JUMPI JUMPDEST POP POP POP POP POP SWAP1 POP SWAP3 SWAP2 POP POP JUMP JUMPDEST PUSH1 0x1 SLOAD DUP2 JUMP JUMPDEST PUSH1 0x2 PUSH1 0x0 SWAP1 SLOAD SWAP1 PUSH2 0x100 EXP SWAP1 DIV PUSH20 0xFFFFFFFFFFFFFFFFFFFFFFFFFFFFFFFFFFFFFFFF AND DUP2 JUMP JUMPDEST PUSH1 0x0 DUP1 SWAP1 SLOAD SWAP1 PUSH2 0x100 EXP SWAP1 DIV PUSH20 0xFFFFFFFFFFFFFFFFFFFFFFFFFFFFFFFFFFFFFFFF AND PUSH20 0xFFFFFFFFFFFFFFFFFFFFFFFFFFFFFFFFFFFFFFFF AND CALLER PUSH20 0xFFFFFFFFFFFFFFFFFFFFFFFFFFFFFFFFFFFFFFFF AND EQ PUSH2 0x92A JUMPI PUSH1 0x40 MLOAD PUSH32 0x8C379A000000000000000000000000000000000000000000000000000000000 DUP2 MSTORE PUSH1 0x4 ADD DUP1 DUP1 PUSH1 0x20 ADD DUP3 DUP2 SUB DUP3 MSTORE PUSH1 0x1E DUP2 MSTORE PUSH1 0x20 ADD DUP1 PUSH32 0x52504C534D413A204F6E6C79206465706C6F7965722063616E2063616C6C0000 DUP2 MSTORE POP PUSH1 0x20 ADD SWAP2 POP POP PUSH1 0x40 MLOAD DUP1 SWAP2 SUB SWAP1 REVERT JUMPDEST PUSH1 0x0 PUSH20 0xFFFFFFFFFFFFFFFFFFFFFFFFFFFFFFFFFFFFFFFF AND DUP4 PUSH20 0xFFFFFFFFFFFFFFFFFFFFFFFFFFFFFFFFFFFFFFFF AND EQ PUSH2 0xA64 JUMPI PUSH1 0x0 PUSH20 0xFFFFFFFFFFFFFFFFFFFFFFFFFFFFFFFFFFFFFFFF AND PUSH1 0x2 PUSH1 0x0 SWAP1 SLOAD SWAP1 PUSH2 0x100 EXP SWAP1 DIV PUSH20 0xFFFFFFFFFFFFFFFFFFFFFFFFFFFFFFFFFFFFFFFF AND PUSH20 0xFFFFFFFFFFFFFFFFFFFFFFFFFFFFFFFFFFFFFFFF AND EQ PUSH2 0xA22 JUMPI PUSH1 0x40 MLOAD PUSH32 0x8C379A000000000000000000000000000000000000000000000000000000000 DUP2 MSTORE PUSH1 0x4 ADD DUP1 DUP1 PUSH1 0x20 ADD DUP3 DUP2 SUB DUP3 MSTORE PUSH1 0x1E DUP2 MSTORE PUSH1 0x20 ADD DUP1 PUSH32 0x52504C534D413A20546F6B656E206164727320616C7265616479207365740000 DUP2 MSTORE POP PUSH1 0x20 ADD SWAP2 POP POP PUSH1 0x40 MLOAD DUP1 SWAP2 SUB SWAP1 REVERT JUMPDEST DUP3 PUSH1 0x2 PUSH1 0x0 PUSH2 0x100 EXP DUP2 SLOAD DUP2 PUSH20 0xFFFFFFFFFFFFFFFFFFFFFFFFFFFFFFFFFFFFFFFF MUL NOT AND SWAP1 DUP4 PUSH20 0xFFFFFFFFFFFFFFFFFFFFFFFFFFFFFFFFFFFFFFFF AND MUL OR SWAP1 SSTORE POP JUMPDEST PUSH1 0x0 DUP3 EQ PUSH2 0xAEF JUMPI PUSH1 0x0 PUSH1 0x1 SLOAD EQ PUSH2 0xAE4 JUMPI PUSH1 0x40 MLOAD PUSH32 0x8C379A000000000000000000000000000000000000000000000000000000000 DUP2 MSTORE PUSH1 0x4 ADD DUP1 DUP1 PUSH1 0x20 ADD DUP3 DUP2 SUB DUP3 MSTORE PUSH1 0x20 DUP2 MSTORE PUSH1 0x20 ADD DUP1 PUSH32 0x52504C534D413A2053747274426C6F636B4E756D20616C726561647920736574 DUP2 MSTORE POP PUSH1 0x20 ADD SWAP2 POP POP PUSH1 0x40 MLOAD DUP1 SWAP2 SUB SWAP1 REVERT JUMPDEST PUSH1 0x1 DUP3 SUB PUSH1 0x1 DUP2 SWAP1 SSTORE POP JUMPDEST PUSH1 0x0 DUP2 MLOAD GT ISZERO PUSH2 0xB8C JUMPI PUSH1 0x0 PUSH1 0x4 DUP1 SLOAD SWAP1 POP EQ PUSH2 0xB74 JUMPI PUSH1 0x40 MLOAD PUSH32 0x8C379A000000000000000000000000000000000000000000000000000000000 DUP2 MSTORE PUSH1 0x4 ADD DUP1 DUP1 PUSH1 0x20 ADD DUP3 DUP2 SUB DUP3 MSTORE PUSH1 0x1E DUP2 MSTORE PUSH1 0x20 ADD DUP1 PUSH32 0x52504C534D413A2056616C696461746F727320616C7265616479207365740000 DUP2 MSTORE POP PUSH1 0x20 ADD SWAP2 POP POP PUSH1 0x40 MLOAD DUP1 SWAP2 SUB SWAP1 REVERT JUMPDEST DUP1 PUSH1 0x4 SWAP1 DUP1 MLOAD SWAP1 PUSH1 0x20 ADD SWAP1 PUSH2 0xB8A SWAP3 SWAP2 SWAP1 PUSH2 0x1563 JUMP JUMPDEST POP JUMPDEST POP POP POP JUMP JUMPDEST PUSH2 0xB9A CALLER PUSH2 0x1278 JUMP JUMPDEST PUSH2 0xC0C JUMPI PUSH1 0x40 MLOAD PUSH32 0x8C379A000000000000000000000000000000000000000000000000000000000 DUP2 MSTORE PUSH1 0x4 ADD DUP1 DUP1 PUSH1 0x20 ADD DUP3 DUP2 SUB DUP3 MSTORE PUSH1 0x17 DUP2 MSTORE PUSH1 0x20 ADD DUP1 PUSH32 0x52504C534D413A206E6F7420612076616C696461746F72000000000000000000 DUP2 MSTORE POP PUSH1 0x20 ADD SWAP2 POP POP PUSH1 0x40 MLOAD DUP1 SWAP2 SUB SWAP1 REVERT JUMPDEST PUSH1 0x0 DUP1 PUSH1 0x0 PUSH1 0x20 DUP5 ADD DUP1 MLOAD SWAP4 POP PUSH1 0x20 DUP2 ADD MLOAD SWAP3 POP PUSH1 0x40 DUP2 ADD MLOAD SWAP2 POP POP PUSH1 0x0 DUP1 PUSH2 0xC36 DUP6 DUP6 DUP6 PUSH2 0xE07 JUMP JUMPDEST SWAP2 POP SWAP2 POP DUP2 PUSH2 0xD2D JUMPI PUSH1 0x5 PUSH1 0x0 DUP7 DUP2 MSTORE PUSH1 0x20 ADD SWAP1 DUP2 MSTORE PUSH1 0x20 ADD PUSH1 0x0 KECCAK256 PUSH1 0x40 MLOAD DUP1 PUSH1 0x60 ADD PUSH1 0x40 MSTORE DUP1 DUP7 DUP2 MSTORE PUSH1 0x20 ADD DUP6 DUP2 MSTORE PUSH1 0x20 ADD PUSH1 0x0 PUSH8 0xFFFFFFFFFFFFFFFF DUP2 GT DUP1 ISZERO PUSH2 0xC81 JUMPI PUSH1 0x0 DUP1 REVERT JUMPDEST POP PUSH1 0x40 MLOAD SWAP1 DUP1 DUP3 MSTORE DUP1 PUSH1 0x20 MUL PUSH1 0x20 ADD DUP3 ADD PUSH1 0x40 MSTORE DUP1 ISZERO PUSH2 0xCB0 JUMPI DUP2 PUSH1 0x20 ADD PUSH1 0x20 DUP3 MUL DUP1 CALLDATASIZE DUP4 CALLDATACOPY DUP1 DUP3 ADD SWAP2 POP POP SWAP1 POP JUMPDEST POP DUP2 MSTORE POP SWAP1 DUP1 PUSH1 0x1 DUP2 SLOAD ADD DUP1 DUP3 SSTORE DUP1 SWAP2 POP POP PUSH1 0x1 SWAP1 SUB SWAP1 PUSH1 0x0 MSTORE PUSH1 0x20 PUSH1 0x0 KECCAK256 SWAP1 PUSH1 0x3 MUL ADD PUSH1 0x0 SWAP1 SWAP2 SWAP1 SWAP2 SWAP1 SWAP2 POP PUSH1 0x0 DUP3 ADD MLOAD DUP2 PUSH1 0x0 ADD SSTORE PUSH1 0x20 DUP3 ADD MLOAD DUP2 PUSH1 0x1 ADD SSTORE PUSH1 0x40 DUP3 ADD MLOAD DUP2 PUSH1 0x2 ADD SWAP1 DUP1 MLOAD SWAP1 PUSH1 0x20 ADD SWAP1 PUSH2 0xD0D SWAP3 SWAP2 SWAP1 PUSH2 0x1563 JUMP JUMPDEST POP POP POP PUSH1 0x1 PUSH1 0x5 PUSH1 0x0 DUP8 DUP2 MSTORE PUSH1 0x20 ADD SWAP1 DUP2 MSTORE PUSH1 0x20 ADD PUSH1 0x0 KECCAK256 DUP1 SLOAD SWAP1 POP SUB SWAP1 POP JUMPDEST PUSH2 0xD49 PUSH1 0x5 PUSH1 0x0 DUP8 DUP2 MSTORE PUSH1 0x20 ADD SWAP1 DUP2 MSTORE PUSH1 0x20 ADD PUSH1 0x0 KECCAK256 CALLER PUSH2 0x131A JUMP JUMPDEST PUSH1 0x5 PUSH1 0x0 DUP7 DUP2 MSTORE PUSH1 0x20 ADD SWAP1 DUP2 MSTORE PUSH1 0x20 ADD PUSH1 0x0 KECCAK256 DUP2 DUP2 SLOAD DUP2 LT PUSH2 0xD67 JUMPI INVALID JUMPDEST SWAP1 PUSH1 0x0 MSTORE PUSH1 0x20 PUSH1 0x0 KECCAK256 SWAP1 PUSH1 0x3 MUL ADD PUSH1 0x2 ADD CALLER SWAP1 DUP1 PUSH1 0x1 DUP2 SLOAD ADD DUP1 DUP3 SSTORE DUP1 SWAP2 POP POP PUSH1 0x1 SWAP1 SUB SWAP1 PUSH1 0x0 MSTORE PUSH1 0x20 PUSH1 0x0 KECCAK256 ADD PUSH1 0x0 SWAP1 SWAP2 SWAP1 SWAP2 SWAP1 SWAP2 PUSH2 0x100 EXP DUP2 SLOAD DUP2 PUSH20 0xFFFFFFFFFFFFFFFFFFFFFFFFFFFFFFFFFFFFFFFF MUL NOT AND SWAP1 DUP4 PUSH20 0xFFFFFFFFFFFFFFFFFFFFFFFFFFFFFFFFFFFFFFFF AND MUL OR SWAP1 SSTORE POP POP POP POP POP POP POP JUMP JUMPDEST PUSH1 0x3 PUSH1 0x0 SWAP1 SLOAD SWAP1 PUSH2 0x100 EXP SWAP1 DIV PUSH20 0xFFFFFFFFFFFFFFFFFFFFFFFFFFFFFFFFFFFFFFFF AND DUP2 JUMP JUMPDEST PUSH1 0x0 DUP1 PUSH1 0x0 DUP1 SWAP1 POP JUMPDEST PUSH1 0x5 PUSH1 0x0 DUP8 DUP2 MSTORE PUSH1 0x20 ADD SWAP1 DUP2 MSTORE PUSH1 0x20 ADD PUSH1 0x0 KECCAK256 DUP1 SLOAD SWAP1 POP DUP2 LT ISZERO PUSH2 0xEB9 JUMPI PUSH1 0x5 PUSH1 0x0 DUP8 DUP2 MSTORE PUSH1 0x20 ADD SWAP1 DUP2 MSTORE PUSH1 0x20 ADD PUSH1 0x0 KECCAK256 DUP2 DUP2 SLOAD DUP2 LT PUSH2 0xE4C JUMPI INVALID JUMPDEST SWAP1 PUSH1 0x0 MSTORE PUSH1 0x20 PUSH1 0x0 KECCAK256 SWAP1 PUSH1 0x3 MUL ADD PUSH1 0x0 ADD SLOAD DUP6 EQ DUP1 ISZERO PUSH2 0xE9A JUMPI POP PUSH1 0x5 PUSH1 0x0 DUP8 DUP2 MSTORE PUSH1 0x20 ADD SWAP1 DUP2 MSTORE PUSH1 0x20 ADD PUSH1 0x0 KECCAK256 DUP2 DUP2 SLOAD DUP2 LT PUSH2 0xE85 JUMPI INVALID JUMPDEST SWAP1 PUSH1 0x0 MSTORE PUSH1 0x20 PUSH1 0x0 KECCAK256 SWAP1 PUSH1 0x3 MUL ADD PUSH1 0x1 ADD SLOAD DUP5 EQ JUMPDEST ISZERO PUSH2 0xEAC JUMPI PUSH1 0x1 DUP2 SWAP3 POP SWAP3 POP POP PUSH2 0xEC5 JUMP JUMPDEST DUP1 DUP1 PUSH1 0x1 ADD SWAP2 POP POP PUSH2 0xE10 JUMP JUMPDEST POP PUSH1 0x0 DUP1 DUP1 SWAP1 POP SWAP2 POP SWAP2 POP JUMPDEST SWAP4 POP SWAP4 SWAP2 POP POP JUMP JUMPDEST PUSH1 0x5 PUSH1 0x20 MSTORE DUP2 PUSH1 0x0 MSTORE PUSH1 0x40 PUSH1 0x0 KECCAK256 DUP2 DUP2 SLOAD DUP2 LT PUSH2 0xEE6 JUMPI INVALID JUMPDEST SWAP1 PUSH1 0x0 MSTORE PUSH1 0x20 PUSH1 0x0 KECCAK256 SWAP1 PUSH1 0x3 MUL ADD PUSH1 0x0 SWAP2 POP SWAP2 POP POP DUP1 PUSH1 0x0 ADD SLOAD SWAP1 DUP1 PUSH1 0x1 ADD SLOAD SWAP1 POP DUP3 JUMP JUMPDEST PUSH1 0x60 PUSH1 0x4 DUP1 SLOAD DUP1 PUSH1 0x20 MUL PUSH1 0x20 ADD PUSH1 0x40 MLOAD SWAP1 DUP2 ADD PUSH1 0x40 MSTORE DUP1 SWAP3 SWAP2 SWAP1 DUP2 DUP2 MSTORE PUSH1 0x20 ADD DUP3 DUP1 SLOAD DUP1 ISZERO PUSH2 0xF8F JUMPI PUSH1 0x20 MUL DUP3 ADD SWAP2 SWAP1 PUSH1 0x0 MSTORE PUSH1 0x20 PUSH1 0x0 KECCAK256 SWAP1 JUMPDEST DUP2 PUSH1 0x0 SWAP1 SLOAD SWAP1 PUSH2 0x100 EXP SWAP1 DIV PUSH20 0xFFFFFFFFFFFFFFFFFFFFFFFFFFFFFFFFFFFFFFFF AND PUSH20 0xFFFFFFFFFFFFFFFFFFFFFFFFFFFFFFFFFFFFFFFF AND DUP2 MSTORE PUSH1 0x20 ADD SWAP1 PUSH1 0x1 ADD SWAP1 DUP1 DUP4 GT PUSH2 0xF45 JUMPI JUMPDEST POP POP POP POP POP SWAP1 POP SWAP1 JUMP JUMPDEST PUSH1 0x1 DUP1 SLOAD ADD DUP3 GT ISZERO PUSH2 0x1013 JUMPI PUSH1 0x40 MLOAD PUSH32 0x8C379A000000000000000000000000000000000000000000000000000000000 DUP2 MSTORE PUSH1 0x4 ADD DUP1 DUP1 PUSH1 0x20 ADD DUP3 DUP2 SUB DUP3 MSTORE PUSH1 0x1C DUP2 MSTORE PUSH1 0x20 ADD DUP1 PUSH32 0x52504C534D413A20696E76616C696420626C6F636B206E756D62657200000000 DUP2 MSTORE POP PUSH1 0x20 ADD SWAP2 POP POP PUSH1 0x40 MLOAD DUP1 SWAP2 SUB SWAP1 REVERT JUMPDEST PUSH1 0x0 DUP1 PUSH1 0x5 PUSH1 0x0 DUP6 DUP2 MSTORE PUSH1 0x20 ADD SWAP1 DUP2 MSTORE PUSH1 0x20 ADD PUSH1 0x0 KECCAK256 DUP4 DUP2 SLOAD DUP2 LT PUSH2 0x1034 JUMPI INVALID JUMPDEST SWAP1 PUSH1 0x0 MSTORE PUSH1 0x20 PUSH1 0x0 KECCAK256 SWAP1 PUSH1 0x3 MUL ADD PUSH1 0x2 ADD SWAP1 POP PUSH1 0x0 DUP1 SWAP1 POP JUMPDEST DUP2 DUP1 SLOAD SWAP1 POP DUP2 LT ISZERO PUSH2 0x10B3 JUMPI PUSH2 0x1098 DUP3 DUP3 DUP2 SLOAD DUP2 LT PUSH2 0x1068 JUMPI INVALID JUMPDEST SWAP1 PUSH1 0x0 MSTORE PUSH1 0x20 PUSH1 0x0 KECCAK256 ADD PUSH1 0x0 SWAP1 SLOAD SWAP1 PUSH2 0x100 EXP SWAP1 DIV PUSH20 0xFFFFFFFFFFFFFFFFFFFFFFFFFFFFFFFFFFFFFFFF AND PUSH2 0x1278 JUMP JUMPDEST ISZERO PUSH2 0x10A6 JUMPI DUP3 DUP1 PUSH1 0x1 ADD SWAP4 POP POP JUMPDEST DUP1 DUP1 PUSH1 0x1 ADD SWAP2 POP POP PUSH2 0x104D JUMP JUMPDEST POP PUSH2 0x10CD PUSH1 0x2 PUSH1 0x4 DUP1 SLOAD SWAP1 POP PUSH2 0x14C0 SWAP1 SWAP2 SWAP1 PUSH4 0xFFFFFFFF AND JUMP JUMPDEST PUSH2 0x10E1 PUSH1 0x3 DUP5 PUSH2 0x14C0 SWAP1 SWAP2 SWAP1 PUSH4 0xFFFFFFFF AND JUMP JUMPDEST GT PUSH2 0x1154 JUMPI PUSH1 0x40 MLOAD PUSH32 0x8C379A000000000000000000000000000000000000000000000000000000000 DUP2 MSTORE PUSH1 0x4 ADD DUP1 DUP1 PUSH1 0x20 ADD DUP3 DUP2 SUB DUP3 MSTORE PUSH1 0x1A DUP2 MSTORE PUSH1 0x20 ADD DUP1 PUSH32 0x52504C534D413A206E6F74203636252076616C696461746F7273000000000000 DUP2 MSTORE POP PUSH1 0x20 ADD SWAP2 POP POP PUSH1 0x40 MLOAD DUP1 SWAP2 SUB SWAP1 REVERT JUMPDEST PUSH1 0x40 MLOAD DUP1 PUSH1 0x40 ADD PUSH1 0x40 MSTORE DUP1 PUSH1 0x5 PUSH1 0x0 DUP8 DUP2 MSTORE PUSH1 0x20 ADD SWAP1 DUP2 MSTORE PUSH1 0x20 ADD PUSH1 0x0 KECCAK256 DUP6 DUP2 SLOAD DUP2 LT PUSH2 0x117D JUMPI INVALID JUMPDEST SWAP1 PUSH1 0x0 MSTORE PUSH1 0x20 PUSH1 0x0 KECCAK256 SWAP1 PUSH1 0x3 MUL ADD PUSH1 0x0 ADD SLOAD DUP2 MSTORE PUSH1 0x20 ADD PUSH1 0x5 PUSH1 0x0 DUP8 DUP2 MSTORE PUSH1 0x20 ADD SWAP1 DUP2 MSTORE PUSH1 0x20 ADD PUSH1 0x0 KECCAK256 DUP6 DUP2 SLOAD DUP2 LT PUSH2 0x11B2 JUMPI INVALID JUMPDEST SWAP1 PUSH1 0x0 MSTORE PUSH1 0x20 PUSH1 0x0 KECCAK256 SWAP1 PUSH1 0x3 MUL ADD PUSH1 0x1 ADD SLOAD DUP2 MSTORE POP PUSH1 0x6 PUSH1 0x0 DUP7 DUP2 MSTORE PUSH1 0x20 ADD SWAP1 DUP2 MSTORE PUSH1 0x20 ADD PUSH1 0x0 KECCAK256 PUSH1 0x0 DUP3 ADD MLOAD DUP2 PUSH1 0x0 ADD SSTORE PUSH1 0x20 DUP3 ADD MLOAD DUP2 PUSH1 0x1 ADD SSTORE SWAP1 POP POP PUSH1 0x5 PUSH1 0x0 DUP6 DUP2 MSTORE PUSH1 0x20 ADD SWAP1 DUP2 MSTORE PUSH1 0x20 ADD PUSH1 0x0 KECCAK256 DUP4 DUP2 SLOAD DUP2 LT PUSH2 0x120F JUMPI INVALID JUMPDEST SWAP1 PUSH1 0x0 MSTORE PUSH1 0x20 PUSH1 0x0 KECCAK256 SWAP1 PUSH1 0x3 MUL ADD PUSH1 0x2 ADD PUSH1 0x0 PUSH2 0x122C SWAP2 SWAP1 PUSH2 0x15ED JUMP JUMPDEST DUP4 PUSH1 0x1 DUP2 SWAP1 SSTORE POP PUSH32 0x72485B82F943DDB489949C1B7FEAEA5C5ACD4113547CAD7A281343C8300FC6F1 DUP5 DUP5 PUSH1 0x40 MLOAD DUP1 DUP4 DUP2 MSTORE PUSH1 0x20 ADD DUP3 DUP2 MSTORE PUSH1 0x20 ADD SWAP3 POP POP POP PUSH1 0x40 MLOAD DUP1 SWAP2 SUB SWAP1 LOG1 POP POP POP POP JUMP JUMPDEST PUSH1 0x0 DUP1 PUSH1 0x0 SWAP1 POP JUMPDEST PUSH1 0x4 DUP1 SLOAD SWAP1 POP DUP2 LT ISZERO PUSH2 0x130F JUMPI PUSH1 0x4 DUP2 DUP2 SLOAD DUP2 LT PUSH2 0x129A JUMPI INVALID JUMPDEST SWAP1 PUSH1 0x0 MSTORE PUSH1 0x20 PUSH1 0x0 KECCAK256 ADD PUSH1 0x0 SWAP1 SLOAD SWAP1 PUSH2 0x100 EXP SWAP1 DIV PUSH20 0xFFFFFFFFFFFFFFFFFFFFFFFFFFFFFFFFFFFFFFFF AND PUSH20 0xFFFFFFFFFFFFFFFFFFFFFFFFFFFFFFFFFFFFFFFF AND DUP4 PUSH20 0xFFFFFFFFFFFFFFFFFFFFFFFFFFFFFFFFFFFFFFFF AND EQ ISZERO PUSH2 0x1302 JUMPI PUSH1 0x1 SWAP2 POP POP PUSH2 0x1315 JUMP JUMPDEST DUP1 DUP1 PUSH1 0x1 ADD SWAP2 POP POP PUSH2 0x1280 JUMP JUMPDEST POP PUSH1 0x0 SWAP1 POP JUMPDEST SWAP2 SWAP1 POP JUMP JUMPDEST PUSH1 0x0 DUP1 SWAP1 POP JUMPDEST DUP3 DUP1 SLOAD SWAP1 POP DUP2 LT ISZERO PUSH2 0x14BB JUMPI PUSH1 0x0 DUP4 DUP3 DUP2 SLOAD DUP2 LT PUSH2 0x133A JUMPI INVALID JUMPDEST SWAP1 PUSH1 0x0 MSTORE PUSH1 0x20 PUSH1 0x0 KECCAK256 SWAP1 PUSH1 0x3 MUL ADD PUSH1 0x2 ADD SWAP1 POP PUSH1 0x0 DUP1 SWAP1 POP JUMPDEST DUP2 DUP1 SLOAD SWAP1 POP DUP2 LT ISZERO PUSH2 0x14AC JUMPI DUP2 DUP2 DUP2 SLOAD DUP2 LT PUSH2 0x136B JUMPI INVALID JUMPDEST SWAP1 PUSH1 0x0 MSTORE PUSH1 0x20 PUSH1 0x0 KECCAK256 ADD PUSH1 0x0 SWAP1 SLOAD SWAP1 PUSH2 0x100 EXP SWAP1 DIV PUSH20 0xFFFFFFFFFFFFFFFFFFFFFFFFFFFFFFFFFFFFFFFF AND PUSH20 0xFFFFFFFFFFFFFFFFFFFFFFFFFFFFFFFFFFFFFFFF AND DUP5 PUSH20 0xFFFFFFFFFFFFFFFFFFFFFFFFFFFFFFFFFFFFFFFF AND EQ ISZERO PUSH2 0x149F JUMPI DUP2 PUSH1 0x1 DUP4 DUP1 SLOAD SWAP1 POP SUB DUP2 SLOAD DUP2 LT PUSH2 0x13DC JUMPI INVALID JUMPDEST SWAP1 PUSH1 0x0 MSTORE PUSH1 0x20 PUSH1 0x0 KECCAK256 ADD PUSH1 0x0 SWAP1 SLOAD SWAP1 PUSH2 0x100 EXP SWAP1 DIV PUSH20 0xFFFFFFFFFFFFFFFFFFFFFFFFFFFFFFFFFFFFFFFF AND DUP3 DUP3 DUP2 SLOAD DUP2 LT PUSH2 0x1413 JUMPI INVALID JUMPDEST SWAP1 PUSH1 0x0 MSTORE PUSH1 0x20 PUSH1 0x0 KECCAK256 ADD PUSH1 0x0 PUSH2 0x100 EXP DUP2 SLOAD DUP2 PUSH20 0xFFFFFFFFFFFFFFFFFFFFFFFFFFFFFFFFFFFFFFFF MUL NOT AND SWAP1 DUP4 PUSH20 0xFFFFFFFFFFFFFFFFFFFFFFFFFFFFFFFFFFFFFFFF AND MUL OR SWAP1 SSTORE POP DUP2 DUP1 SLOAD DUP1 PUSH2 0x1465 JUMPI INVALID JUMPDEST PUSH1 0x1 SWAP1 SUB DUP2 DUP2 SWAP1 PUSH1 0x0 MSTORE PUSH1 0x20 PUSH1 0x0 KECCAK256 ADD PUSH1 0x0 PUSH2 0x100 EXP DUP2 SLOAD SWAP1 PUSH20 0xFFFFFFFFFFFFFFFFFFFFFFFFFFFFFFFFFFFFFFFF MUL NOT AND SWAP1 SSTORE SWAP1 SSTORE PUSH2 0x14AC JUMP JUMPDEST DUP1 DUP1 PUSH1 0x1 ADD SWAP2 POP POP PUSH2 0x1353 JUMP JUMPDEST POP POP DUP1 DUP1 PUSH1 0x1 ADD SWAP2 POP POP PUSH2 0x1320 JUMP JUMPDEST POP POP POP JUMP JUMPDEST PUSH1 0x0 DUP1 DUP4 EQ ISZERO PUSH2 0x14D3 JUMPI PUSH1 0x0 SWAP1 POP PUSH2 0x155D JUMP JUMPDEST PUSH1 0x0 DUP3 DUP5 MUL SWAP1 POP DUP3 DUP5 DUP3 DUP2 PUSH2 0x14E4 JUMPI INVALID JUMPDEST DIV EQ PUSH2 0x1558 JUMPI PUSH1 0x40 MLOAD PUSH32 0x8C379A000000000000000000000000000000000000000000000000000000000 DUP2 MSTORE PUSH1 0x4 ADD DUP1 DUP1 PUSH1 0x20 ADD DUP3 DUP2 SUB DUP3 MSTORE PUSH1 0x1F DUP2 MSTORE PUSH1 0x20 ADD DUP1 PUSH32 0x536166654D6174683A204D756C7469706C696361746E206F766572666C6F7700 DUP2 MSTORE POP PUSH1 0x20 ADD SWAP2 POP POP PUSH1 0x40 MLOAD DUP1 SWAP2 SUB SWAP1 REVERT JUMPDEST DUP1 SWAP2 POP POP JUMPDEST SWAP3 SWAP2 POP POP JUMP JUMPDEST DUP3 DUP1 SLOAD DUP3 DUP3 SSTORE SWAP1 PUSH1 0x0 MSTORE PUSH1 0x20 PUSH1 0x0 KECCAK256 SWAP1 DUP2 ADD SWAP3 DUP3 ISZERO PUSH2 0x15DC JUMPI SWAP2 PUSH1 0x20 MUL DUP3 ADD JUMPDEST DUP3 DUP2 GT ISZERO PUSH2 0x15DB JUMPI DUP3 MLOAD DUP3 PUSH1 0x0 PUSH2 0x100 EXP DUP2 SLOAD DUP2 PUSH20 0xFFFFFFFFFFFFFFFFFFFFFFFFFFFFFFFFFFFFFFFF MUL NOT AND SWAP1 DUP4 PUSH20 0xFFFFFFFFFFFFFFFFFFFFFFFFFFFFFFFFFFFFFFFF AND MUL OR SWAP1 SSTORE POP SWAP2 PUSH1 0x20 ADD SWAP2 SWAP1 PUSH1 0x1 ADD SWAP1 PUSH2 0x1583 JUMP JUMPDEST JUMPDEST POP SWAP1 POP PUSH2 0x15E9 SWAP2 SWAP1 PUSH2 0x160E JUMP JUMPDEST POP SWAP1 JUMP JUMPDEST POP DUP1 SLOAD PUSH1 0x0 DUP3 SSTORE SWAP1 PUSH1 0x0 MSTORE PUSH1 0x20 PUSH1 0x0 KECCAK256 SWAP1 DUP2 ADD SWAP1 PUSH2 0x160B SWAP2 SWAP1 PUSH2 0x1651 JUMP JUMPDEST POP JUMP JUMPDEST PUSH2 0x164E SWAP2 SWAP1 JUMPDEST DUP1 DUP3 GT ISZERO PUSH2 0x164A JUMPI PUSH1 0x0 DUP2 DUP2 PUSH2 0x100 EXP DUP2 SLOAD SWAP1 PUSH20 0xFFFFFFFFFFFFFFFFFFFFFFFFFFFFFFFFFFFFFFFF MUL NOT AND SWAP1 SSTORE POP PUSH1 0x1 ADD PUSH2 0x1614 JUMP JUMPDEST POP SWAP1 JUMP JUMPDEST SWAP1 JUMP JUMPDEST PUSH2 0x1673 SWAP2 SWAP1 JUMPDEST DUP1 DUP3 GT ISZERO PUSH2 0x166F JUMPI PUSH1 0x0 DUP2 PUSH1 0x0 SWAP1 SSTORE POP PUSH1 0x1 ADD PUSH2 0x1657 JUMP JUMPDEST POP SWAP1 JUMP JUMPDEST SWAP1 JUMP INVALID LOG2 PUSH5 0x6970667358 0x22 SLT KECCAK256 0x2D CALLDATACOPY RETURN PUSH11 0x7A9F5AC981551358A34A43 0xBD 0xE4 SWAP1 0xB7 0xAE 0x2C 0x5E DUP4 0xB7 ISZERO EXTCODESIZE SWAP14 0xE9 0xFC 0xB6 0x5E SHL PUSH5 0x736F6C6343 STOP MOD EXP STOP CALLER "},"gasEstimates":{"creation":{"codeDepositCost":"1160800","executionCost":"42939","totalCost":"1203739"},"external":{"ethBlockchain(uint256)":"2033","ethProposals(uint256,uint256)":"2951","finalizeProposal(uint256,uint256)":"infinite","findProposal(uint256,bytes32,bytes32)":"infinite","getAllValidators()":"infinite","getProposalValidators(uint256,uint256)":"infinite","getProposalsCount(uint256)":"1232","isValidator(address)":"infinite","latestBlockNumber()":"1072","mainValidators(uint256)":"2040","proposeBlock(bytes)":"infinite","reverseDepositAddress()":"1120","setInitialValues(address,uint256,address[])":"infinite","tokenOnETH()":"1142","updateDepositAddress(address)":"21169"},"internal":{"_removeValidatorFromAllProposals(struct ReversePlasma.BlockHeaderProposal storage ref[] storage pointer,address)":"infinite"}},"methodIdentifiers":{"ethBlockchain(uint256)":"0635ce00","ethProposals(uint256,uint256)":"d7ef9dcc","finalizeProposal(uint256,uint256)":"f80339a8","findProposal(uint256,bytes32,bytes32)":"be08be6d","getAllValidators()":"f3513a37","getProposalValidators(uint256,uint256)":"439ef4d3","getProposalsCount(uint256)":"1b1aa8b8","isValidator(address)":"facd743b","latestBlockNumber()":"4599c788","mainValidators(uint256)":"3ce03bdd","proposeBlock(bytes)":"74c2c698","reverseDepositAddress()":"9d382ed0","setInitialValues(address,uint256,address[])":"5f281006","tokenOnETH()":"5053f5fd","updateDepositAddress(address)":"1ba853d0"}},"storageLayout":{"storage":[{"astId":357,"contract":"ESN/ReversePlasma.sol:ReversePlasma","label":"deployer","offset":0,"slot":"0","type":"t_address"},{"astId":359,"contract":"ESN/ReversePlasma.sol:ReversePlasma","label":"latestBlockNumber","offset":0,"slot":"1","type":"t_uint256"},{"astId":361,"contract":"ESN/ReversePlasma.sol:ReversePlasma","label":"tokenOnETH","offset":0,"slot":"2","type":"t_address"},{"astId":367,"contract":"ESN/ReversePlasma.sol:ReversePlasma","label":"reverseDepositAddress","offset":0,"slot":"3","type":"t_address"},{"astId":370,"contract":"ESN/ReversePlasma.sol:ReversePlasma","label":"mainValidators","offset":0,"slot":"4","type":"t_array(t_address)dyn_storage"},{"astId":375,"contract":"ESN/ReversePlasma.sol:ReversePlasma","label":"ethProposals","offset":0,"slot":"5","type":"t_mapping(t_uint256,t_array(t_struct(BlockHeaderProposal)354_storage)dyn_storage)"},{"astId":379,"contract":"ESN/ReversePlasma.sol:ReversePlasma","label":"ethBlockchain","offset":0,"slot":"6","type":"t_mapping(t_uint256,t_struct(BlockHeaderFinalized)346_storage)"}],"types":{"t_address":{"encoding":"inplace","label":"address","numberOfBytes":"20"},"t_array(t_address)dyn_storage":{"base":"t_address","encoding":"dynamic_array","label":"address[]","numberOfBytes":"32"},"t_array(t_struct(BlockHeaderProposal)354_storage)dyn_storage":{"base":"t_struct(BlockHeaderProposal)354_storage","encoding":"dynamic_array","label":"struct ReversePlasma.BlockHeaderProposal[]","numberOfBytes":"32"},"t_bytes32":{"encoding":"inplace","label":"bytes32","numberOfBytes":"32"},"t_mapping(t_uint256,t_array(t_struct(BlockHeaderProposal)354_storage)dyn_storage)":{"encoding":"mapping","key":"t_uint256","label":"mapping(uint256 => struct ReversePlasma.BlockHeaderProposal[])","numberOfBytes":"32","value":"t_array(t_struct(BlockHeaderProposal)354_storage)dyn_storage"},"t_mapping(t_uint256,t_struct(BlockHeaderFinalized)346_storage)":{"encoding":"mapping","key":"t_uint256","label":"mapping(uint256 => struct ReversePlasma.BlockHeaderFinalized)","numberOfBytes":"32","value":"t_struct(BlockHeaderFinalized)346_storage"},"t_struct(BlockHeaderFinalized)346_storage":{"encoding":"inplace","label":"struct ReversePlasma.BlockHeaderFinalized","members":[{"astId":343,"contract":"ESN/ReversePlasma.sol:ReversePlasma","label":"transactionsRoot","offset":0,"slot":"0","type":"t_bytes32"},{"astId":345,"contract":"ESN/ReversePlasma.sol:ReversePlasma","label":"receiptsRoot","offset":0,"slot":"1","type":"t_bytes32"}],"numberOfBytes":"64"},"t_struct(BlockHeaderProposal)354_storage":{"encoding":"inplace","label":"struct ReversePlasma.BlockHeaderProposal","members":[{"astId":348,"contract":"ESN/ReversePlasma.sol:ReversePlasma","label":"transactionsRoot","offset":0,"slot":"0","type":"t_bytes32"},{"astId":350,"contract":"ESN/ReversePlasma.sol:ReversePlasma","label":"receiptsRoot","offset":0,"slot":"1","type":"t_bytes32"},{"astId":353,"contract":"ESN/ReversePlasma.sol:ReversePlasma","label":"proposalValidators","offset":0,"slot":"2","type":"t_array(t_address)dyn_storage"}],"numberOfBytes":"96"},"t_uint256":{"encoding":"inplace","label":"uint256","numberOfBytes":"32"}}},"userdoc":{"methods":{}}}