{"abi":[{"inputs":[],"stateMutability":"nonpayable","type":"constructor"},{"anonymous":false,"inputs":[{"indexed":false,"internalType":"uint256","name":"blockNumber","type":"uint256"},{"indexed":false,"internalType":"uint256","name":"proposalId","type":"uint256"}],"name":"NewBlockHeader","type":"event"},{"inputs":[{"internalType":"uint256","name":"","type":"uint256"}],"name":"ethBlockchain","outputs":[{"internalType":"bytes32","name":"transactionsRoot","type":"bytes32"},{"internalType":"bytes32","name":"receiptsRoot","type":"bytes32"}],"stateMutability":"view","type":"function"},{"inputs":[{"internalType":"uint256","name":"","type":"uint256"},{"internalType":"uint256","name":"","type":"uint256"}],"name":"ethProposals","outputs":[{"internalType":"bytes32","name":"transactionsRoot","type":"bytes32"},{"internalType":"bytes32","name":"receiptsRoot","type":"bytes32"}],"stateMutability":"view","type":"function"},{"inputs":[{"internalType":"uint256","name":"_blockNumber","type":"uint256"},{"internalType":"uint256","name":"_proposalId","type":"uint256"}],"name":"finalizeProposal","outputs":[],"stateMutability":"nonpayable","type":"function"},{"inputs":[{"internalType":"uint256","name":"_blockNumber","type":"uint256"},{"internalType":"bytes32","name":"_transactionsRoot","type":"bytes32"},{"internalType":"bytes32","name":"_receiptsRoot","type":"bytes32"}],"name":"findProposal","outputs":[{"internalType":"bool","name":"","type":"bool"},{"internalType":"uint256","name":"","type":"uint256"}],"stateMutability":"view","type":"function"},{"inputs":[],"name":"getAllValidators","outputs":[{"internalType":"address[]","name":"","type":"address[]"}],"stateMutability":"view","type":"function"},{"inputs":[{"internalType":"uint256","name":"_blockNumber","type":"uint256"},{"internalType":"uint256","name":"_proposalId","type":"uint256"}],"name":"getProposalValidators","outputs":[{"internalType":"address[]","name":"","type":"address[]"}],"stateMutability":"view","type":"function"},{"inputs":[{"internalType":"uint256","name":"_blockNumber","type":"uint256"}],"name":"getProposalsCount","outputs":[{"internalType":"uint256","name":"","type":"uint256"}],"stateMutability":"view","type":"function"},{"inputs":[{"internalType":"address","name":"_validator","type":"address"}],"name":"isValidator","outputs":[{"internalType":"bool","name":"","type":"bool"}],"stateMutability":"view","type":"function"},{"inputs":[],"name":"latestBlockNumber","outputs":[{"internalType":"uint256","name":"","type":"uint256"}],"stateMutability":"view","type":"function"},{"inputs":[{"internalType":"uint256","name":"","type":"uint256"}],"name":"mainValidators","outputs":[{"internalType":"address","name":"","type":"address"}],"stateMutability":"view","type":"function"},{"inputs":[{"internalType":"uint256","name":"_blockNumber","type":"uint256"},{"internalType":"bytes32","name":"_transactionsRoot","type":"bytes32"},{"internalType":"bytes32","name":"_receiptsRoot","type":"bytes32"}],"name":"proposeBlock","outputs":[],"stateMutability":"nonpayable","type":"function"},{"inputs":[],"name":"reverseDepositAddress","outputs":[{"internalType":"address","name":"","type":"address"}],"stateMutability":"view","type":"function"},{"inputs":[{"internalType":"address","name":"_tokenOnETH","type":"address"},{"internalType":"uint256","name":"_startBlockNumber","type":"uint256"},{"internalType":"address[]","name":"_validators","type":"address[]"}],"name":"setInitialValues","outputs":[],"stateMutability":"nonpayable","type":"function"},{"inputs":[],"name":"tokenOnETH","outputs":[{"internalType":"address","name":"","type":"address"}],"stateMutability":"view","type":"function"},{"inputs":[{"internalType":"address","name":"_reverseDepositAddress","type":"address"}],"name":"updateDepositAddress","outputs":[],"stateMutability":"nonpayable","type":"function"}],"devdoc":{"methods":{},"stateVariables":{"deployer":{"details":"keeping deployer private since this wallet will be used for onetime     calling setInitialValues method, after that it has no special role.     Hence it doesn't make sence creating a method by marking it public."}}},"evm":{"assembly":"    /* \"ESN/ReversePlasma.sol\":282:6077  contract ReversePlasma {... */\n  mstore(0x40, 0x80)\n    /* \"ESN/ReversePlasma.sol\":964:968  this */\n  address\n    /* \"ESN/ReversePlasma.sol\":917:969  address public reverseDepositAddress = address(this) */\n  0x03\n  exp(0x0100, 0x00)\n  dup2\n  sload\n  dup2\n  0xffffffffffffffffffffffffffffffffffffffff\n  mul\n  not\n  and\n  swap1\n  dup4\n  0xffffffffffffffffffffffffffffffffffffffff\n  and\n  mul\n  or\n  swap1\n  sstore\n  pop\n    /* \"ESN/ReversePlasma.sol\":1318:1368  constructor() public {... */\n  callvalue\n  dup1\n  iszero\n  tag_1\n  jumpi\n  0x00\n  dup1\n  revert\ntag_1:\n  pop\n    /* \"ESN/ReversePlasma.sol\":1354:1364  msg.sender */\n  caller\n    /* \"ESN/ReversePlasma.sol\":1343:1351  deployer */\n  0x00\n  dup1\n    /* \"ESN/ReversePlasma.sol\":1343:1364  deployer = msg.sender */\n  0x0100\n  exp\n  dup2\n  sload\n  dup2\n  0xffffffffffffffffffffffffffffffffffffffff\n  mul\n  not\n  and\n  swap1\n  dup4\n  0xffffffffffffffffffffffffffffffffffffffff\n  and\n  mul\n  or\n  swap1\n  sstore\n  pop\n    /* \"ESN/ReversePlasma.sol\":282:6077  contract ReversePlasma {... */\n  dataSize(sub_0)\n  dup1\n  dataOffset(sub_0)\n  0x00\n  codecopy\n  0x00\n  return\nstop\n\nsub_0: assembly {\n        /* \"ESN/ReversePlasma.sol\":282:6077  contract ReversePlasma {... */\n      mstore(0x40, 0x80)\n      callvalue\n      dup1\n      iszero\n      tag_1\n      jumpi\n      0x00\n      dup1\n      revert\n    tag_1:\n      pop\n      jumpi(tag_2, lt(calldatasize, 0x04))\n      shr(0xe0, calldataload(0x00))\n      dup1\n      0x5f281006\n      gt\n      tag_18\n      jumpi\n      dup1\n      0xd7ef9dcc\n      gt\n      tag_19\n      jumpi\n      dup1\n      0xd7ef9dcc\n      eq\n      tag_14\n      jumpi\n      dup1\n      0xf3513a37\n      eq\n      tag_15\n      jumpi\n      dup1\n      0xf80339a8\n      eq\n      tag_16\n      jumpi\n      dup1\n      0xfacd743b\n      eq\n      tag_17\n      jumpi\n      jump(tag_2)\n    tag_19:\n      dup1\n      0x5f281006\n      eq\n      tag_10\n      jumpi\n      dup1\n      0x9d382ed0\n      eq\n      tag_11\n      jumpi\n      dup1\n      0xbd13222c\n      eq\n      tag_12\n      jumpi\n      dup1\n      0xbe08be6d\n      eq\n      tag_13\n      jumpi\n      jump(tag_2)\n    tag_18:\n      dup1\n      0x3ce03bdd\n      gt\n      tag_20\n      jumpi\n      dup1\n      0x3ce03bdd\n      eq\n      tag_6\n      jumpi\n      dup1\n      0x439ef4d3\n      eq\n      tag_7\n      jumpi\n      dup1\n      0x4599c788\n      eq\n      tag_8\n      jumpi\n      dup1\n      0x5053f5fd\n      eq\n      tag_9\n      jumpi\n      jump(tag_2)\n    tag_20:\n      dup1\n      0x0635ce00\n      eq\n      tag_3\n      jumpi\n      dup1\n      0x1b1aa8b8\n      eq\n      tag_4\n      jumpi\n      dup1\n      0x1ba853d0\n      eq\n      tag_5\n      jumpi\n    tag_2:\n      0x00\n      dup1\n      revert\n        /* \"ESN/ReversePlasma.sol\":1071:1132  mapping(uint256 => BlockHeaderFinalized) public ethBlockchain */\n    tag_3:\n      tag_21\n      0x04\n      dup1\n      calldatasize\n      sub\n      0x20\n      dup2\n      lt\n      iszero\n      tag_22\n      jumpi\n      0x00\n      dup1\n      revert\n    tag_22:\n      dup2\n      add\n      swap1\n      dup1\n      dup1\n      calldataload\n      swap1\n      0x20\n      add\n      swap1\n      swap3\n      swap2\n      swap1\n      pop\n      pop\n      pop\n      tag_23\n      jump\t// in\n    tag_21:\n      mload(0x40)\n      dup1\n      dup4\n      dup2\n      mstore\n      0x20\n      add\n      dup3\n      dup2\n      mstore\n      0x20\n      add\n      swap3\n      pop\n      pop\n      pop\n      mload(0x40)\n      dup1\n      swap2\n      sub\n      swap1\n      return\n        /* \"ESN/ReversePlasma.sol\":5057:5184  function getProposalsCount(uint256 _blockNumber) public view returns (uint256) {... */\n    tag_4:\n      tag_24\n      0x04\n      dup1\n      calldatasize\n      sub\n      0x20\n      dup2\n      lt\n      iszero\n      tag_25\n      jumpi\n      0x00\n      dup1\n      revert\n    tag_25:\n      dup2\n      add\n      swap1\n      dup1\n      dup1\n      calldataload\n      swap1\n      0x20\n      add\n      swap1\n      swap3\n      swap2\n      swap1\n      pop\n      pop\n      pop\n      tag_26\n      jump\t// in\n    tag_24:\n      mload(0x40)\n      dup1\n      dup3\n      dup2\n      mstore\n      0x20\n      add\n      swap2\n      pop\n      pop\n      mload(0x40)\n      dup1\n      swap2\n      sub\n      swap1\n      return\n        /* \"ESN/ReversePlasma.sol\":2187:2310  function updateDepositAddress(address _reverseDepositAddress) public {... */\n    tag_5:\n      tag_27\n      0x04\n      dup1\n      calldatasize\n      sub\n      0x20\n      dup2\n      lt\n      iszero\n      tag_28\n      jumpi\n      0x00\n      dup1\n      revert\n    tag_28:\n      dup2\n      add\n      swap1\n      dup1\n      dup1\n      calldataload\n      0xffffffffffffffffffffffffffffffffffffffff\n      and\n      swap1\n      0x20\n      add\n      swap1\n      swap3\n      swap2\n      swap1\n      pop\n      pop\n      pop\n      tag_29\n      jump\t// in\n    tag_27:\n      stop\n        /* \"ESN/ReversePlasma.sol\":972:1003  address[] public mainValidators */\n    tag_6:\n      tag_30\n      0x04\n      dup1\n      calldatasize\n      sub\n      0x20\n      dup2\n      lt\n      iszero\n      tag_31\n      jumpi\n      0x00\n      dup1\n      revert\n    tag_31:\n      dup2\n      add\n      swap1\n      dup1\n      dup1\n      calldataload\n      swap1\n      0x20\n      add\n      swap1\n      swap3\n      swap2\n      swap1\n      pop\n      pop\n      pop\n      tag_32\n      jump\t// in\n    tag_30:\n      mload(0x40)\n      dup1\n      dup3\n      0xffffffffffffffffffffffffffffffffffffffff\n      and\n      0xffffffffffffffffffffffffffffffffffffffff\n      and\n      dup2\n      mstore\n      0x20\n      add\n      swap2\n      pop\n      pop\n      mload(0x40)\n      dup1\n      swap2\n      sub\n      swap1\n      return\n        /* \"ESN/ReversePlasma.sol\":4861:5054  function getProposalValidators(uint256 _blockNumber, uint256 _proposalId)... */\n    tag_7:\n      tag_33\n      0x04\n      dup1\n      calldatasize\n      sub\n      0x40\n      dup2\n      lt\n      iszero\n      tag_34\n      jumpi\n      0x00\n      dup1\n      revert\n    tag_34:\n      dup2\n      add\n      swap1\n      dup1\n      dup1\n      calldataload\n      swap1\n      0x20\n      add\n      swap1\n      swap3\n      swap2\n      swap1\n      dup1\n      calldataload\n      swap1\n      0x20\n      add\n      swap1\n      swap3\n      swap2\n      swap1\n      pop\n      pop\n      pop\n      tag_35\n      jump\t// in\n    tag_33:\n      mload(0x40)\n      dup1\n      dup1\n      0x20\n      add\n      dup3\n      dup2\n      sub\n      dup3\n      mstore\n      dup4\n      dup2\n      dup2\n      mload\n      dup2\n      mstore\n      0x20\n      add\n      swap2\n      pop\n      dup1\n      mload\n      swap1\n      0x20\n      add\n      swap1\n      0x20\n      mul\n      dup1\n      dup4\n      dup4\n      0x00\n    tag_36:\n      dup4\n      dup2\n      lt\n      iszero\n      tag_38\n      jumpi\n      dup1\n      dup3\n      add\n      mload\n      dup2\n      dup5\n      add\n      mstore\n      0x20\n      dup2\n      add\n      swap1\n      pop\n      jump(tag_36)\n    tag_38:\n      pop\n      pop\n      pop\n      pop\n      swap1\n      pop\n      add\n      swap3\n      pop\n      pop\n      pop\n      mload(0x40)\n      dup1\n      swap2\n      sub\n      swap1\n      return\n        /* \"ESN/ReversePlasma.sol\":854:886  uint256 public latestBlockNumber */\n    tag_8:\n      tag_39\n      tag_40\n      jump\t// in\n    tag_39:\n      mload(0x40)\n      dup1\n      dup3\n      dup2\n      mstore\n      0x20\n      add\n      swap2\n      pop\n      pop\n      mload(0x40)\n      dup1\n      swap2\n      sub\n      swap1\n      return\n        /* \"ESN/ReversePlasma.sol\":889:914  address public tokenOnETH */\n    tag_9:\n      tag_41\n      tag_42\n      jump\t// in\n    tag_41:\n      mload(0x40)\n      dup1\n      dup3\n      0xffffffffffffffffffffffffffffffffffffffff\n      and\n      0xffffffffffffffffffffffffffffffffffffffff\n      and\n      dup2\n      mstore\n      0x20\n      add\n      swap2\n      pop\n      pop\n      mload(0x40)\n      dup1\n      swap2\n      sub\n      swap1\n      return\n        /* \"ESN/ReversePlasma.sol\":1371:2128  function setInitialValues(... */\n    tag_10:\n      tag_43\n      0x04\n      dup1\n      calldatasize\n      sub\n      0x60\n      dup2\n      lt\n      iszero\n      tag_44\n      jumpi\n      0x00\n      dup1\n      revert\n    tag_44:\n      dup2\n      add\n      swap1\n      dup1\n      dup1\n      calldataload\n      0xffffffffffffffffffffffffffffffffffffffff\n      and\n      swap1\n      0x20\n      add\n      swap1\n      swap3\n      swap2\n      swap1\n      dup1\n      calldataload\n      swap1\n      0x20\n      add\n      swap1\n      swap3\n      swap2\n      swap1\n      dup1\n      calldataload\n      swap1\n      0x20\n      add\n      swap1\n      0x0100000000\n      dup2\n      gt\n      iszero\n      tag_45\n      jumpi\n      0x00\n      dup1\n      revert\n    tag_45:\n      dup3\n      add\n      dup4\n      0x20\n      dup3\n      add\n      gt\n      iszero\n      tag_46\n      jumpi\n      0x00\n      dup1\n      revert\n    tag_46:\n      dup1\n      calldataload\n      swap1\n      0x20\n      add\n      swap2\n      dup5\n      0x20\n      dup4\n      mul\n      dup5\n      add\n      gt\n      0x0100000000\n      dup4\n      gt\n      or\n      iszero\n      tag_47\n      jumpi\n      0x00\n      dup1\n      revert\n    tag_47:\n      swap2\n      swap1\n      dup1\n      dup1\n      0x20\n      mul\n      0x20\n      add\n      mload(0x40)\n      swap1\n      dup2\n      add\n      0x40\n      mstore\n      dup1\n      swap4\n      swap3\n      swap2\n      swap1\n      dup2\n      dup2\n      mstore\n      0x20\n      add\n      dup4\n      dup4\n      0x20\n      mul\n      dup1\n      dup3\n      dup5\n      calldatacopy\n      0x00\n      dup2\n      dup5\n      add\n      mstore\n      not(0x1f)\n      0x1f\n      dup3\n      add\n      and\n      swap1\n      pop\n      dup1\n      dup4\n      add\n      swap3\n      pop\n      pop\n      pop\n      pop\n      pop\n      pop\n      pop\n      swap2\n      swap3\n      swap2\n      swap3\n      swap1\n      pop\n      pop\n      pop\n      tag_48\n      jump\t// in\n    tag_43:\n      stop\n        /* \"ESN/ReversePlasma.sol\":917:969  address public reverseDepositAddress = address(this) */\n    tag_11:\n      tag_49\n      tag_50\n      jump\t// in\n    tag_49:\n      mload(0x40)\n      dup1\n      dup3\n      0xffffffffffffffffffffffffffffffffffffffff\n      and\n      0xffffffffffffffffffffffffffffffffffffffff\n      and\n      dup2\n      mstore\n      0x20\n      add\n      swap2\n      pop\n      pop\n      mload(0x40)\n      dup1\n      swap2\n      sub\n      swap1\n      return\n        /* \"ESN/ReversePlasma.sol\":2313:3180  function proposeBlock(... */\n    tag_12:\n      tag_51\n      0x04\n      dup1\n      calldatasize\n      sub\n      0x60\n      dup2\n      lt\n      iszero\n      tag_52\n      jumpi\n      0x00\n      dup1\n      revert\n    tag_52:\n      dup2\n      add\n      swap1\n      dup1\n      dup1\n      calldataload\n      swap1\n      0x20\n      add\n      swap1\n      swap3\n      swap2\n      swap1\n      dup1\n      calldataload\n      swap1\n      0x20\n      add\n      swap1\n      swap3\n      swap2\n      swap1\n      dup1\n      calldataload\n      swap1\n      0x20\n      add\n      swap1\n      swap3\n      swap2\n      swap1\n      pop\n      pop\n      pop\n      tag_53\n      jump\t// in\n    tag_51:\n      stop\n        /* \"ESN/ReversePlasma.sol\":5187:5605  function findProposal(... */\n    tag_13:\n      tag_54\n      0x04\n      dup1\n      calldatasize\n      sub\n      0x60\n      dup2\n      lt\n      iszero\n      tag_55\n      jumpi\n      0x00\n      dup1\n      revert\n    tag_55:\n      dup2\n      add\n      swap1\n      dup1\n      dup1\n      calldataload\n      swap1\n      0x20\n      add\n      swap1\n      swap3\n      swap2\n      swap1\n      dup1\n      calldataload\n      swap1\n      0x20\n      add\n      swap1\n      swap3\n      swap2\n      swap1\n      dup1\n      calldataload\n      swap1\n      0x20\n      add\n      swap1\n      swap3\n      swap2\n      swap1\n      pop\n      pop\n      pop\n      tag_56\n      jump\t// in\n    tag_54:\n      mload(0x40)\n      dup1\n      dup4\n      iszero\n      iszero\n      iszero\n      iszero\n      dup2\n      mstore\n      0x20\n      add\n      dup3\n      dup2\n      mstore\n      0x20\n      add\n      swap3\n      pop\n      pop\n      pop\n      mload(0x40)\n      dup1\n      swap2\n      sub\n      swap1\n      return\n        /* \"ESN/ReversePlasma.sol\":1007:1068  mapping(uint256 => BlockHeaderProposal[]) public ethProposals */\n    tag_14:\n      tag_57\n      0x04\n      dup1\n      calldatasize\n      sub\n      0x40\n      dup2\n      lt\n      iszero\n      tag_58\n      jumpi\n      0x00\n      dup1\n      revert\n    tag_58:\n      dup2\n      add\n      swap1\n      dup1\n      dup1\n      calldataload\n      swap1\n      0x20\n      add\n      swap1\n      swap3\n      swap2\n      swap1\n      dup1\n      calldataload\n      swap1\n      0x20\n      add\n      swap1\n      swap3\n      swap2\n      swap1\n      pop\n      pop\n      pop\n      tag_59\n      jump\t// in\n    tag_57:\n      mload(0x40)\n      dup1\n      dup4\n      dup2\n      mstore\n      0x20\n      add\n      dup3\n      dup2\n      mstore\n      0x20\n      add\n      swap3\n      pop\n      pop\n      pop\n      mload(0x40)\n      dup1\n      swap2\n      sub\n      swap1\n      return\n        /* \"ESN/ReversePlasma.sol\":5608:5704  function getAllValidators() public view returns (address[] memory) {... */\n    tag_15:\n      tag_60\n      tag_61\n      jump\t// in\n    tag_60:\n      mload(0x40)\n      dup1\n      dup1\n      0x20\n      add\n      dup3\n      dup2\n      sub\n      dup3\n      mstore\n      dup4\n      dup2\n      dup2\n      mload\n      dup2\n      mstore\n      0x20\n      add\n      swap2\n      pop\n      dup1\n      mload\n      swap1\n      0x20\n      add\n      swap1\n      0x20\n      mul\n      dup1\n      dup4\n      dup4\n      0x00\n    tag_62:\n      dup4\n      dup2\n      lt\n      iszero\n      tag_64\n      jumpi\n      dup1\n      dup3\n      add\n      mload\n      dup2\n      dup5\n      add\n      mstore\n      0x20\n      dup2\n      add\n      swap1\n      pop\n      jump(tag_62)\n    tag_64:\n      pop\n      pop\n      pop\n      pop\n      swap1\n      pop\n      add\n      swap3\n      pop\n      pop\n      pop\n      mload(0x40)\n      dup1\n      swap2\n      sub\n      swap1\n      return\n        /* \"ESN/ReversePlasma.sol\":3183:4144  function finalizeProposal(uint256 _blockNumber, uint256 _proposalId) public {... */\n    tag_16:\n      tag_65\n      0x04\n      dup1\n      calldatasize\n      sub\n      0x40\n      dup2\n      lt\n      iszero\n      tag_66\n      jumpi\n      0x00\n      dup1\n      revert\n    tag_66:\n      dup2\n      add\n      swap1\n      dup1\n      dup1\n      calldataload\n      swap1\n      0x20\n      add\n      swap1\n      swap3\n      swap2\n      swap1\n      dup1\n      calldataload\n      swap1\n      0x20\n      add\n      swap1\n      swap3\n      swap2\n      swap1\n      pop\n      pop\n      pop\n      tag_67\n      jump\t// in\n    tag_65:\n      stop\n        /* \"ESN/ReversePlasma.sol\":4645:4858  function isValidator(address _validator) public view returns (bool) {... */\n    tag_17:\n      tag_68\n      0x04\n      dup1\n      calldatasize\n      sub\n      0x20\n      dup2\n      lt\n      iszero\n      tag_69\n      jumpi\n      0x00\n      dup1\n      revert\n    tag_69:\n      dup2\n      add\n      swap1\n      dup1\n      dup1\n      calldataload\n      0xffffffffffffffffffffffffffffffffffffffff\n      and\n      swap1\n      0x20\n      add\n      swap1\n      swap3\n      swap2\n      swap1\n      pop\n      pop\n      pop\n      tag_70\n      jump\t// in\n    tag_68:\n      mload(0x40)\n      dup1\n      dup3\n      iszero\n      iszero\n      iszero\n      iszero\n      dup2\n      mstore\n      0x20\n      add\n      swap2\n      pop\n      pop\n      mload(0x40)\n      dup1\n      swap2\n      sub\n      swap1\n      return\n        /* \"ESN/ReversePlasma.sol\":1071:1132  mapping(uint256 => BlockHeaderFinalized) public ethBlockchain */\n    tag_23:\n      mstore(0x20, 0x06)\n      dup1\n      0x00\n      mstore\n      keccak256(0x00, 0x40)\n      0x00\n      swap2\n      pop\n      swap1\n      pop\n      dup1\n      0x00\n      add\n      sload\n      swap1\n      dup1\n      0x01\n      add\n      sload\n      swap1\n      pop\n      dup3\n      jump\t// out\n        /* \"ESN/ReversePlasma.sol\":5057:5184  function getProposalsCount(uint256 _blockNumber) public view returns (uint256) {... */\n    tag_26:\n        /* \"ESN/ReversePlasma.sol\":5127:5134  uint256 */\n      0x00\n        /* \"ESN/ReversePlasma.sol\":5147:5159  ethProposals */\n      0x05\n        /* \"ESN/ReversePlasma.sol\":5147:5173  ethProposals[_blockNumber] */\n      0x00\n        /* \"ESN/ReversePlasma.sol\":5160:5172  _blockNumber */\n      dup4\n        /* \"ESN/ReversePlasma.sol\":5147:5173  ethProposals[_blockNumber] */\n      dup2\n      mstore\n      0x20\n      add\n      swap1\n      dup2\n      mstore\n      0x20\n      add\n      0x00\n      keccak256\n        /* \"ESN/ReversePlasma.sol\":5147:5180  ethProposals[_blockNumber].length */\n      dup1\n      sload\n      swap1\n      pop\n        /* \"ESN/ReversePlasma.sol\":5140:5180  return ethProposals[_blockNumber].length */\n      swap1\n      pop\n        /* \"ESN/ReversePlasma.sol\":5057:5184  function getProposalsCount(uint256 _blockNumber) public view returns (uint256) {... */\n      swap2\n      swap1\n      pop\n      jump\t// out\n        /* \"ESN/ReversePlasma.sol\":2187:2310  function updateDepositAddress(address _reverseDepositAddress) public {... */\n    tag_29:\n        /* \"ESN/ReversePlasma.sol\":2284:2306  _reverseDepositAddress */\n      dup1\n        /* \"ESN/ReversePlasma.sol\":2260:2281  reverseDepositAddress */\n      0x03\n      0x00\n        /* \"ESN/ReversePlasma.sol\":2260:2306  reverseDepositAddress = _reverseDepositAddress */\n      0x0100\n      exp\n      dup2\n      sload\n      dup2\n      0xffffffffffffffffffffffffffffffffffffffff\n      mul\n      not\n      and\n      swap1\n      dup4\n      0xffffffffffffffffffffffffffffffffffffffff\n      and\n      mul\n      or\n      swap1\n      sstore\n      pop\n        /* \"ESN/ReversePlasma.sol\":2187:2310  function updateDepositAddress(address _reverseDepositAddress) public {... */\n      pop\n      jump\t// out\n        /* \"ESN/ReversePlasma.sol\":972:1003  address[] public mainValidators */\n    tag_32:\n      0x04\n      dup2\n      dup2\n      sload\n      dup2\n      lt\n      tag_73\n      jumpi\n      invalid\n    tag_73:\n      swap1\n      0x00\n      mstore\n      keccak256(0x00, 0x20)\n      add\n      0x00\n      swap2\n      pop\n      sload\n      swap1\n      0x0100\n      exp\n      swap1\n      div\n      0xffffffffffffffffffffffffffffffffffffffff\n      and\n      dup2\n      jump\t// out\n        /* \"ESN/ReversePlasma.sol\":4861:5054  function getProposalValidators(uint256 _blockNumber, uint256 _proposalId)... */\n    tag_35:\n        /* \"ESN/ReversePlasma.sol\":4962:4978  address[] memory */\n      0x60\n        /* \"ESN/ReversePlasma.sol\":4992:5004  ethProposals */\n      0x05\n        /* \"ESN/ReversePlasma.sol\":4992:5018  ethProposals[_blockNumber] */\n      0x00\n        /* \"ESN/ReversePlasma.sol\":5005:5017  _blockNumber */\n      dup5\n        /* \"ESN/ReversePlasma.sol\":4992:5018  ethProposals[_blockNumber] */\n      dup2\n      mstore\n      0x20\n      add\n      swap1\n      dup2\n      mstore\n      0x20\n      add\n      0x00\n      keccak256\n        /* \"ESN/ReversePlasma.sol\":5019:5030  _proposalId */\n      dup3\n        /* \"ESN/ReversePlasma.sol\":4992:5031  ethProposals[_blockNumber][_proposalId] */\n      dup2\n      sload\n      dup2\n      lt\n      tag_76\n      jumpi\n      invalid\n    tag_76:\n      swap1\n      0x00\n      mstore\n      keccak256(0x00, 0x20)\n      swap1\n      0x03\n      mul\n      add\n        /* \"ESN/ReversePlasma.sol\":4992:5050  ethProposals[_blockNumber][_proposalId].proposalValidators */\n      0x02\n      add\n        /* \"ESN/ReversePlasma.sol\":4985:5050  return ethProposals[_blockNumber][_proposalId].proposalValidators */\n      dup1\n      sload\n      dup1\n      0x20\n      mul\n      0x20\n      add\n      mload(0x40)\n      swap1\n      dup2\n      add\n      0x40\n      mstore\n      dup1\n      swap3\n      swap2\n      swap1\n      dup2\n      dup2\n      mstore\n      0x20\n      add\n      dup3\n      dup1\n      sload\n      dup1\n      iszero\n      tag_78\n      jumpi\n      0x20\n      mul\n      dup3\n      add\n      swap2\n      swap1\n      0x00\n      mstore\n      keccak256(0x00, 0x20)\n      swap1\n    tag_79:\n      dup2\n      0x00\n      swap1\n      sload\n      swap1\n      0x0100\n      exp\n      swap1\n      div\n      0xffffffffffffffffffffffffffffffffffffffff\n      and\n      0xffffffffffffffffffffffffffffffffffffffff\n      and\n      dup2\n      mstore\n      0x20\n      add\n      swap1\n      0x01\n      add\n      swap1\n      dup1\n      dup4\n      gt\n      tag_79\n      jumpi\n    tag_78:\n      pop\n      pop\n      pop\n      pop\n      pop\n      swap1\n      pop\n        /* \"ESN/ReversePlasma.sol\":4861:5054  function getProposalValidators(uint256 _blockNumber, uint256 _proposalId)... */\n      swap3\n      swap2\n      pop\n      pop\n      jump\t// out\n        /* \"ESN/ReversePlasma.sol\":854:886  uint256 public latestBlockNumber */\n    tag_40:\n      sload(0x01)\n      dup2\n      jump\t// out\n        /* \"ESN/ReversePlasma.sol\":889:914  address public tokenOnETH */\n    tag_42:\n      0x02\n      0x00\n      swap1\n      sload\n      swap1\n      0x0100\n      exp\n      swap1\n      div\n      0xffffffffffffffffffffffffffffffffffffffff\n      and\n      dup2\n      jump\t// out\n        /* \"ESN/ReversePlasma.sol\":1371:2128  function setInitialValues(... */\n    tag_48:\n        /* \"ESN/ReversePlasma.sol\":1517:1525  deployer */\n      0x00\n      dup1\n      swap1\n      sload\n      swap1\n      0x0100\n      exp\n      swap1\n      div\n      0xffffffffffffffffffffffffffffffffffffffff\n      and\n        /* \"ESN/ReversePlasma.sol\":1503:1525  msg.sender == deployer */\n      0xffffffffffffffffffffffffffffffffffffffff\n      and\n        /* \"ESN/ReversePlasma.sol\":1503:1513  msg.sender */\n      caller\n        /* \"ESN/ReversePlasma.sol\":1503:1525  msg.sender == deployer */\n      0xffffffffffffffffffffffffffffffffffffffff\n      and\n      eq\n        /* \"ESN/ReversePlasma.sol\":1495:1560  require(msg.sender == deployer, \"RPLSMA: Only deployer can call\") */\n      tag_81\n      jumpi\n      mload(0x40)\n      0x08c379a000000000000000000000000000000000000000000000000000000000\n      dup2\n      mstore\n      0x04\n      add\n      dup1\n      dup1\n      0x20\n      add\n      dup3\n      dup2\n      sub\n      dup3\n      mstore\n      0x1e\n      dup2\n      mstore\n      0x20\n      add\n      dup1\n      0x52504c534d413a204f6e6c79206465706c6f7965722063616e2063616c6c0000\n      dup2\n      mstore\n      pop\n      0x20\n      add\n      swap2\n      pop\n      pop\n      mload(0x40)\n      dup1\n      swap2\n      sub\n      swap1\n      revert\n    tag_81:\n        /* \"ESN/ReversePlasma.sol\":1592:1593  0 */\n      0x00\n        /* \"ESN/ReversePlasma.sol\":1569:1594  _tokenOnETH != address(0) */\n      0xffffffffffffffffffffffffffffffffffffffff\n      and\n        /* \"ESN/ReversePlasma.sol\":1569:1580  _tokenOnETH */\n      dup4\n        /* \"ESN/ReversePlasma.sol\":1569:1594  _tokenOnETH != address(0) */\n      0xffffffffffffffffffffffffffffffffffffffff\n      and\n      eq\n        /* \"ESN/ReversePlasma.sol\":1565:1712  if (_tokenOnETH != address(0)) {... */\n      tag_82\n      jumpi\n        /* \"ESN/ReversePlasma.sol\":1640:1641  0 */\n      0x00\n        /* \"ESN/ReversePlasma.sol\":1609:1642  address(tokenOnETH) == address(0) */\n      0xffffffffffffffffffffffffffffffffffffffff\n      and\n        /* \"ESN/ReversePlasma.sol\":1617:1627  tokenOnETH */\n      0x02\n      0x00\n      swap1\n      sload\n      swap1\n      0x0100\n      exp\n      swap1\n      div\n      0xffffffffffffffffffffffffffffffffffffffff\n      and\n        /* \"ESN/ReversePlasma.sol\":1609:1642  address(tokenOnETH) == address(0) */\n      0xffffffffffffffffffffffffffffffffffffffff\n      and\n      eq\n        /* \"ESN/ReversePlasma.sol\":1601:1677  require(address(tokenOnETH) == address(0), \"RPLSMA: Token adrs already set\") */\n      tag_83\n      jumpi\n      mload(0x40)\n      0x08c379a000000000000000000000000000000000000000000000000000000000\n      dup2\n      mstore\n      0x04\n      add\n      dup1\n      dup1\n      0x20\n      add\n      dup3\n      dup2\n      sub\n      dup3\n      mstore\n      0x1e\n      dup2\n      mstore\n      0x20\n      add\n      dup1\n      0x52504c534d413a20546f6b656e206164727320616c7265616479207365740000\n      dup2\n      mstore\n      pop\n      0x20\n      add\n      swap2\n      pop\n      pop\n      mload(0x40)\n      dup1\n      swap2\n      sub\n      swap1\n      revert\n    tag_83:\n        /* \"ESN/ReversePlasma.sol\":1696:1707  _tokenOnETH */\n      dup3\n        /* \"ESN/ReversePlasma.sol\":1683:1693  tokenOnETH */\n      0x02\n      0x00\n        /* \"ESN/ReversePlasma.sol\":1683:1707  tokenOnETH = _tokenOnETH */\n      0x0100\n      exp\n      dup2\n      sload\n      dup2\n      0xffffffffffffffffffffffffffffffffffffffff\n      mul\n      not\n      and\n      swap1\n      dup4\n      0xffffffffffffffffffffffffffffffffffffffff\n      and\n      mul\n      or\n      swap1\n      sstore\n      pop\n        /* \"ESN/ReversePlasma.sol\":1565:1712  if (_tokenOnETH != address(0)) {... */\n    tag_82:\n        /* \"ESN/ReversePlasma.sol\":1741:1742  0 */\n      0x00\n        /* \"ESN/ReversePlasma.sol\":1720:1737  _startBlockNumber */\n      dup3\n        /* \"ESN/ReversePlasma.sol\":1720:1742  _startBlockNumber != 0 */\n      eq\n        /* \"ESN/ReversePlasma.sol\":1716:1868  if (_startBlockNumber != 0) {... */\n      tag_84\n      jumpi\n        /* \"ESN/ReversePlasma.sol\":1778:1779  0 */\n      0x00\n        /* \"ESN/ReversePlasma.sol\":1757:1774  latestBlockNumber */\n      sload(0x01)\n        /* \"ESN/ReversePlasma.sol\":1757:1779  latestBlockNumber == 0 */\n      eq\n        /* \"ESN/ReversePlasma.sol\":1749:1816  require(latestBlockNumber == 0, \"RPLSMA: StrtBlockNum already set\") */\n      tag_85\n      jumpi\n      mload(0x40)\n      0x08c379a000000000000000000000000000000000000000000000000000000000\n      dup2\n      mstore\n      0x04\n      add\n      dup1\n      dup1\n      0x20\n      add\n      dup3\n      dup2\n      sub\n      dup3\n      mstore\n      0x20\n      dup2\n      mstore\n      0x20\n      add\n      dup1\n      0x52504c534d413a2053747274426c6f636b4e756d20616c726561647920736574\n      dup2\n      mstore\n      pop\n      0x20\n      add\n      swap2\n      pop\n      pop\n      mload(0x40)\n      dup1\n      swap2\n      sub\n      swap1\n      revert\n    tag_85:\n        /* \"ESN/ReversePlasma.sol\":1862:1863  1 */\n      0x01\n        /* \"ESN/ReversePlasma.sol\":1842:1859  _startBlockNumber */\n      dup3\n        /* \"ESN/ReversePlasma.sol\":1842:1863  _startBlockNumber - 1 */\n      sub\n        /* \"ESN/ReversePlasma.sol\":1822:1839  latestBlockNumber */\n      0x01\n        /* \"ESN/ReversePlasma.sol\":1822:1863  latestBlockNumber = _startBlockNumber - 1 */\n      dup2\n      swap1\n      sstore\n      pop\n        /* \"ESN/ReversePlasma.sol\":1716:1868  if (_startBlockNumber != 0) {... */\n    tag_84:\n        /* \"ESN/ReversePlasma.sol\":1897:1898  0 */\n      0x00\n        /* \"ESN/ReversePlasma.sol\":1876:1887  _validators */\n      dup2\n        /* \"ESN/ReversePlasma.sol\":1876:1894  _validators.length */\n      mload\n        /* \"ESN/ReversePlasma.sol\":1876:1898  _validators.length > 0 */\n      gt\n        /* \"ESN/ReversePlasma.sol\":1872:2125  if (_validators.length > 0) {... */\n      iszero\n      tag_86\n      jumpi\n        /* \"ESN/ReversePlasma.sol\":1938:1939  0 */\n      0x00\n        /* \"ESN/ReversePlasma.sol\":1913:1927  mainValidators */\n      0x04\n        /* \"ESN/ReversePlasma.sol\":1913:1934  mainValidators.length */\n      dup1\n      sload\n      swap1\n      pop\n        /* \"ESN/ReversePlasma.sol\":1913:1939  mainValidators.length == 0 */\n      eq\n        /* \"ESN/ReversePlasma.sol\":1905:1974  require(mainValidators.length == 0, \"RPLSMA: Validators already set\") */\n      tag_87\n      jumpi\n      mload(0x40)\n      0x08c379a000000000000000000000000000000000000000000000000000000000\n      dup2\n      mstore\n      0x04\n      add\n      dup1\n      dup1\n      0x20\n      add\n      dup3\n      dup2\n      sub\n      dup3\n      mstore\n      0x1e\n      dup2\n      mstore\n      0x20\n      add\n      dup1\n      0x52504c534d413a2056616c696461746f727320616c7265616479207365740000\n      dup2\n      mstore\n      pop\n      0x20\n      add\n      swap2\n      pop\n      pop\n      mload(0x40)\n      dup1\n      swap2\n      sub\n      swap1\n      revert\n    tag_87:\n        /* \"ESN/ReversePlasma.sol\":2109:2120  _validators */\n      dup1\n        /* \"ESN/ReversePlasma.sol\":2092:2106  mainValidators */\n      0x04\n        /* \"ESN/ReversePlasma.sol\":2092:2120  mainValidators = _validators */\n      swap1\n      dup1\n      mload\n      swap1\n      0x20\n      add\n      swap1\n      tag_88\n      swap3\n      swap2\n      swap1\n      tag_89\n      jump\t// in\n    tag_88:\n      pop\n        /* \"ESN/ReversePlasma.sol\":1872:2125  if (_validators.length > 0) {... */\n    tag_86:\n        /* \"ESN/ReversePlasma.sol\":1371:2128  function setInitialValues(... */\n      pop\n      pop\n      pop\n      jump\t// out\n        /* \"ESN/ReversePlasma.sol\":917:969  address public reverseDepositAddress = address(this) */\n    tag_50:\n      0x03\n      0x00\n      swap1\n      sload\n      swap1\n      0x0100\n      exp\n      swap1\n      div\n      0xffffffffffffffffffffffffffffffffffffffff\n      and\n      dup2\n      jump\t// out\n        /* \"ESN/ReversePlasma.sol\":2313:3180  function proposeBlock(... */\n    tag_53:\n        /* \"ESN/ReversePlasma.sol\":2435:2458  isValidator(msg.sender) */\n      tag_91\n        /* \"ESN/ReversePlasma.sol\":2447:2457  msg.sender */\n      caller\n        /* \"ESN/ReversePlasma.sol\":2435:2446  isValidator */\n      tag_70\n        /* \"ESN/ReversePlasma.sol\":2435:2458  isValidator(msg.sender) */\n      jump\t// in\n    tag_91:\n        /* \"ESN/ReversePlasma.sol\":2427:2486  require(isValidator(msg.sender), \"RPLSMA: not a validator\") */\n      tag_92\n      jumpi\n      mload(0x40)\n      0x08c379a000000000000000000000000000000000000000000000000000000000\n      dup2\n      mstore\n      0x04\n      add\n      dup1\n      dup1\n      0x20\n      add\n      dup3\n      dup2\n      sub\n      dup3\n      mstore\n      0x17\n      dup2\n      mstore\n      0x20\n      add\n      dup1\n      0x52504c534d413a206e6f7420612076616c696461746f72000000000000000000\n      dup2\n      mstore\n      pop\n      0x20\n      add\n      swap2\n      pop\n      pop\n      mload(0x40)\n      dup1\n      swap2\n      sub\n      swap1\n      revert\n    tag_92:\n        /* \"ESN/ReversePlasma.sol\":2540:2563  bool _doesProposalExist */\n      0x00\n        /* \"ESN/ReversePlasma.sol\":2565:2584  uint256 _proposalId */\n      dup1\n        /* \"ESN/ReversePlasma.sol\":2588:2661  findProposal(... */\n      tag_93\n        /* \"ESN/ReversePlasma.sol\":2605:2617  _blockNumber */\n      dup6\n        /* \"ESN/ReversePlasma.sol\":2622:2639  _transactionsRoot */\n      dup6\n        /* \"ESN/ReversePlasma.sol\":2644:2657  _receiptsRoot */\n      dup6\n        /* \"ESN/ReversePlasma.sol\":2588:2600  findProposal */\n      tag_56\n        /* \"ESN/ReversePlasma.sol\":2588:2661  findProposal(... */\n      jump\t// in\n    tag_93:\n        /* \"ESN/ReversePlasma.sol\":2539:2661  (bool _doesProposalExist, uint256 _proposalId) = findProposal(... */\n      swap2\n      pop\n      swap2\n      pop\n        /* \"ESN/ReversePlasma.sol\":2671:2689  _doesProposalExist */\n      dup2\n        /* \"ESN/ReversePlasma.sol\":2666:2946  if (!_doesProposalExist) {... */\n      tag_94\n      jumpi\n        /* \"ESN/ReversePlasma.sol\":2696:2708  ethProposals */\n      0x05\n        /* \"ESN/ReversePlasma.sol\":2696:2722  ethProposals[_blockNumber] */\n      0x00\n        /* \"ESN/ReversePlasma.sol\":2709:2721  _blockNumber */\n      dup7\n        /* \"ESN/ReversePlasma.sol\":2696:2722  ethProposals[_blockNumber] */\n      dup2\n      mstore\n      0x20\n      add\n      swap1\n      dup2\n      mstore\n      0x20\n      add\n      0x00\n      keccak256\n        /* \"ESN/ReversePlasma.sol\":2733:2879  BlockHeaderProposal({... */\n      mload(0x40)\n      dup1\n      0x60\n      add\n      0x40\n      mstore\n      dup1\n        /* \"ESN/ReversePlasma.sol\":2778:2795  _transactionsRoot */\n      dup7\n        /* \"ESN/ReversePlasma.sol\":2733:2879  BlockHeaderProposal({... */\n      dup2\n      mstore\n      0x20\n      add\n        /* \"ESN/ReversePlasma.sol\":2816:2829  _receiptsRoot */\n      dup6\n        /* \"ESN/ReversePlasma.sol\":2733:2879  BlockHeaderProposal({... */\n      dup2\n      mstore\n      0x20\n      add\n        /* \"ESN/ReversePlasma.sol\":2870:2871  0 */\n      0x00\n        /* \"ESN/ReversePlasma.sol\":2856:2872  new address[](0) */\n      0xffffffffffffffff\n      dup2\n      gt\n      dup1\n      iszero\n      tag_95\n      jumpi\n      0x00\n      dup1\n      revert\n    tag_95:\n      pop\n      mload(0x40)\n      swap1\n      dup1\n      dup3\n      mstore\n      dup1\n      0x20\n      mul\n      0x20\n      add\n      dup3\n      add\n      0x40\n      mstore\n      dup1\n      iszero\n      tag_96\n      jumpi\n      dup2\n      0x20\n      add\n      0x20\n      dup3\n      mul\n      dup1\n      calldatasize\n      dup4\n      calldatacopy\n      dup1\n      dup3\n      add\n      swap2\n      pop\n      pop\n      swap1\n      pop\n    tag_96:\n      pop\n        /* \"ESN/ReversePlasma.sol\":2733:2879  BlockHeaderProposal({... */\n      dup2\n      mstore\n      pop\n        /* \"ESN/ReversePlasma.sol\":2696:2884  ethProposals[_blockNumber].push(... */\n      swap1\n      dup1\n      0x01\n      dup2\n      sload\n      add\n      dup1\n      dup3\n      sstore\n      dup1\n      swap2\n      pop\n      pop\n      0x01\n      swap1\n      sub\n      swap1\n      0x00\n      mstore\n      keccak256(0x00, 0x20)\n      swap1\n      0x03\n      mul\n      add\n      0x00\n      swap1\n      swap2\n      swap1\n      swap2\n      swap1\n      swap2\n      pop\n      0x00\n      dup3\n      add\n      mload\n      dup2\n      0x00\n      add\n      sstore\n      0x20\n      dup3\n      add\n      mload\n      dup2\n      0x01\n      add\n      sstore\n      0x40\n      dup3\n      add\n      mload\n      dup2\n      0x02\n      add\n      swap1\n      dup1\n      mload\n      swap1\n      0x20\n      add\n      swap1\n      tag_98\n      swap3\n      swap2\n      swap1\n      tag_89\n      jump\t// in\n    tag_98:\n      pop\n      pop\n      pop\n        /* \"ESN/ReversePlasma.sol\":2940:2941  1 */\n      0x01\n        /* \"ESN/ReversePlasma.sol\":2904:2916  ethProposals */\n      0x05\n        /* \"ESN/ReversePlasma.sol\":2904:2930  ethProposals[_blockNumber] */\n      0x00\n        /* \"ESN/ReversePlasma.sol\":2917:2929  _blockNumber */\n      dup8\n        /* \"ESN/ReversePlasma.sol\":2904:2930  ethProposals[_blockNumber] */\n      dup2\n      mstore\n      0x20\n      add\n      swap1\n      dup2\n      mstore\n      0x20\n      add\n      0x00\n      keccak256\n        /* \"ESN/ReversePlasma.sol\":2904:2937  ethProposals[_blockNumber].length */\n      dup1\n      sload\n      swap1\n      pop\n        /* \"ESN/ReversePlasma.sol\":2904:2941  ethProposals[_blockNumber].length - 1 */\n      sub\n        /* \"ESN/ReversePlasma.sol\":2890:2941  _proposalId = ethProposals[_blockNumber].length - 1 */\n      swap1\n      pop\n        /* \"ESN/ReversePlasma.sol\":2666:2946  if (!_doesProposalExist) {... */\n    tag_94:\n        /* \"ESN/ReversePlasma.sol\":3024:3096  _removeValidatorFromAllProposals(ethProposals[_blockNumber], msg.sender) */\n      tag_99\n        /* \"ESN/ReversePlasma.sol\":3057:3069  ethProposals */\n      0x05\n        /* \"ESN/ReversePlasma.sol\":3057:3083  ethProposals[_blockNumber] */\n      0x00\n        /* \"ESN/ReversePlasma.sol\":3070:3082  _blockNumber */\n      dup8\n        /* \"ESN/ReversePlasma.sol\":3057:3083  ethProposals[_blockNumber] */\n      dup2\n      mstore\n      0x20\n      add\n      swap1\n      dup2\n      mstore\n      0x20\n      add\n      0x00\n      keccak256\n        /* \"ESN/ReversePlasma.sol\":3085:3095  msg.sender */\n      caller\n        /* \"ESN/ReversePlasma.sol\":3024:3056  _removeValidatorFromAllProposals */\n      tag_100\n        /* \"ESN/ReversePlasma.sol\":3024:3096  _removeValidatorFromAllProposals(ethProposals[_blockNumber], msg.sender) */\n      jump\t// in\n    tag_99:\n        /* \"ESN/ReversePlasma.sol\":3101:3113  ethProposals */\n      0x05\n        /* \"ESN/ReversePlasma.sol\":3101:3127  ethProposals[_blockNumber] */\n      0x00\n        /* \"ESN/ReversePlasma.sol\":3114:3126  _blockNumber */\n      dup7\n        /* \"ESN/ReversePlasma.sol\":3101:3127  ethProposals[_blockNumber] */\n      dup2\n      mstore\n      0x20\n      add\n      swap1\n      dup2\n      mstore\n      0x20\n      add\n      0x00\n      keccak256\n        /* \"ESN/ReversePlasma.sol\":3128:3139  _proposalId */\n      dup2\n        /* \"ESN/ReversePlasma.sol\":3101:3140  ethProposals[_blockNumber][_proposalId] */\n      dup2\n      sload\n      dup2\n      lt\n      tag_101\n      jumpi\n      invalid\n    tag_101:\n      swap1\n      0x00\n      mstore\n      keccak256(0x00, 0x20)\n      swap1\n      0x03\n      mul\n      add\n        /* \"ESN/ReversePlasma.sol\":3101:3159  ethProposals[_blockNumber][_proposalId].proposalValidators */\n      0x02\n      add\n        /* \"ESN/ReversePlasma.sol\":3165:3175  msg.sender */\n      caller\n        /* \"ESN/ReversePlasma.sol\":3101:3176  ethProposals[_blockNumber][_proposalId].proposalValidators.push(msg.sender) */\n      swap1\n      dup1\n      0x01\n      dup2\n      sload\n      add\n      dup1\n      dup3\n      sstore\n      dup1\n      swap2\n      pop\n      pop\n      0x01\n      swap1\n      sub\n      swap1\n      0x00\n      mstore\n      keccak256(0x00, 0x20)\n      add\n      0x00\n      swap1\n      swap2\n      swap1\n      swap2\n      swap1\n      swap2\n      0x0100\n      exp\n      dup2\n      sload\n      dup2\n      0xffffffffffffffffffffffffffffffffffffffff\n      mul\n      not\n      and\n      swap1\n      dup4\n      0xffffffffffffffffffffffffffffffffffffffff\n      and\n      mul\n      or\n      swap1\n      sstore\n      pop\n        /* \"ESN/ReversePlasma.sol\":2313:3180  function proposeBlock(... */\n      pop\n      pop\n      pop\n      pop\n      pop\n      jump\t// out\n        /* \"ESN/ReversePlasma.sol\":5187:5605  function findProposal(... */\n    tag_56:\n        /* \"ESN/ReversePlasma.sol\":5311:5315  bool */\n      0x00\n        /* \"ESN/ReversePlasma.sol\":5317:5324  uint256 */\n      dup1\n        /* \"ESN/ReversePlasma.sol\":5335:5344  uint256 i */\n      0x00\n        /* \"ESN/ReversePlasma.sol\":5347:5348  0 */\n      dup1\n        /* \"ESN/ReversePlasma.sol\":5335:5348  uint256 i = 0 */\n      swap1\n      pop\n        /* \"ESN/ReversePlasma.sol\":5330:5580  for (uint256 i = 0; i < ethProposals[_blockNumber].length; i++) {... */\n    tag_105:\n        /* \"ESN/ReversePlasma.sol\":5354:5366  ethProposals */\n      0x05\n        /* \"ESN/ReversePlasma.sol\":5354:5380  ethProposals[_blockNumber] */\n      0x00\n        /* \"ESN/ReversePlasma.sol\":5367:5379  _blockNumber */\n      dup8\n        /* \"ESN/ReversePlasma.sol\":5354:5380  ethProposals[_blockNumber] */\n      dup2\n      mstore\n      0x20\n      add\n      swap1\n      dup2\n      mstore\n      0x20\n      add\n      0x00\n      keccak256\n        /* \"ESN/ReversePlasma.sol\":5354:5387  ethProposals[_blockNumber].length */\n      dup1\n      sload\n      swap1\n      pop\n        /* \"ESN/ReversePlasma.sol\":5350:5351  i */\n      dup2\n        /* \"ESN/ReversePlasma.sol\":5350:5387  i < ethProposals[_blockNumber].length */\n      lt\n        /* \"ESN/ReversePlasma.sol\":5330:5580  for (uint256 i = 0; i < ethProposals[_blockNumber].length; i++) {... */\n      iszero\n      tag_106\n      jumpi\n        /* \"ESN/ReversePlasma.sol\":5429:5441  ethProposals */\n      0x05\n        /* \"ESN/ReversePlasma.sol\":5429:5455  ethProposals[_blockNumber] */\n      0x00\n        /* \"ESN/ReversePlasma.sol\":5442:5454  _blockNumber */\n      dup8\n        /* \"ESN/ReversePlasma.sol\":5429:5455  ethProposals[_blockNumber] */\n      dup2\n      mstore\n      0x20\n      add\n      swap1\n      dup2\n      mstore\n      0x20\n      add\n      0x00\n      keccak256\n        /* \"ESN/ReversePlasma.sol\":5456:5457  i */\n      dup2\n        /* \"ESN/ReversePlasma.sol\":5429:5458  ethProposals[_blockNumber][i] */\n      dup2\n      sload\n      dup2\n      lt\n      tag_108\n      jumpi\n      invalid\n    tag_108:\n      swap1\n      0x00\n      mstore\n      keccak256(0x00, 0x20)\n      swap1\n      0x03\n      mul\n      add\n        /* \"ESN/ReversePlasma.sol\":5429:5475  ethProposals[_blockNumber][i].transactionsRoot */\n      0x00\n      add\n      sload\n        /* \"ESN/ReversePlasma.sol\":5408:5425  _transactionsRoot */\n      dup6\n        /* \"ESN/ReversePlasma.sol\":5408:5475  _transactionsRoot == ethProposals[_blockNumber][i].transactionsRoot */\n      eq\n        /* \"ESN/ReversePlasma.sol\":5408:5542  _transactionsRoot == ethProposals[_blockNumber][i].transactionsRoot &&... */\n      dup1\n      iszero\n      tag_110\n      jumpi\n      pop\n        /* \"ESN/ReversePlasma.sol\":5500:5512  ethProposals */\n      0x05\n        /* \"ESN/ReversePlasma.sol\":5500:5526  ethProposals[_blockNumber] */\n      0x00\n        /* \"ESN/ReversePlasma.sol\":5513:5525  _blockNumber */\n      dup8\n        /* \"ESN/ReversePlasma.sol\":5500:5526  ethProposals[_blockNumber] */\n      dup2\n      mstore\n      0x20\n      add\n      swap1\n      dup2\n      mstore\n      0x20\n      add\n      0x00\n      keccak256\n        /* \"ESN/ReversePlasma.sol\":5527:5528  i */\n      dup2\n        /* \"ESN/ReversePlasma.sol\":5500:5529  ethProposals[_blockNumber][i] */\n      dup2\n      sload\n      dup2\n      lt\n      tag_111\n      jumpi\n      invalid\n    tag_111:\n      swap1\n      0x00\n      mstore\n      keccak256(0x00, 0x20)\n      swap1\n      0x03\n      mul\n      add\n        /* \"ESN/ReversePlasma.sol\":5500:5542  ethProposals[_blockNumber][i].receiptsRoot */\n      0x01\n      add\n      sload\n        /* \"ESN/ReversePlasma.sol\":5483:5496  _receiptsRoot */\n      dup5\n        /* \"ESN/ReversePlasma.sol\":5483:5542  _receiptsRoot == ethProposals[_blockNumber][i].receiptsRoot */\n      eq\n        /* \"ESN/ReversePlasma.sol\":5408:5542  _transactionsRoot == ethProposals[_blockNumber][i].transactionsRoot &&... */\n    tag_110:\n        /* \"ESN/ReversePlasma.sol\":5399:5576  if (... */\n      iszero\n      tag_113\n      jumpi\n        /* \"ESN/ReversePlasma.sol\":5562:5566  true */\n      0x01\n        /* \"ESN/ReversePlasma.sol\":5568:5569  i */\n      dup2\n        /* \"ESN/ReversePlasma.sol\":5554:5570  return (true, i) */\n      swap3\n      pop\n      swap3\n      pop\n      pop\n      jump(tag_104)\n        /* \"ESN/ReversePlasma.sol\":5399:5576  if (... */\n    tag_113:\n        /* \"ESN/ReversePlasma.sol\":5389:5392  i++ */\n      dup1\n      dup1\n      0x01\n      add\n      swap2\n      pop\n      pop\n        /* \"ESN/ReversePlasma.sol\":5330:5580  for (uint256 i = 0; i < ethProposals[_blockNumber].length; i++) {... */\n      jump(tag_105)\n    tag_106:\n      pop\n        /* \"ESN/ReversePlasma.sol\":5592:5597  false */\n      0x00\n        /* \"ESN/ReversePlasma.sol\":5599:5600  0 */\n      dup1\n        /* \"ESN/ReversePlasma.sol\":5584:5601  return (false, 0) */\n      dup1\n      swap1\n      pop\n      swap2\n      pop\n      swap2\n      pop\n        /* \"ESN/ReversePlasma.sol\":5187:5605  function findProposal(... */\n    tag_104:\n      swap4\n      pop\n      swap4\n      swap2\n      pop\n      pop\n      jump\t// out\n        /* \"ESN/ReversePlasma.sol\":1007:1068  mapping(uint256 => BlockHeaderProposal[]) public ethProposals */\n    tag_59:\n      mstore(0x20, 0x05)\n      dup2\n      0x00\n      mstore\n      keccak256(0x00, 0x40)\n      dup2\n      dup2\n      sload\n      dup2\n      lt\n      tag_114\n      jumpi\n      invalid\n    tag_114:\n      swap1\n      0x00\n      mstore\n      keccak256(0x00, 0x20)\n      swap1\n      0x03\n      mul\n      add\n      0x00\n      swap2\n      pop\n      swap2\n      pop\n      pop\n      dup1\n      0x00\n      add\n      sload\n      swap1\n      dup1\n      0x01\n      add\n      sload\n      swap1\n      pop\n      dup3\n      jump\t// out\n        /* \"ESN/ReversePlasma.sol\":5608:5704  function getAllValidators() public view returns (address[] memory) {... */\n    tag_61:\n        /* \"ESN/ReversePlasma.sol\":5657:5673  address[] memory */\n      0x60\n        /* \"ESN/ReversePlasma.sol\":5686:5700  mainValidators */\n      0x04\n        /* \"ESN/ReversePlasma.sol\":5679:5700  return mainValidators */\n      dup1\n      sload\n      dup1\n      0x20\n      mul\n      0x20\n      add\n      mload(0x40)\n      swap1\n      dup2\n      add\n      0x40\n      mstore\n      dup1\n      swap3\n      swap2\n      swap1\n      dup2\n      dup2\n      mstore\n      0x20\n      add\n      dup3\n      dup1\n      sload\n      dup1\n      iszero\n      tag_117\n      jumpi\n      0x20\n      mul\n      dup3\n      add\n      swap2\n      swap1\n      0x00\n      mstore\n      keccak256(0x00, 0x20)\n      swap1\n    tag_118:\n      dup2\n      0x00\n      swap1\n      sload\n      swap1\n      0x0100\n      exp\n      swap1\n      div\n      0xffffffffffffffffffffffffffffffffffffffff\n      and\n      0xffffffffffffffffffffffffffffffffffffffff\n      and\n      dup2\n      mstore\n      0x20\n      add\n      swap1\n      0x01\n      add\n      swap1\n      dup1\n      dup4\n      gt\n      tag_118\n      jumpi\n    tag_117:\n      pop\n      pop\n      pop\n      pop\n      pop\n      swap1\n      pop\n        /* \"ESN/ReversePlasma.sol\":5608:5704  function getAllValidators() public view returns (address[] memory) {... */\n      swap1\n      jump\t// out\n        /* \"ESN/ReversePlasma.sol\":3183:4144  function finalizeProposal(uint256 _blockNumber, uint256 _proposalId) public {... */\n    tag_67:\n        /* \"ESN/ReversePlasma.sol\":3307:3308  1 */\n      0x01\n        /* \"ESN/ReversePlasma.sol\":3287:3304  latestBlockNumber */\n      dup1\n      sload\n        /* \"ESN/ReversePlasma.sol\":3287:3308  latestBlockNumber + 1 */\n      add\n        /* \"ESN/ReversePlasma.sol\":3271:3283  _blockNumber */\n      dup3\n        /* \"ESN/ReversePlasma.sol\":3271:3308  _blockNumber <= latestBlockNumber + 1 */\n      gt\n      iszero\n        /* \"ESN/ReversePlasma.sol\":3263:3341  require(_blockNumber <= latestBlockNumber + 1, \"RPLSMA: invalid block number\") */\n      tag_120\n      jumpi\n      mload(0x40)\n      0x08c379a000000000000000000000000000000000000000000000000000000000\n      dup2\n      mstore\n      0x04\n      add\n      dup1\n      dup1\n      0x20\n      add\n      dup3\n      dup2\n      sub\n      dup3\n      mstore\n      0x1c\n      dup2\n      mstore\n      0x20\n      add\n      dup1\n      0x52504c534d413a20696e76616c696420626c6f636b206e756d62657200000000\n      dup2\n      mstore\n      pop\n      0x20\n      add\n      swap2\n      pop\n      pop\n      mload(0x40)\n      dup1\n      swap2\n      sub\n      swap1\n      revert\n    tag_120:\n        /* \"ESN/ReversePlasma.sol\":3345:3359  uint256 _votes */\n      0x00\n        /* \"ESN/ReversePlasma.sol\":3364:3400  address[] storage proposalValidators */\n      dup1\n        /* \"ESN/ReversePlasma.sol\":3403:3415  ethProposals */\n      0x05\n        /* \"ESN/ReversePlasma.sol\":3403:3429  ethProposals[_blockNumber] */\n      0x00\n        /* \"ESN/ReversePlasma.sol\":3416:3428  _blockNumber */\n      dup6\n        /* \"ESN/ReversePlasma.sol\":3403:3429  ethProposals[_blockNumber] */\n      dup2\n      mstore\n      0x20\n      add\n      swap1\n      dup2\n      mstore\n      0x20\n      add\n      0x00\n      keccak256\n        /* \"ESN/ReversePlasma.sol\":3430:3441  _proposalId */\n      dup4\n        /* \"ESN/ReversePlasma.sol\":3403:3442  ethProposals[_blockNumber][_proposalId] */\n      dup2\n      sload\n      dup2\n      lt\n      tag_121\n      jumpi\n      invalid\n    tag_121:\n      swap1\n      0x00\n      mstore\n      keccak256(0x00, 0x20)\n      swap1\n      0x03\n      mul\n      add\n        /* \"ESN/ReversePlasma.sol\":3403:3465  ethProposals[_blockNumber][_proposalId]... */\n      0x02\n      add\n        /* \"ESN/ReversePlasma.sol\":3364:3465  address[] storage proposalValidators = ethProposals[_blockNumber][_proposalId]... */\n      swap1\n      pop\n        /* \"ESN/ReversePlasma.sol\":3475:3484  uint256 i */\n      0x00\n        /* \"ESN/ReversePlasma.sol\":3487:3488  0 */\n      dup1\n        /* \"ESN/ReversePlasma.sol\":3475:3488  uint256 i = 0 */\n      swap1\n      pop\n        /* \"ESN/ReversePlasma.sol\":3470:3655  for (uint256 i = 0; i < proposalValidators.length; i++) {... */\n    tag_123:\n        /* \"ESN/ReversePlasma.sol\":3494:3512  proposalValidators */\n      dup2\n        /* \"ESN/ReversePlasma.sol\":3494:3519  proposalValidators.length */\n      dup1\n      sload\n      swap1\n      pop\n        /* \"ESN/ReversePlasma.sol\":3490:3491  i */\n      dup2\n        /* \"ESN/ReversePlasma.sol\":3490:3519  i < proposalValidators.length */\n      lt\n        /* \"ESN/ReversePlasma.sol\":3470:3655  for (uint256 i = 0; i < proposalValidators.length; i++) {... */\n      iszero\n      tag_124\n      jumpi\n        /* \"ESN/ReversePlasma.sol\":3595:3629  isValidator(proposalValidators[i]) */\n      tag_126\n        /* \"ESN/ReversePlasma.sol\":3607:3625  proposalValidators */\n      dup3\n        /* \"ESN/ReversePlasma.sol\":3626:3627  i */\n      dup3\n        /* \"ESN/ReversePlasma.sol\":3607:3628  proposalValidators[i] */\n      dup2\n      sload\n      dup2\n      lt\n      tag_127\n      jumpi\n      invalid\n    tag_127:\n      swap1\n      0x00\n      mstore\n      keccak256(0x00, 0x20)\n      add\n      0x00\n      swap1\n      sload\n      swap1\n      0x0100\n      exp\n      swap1\n      div\n      0xffffffffffffffffffffffffffffffffffffffff\n      and\n        /* \"ESN/ReversePlasma.sol\":3595:3606  isValidator */\n      tag_70\n        /* \"ESN/ReversePlasma.sol\":3595:3629  isValidator(proposalValidators[i]) */\n      jump\t// in\n    tag_126:\n        /* \"ESN/ReversePlasma.sol\":3591:3651  if (isValidator(proposalValidators[i])) {... */\n      iszero\n      tag_129\n      jumpi\n        /* \"ESN/ReversePlasma.sol\":3637:3645  _votes++ */\n      dup3\n      dup1\n      0x01\n      add\n      swap4\n      pop\n      pop\n        /* \"ESN/ReversePlasma.sol\":3591:3651  if (isValidator(proposalValidators[i])) {... */\n    tag_129:\n        /* \"ESN/ReversePlasma.sol\":3521:3524  i++ */\n      dup1\n      dup1\n      0x01\n      add\n      swap2\n      pop\n      pop\n        /* \"ESN/ReversePlasma.sol\":3470:3655  for (uint256 i = 0; i < proposalValidators.length; i++) {... */\n      jump(tag_123)\n    tag_124:\n      pop\n        /* \"ESN/ReversePlasma.sol\":3683:3711  mainValidators.length.mul(2) */\n      tag_130\n        /* \"ESN/ReversePlasma.sol\":3709:3710  2 */\n      0x02\n        /* \"ESN/ReversePlasma.sol\":3683:3697  mainValidators */\n      0x04\n        /* \"ESN/ReversePlasma.sol\":3683:3704  mainValidators.length */\n      dup1\n      sload\n      swap1\n      pop\n        /* \"ESN/ReversePlasma.sol\":3683:3708  mainValidators.length.mul */\n      tag_131\n      swap1\n        /* \"ESN/ReversePlasma.sol\":3683:3711  mainValidators.length.mul(2) */\n      swap2\n      swap1\n      0xffffffff\n      and\n      jump\t// in\n    tag_130:\n        /* \"ESN/ReversePlasma.sol\":3667:3680  _votes.mul(3) */\n      tag_132\n        /* \"ESN/ReversePlasma.sol\":3678:3679  3 */\n      0x03\n        /* \"ESN/ReversePlasma.sol\":3667:3673  _votes */\n      dup5\n        /* \"ESN/ReversePlasma.sol\":3667:3677  _votes.mul */\n      tag_131\n      swap1\n        /* \"ESN/ReversePlasma.sol\":3667:3680  _votes.mul(3) */\n      swap2\n      swap1\n      0xffffffff\n      and\n      jump\t// in\n    tag_132:\n        /* \"ESN/ReversePlasma.sol\":3667:3711  _votes.mul(3) > mainValidators.length.mul(2) */\n      gt\n        /* \"ESN/ReversePlasma.sol\":3659:3742  require(_votes.mul(3) > mainValidators.length.mul(2), \"RPLSMA: not 66% validators\") */\n      tag_133\n      jumpi\n      mload(0x40)\n      0x08c379a000000000000000000000000000000000000000000000000000000000\n      dup2\n      mstore\n      0x04\n      add\n      dup1\n      dup1\n      0x20\n      add\n      dup3\n      dup2\n      sub\n      dup3\n      mstore\n      0x1a\n      dup2\n      mstore\n      0x20\n      add\n      dup1\n      0x52504c534d413a206e6f74203636252076616c696461746f7273000000000000\n      dup2\n      mstore\n      pop\n      0x20\n      add\n      swap2\n      pop\n      pop\n      mload(0x40)\n      dup1\n      swap2\n      sub\n      swap1\n      revert\n    tag_133:\n        /* \"ESN/ReversePlasma.sol\":3777:3953  BlockHeaderFinalized({... */\n      mload(0x40)\n      dup1\n      0x40\n      add\n      0x40\n      mstore\n      dup1\n        /* \"ESN/ReversePlasma.sol\":3821:3833  ethProposals */\n      0x05\n        /* \"ESN/ReversePlasma.sol\":3821:3847  ethProposals[_blockNumber] */\n      0x00\n        /* \"ESN/ReversePlasma.sol\":3834:3846  _blockNumber */\n      dup8\n        /* \"ESN/ReversePlasma.sol\":3821:3847  ethProposals[_blockNumber] */\n      dup2\n      mstore\n      0x20\n      add\n      swap1\n      dup2\n      mstore\n      0x20\n      add\n      0x00\n      keccak256\n        /* \"ESN/ReversePlasma.sol\":3848:3859  _proposalId */\n      dup6\n        /* \"ESN/ReversePlasma.sol\":3821:3860  ethProposals[_blockNumber][_proposalId] */\n      dup2\n      sload\n      dup2\n      lt\n      tag_134\n      jumpi\n      invalid\n    tag_134:\n      swap1\n      0x00\n      mstore\n      keccak256(0x00, 0x20)\n      swap1\n      0x03\n      mul\n      add\n        /* \"ESN/ReversePlasma.sol\":3821:3877  ethProposals[_blockNumber][_proposalId].transactionsRoot */\n      0x00\n      add\n      sload\n        /* \"ESN/ReversePlasma.sol\":3777:3953  BlockHeaderFinalized({... */\n      dup2\n      mstore\n      0x20\n      add\n        /* \"ESN/ReversePlasma.sol\":3896:3908  ethProposals */\n      0x05\n        /* \"ESN/ReversePlasma.sol\":3896:3922  ethProposals[_blockNumber] */\n      0x00\n        /* \"ESN/ReversePlasma.sol\":3909:3921  _blockNumber */\n      dup8\n        /* \"ESN/ReversePlasma.sol\":3896:3922  ethProposals[_blockNumber] */\n      dup2\n      mstore\n      0x20\n      add\n      swap1\n      dup2\n      mstore\n      0x20\n      add\n      0x00\n      keccak256\n        /* \"ESN/ReversePlasma.sol\":3923:3934  _proposalId */\n      dup6\n        /* \"ESN/ReversePlasma.sol\":3896:3935  ethProposals[_blockNumber][_proposalId] */\n      dup2\n      sload\n      dup2\n      lt\n      tag_136\n      jumpi\n      invalid\n    tag_136:\n      swap1\n      0x00\n      mstore\n      keccak256(0x00, 0x20)\n      swap1\n      0x03\n      mul\n      add\n        /* \"ESN/ReversePlasma.sol\":3896:3948  ethProposals[_blockNumber][_proposalId].receiptsRoot */\n      0x01\n      add\n      sload\n        /* \"ESN/ReversePlasma.sol\":3777:3953  BlockHeaderFinalized({... */\n      dup2\n      mstore\n      pop\n        /* \"ESN/ReversePlasma.sol\":3747:3760  ethBlockchain */\n      0x06\n        /* \"ESN/ReversePlasma.sol\":3747:3774  ethBlockchain[_blockNumber] */\n      0x00\n        /* \"ESN/ReversePlasma.sol\":3761:3773  _blockNumber */\n      dup7\n        /* \"ESN/ReversePlasma.sol\":3747:3774  ethBlockchain[_blockNumber] */\n      dup2\n      mstore\n      0x20\n      add\n      swap1\n      dup2\n      mstore\n      0x20\n      add\n      0x00\n      keccak256\n        /* \"ESN/ReversePlasma.sol\":3747:3953  ethBlockchain[_blockNumber] = BlockHeaderFinalized({... */\n      0x00\n      dup3\n      add\n      mload\n      dup2\n      0x00\n      add\n      sstore\n      0x20\n      dup3\n      add\n      mload\n      dup2\n      0x01\n      add\n      sstore\n      swap1\n      pop\n      pop\n        /* \"ESN/ReversePlasma.sol\":3994:4006  ethProposals */\n      0x05\n        /* \"ESN/ReversePlasma.sol\":3994:4020  ethProposals[_blockNumber] */\n      0x00\n        /* \"ESN/ReversePlasma.sol\":4007:4019  _blockNumber */\n      dup6\n        /* \"ESN/ReversePlasma.sol\":3994:4020  ethProposals[_blockNumber] */\n      dup2\n      mstore\n      0x20\n      add\n      swap1\n      dup2\n      mstore\n      0x20\n      add\n      0x00\n      keccak256\n        /* \"ESN/ReversePlasma.sol\":4021:4032  _proposalId */\n      dup4\n        /* \"ESN/ReversePlasma.sol\":3994:4033  ethProposals[_blockNumber][_proposalId] */\n      dup2\n      sload\n      dup2\n      lt\n      tag_138\n      jumpi\n      invalid\n    tag_138:\n      swap1\n      0x00\n      mstore\n      keccak256(0x00, 0x20)\n      swap1\n      0x03\n      mul\n      add\n        /* \"ESN/ReversePlasma.sol\":3994:4052  ethProposals[_blockNumber][_proposalId].proposalValidators */\n      0x02\n      add\n      0x00\n        /* \"ESN/ReversePlasma.sol\":3987:4052  delete ethProposals[_blockNumber][_proposalId].proposalValidators */\n      tag_140\n      swap2\n      swap1\n      tag_141\n      jump\t// in\n    tag_140:\n        /* \"ESN/ReversePlasma.sol\":4077:4089  _blockNumber */\n      dup4\n        /* \"ESN/ReversePlasma.sol\":4057:4074  latestBlockNumber */\n      0x01\n        /* \"ESN/ReversePlasma.sol\":4057:4089  latestBlockNumber = _blockNumber */\n      dup2\n      swap1\n      sstore\n      pop\n        /* \"ESN/ReversePlasma.sol\":4099:4140  NewBlockHeader(_blockNumber, _proposalId) */\n      0x72485b82f943ddb489949c1b7feaea5c5acd4113547cad7a281343c8300fc6f1\n        /* \"ESN/ReversePlasma.sol\":4114:4126  _blockNumber */\n      dup5\n        /* \"ESN/ReversePlasma.sol\":4128:4139  _proposalId */\n      dup5\n        /* \"ESN/ReversePlasma.sol\":4099:4140  NewBlockHeader(_blockNumber, _proposalId) */\n      mload(0x40)\n      dup1\n      dup4\n      dup2\n      mstore\n      0x20\n      add\n      dup3\n      dup2\n      mstore\n      0x20\n      add\n      swap3\n      pop\n      pop\n      pop\n      mload(0x40)\n      dup1\n      swap2\n      sub\n      swap1\n      log1\n        /* \"ESN/ReversePlasma.sol\":3183:4144  function finalizeProposal(uint256 _blockNumber, uint256 _proposalId) public {... */\n      pop\n      pop\n      pop\n      pop\n      jump\t// out\n        /* \"ESN/ReversePlasma.sol\":4645:4858  function isValidator(address _validator) public view returns (bool) {... */\n    tag_70:\n        /* \"ESN/ReversePlasma.sol\":4707:4711  bool */\n      0x00\n        /* \"ESN/ReversePlasma.sol\":4722:4731  uint256 i */\n      dup1\n        /* \"ESN/ReversePlasma.sol\":4734:4735  0 */\n      0x00\n        /* \"ESN/ReversePlasma.sol\":4722:4735  uint256 i = 0 */\n      swap1\n      pop\n        /* \"ESN/ReversePlasma.sol\":4717:4838  for (uint256 i = 0; i < mainValidators.length; i++) {... */\n    tag_143:\n        /* \"ESN/ReversePlasma.sol\":4741:4755  mainValidators */\n      0x04\n        /* \"ESN/ReversePlasma.sol\":4741:4762  mainValidators.length */\n      dup1\n      sload\n      swap1\n      pop\n        /* \"ESN/ReversePlasma.sol\":4737:4738  i */\n      dup2\n        /* \"ESN/ReversePlasma.sol\":4737:4762  i < mainValidators.length */\n      lt\n        /* \"ESN/ReversePlasma.sol\":4717:4838  for (uint256 i = 0; i < mainValidators.length; i++) {... */\n      iszero\n      tag_144\n      jumpi\n        /* \"ESN/ReversePlasma.sol\":4792:4806  mainValidators */\n      0x04\n        /* \"ESN/ReversePlasma.sol\":4807:4808  i */\n      dup2\n        /* \"ESN/ReversePlasma.sol\":4792:4809  mainValidators[i] */\n      dup2\n      sload\n      dup2\n      lt\n      tag_146\n      jumpi\n      invalid\n    tag_146:\n      swap1\n      0x00\n      mstore\n      keccak256(0x00, 0x20)\n      add\n      0x00\n      swap1\n      sload\n      swap1\n      0x0100\n      exp\n      swap1\n      div\n      0xffffffffffffffffffffffffffffffffffffffff\n      and\n        /* \"ESN/ReversePlasma.sol\":4778:4809  _validator == mainValidators[i] */\n      0xffffffffffffffffffffffffffffffffffffffff\n      and\n        /* \"ESN/ReversePlasma.sol\":4778:4788  _validator */\n      dup4\n        /* \"ESN/ReversePlasma.sol\":4778:4809  _validator == mainValidators[i] */\n      0xffffffffffffffffffffffffffffffffffffffff\n      and\n      eq\n        /* \"ESN/ReversePlasma.sol\":4774:4834  if (_validator == mainValidators[i]) {... */\n      iszero\n      tag_148\n      jumpi\n        /* \"ESN/ReversePlasma.sol\":4824:4828  true */\n      0x01\n        /* \"ESN/ReversePlasma.sol\":4817:4828  return true */\n      swap2\n      pop\n      pop\n      jump(tag_142)\n        /* \"ESN/ReversePlasma.sol\":4774:4834  if (_validator == mainValidators[i]) {... */\n    tag_148:\n        /* \"ESN/ReversePlasma.sol\":4764:4767  i++ */\n      dup1\n      dup1\n      0x01\n      add\n      swap2\n      pop\n      pop\n        /* \"ESN/ReversePlasma.sol\":4717:4838  for (uint256 i = 0; i < mainValidators.length; i++) {... */\n      jump(tag_143)\n    tag_144:\n      pop\n        /* \"ESN/ReversePlasma.sol\":4849:4854  false */\n      0x00\n        /* \"ESN/ReversePlasma.sol\":4842:4854  return false */\n      swap1\n      pop\n        /* \"ESN/ReversePlasma.sol\":4645:4858  function isValidator(address _validator) public view returns (bool) {... */\n    tag_142:\n      swap2\n      swap1\n      pop\n      jump\t// out\n        /* \"ESN/ReversePlasma.sol\":4147:4642  function _removeValidatorFromAllProposals(... */\n    tag_100:\n        /* \"ESN/ReversePlasma.sol\":4274:4283  uint256 i */\n      0x00\n        /* \"ESN/ReversePlasma.sol\":4286:4287  0 */\n      dup1\n        /* \"ESN/ReversePlasma.sol\":4274:4287  uint256 i = 0 */\n      swap1\n      pop\n        /* \"ESN/ReversePlasma.sol\":4269:4639  for (uint256 i = 0; i < proposals.length; i++) {... */\n    tag_150:\n        /* \"ESN/ReversePlasma.sol\":4293:4302  proposals */\n      dup3\n        /* \"ESN/ReversePlasma.sol\":4293:4309  proposals.length */\n      dup1\n      sload\n      swap1\n      pop\n        /* \"ESN/ReversePlasma.sol\":4289:4290  i */\n      dup2\n        /* \"ESN/ReversePlasma.sol\":4289:4309  i < proposals.length */\n      lt\n        /* \"ESN/ReversePlasma.sol\":4269:4639  for (uint256 i = 0; i < proposals.length; i++) {... */\n      iszero\n      tag_151\n      jumpi\n        /* \"ESN/ReversePlasma.sol\":4321:4357  address[] storage proposalValidators */\n      0x00\n        /* \"ESN/ReversePlasma.sol\":4360:4369  proposals */\n      dup4\n        /* \"ESN/ReversePlasma.sol\":4370:4371  i */\n      dup3\n        /* \"ESN/ReversePlasma.sol\":4360:4372  proposals[i] */\n      dup2\n      sload\n      dup2\n      lt\n      tag_153\n      jumpi\n      invalid\n    tag_153:\n      swap1\n      0x00\n      mstore\n      keccak256(0x00, 0x20)\n      swap1\n      0x03\n      mul\n      add\n        /* \"ESN/ReversePlasma.sol\":4360:4391  proposals[i].proposalValidators */\n      0x02\n      add\n        /* \"ESN/ReversePlasma.sol\":4321:4391  address[] storage proposalValidators = proposals[i].proposalValidators */\n      swap1\n      pop\n        /* \"ESN/ReversePlasma.sol\":4402:4411  uint256 j */\n      0x00\n        /* \"ESN/ReversePlasma.sol\":4414:4415  0 */\n      dup1\n        /* \"ESN/ReversePlasma.sol\":4402:4415  uint256 j = 0 */\n      swap1\n      pop\n        /* \"ESN/ReversePlasma.sol\":4397:4635  for (uint256 j = 0; j < proposalValidators.length; j++) {... */\n    tag_155:\n        /* \"ESN/ReversePlasma.sol\":4421:4439  proposalValidators */\n      dup2\n        /* \"ESN/ReversePlasma.sol\":4421:4446  proposalValidators.length */\n      dup1\n      sload\n      swap1\n      pop\n        /* \"ESN/ReversePlasma.sol\":4417:4418  j */\n      dup2\n        /* \"ESN/ReversePlasma.sol\":4417:4446  j < proposalValidators.length */\n      lt\n        /* \"ESN/ReversePlasma.sol\":4397:4635  for (uint256 j = 0; j < proposalValidators.length; j++) {... */\n      iszero\n      tag_156\n      jumpi\n        /* \"ESN/ReversePlasma.sol\":4477:4495  proposalValidators */\n      dup2\n        /* \"ESN/ReversePlasma.sol\":4496:4497  j */\n      dup2\n        /* \"ESN/ReversePlasma.sol\":4477:4498  proposalValidators[j] */\n      dup2\n      sload\n      dup2\n      lt\n      tag_158\n      jumpi\n      invalid\n    tag_158:\n      swap1\n      0x00\n      mstore\n      keccak256(0x00, 0x20)\n      add\n      0x00\n      swap1\n      sload\n      swap1\n      0x0100\n      exp\n      swap1\n      div\n      0xffffffffffffffffffffffffffffffffffffffff\n      and\n        /* \"ESN/ReversePlasma.sol\":4463:4498  _validator == proposalValidators[j] */\n      0xffffffffffffffffffffffffffffffffffffffff\n      and\n        /* \"ESN/ReversePlasma.sol\":4463:4473  _validator */\n      dup5\n        /* \"ESN/ReversePlasma.sol\":4463:4498  _validator == proposalValidators[j] */\n      0xffffffffffffffffffffffffffffffffffffffff\n      and\n      eq\n        /* \"ESN/ReversePlasma.sol\":4459:4630  if (_validator == proposalValidators[j]) {... */\n      iszero\n      tag_160\n      jumpi\n        /* \"ESN/ReversePlasma.sol\":4531:4549  proposalValidators */\n      dup2\n        /* \"ESN/ReversePlasma.sol\":4578:4579  1 */\n      0x01\n        /* \"ESN/ReversePlasma.sol\":4550:4568  proposalValidators */\n      dup4\n        /* \"ESN/ReversePlasma.sol\":4550:4575  proposalValidators.length */\n      dup1\n      sload\n      swap1\n      pop\n        /* \"ESN/ReversePlasma.sol\":4550:4579  proposalValidators.length - 1 */\n      sub\n        /* \"ESN/ReversePlasma.sol\":4531:4580  proposalValidators[proposalValidators.length - 1] */\n      dup2\n      sload\n      dup2\n      lt\n      tag_161\n      jumpi\n      invalid\n    tag_161:\n      swap1\n      0x00\n      mstore\n      keccak256(0x00, 0x20)\n      add\n      0x00\n      swap1\n      sload\n      swap1\n      0x0100\n      exp\n      swap1\n      div\n      0xffffffffffffffffffffffffffffffffffffffff\n      and\n        /* \"ESN/ReversePlasma.sol\":4507:4525  proposalValidators */\n      dup3\n        /* \"ESN/ReversePlasma.sol\":4526:4527  j */\n      dup3\n        /* \"ESN/ReversePlasma.sol\":4507:4528  proposalValidators[j] */\n      dup2\n      sload\n      dup2\n      lt\n      tag_163\n      jumpi\n      invalid\n    tag_163:\n      swap1\n      0x00\n      mstore\n      keccak256(0x00, 0x20)\n      add\n      0x00\n        /* \"ESN/ReversePlasma.sol\":4507:4580  proposalValidators[j] = proposalValidators[proposalValidators.length - 1] */\n      0x0100\n      exp\n      dup2\n      sload\n      dup2\n      0xffffffffffffffffffffffffffffffffffffffff\n      mul\n      not\n      and\n      swap1\n      dup4\n      0xffffffffffffffffffffffffffffffffffffffff\n      and\n      mul\n      or\n      swap1\n      sstore\n      pop\n        /* \"ESN/ReversePlasma.sol\":4587:4605  proposalValidators */\n      dup2\n        /* \"ESN/ReversePlasma.sol\":4587:4611  proposalValidators.pop() */\n      dup1\n      sload\n      dup1\n      tag_165\n      jumpi\n      invalid\n    tag_165:\n      0x01\n      swap1\n      sub\n      dup2\n      dup2\n      swap1\n      0x00\n      mstore\n      keccak256(0x00, 0x20)\n      add\n      exp(0x0100, 0x00)\n      dup2\n      sload\n      swap1\n      0xffffffffffffffffffffffffffffffffffffffff\n      mul\n      not\n      and\n      swap1\n      sstore\n      swap1\n      sstore\n        /* \"ESN/ReversePlasma.sol\":4618:4623  break */\n      jump(tag_156)\n        /* \"ESN/ReversePlasma.sol\":4459:4630  if (_validator == proposalValidators[j]) {... */\n    tag_160:\n        /* \"ESN/ReversePlasma.sol\":4448:4451  j++ */\n      dup1\n      dup1\n      0x01\n      add\n      swap2\n      pop\n      pop\n        /* \"ESN/ReversePlasma.sol\":4397:4635  for (uint256 j = 0; j < proposalValidators.length; j++) {... */\n      jump(tag_155)\n    tag_156:\n      pop\n        /* \"ESN/ReversePlasma.sol\":4269:4639  for (uint256 i = 0; i < proposals.length; i++) {... */\n      pop\n        /* \"ESN/ReversePlasma.sol\":4311:4314  i++ */\n      dup1\n      dup1\n      0x01\n      add\n      swap2\n      pop\n      pop\n        /* \"ESN/ReversePlasma.sol\":4269:4639  for (uint256 i = 0; i < proposals.length; i++) {... */\n      jump(tag_150)\n    tag_151:\n      pop\n        /* \"ESN/ReversePlasma.sol\":4147:4642  function _removeValidatorFromAllProposals(... */\n      pop\n      pop\n      jump\t// out\n        /* \"lib/SafeMath.sol\":2025:2422  function mul(uint256 a, uint256 b) internal pure returns (uint256) {... */\n    tag_131:\n        /* \"lib/SafeMath.sol\":2083:2090  uint256 */\n      0x00\n        /* \"lib/SafeMath.sol\":2305:2306  0 */\n      dup1\n        /* \"lib/SafeMath.sol\":2300:2301  a */\n      dup4\n        /* \"lib/SafeMath.sol\":2300:2306  a == 0 */\n      eq\n        /* \"lib/SafeMath.sol\":2296:2326  if (a == 0) {... */\n      iszero\n      tag_168\n      jumpi\n        /* \"lib/SafeMath.sol\":2320:2321  0 */\n      0x00\n        /* \"lib/SafeMath.sol\":2313:2321  return 0 */\n      swap1\n      pop\n      jump(tag_167)\n        /* \"lib/SafeMath.sol\":2296:2326  if (a == 0) {... */\n    tag_168:\n        /* \"lib/SafeMath.sol\":2330:2339  uint256 c */\n      0x00\n        /* \"lib/SafeMath.sol\":2346:2347  b */\n      dup3\n        /* \"lib/SafeMath.sol\":2342:2343  a */\n      dup5\n        /* \"lib/SafeMath.sol\":2342:2347  a * b */\n      mul\n        /* \"lib/SafeMath.sol\":2330:2347  uint256 c = a * b */\n      swap1\n      pop\n        /* \"lib/SafeMath.sol\":2368:2369  b */\n      dup3\n        /* \"lib/SafeMath.sol\":2363:2364  a */\n      dup5\n        /* \"lib/SafeMath.sol\":2359:2360  c */\n      dup3\n        /* \"lib/SafeMath.sol\":2359:2364  c / a */\n      dup2\n      tag_169\n      jumpi\n      invalid\n    tag_169:\n      div\n        /* \"lib/SafeMath.sol\":2359:2369  c / a == b */\n      eq\n        /* \"lib/SafeMath.sol\":2351:2405  require(c / a == b, \"SafeMath: Multiplicatn overflow\") */\n      tag_170\n      jumpi\n      mload(0x40)\n      0x08c379a000000000000000000000000000000000000000000000000000000000\n      dup2\n      mstore\n      0x04\n      add\n      dup1\n      dup1\n      0x20\n      add\n      dup3\n      dup2\n      sub\n      dup3\n      mstore\n      0x1f\n      dup2\n      mstore\n      0x20\n      add\n      dup1\n      0x536166654d6174683a204d756c7469706c696361746e206f766572666c6f7700\n      dup2\n      mstore\n      pop\n      0x20\n      add\n      swap2\n      pop\n      pop\n      mload(0x40)\n      dup1\n      swap2\n      sub\n      swap1\n      revert\n    tag_170:\n        /* \"lib/SafeMath.sol\":2417:2418  c */\n      dup1\n        /* \"lib/SafeMath.sol\":2410:2418  return c */\n      swap2\n      pop\n      pop\n        /* \"lib/SafeMath.sol\":2025:2422  function mul(uint256 a, uint256 b) internal pure returns (uint256) {... */\n    tag_167:\n      swap3\n      swap2\n      pop\n      pop\n      jump\t// out\n    tag_89:\n      dup3\n      dup1\n      sload\n      dup3\n      dup3\n      sstore\n      swap1\n      0x00\n      mstore\n      keccak256(0x00, 0x20)\n      swap1\n      dup2\n      add\n      swap3\n      dup3\n      iszero\n      tag_171\n      jumpi\n      swap2\n      0x20\n      mul\n      dup3\n      add\n    tag_172:\n      dup3\n      dup2\n      gt\n      iszero\n      tag_173\n      jumpi\n      dup3\n      mload\n      dup3\n      exp(0x0100, 0x00)\n      dup2\n      sload\n      dup2\n      0xffffffffffffffffffffffffffffffffffffffff\n      mul\n      not\n      and\n      swap1\n      dup4\n      0xffffffffffffffffffffffffffffffffffffffff\n      and\n      mul\n      or\n      swap1\n      sstore\n      pop\n      swap2\n      0x20\n      add\n      swap2\n      swap1\n      0x01\n      add\n      swap1\n      jump(tag_172)\n    tag_173:\n    tag_171:\n      pop\n      swap1\n      pop\n      tag_174\n      swap2\n      swap1\n      tag_175\n      jump\t// in\n    tag_174:\n      pop\n      swap1\n      jump\t// out\n    tag_141:\n      pop\n      dup1\n      sload\n      0x00\n      dup3\n      sstore\n      swap1\n      0x00\n      mstore\n      keccak256(0x00, 0x20)\n      swap1\n      dup2\n      add\n      swap1\n      tag_177\n      swap2\n      swap1\n      tag_178\n      jump\t// in\n    tag_177:\n      pop\n      jump\t// out\n    tag_175:\n      tag_179\n      swap2\n      swap1\n    tag_180:\n      dup1\n      dup3\n      gt\n      iszero\n      tag_181\n      jumpi\n      0x00\n      dup2\n      dup2\n      0x0100\n      exp\n      dup2\n      sload\n      swap1\n      0xffffffffffffffffffffffffffffffffffffffff\n      mul\n      not\n      and\n      swap1\n      sstore\n      pop\n      0x01\n      add\n      jump(tag_180)\n    tag_181:\n      pop\n      swap1\n      jump\n    tag_179:\n      swap1\n      jump\t// out\n    tag_178:\n      tag_182\n      swap2\n      swap1\n    tag_183:\n      dup1\n      dup3\n      gt\n      iszero\n      tag_184\n      jumpi\n      0x00\n      dup2\n      0x00\n      swap1\n      sstore\n      pop\n      0x01\n      add\n      jump(tag_183)\n    tag_184:\n      pop\n      swap1\n      jump\n    tag_182:\n      swap1\n      jump\t// out\n\n    auxdata: 0xa2646970667358221220acf9929a9f223b5ec08919b29b5e64c464c61ce1639c93e84a51ff8e54dfd67564736f6c634300060a0033\n}\n","bytecode":{"linkReferences":{},"object":"608060405230600360006101000a81548173ffffffffffffffffffffffffffffffffffffffff021916908373ffffffffffffffffffffffffffffffffffffffff16021790555034801561005157600080fd5b50336000806101000a81548173ffffffffffffffffffffffffffffffffffffffff021916908373ffffffffffffffffffffffffffffffffffffffff160217905550611616806100a16000396000f3fe608060405234801561001057600080fd5b50600436106100f55760003560e01c80635f28100611610097578063d7ef9dcc11610066578063d7ef9dcc146104fb578063f3513a371461054e578063f80339a8146105ad578063facd743b146105e5576100f5565b80635f2810061461032c5780639d382ed01461040e578063bd13222c14610458578063be08be6d1461049a576100f5565b80633ce03bdd116100d35780633ce03bdd146101c9578063439ef4d3146102375780634599c788146102c45780635053f5fd146102e2576100f5565b80630635ce00146100fa5780631b1aa8b8146101435780631ba853d014610185575b600080fd5b6101266004803603602081101561011057600080fd5b8101908080359060200190929190505050610641565b604051808381526020018281526020019250505060405180910390f35b61016f6004803603602081101561015957600080fd5b8101908080359060200190929190505050610665565b6040518082815260200191505060405180910390f35b6101c76004803603602081101561019b57600080fd5b81019080803573ffffffffffffffffffffffffffffffffffffffff169060200190929190505050610685565b005b6101f5600480360360208110156101df57600080fd5b81019080803590602001909291905050506106c9565b604051808273ffffffffffffffffffffffffffffffffffffffff1673ffffffffffffffffffffffffffffffffffffffff16815260200191505060405180910390f35b61026d6004803603604081101561024d57600080fd5b810190808035906020019092919080359060200190929190505050610705565b6040518080602001828103825283818151815260200191508051906020019060200280838360005b838110156102b0578082015181840152602081019050610295565b505050509050019250505060405180910390f35b6102cc6107c3565b6040518082815260200191505060405180910390f35b6102ea6107c9565b604051808273ffffffffffffffffffffffffffffffffffffffff1673ffffffffffffffffffffffffffffffffffffffff16815260200191505060405180910390f35b61040c6004803603606081101561034257600080fd5b81019080803573ffffffffffffffffffffffffffffffffffffffff169060200190929190803590602001909291908035906020019064010000000081111561038957600080fd5b82018360208201111561039b57600080fd5b803590602001918460208302840111640100000000831117156103bd57600080fd5b919080806020026020016040519081016040528093929190818152602001838360200280828437600081840152601f19601f8201169050808301925050505050505091929192905050506107ef565b005b610416610b18565b604051808273ffffffffffffffffffffffffffffffffffffffff1673ffffffffffffffffffffffffffffffffffffffff16815260200191505060405180910390f35b6104986004803603606081101561046e57600080fd5b81019080803590602001909291908035906020019092919080359060200190929190505050610b3e565b005b6104da600480360360608110156104b057600080fd5b81019080803590602001909291908035906020019092919080359060200190929190505050610d71565b60405180831515151581526020018281526020019250505060405180910390f35b6105316004803603604081101561051157600080fd5b810190808035906020019092919080359060200190929190505050610e37565b604051808381526020018281526020019250505060405180910390f35b610556610e75565b6040518080602001828103825283818151815260200191508051906020019060200280838360005b8381101561059957808201518184015260208101905061057e565b505050509050019250505060405180910390f35b6105e3600480360360408110156105c357600080fd5b810190808035906020019092919080359060200190929190505050610f03565b005b610627600480360360208110156105fb57600080fd5b81019080803573ffffffffffffffffffffffffffffffffffffffff1690602001909291905050506111e2565b604051808215151515815260200191505060405180910390f35b60066020528060005260406000206000915090508060000154908060010154905082565b600060056000838152602001908152602001600020805490509050919050565b80600360006101000a81548173ffffffffffffffffffffffffffffffffffffffff021916908373ffffffffffffffffffffffffffffffffffffffff16021790555050565b600481815481106106d657fe5b906000526020600020016000915054906101000a900473ffffffffffffffffffffffffffffffffffffffff1681565b606060056000848152602001908152602001600020828154811061072557fe5b90600052602060002090600302016002018054806020026020016040519081016040528092919081815260200182805480156107b657602002820191906000526020600020905b8160009054906101000a900473ffffffffffffffffffffffffffffffffffffffff1673ffffffffffffffffffffffffffffffffffffffff168152602001906001019080831161076c575b5050505050905092915050565b60015481565b600260009054906101000a900473ffffffffffffffffffffffffffffffffffffffff1681565b6000809054906101000a900473ffffffffffffffffffffffffffffffffffffffff1673ffffffffffffffffffffffffffffffffffffffff163373ffffffffffffffffffffffffffffffffffffffff16146108b1576040517f08c379a000000000000000000000000000000000000000000000000000000000815260040180806020018281038252601e8152602001807f52504c534d413a204f6e6c79206465706c6f7965722063616e2063616c6c000081525060200191505060405180910390fd5b600073ffffffffffffffffffffffffffffffffffffffff168373ffffffffffffffffffffffffffffffffffffffff16146109eb57600073ffffffffffffffffffffffffffffffffffffffff16600260009054906101000a900473ffffffffffffffffffffffffffffffffffffffff1673ffffffffffffffffffffffffffffffffffffffff16146109a9576040517f08c379a000000000000000000000000000000000000000000000000000000000815260040180806020018281038252601e8152602001807f52504c534d413a20546f6b656e206164727320616c726561647920736574000081525060200191505060405180910390fd5b82600260006101000a81548173ffffffffffffffffffffffffffffffffffffffff021916908373ffffffffffffffffffffffffffffffffffffffff1602179055505b60008214610a7657600060015414610a6b576040517f08c379a00000000000000000000000000000000000000000000000000000000081526004018080602001828103825260208152602001807f52504c534d413a2053747274426c6f636b4e756d20616c72656164792073657481525060200191505060405180910390fd5b600182036001819055505b600081511115610b1357600060048054905014610afb576040517f08c379a000000000000000000000000000000000000000000000000000000000815260040180806020018281038252601e8152602001807f52504c534d413a2056616c696461746f727320616c726561647920736574000081525060200191505060405180910390fd5b8060049080519060200190610b119291906114cd565b505b505050565b600360009054906101000a900473ffffffffffffffffffffffffffffffffffffffff1681565b610b47336111e2565b610bb9576040517f08c379a00000000000000000000000000000000000000000000000000000000081526004018080602001828103825260178152602001807f52504c534d413a206e6f7420612076616c696461746f7200000000000000000081525060200191505060405180910390fd5b600080610bc7858585610d71565b9150915081610cbe57600560008681526020019081526020016000206040518060600160405280868152602001858152602001600067ffffffffffffffff81118015610c1257600080fd5b50604051908082528060200260200182016040528015610c415781602001602082028036833780820191505090505b50815250908060018154018082558091505060019003906000526020600020906003020160009091909190915060008201518160000155602082015181600101556040820151816002019080519060200190610c9e9291906114cd565b505050600160056000878152602001908152602001600020805490500390505b610cda6005600087815260200190815260200160002033611284565b600560008681526020019081526020016000208181548110610cf857fe5b9060005260206000209060030201600201339080600181540180825580915050600190039060005260206000200160009091909190916101000a81548173ffffffffffffffffffffffffffffffffffffffff021916908373ffffffffffffffffffffffffffffffffffffffff1602179055505050505050565b60008060008090505b6005600087815260200190815260200160002080549050811015610e2357600560008781526020019081526020016000208181548110610db657fe5b90600052602060002090600302016000015485148015610e045750600560008781526020019081526020016000208181548110610def57fe5b90600052602060002090600302016001015484145b15610e16576001819250925050610e2f565b8080600101915050610d7a565b50600080809050915091505b935093915050565b60056020528160005260406000208181548110610e5057fe5b9060005260206000209060030201600091509150508060000154908060010154905082565b60606004805480602002602001604051908101604052809291908181526020018280548015610ef957602002820191906000526020600020905b8160009054906101000a900473ffffffffffffffffffffffffffffffffffffffff1673ffffffffffffffffffffffffffffffffffffffff1681526020019060010190808311610eaf575b5050505050905090565b6001805401821115610f7d576040517f08c379a000000000000000000000000000000000000000000000000000000000815260040180806020018281038252601c8152602001807f52504c534d413a20696e76616c696420626c6f636b206e756d6265720000000081525060200191505060405180910390fd5b600080600560008581526020019081526020016000208381548110610f9e57fe5b9060005260206000209060030201600201905060008090505b818054905081101561101d57611002828281548110610fd257fe5b9060005260206000200160009054906101000a900473ffffffffffffffffffffffffffffffffffffffff166111e2565b156110105782806001019350505b8080600101915050610fb7565b50611037600260048054905061142a90919063ffffffff16565b61104b60038461142a90919063ffffffff16565b116110be576040517f08c379a000000000000000000000000000000000000000000000000000000000815260040180806020018281038252601a8152602001807f52504c534d413a206e6f74203636252076616c696461746f727300000000000081525060200191505060405180910390fd5b60405180604001604052806005600087815260200190815260200160002085815481106110e757fe5b906000526020600020906003020160000154815260200160056000878152602001908152602001600020858154811061111c57fe5b90600052602060002090600302016001015481525060066000868152602001908152602001600020600082015181600001556020820151816001015590505060056000858152602001908152602001600020838154811061117957fe5b906000526020600020906003020160020160006111969190611557565b836001819055507f72485b82f943ddb489949c1b7feaea5c5acd4113547cad7a281343c8300fc6f18484604051808381526020018281526020019250505060405180910390a150505050565b600080600090505b600480549050811015611279576004818154811061120457fe5b9060005260206000200160009054906101000a900473ffffffffffffffffffffffffffffffffffffffff1673ffffffffffffffffffffffffffffffffffffffff168373ffffffffffffffffffffffffffffffffffffffff16141561126c57600191505061127f565b80806001019150506111ea565b50600090505b919050565b60008090505b82805490508110156114255760008382815481106112a457fe5b9060005260206000209060030201600201905060008090505b8180549050811015611416578181815481106112d557fe5b9060005260206000200160009054906101000a900473ffffffffffffffffffffffffffffffffffffffff1673ffffffffffffffffffffffffffffffffffffffff168473ffffffffffffffffffffffffffffffffffffffff161415611409578160018380549050038154811061134657fe5b9060005260206000200160009054906101000a900473ffffffffffffffffffffffffffffffffffffffff1682828154811061137d57fe5b9060005260206000200160006101000a81548173ffffffffffffffffffffffffffffffffffffffff021916908373ffffffffffffffffffffffffffffffffffffffff160217905550818054806113cf57fe5b6001900381819060005260206000200160006101000a81549073ffffffffffffffffffffffffffffffffffffffff02191690559055611416565b80806001019150506112bd565b5050808060010191505061128a565b505050565b60008083141561143d57600090506114c7565b600082840290508284828161144e57fe5b04146114c2576040517f08c379a000000000000000000000000000000000000000000000000000000000815260040180806020018281038252601f8152602001807f536166654d6174683a204d756c7469706c696361746e206f766572666c6f770081525060200191505060405180910390fd5b809150505b92915050565b828054828255906000526020600020908101928215611546579160200282015b828111156115455782518260006101000a81548173ffffffffffffffffffffffffffffffffffffffff021916908373ffffffffffffffffffffffffffffffffffffffff160217905550916020019190600101906114ed565b5b5090506115539190611578565b5090565b508054600082559060005260206000209081019061157591906115bb565b50565b6115b891905b808211156115b457600081816101000a81549073ffffffffffffffffffffffffffffffffffffffff02191690555060010161157e565b5090565b90565b6115dd91905b808211156115d95760008160009055506001016115c1565b5090565b9056fea2646970667358221220acf9929a9f223b5ec08919b29b5e64c464c61ce1639c93e84a51ff8e54dfd67564736f6c634300060a0033","opcodes":"PUSH1 0x80 PUSH1 0x40 MSTORE ADDRESS PUSH1 0x3 PUSH1 0x0 PUSH2 0x100 EXP DUP2 SLOAD DUP2 PUSH20 0xFFFFFFFFFFFFFFFFFFFFFFFFFFFFFFFFFFFFFFFF MUL NOT AND SWAP1 DUP4 PUSH20 0xFFFFFFFFFFFFFFFFFFFFFFFFFFFFFFFFFFFFFFFF AND MUL OR SWAP1 SSTORE POP CALLVALUE DUP1 ISZERO PUSH2 0x51 JUMPI PUSH1 0x0 DUP1 REVERT JUMPDEST POP CALLER PUSH1 0x0 DUP1 PUSH2 0x100 EXP DUP2 SLOAD DUP2 PUSH20 0xFFFFFFFFFFFFFFFFFFFFFFFFFFFFFFFFFFFFFFFF MUL NOT AND SWAP1 DUP4 PUSH20 0xFFFFFFFFFFFFFFFFFFFFFFFFFFFFFFFFFFFFFFFF AND MUL OR SWAP1 SSTORE POP PUSH2 0x1616 DUP1 PUSH2 0xA1 PUSH1 0x0 CODECOPY PUSH1 0x0 RETURN INVALID PUSH1 0x80 PUSH1 0x40 MSTORE CALLVALUE DUP1 ISZERO PUSH2 0x10 JUMPI PUSH1 0x0 DUP1 REVERT JUMPDEST POP PUSH1 0x4 CALLDATASIZE LT PUSH2 0xF5 JUMPI PUSH1 0x0 CALLDATALOAD PUSH1 0xE0 SHR DUP1 PUSH4 0x5F281006 GT PUSH2 0x97 JUMPI DUP1 PUSH4 0xD7EF9DCC GT PUSH2 0x66 JUMPI DUP1 PUSH4 0xD7EF9DCC EQ PUSH2 0x4FB JUMPI DUP1 PUSH4 0xF3513A37 EQ PUSH2 0x54E JUMPI DUP1 PUSH4 0xF80339A8 EQ PUSH2 0x5AD JUMPI DUP1 PUSH4 0xFACD743B EQ PUSH2 0x5E5 JUMPI PUSH2 0xF5 JUMP JUMPDEST DUP1 PUSH4 0x5F281006 EQ PUSH2 0x32C JUMPI DUP1 PUSH4 0x9D382ED0 EQ PUSH2 0x40E JUMPI DUP1 PUSH4 0xBD13222C EQ PUSH2 0x458 JUMPI DUP1 PUSH4 0xBE08BE6D EQ PUSH2 0x49A JUMPI PUSH2 0xF5 JUMP JUMPDEST DUP1 PUSH4 0x3CE03BDD GT PUSH2 0xD3 JUMPI DUP1 PUSH4 0x3CE03BDD EQ PUSH2 0x1C9 JUMPI DUP1 PUSH4 0x439EF4D3 EQ PUSH2 0x237 JUMPI DUP1 PUSH4 0x4599C788 EQ PUSH2 0x2C4 JUMPI DUP1 PUSH4 0x5053F5FD EQ PUSH2 0x2E2 JUMPI PUSH2 0xF5 JUMP JUMPDEST DUP1 PUSH4 0x635CE00 EQ PUSH2 0xFA JUMPI DUP1 PUSH4 0x1B1AA8B8 EQ PUSH2 0x143 JUMPI DUP1 PUSH4 0x1BA853D0 EQ PUSH2 0x185 JUMPI JUMPDEST PUSH1 0x0 DUP1 REVERT JUMPDEST PUSH2 0x126 PUSH1 0x4 DUP1 CALLDATASIZE SUB PUSH1 0x20 DUP2 LT ISZERO PUSH2 0x110 JUMPI PUSH1 0x0 DUP1 REVERT JUMPDEST DUP2 ADD SWAP1 DUP1 DUP1 CALLDATALOAD SWAP1 PUSH1 0x20 ADD SWAP1 SWAP3 SWAP2 SWAP1 POP POP POP PUSH2 0x641 JUMP JUMPDEST PUSH1 0x40 MLOAD DUP1 DUP4 DUP2 MSTORE PUSH1 0x20 ADD DUP3 DUP2 MSTORE PUSH1 0x20 ADD SWAP3 POP POP POP PUSH1 0x40 MLOAD DUP1 SWAP2 SUB SWAP1 RETURN JUMPDEST PUSH2 0x16F PUSH1 0x4 DUP1 CALLDATASIZE SUB PUSH1 0x20 DUP2 LT ISZERO PUSH2 0x159 JUMPI PUSH1 0x0 DUP1 REVERT JUMPDEST DUP2 ADD SWAP1 DUP1 DUP1 CALLDATALOAD SWAP1 PUSH1 0x20 ADD SWAP1 SWAP3 SWAP2 SWAP1 POP POP POP PUSH2 0x665 JUMP JUMPDEST PUSH1 0x40 MLOAD DUP1 DUP3 DUP2 MSTORE PUSH1 0x20 ADD SWAP2 POP POP PUSH1 0x40 MLOAD DUP1 SWAP2 SUB SWAP1 RETURN JUMPDEST PUSH2 0x1C7 PUSH1 0x4 DUP1 CALLDATASIZE SUB PUSH1 0x20 DUP2 LT ISZERO PUSH2 0x19B JUMPI PUSH1 0x0 DUP1 REVERT JUMPDEST DUP2 ADD SWAP1 DUP1 DUP1 CALLDATALOAD PUSH20 0xFFFFFFFFFFFFFFFFFFFFFFFFFFFFFFFFFFFFFFFF AND SWAP1 PUSH1 0x20 ADD SWAP1 SWAP3 SWAP2 SWAP1 POP POP POP PUSH2 0x685 JUMP JUMPDEST STOP JUMPDEST PUSH2 0x1F5 PUSH1 0x4 DUP1 CALLDATASIZE SUB PUSH1 0x20 DUP2 LT ISZERO PUSH2 0x1DF JUMPI PUSH1 0x0 DUP1 REVERT JUMPDEST DUP2 ADD SWAP1 DUP1 DUP1 CALLDATALOAD SWAP1 PUSH1 0x20 ADD SWAP1 SWAP3 SWAP2 SWAP1 POP POP POP PUSH2 0x6C9 JUMP JUMPDEST PUSH1 0x40 MLOAD DUP1 DUP3 PUSH20 0xFFFFFFFFFFFFFFFFFFFFFFFFFFFFFFFFFFFFFFFF AND PUSH20 0xFFFFFFFFFFFFFFFFFFFFFFFFFFFFFFFFFFFFFFFF AND DUP2 MSTORE PUSH1 0x20 ADD SWAP2 POP POP PUSH1 0x40 MLOAD DUP1 SWAP2 SUB SWAP1 RETURN JUMPDEST PUSH2 0x26D PUSH1 0x4 DUP1 CALLDATASIZE SUB PUSH1 0x40 DUP2 LT ISZERO PUSH2 0x24D JUMPI PUSH1 0x0 DUP1 REVERT JUMPDEST DUP2 ADD SWAP1 DUP1 DUP1 CALLDATALOAD SWAP1 PUSH1 0x20 ADD SWAP1 SWAP3 SWAP2 SWAP1 DUP1 CALLDATALOAD SWAP1 PUSH1 0x20 ADD SWAP1 SWAP3 SWAP2 SWAP1 POP POP POP PUSH2 0x705 JUMP JUMPDEST PUSH1 0x40 MLOAD DUP1 DUP1 PUSH1 0x20 ADD DUP3 DUP2 SUB DUP3 MSTORE DUP4 DUP2 DUP2 MLOAD DUP2 MSTORE PUSH1 0x20 ADD SWAP2 POP DUP1 MLOAD SWAP1 PUSH1 0x20 ADD SWAP1 PUSH1 0x20 MUL DUP1 DUP4 DUP4 PUSH1 0x0 JUMPDEST DUP4 DUP2 LT ISZERO PUSH2 0x2B0 JUMPI DUP1 DUP3 ADD MLOAD DUP2 DUP5 ADD MSTORE PUSH1 0x20 DUP2 ADD SWAP1 POP PUSH2 0x295 JUMP JUMPDEST POP POP POP POP SWAP1 POP ADD SWAP3 POP POP POP PUSH1 0x40 MLOAD DUP1 SWAP2 SUB SWAP1 RETURN JUMPDEST PUSH2 0x2CC PUSH2 0x7C3 JUMP JUMPDEST PUSH1 0x40 MLOAD DUP1 DUP3 DUP2 MSTORE PUSH1 0x20 ADD SWAP2 POP POP PUSH1 0x40 MLOAD DUP1 SWAP2 SUB SWAP1 RETURN JUMPDEST PUSH2 0x2EA PUSH2 0x7C9 JUMP JUMPDEST PUSH1 0x40 MLOAD DUP1 DUP3 PUSH20 0xFFFFFFFFFFFFFFFFFFFFFFFFFFFFFFFFFFFFFFFF AND PUSH20 0xFFFFFFFFFFFFFFFFFFFFFFFFFFFFFFFFFFFFFFFF AND DUP2 MSTORE PUSH1 0x20 ADD SWAP2 POP POP PUSH1 0x40 MLOAD DUP1 SWAP2 SUB SWAP1 RETURN JUMPDEST PUSH2 0x40C PUSH1 0x4 DUP1 CALLDATASIZE SUB PUSH1 0x60 DUP2 LT ISZERO PUSH2 0x342 JUMPI PUSH1 0x0 DUP1 REVERT JUMPDEST DUP2 ADD SWAP1 DUP1 DUP1 CALLDATALOAD PUSH20 0xFFFFFFFFFFFFFFFFFFFFFFFFFFFFFFFFFFFFFFFF AND SWAP1 PUSH1 0x20 ADD SWAP1 SWAP3 SWAP2 SWAP1 DUP1 CALLDATALOAD SWAP1 PUSH1 0x20 ADD SWAP1 SWAP3 SWAP2 SWAP1 DUP1 CALLDATALOAD SWAP1 PUSH1 0x20 ADD SWAP1 PUSH5 0x100000000 DUP2 GT ISZERO PUSH2 0x389 JUMPI PUSH1 0x0 DUP1 REVERT JUMPDEST DUP3 ADD DUP4 PUSH1 0x20 DUP3 ADD GT ISZERO PUSH2 0x39B JUMPI PUSH1 0x0 DUP1 REVERT JUMPDEST DUP1 CALLDATALOAD SWAP1 PUSH1 0x20 ADD SWAP2 DUP5 PUSH1 0x20 DUP4 MUL DUP5 ADD GT PUSH5 0x100000000 DUP4 GT OR ISZERO PUSH2 0x3BD JUMPI PUSH1 0x0 DUP1 REVERT JUMPDEST SWAP2 SWAP1 DUP1 DUP1 PUSH1 0x20 MUL PUSH1 0x20 ADD PUSH1 0x40 MLOAD SWAP1 DUP2 ADD PUSH1 0x40 MSTORE DUP1 SWAP4 SWAP3 SWAP2 SWAP1 DUP2 DUP2 MSTORE PUSH1 0x20 ADD DUP4 DUP4 PUSH1 0x20 MUL DUP1 DUP3 DUP5 CALLDATACOPY PUSH1 0x0 DUP2 DUP5 ADD MSTORE PUSH1 0x1F NOT PUSH1 0x1F DUP3 ADD AND SWAP1 POP DUP1 DUP4 ADD SWAP3 POP POP POP POP POP POP POP SWAP2 SWAP3 SWAP2 SWAP3 SWAP1 POP POP POP PUSH2 0x7EF JUMP JUMPDEST STOP JUMPDEST PUSH2 0x416 PUSH2 0xB18 JUMP JUMPDEST PUSH1 0x40 MLOAD DUP1 DUP3 PUSH20 0xFFFFFFFFFFFFFFFFFFFFFFFFFFFFFFFFFFFFFFFF AND PUSH20 0xFFFFFFFFFFFFFFFFFFFFFFFFFFFFFFFFFFFFFFFF AND DUP2 MSTORE PUSH1 0x20 ADD SWAP2 POP POP PUSH1 0x40 MLOAD DUP1 SWAP2 SUB SWAP1 RETURN JUMPDEST PUSH2 0x498 PUSH1 0x4 DUP1 CALLDATASIZE SUB PUSH1 0x60 DUP2 LT ISZERO PUSH2 0x46E JUMPI PUSH1 0x0 DUP1 REVERT JUMPDEST DUP2 ADD SWAP1 DUP1 DUP1 CALLDATALOAD SWAP1 PUSH1 0x20 ADD SWAP1 SWAP3 SWAP2 SWAP1 DUP1 CALLDATALOAD SWAP1 PUSH1 0x20 ADD SWAP1 SWAP3 SWAP2 SWAP1 DUP1 CALLDATALOAD SWAP1 PUSH1 0x20 ADD SWAP1 SWAP3 SWAP2 SWAP1 POP POP POP PUSH2 0xB3E JUMP JUMPDEST STOP JUMPDEST PUSH2 0x4DA PUSH1 0x4 DUP1 CALLDATASIZE SUB PUSH1 0x60 DUP2 LT ISZERO PUSH2 0x4B0 JUMPI PUSH1 0x0 DUP1 REVERT JUMPDEST DUP2 ADD SWAP1 DUP1 DUP1 CALLDATALOAD SWAP1 PUSH1 0x20 ADD SWAP1 SWAP3 SWAP2 SWAP1 DUP1 CALLDATALOAD SWAP1 PUSH1 0x20 ADD SWAP1 SWAP3 SWAP2 SWAP1 DUP1 CALLDATALOAD SWAP1 PUSH1 0x20 ADD SWAP1 SWAP3 SWAP2 SWAP1 POP POP POP PUSH2 0xD71 JUMP JUMPDEST PUSH1 0x40 MLOAD DUP1 DUP4 ISZERO ISZERO ISZERO ISZERO DUP2 MSTORE PUSH1 0x20 ADD DUP3 DUP2 MSTORE PUSH1 0x20 ADD SWAP3 POP POP POP PUSH1 0x40 MLOAD DUP1 SWAP2 SUB SWAP1 RETURN JUMPDEST PUSH2 0x531 PUSH1 0x4 DUP1 CALLDATASIZE SUB PUSH1 0x40 DUP2 LT ISZERO PUSH2 0x511 JUMPI PUSH1 0x0 DUP1 REVERT JUMPDEST DUP2 ADD SWAP1 DUP1 DUP1 CALLDATALOAD SWAP1 PUSH1 0x20 ADD SWAP1 SWAP3 SWAP2 SWAP1 DUP1 CALLDATALOAD SWAP1 PUSH1 0x20 ADD SWAP1 SWAP3 SWAP2 SWAP1 POP POP POP PUSH2 0xE37 JUMP JUMPDEST PUSH1 0x40 MLOAD DUP1 DUP4 DUP2 MSTORE PUSH1 0x20 ADD DUP3 DUP2 MSTORE PUSH1 0x20 ADD SWAP3 POP POP POP PUSH1 0x40 MLOAD DUP1 SWAP2 SUB SWAP1 RETURN JUMPDEST PUSH2 0x556 PUSH2 0xE75 JUMP JUMPDEST PUSH1 0x40 MLOAD DUP1 DUP1 PUSH1 0x20 ADD DUP3 DUP2 SUB DUP3 MSTORE DUP4 DUP2 DUP2 MLOAD DUP2 MSTORE PUSH1 0x20 ADD SWAP2 POP DUP1 MLOAD SWAP1 PUSH1 0x20 ADD SWAP1 PUSH1 0x20 MUL DUP1 DUP4 DUP4 PUSH1 0x0 JUMPDEST DUP4 DUP2 LT ISZERO PUSH2 0x599 JUMPI DUP1 DUP3 ADD MLOAD DUP2 DUP5 ADD MSTORE PUSH1 0x20 DUP2 ADD SWAP1 POP PUSH2 0x57E JUMP JUMPDEST POP POP POP POP SWAP1 POP ADD SWAP3 POP POP POP PUSH1 0x40 MLOAD DUP1 SWAP2 SUB SWAP1 RETURN JUMPDEST PUSH2 0x5E3 PUSH1 0x4 DUP1 CALLDATASIZE SUB PUSH1 0x40 DUP2 LT ISZERO PUSH2 0x5C3 JUMPI PUSH1 0x0 DUP1 REVERT JUMPDEST DUP2 ADD SWAP1 DUP1 DUP1 CALLDATALOAD SWAP1 PUSH1 0x20 ADD SWAP1 SWAP3 SWAP2 SWAP1 DUP1 CALLDATALOAD SWAP1 PUSH1 0x20 ADD SWAP1 SWAP3 SWAP2 SWAP1 POP POP POP PUSH2 0xF03 JUMP JUMPDEST STOP JUMPDEST PUSH2 0x627 PUSH1 0x4 DUP1 CALLDATASIZE SUB PUSH1 0x20 DUP2 LT ISZERO PUSH2 0x5FB JUMPI PUSH1 0x0 DUP1 REVERT JUMPDEST DUP2 ADD SWAP1 DUP1 DUP1 CALLDATALOAD PUSH20 0xFFFFFFFFFFFFFFFFFFFFFFFFFFFFFFFFFFFFFFFF AND SWAP1 PUSH1 0x20 ADD SWAP1 SWAP3 SWAP2 SWAP1 POP POP POP PUSH2 0x11E2 JUMP JUMPDEST PUSH1 0x40 MLOAD DUP1 DUP3 ISZERO ISZERO ISZERO ISZERO DUP2 MSTORE PUSH1 0x20 ADD SWAP2 POP POP PUSH1 0x40 MLOAD DUP1 SWAP2 SUB SWAP1 RETURN JUMPDEST PUSH1 0x6 PUSH1 0x20 MSTORE DUP1 PUSH1 0x0 MSTORE PUSH1 0x40 PUSH1 0x0 KECCAK256 PUSH1 0x0 SWAP2 POP SWAP1 POP DUP1 PUSH1 0x0 ADD SLOAD SWAP1 DUP1 PUSH1 0x1 ADD SLOAD SWAP1 POP DUP3 JUMP JUMPDEST PUSH1 0x0 PUSH1 0x5 PUSH1 0x0 DUP4 DUP2 MSTORE PUSH1 0x20 ADD SWAP1 DUP2 MSTORE PUSH1 0x20 ADD PUSH1 0x0 KECCAK256 DUP1 SLOAD SWAP1 POP SWAP1 POP SWAP2 SWAP1 POP JUMP JUMPDEST DUP1 PUSH1 0x3 PUSH1 0x0 PUSH2 0x100 EXP DUP2 SLOAD DUP2 PUSH20 0xFFFFFFFFFFFFFFFFFFFFFFFFFFFFFFFFFFFFFFFF MUL NOT AND SWAP1 DUP4 PUSH20 0xFFFFFFFFFFFFFFFFFFFFFFFFFFFFFFFFFFFFFFFF AND MUL OR SWAP1 SSTORE POP POP JUMP JUMPDEST PUSH1 0x4 DUP2 DUP2 SLOAD DUP2 LT PUSH2 0x6D6 JUMPI INVALID JUMPDEST SWAP1 PUSH1 0x0 MSTORE PUSH1 0x20 PUSH1 0x0 KECCAK256 ADD PUSH1 0x0 SWAP2 POP SLOAD SWAP1 PUSH2 0x100 EXP SWAP1 DIV PUSH20 0xFFFFFFFFFFFFFFFFFFFFFFFFFFFFFFFFFFFFFFFF AND DUP2 JUMP JUMPDEST PUSH1 0x60 PUSH1 0x5 PUSH1 0x0 DUP5 DUP2 MSTORE PUSH1 0x20 ADD SWAP1 DUP2 MSTORE PUSH1 0x20 ADD PUSH1 0x0 KECCAK256 DUP3 DUP2 SLOAD DUP2 LT PUSH2 0x725 JUMPI INVALID JUMPDEST SWAP1 PUSH1 0x0 MSTORE PUSH1 0x20 PUSH1 0x0 KECCAK256 SWAP1 PUSH1 0x3 MUL ADD PUSH1 0x2 ADD DUP1 SLOAD DUP1 PUSH1 0x20 MUL PUSH1 0x20 ADD PUSH1 0x40 MLOAD SWAP1 DUP2 ADD PUSH1 0x40 MSTORE DUP1 SWAP3 SWAP2 SWAP1 DUP2 DUP2 MSTORE PUSH1 0x20 ADD DUP3 DUP1 SLOAD DUP1 ISZERO PUSH2 0x7B6 JUMPI PUSH1 0x20 MUL DUP3 ADD SWAP2 SWAP1 PUSH1 0x0 MSTORE PUSH1 0x20 PUSH1 0x0 KECCAK256 SWAP1 JUMPDEST DUP2 PUSH1 0x0 SWAP1 SLOAD SWAP1 PUSH2 0x100 EXP SWAP1 DIV PUSH20 0xFFFFFFFFFFFFFFFFFFFFFFFFFFFFFFFFFFFFFFFF AND PUSH20 0xFFFFFFFFFFFFFFFFFFFFFFFFFFFFFFFFFFFFFFFF AND DUP2 MSTORE PUSH1 0x20 ADD SWAP1 PUSH1 0x1 ADD SWAP1 DUP1 DUP4 GT PUSH2 0x76C JUMPI JUMPDEST POP POP POP POP POP SWAP1 POP SWAP3 SWAP2 POP POP JUMP JUMPDEST PUSH1 0x1 SLOAD DUP2 JUMP JUMPDEST PUSH1 0x2 PUSH1 0x0 SWAP1 SLOAD SWAP1 PUSH2 0x100 EXP SWAP1 DIV PUSH20 0xFFFFFFFFFFFFFFFFFFFFFFFFFFFFFFFFFFFFFFFF AND DUP2 JUMP JUMPDEST PUSH1 0x0 DUP1 SWAP1 SLOAD SWAP1 PUSH2 0x100 EXP SWAP1 DIV PUSH20 0xFFFFFFFFFFFFFFFFFFFFFFFFFFFFFFFFFFFFFFFF AND PUSH20 0xFFFFFFFFFFFFFFFFFFFFFFFFFFFFFFFFFFFFFFFF AND CALLER PUSH20 0xFFFFFFFFFFFFFFFFFFFFFFFFFFFFFFFFFFFFFFFF AND EQ PUSH2 0x8B1 JUMPI PUSH1 0x40 MLOAD PUSH32 0x8C379A000000000000000000000000000000000000000000000000000000000 DUP2 MSTORE PUSH1 0x4 ADD DUP1 DUP1 PUSH1 0x20 ADD DUP3 DUP2 SUB DUP3 MSTORE PUSH1 0x1E DUP2 MSTORE PUSH1 0x20 ADD DUP1 PUSH32 0x52504C534D413A204F6E6C79206465706C6F7965722063616E2063616C6C0000 DUP2 MSTORE POP PUSH1 0x20 ADD SWAP2 POP POP PUSH1 0x40 MLOAD DUP1 SWAP2 SUB SWAP1 REVERT JUMPDEST PUSH1 0x0 PUSH20 0xFFFFFFFFFFFFFFFFFFFFFFFFFFFFFFFFFFFFFFFF AND DUP4 PUSH20 0xFFFFFFFFFFFFFFFFFFFFFFFFFFFFFFFFFFFFFFFF AND EQ PUSH2 0x9EB JUMPI PUSH1 0x0 PUSH20 0xFFFFFFFFFFFFFFFFFFFFFFFFFFFFFFFFFFFFFFFF AND PUSH1 0x2 PUSH1 0x0 SWAP1 SLOAD SWAP1 PUSH2 0x100 EXP SWAP1 DIV PUSH20 0xFFFFFFFFFFFFFFFFFFFFFFFFFFFFFFFFFFFFFFFF AND PUSH20 0xFFFFFFFFFFFFFFFFFFFFFFFFFFFFFFFFFFFFFFFF AND EQ PUSH2 0x9A9 JUMPI PUSH1 0x40 MLOAD PUSH32 0x8C379A000000000000000000000000000000000000000000000000000000000 DUP2 MSTORE PUSH1 0x4 ADD DUP1 DUP1 PUSH1 0x20 ADD DUP3 DUP2 SUB DUP3 MSTORE PUSH1 0x1E DUP2 MSTORE PUSH1 0x20 ADD DUP1 PUSH32 0x52504C534D413A20546F6B656E206164727320616C7265616479207365740000 DUP2 MSTORE POP PUSH1 0x20 ADD SWAP2 POP POP PUSH1 0x40 MLOAD DUP1 SWAP2 SUB SWAP1 REVERT JUMPDEST DUP3 PUSH1 0x2 PUSH1 0x0 PUSH2 0x100 EXP DUP2 SLOAD DUP2 PUSH20 0xFFFFFFFFFFFFFFFFFFFFFFFFFFFFFFFFFFFFFFFF MUL NOT AND SWAP1 DUP4 PUSH20 0xFFFFFFFFFFFFFFFFFFFFFFFFFFFFFFFFFFFFFFFF AND MUL OR SWAP1 SSTORE POP JUMPDEST PUSH1 0x0 DUP3 EQ PUSH2 0xA76 JUMPI PUSH1 0x0 PUSH1 0x1 SLOAD EQ PUSH2 0xA6B JUMPI PUSH1 0x40 MLOAD PUSH32 0x8C379A000000000000000000000000000000000000000000000000000000000 DUP2 MSTORE PUSH1 0x4 ADD DUP1 DUP1 PUSH1 0x20 ADD DUP3 DUP2 SUB DUP3 MSTORE PUSH1 0x20 DUP2 MSTORE PUSH1 0x20 ADD DUP1 PUSH32 0x52504C534D413A2053747274426C6F636B4E756D20616C726561647920736574 DUP2 MSTORE POP PUSH1 0x20 ADD SWAP2 POP POP PUSH1 0x40 MLOAD DUP1 SWAP2 SUB SWAP1 REVERT JUMPDEST PUSH1 0x1 DUP3 SUB PUSH1 0x1 DUP2 SWAP1 SSTORE POP JUMPDEST PUSH1 0x0 DUP2 MLOAD GT ISZERO PUSH2 0xB13 JUMPI PUSH1 0x0 PUSH1 0x4 DUP1 SLOAD SWAP1 POP EQ PUSH2 0xAFB JUMPI PUSH1 0x40 MLOAD PUSH32 0x8C379A000000000000000000000000000000000000000000000000000000000 DUP2 MSTORE PUSH1 0x4 ADD DUP1 DUP1 PUSH1 0x20 ADD DUP3 DUP2 SUB DUP3 MSTORE PUSH1 0x1E DUP2 MSTORE PUSH1 0x20 ADD DUP1 PUSH32 0x52504C534D413A2056616C696461746F727320616C7265616479207365740000 DUP2 MSTORE POP PUSH1 0x20 ADD SWAP2 POP POP PUSH1 0x40 MLOAD DUP1 SWAP2 SUB SWAP1 REVERT JUMPDEST DUP1 PUSH1 0x4 SWAP1 DUP1 MLOAD SWAP1 PUSH1 0x20 ADD SWAP1 PUSH2 0xB11 SWAP3 SWAP2 SWAP1 PUSH2 0x14CD JUMP JUMPDEST POP JUMPDEST POP POP POP JUMP JUMPDEST PUSH1 0x3 PUSH1 0x0 SWAP1 SLOAD SWAP1 PUSH2 0x100 EXP SWAP1 DIV PUSH20 0xFFFFFFFFFFFFFFFFFFFFFFFFFFFFFFFFFFFFFFFF AND DUP2 JUMP JUMPDEST PUSH2 0xB47 CALLER PUSH2 0x11E2 JUMP JUMPDEST PUSH2 0xBB9 JUMPI PUSH1 0x40 MLOAD PUSH32 0x8C379A000000000000000000000000000000000000000000000000000000000 DUP2 MSTORE PUSH1 0x4 ADD DUP1 DUP1 PUSH1 0x20 ADD DUP3 DUP2 SUB DUP3 MSTORE PUSH1 0x17 DUP2 MSTORE PUSH1 0x20 ADD DUP1 PUSH32 0x52504C534D413A206E6F7420612076616C696461746F72000000000000000000 DUP2 MSTORE POP PUSH1 0x20 ADD SWAP2 POP POP PUSH1 0x40 MLOAD DUP1 SWAP2 SUB SWAP1 REVERT JUMPDEST PUSH1 0x0 DUP1 PUSH2 0xBC7 DUP6 DUP6 DUP6 PUSH2 0xD71 JUMP JUMPDEST SWAP2 POP SWAP2 POP DUP2 PUSH2 0xCBE JUMPI PUSH1 0x5 PUSH1 0x0 DUP7 DUP2 MSTORE PUSH1 0x20 ADD SWAP1 DUP2 MSTORE PUSH1 0x20 ADD PUSH1 0x0 KECCAK256 PUSH1 0x40 MLOAD DUP1 PUSH1 0x60 ADD PUSH1 0x40 MSTORE DUP1 DUP7 DUP2 MSTORE PUSH1 0x20 ADD DUP6 DUP2 MSTORE PUSH1 0x20 ADD PUSH1 0x0 PUSH8 0xFFFFFFFFFFFFFFFF DUP2 GT DUP1 ISZERO PUSH2 0xC12 JUMPI PUSH1 0x0 DUP1 REVERT JUMPDEST POP PUSH1 0x40 MLOAD SWAP1 DUP1 DUP3 MSTORE DUP1 PUSH1 0x20 MUL PUSH1 0x20 ADD DUP3 ADD PUSH1 0x40 MSTORE DUP1 ISZERO PUSH2 0xC41 JUMPI DUP2 PUSH1 0x20 ADD PUSH1 0x20 DUP3 MUL DUP1 CALLDATASIZE DUP4 CALLDATACOPY DUP1 DUP3 ADD SWAP2 POP POP SWAP1 POP JUMPDEST POP DUP2 MSTORE POP SWAP1 DUP1 PUSH1 0x1 DUP2 SLOAD ADD DUP1 DUP3 SSTORE DUP1 SWAP2 POP POP PUSH1 0x1 SWAP1 SUB SWAP1 PUSH1 0x0 MSTORE PUSH1 0x20 PUSH1 0x0 KECCAK256 SWAP1 PUSH1 0x3 MUL ADD PUSH1 0x0 SWAP1 SWAP2 SWAP1 SWAP2 SWAP1 SWAP2 POP PUSH1 0x0 DUP3 ADD MLOAD DUP2 PUSH1 0x0 ADD SSTORE PUSH1 0x20 DUP3 ADD MLOAD DUP2 PUSH1 0x1 ADD SSTORE PUSH1 0x40 DUP3 ADD MLOAD DUP2 PUSH1 0x2 ADD SWAP1 DUP1 MLOAD SWAP1 PUSH1 0x20 ADD SWAP1 PUSH2 0xC9E SWAP3 SWAP2 SWAP1 PUSH2 0x14CD JUMP JUMPDEST POP POP POP PUSH1 0x1 PUSH1 0x5 PUSH1 0x0 DUP8 DUP2 MSTORE PUSH1 0x20 ADD SWAP1 DUP2 MSTORE PUSH1 0x20 ADD PUSH1 0x0 KECCAK256 DUP1 SLOAD SWAP1 POP SUB SWAP1 POP JUMPDEST PUSH2 0xCDA PUSH1 0x5 PUSH1 0x0 DUP8 DUP2 MSTORE PUSH1 0x20 ADD SWAP1 DUP2 MSTORE PUSH1 0x20 ADD PUSH1 0x0 KECCAK256 CALLER PUSH2 0x1284 JUMP JUMPDEST PUSH1 0x5 PUSH1 0x0 DUP7 DUP2 MSTORE PUSH1 0x20 ADD SWAP1 DUP2 MSTORE PUSH1 0x20 ADD PUSH1 0x0 KECCAK256 DUP2 DUP2 SLOAD DUP2 LT PUSH2 0xCF8 JUMPI INVALID JUMPDEST SWAP1 PUSH1 0x0 MSTORE PUSH1 0x20 PUSH1 0x0 KECCAK256 SWAP1 PUSH1 0x3 MUL ADD PUSH1 0x2 ADD CALLER SWAP1 DUP1 PUSH1 0x1 DUP2 SLOAD ADD DUP1 DUP3 SSTORE DUP1 SWAP2 POP POP PUSH1 0x1 SWAP1 SUB SWAP1 PUSH1 0x0 MSTORE PUSH1 0x20 PUSH1 0x0 KECCAK256 ADD PUSH1 0x0 SWAP1 SWAP2 SWAP1 SWAP2 SWAP1 SWAP2 PUSH2 0x100 EXP DUP2 SLOAD DUP2 PUSH20 0xFFFFFFFFFFFFFFFFFFFFFFFFFFFFFFFFFFFFFFFF MUL NOT AND SWAP1 DUP4 PUSH20 0xFFFFFFFFFFFFFFFFFFFFFFFFFFFFFFFFFFFFFFFF AND MUL OR SWAP1 SSTORE POP POP POP POP POP POP JUMP JUMPDEST PUSH1 0x0 DUP1 PUSH1 0x0 DUP1 SWAP1 POP JUMPDEST PUSH1 0x5 PUSH1 0x0 DUP8 DUP2 MSTORE PUSH1 0x20 ADD SWAP1 DUP2 MSTORE PUSH1 0x20 ADD PUSH1 0x0 KECCAK256 DUP1 SLOAD SWAP1 POP DUP2 LT ISZERO PUSH2 0xE23 JUMPI PUSH1 0x5 PUSH1 0x0 DUP8 DUP2 MSTORE PUSH1 0x20 ADD SWAP1 DUP2 MSTORE PUSH1 0x20 ADD PUSH1 0x0 KECCAK256 DUP2 DUP2 SLOAD DUP2 LT PUSH2 0xDB6 JUMPI INVALID JUMPDEST SWAP1 PUSH1 0x0 MSTORE PUSH1 0x20 PUSH1 0x0 KECCAK256 SWAP1 PUSH1 0x3 MUL ADD PUSH1 0x0 ADD SLOAD DUP6 EQ DUP1 ISZERO PUSH2 0xE04 JUMPI POP PUSH1 0x5 PUSH1 0x0 DUP8 DUP2 MSTORE PUSH1 0x20 ADD SWAP1 DUP2 MSTORE PUSH1 0x20 ADD PUSH1 0x0 KECCAK256 DUP2 DUP2 SLOAD DUP2 LT PUSH2 0xDEF JUMPI INVALID JUMPDEST SWAP1 PUSH1 0x0 MSTORE PUSH1 0x20 PUSH1 0x0 KECCAK256 SWAP1 PUSH1 0x3 MUL ADD PUSH1 0x1 ADD SLOAD DUP5 EQ JUMPDEST ISZERO PUSH2 0xE16 JUMPI PUSH1 0x1 DUP2 SWAP3 POP SWAP3 POP POP PUSH2 0xE2F JUMP JUMPDEST DUP1 DUP1 PUSH1 0x1 ADD SWAP2 POP POP PUSH2 0xD7A JUMP JUMPDEST POP PUSH1 0x0 DUP1 DUP1 SWAP1 POP SWAP2 POP SWAP2 POP JUMPDEST SWAP4 POP SWAP4 SWAP2 POP POP JUMP JUMPDEST PUSH1 0x5 PUSH1 0x20 MSTORE DUP2 PUSH1 0x0 MSTORE PUSH1 0x40 PUSH1 0x0 KECCAK256 DUP2 DUP2 SLOAD DUP2 LT PUSH2 0xE50 JUMPI INVALID JUMPDEST SWAP1 PUSH1 0x0 MSTORE PUSH1 0x20 PUSH1 0x0 KECCAK256 SWAP1 PUSH1 0x3 MUL ADD PUSH1 0x0 SWAP2 POP SWAP2 POP POP DUP1 PUSH1 0x0 ADD SLOAD SWAP1 DUP1 PUSH1 0x1 ADD SLOAD SWAP1 POP DUP3 JUMP JUMPDEST PUSH1 0x60 PUSH1 0x4 DUP1 SLOAD DUP1 PUSH1 0x20 MUL PUSH1 0x20 ADD PUSH1 0x40 MLOAD SWAP1 DUP2 ADD PUSH1 0x40 MSTORE DUP1 SWAP3 SWAP2 SWAP1 DUP2 DUP2 MSTORE PUSH1 0x20 ADD DUP3 DUP1 SLOAD DUP1 ISZERO PUSH2 0xEF9 JUMPI PUSH1 0x20 MUL DUP3 ADD SWAP2 SWAP1 PUSH1 0x0 MSTORE PUSH1 0x20 PUSH1 0x0 KECCAK256 SWAP1 JUMPDEST DUP2 PUSH1 0x0 SWAP1 SLOAD SWAP1 PUSH2 0x100 EXP SWAP1 DIV PUSH20 0xFFFFFFFFFFFFFFFFFFFFFFFFFFFFFFFFFFFFFFFF AND PUSH20 0xFFFFFFFFFFFFFFFFFFFFFFFFFFFFFFFFFFFFFFFF AND DUP2 MSTORE PUSH1 0x20 ADD SWAP1 PUSH1 0x1 ADD SWAP1 DUP1 DUP4 GT PUSH2 0xEAF JUMPI JUMPDEST POP POP POP POP POP SWAP1 POP SWAP1 JUMP JUMPDEST PUSH1 0x1 DUP1 SLOAD ADD DUP3 GT ISZERO PUSH2 0xF7D JUMPI PUSH1 0x40 MLOAD PUSH32 0x8C379A000000000000000000000000000000000000000000000000000000000 DUP2 MSTORE PUSH1 0x4 ADD DUP1 DUP1 PUSH1 0x20 ADD DUP3 DUP2 SUB DUP3 MSTORE PUSH1 0x1C DUP2 MSTORE PUSH1 0x20 ADD DUP1 PUSH32 0x52504C534D413A20696E76616C696420626C6F636B206E756D62657200000000 DUP2 MSTORE POP PUSH1 0x20 ADD SWAP2 POP POP PUSH1 0x40 MLOAD DUP1 SWAP2 SUB SWAP1 REVERT JUMPDEST PUSH1 0x0 DUP1 PUSH1 0x5 PUSH1 0x0 DUP6 DUP2 MSTORE PUSH1 0x20 ADD SWAP1 DUP2 MSTORE PUSH1 0x20 ADD PUSH1 0x0 KECCAK256 DUP4 DUP2 SLOAD DUP2 LT PUSH2 0xF9E JUMPI INVALID JUMPDEST SWAP1 PUSH1 0x0 MSTORE PUSH1 0x20 PUSH1 0x0 KECCAK256 SWAP1 PUSH1 0x3 MUL ADD PUSH1 0x2 ADD SWAP1 POP PUSH1 0x0 DUP1 SWAP1 POP JUMPDEST DUP2 DUP1 SLOAD SWAP1 POP DUP2 LT ISZERO PUSH2 0x101D JUMPI PUSH2 0x1002 DUP3 DUP3 DUP2 SLOAD DUP2 LT PUSH2 0xFD2 JUMPI INVALID JUMPDEST SWAP1 PUSH1 0x0 MSTORE PUSH1 0x20 PUSH1 0x0 KECCAK256 ADD PUSH1 0x0 SWAP1 SLOAD SWAP1 PUSH2 0x100 EXP SWAP1 DIV PUSH20 0xFFFFFFFFFFFFFFFFFFFFFFFFFFFFFFFFFFFFFFFF AND PUSH2 0x11E2 JUMP JUMPDEST ISZERO PUSH2 0x1010 JUMPI DUP3 DUP1 PUSH1 0x1 ADD SWAP4 POP POP JUMPDEST DUP1 DUP1 PUSH1 0x1 ADD SWAP2 POP POP PUSH2 0xFB7 JUMP JUMPDEST POP PUSH2 0x1037 PUSH1 0x2 PUSH1 0x4 DUP1 SLOAD SWAP1 POP PUSH2 0x142A SWAP1 SWAP2 SWAP1 PUSH4 0xFFFFFFFF AND JUMP JUMPDEST PUSH2 0x104B PUSH1 0x3 DUP5 PUSH2 0x142A SWAP1 SWAP2 SWAP1 PUSH4 0xFFFFFFFF AND JUMP JUMPDEST GT PUSH2 0x10BE JUMPI PUSH1 0x40 MLOAD PUSH32 0x8C379A000000000000000000000000000000000000000000000000000000000 DUP2 MSTORE PUSH1 0x4 ADD DUP1 DUP1 PUSH1 0x20 ADD DUP3 DUP2 SUB DUP3 MSTORE PUSH1 0x1A DUP2 MSTORE PUSH1 0x20 ADD DUP1 PUSH32 0x52504C534D413A206E6F74203636252076616C696461746F7273000000000000 DUP2 MSTORE POP PUSH1 0x20 ADD SWAP2 POP POP PUSH1 0x40 MLOAD DUP1 SWAP2 SUB SWAP1 REVERT JUMPDEST PUSH1 0x40 MLOAD DUP1 PUSH1 0x40 ADD PUSH1 0x40 MSTORE DUP1 PUSH1 0x5 PUSH1 0x0 DUP8 DUP2 MSTORE PUSH1 0x20 ADD SWAP1 DUP2 MSTORE PUSH1 0x20 ADD PUSH1 0x0 KECCAK256 DUP6 DUP2 SLOAD DUP2 LT PUSH2 0x10E7 JUMPI INVALID JUMPDEST SWAP1 PUSH1 0x0 MSTORE PUSH1 0x20 PUSH1 0x0 KECCAK256 SWAP1 PUSH1 0x3 MUL ADD PUSH1 0x0 ADD SLOAD DUP2 MSTORE PUSH1 0x20 ADD PUSH1 0x5 PUSH1 0x0 DUP8 DUP2 MSTORE PUSH1 0x20 ADD SWAP1 DUP2 MSTORE PUSH1 0x20 ADD PUSH1 0x0 KECCAK256 DUP6 DUP2 SLOAD DUP2 LT PUSH2 0x111C JUMPI INVALID JUMPDEST SWAP1 PUSH1 0x0 MSTORE PUSH1 0x20 PUSH1 0x0 KECCAK256 SWAP1 PUSH1 0x3 MUL ADD PUSH1 0x1 ADD SLOAD DUP2 MSTORE POP PUSH1 0x6 PUSH1 0x0 DUP7 DUP2 MSTORE PUSH1 0x20 ADD SWAP1 DUP2 MSTORE PUSH1 0x20 ADD PUSH1 0x0 KECCAK256 PUSH1 0x0 DUP3 ADD MLOAD DUP2 PUSH1 0x0 ADD SSTORE PUSH1 0x20 DUP3 ADD MLOAD DUP2 PUSH1 0x1 ADD SSTORE SWAP1 POP POP PUSH1 0x5 PUSH1 0x0 DUP6 DUP2 MSTORE PUSH1 0x20 ADD SWAP1 DUP2 MSTORE PUSH1 0x20 ADD PUSH1 0x0 KECCAK256 DUP4 DUP2 SLOAD DUP2 LT PUSH2 0x1179 JUMPI INVALID JUMPDEST SWAP1 PUSH1 0x0 MSTORE PUSH1 0x20 PUSH1 0x0 KECCAK256 SWAP1 PUSH1 0x3 MUL ADD PUSH1 0x2 ADD PUSH1 0x0 PUSH2 0x1196 SWAP2 SWAP1 PUSH2 0x1557 JUMP JUMPDEST DUP4 PUSH1 0x1 DUP2 SWAP1 SSTORE POP PUSH32 0x72485B82F943DDB489949C1B7FEAEA5C5ACD4113547CAD7A281343C8300FC6F1 DUP5 DUP5 PUSH1 0x40 MLOAD DUP1 DUP4 DUP2 MSTORE PUSH1 0x20 ADD DUP3 DUP2 MSTORE PUSH1 0x20 ADD SWAP3 POP POP POP PUSH1 0x40 MLOAD DUP1 SWAP2 SUB SWAP1 LOG1 POP POP POP POP JUMP JUMPDEST PUSH1 0x0 DUP1 PUSH1 0x0 SWAP1 POP JUMPDEST PUSH1 0x4 DUP1 SLOAD SWAP1 POP DUP2 LT ISZERO PUSH2 0x1279 JUMPI PUSH1 0x4 DUP2 DUP2 SLOAD DUP2 LT PUSH2 0x1204 JUMPI INVALID JUMPDEST SWAP1 PUSH1 0x0 MSTORE PUSH1 0x20 PUSH1 0x0 KECCAK256 ADD PUSH1 0x0 SWAP1 SLOAD SWAP1 PUSH2 0x100 EXP SWAP1 DIV PUSH20 0xFFFFFFFFFFFFFFFFFFFFFFFFFFFFFFFFFFFFFFFF AND PUSH20 0xFFFFFFFFFFFFFFFFFFFFFFFFFFFFFFFFFFFFFFFF AND DUP4 PUSH20 0xFFFFFFFFFFFFFFFFFFFFFFFFFFFFFFFFFFFFFFFF AND EQ ISZERO PUSH2 0x126C JUMPI PUSH1 0x1 SWAP2 POP POP PUSH2 0x127F JUMP JUMPDEST DUP1 DUP1 PUSH1 0x1 ADD SWAP2 POP POP PUSH2 0x11EA JUMP JUMPDEST POP PUSH1 0x0 SWAP1 POP JUMPDEST SWAP2 SWAP1 POP JUMP JUMPDEST PUSH1 0x0 DUP1 SWAP1 POP JUMPDEST DUP3 DUP1 SLOAD SWAP1 POP DUP2 LT ISZERO PUSH2 0x1425 JUMPI PUSH1 0x0 DUP4 DUP3 DUP2 SLOAD DUP2 LT PUSH2 0x12A4 JUMPI INVALID JUMPDEST SWAP1 PUSH1 0x0 MSTORE PUSH1 0x20 PUSH1 0x0 KECCAK256 SWAP1 PUSH1 0x3 MUL ADD PUSH1 0x2 ADD SWAP1 POP PUSH1 0x0 DUP1 SWAP1 POP JUMPDEST DUP2 DUP1 SLOAD SWAP1 POP DUP2 LT ISZERO PUSH2 0x1416 JUMPI DUP2 DUP2 DUP2 SLOAD DUP2 LT PUSH2 0x12D5 JUMPI INVALID JUMPDEST SWAP1 PUSH1 0x0 MSTORE PUSH1 0x20 PUSH1 0x0 KECCAK256 ADD PUSH1 0x0 SWAP1 SLOAD SWAP1 PUSH2 0x100 EXP SWAP1 DIV PUSH20 0xFFFFFFFFFFFFFFFFFFFFFFFFFFFFFFFFFFFFFFFF AND PUSH20 0xFFFFFFFFFFFFFFFFFFFFFFFFFFFFFFFFFFFFFFFF AND DUP5 PUSH20 0xFFFFFFFFFFFFFFFFFFFFFFFFFFFFFFFFFFFFFFFF AND EQ ISZERO PUSH2 0x1409 JUMPI DUP2 PUSH1 0x1 DUP4 DUP1 SLOAD SWAP1 POP SUB DUP2 SLOAD DUP2 LT PUSH2 0x1346 JUMPI INVALID JUMPDEST SWAP1 PUSH1 0x0 MSTORE PUSH1 0x20 PUSH1 0x0 KECCAK256 ADD PUSH1 0x0 SWAP1 SLOAD SWAP1 PUSH2 0x100 EXP SWAP1 DIV PUSH20 0xFFFFFFFFFFFFFFFFFFFFFFFFFFFFFFFFFFFFFFFF AND DUP3 DUP3 DUP2 SLOAD DUP2 LT PUSH2 0x137D JUMPI INVALID JUMPDEST SWAP1 PUSH1 0x0 MSTORE PUSH1 0x20 PUSH1 0x0 KECCAK256 ADD PUSH1 0x0 PUSH2 0x100 EXP DUP2 SLOAD DUP2 PUSH20 0xFFFFFFFFFFFFFFFFFFFFFFFFFFFFFFFFFFFFFFFF MUL NOT AND SWAP1 DUP4 PUSH20 0xFFFFFFFFFFFFFFFFFFFFFFFFFFFFFFFFFFFFFFFF AND MUL OR SWAP1 SSTORE POP DUP2 DUP1 SLOAD DUP1 PUSH2 0x13CF JUMPI INVALID JUMPDEST PUSH1 0x1 SWAP1 SUB DUP2 DUP2 SWAP1 PUSH1 0x0 MSTORE PUSH1 0x20 PUSH1 0x0 KECCAK256 ADD PUSH1 0x0 PUSH2 0x100 EXP DUP2 SLOAD SWAP1 PUSH20 0xFFFFFFFFFFFFFFFFFFFFFFFFFFFFFFFFFFFFFFFF MUL NOT AND SWAP1 SSTORE SWAP1 SSTORE PUSH2 0x1416 JUMP JUMPDEST DUP1 DUP1 PUSH1 0x1 ADD SWAP2 POP POP PUSH2 0x12BD JUMP JUMPDEST POP POP DUP1 DUP1 PUSH1 0x1 ADD SWAP2 POP POP PUSH2 0x128A JUMP JUMPDEST POP POP POP JUMP JUMPDEST PUSH1 0x0 DUP1 DUP4 EQ ISZERO PUSH2 0x143D JUMPI PUSH1 0x0 SWAP1 POP PUSH2 0x14C7 JUMP JUMPDEST PUSH1 0x0 DUP3 DUP5 MUL SWAP1 POP DUP3 DUP5 DUP3 DUP2 PUSH2 0x144E JUMPI INVALID JUMPDEST DIV EQ PUSH2 0x14C2 JUMPI PUSH1 0x40 MLOAD PUSH32 0x8C379A000000000000000000000000000000000000000000000000000000000 DUP2 MSTORE PUSH1 0x4 ADD DUP1 DUP1 PUSH1 0x20 ADD DUP3 DUP2 SUB DUP3 MSTORE PUSH1 0x1F DUP2 MSTORE PUSH1 0x20 ADD DUP1 PUSH32 0x536166654D6174683A204D756C7469706C696361746E206F766572666C6F7700 DUP2 MSTORE POP PUSH1 0x20 ADD SWAP2 POP POP PUSH1 0x40 MLOAD DUP1 SWAP2 SUB SWAP1 REVERT JUMPDEST DUP1 SWAP2 POP POP JUMPDEST SWAP3 SWAP2 POP POP JUMP JUMPDEST DUP3 DUP1 SLOAD DUP3 DUP3 SSTORE SWAP1 PUSH1 0x0 MSTORE PUSH1 0x20 PUSH1 0x0 KECCAK256 SWAP1 DUP2 ADD SWAP3 DUP3 ISZERO PUSH2 0x1546 JUMPI SWAP2 PUSH1 0x20 MUL DUP3 ADD JUMPDEST DUP3 DUP2 GT ISZERO PUSH2 0x1545 JUMPI DUP3 MLOAD DUP3 PUSH1 0x0 PUSH2 0x100 EXP DUP2 SLOAD DUP2 PUSH20 0xFFFFFFFFFFFFFFFFFFFFFFFFFFFFFFFFFFFFFFFF MUL NOT AND SWAP1 DUP4 PUSH20 0xFFFFFFFFFFFFFFFFFFFFFFFFFFFFFFFFFFFFFFFF AND MUL OR SWAP1 SSTORE POP SWAP2 PUSH1 0x20 ADD SWAP2 SWAP1 PUSH1 0x1 ADD SWAP1 PUSH2 0x14ED JUMP JUMPDEST JUMPDEST POP SWAP1 POP PUSH2 0x1553 SWAP2 SWAP1 PUSH2 0x1578 JUMP JUMPDEST POP SWAP1 JUMP JUMPDEST POP DUP1 SLOAD PUSH1 0x0 DUP3 SSTORE SWAP1 PUSH1 0x0 MSTORE PUSH1 0x20 PUSH1 0x0 KECCAK256 SWAP1 DUP2 ADD SWAP1 PUSH2 0x1575 SWAP2 SWAP1 PUSH2 0x15BB JUMP JUMPDEST POP JUMP JUMPDEST PUSH2 0x15B8 SWAP2 SWAP1 JUMPDEST DUP1 DUP3 GT ISZERO PUSH2 0x15B4 JUMPI PUSH1 0x0 DUP2 DUP2 PUSH2 0x100 EXP DUP2 SLOAD SWAP1 PUSH20 0xFFFFFFFFFFFFFFFFFFFFFFFFFFFFFFFFFFFFFFFF MUL NOT AND SWAP1 SSTORE POP PUSH1 0x1 ADD PUSH2 0x157E JUMP JUMPDEST POP SWAP1 JUMP JUMPDEST SWAP1 JUMP JUMPDEST PUSH2 0x15DD SWAP2 SWAP1 JUMPDEST DUP1 DUP3 GT ISZERO PUSH2 0x15D9 JUMPI PUSH1 0x0 DUP2 PUSH1 0x0 SWAP1 SSTORE POP PUSH1 0x1 ADD PUSH2 0x15C1 JUMP JUMPDEST POP SWAP1 JUMP JUMPDEST SWAP1 JUMP INVALID LOG2 PUSH5 0x6970667358 0x22 SLT KECCAK256 0xAC 0xF9 SWAP3 SWAP11 SWAP16 0x22 EXTCODESIZE 0x5E 0xC0 DUP10 NOT 0xB2 SWAP12 0x5E PUSH5 0xC464C61CE1 PUSH4 0x9C93E84A MLOAD SELFDESTRUCT DUP15 SLOAD 0xDF 0xD6 PUSH22 0x64736F6C634300060A00330000000000000000000000 "},"gasEstimates":{"creation":{"codeDepositCost":"1130800","executionCost":"42906","totalCost":"1173706"},"external":{"ethBlockchain(uint256)":"2033","ethProposals(uint256,uint256)":"2951","finalizeProposal(uint256,uint256)":"infinite","findProposal(uint256,bytes32,bytes32)":"infinite","getAllValidators()":"infinite","getProposalValidators(uint256,uint256)":"infinite","getProposalsCount(uint256)":"1232","isValidator(address)":"infinite","latestBlockNumber()":"1072","mainValidators(uint256)":"2040","proposeBlock(uint256,bytes32,bytes32)":"infinite","reverseDepositAddress()":"1098","setInitialValues(address,uint256,address[])":"infinite","tokenOnETH()":"1142","updateDepositAddress(address)":"21169"},"internal":{"_removeValidatorFromAllProposals(struct ReversePlasma.BlockHeaderProposal storage ref[] storage pointer,address)":"infinite"}},"methodIdentifiers":{"ethBlockchain(uint256)":"0635ce00","ethProposals(uint256,uint256)":"d7ef9dcc","finalizeProposal(uint256,uint256)":"f80339a8","findProposal(uint256,bytes32,bytes32)":"be08be6d","getAllValidators()":"f3513a37","getProposalValidators(uint256,uint256)":"439ef4d3","getProposalsCount(uint256)":"1b1aa8b8","isValidator(address)":"facd743b","latestBlockNumber()":"4599c788","mainValidators(uint256)":"3ce03bdd","proposeBlock(uint256,bytes32,bytes32)":"bd13222c","reverseDepositAddress()":"9d382ed0","setInitialValues(address,uint256,address[])":"5f281006","tokenOnETH()":"5053f5fd","updateDepositAddress(address)":"1ba853d0"}},"storageLayout":{"storage":[{"astId":357,"contract":"ESN/ReversePlasma.sol:ReversePlasma","label":"deployer","offset":0,"slot":"0","type":"t_address"},{"astId":359,"contract":"ESN/ReversePlasma.sol:ReversePlasma","label":"latestBlockNumber","offset":0,"slot":"1","type":"t_uint256"},{"astId":361,"contract":"ESN/ReversePlasma.sol:ReversePlasma","label":"tokenOnETH","offset":0,"slot":"2","type":"t_address"},{"astId":367,"contract":"ESN/ReversePlasma.sol:ReversePlasma","label":"reverseDepositAddress","offset":0,"slot":"3","type":"t_address"},{"astId":370,"contract":"ESN/ReversePlasma.sol:ReversePlasma","label":"mainValidators","offset":0,"slot":"4","type":"t_array(t_address)dyn_storage"},{"astId":375,"contract":"ESN/ReversePlasma.sol:ReversePlasma","label":"ethProposals","offset":0,"slot":"5","type":"t_mapping(t_uint256,t_array(t_struct(BlockHeaderProposal)354_storage)dyn_storage)"},{"astId":379,"contract":"ESN/ReversePlasma.sol:ReversePlasma","label":"ethBlockchain","offset":0,"slot":"6","type":"t_mapping(t_uint256,t_struct(BlockHeaderFinalized)346_storage)"}],"types":{"t_address":{"encoding":"inplace","label":"address","numberOfBytes":"20"},"t_array(t_address)dyn_storage":{"base":"t_address","encoding":"dynamic_array","label":"address[]","numberOfBytes":"32"},"t_array(t_struct(BlockHeaderProposal)354_storage)dyn_storage":{"base":"t_struct(BlockHeaderProposal)354_storage","encoding":"dynamic_array","label":"struct ReversePlasma.BlockHeaderProposal[]","numberOfBytes":"32"},"t_bytes32":{"encoding":"inplace","label":"bytes32","numberOfBytes":"32"},"t_mapping(t_uint256,t_array(t_struct(BlockHeaderProposal)354_storage)dyn_storage)":{"encoding":"mapping","key":"t_uint256","label":"mapping(uint256 => struct ReversePlasma.BlockHeaderProposal[])","numberOfBytes":"32","value":"t_array(t_struct(BlockHeaderProposal)354_storage)dyn_storage"},"t_mapping(t_uint256,t_struct(BlockHeaderFinalized)346_storage)":{"encoding":"mapping","key":"t_uint256","label":"mapping(uint256 => struct ReversePlasma.BlockHeaderFinalized)","numberOfBytes":"32","value":"t_struct(BlockHeaderFinalized)346_storage"},"t_struct(BlockHeaderFinalized)346_storage":{"encoding":"inplace","label":"struct ReversePlasma.BlockHeaderFinalized","members":[{"astId":343,"contract":"ESN/ReversePlasma.sol:ReversePlasma","label":"transactionsRoot","offset":0,"slot":"0","type":"t_bytes32"},{"astId":345,"contract":"ESN/ReversePlasma.sol:ReversePlasma","label":"receiptsRoot","offset":0,"slot":"1","type":"t_bytes32"}],"numberOfBytes":"64"},"t_struct(BlockHeaderProposal)354_storage":{"encoding":"inplace","label":"struct ReversePlasma.BlockHeaderProposal","members":[{"astId":348,"contract":"ESN/ReversePlasma.sol:ReversePlasma","label":"transactionsRoot","offset":0,"slot":"0","type":"t_bytes32"},{"astId":350,"contract":"ESN/ReversePlasma.sol:ReversePlasma","label":"receiptsRoot","offset":0,"slot":"1","type":"t_bytes32"},{"astId":353,"contract":"ESN/ReversePlasma.sol:ReversePlasma","label":"proposalValidators","offset":0,"slot":"2","type":"t_array(t_address)dyn_storage"}],"numberOfBytes":"96"},"t_uint256":{"encoding":"inplace","label":"uint256","numberOfBytes":"32"}}},"userdoc":{"methods":{}}}